{
	"contracts/TpPool.sol/SimpleDEX.sol": {
		"SimpleDEX": {
			"abi": [
				{
					"inputs": [
						{
							"internalType": "address",
							"name": "_tokenA",
							"type": "address"
						},
						{
							"internalType": "address",
							"name": "_tokenB",
							"type": "address"
						}
					],
					"stateMutability": "nonpayable",
					"type": "constructor"
				},
				{
					"anonymous": false,
					"inputs": [
						{
							"indexed": true,
							"internalType": "address",
							"name": "provider",
							"type": "address"
						},
						{
							"indexed": false,
							"internalType": "uint256",
							"name": "amountA",
							"type": "uint256"
						},
						{
							"indexed": false,
							"internalType": "uint256",
							"name": "amountB",
							"type": "uint256"
						}
					],
					"name": "LiquidityAdded",
					"type": "event"
				},
				{
					"anonymous": false,
					"inputs": [
						{
							"indexed": true,
							"internalType": "address",
							"name": "provider",
							"type": "address"
						},
						{
							"indexed": false,
							"internalType": "uint256",
							"name": "amountA",
							"type": "uint256"
						},
						{
							"indexed": false,
							"internalType": "uint256",
							"name": "amountB",
							"type": "uint256"
						}
					],
					"name": "LiquidityRemoved",
					"type": "event"
				},
				{
					"anonymous": false,
					"inputs": [
						{
							"indexed": true,
							"internalType": "address",
							"name": "user",
							"type": "address"
						},
						{
							"indexed": false,
							"internalType": "address",
							"name": "fromToken",
							"type": "address"
						},
						{
							"indexed": false,
							"internalType": "uint256",
							"name": "inputAmount",
							"type": "uint256"
						},
						{
							"indexed": false,
							"internalType": "uint256",
							"name": "outputAmount",
							"type": "uint256"
						}
					],
					"name": "Swap",
					"type": "event"
				},
				{
					"inputs": [
						{
							"internalType": "uint256",
							"name": "amountA",
							"type": "uint256"
						},
						{
							"internalType": "uint256",
							"name": "amountB",
							"type": "uint256"
						}
					],
					"name": "addLiquidity",
					"outputs": [],
					"stateMutability": "nonpayable",
					"type": "function"
				},
				{
					"inputs": [
						{
							"internalType": "address",
							"name": "_token",
							"type": "address"
						}
					],
					"name": "getPrice",
					"outputs": [
						{
							"internalType": "uint256",
							"name": "price",
							"type": "uint256"
						}
					],
					"stateMutability": "view",
					"type": "function"
				},
				{
					"inputs": [],
					"name": "owner",
					"outputs": [
						{
							"internalType": "address",
							"name": "",
							"type": "address"
						}
					],
					"stateMutability": "view",
					"type": "function"
				},
				{
					"inputs": [
						{
							"internalType": "uint256",
							"name": "amountA",
							"type": "uint256"
						},
						{
							"internalType": "uint256",
							"name": "amountB",
							"type": "uint256"
						}
					],
					"name": "removeLiquidity",
					"outputs": [],
					"stateMutability": "nonpayable",
					"type": "function"
				},
				{
					"inputs": [],
					"name": "reserveA",
					"outputs": [
						{
							"internalType": "uint256",
							"name": "",
							"type": "uint256"
						}
					],
					"stateMutability": "view",
					"type": "function"
				},
				{
					"inputs": [],
					"name": "reserveB",
					"outputs": [
						{
							"internalType": "uint256",
							"name": "",
							"type": "uint256"
						}
					],
					"stateMutability": "view",
					"type": "function"
				},
				{
					"inputs": [
						{
							"internalType": "uint256",
							"name": "amountAIn",
							"type": "uint256"
						}
					],
					"name": "swapAforB",
					"outputs": [],
					"stateMutability": "nonpayable",
					"type": "function"
				},
				{
					"inputs": [
						{
							"internalType": "uint256",
							"name": "amountBIn",
							"type": "uint256"
						}
					],
					"name": "swapBforA",
					"outputs": [],
					"stateMutability": "nonpayable",
					"type": "function"
				},
				{
					"inputs": [],
					"name": "tokenA",
					"outputs": [
						{
							"internalType": "address",
							"name": "",
							"type": "address"
						}
					],
					"stateMutability": "view",
					"type": "function"
				},
				{
					"inputs": [],
					"name": "tokenB",
					"outputs": [
						{
							"internalType": "address",
							"name": "",
							"type": "address"
						}
					],
					"stateMutability": "view",
					"type": "function"
				}
			],
			"devdoc": {
				"kind": "dev",
				"methods": {},
				"version": 1
			},
			"evm": {
				"assembly": "    /* \"contracts/TpPool.sol/SimpleDEX.sol\":1090:4328  contract SimpleDEX {... */\n  mstore(0x40, 0x80)\n    /* \"contracts/TpPool.sol/SimpleDEX.sol\":1665:1802  constructor(address _tokenA, address _tokenB) {... */\n  callvalue\n  dup1\n  iszero\n  tag_1\n  jumpi\n  0x00\n  dup1\n  revert\ntag_1:\n  pop\n  mload(0x40)\n  sub(codesize, bytecodeSize)\n  dup1\n  bytecodeSize\n  dup4\n  codecopy\n  dup2\n  dup2\n  add\n  0x40\n  mstore\n  dup2\n  add\n  swap1\n  tag_2\n  swap2\n  swap1\n  tag_3\n  jump\t// in\ntag_2:\n    /* \"contracts/TpPool.sol/SimpleDEX.sol\":1731:1738  _tokenA */\n  dup2\n    /* \"contracts/TpPool.sol/SimpleDEX.sol\":1722:1728  tokenA */\n  0x00\n  dup1\n    /* \"contracts/TpPool.sol/SimpleDEX.sol\":1722:1738  tokenA = _tokenA */\n  0x0100\n  exp\n  dup2\n  sload\n  dup2\n  0xffffffffffffffffffffffffffffffffffffffff\n  mul\n  not\n  and\n  swap1\n  dup4\n  0xffffffffffffffffffffffffffffffffffffffff\n  and\n  mul\n  or\n  swap1\n  sstore\n  pop\n    /* \"contracts/TpPool.sol/SimpleDEX.sol\":1758:1765  _tokenB */\n  dup1\n    /* \"contracts/TpPool.sol/SimpleDEX.sol\":1749:1755  tokenB */\n  0x01\n  0x00\n    /* \"contracts/TpPool.sol/SimpleDEX.sol\":1749:1765  tokenB = _tokenB */\n  0x0100\n  exp\n  dup2\n  sload\n  dup2\n  0xffffffffffffffffffffffffffffffffffffffff\n  mul\n  not\n  and\n  swap1\n  dup4\n  0xffffffffffffffffffffffffffffffffffffffff\n  and\n  mul\n  or\n  swap1\n  sstore\n  pop\n    /* \"contracts/TpPool.sol/SimpleDEX.sol\":1784:1794  msg.sender */\n  caller\n    /* \"contracts/TpPool.sol/SimpleDEX.sol\":1776:1781  owner */\n  0x04\n  0x00\n    /* \"contracts/TpPool.sol/SimpleDEX.sol\":1776:1794  owner = msg.sender */\n  0x0100\n  exp\n  dup2\n  sload\n  dup2\n  0xffffffffffffffffffffffffffffffffffffffff\n  mul\n  not\n  and\n  swap1\n  dup4\n  0xffffffffffffffffffffffffffffffffffffffff\n  and\n  mul\n  or\n  swap1\n  sstore\n  pop\n    /* \"contracts/TpPool.sol/SimpleDEX.sol\":1665:1802  constructor(address _tokenA, address _tokenB) {... */\n  pop\n  pop\n    /* \"contracts/TpPool.sol/SimpleDEX.sol\":1090:4328  contract SimpleDEX {... */\n  jump(tag_6)\n    /* \"#utility.yul\":88:205   */\ntag_8:\n    /* \"#utility.yul\":197:198   */\n  0x00\n    /* \"#utility.yul\":194:195   */\n  dup1\n    /* \"#utility.yul\":187:199   */\n  revert\n    /* \"#utility.yul\":334:460   */\ntag_10:\n    /* \"#utility.yul\":371:378   */\n  0x00\n    /* \"#utility.yul\":411:453   */\n  0xffffffffffffffffffffffffffffffffffffffff\n    /* \"#utility.yul\":404:409   */\n  dup3\n    /* \"#utility.yul\":400:454   */\n  and\n    /* \"#utility.yul\":389:454   */\n  swap1\n  pop\n    /* \"#utility.yul\":334:460   */\n  swap2\n  swap1\n  pop\n  jump\t// out\n    /* \"#utility.yul\":466:562   */\ntag_11:\n    /* \"#utility.yul\":503:510   */\n  0x00\n    /* \"#utility.yul\":532:556   */\n  tag_20\n    /* \"#utility.yul\":550:555   */\n  dup3\n    /* \"#utility.yul\":532:556   */\n  tag_10\n  jump\t// in\ntag_20:\n    /* \"#utility.yul\":521:556   */\n  swap1\n  pop\n    /* \"#utility.yul\":466:562   */\n  swap2\n  swap1\n  pop\n  jump\t// out\n    /* \"#utility.yul\":568:690   */\ntag_12:\n    /* \"#utility.yul\":641:665   */\n  tag_22\n    /* \"#utility.yul\":659:664   */\n  dup2\n    /* \"#utility.yul\":641:665   */\n  tag_11\n  jump\t// in\ntag_22:\n    /* \"#utility.yul\":634:639   */\n  dup2\n    /* \"#utility.yul\":631:666   */\n  eq\n    /* \"#utility.yul\":621:684   */\n  tag_23\n  jumpi\n    /* \"#utility.yul\":680:681   */\n  0x00\n    /* \"#utility.yul\":677:678   */\n  dup1\n    /* \"#utility.yul\":670:682   */\n  revert\n    /* \"#utility.yul\":621:684   */\ntag_23:\n    /* \"#utility.yul\":568:690   */\n  pop\n  jump\t// out\n    /* \"#utility.yul\":696:839   */\ntag_13:\n    /* \"#utility.yul\":753:758   */\n  0x00\n    /* \"#utility.yul\":784:790   */\n  dup2\n    /* \"#utility.yul\":778:791   */\n  mload\n    /* \"#utility.yul\":769:791   */\n  swap1\n  pop\n    /* \"#utility.yul\":800:833   */\n  tag_25\n    /* \"#utility.yul\":827:832   */\n  dup2\n    /* \"#utility.yul\":800:833   */\n  tag_12\n  jump\t// in\ntag_25:\n    /* \"#utility.yul\":696:839   */\n  swap3\n  swap2\n  pop\n  pop\n  jump\t// out\n    /* \"#utility.yul\":845:1352   */\ntag_3:\n    /* \"#utility.yul\":924:930   */\n  0x00\n    /* \"#utility.yul\":932:938   */\n  dup1\n    /* \"#utility.yul\":981:983   */\n  0x40\n    /* \"#utility.yul\":969:978   */\n  dup4\n    /* \"#utility.yul\":960:967   */\n  dup6\n    /* \"#utility.yul\":956:979   */\n  sub\n    /* \"#utility.yul\":952:984   */\n  slt\n    /* \"#utility.yul\":949:1068   */\n  iszero\n  tag_27\n  jumpi\n    /* \"#utility.yul\":987:1066   */\n  tag_28\n  tag_8\n  jump\t// in\ntag_28:\n    /* \"#utility.yul\":949:1068   */\ntag_27:\n    /* \"#utility.yul\":1107:1108   */\n  0x00\n    /* \"#utility.yul\":1132:1196   */\n  tag_29\n    /* \"#utility.yul\":1188:1195   */\n  dup6\n    /* \"#utility.yul\":1179:1185   */\n  dup3\n    /* \"#utility.yul\":1168:1177   */\n  dup7\n    /* \"#utility.yul\":1164:1186   */\n  add\n    /* \"#utility.yul\":1132:1196   */\n  tag_13\n  jump\t// in\ntag_29:\n    /* \"#utility.yul\":1122:1196   */\n  swap3\n  pop\n    /* \"#utility.yul\":1078:1206   */\n  pop\n    /* \"#utility.yul\":1245:1247   */\n  0x20\n    /* \"#utility.yul\":1271:1335   */\n  tag_30\n    /* \"#utility.yul\":1327:1334   */\n  dup6\n    /* \"#utility.yul\":1318:1324   */\n  dup3\n    /* \"#utility.yul\":1307:1316   */\n  dup7\n    /* \"#utility.yul\":1303:1325   */\n  add\n    /* \"#utility.yul\":1271:1335   */\n  tag_13\n  jump\t// in\ntag_30:\n    /* \"#utility.yul\":1261:1335   */\n  swap2\n  pop\n    /* \"#utility.yul\":1216:1345   */\n  pop\n    /* \"#utility.yul\":845:1352   */\n  swap3\n  pop\n  swap3\n  swap1\n  pop\n  jump\t// out\n    /* \"contracts/TpPool.sol/SimpleDEX.sol\":1090:4328  contract SimpleDEX {... */\ntag_6:\n  dataSize(sub_0)\n  dup1\n  dataOffset(sub_0)\n  0x00\n  codecopy\n  0x00\n  return\nstop\n\nsub_0: assembly {\n        /* \"contracts/TpPool.sol/SimpleDEX.sol\":1090:4328  contract SimpleDEX {... */\n      mstore(0x40, 0x80)\n      callvalue\n      dup1\n      iszero\n      tag_1\n      jumpi\n      0x00\n      dup1\n      revert\n    tag_1:\n      pop\n      jumpi(tag_2, lt(calldatasize, 0x04))\n      shr(0xe0, calldataload(0x00))\n      dup1\n      0x8da5cb5b\n      gt\n      tag_13\n      jumpi\n      dup1\n      0x8da5cb5b\n      eq\n      tag_8\n      jumpi\n      dup1\n      0x9cd441da\n      eq\n      tag_9\n      jumpi\n      dup1\n      0x9d7de6b3\n      eq\n      tag_10\n      jumpi\n      dup1\n      0xdc5fa6c5\n      eq\n      tag_11\n      jumpi\n      dup1\n      0xe4f1f70a\n      eq\n      tag_12\n      jumpi\n      jump(tag_2)\n    tag_13:\n      dup1\n      0x0fc63d10\n      eq\n      tag_3\n      jumpi\n      dup1\n      0x19e36f3b\n      eq\n      tag_4\n      jumpi\n      dup1\n      0x41976e09\n      eq\n      tag_5\n      jumpi\n      dup1\n      0x5f64b55b\n      eq\n      tag_6\n      jumpi\n      dup1\n      0x8014a7aa\n      eq\n      tag_7\n      jumpi\n    tag_2:\n      0x00\n      dup1\n      revert\n        /* \"contracts/TpPool.sol/SimpleDEX.sol\":1116:1137  address public tokenA */\n    tag_3:\n      tag_14\n      tag_15\n      jump\t// in\n    tag_14:\n      mload(0x40)\n      tag_16\n      swap2\n      swap1\n      tag_17\n      jump\t// in\n    tag_16:\n      mload(0x40)\n      dup1\n      swap2\n      sub\n      swap1\n      return\n        /* \"contracts/TpPool.sol/SimpleDEX.sol\":1202:1225  uint256 public reserveB */\n    tag_4:\n      tag_18\n      tag_19\n      jump\t// in\n    tag_18:\n      mload(0x40)\n      tag_20\n      swap2\n      swap1\n      tag_21\n      jump\t// in\n    tag_20:\n      mload(0x40)\n      dup1\n      swap2\n      sub\n      swap1\n      return\n        /* \"contracts/TpPool.sol/SimpleDEX.sol\":3889:4325  function getPrice(address _token) external view returns (uint256 price) {... */\n    tag_5:\n      tag_22\n      0x04\n      dup1\n      calldatasize\n      sub\n      dup2\n      add\n      swap1\n      tag_23\n      swap2\n      swap1\n      tag_24\n      jump\t// in\n    tag_23:\n      tag_25\n      jump\t// in\n    tag_22:\n      mload(0x40)\n      tag_26\n      swap2\n      swap1\n      tag_21\n      jump\t// in\n    tag_26:\n      mload(0x40)\n      dup1\n      swap2\n      sub\n      swap1\n      return\n        /* \"contracts/TpPool.sol/SimpleDEX.sol\":1144:1165  address public tokenB */\n    tag_6:\n      tag_27\n      tag_28\n      jump\t// in\n    tag_27:\n      mload(0x40)\n      tag_29\n      swap2\n      swap1\n      tag_17\n      jump\t// in\n    tag_29:\n      mload(0x40)\n      dup1\n      swap2\n      sub\n      swap1\n      return\n        /* \"contracts/TpPool.sol/SimpleDEX.sol\":2877:3409  function swapBforA(uint256 amountBIn) external {... */\n    tag_7:\n      tag_30\n      0x04\n      dup1\n      calldatasize\n      sub\n      dup2\n      add\n      swap1\n      tag_31\n      swap2\n      swap1\n      tag_32\n      jump\t// in\n    tag_31:\n      tag_33\n      jump\t// in\n    tag_30:\n      stop\n        /* \"contracts/TpPool.sol/SimpleDEX.sol\":1232:1252  address public owner */\n    tag_8:\n      tag_34\n      tag_35\n      jump\t// in\n    tag_34:\n      mload(0x40)\n      tag_36\n      swap2\n      swap1\n      tag_17\n      jump\t// in\n    tag_36:\n      mload(0x40)\n      dup1\n      swap2\n      sub\n      swap1\n      return\n        /* \"contracts/TpPool.sol/SimpleDEX.sol\":1834:2265  function addLiquidity(uint256 amountA, uint256 amountB) external onlyOwner {... */\n    tag_9:\n      tag_37\n      0x04\n      dup1\n      calldatasize\n      sub\n      dup2\n      add\n      swap1\n      tag_38\n      swap2\n      swap1\n      tag_39\n      jump\t// in\n    tag_38:\n      tag_40\n      jump\t// in\n    tag_37:\n      stop\n        /* \"contracts/TpPool.sol/SimpleDEX.sol\":3417:3881  function removeLiquidity(uint256 amountA, uint256 amountB) external onlyOwner {... */\n    tag_10:\n      tag_41\n      0x04\n      dup1\n      calldatasize\n      sub\n      dup2\n      add\n      swap1\n      tag_42\n      swap2\n      swap1\n      tag_39\n      jump\t// in\n    tag_42:\n      tag_43\n      jump\t// in\n    tag_41:\n      stop\n        /* \"contracts/TpPool.sol/SimpleDEX.sol\":1172:1195  uint256 public reserveA */\n    tag_11:\n      tag_44\n      tag_45\n      jump\t// in\n    tag_44:\n      mload(0x40)\n      tag_46\n      swap2\n      swap1\n      tag_21\n      jump\t// in\n    tag_46:\n      mload(0x40)\n      dup1\n      swap2\n      sub\n      swap1\n      return\n        /* \"contracts/TpPool.sol/SimpleDEX.sol\":2305:2837  function swapAforB(uint256 amountAIn) external {... */\n    tag_12:\n      tag_47\n      0x04\n      dup1\n      calldatasize\n      sub\n      dup2\n      add\n      swap1\n      tag_48\n      swap2\n      swap1\n      tag_32\n      jump\t// in\n    tag_48:\n      tag_49\n      jump\t// in\n    tag_47:\n      stop\n        /* \"contracts/TpPool.sol/SimpleDEX.sol\":1116:1137  address public tokenA */\n    tag_15:\n      0x00\n      dup1\n      sload\n      swap1\n      0x0100\n      exp\n      swap1\n      div\n      0xffffffffffffffffffffffffffffffffffffffff\n      and\n      dup2\n      jump\t// out\n        /* \"contracts/TpPool.sol/SimpleDEX.sol\":1202:1225  uint256 public reserveB */\n    tag_19:\n      sload(0x03)\n      dup2\n      jump\t// out\n        /* \"contracts/TpPool.sol/SimpleDEX.sol\":3889:4325  function getPrice(address _token) external view returns (uint256 price) {... */\n    tag_25:\n        /* \"contracts/TpPool.sol/SimpleDEX.sol\":3946:3959  uint256 price */\n      0x00\n        /* \"contracts/TpPool.sol/SimpleDEX.sol\":3986:3992  tokenA */\n      dup1\n      0x00\n      swap1\n      sload\n      swap1\n      0x0100\n      exp\n      swap1\n      div\n      0xffffffffffffffffffffffffffffffffffffffff\n      and\n        /* \"contracts/TpPool.sol/SimpleDEX.sol\":3976:3992  _token == tokenA */\n      0xffffffffffffffffffffffffffffffffffffffff\n      and\n        /* \"contracts/TpPool.sol/SimpleDEX.sol\":3976:3982  _token */\n      dup3\n        /* \"contracts/TpPool.sol/SimpleDEX.sol\":3976:3992  _token == tokenA */\n      0xffffffffffffffffffffffffffffffffffffffff\n      and\n      sub\n        /* \"contracts/TpPool.sol/SimpleDEX.sol\":3972:4318  if (_token == tokenA) {... */\n      tag_51\n      jumpi\n        /* \"contracts/TpPool.sol/SimpleDEX.sol\":4028:4029  0 */\n      0x00\n        /* \"contracts/TpPool.sol/SimpleDEX.sol\":4017:4025  reserveB */\n      sload(0x03)\n        /* \"contracts/TpPool.sol/SimpleDEX.sol\":4017:4029  reserveB > 0 */\n      gt\n        /* \"contracts/TpPool.sol/SimpleDEX.sol\":4009:4057  require(reserveB > 0, \"No liquidity for TokenB\") */\n      tag_52\n      jumpi\n      mload(0x40)\n      0x08c379a000000000000000000000000000000000000000000000000000000000\n      dup2\n      mstore\n      0x04\n      add\n      tag_53\n      swap1\n      tag_54\n      jump\t// in\n    tag_53:\n      mload(0x40)\n      dup1\n      swap2\n      sub\n      swap1\n      revert\n    tag_52:\n        /* \"contracts/TpPool.sol/SimpleDEX.sol\":4091:4099  reserveB */\n      sload(0x03)\n        /* \"contracts/TpPool.sol/SimpleDEX.sol\":4080:4088  reserveA */\n      sload(0x02)\n        /* \"contracts/TpPool.sol/SimpleDEX.sol\":4080:4099  reserveA / reserveB */\n      tag_55\n      swap2\n      swap1\n      tag_56\n      jump\t// in\n    tag_55:\n        /* \"contracts/TpPool.sol/SimpleDEX.sol\":4072:4099  price = reserveA / reserveB */\n      swap1\n      pop\n        /* \"contracts/TpPool.sol/SimpleDEX.sol\":3972:4318  if (_token == tokenA) {... */\n      jump(tag_57)\n    tag_51:\n        /* \"contracts/TpPool.sol/SimpleDEX.sol\":4131:4137  tokenB */\n      0x01\n      0x00\n      swap1\n      sload\n      swap1\n      0x0100\n      exp\n      swap1\n      div\n      0xffffffffffffffffffffffffffffffffffffffff\n      and\n        /* \"contracts/TpPool.sol/SimpleDEX.sol\":4121:4137  _token == tokenB */\n      0xffffffffffffffffffffffffffffffffffffffff\n      and\n        /* \"contracts/TpPool.sol/SimpleDEX.sol\":4121:4127  _token */\n      dup3\n        /* \"contracts/TpPool.sol/SimpleDEX.sol\":4121:4137  _token == tokenB */\n      0xffffffffffffffffffffffffffffffffffffffff\n      and\n      sub\n        /* \"contracts/TpPool.sol/SimpleDEX.sol\":4117:4318  if (_token == tokenB) {... */\n      tag_58\n      jumpi\n        /* \"contracts/TpPool.sol/SimpleDEX.sol\":4173:4174  0 */\n      0x00\n        /* \"contracts/TpPool.sol/SimpleDEX.sol\":4162:4170  reserveA */\n      sload(0x02)\n        /* \"contracts/TpPool.sol/SimpleDEX.sol\":4162:4174  reserveA > 0 */\n      gt\n        /* \"contracts/TpPool.sol/SimpleDEX.sol\":4154:4202  require(reserveA > 0, \"No liquidity for TokenA\") */\n      tag_59\n      jumpi\n      mload(0x40)\n      0x08c379a000000000000000000000000000000000000000000000000000000000\n      dup2\n      mstore\n      0x04\n      add\n      tag_60\n      swap1\n      tag_61\n      jump\t// in\n    tag_60:\n      mload(0x40)\n      dup1\n      swap2\n      sub\n      swap1\n      revert\n    tag_59:\n        /* \"contracts/TpPool.sol/SimpleDEX.sol\":4236:4244  reserveA */\n      sload(0x02)\n        /* \"contracts/TpPool.sol/SimpleDEX.sol\":4225:4233  reserveB */\n      sload(0x03)\n        /* \"contracts/TpPool.sol/SimpleDEX.sol\":4225:4244  reserveB / reserveA */\n      tag_62\n      swap2\n      swap1\n      tag_56\n      jump\t// in\n    tag_62:\n        /* \"contracts/TpPool.sol/SimpleDEX.sol\":4217:4244  price = reserveB / reserveA */\n      swap1\n      pop\n        /* \"contracts/TpPool.sol/SimpleDEX.sol\":4117:4318  if (_token == tokenB) {... */\n      jump(tag_63)\n    tag_58:\n        /* \"contracts/TpPool.sol/SimpleDEX.sol\":4277:4306  revert(\"Token not supported\") */\n      mload(0x40)\n      0x08c379a000000000000000000000000000000000000000000000000000000000\n      dup2\n      mstore\n      0x04\n      add\n      tag_64\n      swap1\n      tag_65\n      jump\t// in\n    tag_64:\n      mload(0x40)\n      dup1\n      swap2\n      sub\n      swap1\n      revert\n        /* \"contracts/TpPool.sol/SimpleDEX.sol\":4117:4318  if (_token == tokenB) {... */\n    tag_63:\n        /* \"contracts/TpPool.sol/SimpleDEX.sol\":3972:4318  if (_token == tokenA) {... */\n    tag_57:\n        /* \"contracts/TpPool.sol/SimpleDEX.sol\":3889:4325  function getPrice(address _token) external view returns (uint256 price) {... */\n      swap2\n      swap1\n      pop\n      jump\t// out\n        /* \"contracts/TpPool.sol/SimpleDEX.sol\":1144:1165  address public tokenB */\n    tag_28:\n      0x01\n      0x00\n      swap1\n      sload\n      swap1\n      0x0100\n      exp\n      swap1\n      div\n      0xffffffffffffffffffffffffffffffffffffffff\n      and\n      dup2\n      jump\t// out\n        /* \"contracts/TpPool.sol/SimpleDEX.sol\":2877:3409  function swapBforA(uint256 amountBIn) external {... */\n    tag_33:\n        /* \"contracts/TpPool.sol/SimpleDEX.sol\":2955:2956  0 */\n      0x00\n        /* \"contracts/TpPool.sol/SimpleDEX.sol\":2943:2952  amountBIn */\n      dup2\n        /* \"contracts/TpPool.sol/SimpleDEX.sol\":2943:2956  amountBIn > 0 */\n      gt\n        /* \"contracts/TpPool.sol/SimpleDEX.sol\":2935:2990  require(amountBIn > 0, \"Amount must be greater than 0\") */\n      tag_67\n      jumpi\n      mload(0x40)\n      0x08c379a000000000000000000000000000000000000000000000000000000000\n      dup2\n      mstore\n      0x04\n      add\n      tag_68\n      swap1\n      tag_69\n      jump\t// in\n    tag_68:\n      mload(0x40)\n      dup1\n      swap2\n      sub\n      swap1\n      revert\n    tag_67:\n        /* \"contracts/TpPool.sol/SimpleDEX.sol\":3001:3019  uint256 amountAOut */\n      0x00\n        /* \"contracts/TpPool.sol/SimpleDEX.sol\":3059:3068  amountBIn */\n      dup2\n        /* \"contracts/TpPool.sol/SimpleDEX.sol\":3048:3056  reserveB */\n      sload(0x03)\n        /* \"contracts/TpPool.sol/SimpleDEX.sol\":3048:3068  reserveB + amountBIn */\n      tag_70\n      swap2\n      swap1\n      tag_71\n      jump\t// in\n    tag_70:\n        /* \"contracts/TpPool.sol/SimpleDEX.sol\":3035:3043  reserveA */\n      sload(0x02)\n        /* \"contracts/TpPool.sol/SimpleDEX.sol\":3023:3032  amountBIn */\n      dup4\n        /* \"contracts/TpPool.sol/SimpleDEX.sol\":3023:3043  amountBIn * reserveA */\n      tag_72\n      swap2\n      swap1\n      tag_73\n      jump\t// in\n    tag_72:\n        /* \"contracts/TpPool.sol/SimpleDEX.sol\":3022:3069  (amountBIn * reserveA) / (reserveB + amountBIn) */\n      tag_74\n      swap2\n      swap1\n      tag_56\n      jump\t// in\n    tag_74:\n        /* \"contracts/TpPool.sol/SimpleDEX.sol\":3001:3069  uint256 amountAOut = (amountBIn * reserveA) / (reserveB + amountBIn) */\n      swap1\n      pop\n        /* \"contracts/TpPool.sol/SimpleDEX.sol\":3101:3102  0 */\n      0x00\n        /* \"contracts/TpPool.sol/SimpleDEX.sol\":3088:3098  amountAOut */\n      dup2\n        /* \"contracts/TpPool.sol/SimpleDEX.sol\":3088:3102  amountAOut > 0 */\n      gt\n        /* \"contracts/TpPool.sol/SimpleDEX.sol\":3080:3133  require(amountAOut > 0, \"Insufficient output amount\") */\n      tag_75\n      jumpi\n      mload(0x40)\n      0x08c379a000000000000000000000000000000000000000000000000000000000\n      dup2\n      mstore\n      0x04\n      add\n      tag_76\n      swap1\n      tag_77\n      jump\t// in\n    tag_76:\n      mload(0x40)\n      dup1\n      swap2\n      sub\n      swap1\n      revert\n    tag_75:\n        /* \"contracts/TpPool.sol/SimpleDEX.sol\":3153:3159  tokenB */\n      0x01\n      0x00\n      swap1\n      sload\n      swap1\n      0x0100\n      exp\n      swap1\n      div\n      0xffffffffffffffffffffffffffffffffffffffff\n      and\n        /* \"contracts/TpPool.sol/SimpleDEX.sol\":3146:3173  IERC20(tokenB).transferFrom */\n      0xffffffffffffffffffffffffffffffffffffffff\n      and\n      0x23b872dd\n        /* \"contracts/TpPool.sol/SimpleDEX.sol\":3174:3184  msg.sender */\n      caller\n        /* \"contracts/TpPool.sol/SimpleDEX.sol\":3194:3198  this */\n      address\n        /* \"contracts/TpPool.sol/SimpleDEX.sol\":3201:3210  amountBIn */\n      dup6\n        /* \"contracts/TpPool.sol/SimpleDEX.sol\":3146:3211  IERC20(tokenB).transferFrom(msg.sender, address(this), amountBIn) */\n      mload(0x40)\n      dup5\n      0xffffffff\n      and\n      0xe0\n      shl\n      dup2\n      mstore\n      0x04\n      add\n      tag_78\n      swap4\n      swap3\n      swap2\n      swap1\n      tag_79\n      jump\t// in\n    tag_78:\n      0x20\n      mload(0x40)\n      dup1\n      dup4\n      sub\n      dup2\n      0x00\n      dup8\n      gas\n      call\n      iszero\n      dup1\n      iszero\n      tag_81\n      jumpi\n      returndatasize\n      0x00\n      dup1\n      returndatacopy\n      revert(0x00, returndatasize)\n    tag_81:\n      pop\n      pop\n      pop\n      pop\n      mload(0x40)\n      returndatasize\n      not(0x1f)\n      0x1f\n      dup3\n      add\n      and\n      dup3\n      add\n      dup1\n      0x40\n      mstore\n      pop\n      dup2\n      add\n      swap1\n      tag_82\n      swap2\n      swap1\n      tag_83\n      jump\t// in\n    tag_82:\n      pop\n        /* \"contracts/TpPool.sol/SimpleDEX.sol\":3229:3235  tokenA */\n      0x00\n      dup1\n      sload\n      swap1\n      0x0100\n      exp\n      swap1\n      div\n      0xffffffffffffffffffffffffffffffffffffffff\n      and\n        /* \"contracts/TpPool.sol/SimpleDEX.sol\":3222:3245  IERC20(tokenA).transfer */\n      0xffffffffffffffffffffffffffffffffffffffff\n      and\n      0xa9059cbb\n        /* \"contracts/TpPool.sol/SimpleDEX.sol\":3246:3256  msg.sender */\n      caller\n        /* \"contracts/TpPool.sol/SimpleDEX.sol\":3258:3268  amountAOut */\n      dup4\n        /* \"contracts/TpPool.sol/SimpleDEX.sol\":3222:3269  IERC20(tokenA).transfer(msg.sender, amountAOut) */\n      mload(0x40)\n      dup4\n      0xffffffff\n      and\n      0xe0\n      shl\n      dup2\n      mstore\n      0x04\n      add\n      tag_84\n      swap3\n      swap2\n      swap1\n      tag_85\n      jump\t// in\n    tag_84:\n      0x20\n      mload(0x40)\n      dup1\n      dup4\n      sub\n      dup2\n      0x00\n      dup8\n      gas\n      call\n      iszero\n      dup1\n      iszero\n      tag_87\n      jumpi\n      returndatasize\n      0x00\n      dup1\n      returndatacopy\n      revert(0x00, returndatasize)\n    tag_87:\n      pop\n      pop\n      pop\n      pop\n      mload(0x40)\n      returndatasize\n      not(0x1f)\n      0x1f\n      dup3\n      add\n      and\n      dup3\n      add\n      dup1\n      0x40\n      mstore\n      pop\n      dup2\n      add\n      swap1\n      tag_88\n      swap2\n      swap1\n      tag_83\n      jump\t// in\n    tag_88:\n      pop\n        /* \"contracts/TpPool.sol/SimpleDEX.sol\":3294:3303  amountBIn */\n      dup2\n        /* \"contracts/TpPool.sol/SimpleDEX.sol\":3282:3290  reserveB */\n      0x03\n      0x00\n        /* \"contracts/TpPool.sol/SimpleDEX.sol\":3282:3303  reserveB += amountBIn */\n      dup3\n      dup3\n      sload\n      tag_89\n      swap2\n      swap1\n      tag_71\n      jump\t// in\n    tag_89:\n      swap3\n      pop\n      pop\n      dup2\n      swap1\n      sstore\n      pop\n        /* \"contracts/TpPool.sol/SimpleDEX.sol\":3326:3336  amountAOut */\n      dup1\n        /* \"contracts/TpPool.sol/SimpleDEX.sol\":3314:3322  reserveA */\n      0x02\n      0x00\n        /* \"contracts/TpPool.sol/SimpleDEX.sol\":3314:3336  reserveA -= amountAOut */\n      dup3\n      dup3\n      sload\n      tag_90\n      swap2\n      swap1\n      tag_91\n      jump\t// in\n    tag_90:\n      swap3\n      pop\n      pop\n      dup2\n      swap1\n      sstore\n      pop\n        /* \"contracts/TpPool.sol/SimpleDEX.sol\":3359:3369  msg.sender */\n      caller\n        /* \"contracts/TpPool.sol/SimpleDEX.sol\":3354:3401  Swap(msg.sender, tokenB, amountBIn, amountAOut) */\n      0xffffffffffffffffffffffffffffffffffffffff\n      and\n      0xfa2dda1cc1b86e41239702756b13effbc1a092b5c57e3ad320fbe4f3b13fe235\n        /* \"contracts/TpPool.sol/SimpleDEX.sol\":3371:3377  tokenB */\n      0x01\n      0x00\n      swap1\n      sload\n      swap1\n      0x0100\n      exp\n      swap1\n      div\n      0xffffffffffffffffffffffffffffffffffffffff\n      and\n        /* \"contracts/TpPool.sol/SimpleDEX.sol\":3379:3388  amountBIn */\n      dup5\n        /* \"contracts/TpPool.sol/SimpleDEX.sol\":3390:3400  amountAOut */\n      dup5\n        /* \"contracts/TpPool.sol/SimpleDEX.sol\":3354:3401  Swap(msg.sender, tokenB, amountBIn, amountAOut) */\n      mload(0x40)\n      tag_92\n      swap4\n      swap3\n      swap2\n      swap1\n      tag_93\n      jump\t// in\n    tag_92:\n      mload(0x40)\n      dup1\n      swap2\n      sub\n      swap1\n      log2\n        /* \"contracts/TpPool.sol/SimpleDEX.sol\":2924:3409  {... */\n      pop\n        /* \"contracts/TpPool.sol/SimpleDEX.sol\":2877:3409  function swapBforA(uint256 amountBIn) external {... */\n      pop\n      jump\t// out\n        /* \"contracts/TpPool.sol/SimpleDEX.sol\":1232:1252  address public owner */\n    tag_35:\n      0x04\n      0x00\n      swap1\n      sload\n      swap1\n      0x0100\n      exp\n      swap1\n      div\n      0xffffffffffffffffffffffffffffffffffffffff\n      and\n      dup2\n      jump\t// out\n        /* \"contracts/TpPool.sol/SimpleDEX.sol\":1834:2265  function addLiquidity(uint256 amountA, uint256 amountB) external onlyOwner {... */\n    tag_40:\n        /* \"contracts/TpPool.sol/SimpleDEX.sol\":1594:1599  owner */\n      0x04\n      0x00\n      swap1\n      sload\n      swap1\n      0x0100\n      exp\n      swap1\n      div\n      0xffffffffffffffffffffffffffffffffffffffff\n      and\n        /* \"contracts/TpPool.sol/SimpleDEX.sol\":1580:1599  msg.sender == owner */\n      0xffffffffffffffffffffffffffffffffffffffff\n      and\n        /* \"contracts/TpPool.sol/SimpleDEX.sol\":1580:1590  msg.sender */\n      caller\n        /* \"contracts/TpPool.sol/SimpleDEX.sol\":1580:1599  msg.sender == owner */\n      0xffffffffffffffffffffffffffffffffffffffff\n      and\n      eq\n        /* \"contracts/TpPool.sol/SimpleDEX.sol\":1572:1637  require(msg.sender == owner, \"Only owner can call this function\") */\n      tag_95\n      jumpi\n      mload(0x40)\n      0x08c379a000000000000000000000000000000000000000000000000000000000\n      dup2\n      mstore\n      0x04\n      add\n      tag_96\n      swap1\n      tag_97\n      jump\t// in\n    tag_96:\n      mload(0x40)\n      dup1\n      swap2\n      sub\n      swap1\n      revert\n    tag_95:\n        /* \"contracts/TpPool.sol/SimpleDEX.sol\":1935:1941  tokenA */\n      0x00\n      dup1\n      sload\n      swap1\n      0x0100\n      exp\n      swap1\n      div\n      0xffffffffffffffffffffffffffffffffffffffff\n      and\n        /* \"contracts/TpPool.sol/SimpleDEX.sol\":1928:1955  IERC20(tokenA).transferFrom */\n      0xffffffffffffffffffffffffffffffffffffffff\n      and\n      0x23b872dd\n        /* \"contracts/TpPool.sol/SimpleDEX.sol\":1956:1966  msg.sender */\n      caller\n        /* \"contracts/TpPool.sol/SimpleDEX.sol\":1976:1980  this */\n      address\n        /* \"contracts/TpPool.sol/SimpleDEX.sol\":1983:1990  amountA */\n      dup6\n        /* \"contracts/TpPool.sol/SimpleDEX.sol\":1928:1991  IERC20(tokenA).transferFrom(msg.sender, address(this), amountA) */\n      mload(0x40)\n      dup5\n      0xffffffff\n      and\n      0xe0\n      shl\n      dup2\n      mstore\n      0x04\n      add\n      tag_99\n      swap4\n      swap3\n      swap2\n      swap1\n      tag_79\n      jump\t// in\n    tag_99:\n      0x20\n      mload(0x40)\n      dup1\n      dup4\n      sub\n      dup2\n      0x00\n      dup8\n      gas\n      call\n      iszero\n      dup1\n      iszero\n      tag_101\n      jumpi\n      returndatasize\n      0x00\n      dup1\n      returndatacopy\n      revert(0x00, returndatasize)\n    tag_101:\n      pop\n      pop\n      pop\n      pop\n      mload(0x40)\n      returndatasize\n      not(0x1f)\n      0x1f\n      dup3\n      add\n      and\n      dup3\n      add\n      dup1\n      0x40\n      mstore\n      pop\n      dup2\n      add\n      swap1\n      tag_102\n      swap2\n      swap1\n      tag_83\n      jump\t// in\n    tag_102:\n        /* \"contracts/TpPool.sol/SimpleDEX.sol\":1920:2021  require(IERC20(tokenA).transferFrom(msg.sender, address(this), amountA), \"Transfer of TokenA failed\") */\n      tag_103\n      jumpi\n      mload(0x40)\n      0x08c379a000000000000000000000000000000000000000000000000000000000\n      dup2\n      mstore\n      0x04\n      add\n      tag_104\n      swap1\n      tag_105\n      jump\t// in\n    tag_104:\n      mload(0x40)\n      dup1\n      swap2\n      sub\n      swap1\n      revert\n    tag_103:\n        /* \"contracts/TpPool.sol/SimpleDEX.sol\":2047:2053  tokenB */\n      0x01\n      0x00\n      swap1\n      sload\n      swap1\n      0x0100\n      exp\n      swap1\n      div\n      0xffffffffffffffffffffffffffffffffffffffff\n      and\n        /* \"contracts/TpPool.sol/SimpleDEX.sol\":2040:2067  IERC20(tokenB).transferFrom */\n      0xffffffffffffffffffffffffffffffffffffffff\n      and\n      0x23b872dd\n        /* \"contracts/TpPool.sol/SimpleDEX.sol\":2068:2078  msg.sender */\n      caller\n        /* \"contracts/TpPool.sol/SimpleDEX.sol\":2088:2092  this */\n      address\n        /* \"contracts/TpPool.sol/SimpleDEX.sol\":2095:2102  amountB */\n      dup5\n        /* \"contracts/TpPool.sol/SimpleDEX.sol\":2040:2103  IERC20(tokenB).transferFrom(msg.sender, address(this), amountB) */\n      mload(0x40)\n      dup5\n      0xffffffff\n      and\n      0xe0\n      shl\n      dup2\n      mstore\n      0x04\n      add\n      tag_106\n      swap4\n      swap3\n      swap2\n      swap1\n      tag_79\n      jump\t// in\n    tag_106:\n      0x20\n      mload(0x40)\n      dup1\n      dup4\n      sub\n      dup2\n      0x00\n      dup8\n      gas\n      call\n      iszero\n      dup1\n      iszero\n      tag_108\n      jumpi\n      returndatasize\n      0x00\n      dup1\n      returndatacopy\n      revert(0x00, returndatasize)\n    tag_108:\n      pop\n      pop\n      pop\n      pop\n      mload(0x40)\n      returndatasize\n      not(0x1f)\n      0x1f\n      dup3\n      add\n      and\n      dup3\n      add\n      dup1\n      0x40\n      mstore\n      pop\n      dup2\n      add\n      swap1\n      tag_109\n      swap2\n      swap1\n      tag_83\n      jump\t// in\n    tag_109:\n        /* \"contracts/TpPool.sol/SimpleDEX.sol\":2032:2133  require(IERC20(tokenB).transferFrom(msg.sender, address(this), amountB), \"Transfer of TokenB failed\") */\n      tag_110\n      jumpi\n      mload(0x40)\n      0x08c379a000000000000000000000000000000000000000000000000000000000\n      dup2\n      mstore\n      0x04\n      add\n      tag_111\n      swap1\n      tag_112\n      jump\t// in\n    tag_111:\n      mload(0x40)\n      dup1\n      swap2\n      sub\n      swap1\n      revert\n    tag_110:\n        /* \"contracts/TpPool.sol/SimpleDEX.sol\":2158:2165  amountA */\n      dup2\n        /* \"contracts/TpPool.sol/SimpleDEX.sol\":2146:2154  reserveA */\n      0x02\n      0x00\n        /* \"contracts/TpPool.sol/SimpleDEX.sol\":2146:2165  reserveA += amountA */\n      dup3\n      dup3\n      sload\n      tag_113\n      swap2\n      swap1\n      tag_71\n      jump\t// in\n    tag_113:\n      swap3\n      pop\n      pop\n      dup2\n      swap1\n      sstore\n      pop\n        /* \"contracts/TpPool.sol/SimpleDEX.sol\":2188:2195  amountB */\n      dup1\n        /* \"contracts/TpPool.sol/SimpleDEX.sol\":2176:2184  reserveB */\n      0x03\n      0x00\n        /* \"contracts/TpPool.sol/SimpleDEX.sol\":2176:2195  reserveB += amountB */\n      dup3\n      dup3\n      sload\n      tag_114\n      swap2\n      swap1\n      tag_71\n      jump\t// in\n    tag_114:\n      swap3\n      pop\n      pop\n      dup2\n      swap1\n      sstore\n      pop\n        /* \"contracts/TpPool.sol/SimpleDEX.sol\":2228:2238  msg.sender */\n      caller\n        /* \"contracts/TpPool.sol/SimpleDEX.sol\":2213:2257  LiquidityAdded(msg.sender, amountA, amountB) */\n      0xffffffffffffffffffffffffffffffffffffffff\n      and\n      0xac1d76749e5447b7b16f5ab61447e1bd502f3bb4807af3b28e620d1700a6ee45\n        /* \"contracts/TpPool.sol/SimpleDEX.sol\":2240:2247  amountA */\n      dup4\n        /* \"contracts/TpPool.sol/SimpleDEX.sol\":2249:2256  amountB */\n      dup4\n        /* \"contracts/TpPool.sol/SimpleDEX.sol\":2213:2257  LiquidityAdded(msg.sender, amountA, amountB) */\n      mload(0x40)\n      tag_115\n      swap3\n      swap2\n      swap1\n      tag_116\n      jump\t// in\n    tag_115:\n      mload(0x40)\n      dup1\n      swap2\n      sub\n      swap1\n      log2\n        /* \"contracts/TpPool.sol/SimpleDEX.sol\":1834:2265  function addLiquidity(uint256 amountA, uint256 amountB) external onlyOwner {... */\n      pop\n      pop\n      jump\t// out\n        /* \"contracts/TpPool.sol/SimpleDEX.sol\":3417:3881  function removeLiquidity(uint256 amountA, uint256 amountB) external onlyOwner {... */\n    tag_43:\n        /* \"contracts/TpPool.sol/SimpleDEX.sol\":1594:1599  owner */\n      0x04\n      0x00\n      swap1\n      sload\n      swap1\n      0x0100\n      exp\n      swap1\n      div\n      0xffffffffffffffffffffffffffffffffffffffff\n      and\n        /* \"contracts/TpPool.sol/SimpleDEX.sol\":1580:1599  msg.sender == owner */\n      0xffffffffffffffffffffffffffffffffffffffff\n      and\n        /* \"contracts/TpPool.sol/SimpleDEX.sol\":1580:1590  msg.sender */\n      caller\n        /* \"contracts/TpPool.sol/SimpleDEX.sol\":1580:1599  msg.sender == owner */\n      0xffffffffffffffffffffffffffffffffffffffff\n      and\n      eq\n        /* \"contracts/TpPool.sol/SimpleDEX.sol\":1572:1637  require(msg.sender == owner, \"Only owner can call this function\") */\n      tag_118\n      jumpi\n      mload(0x40)\n      0x08c379a000000000000000000000000000000000000000000000000000000000\n      dup2\n      mstore\n      0x04\n      add\n      tag_119\n      swap1\n      tag_97\n      jump\t// in\n    tag_119:\n      mload(0x40)\n      dup1\n      swap2\n      sub\n      swap1\n      revert\n    tag_118:\n        /* \"contracts/TpPool.sol/SimpleDEX.sol\":3525:3533  reserveA */\n      sload(0x02)\n        /* \"contracts/TpPool.sol/SimpleDEX.sol\":3514:3521  amountA */\n      dup3\n        /* \"contracts/TpPool.sol/SimpleDEX.sol\":3514:3533  amountA <= reserveA */\n      gt\n      iszero\n        /* \"contracts/TpPool.sol/SimpleDEX.sol\":3506:3565  require(amountA <= reserveA, \"Insufficient TokenA reserve\") */\n      tag_121\n      jumpi\n      mload(0x40)\n      0x08c379a000000000000000000000000000000000000000000000000000000000\n      dup2\n      mstore\n      0x04\n      add\n      tag_122\n      swap1\n      tag_123\n      jump\t// in\n    tag_122:\n      mload(0x40)\n      dup1\n      swap2\n      sub\n      swap1\n      revert\n    tag_121:\n        /* \"contracts/TpPool.sol/SimpleDEX.sol\":3595:3603  reserveB */\n      sload(0x03)\n        /* \"contracts/TpPool.sol/SimpleDEX.sol\":3584:3591  amountB */\n      dup2\n        /* \"contracts/TpPool.sol/SimpleDEX.sol\":3584:3603  amountB <= reserveB */\n      gt\n      iszero\n        /* \"contracts/TpPool.sol/SimpleDEX.sol\":3576:3635  require(amountB <= reserveB, \"Insufficient TokenB reserve\") */\n      tag_124\n      jumpi\n      mload(0x40)\n      0x08c379a000000000000000000000000000000000000000000000000000000000\n      dup2\n      mstore\n      0x04\n      add\n      tag_125\n      swap1\n      tag_126\n      jump\t// in\n    tag_125:\n      mload(0x40)\n      dup1\n      swap2\n      sub\n      swap1\n      revert\n    tag_124:\n        /* \"contracts/TpPool.sol/SimpleDEX.sol\":3660:3667  amountA */\n      dup2\n        /* \"contracts/TpPool.sol/SimpleDEX.sol\":3648:3656  reserveA */\n      0x02\n      0x00\n        /* \"contracts/TpPool.sol/SimpleDEX.sol\":3648:3667  reserveA -= amountA */\n      dup3\n      dup3\n      sload\n      tag_127\n      swap2\n      swap1\n      tag_91\n      jump\t// in\n    tag_127:\n      swap3\n      pop\n      pop\n      dup2\n      swap1\n      sstore\n      pop\n        /* \"contracts/TpPool.sol/SimpleDEX.sol\":3690:3697  amountB */\n      dup1\n        /* \"contracts/TpPool.sol/SimpleDEX.sol\":3678:3686  reserveB */\n      0x03\n      0x00\n        /* \"contracts/TpPool.sol/SimpleDEX.sol\":3678:3697  reserveB -= amountB */\n      dup3\n      dup3\n      sload\n      tag_128\n      swap2\n      swap1\n      tag_91\n      jump\t// in\n    tag_128:\n      swap3\n      pop\n      pop\n      dup2\n      swap1\n      sstore\n      pop\n        /* \"contracts/TpPool.sol/SimpleDEX.sol\":3717:3723  tokenA */\n      0x00\n      dup1\n      sload\n      swap1\n      0x0100\n      exp\n      swap1\n      div\n      0xffffffffffffffffffffffffffffffffffffffff\n      and\n        /* \"contracts/TpPool.sol/SimpleDEX.sol\":3710:3733  IERC20(tokenA).transfer */\n      0xffffffffffffffffffffffffffffffffffffffff\n      and\n      0xa9059cbb\n        /* \"contracts/TpPool.sol/SimpleDEX.sol\":3734:3744  msg.sender */\n      caller\n        /* \"contracts/TpPool.sol/SimpleDEX.sol\":3746:3753  amountA */\n      dup5\n        /* \"contracts/TpPool.sol/SimpleDEX.sol\":3710:3754  IERC20(tokenA).transfer(msg.sender, amountA) */\n      mload(0x40)\n      dup4\n      0xffffffff\n      and\n      0xe0\n      shl\n      dup2\n      mstore\n      0x04\n      add\n      tag_129\n      swap3\n      swap2\n      swap1\n      tag_85\n      jump\t// in\n    tag_129:\n      0x20\n      mload(0x40)\n      dup1\n      dup4\n      sub\n      dup2\n      0x00\n      dup8\n      gas\n      call\n      iszero\n      dup1\n      iszero\n      tag_131\n      jumpi\n      returndatasize\n      0x00\n      dup1\n      returndatacopy\n      revert(0x00, returndatasize)\n    tag_131:\n      pop\n      pop\n      pop\n      pop\n      mload(0x40)\n      returndatasize\n      not(0x1f)\n      0x1f\n      dup3\n      add\n      and\n      dup3\n      add\n      dup1\n      0x40\n      mstore\n      pop\n      dup2\n      add\n      swap1\n      tag_132\n      swap2\n      swap1\n      tag_83\n      jump\t// in\n    tag_132:\n      pop\n        /* \"contracts/TpPool.sol/SimpleDEX.sol\":3772:3778  tokenB */\n      0x01\n      0x00\n      swap1\n      sload\n      swap1\n      0x0100\n      exp\n      swap1\n      div\n      0xffffffffffffffffffffffffffffffffffffffff\n      and\n        /* \"contracts/TpPool.sol/SimpleDEX.sol\":3765:3788  IERC20(tokenB).transfer */\n      0xffffffffffffffffffffffffffffffffffffffff\n      and\n      0xa9059cbb\n        /* \"contracts/TpPool.sol/SimpleDEX.sol\":3789:3799  msg.sender */\n      caller\n        /* \"contracts/TpPool.sol/SimpleDEX.sol\":3801:3808  amountB */\n      dup4\n        /* \"contracts/TpPool.sol/SimpleDEX.sol\":3765:3809  IERC20(tokenB).transfer(msg.sender, amountB) */\n      mload(0x40)\n      dup4\n      0xffffffff\n      and\n      0xe0\n      shl\n      dup2\n      mstore\n      0x04\n      add\n      tag_133\n      swap3\n      swap2\n      swap1\n      tag_85\n      jump\t// in\n    tag_133:\n      0x20\n      mload(0x40)\n      dup1\n      dup4\n      sub\n      dup2\n      0x00\n      dup8\n      gas\n      call\n      iszero\n      dup1\n      iszero\n      tag_135\n      jumpi\n      returndatasize\n      0x00\n      dup1\n      returndatacopy\n      revert(0x00, returndatasize)\n    tag_135:\n      pop\n      pop\n      pop\n      pop\n      mload(0x40)\n      returndatasize\n      not(0x1f)\n      0x1f\n      dup3\n      add\n      and\n      dup3\n      add\n      dup1\n      0x40\n      mstore\n      pop\n      dup2\n      add\n      swap1\n      tag_136\n      swap2\n      swap1\n      tag_83\n      jump\t// in\n    tag_136:\n      pop\n        /* \"contracts/TpPool.sol/SimpleDEX.sol\":3844:3854  msg.sender */\n      caller\n        /* \"contracts/TpPool.sol/SimpleDEX.sol\":3827:3873  LiquidityRemoved(msg.sender, amountA, amountB) */\n      0xffffffffffffffffffffffffffffffffffffffff\n      and\n      0x96cd817c6329656790ef8fba7675405193677d39619571282f5e21f3a98cd059\n        /* \"contracts/TpPool.sol/SimpleDEX.sol\":3856:3863  amountA */\n      dup4\n        /* \"contracts/TpPool.sol/SimpleDEX.sol\":3865:3872  amountB */\n      dup4\n        /* \"contracts/TpPool.sol/SimpleDEX.sol\":3827:3873  LiquidityRemoved(msg.sender, amountA, amountB) */\n      mload(0x40)\n      tag_137\n      swap3\n      swap2\n      swap1\n      tag_116\n      jump\t// in\n    tag_137:\n      mload(0x40)\n      dup1\n      swap2\n      sub\n      swap1\n      log2\n        /* \"contracts/TpPool.sol/SimpleDEX.sol\":3417:3881  function removeLiquidity(uint256 amountA, uint256 amountB) external onlyOwner {... */\n      pop\n      pop\n      jump\t// out\n        /* \"contracts/TpPool.sol/SimpleDEX.sol\":1172:1195  uint256 public reserveA */\n    tag_45:\n      sload(0x02)\n      dup2\n      jump\t// out\n        /* \"contracts/TpPool.sol/SimpleDEX.sol\":2305:2837  function swapAforB(uint256 amountAIn) external {... */\n    tag_49:\n        /* \"contracts/TpPool.sol/SimpleDEX.sol\":2383:2384  0 */\n      0x00\n        /* \"contracts/TpPool.sol/SimpleDEX.sol\":2371:2380  amountAIn */\n      dup2\n        /* \"contracts/TpPool.sol/SimpleDEX.sol\":2371:2384  amountAIn > 0 */\n      gt\n        /* \"contracts/TpPool.sol/SimpleDEX.sol\":2363:2418  require(amountAIn > 0, \"Amount must be greater than 0\") */\n      tag_139\n      jumpi\n      mload(0x40)\n      0x08c379a000000000000000000000000000000000000000000000000000000000\n      dup2\n      mstore\n      0x04\n      add\n      tag_140\n      swap1\n      tag_69\n      jump\t// in\n    tag_140:\n      mload(0x40)\n      dup1\n      swap2\n      sub\n      swap1\n      revert\n    tag_139:\n        /* \"contracts/TpPool.sol/SimpleDEX.sol\":2429:2447  uint256 amountBOut */\n      0x00\n        /* \"contracts/TpPool.sol/SimpleDEX.sol\":2487:2496  amountAIn */\n      dup2\n        /* \"contracts/TpPool.sol/SimpleDEX.sol\":2476:2484  reserveA */\n      sload(0x02)\n        /* \"contracts/TpPool.sol/SimpleDEX.sol\":2476:2496  reserveA + amountAIn */\n      tag_141\n      swap2\n      swap1\n      tag_71\n      jump\t// in\n    tag_141:\n        /* \"contracts/TpPool.sol/SimpleDEX.sol\":2463:2471  reserveB */\n      sload(0x03)\n        /* \"contracts/TpPool.sol/SimpleDEX.sol\":2451:2460  amountAIn */\n      dup4\n        /* \"contracts/TpPool.sol/SimpleDEX.sol\":2451:2471  amountAIn * reserveB */\n      tag_142\n      swap2\n      swap1\n      tag_73\n      jump\t// in\n    tag_142:\n        /* \"contracts/TpPool.sol/SimpleDEX.sol\":2450:2497  (amountAIn * reserveB) / (reserveA + amountAIn) */\n      tag_143\n      swap2\n      swap1\n      tag_56\n      jump\t// in\n    tag_143:\n        /* \"contracts/TpPool.sol/SimpleDEX.sol\":2429:2497  uint256 amountBOut = (amountAIn * reserveB) / (reserveA + amountAIn) */\n      swap1\n      pop\n        /* \"contracts/TpPool.sol/SimpleDEX.sol\":2529:2530  0 */\n      0x00\n        /* \"contracts/TpPool.sol/SimpleDEX.sol\":2516:2526  amountBOut */\n      dup2\n        /* \"contracts/TpPool.sol/SimpleDEX.sol\":2516:2530  amountBOut > 0 */\n      gt\n        /* \"contracts/TpPool.sol/SimpleDEX.sol\":2508:2561  require(amountBOut > 0, \"Insufficient output amount\") */\n      tag_144\n      jumpi\n      mload(0x40)\n      0x08c379a000000000000000000000000000000000000000000000000000000000\n      dup2\n      mstore\n      0x04\n      add\n      tag_145\n      swap1\n      tag_77\n      jump\t// in\n    tag_145:\n      mload(0x40)\n      dup1\n      swap2\n      sub\n      swap1\n      revert\n    tag_144:\n        /* \"contracts/TpPool.sol/SimpleDEX.sol\":2581:2587  tokenA */\n      0x00\n      dup1\n      sload\n      swap1\n      0x0100\n      exp\n      swap1\n      div\n      0xffffffffffffffffffffffffffffffffffffffff\n      and\n        /* \"contracts/TpPool.sol/SimpleDEX.sol\":2574:2601  IERC20(tokenA).transferFrom */\n      0xffffffffffffffffffffffffffffffffffffffff\n      and\n      0x23b872dd\n        /* \"contracts/TpPool.sol/SimpleDEX.sol\":2602:2612  msg.sender */\n      caller\n        /* \"contracts/TpPool.sol/SimpleDEX.sol\":2622:2626  this */\n      address\n        /* \"contracts/TpPool.sol/SimpleDEX.sol\":2629:2638  amountAIn */\n      dup6\n        /* \"contracts/TpPool.sol/SimpleDEX.sol\":2574:2639  IERC20(tokenA).transferFrom(msg.sender, address(this), amountAIn) */\n      mload(0x40)\n      dup5\n      0xffffffff\n      and\n      0xe0\n      shl\n      dup2\n      mstore\n      0x04\n      add\n      tag_146\n      swap4\n      swap3\n      swap2\n      swap1\n      tag_79\n      jump\t// in\n    tag_146:\n      0x20\n      mload(0x40)\n      dup1\n      dup4\n      sub\n      dup2\n      0x00\n      dup8\n      gas\n      call\n      iszero\n      dup1\n      iszero\n      tag_148\n      jumpi\n      returndatasize\n      0x00\n      dup1\n      returndatacopy\n      revert(0x00, returndatasize)\n    tag_148:\n      pop\n      pop\n      pop\n      pop\n      mload(0x40)\n      returndatasize\n      not(0x1f)\n      0x1f\n      dup3\n      add\n      and\n      dup3\n      add\n      dup1\n      0x40\n      mstore\n      pop\n      dup2\n      add\n      swap1\n      tag_149\n      swap2\n      swap1\n      tag_83\n      jump\t// in\n    tag_149:\n      pop\n        /* \"contracts/TpPool.sol/SimpleDEX.sol\":2657:2663  tokenB */\n      0x01\n      0x00\n      swap1\n      sload\n      swap1\n      0x0100\n      exp\n      swap1\n      div\n      0xffffffffffffffffffffffffffffffffffffffff\n      and\n        /* \"contracts/TpPool.sol/SimpleDEX.sol\":2650:2673  IERC20(tokenB).transfer */\n      0xffffffffffffffffffffffffffffffffffffffff\n      and\n      0xa9059cbb\n        /* \"contracts/TpPool.sol/SimpleDEX.sol\":2674:2684  msg.sender */\n      caller\n        /* \"contracts/TpPool.sol/SimpleDEX.sol\":2686:2696  amountBOut */\n      dup4\n        /* \"contracts/TpPool.sol/SimpleDEX.sol\":2650:2697  IERC20(tokenB).transfer(msg.sender, amountBOut) */\n      mload(0x40)\n      dup4\n      0xffffffff\n      and\n      0xe0\n      shl\n      dup2\n      mstore\n      0x04\n      add\n      tag_150\n      swap3\n      swap2\n      swap1\n      tag_85\n      jump\t// in\n    tag_150:\n      0x20\n      mload(0x40)\n      dup1\n      dup4\n      sub\n      dup2\n      0x00\n      dup8\n      gas\n      call\n      iszero\n      dup1\n      iszero\n      tag_152\n      jumpi\n      returndatasize\n      0x00\n      dup1\n      returndatacopy\n      revert(0x00, returndatasize)\n    tag_152:\n      pop\n      pop\n      pop\n      pop\n      mload(0x40)\n      returndatasize\n      not(0x1f)\n      0x1f\n      dup3\n      add\n      and\n      dup3\n      add\n      dup1\n      0x40\n      mstore\n      pop\n      dup2\n      add\n      swap1\n      tag_153\n      swap2\n      swap1\n      tag_83\n      jump\t// in\n    tag_153:\n      pop\n        /* \"contracts/TpPool.sol/SimpleDEX.sol\":2722:2731  amountAIn */\n      dup2\n        /* \"contracts/TpPool.sol/SimpleDEX.sol\":2710:2718  reserveA */\n      0x02\n      0x00\n        /* \"contracts/TpPool.sol/SimpleDEX.sol\":2710:2731  reserveA += amountAIn */\n      dup3\n      dup3\n      sload\n      tag_154\n      swap2\n      swap1\n      tag_71\n      jump\t// in\n    tag_154:\n      swap3\n      pop\n      pop\n      dup2\n      swap1\n      sstore\n      pop\n        /* \"contracts/TpPool.sol/SimpleDEX.sol\":2754:2764  amountBOut */\n      dup1\n        /* \"contracts/TpPool.sol/SimpleDEX.sol\":2742:2750  reserveB */\n      0x03\n      0x00\n        /* \"contracts/TpPool.sol/SimpleDEX.sol\":2742:2764  reserveB -= amountBOut */\n      dup3\n      dup3\n      sload\n      tag_155\n      swap2\n      swap1\n      tag_91\n      jump\t// in\n    tag_155:\n      swap3\n      pop\n      pop\n      dup2\n      swap1\n      sstore\n      pop\n        /* \"contracts/TpPool.sol/SimpleDEX.sol\":2787:2797  msg.sender */\n      caller\n        /* \"contracts/TpPool.sol/SimpleDEX.sol\":2782:2829  Swap(msg.sender, tokenA, amountAIn, amountBOut) */\n      0xffffffffffffffffffffffffffffffffffffffff\n      and\n      0xfa2dda1cc1b86e41239702756b13effbc1a092b5c57e3ad320fbe4f3b13fe235\n        /* \"contracts/TpPool.sol/SimpleDEX.sol\":2799:2805  tokenA */\n      0x00\n      dup1\n      sload\n      swap1\n      0x0100\n      exp\n      swap1\n      div\n      0xffffffffffffffffffffffffffffffffffffffff\n      and\n        /* \"contracts/TpPool.sol/SimpleDEX.sol\":2807:2816  amountAIn */\n      dup5\n        /* \"contracts/TpPool.sol/SimpleDEX.sol\":2818:2828  amountBOut */\n      dup5\n        /* \"contracts/TpPool.sol/SimpleDEX.sol\":2782:2829  Swap(msg.sender, tokenA, amountAIn, amountBOut) */\n      mload(0x40)\n      tag_156\n      swap4\n      swap3\n      swap2\n      swap1\n      tag_93\n      jump\t// in\n    tag_156:\n      mload(0x40)\n      dup1\n      swap2\n      sub\n      swap1\n      log2\n        /* \"contracts/TpPool.sol/SimpleDEX.sol\":2352:2837  {... */\n      pop\n        /* \"contracts/TpPool.sol/SimpleDEX.sol\":2305:2837  function swapAforB(uint256 amountAIn) external {... */\n      pop\n      jump\t// out\n        /* \"#utility.yul\":7:133   */\n    tag_157:\n        /* \"#utility.yul\":44:51   */\n      0x00\n        /* \"#utility.yul\":84:126   */\n      0xffffffffffffffffffffffffffffffffffffffff\n        /* \"#utility.yul\":77:82   */\n      dup3\n        /* \"#utility.yul\":73:127   */\n      and\n        /* \"#utility.yul\":62:127   */\n      swap1\n      pop\n        /* \"#utility.yul\":7:133   */\n      swap2\n      swap1\n      pop\n      jump\t// out\n        /* \"#utility.yul\":139:235   */\n    tag_158:\n        /* \"#utility.yul\":176:183   */\n      0x00\n        /* \"#utility.yul\":205:229   */\n      tag_198\n        /* \"#utility.yul\":223:228   */\n      dup3\n        /* \"#utility.yul\":205:229   */\n      tag_157\n      jump\t// in\n    tag_198:\n        /* \"#utility.yul\":194:229   */\n      swap1\n      pop\n        /* \"#utility.yul\":139:235   */\n      swap2\n      swap1\n      pop\n      jump\t// out\n        /* \"#utility.yul\":241:359   */\n    tag_159:\n        /* \"#utility.yul\":328:352   */\n      tag_200\n        /* \"#utility.yul\":346:351   */\n      dup2\n        /* \"#utility.yul\":328:352   */\n      tag_158\n      jump\t// in\n    tag_200:\n        /* \"#utility.yul\":323:326   */\n      dup3\n        /* \"#utility.yul\":316:353   */\n      mstore\n        /* \"#utility.yul\":241:359   */\n      pop\n      pop\n      jump\t// out\n        /* \"#utility.yul\":365:587   */\n    tag_17:\n        /* \"#utility.yul\":458:462   */\n      0x00\n        /* \"#utility.yul\":496:498   */\n      0x20\n        /* \"#utility.yul\":485:494   */\n      dup3\n        /* \"#utility.yul\":481:499   */\n      add\n        /* \"#utility.yul\":473:499   */\n      swap1\n      pop\n        /* \"#utility.yul\":509:580   */\n      tag_202\n        /* \"#utility.yul\":577:578   */\n      0x00\n        /* \"#utility.yul\":566:575   */\n      dup4\n        /* \"#utility.yul\":562:579   */\n      add\n        /* \"#utility.yul\":553:559   */\n      dup5\n        /* \"#utility.yul\":509:580   */\n      tag_159\n      jump\t// in\n    tag_202:\n        /* \"#utility.yul\":365:587   */\n      swap3\n      swap2\n      pop\n      pop\n      jump\t// out\n        /* \"#utility.yul\":593:670   */\n    tag_160:\n        /* \"#utility.yul\":630:637   */\n      0x00\n        /* \"#utility.yul\":659:664   */\n      dup2\n        /* \"#utility.yul\":648:664   */\n      swap1\n      pop\n        /* \"#utility.yul\":593:670   */\n      swap2\n      swap1\n      pop\n      jump\t// out\n        /* \"#utility.yul\":676:794   */\n    tag_161:\n        /* \"#utility.yul\":763:787   */\n      tag_205\n        /* \"#utility.yul\":781:786   */\n      dup2\n        /* \"#utility.yul\":763:787   */\n      tag_160\n      jump\t// in\n    tag_205:\n        /* \"#utility.yul\":758:761   */\n      dup3\n        /* \"#utility.yul\":751:788   */\n      mstore\n        /* \"#utility.yul\":676:794   */\n      pop\n      pop\n      jump\t// out\n        /* \"#utility.yul\":800:1022   */\n    tag_21:\n        /* \"#utility.yul\":893:897   */\n      0x00\n        /* \"#utility.yul\":931:933   */\n      0x20\n        /* \"#utility.yul\":920:929   */\n      dup3\n        /* \"#utility.yul\":916:934   */\n      add\n        /* \"#utility.yul\":908:934   */\n      swap1\n      pop\n        /* \"#utility.yul\":944:1015   */\n      tag_207\n        /* \"#utility.yul\":1012:1013   */\n      0x00\n        /* \"#utility.yul\":1001:1010   */\n      dup4\n        /* \"#utility.yul\":997:1014   */\n      add\n        /* \"#utility.yul\":988:994   */\n      dup5\n        /* \"#utility.yul\":944:1015   */\n      tag_161\n      jump\t// in\n    tag_207:\n        /* \"#utility.yul\":800:1022   */\n      swap3\n      swap2\n      pop\n      pop\n      jump\t// out\n        /* \"#utility.yul\":1109:1226   */\n    tag_163:\n        /* \"#utility.yul\":1218:1219   */\n      0x00\n        /* \"#utility.yul\":1215:1216   */\n      dup1\n        /* \"#utility.yul\":1208:1220   */\n      revert\n        /* \"#utility.yul\":1355:1477   */\n    tag_165:\n        /* \"#utility.yul\":1428:1452   */\n      tag_212\n        /* \"#utility.yul\":1446:1451   */\n      dup2\n        /* \"#utility.yul\":1428:1452   */\n      tag_158\n      jump\t// in\n    tag_212:\n        /* \"#utility.yul\":1421:1426   */\n      dup2\n        /* \"#utility.yul\":1418:1453   */\n      eq\n        /* \"#utility.yul\":1408:1471   */\n      tag_213\n      jumpi\n        /* \"#utility.yul\":1467:1468   */\n      0x00\n        /* \"#utility.yul\":1464:1465   */\n      dup1\n        /* \"#utility.yul\":1457:1469   */\n      revert\n        /* \"#utility.yul\":1408:1471   */\n    tag_213:\n        /* \"#utility.yul\":1355:1477   */\n      pop\n      jump\t// out\n        /* \"#utility.yul\":1483:1622   */\n    tag_166:\n        /* \"#utility.yul\":1529:1534   */\n      0x00\n        /* \"#utility.yul\":1567:1573   */\n      dup2\n        /* \"#utility.yul\":1554:1574   */\n      calldataload\n        /* \"#utility.yul\":1545:1574   */\n      swap1\n      pop\n        /* \"#utility.yul\":1583:1616   */\n      tag_215\n        /* \"#utility.yul\":1610:1615   */\n      dup2\n        /* \"#utility.yul\":1583:1616   */\n      tag_165\n      jump\t// in\n    tag_215:\n        /* \"#utility.yul\":1483:1622   */\n      swap3\n      swap2\n      pop\n      pop\n      jump\t// out\n        /* \"#utility.yul\":1628:1957   */\n    tag_24:\n        /* \"#utility.yul\":1687:1693   */\n      0x00\n        /* \"#utility.yul\":1736:1738   */\n      0x20\n        /* \"#utility.yul\":1724:1733   */\n      dup3\n        /* \"#utility.yul\":1715:1722   */\n      dup5\n        /* \"#utility.yul\":1711:1734   */\n      sub\n        /* \"#utility.yul\":1707:1739   */\n      slt\n        /* \"#utility.yul\":1704:1823   */\n      iszero\n      tag_217\n      jumpi\n        /* \"#utility.yul\":1742:1821   */\n      tag_218\n      tag_163\n      jump\t// in\n    tag_218:\n        /* \"#utility.yul\":1704:1823   */\n    tag_217:\n        /* \"#utility.yul\":1862:1863   */\n      0x00\n        /* \"#utility.yul\":1887:1940   */\n      tag_219\n        /* \"#utility.yul\":1932:1939   */\n      dup5\n        /* \"#utility.yul\":1923:1929   */\n      dup3\n        /* \"#utility.yul\":1912:1921   */\n      dup6\n        /* \"#utility.yul\":1908:1930   */\n      add\n        /* \"#utility.yul\":1887:1940   */\n      tag_166\n      jump\t// in\n    tag_219:\n        /* \"#utility.yul\":1877:1940   */\n      swap2\n      pop\n        /* \"#utility.yul\":1833:1950   */\n      pop\n        /* \"#utility.yul\":1628:1957   */\n      swap3\n      swap2\n      pop\n      pop\n      jump\t// out\n        /* \"#utility.yul\":1963:2085   */\n    tag_167:\n        /* \"#utility.yul\":2036:2060   */\n      tag_221\n        /* \"#utility.yul\":2054:2059   */\n      dup2\n        /* \"#utility.yul\":2036:2060   */\n      tag_160\n      jump\t// in\n    tag_221:\n        /* \"#utility.yul\":2029:2034   */\n      dup2\n        /* \"#utility.yul\":2026:2061   */\n      eq\n        /* \"#utility.yul\":2016:2079   */\n      tag_222\n      jumpi\n        /* \"#utility.yul\":2075:2076   */\n      0x00\n        /* \"#utility.yul\":2072:2073   */\n      dup1\n        /* \"#utility.yul\":2065:2077   */\n      revert\n        /* \"#utility.yul\":2016:2079   */\n    tag_222:\n        /* \"#utility.yul\":1963:2085   */\n      pop\n      jump\t// out\n        /* \"#utility.yul\":2091:2230   */\n    tag_168:\n        /* \"#utility.yul\":2137:2142   */\n      0x00\n        /* \"#utility.yul\":2175:2181   */\n      dup2\n        /* \"#utility.yul\":2162:2182   */\n      calldataload\n        /* \"#utility.yul\":2153:2182   */\n      swap1\n      pop\n        /* \"#utility.yul\":2191:2224   */\n      tag_224\n        /* \"#utility.yul\":2218:2223   */\n      dup2\n        /* \"#utility.yul\":2191:2224   */\n      tag_167\n      jump\t// in\n    tag_224:\n        /* \"#utility.yul\":2091:2230   */\n      swap3\n      swap2\n      pop\n      pop\n      jump\t// out\n        /* \"#utility.yul\":2236:2565   */\n    tag_32:\n        /* \"#utility.yul\":2295:2301   */\n      0x00\n        /* \"#utility.yul\":2344:2346   */\n      0x20\n        /* \"#utility.yul\":2332:2341   */\n      dup3\n        /* \"#utility.yul\":2323:2330   */\n      dup5\n        /* \"#utility.yul\":2319:2342   */\n      sub\n        /* \"#utility.yul\":2315:2347   */\n      slt\n        /* \"#utility.yul\":2312:2431   */\n      iszero\n      tag_226\n      jumpi\n        /* \"#utility.yul\":2350:2429   */\n      tag_227\n      tag_163\n      jump\t// in\n    tag_227:\n        /* \"#utility.yul\":2312:2431   */\n    tag_226:\n        /* \"#utility.yul\":2470:2471   */\n      0x00\n        /* \"#utility.yul\":2495:2548   */\n      tag_228\n        /* \"#utility.yul\":2540:2547   */\n      dup5\n        /* \"#utility.yul\":2531:2537   */\n      dup3\n        /* \"#utility.yul\":2520:2529   */\n      dup6\n        /* \"#utility.yul\":2516:2538   */\n      add\n        /* \"#utility.yul\":2495:2548   */\n      tag_168\n      jump\t// in\n    tag_228:\n        /* \"#utility.yul\":2485:2548   */\n      swap2\n      pop\n        /* \"#utility.yul\":2441:2558   */\n      pop\n        /* \"#utility.yul\":2236:2565   */\n      swap3\n      swap2\n      pop\n      pop\n      jump\t// out\n        /* \"#utility.yul\":2571:3045   */\n    tag_39:\n        /* \"#utility.yul\":2639:2645   */\n      0x00\n        /* \"#utility.yul\":2647:2653   */\n      dup1\n        /* \"#utility.yul\":2696:2698   */\n      0x40\n        /* \"#utility.yul\":2684:2693   */\n      dup4\n        /* \"#utility.yul\":2675:2682   */\n      dup6\n        /* \"#utility.yul\":2671:2694   */\n      sub\n        /* \"#utility.yul\":2667:2699   */\n      slt\n        /* \"#utility.yul\":2664:2783   */\n      iszero\n      tag_230\n      jumpi\n        /* \"#utility.yul\":2702:2781   */\n      tag_231\n      tag_163\n      jump\t// in\n    tag_231:\n        /* \"#utility.yul\":2664:2783   */\n    tag_230:\n        /* \"#utility.yul\":2822:2823   */\n      0x00\n        /* \"#utility.yul\":2847:2900   */\n      tag_232\n        /* \"#utility.yul\":2892:2899   */\n      dup6\n        /* \"#utility.yul\":2883:2889   */\n      dup3\n        /* \"#utility.yul\":2872:2881   */\n      dup7\n        /* \"#utility.yul\":2868:2890   */\n      add\n        /* \"#utility.yul\":2847:2900   */\n      tag_168\n      jump\t// in\n    tag_232:\n        /* \"#utility.yul\":2837:2900   */\n      swap3\n      pop\n        /* \"#utility.yul\":2793:2910   */\n      pop\n        /* \"#utility.yul\":2949:2951   */\n      0x20\n        /* \"#utility.yul\":2975:3028   */\n      tag_233\n        /* \"#utility.yul\":3020:3027   */\n      dup6\n        /* \"#utility.yul\":3011:3017   */\n      dup3\n        /* \"#utility.yul\":3000:3009   */\n      dup7\n        /* \"#utility.yul\":2996:3018   */\n      add\n        /* \"#utility.yul\":2975:3028   */\n      tag_168\n      jump\t// in\n    tag_233:\n        /* \"#utility.yul\":2965:3028   */\n      swap2\n      pop\n        /* \"#utility.yul\":2920:3038   */\n      pop\n        /* \"#utility.yul\":2571:3045   */\n      swap3\n      pop\n      swap3\n      swap1\n      pop\n      jump\t// out\n        /* \"#utility.yul\":3051:3220   */\n    tag_169:\n        /* \"#utility.yul\":3135:3146   */\n      0x00\n        /* \"#utility.yul\":3169:3175   */\n      dup3\n        /* \"#utility.yul\":3164:3167   */\n      dup3\n        /* \"#utility.yul\":3157:3176   */\n      mstore\n        /* \"#utility.yul\":3209:3213   */\n      0x20\n        /* \"#utility.yul\":3204:3207   */\n      dup3\n        /* \"#utility.yul\":3200:3214   */\n      add\n        /* \"#utility.yul\":3185:3214   */\n      swap1\n      pop\n        /* \"#utility.yul\":3051:3220   */\n      swap3\n      swap2\n      pop\n      pop\n      jump\t// out\n        /* \"#utility.yul\":3226:3399   */\n    tag_170:\n        /* \"#utility.yul\":3366:3391   */\n      0x4e6f206c697175696469747920666f7220546f6b656e42000000000000000000\n        /* \"#utility.yul\":3362:3363   */\n      0x00\n        /* \"#utility.yul\":3354:3360   */\n      dup3\n        /* \"#utility.yul\":3350:3364   */\n      add\n        /* \"#utility.yul\":3343:3392   */\n      mstore\n        /* \"#utility.yul\":3226:3399   */\n      pop\n      jump\t// out\n        /* \"#utility.yul\":3405:3771   */\n    tag_171:\n        /* \"#utility.yul\":3547:3550   */\n      0x00\n        /* \"#utility.yul\":3568:3635   */\n      tag_237\n        /* \"#utility.yul\":3632:3634   */\n      0x17\n        /* \"#utility.yul\":3627:3630   */\n      dup4\n        /* \"#utility.yul\":3568:3635   */\n      tag_169\n      jump\t// in\n    tag_237:\n        /* \"#utility.yul\":3561:3635   */\n      swap2\n      pop\n        /* \"#utility.yul\":3644:3737   */\n      tag_238\n        /* \"#utility.yul\":3733:3736   */\n      dup3\n        /* \"#utility.yul\":3644:3737   */\n      tag_170\n      jump\t// in\n    tag_238:\n        /* \"#utility.yul\":3762:3764   */\n      0x20\n        /* \"#utility.yul\":3757:3760   */\n      dup3\n        /* \"#utility.yul\":3753:3765   */\n      add\n        /* \"#utility.yul\":3746:3765   */\n      swap1\n      pop\n        /* \"#utility.yul\":3405:3771   */\n      swap2\n      swap1\n      pop\n      jump\t// out\n        /* \"#utility.yul\":3777:4196   */\n    tag_54:\n        /* \"#utility.yul\":3943:3947   */\n      0x00\n        /* \"#utility.yul\":3981:3983   */\n      0x20\n        /* \"#utility.yul\":3970:3979   */\n      dup3\n        /* \"#utility.yul\":3966:3984   */\n      add\n        /* \"#utility.yul\":3958:3984   */\n      swap1\n      pop\n        /* \"#utility.yul\":4030:4039   */\n      dup2\n        /* \"#utility.yul\":4024:4028   */\n      dup2\n        /* \"#utility.yul\":4020:4040   */\n      sub\n        /* \"#utility.yul\":4016:4017   */\n      0x00\n        /* \"#utility.yul\":4005:4014   */\n      dup4\n        /* \"#utility.yul\":4001:4018   */\n      add\n        /* \"#utility.yul\":3994:4041   */\n      mstore\n        /* \"#utility.yul\":4058:4189   */\n      tag_240\n        /* \"#utility.yul\":4184:4188   */\n      dup2\n        /* \"#utility.yul\":4058:4189   */\n      tag_171\n      jump\t// in\n    tag_240:\n        /* \"#utility.yul\":4050:4189   */\n      swap1\n      pop\n        /* \"#utility.yul\":3777:4196   */\n      swap2\n      swap1\n      pop\n      jump\t// out\n        /* \"#utility.yul\":4202:4382   */\n    tag_172:\n        /* \"#utility.yul\":4250:4327   */\n      0x4e487b7100000000000000000000000000000000000000000000000000000000\n        /* \"#utility.yul\":4247:4248   */\n      0x00\n        /* \"#utility.yul\":4240:4328   */\n      mstore\n        /* \"#utility.yul\":4347:4351   */\n      0x12\n        /* \"#utility.yul\":4344:4345   */\n      0x04\n        /* \"#utility.yul\":4337:4352   */\n      mstore\n        /* \"#utility.yul\":4371:4375   */\n      0x24\n        /* \"#utility.yul\":4368:4369   */\n      0x00\n        /* \"#utility.yul\":4361:4376   */\n      revert\n        /* \"#utility.yul\":4388:4568   */\n    tag_173:\n        /* \"#utility.yul\":4436:4513   */\n      0x4e487b7100000000000000000000000000000000000000000000000000000000\n        /* \"#utility.yul\":4433:4434   */\n      0x00\n        /* \"#utility.yul\":4426:4514   */\n      mstore\n        /* \"#utility.yul\":4533:4537   */\n      0x11\n        /* \"#utility.yul\":4530:4531   */\n      0x04\n        /* \"#utility.yul\":4523:4538   */\n      mstore\n        /* \"#utility.yul\":4557:4561   */\n      0x24\n        /* \"#utility.yul\":4554:4555   */\n      0x00\n        /* \"#utility.yul\":4547:4562   */\n      revert\n        /* \"#utility.yul\":4574:4759   */\n    tag_56:\n        /* \"#utility.yul\":4614:4615   */\n      0x00\n        /* \"#utility.yul\":4631:4651   */\n      tag_244\n        /* \"#utility.yul\":4649:4650   */\n      dup3\n        /* \"#utility.yul\":4631:4651   */\n      tag_160\n      jump\t// in\n    tag_244:\n        /* \"#utility.yul\":4626:4651   */\n      swap2\n      pop\n        /* \"#utility.yul\":4665:4685   */\n      tag_245\n        /* \"#utility.yul\":4683:4684   */\n      dup4\n        /* \"#utility.yul\":4665:4685   */\n      tag_160\n      jump\t// in\n    tag_245:\n        /* \"#utility.yul\":4660:4685   */\n      swap3\n      pop\n        /* \"#utility.yul\":4704:4705   */\n      dup3\n        /* \"#utility.yul\":4694:4729   */\n      tag_246\n      jumpi\n        /* \"#utility.yul\":4709:4727   */\n      tag_247\n      tag_172\n      jump\t// in\n    tag_247:\n        /* \"#utility.yul\":4694:4729   */\n    tag_246:\n        /* \"#utility.yul\":4751:4752   */\n      dup3\n        /* \"#utility.yul\":4748:4749   */\n      dup3\n        /* \"#utility.yul\":4744:4753   */\n      div\n        /* \"#utility.yul\":4739:4753   */\n      swap1\n      pop\n        /* \"#utility.yul\":4574:4759   */\n      swap3\n      swap2\n      pop\n      pop\n      jump\t// out\n        /* \"#utility.yul\":4765:4938   */\n    tag_174:\n        /* \"#utility.yul\":4905:4930   */\n      0x4e6f206c697175696469747920666f7220546f6b656e41000000000000000000\n        /* \"#utility.yul\":4901:4902   */\n      0x00\n        /* \"#utility.yul\":4893:4899   */\n      dup3\n        /* \"#utility.yul\":4889:4903   */\n      add\n        /* \"#utility.yul\":4882:4931   */\n      mstore\n        /* \"#utility.yul\":4765:4938   */\n      pop\n      jump\t// out\n        /* \"#utility.yul\":4944:5310   */\n    tag_175:\n        /* \"#utility.yul\":5086:5089   */\n      0x00\n        /* \"#utility.yul\":5107:5174   */\n      tag_250\n        /* \"#utility.yul\":5171:5173   */\n      0x17\n        /* \"#utility.yul\":5166:5169   */\n      dup4\n        /* \"#utility.yul\":5107:5174   */\n      tag_169\n      jump\t// in\n    tag_250:\n        /* \"#utility.yul\":5100:5174   */\n      swap2\n      pop\n        /* \"#utility.yul\":5183:5276   */\n      tag_251\n        /* \"#utility.yul\":5272:5275   */\n      dup3\n        /* \"#utility.yul\":5183:5276   */\n      tag_174\n      jump\t// in\n    tag_251:\n        /* \"#utility.yul\":5301:5303   */\n      0x20\n        /* \"#utility.yul\":5296:5299   */\n      dup3\n        /* \"#utility.yul\":5292:5304   */\n      add\n        /* \"#utility.yul\":5285:5304   */\n      swap1\n      pop\n        /* \"#utility.yul\":4944:5310   */\n      swap2\n      swap1\n      pop\n      jump\t// out\n        /* \"#utility.yul\":5316:5735   */\n    tag_61:\n        /* \"#utility.yul\":5482:5486   */\n      0x00\n        /* \"#utility.yul\":5520:5522   */\n      0x20\n        /* \"#utility.yul\":5509:5518   */\n      dup3\n        /* \"#utility.yul\":5505:5523   */\n      add\n        /* \"#utility.yul\":5497:5523   */\n      swap1\n      pop\n        /* \"#utility.yul\":5569:5578   */\n      dup2\n        /* \"#utility.yul\":5563:5567   */\n      dup2\n        /* \"#utility.yul\":5559:5579   */\n      sub\n        /* \"#utility.yul\":5555:5556   */\n      0x00\n        /* \"#utility.yul\":5544:5553   */\n      dup4\n        /* \"#utility.yul\":5540:5557   */\n      add\n        /* \"#utility.yul\":5533:5580   */\n      mstore\n        /* \"#utility.yul\":5597:5728   */\n      tag_253\n        /* \"#utility.yul\":5723:5727   */\n      dup2\n        /* \"#utility.yul\":5597:5728   */\n      tag_175\n      jump\t// in\n    tag_253:\n        /* \"#utility.yul\":5589:5728   */\n      swap1\n      pop\n        /* \"#utility.yul\":5316:5735   */\n      swap2\n      swap1\n      pop\n      jump\t// out\n        /* \"#utility.yul\":5741:5910   */\n    tag_176:\n        /* \"#utility.yul\":5881:5902   */\n      0x546f6b656e206e6f7420737570706f7274656400000000000000000000000000\n        /* \"#utility.yul\":5877:5878   */\n      0x00\n        /* \"#utility.yul\":5869:5875   */\n      dup3\n        /* \"#utility.yul\":5865:5879   */\n      add\n        /* \"#utility.yul\":5858:5903   */\n      mstore\n        /* \"#utility.yul\":5741:5910   */\n      pop\n      jump\t// out\n        /* \"#utility.yul\":5916:6282   */\n    tag_177:\n        /* \"#utility.yul\":6058:6061   */\n      0x00\n        /* \"#utility.yul\":6079:6146   */\n      tag_256\n        /* \"#utility.yul\":6143:6145   */\n      0x13\n        /* \"#utility.yul\":6138:6141   */\n      dup4\n        /* \"#utility.yul\":6079:6146   */\n      tag_169\n      jump\t// in\n    tag_256:\n        /* \"#utility.yul\":6072:6146   */\n      swap2\n      pop\n        /* \"#utility.yul\":6155:6248   */\n      tag_257\n        /* \"#utility.yul\":6244:6247   */\n      dup3\n        /* \"#utility.yul\":6155:6248   */\n      tag_176\n      jump\t// in\n    tag_257:\n        /* \"#utility.yul\":6273:6275   */\n      0x20\n        /* \"#utility.yul\":6268:6271   */\n      dup3\n        /* \"#utility.yul\":6264:6276   */\n      add\n        /* \"#utility.yul\":6257:6276   */\n      swap1\n      pop\n        /* \"#utility.yul\":5916:6282   */\n      swap2\n      swap1\n      pop\n      jump\t// out\n        /* \"#utility.yul\":6288:6707   */\n    tag_65:\n        /* \"#utility.yul\":6454:6458   */\n      0x00\n        /* \"#utility.yul\":6492:6494   */\n      0x20\n        /* \"#utility.yul\":6481:6490   */\n      dup3\n        /* \"#utility.yul\":6477:6495   */\n      add\n        /* \"#utility.yul\":6469:6495   */\n      swap1\n      pop\n        /* \"#utility.yul\":6541:6550   */\n      dup2\n        /* \"#utility.yul\":6535:6539   */\n      dup2\n        /* \"#utility.yul\":6531:6551   */\n      sub\n        /* \"#utility.yul\":6527:6528   */\n      0x00\n        /* \"#utility.yul\":6516:6525   */\n      dup4\n        /* \"#utility.yul\":6512:6529   */\n      add\n        /* \"#utility.yul\":6505:6552   */\n      mstore\n        /* \"#utility.yul\":6569:6700   */\n      tag_259\n        /* \"#utility.yul\":6695:6699   */\n      dup2\n        /* \"#utility.yul\":6569:6700   */\n      tag_177\n      jump\t// in\n    tag_259:\n        /* \"#utility.yul\":6561:6700   */\n      swap1\n      pop\n        /* \"#utility.yul\":6288:6707   */\n      swap2\n      swap1\n      pop\n      jump\t// out\n        /* \"#utility.yul\":6713:6892   */\n    tag_178:\n        /* \"#utility.yul\":6853:6884   */\n      0x416d6f756e74206d7573742062652067726561746572207468616e2030000000\n        /* \"#utility.yul\":6849:6850   */\n      0x00\n        /* \"#utility.yul\":6841:6847   */\n      dup3\n        /* \"#utility.yul\":6837:6851   */\n      add\n        /* \"#utility.yul\":6830:6885   */\n      mstore\n        /* \"#utility.yul\":6713:6892   */\n      pop\n      jump\t// out\n        /* \"#utility.yul\":6898:7264   */\n    tag_179:\n        /* \"#utility.yul\":7040:7043   */\n      0x00\n        /* \"#utility.yul\":7061:7128   */\n      tag_262\n        /* \"#utility.yul\":7125:7127   */\n      0x1d\n        /* \"#utility.yul\":7120:7123   */\n      dup4\n        /* \"#utility.yul\":7061:7128   */\n      tag_169\n      jump\t// in\n    tag_262:\n        /* \"#utility.yul\":7054:7128   */\n      swap2\n      pop\n        /* \"#utility.yul\":7137:7230   */\n      tag_263\n        /* \"#utility.yul\":7226:7229   */\n      dup3\n        /* \"#utility.yul\":7137:7230   */\n      tag_178\n      jump\t// in\n    tag_263:\n        /* \"#utility.yul\":7255:7257   */\n      0x20\n        /* \"#utility.yul\":7250:7253   */\n      dup3\n        /* \"#utility.yul\":7246:7258   */\n      add\n        /* \"#utility.yul\":7239:7258   */\n      swap1\n      pop\n        /* \"#utility.yul\":6898:7264   */\n      swap2\n      swap1\n      pop\n      jump\t// out\n        /* \"#utility.yul\":7270:7689   */\n    tag_69:\n        /* \"#utility.yul\":7436:7440   */\n      0x00\n        /* \"#utility.yul\":7474:7476   */\n      0x20\n        /* \"#utility.yul\":7463:7472   */\n      dup3\n        /* \"#utility.yul\":7459:7477   */\n      add\n        /* \"#utility.yul\":7451:7477   */\n      swap1\n      pop\n        /* \"#utility.yul\":7523:7532   */\n      dup2\n        /* \"#utility.yul\":7517:7521   */\n      dup2\n        /* \"#utility.yul\":7513:7533   */\n      sub\n        /* \"#utility.yul\":7509:7510   */\n      0x00\n        /* \"#utility.yul\":7498:7507   */\n      dup4\n        /* \"#utility.yul\":7494:7511   */\n      add\n        /* \"#utility.yul\":7487:7534   */\n      mstore\n        /* \"#utility.yul\":7551:7682   */\n      tag_265\n        /* \"#utility.yul\":7677:7681   */\n      dup2\n        /* \"#utility.yul\":7551:7682   */\n      tag_179\n      jump\t// in\n    tag_265:\n        /* \"#utility.yul\":7543:7682   */\n      swap1\n      pop\n        /* \"#utility.yul\":7270:7689   */\n      swap2\n      swap1\n      pop\n      jump\t// out\n        /* \"#utility.yul\":7695:7886   */\n    tag_71:\n        /* \"#utility.yul\":7735:7738   */\n      0x00\n        /* \"#utility.yul\":7754:7774   */\n      tag_267\n        /* \"#utility.yul\":7772:7773   */\n      dup3\n        /* \"#utility.yul\":7754:7774   */\n      tag_160\n      jump\t// in\n    tag_267:\n        /* \"#utility.yul\":7749:7774   */\n      swap2\n      pop\n        /* \"#utility.yul\":7788:7808   */\n      tag_268\n        /* \"#utility.yul\":7806:7807   */\n      dup4\n        /* \"#utility.yul\":7788:7808   */\n      tag_160\n      jump\t// in\n    tag_268:\n        /* \"#utility.yul\":7783:7808   */\n      swap3\n      pop\n        /* \"#utility.yul\":7831:7832   */\n      dup3\n        /* \"#utility.yul\":7828:7829   */\n      dup3\n        /* \"#utility.yul\":7824:7833   */\n      add\n        /* \"#utility.yul\":7817:7833   */\n      swap1\n      pop\n        /* \"#utility.yul\":7852:7855   */\n      dup1\n        /* \"#utility.yul\":7849:7850   */\n      dup3\n        /* \"#utility.yul\":7846:7856   */\n      gt\n        /* \"#utility.yul\":7843:7879   */\n      iszero\n      tag_269\n      jumpi\n        /* \"#utility.yul\":7859:7877   */\n      tag_270\n      tag_173\n      jump\t// in\n    tag_270:\n        /* \"#utility.yul\":7843:7879   */\n    tag_269:\n        /* \"#utility.yul\":7695:7886   */\n      swap3\n      swap2\n      pop\n      pop\n      jump\t// out\n        /* \"#utility.yul\":7892:8302   */\n    tag_73:\n        /* \"#utility.yul\":7932:7939   */\n      0x00\n        /* \"#utility.yul\":7955:7975   */\n      tag_272\n        /* \"#utility.yul\":7973:7974   */\n      dup3\n        /* \"#utility.yul\":7955:7975   */\n      tag_160\n      jump\t// in\n    tag_272:\n        /* \"#utility.yul\":7950:7975   */\n      swap2\n      pop\n        /* \"#utility.yul\":7989:8009   */\n      tag_273\n        /* \"#utility.yul\":8007:8008   */\n      dup4\n        /* \"#utility.yul\":7989:8009   */\n      tag_160\n      jump\t// in\n    tag_273:\n        /* \"#utility.yul\":7984:8009   */\n      swap3\n      pop\n        /* \"#utility.yul\":8044:8045   */\n      dup3\n        /* \"#utility.yul\":8041:8042   */\n      dup3\n        /* \"#utility.yul\":8037:8046   */\n      mul\n        /* \"#utility.yul\":8066:8096   */\n      tag_274\n        /* \"#utility.yul\":8084:8095   */\n      dup2\n        /* \"#utility.yul\":8066:8096   */\n      tag_160\n      jump\t// in\n    tag_274:\n        /* \"#utility.yul\":8055:8096   */\n      swap2\n      pop\n        /* \"#utility.yul\":8245:8246   */\n      dup3\n        /* \"#utility.yul\":8236:8243   */\n      dup3\n        /* \"#utility.yul\":8232:8247   */\n      div\n        /* \"#utility.yul\":8229:8230   */\n      dup5\n        /* \"#utility.yul\":8226:8248   */\n      eq\n        /* \"#utility.yul\":8206:8207   */\n      dup4\n        /* \"#utility.yul\":8199:8208   */\n      iszero\n        /* \"#utility.yul\":8179:8262   */\n      or\n        /* \"#utility.yul\":8156:8295   */\n      tag_275\n      jumpi\n        /* \"#utility.yul\":8275:8293   */\n      tag_276\n      tag_173\n      jump\t// in\n    tag_276:\n        /* \"#utility.yul\":8156:8295   */\n    tag_275:\n        /* \"#utility.yul\":7940:8302   */\n      pop\n        /* \"#utility.yul\":7892:8302   */\n      swap3\n      swap2\n      pop\n      pop\n      jump\t// out\n        /* \"#utility.yul\":8308:8484   */\n    tag_180:\n        /* \"#utility.yul\":8448:8476   */\n      0x496e73756666696369656e74206f757470757420616d6f756e74000000000000\n        /* \"#utility.yul\":8444:8445   */\n      0x00\n        /* \"#utility.yul\":8436:8442   */\n      dup3\n        /* \"#utility.yul\":8432:8446   */\n      add\n        /* \"#utility.yul\":8425:8477   */\n      mstore\n        /* \"#utility.yul\":8308:8484   */\n      pop\n      jump\t// out\n        /* \"#utility.yul\":8490:8856   */\n    tag_181:\n        /* \"#utility.yul\":8632:8635   */\n      0x00\n        /* \"#utility.yul\":8653:8720   */\n      tag_279\n        /* \"#utility.yul\":8717:8719   */\n      0x1a\n        /* \"#utility.yul\":8712:8715   */\n      dup4\n        /* \"#utility.yul\":8653:8720   */\n      tag_169\n      jump\t// in\n    tag_279:\n        /* \"#utility.yul\":8646:8720   */\n      swap2\n      pop\n        /* \"#utility.yul\":8729:8822   */\n      tag_280\n        /* \"#utility.yul\":8818:8821   */\n      dup3\n        /* \"#utility.yul\":8729:8822   */\n      tag_180\n      jump\t// in\n    tag_280:\n        /* \"#utility.yul\":8847:8849   */\n      0x20\n        /* \"#utility.yul\":8842:8845   */\n      dup3\n        /* \"#utility.yul\":8838:8850   */\n      add\n        /* \"#utility.yul\":8831:8850   */\n      swap1\n      pop\n        /* \"#utility.yul\":8490:8856   */\n      swap2\n      swap1\n      pop\n      jump\t// out\n        /* \"#utility.yul\":8862:9281   */\n    tag_77:\n        /* \"#utility.yul\":9028:9032   */\n      0x00\n        /* \"#utility.yul\":9066:9068   */\n      0x20\n        /* \"#utility.yul\":9055:9064   */\n      dup3\n        /* \"#utility.yul\":9051:9069   */\n      add\n        /* \"#utility.yul\":9043:9069   */\n      swap1\n      pop\n        /* \"#utility.yul\":9115:9124   */\n      dup2\n        /* \"#utility.yul\":9109:9113   */\n      dup2\n        /* \"#utility.yul\":9105:9125   */\n      sub\n        /* \"#utility.yul\":9101:9102   */\n      0x00\n        /* \"#utility.yul\":9090:9099   */\n      dup4\n        /* \"#utility.yul\":9086:9103   */\n      add\n        /* \"#utility.yul\":9079:9126   */\n      mstore\n        /* \"#utility.yul\":9143:9274   */\n      tag_282\n        /* \"#utility.yul\":9269:9273   */\n      dup2\n        /* \"#utility.yul\":9143:9274   */\n      tag_181\n      jump\t// in\n    tag_282:\n        /* \"#utility.yul\":9135:9274   */\n      swap1\n      pop\n        /* \"#utility.yul\":8862:9281   */\n      swap2\n      swap1\n      pop\n      jump\t// out\n        /* \"#utility.yul\":9287:9729   */\n    tag_79:\n        /* \"#utility.yul\":9436:9440   */\n      0x00\n        /* \"#utility.yul\":9474:9476   */\n      0x60\n        /* \"#utility.yul\":9463:9472   */\n      dup3\n        /* \"#utility.yul\":9459:9477   */\n      add\n        /* \"#utility.yul\":9451:9477   */\n      swap1\n      pop\n        /* \"#utility.yul\":9487:9558   */\n      tag_284\n        /* \"#utility.yul\":9555:9556   */\n      0x00\n        /* \"#utility.yul\":9544:9553   */\n      dup4\n        /* \"#utility.yul\":9540:9557   */\n      add\n        /* \"#utility.yul\":9531:9537   */\n      dup7\n        /* \"#utility.yul\":9487:9558   */\n      tag_159\n      jump\t// in\n    tag_284:\n        /* \"#utility.yul\":9568:9640   */\n      tag_285\n        /* \"#utility.yul\":9636:9638   */\n      0x20\n        /* \"#utility.yul\":9625:9634   */\n      dup4\n        /* \"#utility.yul\":9621:9639   */\n      add\n        /* \"#utility.yul\":9612:9618   */\n      dup6\n        /* \"#utility.yul\":9568:9640   */\n      tag_159\n      jump\t// in\n    tag_285:\n        /* \"#utility.yul\":9650:9722   */\n      tag_286\n        /* \"#utility.yul\":9718:9720   */\n      0x40\n        /* \"#utility.yul\":9707:9716   */\n      dup4\n        /* \"#utility.yul\":9703:9721   */\n      add\n        /* \"#utility.yul\":9694:9700   */\n      dup5\n        /* \"#utility.yul\":9650:9722   */\n      tag_161\n      jump\t// in\n    tag_286:\n        /* \"#utility.yul\":9287:9729   */\n      swap5\n      swap4\n      pop\n      pop\n      pop\n      pop\n      jump\t// out\n        /* \"#utility.yul\":9735:9825   */\n    tag_182:\n        /* \"#utility.yul\":9769:9776   */\n      0x00\n        /* \"#utility.yul\":9812:9817   */\n      dup2\n        /* \"#utility.yul\":9805:9818   */\n      iszero\n        /* \"#utility.yul\":9798:9819   */\n      iszero\n        /* \"#utility.yul\":9787:9819   */\n      swap1\n      pop\n        /* \"#utility.yul\":9735:9825   */\n      swap2\n      swap1\n      pop\n      jump\t// out\n        /* \"#utility.yul\":9831:9947   */\n    tag_183:\n        /* \"#utility.yul\":9901:9922   */\n      tag_289\n        /* \"#utility.yul\":9916:9921   */\n      dup2\n        /* \"#utility.yul\":9901:9922   */\n      tag_182\n      jump\t// in\n    tag_289:\n        /* \"#utility.yul\":9894:9899   */\n      dup2\n        /* \"#utility.yul\":9891:9923   */\n      eq\n        /* \"#utility.yul\":9881:9941   */\n      tag_290\n      jumpi\n        /* \"#utility.yul\":9937:9938   */\n      0x00\n        /* \"#utility.yul\":9934:9935   */\n      dup1\n        /* \"#utility.yul\":9927:9939   */\n      revert\n        /* \"#utility.yul\":9881:9941   */\n    tag_290:\n        /* \"#utility.yul\":9831:9947   */\n      pop\n      jump\t// out\n        /* \"#utility.yul\":9953:10090   */\n    tag_184:\n        /* \"#utility.yul\":10007:10012   */\n      0x00\n        /* \"#utility.yul\":10038:10044   */\n      dup2\n        /* \"#utility.yul\":10032:10045   */\n      mload\n        /* \"#utility.yul\":10023:10045   */\n      swap1\n      pop\n        /* \"#utility.yul\":10054:10084   */\n      tag_292\n        /* \"#utility.yul\":10078:10083   */\n      dup2\n        /* \"#utility.yul\":10054:10084   */\n      tag_183\n      jump\t// in\n    tag_292:\n        /* \"#utility.yul\":9953:10090   */\n      swap3\n      swap2\n      pop\n      pop\n      jump\t// out\n        /* \"#utility.yul\":10096:10441   */\n    tag_83:\n        /* \"#utility.yul\":10163:10169   */\n      0x00\n        /* \"#utility.yul\":10212:10214   */\n      0x20\n        /* \"#utility.yul\":10200:10209   */\n      dup3\n        /* \"#utility.yul\":10191:10198   */\n      dup5\n        /* \"#utility.yul\":10187:10210   */\n      sub\n        /* \"#utility.yul\":10183:10215   */\n      slt\n        /* \"#utility.yul\":10180:10299   */\n      iszero\n      tag_294\n      jumpi\n        /* \"#utility.yul\":10218:10297   */\n      tag_295\n      tag_163\n      jump\t// in\n    tag_295:\n        /* \"#utility.yul\":10180:10299   */\n    tag_294:\n        /* \"#utility.yul\":10338:10339   */\n      0x00\n        /* \"#utility.yul\":10363:10424   */\n      tag_296\n        /* \"#utility.yul\":10416:10423   */\n      dup5\n        /* \"#utility.yul\":10407:10413   */\n      dup3\n        /* \"#utility.yul\":10396:10405   */\n      dup6\n        /* \"#utility.yul\":10392:10414   */\n      add\n        /* \"#utility.yul\":10363:10424   */\n      tag_184\n      jump\t// in\n    tag_296:\n        /* \"#utility.yul\":10353:10424   */\n      swap2\n      pop\n        /* \"#utility.yul\":10309:10434   */\n      pop\n        /* \"#utility.yul\":10096:10441   */\n      swap3\n      swap2\n      pop\n      pop\n      jump\t// out\n        /* \"#utility.yul\":10447:10779   */\n    tag_85:\n        /* \"#utility.yul\":10568:10572   */\n      0x00\n        /* \"#utility.yul\":10606:10608   */\n      0x40\n        /* \"#utility.yul\":10595:10604   */\n      dup3\n        /* \"#utility.yul\":10591:10609   */\n      add\n        /* \"#utility.yul\":10583:10609   */\n      swap1\n      pop\n        /* \"#utility.yul\":10619:10690   */\n      tag_298\n        /* \"#utility.yul\":10687:10688   */\n      0x00\n        /* \"#utility.yul\":10676:10685   */\n      dup4\n        /* \"#utility.yul\":10672:10689   */\n      add\n        /* \"#utility.yul\":10663:10669   */\n      dup6\n        /* \"#utility.yul\":10619:10690   */\n      tag_159\n      jump\t// in\n    tag_298:\n        /* \"#utility.yul\":10700:10772   */\n      tag_299\n        /* \"#utility.yul\":10768:10770   */\n      0x20\n        /* \"#utility.yul\":10757:10766   */\n      dup4\n        /* \"#utility.yul\":10753:10771   */\n      add\n        /* \"#utility.yul\":10744:10750   */\n      dup5\n        /* \"#utility.yul\":10700:10772   */\n      tag_161\n      jump\t// in\n    tag_299:\n        /* \"#utility.yul\":10447:10779   */\n      swap4\n      swap3\n      pop\n      pop\n      pop\n      jump\t// out\n        /* \"#utility.yul\":10785:10979   */\n    tag_91:\n        /* \"#utility.yul\":10825:10829   */\n      0x00\n        /* \"#utility.yul\":10845:10865   */\n      tag_301\n        /* \"#utility.yul\":10863:10864   */\n      dup3\n        /* \"#utility.yul\":10845:10865   */\n      tag_160\n      jump\t// in\n    tag_301:\n        /* \"#utility.yul\":10840:10865   */\n      swap2\n      pop\n        /* \"#utility.yul\":10879:10899   */\n      tag_302\n        /* \"#utility.yul\":10897:10898   */\n      dup4\n        /* \"#utility.yul\":10879:10899   */\n      tag_160\n      jump\t// in\n    tag_302:\n        /* \"#utility.yul\":10874:10899   */\n      swap3\n      pop\n        /* \"#utility.yul\":10923:10924   */\n      dup3\n        /* \"#utility.yul\":10920:10921   */\n      dup3\n        /* \"#utility.yul\":10916:10925   */\n      sub\n        /* \"#utility.yul\":10908:10925   */\n      swap1\n      pop\n        /* \"#utility.yul\":10947:10948   */\n      dup2\n        /* \"#utility.yul\":10941:10945   */\n      dup2\n        /* \"#utility.yul\":10938:10949   */\n      gt\n        /* \"#utility.yul\":10935:10972   */\n      iszero\n      tag_303\n      jumpi\n        /* \"#utility.yul\":10952:10970   */\n      tag_304\n      tag_173\n      jump\t// in\n    tag_304:\n        /* \"#utility.yul\":10935:10972   */\n    tag_303:\n        /* \"#utility.yul\":10785:10979   */\n      swap3\n      swap2\n      pop\n      pop\n      jump\t// out\n        /* \"#utility.yul\":10985:11427   */\n    tag_93:\n        /* \"#utility.yul\":11134:11138   */\n      0x00\n        /* \"#utility.yul\":11172:11174   */\n      0x60\n        /* \"#utility.yul\":11161:11170   */\n      dup3\n        /* \"#utility.yul\":11157:11175   */\n      add\n        /* \"#utility.yul\":11149:11175   */\n      swap1\n      pop\n        /* \"#utility.yul\":11185:11256   */\n      tag_306\n        /* \"#utility.yul\":11253:11254   */\n      0x00\n        /* \"#utility.yul\":11242:11251   */\n      dup4\n        /* \"#utility.yul\":11238:11255   */\n      add\n        /* \"#utility.yul\":11229:11235   */\n      dup7\n        /* \"#utility.yul\":11185:11256   */\n      tag_159\n      jump\t// in\n    tag_306:\n        /* \"#utility.yul\":11266:11338   */\n      tag_307\n        /* \"#utility.yul\":11334:11336   */\n      0x20\n        /* \"#utility.yul\":11323:11332   */\n      dup4\n        /* \"#utility.yul\":11319:11337   */\n      add\n        /* \"#utility.yul\":11310:11316   */\n      dup6\n        /* \"#utility.yul\":11266:11338   */\n      tag_161\n      jump\t// in\n    tag_307:\n        /* \"#utility.yul\":11348:11420   */\n      tag_308\n        /* \"#utility.yul\":11416:11418   */\n      0x40\n        /* \"#utility.yul\":11405:11414   */\n      dup4\n        /* \"#utility.yul\":11401:11419   */\n      add\n        /* \"#utility.yul\":11392:11398   */\n      dup5\n        /* \"#utility.yul\":11348:11420   */\n      tag_161\n      jump\t// in\n    tag_308:\n        /* \"#utility.yul\":10985:11427   */\n      swap5\n      swap4\n      pop\n      pop\n      pop\n      pop\n      jump\t// out\n        /* \"#utility.yul\":11433:11653   */\n    tag_185:\n        /* \"#utility.yul\":11573:11607   */\n      0x4f6e6c79206f776e65722063616e2063616c6c20746869732066756e6374696f\n        /* \"#utility.yul\":11569:11570   */\n      0x00\n        /* \"#utility.yul\":11561:11567   */\n      dup3\n        /* \"#utility.yul\":11557:11571   */\n      add\n        /* \"#utility.yul\":11550:11608   */\n      mstore\n        /* \"#utility.yul\":11642:11645   */\n      0x6e00000000000000000000000000000000000000000000000000000000000000\n        /* \"#utility.yul\":11637:11639   */\n      0x20\n        /* \"#utility.yul\":11629:11635   */\n      dup3\n        /* \"#utility.yul\":11625:11640   */\n      add\n        /* \"#utility.yul\":11618:11646   */\n      mstore\n        /* \"#utility.yul\":11433:11653   */\n      pop\n      jump\t// out\n        /* \"#utility.yul\":11659:12025   */\n    tag_186:\n        /* \"#utility.yul\":11801:11804   */\n      0x00\n        /* \"#utility.yul\":11822:11889   */\n      tag_311\n        /* \"#utility.yul\":11886:11888   */\n      0x21\n        /* \"#utility.yul\":11881:11884   */\n      dup4\n        /* \"#utility.yul\":11822:11889   */\n      tag_169\n      jump\t// in\n    tag_311:\n        /* \"#utility.yul\":11815:11889   */\n      swap2\n      pop\n        /* \"#utility.yul\":11898:11991   */\n      tag_312\n        /* \"#utility.yul\":11987:11990   */\n      dup3\n        /* \"#utility.yul\":11898:11991   */\n      tag_185\n      jump\t// in\n    tag_312:\n        /* \"#utility.yul\":12016:12018   */\n      0x40\n        /* \"#utility.yul\":12011:12014   */\n      dup3\n        /* \"#utility.yul\":12007:12019   */\n      add\n        /* \"#utility.yul\":12000:12019   */\n      swap1\n      pop\n        /* \"#utility.yul\":11659:12025   */\n      swap2\n      swap1\n      pop\n      jump\t// out\n        /* \"#utility.yul\":12031:12450   */\n    tag_97:\n        /* \"#utility.yul\":12197:12201   */\n      0x00\n        /* \"#utility.yul\":12235:12237   */\n      0x20\n        /* \"#utility.yul\":12224:12233   */\n      dup3\n        /* \"#utility.yul\":12220:12238   */\n      add\n        /* \"#utility.yul\":12212:12238   */\n      swap1\n      pop\n        /* \"#utility.yul\":12284:12293   */\n      dup2\n        /* \"#utility.yul\":12278:12282   */\n      dup2\n        /* \"#utility.yul\":12274:12294   */\n      sub\n        /* \"#utility.yul\":12270:12271   */\n      0x00\n        /* \"#utility.yul\":12259:12268   */\n      dup4\n        /* \"#utility.yul\":12255:12272   */\n      add\n        /* \"#utility.yul\":12248:12295   */\n      mstore\n        /* \"#utility.yul\":12312:12443   */\n      tag_314\n        /* \"#utility.yul\":12438:12442   */\n      dup2\n        /* \"#utility.yul\":12312:12443   */\n      tag_186\n      jump\t// in\n    tag_314:\n        /* \"#utility.yul\":12304:12443   */\n      swap1\n      pop\n        /* \"#utility.yul\":12031:12450   */\n      swap2\n      swap1\n      pop\n      jump\t// out\n        /* \"#utility.yul\":12456:12631   */\n    tag_187:\n        /* \"#utility.yul\":12596:12623   */\n      0x5472616e73666572206f6620546f6b656e41206661696c656400000000000000\n        /* \"#utility.yul\":12592:12593   */\n      0x00\n        /* \"#utility.yul\":12584:12590   */\n      dup3\n        /* \"#utility.yul\":12580:12594   */\n      add\n        /* \"#utility.yul\":12573:12624   */\n      mstore\n        /* \"#utility.yul\":12456:12631   */\n      pop\n      jump\t// out\n        /* \"#utility.yul\":12637:13003   */\n    tag_188:\n        /* \"#utility.yul\":12779:12782   */\n      0x00\n        /* \"#utility.yul\":12800:12867   */\n      tag_317\n        /* \"#utility.yul\":12864:12866   */\n      0x19\n        /* \"#utility.yul\":12859:12862   */\n      dup4\n        /* \"#utility.yul\":12800:12867   */\n      tag_169\n      jump\t// in\n    tag_317:\n        /* \"#utility.yul\":12793:12867   */\n      swap2\n      pop\n        /* \"#utility.yul\":12876:12969   */\n      tag_318\n        /* \"#utility.yul\":12965:12968   */\n      dup3\n        /* \"#utility.yul\":12876:12969   */\n      tag_187\n      jump\t// in\n    tag_318:\n        /* \"#utility.yul\":12994:12996   */\n      0x20\n        /* \"#utility.yul\":12989:12992   */\n      dup3\n        /* \"#utility.yul\":12985:12997   */\n      add\n        /* \"#utility.yul\":12978:12997   */\n      swap1\n      pop\n        /* \"#utility.yul\":12637:13003   */\n      swap2\n      swap1\n      pop\n      jump\t// out\n        /* \"#utility.yul\":13009:13428   */\n    tag_105:\n        /* \"#utility.yul\":13175:13179   */\n      0x00\n        /* \"#utility.yul\":13213:13215   */\n      0x20\n        /* \"#utility.yul\":13202:13211   */\n      dup3\n        /* \"#utility.yul\":13198:13216   */\n      add\n        /* \"#utility.yul\":13190:13216   */\n      swap1\n      pop\n        /* \"#utility.yul\":13262:13271   */\n      dup2\n        /* \"#utility.yul\":13256:13260   */\n      dup2\n        /* \"#utility.yul\":13252:13272   */\n      sub\n        /* \"#utility.yul\":13248:13249   */\n      0x00\n        /* \"#utility.yul\":13237:13246   */\n      dup4\n        /* \"#utility.yul\":13233:13250   */\n      add\n        /* \"#utility.yul\":13226:13273   */\n      mstore\n        /* \"#utility.yul\":13290:13421   */\n      tag_320\n        /* \"#utility.yul\":13416:13420   */\n      dup2\n        /* \"#utility.yul\":13290:13421   */\n      tag_188\n      jump\t// in\n    tag_320:\n        /* \"#utility.yul\":13282:13421   */\n      swap1\n      pop\n        /* \"#utility.yul\":13009:13428   */\n      swap2\n      swap1\n      pop\n      jump\t// out\n        /* \"#utility.yul\":13434:13609   */\n    tag_189:\n        /* \"#utility.yul\":13574:13601   */\n      0x5472616e73666572206f6620546f6b656e42206661696c656400000000000000\n        /* \"#utility.yul\":13570:13571   */\n      0x00\n        /* \"#utility.yul\":13562:13568   */\n      dup3\n        /* \"#utility.yul\":13558:13572   */\n      add\n        /* \"#utility.yul\":13551:13602   */\n      mstore\n        /* \"#utility.yul\":13434:13609   */\n      pop\n      jump\t// out\n        /* \"#utility.yul\":13615:13981   */\n    tag_190:\n        /* \"#utility.yul\":13757:13760   */\n      0x00\n        /* \"#utility.yul\":13778:13845   */\n      tag_323\n        /* \"#utility.yul\":13842:13844   */\n      0x19\n        /* \"#utility.yul\":13837:13840   */\n      dup4\n        /* \"#utility.yul\":13778:13845   */\n      tag_169\n      jump\t// in\n    tag_323:\n        /* \"#utility.yul\":13771:13845   */\n      swap2\n      pop\n        /* \"#utility.yul\":13854:13947   */\n      tag_324\n        /* \"#utility.yul\":13943:13946   */\n      dup3\n        /* \"#utility.yul\":13854:13947   */\n      tag_189\n      jump\t// in\n    tag_324:\n        /* \"#utility.yul\":13972:13974   */\n      0x20\n        /* \"#utility.yul\":13967:13970   */\n      dup3\n        /* \"#utility.yul\":13963:13975   */\n      add\n        /* \"#utility.yul\":13956:13975   */\n      swap1\n      pop\n        /* \"#utility.yul\":13615:13981   */\n      swap2\n      swap1\n      pop\n      jump\t// out\n        /* \"#utility.yul\":13987:14406   */\n    tag_112:\n        /* \"#utility.yul\":14153:14157   */\n      0x00\n        /* \"#utility.yul\":14191:14193   */\n      0x20\n        /* \"#utility.yul\":14180:14189   */\n      dup3\n        /* \"#utility.yul\":14176:14194   */\n      add\n        /* \"#utility.yul\":14168:14194   */\n      swap1\n      pop\n        /* \"#utility.yul\":14240:14249   */\n      dup2\n        /* \"#utility.yul\":14234:14238   */\n      dup2\n        /* \"#utility.yul\":14230:14250   */\n      sub\n        /* \"#utility.yul\":14226:14227   */\n      0x00\n        /* \"#utility.yul\":14215:14224   */\n      dup4\n        /* \"#utility.yul\":14211:14228   */\n      add\n        /* \"#utility.yul\":14204:14251   */\n      mstore\n        /* \"#utility.yul\":14268:14399   */\n      tag_326\n        /* \"#utility.yul\":14394:14398   */\n      dup2\n        /* \"#utility.yul\":14268:14399   */\n      tag_190\n      jump\t// in\n    tag_326:\n        /* \"#utility.yul\":14260:14399   */\n      swap1\n      pop\n        /* \"#utility.yul\":13987:14406   */\n      swap2\n      swap1\n      pop\n      jump\t// out\n        /* \"#utility.yul\":14412:14744   */\n    tag_116:\n        /* \"#utility.yul\":14533:14537   */\n      0x00\n        /* \"#utility.yul\":14571:14573   */\n      0x40\n        /* \"#utility.yul\":14560:14569   */\n      dup3\n        /* \"#utility.yul\":14556:14574   */\n      add\n        /* \"#utility.yul\":14548:14574   */\n      swap1\n      pop\n        /* \"#utility.yul\":14584:14655   */\n      tag_328\n        /* \"#utility.yul\":14652:14653   */\n      0x00\n        /* \"#utility.yul\":14641:14650   */\n      dup4\n        /* \"#utility.yul\":14637:14654   */\n      add\n        /* \"#utility.yul\":14628:14634   */\n      dup6\n        /* \"#utility.yul\":14584:14655   */\n      tag_161\n      jump\t// in\n    tag_328:\n        /* \"#utility.yul\":14665:14737   */\n      tag_329\n        /* \"#utility.yul\":14733:14735   */\n      0x20\n        /* \"#utility.yul\":14722:14731   */\n      dup4\n        /* \"#utility.yul\":14718:14736   */\n      add\n        /* \"#utility.yul\":14709:14715   */\n      dup5\n        /* \"#utility.yul\":14665:14737   */\n      tag_161\n      jump\t// in\n    tag_329:\n        /* \"#utility.yul\":14412:14744   */\n      swap4\n      swap3\n      pop\n      pop\n      pop\n      jump\t// out\n        /* \"#utility.yul\":14750:14927   */\n    tag_191:\n        /* \"#utility.yul\":14890:14919   */\n      0x496e73756666696369656e7420546f6b656e4120726573657276650000000000\n        /* \"#utility.yul\":14886:14887   */\n      0x00\n        /* \"#utility.yul\":14878:14884   */\n      dup3\n        /* \"#utility.yul\":14874:14888   */\n      add\n        /* \"#utility.yul\":14867:14920   */\n      mstore\n        /* \"#utility.yul\":14750:14927   */\n      pop\n      jump\t// out\n        /* \"#utility.yul\":14933:15299   */\n    tag_192:\n        /* \"#utility.yul\":15075:15078   */\n      0x00\n        /* \"#utility.yul\":15096:15163   */\n      tag_332\n        /* \"#utility.yul\":15160:15162   */\n      0x1b\n        /* \"#utility.yul\":15155:15158   */\n      dup4\n        /* \"#utility.yul\":15096:15163   */\n      tag_169\n      jump\t// in\n    tag_332:\n        /* \"#utility.yul\":15089:15163   */\n      swap2\n      pop\n        /* \"#utility.yul\":15172:15265   */\n      tag_333\n        /* \"#utility.yul\":15261:15264   */\n      dup3\n        /* \"#utility.yul\":15172:15265   */\n      tag_191\n      jump\t// in\n    tag_333:\n        /* \"#utility.yul\":15290:15292   */\n      0x20\n        /* \"#utility.yul\":15285:15288   */\n      dup3\n        /* \"#utility.yul\":15281:15293   */\n      add\n        /* \"#utility.yul\":15274:15293   */\n      swap1\n      pop\n        /* \"#utility.yul\":14933:15299   */\n      swap2\n      swap1\n      pop\n      jump\t// out\n        /* \"#utility.yul\":15305:15724   */\n    tag_123:\n        /* \"#utility.yul\":15471:15475   */\n      0x00\n        /* \"#utility.yul\":15509:15511   */\n      0x20\n        /* \"#utility.yul\":15498:15507   */\n      dup3\n        /* \"#utility.yul\":15494:15512   */\n      add\n        /* \"#utility.yul\":15486:15512   */\n      swap1\n      pop\n        /* \"#utility.yul\":15558:15567   */\n      dup2\n        /* \"#utility.yul\":15552:15556   */\n      dup2\n        /* \"#utility.yul\":15548:15568   */\n      sub\n        /* \"#utility.yul\":15544:15545   */\n      0x00\n        /* \"#utility.yul\":15533:15542   */\n      dup4\n        /* \"#utility.yul\":15529:15546   */\n      add\n        /* \"#utility.yul\":15522:15569   */\n      mstore\n        /* \"#utility.yul\":15586:15717   */\n      tag_335\n        /* \"#utility.yul\":15712:15716   */\n      dup2\n        /* \"#utility.yul\":15586:15717   */\n      tag_192\n      jump\t// in\n    tag_335:\n        /* \"#utility.yul\":15578:15717   */\n      swap1\n      pop\n        /* \"#utility.yul\":15305:15724   */\n      swap2\n      swap1\n      pop\n      jump\t// out\n        /* \"#utility.yul\":15730:15907   */\n    tag_193:\n        /* \"#utility.yul\":15870:15899   */\n      0x496e73756666696369656e7420546f6b656e4220726573657276650000000000\n        /* \"#utility.yul\":15866:15867   */\n      0x00\n        /* \"#utility.yul\":15858:15864   */\n      dup3\n        /* \"#utility.yul\":15854:15868   */\n      add\n        /* \"#utility.yul\":15847:15900   */\n      mstore\n        /* \"#utility.yul\":15730:15907   */\n      pop\n      jump\t// out\n        /* \"#utility.yul\":15913:16279   */\n    tag_194:\n        /* \"#utility.yul\":16055:16058   */\n      0x00\n        /* \"#utility.yul\":16076:16143   */\n      tag_338\n        /* \"#utility.yul\":16140:16142   */\n      0x1b\n        /* \"#utility.yul\":16135:16138   */\n      dup4\n        /* \"#utility.yul\":16076:16143   */\n      tag_169\n      jump\t// in\n    tag_338:\n        /* \"#utility.yul\":16069:16143   */\n      swap2\n      pop\n        /* \"#utility.yul\":16152:16245   */\n      tag_339\n        /* \"#utility.yul\":16241:16244   */\n      dup3\n        /* \"#utility.yul\":16152:16245   */\n      tag_193\n      jump\t// in\n    tag_339:\n        /* \"#utility.yul\":16270:16272   */\n      0x20\n        /* \"#utility.yul\":16265:16268   */\n      dup3\n        /* \"#utility.yul\":16261:16273   */\n      add\n        /* \"#utility.yul\":16254:16273   */\n      swap1\n      pop\n        /* \"#utility.yul\":15913:16279   */\n      swap2\n      swap1\n      pop\n      jump\t// out\n        /* \"#utility.yul\":16285:16704   */\n    tag_126:\n        /* \"#utility.yul\":16451:16455   */\n      0x00\n        /* \"#utility.yul\":16489:16491   */\n      0x20\n        /* \"#utility.yul\":16478:16487   */\n      dup3\n        /* \"#utility.yul\":16474:16492   */\n      add\n        /* \"#utility.yul\":16466:16492   */\n      swap1\n      pop\n        /* \"#utility.yul\":16538:16547   */\n      dup2\n        /* \"#utility.yul\":16532:16536   */\n      dup2\n        /* \"#utility.yul\":16528:16548   */\n      sub\n        /* \"#utility.yul\":16524:16525   */\n      0x00\n        /* \"#utility.yul\":16513:16522   */\n      dup4\n        /* \"#utility.yul\":16509:16526   */\n      add\n        /* \"#utility.yul\":16502:16549   */\n      mstore\n        /* \"#utility.yul\":16566:16697   */\n      tag_341\n        /* \"#utility.yul\":16692:16696   */\n      dup2\n        /* \"#utility.yul\":16566:16697   */\n      tag_194\n      jump\t// in\n    tag_341:\n        /* \"#utility.yul\":16558:16697   */\n      swap1\n      pop\n        /* \"#utility.yul\":16285:16704   */\n      swap2\n      swap1\n      pop\n      jump\t// out\n\n    auxdata: 0xa26469706673582212205912bd48fe4f774ccfa7e5b8e3069113cc8d7c56819af725c0573fb27191d72964736f6c634300081a0033\n}\n",
				"bytecode": {
					"linkReferences": {},
					"object": "608060405234801561000f575f80fd5b5060405161188238038061188283398181016040528101906100319190610155565b815f806101000a81548173ffffffffffffffffffffffffffffffffffffffff021916908373ffffffffffffffffffffffffffffffffffffffff1602179055508060015f6101000a81548173ffffffffffffffffffffffffffffffffffffffff021916908373ffffffffffffffffffffffffffffffffffffffff1602179055503360045f6101000a81548173ffffffffffffffffffffffffffffffffffffffff021916908373ffffffffffffffffffffffffffffffffffffffff1602179055505050610193565b5f80fd5b5f73ffffffffffffffffffffffffffffffffffffffff82169050919050565b5f610124826100fb565b9050919050565b6101348161011a565b811461013e575f80fd5b50565b5f8151905061014f8161012b565b92915050565b5f806040838503121561016b5761016a6100f7565b5b5f61017885828601610141565b925050602061018985828601610141565b9150509250929050565b6116e2806101a05f395ff3fe608060405234801561000f575f80fd5b506004361061009c575f3560e01c80638da5cb5b116100645780638da5cb5b146101465780639cd441da146101645780639d7de6b314610180578063dc5fa6c51461019c578063e4f1f70a146101ba5761009c565b80630fc63d10146100a057806319e36f3b146100be57806341976e09146100dc5780635f64b55b1461010c5780638014a7aa1461012a575b5f80fd5b6100a86101d6565b6040516100b59190610ee7565b60405180910390f35b6100c66101f9565b6040516100d39190610f18565b60405180910390f35b6100f660048036038101906100f19190610f5f565b6101ff565b6040516101039190610f18565b60405180910390f35b61011461039e565b6040516101219190610ee7565b60405180910390f35b610144600480360381019061013f9190610fb4565b6103c3565b005b61014e610651565b60405161015b9190610ee7565b60405180910390f35b61017e60048036038101906101799190610fdf565b610676565b005b61019a60048036038101906101959190610fdf565b610941565b005b6101a4610c16565b6040516101b19190610f18565b60405180910390f35b6101d460048036038101906101cf9190610fb4565b610c1c565b005b5f8054906101000a900473ffffffffffffffffffffffffffffffffffffffff1681565b60035481565b5f805f9054906101000a900473ffffffffffffffffffffffffffffffffffffffff1673ffffffffffffffffffffffffffffffffffffffff168273ffffffffffffffffffffffffffffffffffffffff16036102ae575f60035411610297576040517f08c379a000000000000000000000000000000000000000000000000000000000815260040161028e90611077565b60405180910390fd5b6003546002546102a791906110ef565b9050610399565b60015f9054906101000a900473ffffffffffffffffffffffffffffffffffffffff1673ffffffffffffffffffffffffffffffffffffffff168273ffffffffffffffffffffffffffffffffffffffff160361035d575f60025411610346576040517f08c379a000000000000000000000000000000000000000000000000000000000815260040161033d90611169565b60405180910390fd5b60025460035461035691906110ef565b9050610398565b6040517f08c379a000000000000000000000000000000000000000000000000000000000815260040161038f906111d1565b60405180910390fd5b5b919050565b60015f9054906101000a900473ffffffffffffffffffffffffffffffffffffffff1681565b5f8111610405576040517f08c379a00000000000000000000000000000000000000000000000000000000081526004016103fc90611239565b60405180910390fd5b5f816003546104149190611257565b60025483610422919061128a565b61042c91906110ef565b90505f8111610470576040517f08c379a000000000000000000000000000000000000000000000000000000000815260040161046790611315565b60405180910390fd5b60015f9054906101000a900473ffffffffffffffffffffffffffffffffffffffff1673ffffffffffffffffffffffffffffffffffffffff166323b872dd3330856040518463ffffffff1660e01b81526004016104ce93929190611333565b6020604051808303815f875af11580156104ea573d5f803e3d5ffd5b505050506040513d601f19601f8201168201806040525081019061050e919061139d565b505f8054906101000a900473ffffffffffffffffffffffffffffffffffffffff1673ffffffffffffffffffffffffffffffffffffffff1663a9059cbb33836040518363ffffffff1660e01b81526004016105699291906113c8565b6020604051808303815f875af1158015610585573d5f803e3d5ffd5b505050506040513d601f19601f820116820180604052508101906105a9919061139d565b508160035f8282546105bb9190611257565b925050819055508060025f8282546105d391906113ef565b925050819055503373ffffffffffffffffffffffffffffffffffffffff167ffa2dda1cc1b86e41239702756b13effbc1a092b5c57e3ad320fbe4f3b13fe23560015f9054906101000a900473ffffffffffffffffffffffffffffffffffffffff16848460405161064593929190611422565b60405180910390a25050565b60045f9054906101000a900473ffffffffffffffffffffffffffffffffffffffff1681565b60045f9054906101000a900473ffffffffffffffffffffffffffffffffffffffff1673ffffffffffffffffffffffffffffffffffffffff163373ffffffffffffffffffffffffffffffffffffffff1614610705576040517f08c379a00000000000000000000000000000000000000000000000000000000081526004016106fc906114c7565b60405180910390fd5b5f8054906101000a900473ffffffffffffffffffffffffffffffffffffffff1673ffffffffffffffffffffffffffffffffffffffff166323b872dd3330856040518463ffffffff1660e01b815260040161076193929190611333565b6020604051808303815f875af115801561077d573d5f803e3d5ffd5b505050506040513d601f19601f820116820180604052508101906107a1919061139d565b6107e0576040517f08c379a00000000000000000000000000000000000000000000000000000000081526004016107d79061152f565b60405180910390fd5b60015f9054906101000a900473ffffffffffffffffffffffffffffffffffffffff1673ffffffffffffffffffffffffffffffffffffffff166323b872dd3330846040518463ffffffff1660e01b815260040161083e93929190611333565b6020604051808303815f875af115801561085a573d5f803e3d5ffd5b505050506040513d601f19601f8201168201806040525081019061087e919061139d565b6108bd576040517f08c379a00000000000000000000000000000000000000000000000000000000081526004016108b490611597565b60405180910390fd5b8160025f8282546108ce9190611257565b925050819055508060035f8282546108e69190611257565b925050819055503373ffffffffffffffffffffffffffffffffffffffff167fac1d76749e5447b7b16f5ab61447e1bd502f3bb4807af3b28e620d1700a6ee4583836040516109359291906115b5565b60405180910390a25050565b60045f9054906101000a900473ffffffffffffffffffffffffffffffffffffffff1673ffffffffffffffffffffffffffffffffffffffff163373ffffffffffffffffffffffffffffffffffffffff16146109d0576040517f08c379a00000000000000000000000000000000000000000000000000000000081526004016109c7906114c7565b60405180910390fd5b600254821115610a15576040517f08c379a0000000000000000000000000000000000000000000000000000000008152600401610a0c90611626565b60405180910390fd5b600354811115610a5a576040517f08c379a0000000000000000000000000000000000000000000000000000000008152600401610a519061168e565b60405180910390fd5b8160025f828254610a6b91906113ef565b925050819055508060035f828254610a8391906113ef565b925050819055505f8054906101000a900473ffffffffffffffffffffffffffffffffffffffff1673ffffffffffffffffffffffffffffffffffffffff1663a9059cbb33846040518363ffffffff1660e01b8152600401610ae49291906113c8565b6020604051808303815f875af1158015610b00573d5f803e3d5ffd5b505050506040513d601f19601f82011682018060405250810190610b24919061139d565b5060015f9054906101000a900473ffffffffffffffffffffffffffffffffffffffff1673ffffffffffffffffffffffffffffffffffffffff1663a9059cbb33836040518363ffffffff1660e01b8152600401610b819291906113c8565b6020604051808303815f875af1158015610b9d573d5f803e3d5ffd5b505050506040513d601f19601f82011682018060405250810190610bc1919061139d565b503373ffffffffffffffffffffffffffffffffffffffff167f96cd817c6329656790ef8fba7675405193677d39619571282f5e21f3a98cd0598383604051610c0a9291906115b5565b60405180910390a25050565b60025481565b5f8111610c5e576040517f08c379a0000000000000000000000000000000000000000000000000000000008152600401610c5590611239565b60405180910390fd5b5f81600254610c6d9190611257565b60035483610c7b919061128a565b610c8591906110ef565b90505f8111610cc9576040517f08c379a0000000000000000000000000000000000000000000000000000000008152600401610cc090611315565b60405180910390fd5b5f8054906101000a900473ffffffffffffffffffffffffffffffffffffffff1673ffffffffffffffffffffffffffffffffffffffff166323b872dd3330856040518463ffffffff1660e01b8152600401610d2593929190611333565b6020604051808303815f875af1158015610d41573d5f803e3d5ffd5b505050506040513d601f19601f82011682018060405250810190610d65919061139d565b5060015f9054906101000a900473ffffffffffffffffffffffffffffffffffffffff1673ffffffffffffffffffffffffffffffffffffffff1663a9059cbb33836040518363ffffffff1660e01b8152600401610dc29291906113c8565b6020604051808303815f875af1158015610dde573d5f803e3d5ffd5b505050506040513d601f19601f82011682018060405250810190610e02919061139d565b508160025f828254610e149190611257565b925050819055508060035f828254610e2c91906113ef565b925050819055503373ffffffffffffffffffffffffffffffffffffffff167ffa2dda1cc1b86e41239702756b13effbc1a092b5c57e3ad320fbe4f3b13fe2355f8054906101000a900473ffffffffffffffffffffffffffffffffffffffff168484604051610e9c93929190611422565b60405180910390a25050565b5f73ffffffffffffffffffffffffffffffffffffffff82169050919050565b5f610ed182610ea8565b9050919050565b610ee181610ec7565b82525050565b5f602082019050610efa5f830184610ed8565b92915050565b5f819050919050565b610f1281610f00565b82525050565b5f602082019050610f2b5f830184610f09565b92915050565b5f80fd5b610f3e81610ec7565b8114610f48575f80fd5b50565b5f81359050610f5981610f35565b92915050565b5f60208284031215610f7457610f73610f31565b5b5f610f8184828501610f4b565b91505092915050565b610f9381610f00565b8114610f9d575f80fd5b50565b5f81359050610fae81610f8a565b92915050565b5f60208284031215610fc957610fc8610f31565b5b5f610fd684828501610fa0565b91505092915050565b5f8060408385031215610ff557610ff4610f31565b5b5f61100285828601610fa0565b925050602061101385828601610fa0565b9150509250929050565b5f82825260208201905092915050565b7f4e6f206c697175696469747920666f7220546f6b656e420000000000000000005f82015250565b5f61106160178361101d565b915061106c8261102d565b602082019050919050565b5f6020820190508181035f83015261108e81611055565b9050919050565b7f4e487b71000000000000000000000000000000000000000000000000000000005f52601260045260245ffd5b7f4e487b71000000000000000000000000000000000000000000000000000000005f52601160045260245ffd5b5f6110f982610f00565b915061110483610f00565b92508261111457611113611095565b5b828204905092915050565b7f4e6f206c697175696469747920666f7220546f6b656e410000000000000000005f82015250565b5f61115360178361101d565b915061115e8261111f565b602082019050919050565b5f6020820190508181035f83015261118081611147565b9050919050565b7f546f6b656e206e6f7420737570706f72746564000000000000000000000000005f82015250565b5f6111bb60138361101d565b91506111c682611187565b602082019050919050565b5f6020820190508181035f8301526111e8816111af565b9050919050565b7f416d6f756e74206d7573742062652067726561746572207468616e20300000005f82015250565b5f611223601d8361101d565b915061122e826111ef565b602082019050919050565b5f6020820190508181035f83015261125081611217565b9050919050565b5f61126182610f00565b915061126c83610f00565b9250828201905080821115611284576112836110c2565b5b92915050565b5f61129482610f00565b915061129f83610f00565b92508282026112ad81610f00565b915082820484148315176112c4576112c36110c2565b5b5092915050565b7f496e73756666696369656e74206f757470757420616d6f756e740000000000005f82015250565b5f6112ff601a8361101d565b915061130a826112cb565b602082019050919050565b5f6020820190508181035f83015261132c816112f3565b9050919050565b5f6060820190506113465f830186610ed8565b6113536020830185610ed8565b6113606040830184610f09565b949350505050565b5f8115159050919050565b61137c81611368565b8114611386575f80fd5b50565b5f8151905061139781611373565b92915050565b5f602082840312156113b2576113b1610f31565b5b5f6113bf84828501611389565b91505092915050565b5f6040820190506113db5f830185610ed8565b6113e86020830184610f09565b9392505050565b5f6113f982610f00565b915061140483610f00565b925082820390508181111561141c5761141b6110c2565b5b92915050565b5f6060820190506114355f830186610ed8565b6114426020830185610f09565b61144f6040830184610f09565b949350505050565b7f4f6e6c79206f776e65722063616e2063616c6c20746869732066756e6374696f5f8201527f6e00000000000000000000000000000000000000000000000000000000000000602082015250565b5f6114b160218361101d565b91506114bc82611457565b604082019050919050565b5f6020820190508181035f8301526114de816114a5565b9050919050565b7f5472616e73666572206f6620546f6b656e41206661696c6564000000000000005f82015250565b5f61151960198361101d565b9150611524826114e5565b602082019050919050565b5f6020820190508181035f8301526115468161150d565b9050919050565b7f5472616e73666572206f6620546f6b656e42206661696c6564000000000000005f82015250565b5f61158160198361101d565b915061158c8261154d565b602082019050919050565b5f6020820190508181035f8301526115ae81611575565b9050919050565b5f6040820190506115c85f830185610f09565b6115d56020830184610f09565b9392505050565b7f496e73756666696369656e7420546f6b656e41207265736572766500000000005f82015250565b5f611610601b8361101d565b915061161b826115dc565b602082019050919050565b5f6020820190508181035f83015261163d81611604565b9050919050565b7f496e73756666696369656e7420546f6b656e42207265736572766500000000005f82015250565b5f611678601b8361101d565b915061168382611644565b602082019050919050565b5f6020820190508181035f8301526116a58161166c565b905091905056fea26469706673582212205912bd48fe4f774ccfa7e5b8e3069113cc8d7c56819af725c0573fb27191d72964736f6c634300081a0033",
					"opcodes": "PUSH1 0x80 PUSH1 0x40 MSTORE CALLVALUE DUP1 ISZERO PUSH2 0xF JUMPI PUSH0 DUP1 REVERT JUMPDEST POP PUSH1 0x40 MLOAD PUSH2 0x1882 CODESIZE SUB DUP1 PUSH2 0x1882 DUP4 CODECOPY DUP2 DUP2 ADD PUSH1 0x40 MSTORE DUP2 ADD SWAP1 PUSH2 0x31 SWAP2 SWAP1 PUSH2 0x155 JUMP JUMPDEST DUP2 PUSH0 DUP1 PUSH2 0x100 EXP DUP2 SLOAD DUP2 PUSH20 0xFFFFFFFFFFFFFFFFFFFFFFFFFFFFFFFFFFFFFFFF MUL NOT AND SWAP1 DUP4 PUSH20 0xFFFFFFFFFFFFFFFFFFFFFFFFFFFFFFFFFFFFFFFF AND MUL OR SWAP1 SSTORE POP DUP1 PUSH1 0x1 PUSH0 PUSH2 0x100 EXP DUP2 SLOAD DUP2 PUSH20 0xFFFFFFFFFFFFFFFFFFFFFFFFFFFFFFFFFFFFFFFF MUL NOT AND SWAP1 DUP4 PUSH20 0xFFFFFFFFFFFFFFFFFFFFFFFFFFFFFFFFFFFFFFFF AND MUL OR SWAP1 SSTORE POP CALLER PUSH1 0x4 PUSH0 PUSH2 0x100 EXP DUP2 SLOAD DUP2 PUSH20 0xFFFFFFFFFFFFFFFFFFFFFFFFFFFFFFFFFFFFFFFF MUL NOT AND SWAP1 DUP4 PUSH20 0xFFFFFFFFFFFFFFFFFFFFFFFFFFFFFFFFFFFFFFFF AND MUL OR SWAP1 SSTORE POP POP POP PUSH2 0x193 JUMP JUMPDEST PUSH0 DUP1 REVERT JUMPDEST PUSH0 PUSH20 0xFFFFFFFFFFFFFFFFFFFFFFFFFFFFFFFFFFFFFFFF DUP3 AND SWAP1 POP SWAP2 SWAP1 POP JUMP JUMPDEST PUSH0 PUSH2 0x124 DUP3 PUSH2 0xFB JUMP JUMPDEST SWAP1 POP SWAP2 SWAP1 POP JUMP JUMPDEST PUSH2 0x134 DUP2 PUSH2 0x11A JUMP JUMPDEST DUP2 EQ PUSH2 0x13E JUMPI PUSH0 DUP1 REVERT JUMPDEST POP JUMP JUMPDEST PUSH0 DUP2 MLOAD SWAP1 POP PUSH2 0x14F DUP2 PUSH2 0x12B JUMP JUMPDEST SWAP3 SWAP2 POP POP JUMP JUMPDEST PUSH0 DUP1 PUSH1 0x40 DUP4 DUP6 SUB SLT ISZERO PUSH2 0x16B JUMPI PUSH2 0x16A PUSH2 0xF7 JUMP JUMPDEST JUMPDEST PUSH0 PUSH2 0x178 DUP6 DUP3 DUP7 ADD PUSH2 0x141 JUMP JUMPDEST SWAP3 POP POP PUSH1 0x20 PUSH2 0x189 DUP6 DUP3 DUP7 ADD PUSH2 0x141 JUMP JUMPDEST SWAP2 POP POP SWAP3 POP SWAP3 SWAP1 POP JUMP JUMPDEST PUSH2 0x16E2 DUP1 PUSH2 0x1A0 PUSH0 CODECOPY PUSH0 RETURN INVALID PUSH1 0x80 PUSH1 0x40 MSTORE CALLVALUE DUP1 ISZERO PUSH2 0xF JUMPI PUSH0 DUP1 REVERT JUMPDEST POP PUSH1 0x4 CALLDATASIZE LT PUSH2 0x9C JUMPI PUSH0 CALLDATALOAD PUSH1 0xE0 SHR DUP1 PUSH4 0x8DA5CB5B GT PUSH2 0x64 JUMPI DUP1 PUSH4 0x8DA5CB5B EQ PUSH2 0x146 JUMPI DUP1 PUSH4 0x9CD441DA EQ PUSH2 0x164 JUMPI DUP1 PUSH4 0x9D7DE6B3 EQ PUSH2 0x180 JUMPI DUP1 PUSH4 0xDC5FA6C5 EQ PUSH2 0x19C JUMPI DUP1 PUSH4 0xE4F1F70A EQ PUSH2 0x1BA JUMPI PUSH2 0x9C JUMP JUMPDEST DUP1 PUSH4 0xFC63D10 EQ PUSH2 0xA0 JUMPI DUP1 PUSH4 0x19E36F3B EQ PUSH2 0xBE JUMPI DUP1 PUSH4 0x41976E09 EQ PUSH2 0xDC JUMPI DUP1 PUSH4 0x5F64B55B EQ PUSH2 0x10C JUMPI DUP1 PUSH4 0x8014A7AA EQ PUSH2 0x12A JUMPI JUMPDEST PUSH0 DUP1 REVERT JUMPDEST PUSH2 0xA8 PUSH2 0x1D6 JUMP JUMPDEST PUSH1 0x40 MLOAD PUSH2 0xB5 SWAP2 SWAP1 PUSH2 0xEE7 JUMP JUMPDEST PUSH1 0x40 MLOAD DUP1 SWAP2 SUB SWAP1 RETURN JUMPDEST PUSH2 0xC6 PUSH2 0x1F9 JUMP JUMPDEST PUSH1 0x40 MLOAD PUSH2 0xD3 SWAP2 SWAP1 PUSH2 0xF18 JUMP JUMPDEST PUSH1 0x40 MLOAD DUP1 SWAP2 SUB SWAP1 RETURN JUMPDEST PUSH2 0xF6 PUSH1 0x4 DUP1 CALLDATASIZE SUB DUP2 ADD SWAP1 PUSH2 0xF1 SWAP2 SWAP1 PUSH2 0xF5F JUMP JUMPDEST PUSH2 0x1FF JUMP JUMPDEST PUSH1 0x40 MLOAD PUSH2 0x103 SWAP2 SWAP1 PUSH2 0xF18 JUMP JUMPDEST PUSH1 0x40 MLOAD DUP1 SWAP2 SUB SWAP1 RETURN JUMPDEST PUSH2 0x114 PUSH2 0x39E JUMP JUMPDEST PUSH1 0x40 MLOAD PUSH2 0x121 SWAP2 SWAP1 PUSH2 0xEE7 JUMP JUMPDEST PUSH1 0x40 MLOAD DUP1 SWAP2 SUB SWAP1 RETURN JUMPDEST PUSH2 0x144 PUSH1 0x4 DUP1 CALLDATASIZE SUB DUP2 ADD SWAP1 PUSH2 0x13F SWAP2 SWAP1 PUSH2 0xFB4 JUMP JUMPDEST PUSH2 0x3C3 JUMP JUMPDEST STOP JUMPDEST PUSH2 0x14E PUSH2 0x651 JUMP JUMPDEST PUSH1 0x40 MLOAD PUSH2 0x15B SWAP2 SWAP1 PUSH2 0xEE7 JUMP JUMPDEST PUSH1 0x40 MLOAD DUP1 SWAP2 SUB SWAP1 RETURN JUMPDEST PUSH2 0x17E PUSH1 0x4 DUP1 CALLDATASIZE SUB DUP2 ADD SWAP1 PUSH2 0x179 SWAP2 SWAP1 PUSH2 0xFDF JUMP JUMPDEST PUSH2 0x676 JUMP JUMPDEST STOP JUMPDEST PUSH2 0x19A PUSH1 0x4 DUP1 CALLDATASIZE SUB DUP2 ADD SWAP1 PUSH2 0x195 SWAP2 SWAP1 PUSH2 0xFDF JUMP JUMPDEST PUSH2 0x941 JUMP JUMPDEST STOP JUMPDEST PUSH2 0x1A4 PUSH2 0xC16 JUMP JUMPDEST PUSH1 0x40 MLOAD PUSH2 0x1B1 SWAP2 SWAP1 PUSH2 0xF18 JUMP JUMPDEST PUSH1 0x40 MLOAD DUP1 SWAP2 SUB SWAP1 RETURN JUMPDEST PUSH2 0x1D4 PUSH1 0x4 DUP1 CALLDATASIZE SUB DUP2 ADD SWAP1 PUSH2 0x1CF SWAP2 SWAP1 PUSH2 0xFB4 JUMP JUMPDEST PUSH2 0xC1C JUMP JUMPDEST STOP JUMPDEST PUSH0 DUP1 SLOAD SWAP1 PUSH2 0x100 EXP SWAP1 DIV PUSH20 0xFFFFFFFFFFFFFFFFFFFFFFFFFFFFFFFFFFFFFFFF AND DUP2 JUMP JUMPDEST PUSH1 0x3 SLOAD DUP2 JUMP JUMPDEST PUSH0 DUP1 PUSH0 SWAP1 SLOAD SWAP1 PUSH2 0x100 EXP SWAP1 DIV PUSH20 0xFFFFFFFFFFFFFFFFFFFFFFFFFFFFFFFFFFFFFFFF AND PUSH20 0xFFFFFFFFFFFFFFFFFFFFFFFFFFFFFFFFFFFFFFFF AND DUP3 PUSH20 0xFFFFFFFFFFFFFFFFFFFFFFFFFFFFFFFFFFFFFFFF AND SUB PUSH2 0x2AE JUMPI PUSH0 PUSH1 0x3 SLOAD GT PUSH2 0x297 JUMPI PUSH1 0x40 MLOAD PUSH32 0x8C379A000000000000000000000000000000000000000000000000000000000 DUP2 MSTORE PUSH1 0x4 ADD PUSH2 0x28E SWAP1 PUSH2 0x1077 JUMP JUMPDEST PUSH1 0x40 MLOAD DUP1 SWAP2 SUB SWAP1 REVERT JUMPDEST PUSH1 0x3 SLOAD PUSH1 0x2 SLOAD PUSH2 0x2A7 SWAP2 SWAP1 PUSH2 0x10EF JUMP JUMPDEST SWAP1 POP PUSH2 0x399 JUMP JUMPDEST PUSH1 0x1 PUSH0 SWAP1 SLOAD SWAP1 PUSH2 0x100 EXP SWAP1 DIV PUSH20 0xFFFFFFFFFFFFFFFFFFFFFFFFFFFFFFFFFFFFFFFF AND PUSH20 0xFFFFFFFFFFFFFFFFFFFFFFFFFFFFFFFFFFFFFFFF AND DUP3 PUSH20 0xFFFFFFFFFFFFFFFFFFFFFFFFFFFFFFFFFFFFFFFF AND SUB PUSH2 0x35D JUMPI PUSH0 PUSH1 0x2 SLOAD GT PUSH2 0x346 JUMPI PUSH1 0x40 MLOAD PUSH32 0x8C379A000000000000000000000000000000000000000000000000000000000 DUP2 MSTORE PUSH1 0x4 ADD PUSH2 0x33D SWAP1 PUSH2 0x1169 JUMP JUMPDEST PUSH1 0x40 MLOAD DUP1 SWAP2 SUB SWAP1 REVERT JUMPDEST PUSH1 0x2 SLOAD PUSH1 0x3 SLOAD PUSH2 0x356 SWAP2 SWAP1 PUSH2 0x10EF JUMP JUMPDEST SWAP1 POP PUSH2 0x398 JUMP JUMPDEST PUSH1 0x40 MLOAD PUSH32 0x8C379A000000000000000000000000000000000000000000000000000000000 DUP2 MSTORE PUSH1 0x4 ADD PUSH2 0x38F SWAP1 PUSH2 0x11D1 JUMP JUMPDEST PUSH1 0x40 MLOAD DUP1 SWAP2 SUB SWAP1 REVERT JUMPDEST JUMPDEST SWAP2 SWAP1 POP JUMP JUMPDEST PUSH1 0x1 PUSH0 SWAP1 SLOAD SWAP1 PUSH2 0x100 EXP SWAP1 DIV PUSH20 0xFFFFFFFFFFFFFFFFFFFFFFFFFFFFFFFFFFFFFFFF AND DUP2 JUMP JUMPDEST PUSH0 DUP2 GT PUSH2 0x405 JUMPI PUSH1 0x40 MLOAD PUSH32 0x8C379A000000000000000000000000000000000000000000000000000000000 DUP2 MSTORE PUSH1 0x4 ADD PUSH2 0x3FC SWAP1 PUSH2 0x1239 JUMP JUMPDEST PUSH1 0x40 MLOAD DUP1 SWAP2 SUB SWAP1 REVERT JUMPDEST PUSH0 DUP2 PUSH1 0x3 SLOAD PUSH2 0x414 SWAP2 SWAP1 PUSH2 0x1257 JUMP JUMPDEST PUSH1 0x2 SLOAD DUP4 PUSH2 0x422 SWAP2 SWAP1 PUSH2 0x128A JUMP JUMPDEST PUSH2 0x42C SWAP2 SWAP1 PUSH2 0x10EF JUMP JUMPDEST SWAP1 POP PUSH0 DUP2 GT PUSH2 0x470 JUMPI PUSH1 0x40 MLOAD PUSH32 0x8C379A000000000000000000000000000000000000000000000000000000000 DUP2 MSTORE PUSH1 0x4 ADD PUSH2 0x467 SWAP1 PUSH2 0x1315 JUMP JUMPDEST PUSH1 0x40 MLOAD DUP1 SWAP2 SUB SWAP1 REVERT JUMPDEST PUSH1 0x1 PUSH0 SWAP1 SLOAD SWAP1 PUSH2 0x100 EXP SWAP1 DIV PUSH20 0xFFFFFFFFFFFFFFFFFFFFFFFFFFFFFFFFFFFFFFFF AND PUSH20 0xFFFFFFFFFFFFFFFFFFFFFFFFFFFFFFFFFFFFFFFF AND PUSH4 0x23B872DD CALLER ADDRESS DUP6 PUSH1 0x40 MLOAD DUP5 PUSH4 0xFFFFFFFF AND PUSH1 0xE0 SHL DUP2 MSTORE PUSH1 0x4 ADD PUSH2 0x4CE SWAP4 SWAP3 SWAP2 SWAP1 PUSH2 0x1333 JUMP JUMPDEST PUSH1 0x20 PUSH1 0x40 MLOAD DUP1 DUP4 SUB DUP2 PUSH0 DUP8 GAS CALL ISZERO DUP1 ISZERO PUSH2 0x4EA JUMPI RETURNDATASIZE PUSH0 DUP1 RETURNDATACOPY RETURNDATASIZE PUSH0 REVERT JUMPDEST POP POP POP POP PUSH1 0x40 MLOAD RETURNDATASIZE PUSH1 0x1F NOT PUSH1 0x1F DUP3 ADD AND DUP3 ADD DUP1 PUSH1 0x40 MSTORE POP DUP2 ADD SWAP1 PUSH2 0x50E SWAP2 SWAP1 PUSH2 0x139D JUMP JUMPDEST POP PUSH0 DUP1 SLOAD SWAP1 PUSH2 0x100 EXP SWAP1 DIV PUSH20 0xFFFFFFFFFFFFFFFFFFFFFFFFFFFFFFFFFFFFFFFF AND PUSH20 0xFFFFFFFFFFFFFFFFFFFFFFFFFFFFFFFFFFFFFFFF AND PUSH4 0xA9059CBB CALLER DUP4 PUSH1 0x40 MLOAD DUP4 PUSH4 0xFFFFFFFF AND PUSH1 0xE0 SHL DUP2 MSTORE PUSH1 0x4 ADD PUSH2 0x569 SWAP3 SWAP2 SWAP1 PUSH2 0x13C8 JUMP JUMPDEST PUSH1 0x20 PUSH1 0x40 MLOAD DUP1 DUP4 SUB DUP2 PUSH0 DUP8 GAS CALL ISZERO DUP1 ISZERO PUSH2 0x585 JUMPI RETURNDATASIZE PUSH0 DUP1 RETURNDATACOPY RETURNDATASIZE PUSH0 REVERT JUMPDEST POP POP POP POP PUSH1 0x40 MLOAD RETURNDATASIZE PUSH1 0x1F NOT PUSH1 0x1F DUP3 ADD AND DUP3 ADD DUP1 PUSH1 0x40 MSTORE POP DUP2 ADD SWAP1 PUSH2 0x5A9 SWAP2 SWAP1 PUSH2 0x139D JUMP JUMPDEST POP DUP2 PUSH1 0x3 PUSH0 DUP3 DUP3 SLOAD PUSH2 0x5BB SWAP2 SWAP1 PUSH2 0x1257 JUMP JUMPDEST SWAP3 POP POP DUP2 SWAP1 SSTORE POP DUP1 PUSH1 0x2 PUSH0 DUP3 DUP3 SLOAD PUSH2 0x5D3 SWAP2 SWAP1 PUSH2 0x13EF JUMP JUMPDEST SWAP3 POP POP DUP2 SWAP1 SSTORE POP CALLER PUSH20 0xFFFFFFFFFFFFFFFFFFFFFFFFFFFFFFFFFFFFFFFF AND PUSH32 0xFA2DDA1CC1B86E41239702756B13EFFBC1A092B5C57E3AD320FBE4F3B13FE235 PUSH1 0x1 PUSH0 SWAP1 SLOAD SWAP1 PUSH2 0x100 EXP SWAP1 DIV PUSH20 0xFFFFFFFFFFFFFFFFFFFFFFFFFFFFFFFFFFFFFFFF AND DUP5 DUP5 PUSH1 0x40 MLOAD PUSH2 0x645 SWAP4 SWAP3 SWAP2 SWAP1 PUSH2 0x1422 JUMP JUMPDEST PUSH1 0x40 MLOAD DUP1 SWAP2 SUB SWAP1 LOG2 POP POP JUMP JUMPDEST PUSH1 0x4 PUSH0 SWAP1 SLOAD SWAP1 PUSH2 0x100 EXP SWAP1 DIV PUSH20 0xFFFFFFFFFFFFFFFFFFFFFFFFFFFFFFFFFFFFFFFF AND DUP2 JUMP JUMPDEST PUSH1 0x4 PUSH0 SWAP1 SLOAD SWAP1 PUSH2 0x100 EXP SWAP1 DIV PUSH20 0xFFFFFFFFFFFFFFFFFFFFFFFFFFFFFFFFFFFFFFFF AND PUSH20 0xFFFFFFFFFFFFFFFFFFFFFFFFFFFFFFFFFFFFFFFF AND CALLER PUSH20 0xFFFFFFFFFFFFFFFFFFFFFFFFFFFFFFFFFFFFFFFF AND EQ PUSH2 0x705 JUMPI PUSH1 0x40 MLOAD PUSH32 0x8C379A000000000000000000000000000000000000000000000000000000000 DUP2 MSTORE PUSH1 0x4 ADD PUSH2 0x6FC SWAP1 PUSH2 0x14C7 JUMP JUMPDEST PUSH1 0x40 MLOAD DUP1 SWAP2 SUB SWAP1 REVERT JUMPDEST PUSH0 DUP1 SLOAD SWAP1 PUSH2 0x100 EXP SWAP1 DIV PUSH20 0xFFFFFFFFFFFFFFFFFFFFFFFFFFFFFFFFFFFFFFFF AND PUSH20 0xFFFFFFFFFFFFFFFFFFFFFFFFFFFFFFFFFFFFFFFF AND PUSH4 0x23B872DD CALLER ADDRESS DUP6 PUSH1 0x40 MLOAD DUP5 PUSH4 0xFFFFFFFF AND PUSH1 0xE0 SHL DUP2 MSTORE PUSH1 0x4 ADD PUSH2 0x761 SWAP4 SWAP3 SWAP2 SWAP1 PUSH2 0x1333 JUMP JUMPDEST PUSH1 0x20 PUSH1 0x40 MLOAD DUP1 DUP4 SUB DUP2 PUSH0 DUP8 GAS CALL ISZERO DUP1 ISZERO PUSH2 0x77D JUMPI RETURNDATASIZE PUSH0 DUP1 RETURNDATACOPY RETURNDATASIZE PUSH0 REVERT JUMPDEST POP POP POP POP PUSH1 0x40 MLOAD RETURNDATASIZE PUSH1 0x1F NOT PUSH1 0x1F DUP3 ADD AND DUP3 ADD DUP1 PUSH1 0x40 MSTORE POP DUP2 ADD SWAP1 PUSH2 0x7A1 SWAP2 SWAP1 PUSH2 0x139D JUMP JUMPDEST PUSH2 0x7E0 JUMPI PUSH1 0x40 MLOAD PUSH32 0x8C379A000000000000000000000000000000000000000000000000000000000 DUP2 MSTORE PUSH1 0x4 ADD PUSH2 0x7D7 SWAP1 PUSH2 0x152F JUMP JUMPDEST PUSH1 0x40 MLOAD DUP1 SWAP2 SUB SWAP1 REVERT JUMPDEST PUSH1 0x1 PUSH0 SWAP1 SLOAD SWAP1 PUSH2 0x100 EXP SWAP1 DIV PUSH20 0xFFFFFFFFFFFFFFFFFFFFFFFFFFFFFFFFFFFFFFFF AND PUSH20 0xFFFFFFFFFFFFFFFFFFFFFFFFFFFFFFFFFFFFFFFF AND PUSH4 0x23B872DD CALLER ADDRESS DUP5 PUSH1 0x40 MLOAD DUP5 PUSH4 0xFFFFFFFF AND PUSH1 0xE0 SHL DUP2 MSTORE PUSH1 0x4 ADD PUSH2 0x83E SWAP4 SWAP3 SWAP2 SWAP1 PUSH2 0x1333 JUMP JUMPDEST PUSH1 0x20 PUSH1 0x40 MLOAD DUP1 DUP4 SUB DUP2 PUSH0 DUP8 GAS CALL ISZERO DUP1 ISZERO PUSH2 0x85A JUMPI RETURNDATASIZE PUSH0 DUP1 RETURNDATACOPY RETURNDATASIZE PUSH0 REVERT JUMPDEST POP POP POP POP PUSH1 0x40 MLOAD RETURNDATASIZE PUSH1 0x1F NOT PUSH1 0x1F DUP3 ADD AND DUP3 ADD DUP1 PUSH1 0x40 MSTORE POP DUP2 ADD SWAP1 PUSH2 0x87E SWAP2 SWAP1 PUSH2 0x139D JUMP JUMPDEST PUSH2 0x8BD JUMPI PUSH1 0x40 MLOAD PUSH32 0x8C379A000000000000000000000000000000000000000000000000000000000 DUP2 MSTORE PUSH1 0x4 ADD PUSH2 0x8B4 SWAP1 PUSH2 0x1597 JUMP JUMPDEST PUSH1 0x40 MLOAD DUP1 SWAP2 SUB SWAP1 REVERT JUMPDEST DUP2 PUSH1 0x2 PUSH0 DUP3 DUP3 SLOAD PUSH2 0x8CE SWAP2 SWAP1 PUSH2 0x1257 JUMP JUMPDEST SWAP3 POP POP DUP2 SWAP1 SSTORE POP DUP1 PUSH1 0x3 PUSH0 DUP3 DUP3 SLOAD PUSH2 0x8E6 SWAP2 SWAP1 PUSH2 0x1257 JUMP JUMPDEST SWAP3 POP POP DUP2 SWAP1 SSTORE POP CALLER PUSH20 0xFFFFFFFFFFFFFFFFFFFFFFFFFFFFFFFFFFFFFFFF AND PUSH32 0xAC1D76749E5447B7B16F5AB61447E1BD502F3BB4807AF3B28E620D1700A6EE45 DUP4 DUP4 PUSH1 0x40 MLOAD PUSH2 0x935 SWAP3 SWAP2 SWAP1 PUSH2 0x15B5 JUMP JUMPDEST PUSH1 0x40 MLOAD DUP1 SWAP2 SUB SWAP1 LOG2 POP POP JUMP JUMPDEST PUSH1 0x4 PUSH0 SWAP1 SLOAD SWAP1 PUSH2 0x100 EXP SWAP1 DIV PUSH20 0xFFFFFFFFFFFFFFFFFFFFFFFFFFFFFFFFFFFFFFFF AND PUSH20 0xFFFFFFFFFFFFFFFFFFFFFFFFFFFFFFFFFFFFFFFF AND CALLER PUSH20 0xFFFFFFFFFFFFFFFFFFFFFFFFFFFFFFFFFFFFFFFF AND EQ PUSH2 0x9D0 JUMPI PUSH1 0x40 MLOAD PUSH32 0x8C379A000000000000000000000000000000000000000000000000000000000 DUP2 MSTORE PUSH1 0x4 ADD PUSH2 0x9C7 SWAP1 PUSH2 0x14C7 JUMP JUMPDEST PUSH1 0x40 MLOAD DUP1 SWAP2 SUB SWAP1 REVERT JUMPDEST PUSH1 0x2 SLOAD DUP3 GT ISZERO PUSH2 0xA15 JUMPI PUSH1 0x40 MLOAD PUSH32 0x8C379A000000000000000000000000000000000000000000000000000000000 DUP2 MSTORE PUSH1 0x4 ADD PUSH2 0xA0C SWAP1 PUSH2 0x1626 JUMP JUMPDEST PUSH1 0x40 MLOAD DUP1 SWAP2 SUB SWAP1 REVERT JUMPDEST PUSH1 0x3 SLOAD DUP2 GT ISZERO PUSH2 0xA5A JUMPI PUSH1 0x40 MLOAD PUSH32 0x8C379A000000000000000000000000000000000000000000000000000000000 DUP2 MSTORE PUSH1 0x4 ADD PUSH2 0xA51 SWAP1 PUSH2 0x168E JUMP JUMPDEST PUSH1 0x40 MLOAD DUP1 SWAP2 SUB SWAP1 REVERT JUMPDEST DUP2 PUSH1 0x2 PUSH0 DUP3 DUP3 SLOAD PUSH2 0xA6B SWAP2 SWAP1 PUSH2 0x13EF JUMP JUMPDEST SWAP3 POP POP DUP2 SWAP1 SSTORE POP DUP1 PUSH1 0x3 PUSH0 DUP3 DUP3 SLOAD PUSH2 0xA83 SWAP2 SWAP1 PUSH2 0x13EF JUMP JUMPDEST SWAP3 POP POP DUP2 SWAP1 SSTORE POP PUSH0 DUP1 SLOAD SWAP1 PUSH2 0x100 EXP SWAP1 DIV PUSH20 0xFFFFFFFFFFFFFFFFFFFFFFFFFFFFFFFFFFFFFFFF AND PUSH20 0xFFFFFFFFFFFFFFFFFFFFFFFFFFFFFFFFFFFFFFFF AND PUSH4 0xA9059CBB CALLER DUP5 PUSH1 0x40 MLOAD DUP4 PUSH4 0xFFFFFFFF AND PUSH1 0xE0 SHL DUP2 MSTORE PUSH1 0x4 ADD PUSH2 0xAE4 SWAP3 SWAP2 SWAP1 PUSH2 0x13C8 JUMP JUMPDEST PUSH1 0x20 PUSH1 0x40 MLOAD DUP1 DUP4 SUB DUP2 PUSH0 DUP8 GAS CALL ISZERO DUP1 ISZERO PUSH2 0xB00 JUMPI RETURNDATASIZE PUSH0 DUP1 RETURNDATACOPY RETURNDATASIZE PUSH0 REVERT JUMPDEST POP POP POP POP PUSH1 0x40 MLOAD RETURNDATASIZE PUSH1 0x1F NOT PUSH1 0x1F DUP3 ADD AND DUP3 ADD DUP1 PUSH1 0x40 MSTORE POP DUP2 ADD SWAP1 PUSH2 0xB24 SWAP2 SWAP1 PUSH2 0x139D JUMP JUMPDEST POP PUSH1 0x1 PUSH0 SWAP1 SLOAD SWAP1 PUSH2 0x100 EXP SWAP1 DIV PUSH20 0xFFFFFFFFFFFFFFFFFFFFFFFFFFFFFFFFFFFFFFFF AND PUSH20 0xFFFFFFFFFFFFFFFFFFFFFFFFFFFFFFFFFFFFFFFF AND PUSH4 0xA9059CBB CALLER DUP4 PUSH1 0x40 MLOAD DUP4 PUSH4 0xFFFFFFFF AND PUSH1 0xE0 SHL DUP2 MSTORE PUSH1 0x4 ADD PUSH2 0xB81 SWAP3 SWAP2 SWAP1 PUSH2 0x13C8 JUMP JUMPDEST PUSH1 0x20 PUSH1 0x40 MLOAD DUP1 DUP4 SUB DUP2 PUSH0 DUP8 GAS CALL ISZERO DUP1 ISZERO PUSH2 0xB9D JUMPI RETURNDATASIZE PUSH0 DUP1 RETURNDATACOPY RETURNDATASIZE PUSH0 REVERT JUMPDEST POP POP POP POP PUSH1 0x40 MLOAD RETURNDATASIZE PUSH1 0x1F NOT PUSH1 0x1F DUP3 ADD AND DUP3 ADD DUP1 PUSH1 0x40 MSTORE POP DUP2 ADD SWAP1 PUSH2 0xBC1 SWAP2 SWAP1 PUSH2 0x139D JUMP JUMPDEST POP CALLER PUSH20 0xFFFFFFFFFFFFFFFFFFFFFFFFFFFFFFFFFFFFFFFF AND PUSH32 0x96CD817C6329656790EF8FBA7675405193677D39619571282F5E21F3A98CD059 DUP4 DUP4 PUSH1 0x40 MLOAD PUSH2 0xC0A SWAP3 SWAP2 SWAP1 PUSH2 0x15B5 JUMP JUMPDEST PUSH1 0x40 MLOAD DUP1 SWAP2 SUB SWAP1 LOG2 POP POP JUMP JUMPDEST PUSH1 0x2 SLOAD DUP2 JUMP JUMPDEST PUSH0 DUP2 GT PUSH2 0xC5E JUMPI PUSH1 0x40 MLOAD PUSH32 0x8C379A000000000000000000000000000000000000000000000000000000000 DUP2 MSTORE PUSH1 0x4 ADD PUSH2 0xC55 SWAP1 PUSH2 0x1239 JUMP JUMPDEST PUSH1 0x40 MLOAD DUP1 SWAP2 SUB SWAP1 REVERT JUMPDEST PUSH0 DUP2 PUSH1 0x2 SLOAD PUSH2 0xC6D SWAP2 SWAP1 PUSH2 0x1257 JUMP JUMPDEST PUSH1 0x3 SLOAD DUP4 PUSH2 0xC7B SWAP2 SWAP1 PUSH2 0x128A JUMP JUMPDEST PUSH2 0xC85 SWAP2 SWAP1 PUSH2 0x10EF JUMP JUMPDEST SWAP1 POP PUSH0 DUP2 GT PUSH2 0xCC9 JUMPI PUSH1 0x40 MLOAD PUSH32 0x8C379A000000000000000000000000000000000000000000000000000000000 DUP2 MSTORE PUSH1 0x4 ADD PUSH2 0xCC0 SWAP1 PUSH2 0x1315 JUMP JUMPDEST PUSH1 0x40 MLOAD DUP1 SWAP2 SUB SWAP1 REVERT JUMPDEST PUSH0 DUP1 SLOAD SWAP1 PUSH2 0x100 EXP SWAP1 DIV PUSH20 0xFFFFFFFFFFFFFFFFFFFFFFFFFFFFFFFFFFFFFFFF AND PUSH20 0xFFFFFFFFFFFFFFFFFFFFFFFFFFFFFFFFFFFFFFFF AND PUSH4 0x23B872DD CALLER ADDRESS DUP6 PUSH1 0x40 MLOAD DUP5 PUSH4 0xFFFFFFFF AND PUSH1 0xE0 SHL DUP2 MSTORE PUSH1 0x4 ADD PUSH2 0xD25 SWAP4 SWAP3 SWAP2 SWAP1 PUSH2 0x1333 JUMP JUMPDEST PUSH1 0x20 PUSH1 0x40 MLOAD DUP1 DUP4 SUB DUP2 PUSH0 DUP8 GAS CALL ISZERO DUP1 ISZERO PUSH2 0xD41 JUMPI RETURNDATASIZE PUSH0 DUP1 RETURNDATACOPY RETURNDATASIZE PUSH0 REVERT JUMPDEST POP POP POP POP PUSH1 0x40 MLOAD RETURNDATASIZE PUSH1 0x1F NOT PUSH1 0x1F DUP3 ADD AND DUP3 ADD DUP1 PUSH1 0x40 MSTORE POP DUP2 ADD SWAP1 PUSH2 0xD65 SWAP2 SWAP1 PUSH2 0x139D JUMP JUMPDEST POP PUSH1 0x1 PUSH0 SWAP1 SLOAD SWAP1 PUSH2 0x100 EXP SWAP1 DIV PUSH20 0xFFFFFFFFFFFFFFFFFFFFFFFFFFFFFFFFFFFFFFFF AND PUSH20 0xFFFFFFFFFFFFFFFFFFFFFFFFFFFFFFFFFFFFFFFF AND PUSH4 0xA9059CBB CALLER DUP4 PUSH1 0x40 MLOAD DUP4 PUSH4 0xFFFFFFFF AND PUSH1 0xE0 SHL DUP2 MSTORE PUSH1 0x4 ADD PUSH2 0xDC2 SWAP3 SWAP2 SWAP1 PUSH2 0x13C8 JUMP JUMPDEST PUSH1 0x20 PUSH1 0x40 MLOAD DUP1 DUP4 SUB DUP2 PUSH0 DUP8 GAS CALL ISZERO DUP1 ISZERO PUSH2 0xDDE JUMPI RETURNDATASIZE PUSH0 DUP1 RETURNDATACOPY RETURNDATASIZE PUSH0 REVERT JUMPDEST POP POP POP POP PUSH1 0x40 MLOAD RETURNDATASIZE PUSH1 0x1F NOT PUSH1 0x1F DUP3 ADD AND DUP3 ADD DUP1 PUSH1 0x40 MSTORE POP DUP2 ADD SWAP1 PUSH2 0xE02 SWAP2 SWAP1 PUSH2 0x139D JUMP JUMPDEST POP DUP2 PUSH1 0x2 PUSH0 DUP3 DUP3 SLOAD PUSH2 0xE14 SWAP2 SWAP1 PUSH2 0x1257 JUMP JUMPDEST SWAP3 POP POP DUP2 SWAP1 SSTORE POP DUP1 PUSH1 0x3 PUSH0 DUP3 DUP3 SLOAD PUSH2 0xE2C SWAP2 SWAP1 PUSH2 0x13EF JUMP JUMPDEST SWAP3 POP POP DUP2 SWAP1 SSTORE POP CALLER PUSH20 0xFFFFFFFFFFFFFFFFFFFFFFFFFFFFFFFFFFFFFFFF AND PUSH32 0xFA2DDA1CC1B86E41239702756B13EFFBC1A092B5C57E3AD320FBE4F3B13FE235 PUSH0 DUP1 SLOAD SWAP1 PUSH2 0x100 EXP SWAP1 DIV PUSH20 0xFFFFFFFFFFFFFFFFFFFFFFFFFFFFFFFFFFFFFFFF AND DUP5 DUP5 PUSH1 0x40 MLOAD PUSH2 0xE9C SWAP4 SWAP3 SWAP2 SWAP1 PUSH2 0x1422 JUMP JUMPDEST PUSH1 0x40 MLOAD DUP1 SWAP2 SUB SWAP1 LOG2 POP POP JUMP JUMPDEST PUSH0 PUSH20 0xFFFFFFFFFFFFFFFFFFFFFFFFFFFFFFFFFFFFFFFF DUP3 AND SWAP1 POP SWAP2 SWAP1 POP JUMP JUMPDEST PUSH0 PUSH2 0xED1 DUP3 PUSH2 0xEA8 JUMP JUMPDEST SWAP1 POP SWAP2 SWAP1 POP JUMP JUMPDEST PUSH2 0xEE1 DUP2 PUSH2 0xEC7 JUMP JUMPDEST DUP3 MSTORE POP POP JUMP JUMPDEST PUSH0 PUSH1 0x20 DUP3 ADD SWAP1 POP PUSH2 0xEFA PUSH0 DUP4 ADD DUP5 PUSH2 0xED8 JUMP JUMPDEST SWAP3 SWAP2 POP POP JUMP JUMPDEST PUSH0 DUP2 SWAP1 POP SWAP2 SWAP1 POP JUMP JUMPDEST PUSH2 0xF12 DUP2 PUSH2 0xF00 JUMP JUMPDEST DUP3 MSTORE POP POP JUMP JUMPDEST PUSH0 PUSH1 0x20 DUP3 ADD SWAP1 POP PUSH2 0xF2B PUSH0 DUP4 ADD DUP5 PUSH2 0xF09 JUMP JUMPDEST SWAP3 SWAP2 POP POP JUMP JUMPDEST PUSH0 DUP1 REVERT JUMPDEST PUSH2 0xF3E DUP2 PUSH2 0xEC7 JUMP JUMPDEST DUP2 EQ PUSH2 0xF48 JUMPI PUSH0 DUP1 REVERT JUMPDEST POP JUMP JUMPDEST PUSH0 DUP2 CALLDATALOAD SWAP1 POP PUSH2 0xF59 DUP2 PUSH2 0xF35 JUMP JUMPDEST SWAP3 SWAP2 POP POP JUMP JUMPDEST PUSH0 PUSH1 0x20 DUP3 DUP5 SUB SLT ISZERO PUSH2 0xF74 JUMPI PUSH2 0xF73 PUSH2 0xF31 JUMP JUMPDEST JUMPDEST PUSH0 PUSH2 0xF81 DUP5 DUP3 DUP6 ADD PUSH2 0xF4B JUMP JUMPDEST SWAP2 POP POP SWAP3 SWAP2 POP POP JUMP JUMPDEST PUSH2 0xF93 DUP2 PUSH2 0xF00 JUMP JUMPDEST DUP2 EQ PUSH2 0xF9D JUMPI PUSH0 DUP1 REVERT JUMPDEST POP JUMP JUMPDEST PUSH0 DUP2 CALLDATALOAD SWAP1 POP PUSH2 0xFAE DUP2 PUSH2 0xF8A JUMP JUMPDEST SWAP3 SWAP2 POP POP JUMP JUMPDEST PUSH0 PUSH1 0x20 DUP3 DUP5 SUB SLT ISZERO PUSH2 0xFC9 JUMPI PUSH2 0xFC8 PUSH2 0xF31 JUMP JUMPDEST JUMPDEST PUSH0 PUSH2 0xFD6 DUP5 DUP3 DUP6 ADD PUSH2 0xFA0 JUMP JUMPDEST SWAP2 POP POP SWAP3 SWAP2 POP POP JUMP JUMPDEST PUSH0 DUP1 PUSH1 0x40 DUP4 DUP6 SUB SLT ISZERO PUSH2 0xFF5 JUMPI PUSH2 0xFF4 PUSH2 0xF31 JUMP JUMPDEST JUMPDEST PUSH0 PUSH2 0x1002 DUP6 DUP3 DUP7 ADD PUSH2 0xFA0 JUMP JUMPDEST SWAP3 POP POP PUSH1 0x20 PUSH2 0x1013 DUP6 DUP3 DUP7 ADD PUSH2 0xFA0 JUMP JUMPDEST SWAP2 POP POP SWAP3 POP SWAP3 SWAP1 POP JUMP JUMPDEST PUSH0 DUP3 DUP3 MSTORE PUSH1 0x20 DUP3 ADD SWAP1 POP SWAP3 SWAP2 POP POP JUMP JUMPDEST PUSH32 0x4E6F206C697175696469747920666F7220546F6B656E42000000000000000000 PUSH0 DUP3 ADD MSTORE POP JUMP JUMPDEST PUSH0 PUSH2 0x1061 PUSH1 0x17 DUP4 PUSH2 0x101D JUMP JUMPDEST SWAP2 POP PUSH2 0x106C DUP3 PUSH2 0x102D JUMP JUMPDEST PUSH1 0x20 DUP3 ADD SWAP1 POP SWAP2 SWAP1 POP JUMP JUMPDEST PUSH0 PUSH1 0x20 DUP3 ADD SWAP1 POP DUP2 DUP2 SUB PUSH0 DUP4 ADD MSTORE PUSH2 0x108E DUP2 PUSH2 0x1055 JUMP JUMPDEST SWAP1 POP SWAP2 SWAP1 POP JUMP JUMPDEST PUSH32 0x4E487B7100000000000000000000000000000000000000000000000000000000 PUSH0 MSTORE PUSH1 0x12 PUSH1 0x4 MSTORE PUSH1 0x24 PUSH0 REVERT JUMPDEST PUSH32 0x4E487B7100000000000000000000000000000000000000000000000000000000 PUSH0 MSTORE PUSH1 0x11 PUSH1 0x4 MSTORE PUSH1 0x24 PUSH0 REVERT JUMPDEST PUSH0 PUSH2 0x10F9 DUP3 PUSH2 0xF00 JUMP JUMPDEST SWAP2 POP PUSH2 0x1104 DUP4 PUSH2 0xF00 JUMP JUMPDEST SWAP3 POP DUP3 PUSH2 0x1114 JUMPI PUSH2 0x1113 PUSH2 0x1095 JUMP JUMPDEST JUMPDEST DUP3 DUP3 DIV SWAP1 POP SWAP3 SWAP2 POP POP JUMP JUMPDEST PUSH32 0x4E6F206C697175696469747920666F7220546F6B656E41000000000000000000 PUSH0 DUP3 ADD MSTORE POP JUMP JUMPDEST PUSH0 PUSH2 0x1153 PUSH1 0x17 DUP4 PUSH2 0x101D JUMP JUMPDEST SWAP2 POP PUSH2 0x115E DUP3 PUSH2 0x111F JUMP JUMPDEST PUSH1 0x20 DUP3 ADD SWAP1 POP SWAP2 SWAP1 POP JUMP JUMPDEST PUSH0 PUSH1 0x20 DUP3 ADD SWAP1 POP DUP2 DUP2 SUB PUSH0 DUP4 ADD MSTORE PUSH2 0x1180 DUP2 PUSH2 0x1147 JUMP JUMPDEST SWAP1 POP SWAP2 SWAP1 POP JUMP JUMPDEST PUSH32 0x546F6B656E206E6F7420737570706F7274656400000000000000000000000000 PUSH0 DUP3 ADD MSTORE POP JUMP JUMPDEST PUSH0 PUSH2 0x11BB PUSH1 0x13 DUP4 PUSH2 0x101D JUMP JUMPDEST SWAP2 POP PUSH2 0x11C6 DUP3 PUSH2 0x1187 JUMP JUMPDEST PUSH1 0x20 DUP3 ADD SWAP1 POP SWAP2 SWAP1 POP JUMP JUMPDEST PUSH0 PUSH1 0x20 DUP3 ADD SWAP1 POP DUP2 DUP2 SUB PUSH0 DUP4 ADD MSTORE PUSH2 0x11E8 DUP2 PUSH2 0x11AF JUMP JUMPDEST SWAP1 POP SWAP2 SWAP1 POP JUMP JUMPDEST PUSH32 0x416D6F756E74206D7573742062652067726561746572207468616E2030000000 PUSH0 DUP3 ADD MSTORE POP JUMP JUMPDEST PUSH0 PUSH2 0x1223 PUSH1 0x1D DUP4 PUSH2 0x101D JUMP JUMPDEST SWAP2 POP PUSH2 0x122E DUP3 PUSH2 0x11EF JUMP JUMPDEST PUSH1 0x20 DUP3 ADD SWAP1 POP SWAP2 SWAP1 POP JUMP JUMPDEST PUSH0 PUSH1 0x20 DUP3 ADD SWAP1 POP DUP2 DUP2 SUB PUSH0 DUP4 ADD MSTORE PUSH2 0x1250 DUP2 PUSH2 0x1217 JUMP JUMPDEST SWAP1 POP SWAP2 SWAP1 POP JUMP JUMPDEST PUSH0 PUSH2 0x1261 DUP3 PUSH2 0xF00 JUMP JUMPDEST SWAP2 POP PUSH2 0x126C DUP4 PUSH2 0xF00 JUMP JUMPDEST SWAP3 POP DUP3 DUP3 ADD SWAP1 POP DUP1 DUP3 GT ISZERO PUSH2 0x1284 JUMPI PUSH2 0x1283 PUSH2 0x10C2 JUMP JUMPDEST JUMPDEST SWAP3 SWAP2 POP POP JUMP JUMPDEST PUSH0 PUSH2 0x1294 DUP3 PUSH2 0xF00 JUMP JUMPDEST SWAP2 POP PUSH2 0x129F DUP4 PUSH2 0xF00 JUMP JUMPDEST SWAP3 POP DUP3 DUP3 MUL PUSH2 0x12AD DUP2 PUSH2 0xF00 JUMP JUMPDEST SWAP2 POP DUP3 DUP3 DIV DUP5 EQ DUP4 ISZERO OR PUSH2 0x12C4 JUMPI PUSH2 0x12C3 PUSH2 0x10C2 JUMP JUMPDEST JUMPDEST POP SWAP3 SWAP2 POP POP JUMP JUMPDEST PUSH32 0x496E73756666696369656E74206F757470757420616D6F756E74000000000000 PUSH0 DUP3 ADD MSTORE POP JUMP JUMPDEST PUSH0 PUSH2 0x12FF PUSH1 0x1A DUP4 PUSH2 0x101D JUMP JUMPDEST SWAP2 POP PUSH2 0x130A DUP3 PUSH2 0x12CB JUMP JUMPDEST PUSH1 0x20 DUP3 ADD SWAP1 POP SWAP2 SWAP1 POP JUMP JUMPDEST PUSH0 PUSH1 0x20 DUP3 ADD SWAP1 POP DUP2 DUP2 SUB PUSH0 DUP4 ADD MSTORE PUSH2 0x132C DUP2 PUSH2 0x12F3 JUMP JUMPDEST SWAP1 POP SWAP2 SWAP1 POP JUMP JUMPDEST PUSH0 PUSH1 0x60 DUP3 ADD SWAP1 POP PUSH2 0x1346 PUSH0 DUP4 ADD DUP7 PUSH2 0xED8 JUMP JUMPDEST PUSH2 0x1353 PUSH1 0x20 DUP4 ADD DUP6 PUSH2 0xED8 JUMP JUMPDEST PUSH2 0x1360 PUSH1 0x40 DUP4 ADD DUP5 PUSH2 0xF09 JUMP JUMPDEST SWAP5 SWAP4 POP POP POP POP JUMP JUMPDEST PUSH0 DUP2 ISZERO ISZERO SWAP1 POP SWAP2 SWAP1 POP JUMP JUMPDEST PUSH2 0x137C DUP2 PUSH2 0x1368 JUMP JUMPDEST DUP2 EQ PUSH2 0x1386 JUMPI PUSH0 DUP1 REVERT JUMPDEST POP JUMP JUMPDEST PUSH0 DUP2 MLOAD SWAP1 POP PUSH2 0x1397 DUP2 PUSH2 0x1373 JUMP JUMPDEST SWAP3 SWAP2 POP POP JUMP JUMPDEST PUSH0 PUSH1 0x20 DUP3 DUP5 SUB SLT ISZERO PUSH2 0x13B2 JUMPI PUSH2 0x13B1 PUSH2 0xF31 JUMP JUMPDEST JUMPDEST PUSH0 PUSH2 0x13BF DUP5 DUP3 DUP6 ADD PUSH2 0x1389 JUMP JUMPDEST SWAP2 POP POP SWAP3 SWAP2 POP POP JUMP JUMPDEST PUSH0 PUSH1 0x40 DUP3 ADD SWAP1 POP PUSH2 0x13DB PUSH0 DUP4 ADD DUP6 PUSH2 0xED8 JUMP JUMPDEST PUSH2 0x13E8 PUSH1 0x20 DUP4 ADD DUP5 PUSH2 0xF09 JUMP JUMPDEST SWAP4 SWAP3 POP POP POP JUMP JUMPDEST PUSH0 PUSH2 0x13F9 DUP3 PUSH2 0xF00 JUMP JUMPDEST SWAP2 POP PUSH2 0x1404 DUP4 PUSH2 0xF00 JUMP JUMPDEST SWAP3 POP DUP3 DUP3 SUB SWAP1 POP DUP2 DUP2 GT ISZERO PUSH2 0x141C JUMPI PUSH2 0x141B PUSH2 0x10C2 JUMP JUMPDEST JUMPDEST SWAP3 SWAP2 POP POP JUMP JUMPDEST PUSH0 PUSH1 0x60 DUP3 ADD SWAP1 POP PUSH2 0x1435 PUSH0 DUP4 ADD DUP7 PUSH2 0xED8 JUMP JUMPDEST PUSH2 0x1442 PUSH1 0x20 DUP4 ADD DUP6 PUSH2 0xF09 JUMP JUMPDEST PUSH2 0x144F PUSH1 0x40 DUP4 ADD DUP5 PUSH2 0xF09 JUMP JUMPDEST SWAP5 SWAP4 POP POP POP POP JUMP JUMPDEST PUSH32 0x4F6E6C79206F776E65722063616E2063616C6C20746869732066756E6374696F PUSH0 DUP3 ADD MSTORE PUSH32 0x6E00000000000000000000000000000000000000000000000000000000000000 PUSH1 0x20 DUP3 ADD MSTORE POP JUMP JUMPDEST PUSH0 PUSH2 0x14B1 PUSH1 0x21 DUP4 PUSH2 0x101D JUMP JUMPDEST SWAP2 POP PUSH2 0x14BC DUP3 PUSH2 0x1457 JUMP JUMPDEST PUSH1 0x40 DUP3 ADD SWAP1 POP SWAP2 SWAP1 POP JUMP JUMPDEST PUSH0 PUSH1 0x20 DUP3 ADD SWAP1 POP DUP2 DUP2 SUB PUSH0 DUP4 ADD MSTORE PUSH2 0x14DE DUP2 PUSH2 0x14A5 JUMP JUMPDEST SWAP1 POP SWAP2 SWAP1 POP JUMP JUMPDEST PUSH32 0x5472616E73666572206F6620546F6B656E41206661696C656400000000000000 PUSH0 DUP3 ADD MSTORE POP JUMP JUMPDEST PUSH0 PUSH2 0x1519 PUSH1 0x19 DUP4 PUSH2 0x101D JUMP JUMPDEST SWAP2 POP PUSH2 0x1524 DUP3 PUSH2 0x14E5 JUMP JUMPDEST PUSH1 0x20 DUP3 ADD SWAP1 POP SWAP2 SWAP1 POP JUMP JUMPDEST PUSH0 PUSH1 0x20 DUP3 ADD SWAP1 POP DUP2 DUP2 SUB PUSH0 DUP4 ADD MSTORE PUSH2 0x1546 DUP2 PUSH2 0x150D JUMP JUMPDEST SWAP1 POP SWAP2 SWAP1 POP JUMP JUMPDEST PUSH32 0x5472616E73666572206F6620546F6B656E42206661696C656400000000000000 PUSH0 DUP3 ADD MSTORE POP JUMP JUMPDEST PUSH0 PUSH2 0x1581 PUSH1 0x19 DUP4 PUSH2 0x101D JUMP JUMPDEST SWAP2 POP PUSH2 0x158C DUP3 PUSH2 0x154D JUMP JUMPDEST PUSH1 0x20 DUP3 ADD SWAP1 POP SWAP2 SWAP1 POP JUMP JUMPDEST PUSH0 PUSH1 0x20 DUP3 ADD SWAP1 POP DUP2 DUP2 SUB PUSH0 DUP4 ADD MSTORE PUSH2 0x15AE DUP2 PUSH2 0x1575 JUMP JUMPDEST SWAP1 POP SWAP2 SWAP1 POP JUMP JUMPDEST PUSH0 PUSH1 0x40 DUP3 ADD SWAP1 POP PUSH2 0x15C8 PUSH0 DUP4 ADD DUP6 PUSH2 0xF09 JUMP JUMPDEST PUSH2 0x15D5 PUSH1 0x20 DUP4 ADD DUP5 PUSH2 0xF09 JUMP JUMPDEST SWAP4 SWAP3 POP POP POP JUMP JUMPDEST PUSH32 0x496E73756666696369656E7420546F6B656E4120726573657276650000000000 PUSH0 DUP3 ADD MSTORE POP JUMP JUMPDEST PUSH0 PUSH2 0x1610 PUSH1 0x1B DUP4 PUSH2 0x101D JUMP JUMPDEST SWAP2 POP PUSH2 0x161B DUP3 PUSH2 0x15DC JUMP JUMPDEST PUSH1 0x20 DUP3 ADD SWAP1 POP SWAP2 SWAP1 POP JUMP JUMPDEST PUSH0 PUSH1 0x20 DUP3 ADD SWAP1 POP DUP2 DUP2 SUB PUSH0 DUP4 ADD MSTORE PUSH2 0x163D DUP2 PUSH2 0x1604 JUMP JUMPDEST SWAP1 POP SWAP2 SWAP1 POP JUMP JUMPDEST PUSH32 0x496E73756666696369656E7420546F6B656E4220726573657276650000000000 PUSH0 DUP3 ADD MSTORE POP JUMP JUMPDEST PUSH0 PUSH2 0x1678 PUSH1 0x1B DUP4 PUSH2 0x101D JUMP JUMPDEST SWAP2 POP PUSH2 0x1683 DUP3 PUSH2 0x1644 JUMP JUMPDEST PUSH1 0x20 DUP3 ADD SWAP1 POP SWAP2 SWAP1 POP JUMP JUMPDEST PUSH0 PUSH1 0x20 DUP3 ADD SWAP1 POP DUP2 DUP2 SUB PUSH0 DUP4 ADD MSTORE PUSH2 0x16A5 DUP2 PUSH2 0x166C JUMP JUMPDEST SWAP1 POP SWAP2 SWAP1 POP JUMP INVALID LOG2 PUSH5 0x6970667358 0x22 SLT KECCAK256 MSIZE SLT 0xBD BASEFEE INVALID 0x4F PUSH24 0x4CCFA7E5B8E3069113CC8D7C56819AF725C0573FB27191D7 0x29 PUSH5 0x736F6C6343 STOP ADDMOD BYTE STOP CALLER "
				},
				"gasEstimates": {
					"creation": {
						"codeDepositCost": "1171600",
						"executionCost": "infinite",
						"totalCost": "infinite"
					},
					"external": {
						"addLiquidity(uint256,uint256)": "infinite",
						"getPrice(address)": "infinite",
						"owner()": "2508",
						"removeLiquidity(uint256,uint256)": "infinite",
						"reserveA()": "2491",
						"reserveB()": "2448",
						"swapAforB(uint256)": "infinite",
						"swapBforA(uint256)": "infinite",
						"tokenA()": "2506",
						"tokenB()": "2575"
					}
				},
				"methodIdentifiers": {
					"addLiquidity(uint256,uint256)": "9cd441da",
					"getPrice(address)": "41976e09",
					"owner()": "8da5cb5b",
					"removeLiquidity(uint256,uint256)": "9d7de6b3",
					"reserveA()": "dc5fa6c5",
					"reserveB()": "19e36f3b",
					"swapAforB(uint256)": "e4f1f70a",
					"swapBforA(uint256)": "8014a7aa",
					"tokenA()": "0fc63d10",
					"tokenB()": "5f64b55b"
				}
			},
			"storageLayout": {
				"storage": [
					{
						"astId": 82,
						"contract": "contracts/TpPool.sol/SimpleDEX.sol:SimpleDEX",
						"label": "tokenA",
						"offset": 0,
						"slot": "0",
						"type": "t_address"
					},
					{
						"astId": 84,
						"contract": "contracts/TpPool.sol/SimpleDEX.sol:SimpleDEX",
						"label": "tokenB",
						"offset": 0,
						"slot": "1",
						"type": "t_address"
					},
					{
						"astId": 86,
						"contract": "contracts/TpPool.sol/SimpleDEX.sol:SimpleDEX",
						"label": "reserveA",
						"offset": 0,
						"slot": "2",
						"type": "t_uint256"
					},
					{
						"astId": 88,
						"contract": "contracts/TpPool.sol/SimpleDEX.sol:SimpleDEX",
						"label": "reserveB",
						"offset": 0,
						"slot": "3",
						"type": "t_uint256"
					},
					{
						"astId": 90,
						"contract": "contracts/TpPool.sol/SimpleDEX.sol:SimpleDEX",
						"label": "owner",
						"offset": 0,
						"slot": "4",
						"type": "t_address"
					}
				],
				"types": {
					"t_address": {
						"encoding": "inplace",
						"label": "address",
						"numberOfBytes": "20"
					},
					"t_uint256": {
						"encoding": "inplace",
						"label": "uint256",
						"numberOfBytes": "32"
					}
				}
			},
			"userdoc": {
				"kind": "user",
				"methods": {},
				"version": 1
			}
		}
	}
}