{
	"contracts/OtroEjemploSubastaMasCompleto.sol": {
		"Subasta": {
			"abi": [
				{
					"inputs": [
						{
							"internalType": "uint256",
							"name": "_duration",
							"type": "uint256"
						}
					],
					"stateMutability": "nonpayable",
					"type": "constructor"
				},
				{
					"anonymous": false,
					"inputs": [
						{
							"indexed": true,
							"internalType": "address",
							"name": "oferente",
							"type": "address"
						},
						{
							"indexed": false,
							"internalType": "uint256",
							"name": "monto",
							"type": "uint256"
						}
					],
					"name": "DepositoDevuelto",
					"type": "event"
				},
				{
					"anonymous": false,
					"inputs": [
						{
							"indexed": false,
							"internalType": "uint256",
							"name": "nuevaHoraFin",
							"type": "uint256"
						}
					],
					"name": "ExtiendeSubasta",
					"type": "event"
				},
				{
					"anonymous": false,
					"inputs": [
						{
							"indexed": false,
							"internalType": "address",
							"name": "ganador",
							"type": "address"
						},
						{
							"indexed": false,
							"internalType": "uint256",
							"name": "montoGanador",
							"type": "uint256"
						}
					],
					"name": "GanadorAnunciado",
					"type": "event"
				},
				{
					"anonymous": false,
					"inputs": [
						{
							"indexed": true,
							"internalType": "address",
							"name": "bidder",
							"type": "address"
						},
						{
							"indexed": false,
							"internalType": "uint256",
							"name": "monto",
							"type": "uint256"
						},
						{
							"indexed": false,
							"internalType": "uint256",
							"name": "timestamp",
							"type": "uint256"
						}
					],
					"name": "NuevaOferta",
					"type": "event"
				},
				{
					"inputs": [],
					"name": "BID_INC_PERCENT",
					"outputs": [
						{
							"internalType": "uint256",
							"name": "",
							"type": "uint256"
						}
					],
					"stateMutability": "view",
					"type": "function"
				},
				{
					"inputs": [],
					"name": "COMMISSION_PERCENT",
					"outputs": [
						{
							"internalType": "uint256",
							"name": "",
							"type": "uint256"
						}
					],
					"stateMutability": "view",
					"type": "function"
				},
				{
					"inputs": [],
					"name": "EXT_TIME",
					"outputs": [
						{
							"internalType": "uint256",
							"name": "",
							"type": "uint256"
						}
					],
					"stateMutability": "view",
					"type": "function"
				},
				{
					"inputs": [
						{
							"internalType": "address",
							"name": "",
							"type": "address"
						}
					],
					"name": "balancePendiente",
					"outputs": [
						{
							"internalType": "uint256",
							"name": "",
							"type": "uint256"
						}
					],
					"stateMutability": "view",
					"type": "function"
				},
				{
					"inputs": [],
					"name": "bidEndTime",
					"outputs": [
						{
							"internalType": "uint256",
							"name": "",
							"type": "uint256"
						}
					],
					"stateMutability": "view",
					"type": "function"
				},
				{
					"inputs": [],
					"name": "bidOwner",
					"outputs": [
						{
							"internalType": "address",
							"name": "",
							"type": "address"
						}
					],
					"stateMutability": "view",
					"type": "function"
				},
				{
					"inputs": [],
					"name": "bidStartTime",
					"outputs": [
						{
							"internalType": "uint256",
							"name": "",
							"type": "uint256"
						}
					],
					"stateMutability": "view",
					"type": "function"
				},
				{
					"inputs": [],
					"name": "devolverDepositos",
					"outputs": [],
					"stateMutability": "payable",
					"type": "function"
				},
				{
					"inputs": [],
					"name": "highestBid",
					"outputs": [
						{
							"internalType": "uint256",
							"name": "",
							"type": "uint256"
						}
					],
					"stateMutability": "view",
					"type": "function"
				},
				{
					"inputs": [],
					"name": "highestBidder",
					"outputs": [
						{
							"internalType": "address",
							"name": "",
							"type": "address"
						}
					],
					"stateMutability": "view",
					"type": "function"
				},
				{
					"inputs": [],
					"name": "mostrarGanador",
					"outputs": [
						{
							"internalType": "address",
							"name": "",
							"type": "address"
						},
						{
							"internalType": "uint256",
							"name": "",
							"type": "uint256"
						}
					],
					"stateMutability": "view",
					"type": "function"
				},
				{
					"inputs": [],
					"name": "mostrarOfertas",
					"outputs": [
						{
							"components": [
								{
									"internalType": "address",
									"name": "bidder",
									"type": "address"
								},
								{
									"internalType": "uint256",
									"name": "amount",
									"type": "uint256"
								}
							],
							"internalType": "struct Subasta.Oferta[]",
							"name": "",
							"type": "tuple[]"
						}
					],
					"stateMutability": "view",
					"type": "function"
				},
				{
					"inputs": [],
					"name": "ofertar",
					"outputs": [],
					"stateMutability": "payable",
					"type": "function"
				},
				{
					"inputs": [
						{
							"internalType": "uint256",
							"name": "",
							"type": "uint256"
						}
					],
					"name": "ofertas",
					"outputs": [
						{
							"internalType": "address",
							"name": "bidder",
							"type": "address"
						},
						{
							"internalType": "uint256",
							"name": "amount",
							"type": "uint256"
						}
					],
					"stateMutability": "view",
					"type": "function"
				},
				{
					"inputs": [],
					"name": "retirarExceso",
					"outputs": [],
					"stateMutability": "nonpayable",
					"type": "function"
				}
			],
			"devdoc": {
				"kind": "dev",
				"methods": {},
				"version": 1
			},
			"evm": {
				"assembly": "    /* \"contracts/OtroEjemploSubastaMasCompleto.sol\":940:4819  contract Subasta {... */\n  mstore(0x40, 0x80)\n    /* \"contracts/OtroEjemploSubastaMasCompleto.sol\":2114:2294  constructor(uint256 _duration) {... */\n  callvalue\n  dup1\n  iszero\n  tag_1\n  jumpi\n  0x00\n  dup1\n  revert\ntag_1:\n  pop\n  mload(0x40)\n  sub(codesize, bytecodeSize)\n  dup1\n  bytecodeSize\n  dup4\n  codecopy\n  dup2\n  dup2\n  add\n  0x40\n  mstore\n  dup2\n  add\n  swap1\n  tag_2\n  swap2\n  swap1\n  tag_3\n  jump\t// in\ntag_2:\n    /* \"contracts/OtroEjemploSubastaMasCompleto.sol\":2166:2176  msg.sender */\n  caller\n    /* \"contracts/OtroEjemploSubastaMasCompleto.sol\":2155:2163  bidOwner */\n  0x00\n  dup1\n    /* \"contracts/OtroEjemploSubastaMasCompleto.sol\":2155:2176  bidOwner = msg.sender */\n  0x0100\n  exp\n  dup2\n  sload\n  dup2\n  0xffffffffffffffffffffffffffffffffffffffff\n  mul\n  not\n  and\n  swap1\n  dup4\n  0xffffffffffffffffffffffffffffffffffffffff\n  and\n  mul\n  or\n  swap1\n  sstore\n  pop\n    /* \"contracts/OtroEjemploSubastaMasCompleto.sol\":2201:2216  block.timestamp */\n  timestamp\n    /* \"contracts/OtroEjemploSubastaMasCompleto.sol\":2186:2198  bidStartTime */\n  0x01\n    /* \"contracts/OtroEjemploSubastaMasCompleto.sol\":2186:2216  bidStartTime = block.timestamp */\n  dup2\n  swap1\n  sstore\n  pop\n    /* \"contracts/OtroEjemploSubastaMasCompleto.sol\":2254:2263  _duration */\n  dup1\n    /* \"contracts/OtroEjemploSubastaMasCompleto.sol\":2239:2251  bidStartTime */\n  sload(0x01)\n    /* \"contracts/OtroEjemploSubastaMasCompleto.sol\":2239:2263  bidStartTime + _duration */\n  tag_6\n  swap2\n  swap1\n  tag_7\n  jump\t// in\ntag_6:\n    /* \"contracts/OtroEjemploSubastaMasCompleto.sol\":2226:2236  bidEndTime */\n  0x02\n    /* \"contracts/OtroEjemploSubastaMasCompleto.sol\":2226:2263  bidEndTime = bidStartTime + _duration */\n  dup2\n  swap1\n  sstore\n  pop\n    /* \"contracts/OtroEjemploSubastaMasCompleto.sol\":2286:2287  0 */\n  0x00\n    /* \"contracts/OtroEjemploSubastaMasCompleto.sol\":2273:2283  highestBid */\n  0x04\n    /* \"contracts/OtroEjemploSubastaMasCompleto.sol\":2273:2287  highestBid = 0 */\n  dup2\n  swap1\n  sstore\n  pop\n    /* \"contracts/OtroEjemploSubastaMasCompleto.sol\":2114:2294  constructor(uint256 _duration) {... */\n  pop\n    /* \"contracts/OtroEjemploSubastaMasCompleto.sol\":940:4819  contract Subasta {... */\n  jump(tag_8)\n    /* \"#utility.yul\":88:205   */\ntag_10:\n    /* \"#utility.yul\":197:198   */\n  0x00\n    /* \"#utility.yul\":194:195   */\n  dup1\n    /* \"#utility.yul\":187:199   */\n  revert\n    /* \"#utility.yul\":334:411   */\ntag_12:\n    /* \"#utility.yul\":371:378   */\n  0x00\n    /* \"#utility.yul\":400:405   */\n  dup2\n    /* \"#utility.yul\":389:405   */\n  swap1\n  pop\n    /* \"#utility.yul\":334:411   */\n  swap2\n  swap1\n  pop\n  jump\t// out\n    /* \"#utility.yul\":417:539   */\ntag_13:\n    /* \"#utility.yul\":490:514   */\n  tag_22\n    /* \"#utility.yul\":508:513   */\n  dup2\n    /* \"#utility.yul\":490:514   */\n  tag_12\n  jump\t// in\ntag_22:\n    /* \"#utility.yul\":483:488   */\n  dup2\n    /* \"#utility.yul\":480:515   */\n  eq\n    /* \"#utility.yul\":470:533   */\n  tag_23\n  jumpi\n    /* \"#utility.yul\":529:530   */\n  0x00\n    /* \"#utility.yul\":526:527   */\n  dup1\n    /* \"#utility.yul\":519:531   */\n  revert\n    /* \"#utility.yul\":470:533   */\ntag_23:\n    /* \"#utility.yul\":417:539   */\n  pop\n  jump\t// out\n    /* \"#utility.yul\":545:688   */\ntag_14:\n    /* \"#utility.yul\":602:607   */\n  0x00\n    /* \"#utility.yul\":633:639   */\n  dup2\n    /* \"#utility.yul\":627:640   */\n  mload\n    /* \"#utility.yul\":618:640   */\n  swap1\n  pop\n    /* \"#utility.yul\":649:682   */\n  tag_25\n    /* \"#utility.yul\":676:681   */\n  dup2\n    /* \"#utility.yul\":649:682   */\n  tag_13\n  jump\t// in\ntag_25:\n    /* \"#utility.yul\":545:688   */\n  swap3\n  swap2\n  pop\n  pop\n  jump\t// out\n    /* \"#utility.yul\":694:1045   */\ntag_3:\n    /* \"#utility.yul\":764:770   */\n  0x00\n    /* \"#utility.yul\":813:815   */\n  0x20\n    /* \"#utility.yul\":801:810   */\n  dup3\n    /* \"#utility.yul\":792:799   */\n  dup5\n    /* \"#utility.yul\":788:811   */\n  sub\n    /* \"#utility.yul\":784:816   */\n  slt\n    /* \"#utility.yul\":781:900   */\n  iszero\n  tag_27\n  jumpi\n    /* \"#utility.yul\":819:898   */\n  tag_28\n  tag_10\n  jump\t// in\ntag_28:\n    /* \"#utility.yul\":781:900   */\ntag_27:\n    /* \"#utility.yul\":939:940   */\n  0x00\n    /* \"#utility.yul\":964:1028   */\n  tag_29\n    /* \"#utility.yul\":1020:1027   */\n  dup5\n    /* \"#utility.yul\":1011:1017   */\n  dup3\n    /* \"#utility.yul\":1000:1009   */\n  dup6\n    /* \"#utility.yul\":996:1018   */\n  add\n    /* \"#utility.yul\":964:1028   */\n  tag_14\n  jump\t// in\ntag_29:\n    /* \"#utility.yul\":954:1028   */\n  swap2\n  pop\n    /* \"#utility.yul\":910:1038   */\n  pop\n    /* \"#utility.yul\":694:1045   */\n  swap3\n  swap2\n  pop\n  pop\n  jump\t// out\n    /* \"#utility.yul\":1051:1231   */\ntag_15:\n    /* \"#utility.yul\":1099:1176   */\n  0x4e487b7100000000000000000000000000000000000000000000000000000000\n    /* \"#utility.yul\":1096:1097   */\n  0x00\n    /* \"#utility.yul\":1089:1177   */\n  mstore\n    /* \"#utility.yul\":1196:1200   */\n  0x11\n    /* \"#utility.yul\":1193:1194   */\n  0x04\n    /* \"#utility.yul\":1186:1201   */\n  mstore\n    /* \"#utility.yul\":1220:1224   */\n  0x24\n    /* \"#utility.yul\":1217:1218   */\n  0x00\n    /* \"#utility.yul\":1210:1225   */\n  revert\n    /* \"#utility.yul\":1237:1428   */\ntag_7:\n    /* \"#utility.yul\":1277:1280   */\n  0x00\n    /* \"#utility.yul\":1296:1316   */\n  tag_32\n    /* \"#utility.yul\":1314:1315   */\n  dup3\n    /* \"#utility.yul\":1296:1316   */\n  tag_12\n  jump\t// in\ntag_32:\n    /* \"#utility.yul\":1291:1316   */\n  swap2\n  pop\n    /* \"#utility.yul\":1330:1350   */\n  tag_33\n    /* \"#utility.yul\":1348:1349   */\n  dup4\n    /* \"#utility.yul\":1330:1350   */\n  tag_12\n  jump\t// in\ntag_33:\n    /* \"#utility.yul\":1325:1350   */\n  swap3\n  pop\n    /* \"#utility.yul\":1373:1374   */\n  dup3\n    /* \"#utility.yul\":1370:1371   */\n  dup3\n    /* \"#utility.yul\":1366:1375   */\n  add\n    /* \"#utility.yul\":1359:1375   */\n  swap1\n  pop\n    /* \"#utility.yul\":1394:1397   */\n  dup1\n    /* \"#utility.yul\":1391:1392   */\n  dup3\n    /* \"#utility.yul\":1388:1398   */\n  gt\n    /* \"#utility.yul\":1385:1421   */\n  iszero\n  tag_34\n  jumpi\n    /* \"#utility.yul\":1401:1419   */\n  tag_35\n  tag_15\n  jump\t// in\ntag_35:\n    /* \"#utility.yul\":1385:1421   */\ntag_34:\n    /* \"#utility.yul\":1237:1428   */\n  swap3\n  swap2\n  pop\n  pop\n  jump\t// out\n    /* \"contracts/OtroEjemploSubastaMasCompleto.sol\":940:4819  contract Subasta {... */\ntag_8:\n  dataSize(sub_0)\n  dup1\n  dataOffset(sub_0)\n  0x00\n  codecopy\n  0x00\n  return\nstop\n\nsub_0: assembly {\n        /* \"contracts/OtroEjemploSubastaMasCompleto.sol\":940:4819  contract Subasta {... */\n      mstore(0x40, 0x80)\n      jumpi(tag_1, lt(calldatasize, 0x04))\n      shr(0xe0, calldataload(0x00))\n      dup1\n      0x7070f1be\n      gt\n      tag_17\n      jumpi\n      dup1\n      0xb404e001\n      gt\n      tag_18\n      jumpi\n      dup1\n      0xb404e001\n      eq\n      tag_13\n      jumpi\n      dup1\n      0xc1902319\n      eq\n      tag_14\n      jumpi\n      dup1\n      0xc442a99f\n      eq\n      tag_15\n      jumpi\n      dup1\n      0xd57bde79\n      eq\n      tag_16\n      jumpi\n      jump(tag_1)\n    tag_18:\n      dup1\n      0x7070f1be\n      eq\n      tag_9\n      jumpi\n      dup1\n      0x753dcaeb\n      eq\n      tag_10\n      jumpi\n      dup1\n      0x7bb44b83\n      eq\n      tag_11\n      jumpi\n      dup1\n      0x91f90157\n      eq\n      tag_12\n      jumpi\n      jump(tag_1)\n    tag_17:\n      dup1\n      0x4ba9a927\n      gt\n      tag_19\n      jumpi\n      dup1\n      0x4ba9a927\n      eq\n      tag_5\n      jumpi\n      dup1\n      0x5298a3c4\n      eq\n      tag_6\n      jumpi\n      dup1\n      0x56afff7c\n      eq\n      tag_7\n      jumpi\n      dup1\n      0x6d4d09d7\n      eq\n      tag_8\n      jumpi\n      jump(tag_1)\n    tag_19:\n      dup1\n      0x02bc22fc\n      eq\n      tag_2\n      jumpi\n      dup1\n      0x03fe7faa\n      eq\n      tag_3\n      jumpi\n      dup1\n      0x3ec059d7\n      eq\n      tag_4\n      jumpi\n    tag_1:\n      0x00\n      dup1\n      revert\n        /* \"contracts/OtroEjemploSubastaMasCompleto.sol\":1121:1166  uint256 public constant EXT_TIME = 10 minutes */\n    tag_2:\n      callvalue\n      dup1\n      iszero\n      tag_20\n      jumpi\n      0x00\n      dup1\n      revert\n    tag_20:\n      pop\n      tag_21\n      tag_22\n      jump\t// in\n    tag_21:\n      mload(0x40)\n      tag_23\n      swap2\n      swap1\n      tag_24\n      jump\t// in\n    tag_23:\n      mload(0x40)\n      dup1\n      swap2\n      sub\n      swap1\n      return\n        /* \"contracts/OtroEjemploSubastaMasCompleto.sol\":963:986  address public bidOwner */\n    tag_3:\n      callvalue\n      dup1\n      iszero\n      tag_25\n      jumpi\n      0x00\n      dup1\n      revert\n    tag_25:\n      pop\n      tag_26\n      tag_27\n      jump\t// in\n    tag_26:\n      mload(0x40)\n      tag_28\n      swap2\n      swap1\n      tag_29\n      jump\t// in\n    tag_28:\n      mload(0x40)\n      dup1\n      swap2\n      sub\n      swap1\n      return\n        /* \"contracts/OtroEjemploSubastaMasCompleto.sol\":2300:3438  function ofertar() external payable soloMientrasActiva {... */\n    tag_4:\n      tag_30\n      tag_31\n      jump\t// in\n    tag_30:\n      stop\n        /* \"contracts/OtroEjemploSubastaMasCompleto.sol\":1025:1050  uint256 public bidEndTime */\n    tag_5:\n      callvalue\n      dup1\n      iszero\n      tag_32\n      jumpi\n      0x00\n      dup1\n      revert\n    tag_32:\n      pop\n      tag_33\n      tag_34\n      jump\t// in\n    tag_33:\n      mload(0x40)\n      tag_35\n      swap2\n      swap1\n      tag_24\n      jump\t// in\n    tag_35:\n      mload(0x40)\n      dup1\n      swap2\n      sub\n      swap1\n      return\n        /* \"contracts/OtroEjemploSubastaMasCompleto.sol\":3750:4540  function devolverDepositos() external payable onlyOwner {... */\n    tag_6:\n      tag_36\n      tag_37\n      jump\t// in\n    tag_36:\n      stop\n        /* \"contracts/OtroEjemploSubastaMasCompleto.sol\":1407:1430  Oferta[] public ofertas */\n    tag_7:\n      callvalue\n      dup1\n      iszero\n      tag_38\n      jumpi\n      0x00\n      dup1\n      revert\n    tag_38:\n      pop\n      tag_39\n      0x04\n      dup1\n      calldatasize\n      sub\n      dup2\n      add\n      swap1\n      tag_40\n      swap2\n      swap1\n      tag_41\n      jump\t// in\n    tag_40:\n      tag_42\n      jump\t// in\n    tag_39:\n      mload(0x40)\n      tag_43\n      swap3\n      swap2\n      swap1\n      tag_44\n      jump\t// in\n    tag_43:\n      mload(0x40)\n      dup1\n      swap2\n      sub\n      swap1\n      return\n        /* \"contracts/OtroEjemploSubastaMasCompleto.sol\":992:1019  uint256 public bidStartTime */\n    tag_8:\n      callvalue\n      dup1\n      iszero\n      tag_45\n      jumpi\n      0x00\n      dup1\n      revert\n    tag_45:\n      pop\n      tag_46\n      tag_47\n      jump\t// in\n    tag_46:\n      mload(0x40)\n      tag_48\n      swap2\n      swap1\n      tag_24\n      jump\t// in\n    tag_48:\n      mload(0x40)\n      dup1\n      swap2\n      sub\n      swap1\n      return\n        /* \"contracts/OtroEjemploSubastaMasCompleto.sol\":1436:1487  mapping(address => uint256) public balancePendiente */\n    tag_9:\n      callvalue\n      dup1\n      iszero\n      tag_49\n      jumpi\n      0x00\n      dup1\n      revert\n    tag_49:\n      pop\n      tag_50\n      0x04\n      dup1\n      calldatasize\n      sub\n      dup2\n      add\n      swap1\n      tag_51\n      swap2\n      swap1\n      tag_52\n      jump\t// in\n    tag_51:\n      tag_53\n      jump\t// in\n    tag_50:\n      mload(0x40)\n      tag_54\n      swap2\n      swap1\n      tag_24\n      jump\t// in\n    tag_54:\n      mload(0x40)\n      dup1\n      swap2\n      sub\n      swap1\n      return\n        /* \"contracts/OtroEjemploSubastaMasCompleto.sol\":3444:3641  function mostrarGanador() external view returns (address, uint256) {... */\n    tag_10:\n      callvalue\n      dup1\n      iszero\n      tag_55\n      jumpi\n      0x00\n      dup1\n      revert\n    tag_55:\n      pop\n      tag_56\n      tag_57\n      jump\t// in\n    tag_56:\n      mload(0x40)\n      tag_58\n      swap3\n      swap2\n      swap1\n      tag_44\n      jump\t// in\n    tag_58:\n      mload(0x40)\n      dup1\n      swap2\n      sub\n      swap1\n      return\n        /* \"contracts/OtroEjemploSubastaMasCompleto.sol\":1172:1215  uint256 public constant BID_INC_PERCENT = 5 */\n    tag_11:\n      callvalue\n      dup1\n      iszero\n      tag_59\n      jumpi\n      0x00\n      dup1\n      revert\n    tag_59:\n      pop\n      tag_60\n      tag_61\n      jump\t// in\n    tag_60:\n      mload(0x40)\n      tag_62\n      swap2\n      swap1\n      tag_24\n      jump\t// in\n    tag_62:\n      mload(0x40)\n      dup1\n      swap2\n      sub\n      swap1\n      return\n        /* \"contracts/OtroEjemploSubastaMasCompleto.sol\":1056:1084  address public highestBidder */\n    tag_12:\n      callvalue\n      dup1\n      iszero\n      tag_63\n      jumpi\n      0x00\n      dup1\n      revert\n    tag_63:\n      pop\n      tag_64\n      tag_65\n      jump\t// in\n    tag_64:\n      mload(0x40)\n      tag_66\n      swap2\n      swap1\n      tag_29\n      jump\t// in\n    tag_66:\n      mload(0x40)\n      dup1\n      swap2\n      sub\n      swap1\n      return\n        /* \"contracts/OtroEjemploSubastaMasCompleto.sol\":1247:1293  uint256 public constant COMMISSION_PERCENT = 2 */\n    tag_13:\n      callvalue\n      dup1\n      iszero\n      tag_67\n      jumpi\n      0x00\n      dup1\n      revert\n    tag_67:\n      pop\n      tag_68\n      tag_69\n      jump\t// in\n    tag_68:\n      mload(0x40)\n      tag_70\n      swap2\n      swap1\n      tag_24\n      jump\t// in\n    tag_70:\n      mload(0x40)\n      dup1\n      swap2\n      sub\n      swap1\n      return\n        /* \"contracts/OtroEjemploSubastaMasCompleto.sol\":4546:4817  function retirarExceso() external {... */\n    tag_14:\n      callvalue\n      dup1\n      iszero\n      tag_71\n      jumpi\n      0x00\n      dup1\n      revert\n    tag_71:\n      pop\n      tag_72\n      tag_73\n      jump\t// in\n    tag_72:\n      stop\n        /* \"contracts/OtroEjemploSubastaMasCompleto.sol\":3647:3744  function mostrarOfertas() external view returns (Oferta[] memory) {... */\n    tag_15:\n      callvalue\n      dup1\n      iszero\n      tag_74\n      jumpi\n      0x00\n      dup1\n      revert\n    tag_74:\n      pop\n      tag_75\n      tag_76\n      jump\t// in\n    tag_75:\n      mload(0x40)\n      tag_77\n      swap2\n      swap1\n      tag_78\n      jump\t// in\n    tag_77:\n      mload(0x40)\n      dup1\n      swap2\n      sub\n      swap1\n      return\n        /* \"contracts/OtroEjemploSubastaMasCompleto.sol\":1090:1115  uint256 public highestBid */\n    tag_16:\n      callvalue\n      dup1\n      iszero\n      tag_79\n      jumpi\n      0x00\n      dup1\n      revert\n    tag_79:\n      pop\n      tag_80\n      tag_81\n      jump\t// in\n    tag_80:\n      mload(0x40)\n      tag_82\n      swap2\n      swap1\n      tag_24\n      jump\t// in\n    tag_82:\n      mload(0x40)\n      dup1\n      swap2\n      sub\n      swap1\n      return\n        /* \"contracts/OtroEjemploSubastaMasCompleto.sol\":1121:1166  uint256 public constant EXT_TIME = 10 minutes */\n    tag_22:\n        /* \"contracts/OtroEjemploSubastaMasCompleto.sol\":1156:1166  10 minutes */\n      0x0258\n        /* \"contracts/OtroEjemploSubastaMasCompleto.sol\":1121:1166  uint256 public constant EXT_TIME = 10 minutes */\n      dup2\n      jump\t// out\n        /* \"contracts/OtroEjemploSubastaMasCompleto.sol\":963:986  address public bidOwner */\n    tag_27:\n      0x00\n      dup1\n      sload\n      swap1\n      0x0100\n      exp\n      swap1\n      div\n      0xffffffffffffffffffffffffffffffffffffffff\n      and\n      dup2\n      jump\t// out\n        /* \"contracts/OtroEjemploSubastaMasCompleto.sol\":2300:3438  function ofertar() external payable soloMientrasActiva {... */\n    tag_31:\n        /* \"contracts/OtroEjemploSubastaMasCompleto.sol\":1987:1997  bidEndTime */\n      sload(0x02)\n        /* \"contracts/OtroEjemploSubastaMasCompleto.sol\":1968:1983  block.timestamp */\n      timestamp\n        /* \"contracts/OtroEjemploSubastaMasCompleto.sol\":1968:1997  block.timestamp <= bidEndTime */\n      gt\n      iszero\n        /* \"contracts/OtroEjemploSubastaMasCompleto.sol\":1960:2015  require(block.timestamp <= bidEndTime, \"Bid has ended\") */\n      tag_84\n      jumpi\n      mload(0x40)\n      0x08c379a000000000000000000000000000000000000000000000000000000000\n      dup2\n      mstore\n      0x04\n      add\n      tag_85\n      swap1\n      tag_86\n      jump\t// in\n    tag_85:\n      mload(0x40)\n      dup1\n      swap2\n      sub\n      swap1\n      revert\n    tag_84:\n        /* \"contracts/OtroEjemploSubastaMasCompleto.sol\":2385:2386  0 */\n      0x00\n        /* \"contracts/OtroEjemploSubastaMasCompleto.sol\":2373:2382  msg.value */\n      callvalue\n        /* \"contracts/OtroEjemploSubastaMasCompleto.sol\":2373:2386  msg.value > 0 */\n      gt\n        /* \"contracts/OtroEjemploSubastaMasCompleto.sol\":2365:2420  require(msg.value > 0, \"Bid must be greater than zero\") */\n      tag_88\n      jumpi\n      mload(0x40)\n      0x08c379a000000000000000000000000000000000000000000000000000000000\n      dup2\n      mstore\n      0x04\n      add\n      tag_89\n      swap1\n      tag_90\n      jump\t// in\n    tag_89:\n      mload(0x40)\n      dup1\n      swap2\n      sub\n      swap1\n      revert\n    tag_88:\n        /* \"contracts/OtroEjemploSubastaMasCompleto.sol\":2431:2450  uint256 nuevaOferta */\n      0x00\n        /* \"contracts/OtroEjemploSubastaMasCompleto.sol\":2484:2493  msg.value */\n      callvalue\n        /* \"contracts/OtroEjemploSubastaMasCompleto.sol\":2453:2469  balancePendiente */\n      0x06\n        /* \"contracts/OtroEjemploSubastaMasCompleto.sol\":2453:2481  balancePendiente[msg.sender] */\n      0x00\n        /* \"contracts/OtroEjemploSubastaMasCompleto.sol\":2470:2480  msg.sender */\n      caller\n        /* \"contracts/OtroEjemploSubastaMasCompleto.sol\":2453:2481  balancePendiente[msg.sender] */\n      0xffffffffffffffffffffffffffffffffffffffff\n      and\n      0xffffffffffffffffffffffffffffffffffffffff\n      and\n      dup2\n      mstore\n      0x20\n      add\n      swap1\n      dup2\n      mstore\n      0x20\n      add\n      0x00\n      keccak256\n      sload\n        /* \"contracts/OtroEjemploSubastaMasCompleto.sol\":2453:2493  balancePendiente[msg.sender] + msg.value */\n      tag_91\n      swap2\n      swap1\n      tag_92\n      jump\t// in\n    tag_91:\n        /* \"contracts/OtroEjemploSubastaMasCompleto.sol\":2431:2493  uint256 nuevaOferta = balancePendiente[msg.sender] + msg.value */\n      swap1\n      pop\n        /* \"contracts/OtroEjemploSubastaMasCompleto.sol\":2572:2575  100 */\n      0x64\n        /* \"contracts/OtroEjemploSubastaMasCompleto.sol\":1214:1215  5 */\n      0x05\n        /* \"contracts/OtroEjemploSubastaMasCompleto.sol\":2540:2550  highestBid */\n      sload(0x04)\n        /* \"contracts/OtroEjemploSubastaMasCompleto.sol\":2540:2568  highestBid * BID_INC_PERCENT */\n      tag_93\n      swap2\n      swap1\n      tag_94\n      jump\t// in\n    tag_93:\n        /* \"contracts/OtroEjemploSubastaMasCompleto.sol\":2539:2575  (highestBid * BID_INC_PERCENT) / 100 */\n      tag_95\n      swap2\n      swap1\n      tag_96\n      jump\t// in\n    tag_95:\n        /* \"contracts/OtroEjemploSubastaMasCompleto.sol\":2526:2536  highestBid */\n      sload(0x04)\n        /* \"contracts/OtroEjemploSubastaMasCompleto.sol\":2526:2575  highestBid + (highestBid * BID_INC_PERCENT) / 100 */\n      tag_97\n      swap2\n      swap1\n      tag_92\n      jump\t// in\n    tag_97:\n        /* \"contracts/OtroEjemploSubastaMasCompleto.sol\":2511:2522  nuevaOferta */\n      dup2\n        /* \"contracts/OtroEjemploSubastaMasCompleto.sol\":2511:2575  nuevaOferta >= highestBid + (highestBid * BID_INC_PERCENT) / 100 */\n      lt\n      iszero\n        /* \"contracts/OtroEjemploSubastaMasCompleto.sol\":2503:2612  require(nuevaOferta >= highestBid + (highestBid * BID_INC_PERCENT) / 100, \"Offer must be at least 5% higher\") */\n      tag_98\n      jumpi\n      mload(0x40)\n      0x08c379a000000000000000000000000000000000000000000000000000000000\n      dup2\n      mstore\n      0x04\n      add\n      tag_99\n      swap1\n      tag_100\n      jump\t// in\n    tag_99:\n      mload(0x40)\n      dup1\n      swap2\n      sub\n      swap1\n      revert\n    tag_98:\n        /* \"contracts/OtroEjemploSubastaMasCompleto.sol\":2654:2661  ofertas */\n      0x05\n        /* \"contracts/OtroEjemploSubastaMasCompleto.sol\":2667:2698  Oferta(msg.sender, nuevaOferta) */\n      mload(0x40)\n      dup1\n      0x40\n      add\n      0x40\n      mstore\n      dup1\n        /* \"contracts/OtroEjemploSubastaMasCompleto.sol\":2674:2684  msg.sender */\n      caller\n        /* \"contracts/OtroEjemploSubastaMasCompleto.sol\":2667:2698  Oferta(msg.sender, nuevaOferta) */\n      0xffffffffffffffffffffffffffffffffffffffff\n      and\n      dup2\n      mstore\n      0x20\n      add\n        /* \"contracts/OtroEjemploSubastaMasCompleto.sol\":2686:2697  nuevaOferta */\n      dup4\n        /* \"contracts/OtroEjemploSubastaMasCompleto.sol\":2667:2698  Oferta(msg.sender, nuevaOferta) */\n      dup2\n      mstore\n      pop\n        /* \"contracts/OtroEjemploSubastaMasCompleto.sol\":2654:2699  ofertas.push(Oferta(msg.sender, nuevaOferta)) */\n      swap1\n      dup1\n      0x01\n      dup2\n      sload\n      add\n      dup1\n      dup3\n      sstore\n      dup1\n      swap2\n      pop\n      pop\n      0x01\n      swap1\n      sub\n      swap1\n      0x00\n      mstore\n      keccak256(0x00, 0x20)\n      swap1\n      0x02\n      mul\n      add\n      0x00\n      swap1\n      swap2\n      swap1\n      swap2\n      swap1\n      swap2\n      pop\n      0x00\n      dup3\n      add\n      mload\n      dup2\n      0x00\n      add\n      exp(0x0100, 0x00)\n      dup2\n      sload\n      dup2\n      0xffffffffffffffffffffffffffffffffffffffff\n      mul\n      not\n      and\n      swap1\n      dup4\n      0xffffffffffffffffffffffffffffffffffffffff\n      and\n      mul\n      or\n      swap1\n      sstore\n      pop\n      0x20\n      dup3\n      add\n      mload\n      dup2\n      0x01\n      add\n      sstore\n      pop\n      pop\n        /* \"contracts/OtroEjemploSubastaMasCompleto.sol\":2808:2809  0 */\n      0x00\n        /* \"contracts/OtroEjemploSubastaMasCompleto.sol\":2777:2793  balancePendiente */\n      0x06\n        /* \"contracts/OtroEjemploSubastaMasCompleto.sol\":2777:2805  balancePendiente[msg.sender] */\n      0x00\n        /* \"contracts/OtroEjemploSubastaMasCompleto.sol\":2794:2804  msg.sender */\n      caller\n        /* \"contracts/OtroEjemploSubastaMasCompleto.sol\":2777:2805  balancePendiente[msg.sender] */\n      0xffffffffffffffffffffffffffffffffffffffff\n      and\n      0xffffffffffffffffffffffffffffffffffffffff\n      and\n      dup2\n      mstore\n      0x20\n      add\n      swap1\n      dup2\n      mstore\n      0x20\n      add\n      0x00\n      keccak256\n      sload\n        /* \"contracts/OtroEjemploSubastaMasCompleto.sol\":2777:2809  balancePendiente[msg.sender] > 0 */\n      gt\n        /* \"contracts/OtroEjemploSubastaMasCompleto.sol\":2773:2977  if (balancePendiente[msg.sender] > 0) {... */\n      iszero\n      tag_102\n      jumpi\n        /* \"contracts/OtroEjemploSubastaMasCompleto.sol\":2825:2839  uint256 exceso */\n      0x00\n        /* \"contracts/OtroEjemploSubastaMasCompleto.sol\":2842:2858  balancePendiente */\n      0x06\n        /* \"contracts/OtroEjemploSubastaMasCompleto.sol\":2842:2870  balancePendiente[msg.sender] */\n      0x00\n        /* \"contracts/OtroEjemploSubastaMasCompleto.sol\":2859:2869  msg.sender */\n      caller\n        /* \"contracts/OtroEjemploSubastaMasCompleto.sol\":2842:2870  balancePendiente[msg.sender] */\n      0xffffffffffffffffffffffffffffffffffffffff\n      and\n      0xffffffffffffffffffffffffffffffffffffffff\n      and\n      dup2\n      mstore\n      0x20\n      add\n      swap1\n      dup2\n      mstore\n      0x20\n      add\n      0x00\n      keccak256\n      sload\n        /* \"contracts/OtroEjemploSubastaMasCompleto.sol\":2825:2870  uint256 exceso = balancePendiente[msg.sender] */\n      swap1\n      pop\n        /* \"contracts/OtroEjemploSubastaMasCompleto.sol\":2915:2916  0 */\n      0x00\n        /* \"contracts/OtroEjemploSubastaMasCompleto.sol\":2884:2900  balancePendiente */\n      0x06\n        /* \"contracts/OtroEjemploSubastaMasCompleto.sol\":2884:2912  balancePendiente[msg.sender] */\n      0x00\n        /* \"contracts/OtroEjemploSubastaMasCompleto.sol\":2901:2911  msg.sender */\n      caller\n        /* \"contracts/OtroEjemploSubastaMasCompleto.sol\":2884:2912  balancePendiente[msg.sender] */\n      0xffffffffffffffffffffffffffffffffffffffff\n      and\n      0xffffffffffffffffffffffffffffffffffffffff\n      and\n      dup2\n      mstore\n      0x20\n      add\n      swap1\n      dup2\n      mstore\n      0x20\n      add\n      0x00\n      keccak256\n        /* \"contracts/OtroEjemploSubastaMasCompleto.sol\":2884:2916  balancePendiente[msg.sender] = 0 */\n      dup2\n      swap1\n      sstore\n      pop\n        /* \"contracts/OtroEjemploSubastaMasCompleto.sol\":2938:2948  msg.sender */\n      caller\n        /* \"contracts/OtroEjemploSubastaMasCompleto.sol\":2930:2958  payable(msg.sender).transfer */\n      0xffffffffffffffffffffffffffffffffffffffff\n      and\n        /* \"contracts/OtroEjemploSubastaMasCompleto.sol\":2930:2966  payable(msg.sender).transfer(exceso) */\n      0x08fc\n        /* \"contracts/OtroEjemploSubastaMasCompleto.sol\":2959:2965  exceso */\n      dup3\n        /* \"contracts/OtroEjemploSubastaMasCompleto.sol\":2930:2966  payable(msg.sender).transfer(exceso) */\n      swap1\n      dup2\n      iszero\n      mul\n      swap1\n      mload(0x40)\n      0x00\n      mload(0x40)\n      dup1\n      dup4\n      sub\n      dup2\n      dup6\n      dup9\n      dup9\n      call\n      swap4\n      pop\n      pop\n      pop\n      pop\n      iszero\n      dup1\n      iszero\n      tag_104\n      jumpi\n      returndatasize\n      0x00\n      dup1\n      returndatacopy\n      revert(0x00, returndatasize)\n    tag_104:\n      pop\n        /* \"contracts/OtroEjemploSubastaMasCompleto.sol\":2811:2977  {... */\n      pop\n        /* \"contracts/OtroEjemploSubastaMasCompleto.sol\":2773:2977  if (balancePendiente[msg.sender] > 0) {... */\n    tag_102:\n        /* \"contracts/OtroEjemploSubastaMasCompleto.sol\":3041:3051  msg.sender */\n      caller\n        /* \"contracts/OtroEjemploSubastaMasCompleto.sol\":3025:3038  highestBidder */\n      0x03\n      0x00\n        /* \"contracts/OtroEjemploSubastaMasCompleto.sol\":3025:3051  highestBidder = msg.sender */\n      0x0100\n      exp\n      dup2\n      sload\n      dup2\n      0xffffffffffffffffffffffffffffffffffffffff\n      mul\n      not\n      and\n      swap1\n      dup4\n      0xffffffffffffffffffffffffffffffffffffffff\n      and\n      mul\n      or\n      swap1\n      sstore\n      pop\n        /* \"contracts/OtroEjemploSubastaMasCompleto.sol\":3074:3085  nuevaOferta */\n      dup1\n        /* \"contracts/OtroEjemploSubastaMasCompleto.sol\":3061:3071  highestBid */\n      0x04\n        /* \"contracts/OtroEjemploSubastaMasCompleto.sol\":3061:3085  highestBid = nuevaOferta */\n      dup2\n      swap1\n      sstore\n      pop\n        /* \"contracts/OtroEjemploSubastaMasCompleto.sol\":3126:3137  nuevaOferta */\n      dup1\n        /* \"contracts/OtroEjemploSubastaMasCompleto.sol\":3095:3111  balancePendiente */\n      0x06\n        /* \"contracts/OtroEjemploSubastaMasCompleto.sol\":3095:3123  balancePendiente[msg.sender] */\n      0x00\n        /* \"contracts/OtroEjemploSubastaMasCompleto.sol\":3112:3122  msg.sender */\n      caller\n        /* \"contracts/OtroEjemploSubastaMasCompleto.sol\":3095:3123  balancePendiente[msg.sender] */\n      0xffffffffffffffffffffffffffffffffffffffff\n      and\n      0xffffffffffffffffffffffffffffffffffffffff\n      and\n      dup2\n      mstore\n      0x20\n      add\n      swap1\n      dup2\n      mstore\n      0x20\n      add\n      0x00\n      keccak256\n        /* \"contracts/OtroEjemploSubastaMasCompleto.sol\":3095:3137  balancePendiente[msg.sender] = nuevaOferta */\n      dup2\n      swap1\n      sstore\n      pop\n        /* \"contracts/OtroEjemploSubastaMasCompleto.sol\":3165:3175  msg.sender */\n      caller\n        /* \"contracts/OtroEjemploSubastaMasCompleto.sol\":3153:3206  NuevaOferta(msg.sender, nuevaOferta, block.timestamp) */\n      0xffffffffffffffffffffffffffffffffffffffff\n      and\n      0xc0ee0120c42d2a25d2d9a3d40a59a7570ca25f0fa2f9fd6a8b885a761f0beefa\n        /* \"contracts/OtroEjemploSubastaMasCompleto.sol\":3177:3188  nuevaOferta */\n      dup3\n        /* \"contracts/OtroEjemploSubastaMasCompleto.sol\":3190:3205  block.timestamp */\n      timestamp\n        /* \"contracts/OtroEjemploSubastaMasCompleto.sol\":3153:3206  NuevaOferta(msg.sender, nuevaOferta, block.timestamp) */\n      mload(0x40)\n      tag_105\n      swap3\n      swap2\n      swap1\n      tag_106\n      jump\t// in\n    tag_105:\n      mload(0x40)\n      dup1\n      swap2\n      sub\n      swap1\n      log2\n        /* \"contracts/OtroEjemploSubastaMasCompleto.sol\":3327:3337  10 minutes */\n      0x0258\n        /* \"contracts/OtroEjemploSubastaMasCompleto.sol\":3314:3324  bidEndTime */\n      sload(0x02)\n        /* \"contracts/OtroEjemploSubastaMasCompleto.sol\":3314:3337  bidEndTime - 10 minutes */\n      tag_107\n      swap2\n      swap1\n      tag_108\n      jump\t// in\n    tag_107:\n        /* \"contracts/OtroEjemploSubastaMasCompleto.sol\":3295:3310  block.timestamp */\n      timestamp\n        /* \"contracts/OtroEjemploSubastaMasCompleto.sol\":3295:3337  block.timestamp >= bidEndTime - 10 minutes */\n      lt\n        /* \"contracts/OtroEjemploSubastaMasCompleto.sol\":3291:3432  if (block.timestamp >= bidEndTime - 10 minutes) {... */\n      tag_109\n      jumpi\n        /* \"contracts/OtroEjemploSubastaMasCompleto.sol\":1156:1166  10 minutes */\n      0x0258\n        /* \"contracts/OtroEjemploSubastaMasCompleto.sol\":3353:3363  bidEndTime */\n      0x02\n      0x00\n        /* \"contracts/OtroEjemploSubastaMasCompleto.sol\":3353:3375  bidEndTime += EXT_TIME */\n      dup3\n      dup3\n      sload\n      tag_110\n      swap2\n      swap1\n      tag_92\n      jump\t// in\n    tag_110:\n      swap3\n      pop\n      pop\n      dup2\n      swap1\n      sstore\n      pop\n        /* \"contracts/OtroEjemploSubastaMasCompleto.sol\":3394:3421  ExtiendeSubasta(bidEndTime) */\n      0xd00df96ab7dbc2500d2727d4e26bfa8f37e005495bb12f2af6ba48952c742c17\n        /* \"contracts/OtroEjemploSubastaMasCompleto.sol\":3410:3420  bidEndTime */\n      sload(0x02)\n        /* \"contracts/OtroEjemploSubastaMasCompleto.sol\":3394:3421  ExtiendeSubasta(bidEndTime) */\n      mload(0x40)\n      tag_111\n      swap2\n      swap1\n      tag_24\n      jump\t// in\n    tag_111:\n      mload(0x40)\n      dup1\n      swap2\n      sub\n      swap1\n      log1\n        /* \"contracts/OtroEjemploSubastaMasCompleto.sol\":3291:3432  if (block.timestamp >= bidEndTime - 10 minutes) {... */\n    tag_109:\n        /* \"contracts/OtroEjemploSubastaMasCompleto.sol\":2355:3438  {... */\n      pop\n        /* \"contracts/OtroEjemploSubastaMasCompleto.sol\":2300:3438  function ofertar() external payable soloMientrasActiva {... */\n      jump\t// out\n        /* \"contracts/OtroEjemploSubastaMasCompleto.sol\":1025:1050  uint256 public bidEndTime */\n    tag_34:\n      sload(0x02)\n      dup2\n      jump\t// out\n        /* \"contracts/OtroEjemploSubastaMasCompleto.sol\":3750:4540  function devolverDepositos() external payable onlyOwner {... */\n    tag_37:\n        /* \"contracts/OtroEjemploSubastaMasCompleto.sol\":1850:1858  bidOwner */\n      0x00\n      dup1\n      sload\n      swap1\n      0x0100\n      exp\n      swap1\n      div\n      0xffffffffffffffffffffffffffffffffffffffff\n      and\n        /* \"contracts/OtroEjemploSubastaMasCompleto.sol\":1836:1858  msg.sender == bidOwner */\n      0xffffffffffffffffffffffffffffffffffffffff\n      and\n        /* \"contracts/OtroEjemploSubastaMasCompleto.sol\":1836:1846  msg.sender */\n      caller\n        /* \"contracts/OtroEjemploSubastaMasCompleto.sol\":1836:1858  msg.sender == bidOwner */\n      0xffffffffffffffffffffffffffffffffffffffff\n      and\n      eq\n        /* \"contracts/OtroEjemploSubastaMasCompleto.sol\":1828:1896  require(msg.sender == bidOwner, \"This feature is reserved to Owner\") */\n      tag_113\n      jumpi\n      mload(0x40)\n      0x08c379a000000000000000000000000000000000000000000000000000000000\n      dup2\n      mstore\n      0x04\n      add\n      tag_114\n      swap1\n      tag_115\n      jump\t// in\n    tag_114:\n      mload(0x40)\n      dup1\n      swap2\n      sub\n      swap1\n      revert\n    tag_113:\n        /* \"contracts/OtroEjemploSubastaMasCompleto.sol\":3842:3852  bidEndTime */\n      sload(0x02)\n        /* \"contracts/OtroEjemploSubastaMasCompleto.sol\":3824:3839  block.timestamp */\n      timestamp\n        /* \"contracts/OtroEjemploSubastaMasCompleto.sol\":3824:3852  block.timestamp > bidEndTime */\n      gt\n        /* \"contracts/OtroEjemploSubastaMasCompleto.sol\":3816:3885  require(block.timestamp > bidEndTime, \"La subasta aun esta en curso\") */\n      tag_117\n      jumpi\n      mload(0x40)\n      0x08c379a000000000000000000000000000000000000000000000000000000000\n      dup2\n      mstore\n      0x04\n      add\n      tag_118\n      swap1\n      tag_119\n      jump\t// in\n    tag_118:\n      mload(0x40)\n      dup1\n      swap2\n      sub\n      swap1\n      revert\n    tag_117:\n        /* \"contracts/OtroEjemploSubastaMasCompleto.sol\":3900:3909  uint256 i */\n      0x00\n        /* \"contracts/OtroEjemploSubastaMasCompleto.sol\":3895:4476  for (uint256 i = 0; i < ofertas.length; i++) {... */\n    tag_120:\n        /* \"contracts/OtroEjemploSubastaMasCompleto.sol\":3919:3926  ofertas */\n      0x05\n        /* \"contracts/OtroEjemploSubastaMasCompleto.sol\":3919:3933  ofertas.length */\n      dup1\n      sload\n      swap1\n      pop\n        /* \"contracts/OtroEjemploSubastaMasCompleto.sol\":3915:3916  i */\n      dup2\n        /* \"contracts/OtroEjemploSubastaMasCompleto.sol\":3915:3933  i < ofertas.length */\n      lt\n        /* \"contracts/OtroEjemploSubastaMasCompleto.sol\":3895:4476  for (uint256 i = 0; i < ofertas.length; i++) {... */\n      iszero\n      tag_121\n      jumpi\n        /* \"contracts/OtroEjemploSubastaMasCompleto.sol\":3954:3970  address oferente */\n      0x00\n        /* \"contracts/OtroEjemploSubastaMasCompleto.sol\":3973:3980  ofertas */\n      0x05\n        /* \"contracts/OtroEjemploSubastaMasCompleto.sol\":3981:3982  i */\n      dup3\n        /* \"contracts/OtroEjemploSubastaMasCompleto.sol\":3973:3983  ofertas[i] */\n      dup2\n      sload\n      dup2\n      lt\n      tag_123\n      jumpi\n      tag_124\n      tag_125\n      jump\t// in\n    tag_124:\n    tag_123:\n      swap1\n      0x00\n      mstore\n      keccak256(0x00, 0x20)\n      swap1\n      0x02\n      mul\n      add\n        /* \"contracts/OtroEjemploSubastaMasCompleto.sol\":3973:3990  ofertas[i].bidder */\n      0x00\n      add\n      0x00\n      swap1\n      sload\n      swap1\n      0x0100\n      exp\n      swap1\n      div\n      0xffffffffffffffffffffffffffffffffffffffff\n      and\n        /* \"contracts/OtroEjemploSubastaMasCompleto.sol\":3954:3990  address oferente = ofertas[i].bidder */\n      swap1\n      pop\n        /* \"contracts/OtroEjemploSubastaMasCompleto.sol\":4004:4025  uint256 montoOfrecido */\n      0x00\n        /* \"contracts/OtroEjemploSubastaMasCompleto.sol\":4028:4044  balancePendiente */\n      0x06\n        /* \"contracts/OtroEjemploSubastaMasCompleto.sol\":4028:4054  balancePendiente[oferente] */\n      0x00\n        /* \"contracts/OtroEjemploSubastaMasCompleto.sol\":4045:4053  oferente */\n      dup4\n        /* \"contracts/OtroEjemploSubastaMasCompleto.sol\":4028:4054  balancePendiente[oferente] */\n      0xffffffffffffffffffffffffffffffffffffffff\n      and\n      0xffffffffffffffffffffffffffffffffffffffff\n      and\n      dup2\n      mstore\n      0x20\n      add\n      swap1\n      dup2\n      mstore\n      0x20\n      add\n      0x00\n      keccak256\n      sload\n        /* \"contracts/OtroEjemploSubastaMasCompleto.sol\":4004:4054  uint256 montoOfrecido = balancePendiente[oferente] */\n      swap1\n      pop\n        /* \"contracts/OtroEjemploSubastaMasCompleto.sol\":4097:4110  highestBidder */\n      0x03\n      0x00\n      swap1\n      sload\n      swap1\n      0x0100\n      exp\n      swap1\n      div\n      0xffffffffffffffffffffffffffffffffffffffff\n      and\n        /* \"contracts/OtroEjemploSubastaMasCompleto.sol\":4085:4110  oferente != highestBidder */\n      0xffffffffffffffffffffffffffffffffffffffff\n      and\n        /* \"contracts/OtroEjemploSubastaMasCompleto.sol\":4085:4093  oferente */\n      dup3\n        /* \"contracts/OtroEjemploSubastaMasCompleto.sol\":4085:4110  oferente != highestBidder */\n      0xffffffffffffffffffffffffffffffffffffffff\n      and\n      eq\n      iszero\n        /* \"contracts/OtroEjemploSubastaMasCompleto.sol\":4085:4131  oferente != highestBidder && montoOfrecido > 0 */\n      dup1\n      iszero\n      tag_127\n      jumpi\n      pop\n        /* \"contracts/OtroEjemploSubastaMasCompleto.sol\":4130:4131  0 */\n      0x00\n        /* \"contracts/OtroEjemploSubastaMasCompleto.sol\":4114:4127  montoOfrecido */\n      dup2\n        /* \"contracts/OtroEjemploSubastaMasCompleto.sol\":4114:4131  montoOfrecido > 0 */\n      gt\n        /* \"contracts/OtroEjemploSubastaMasCompleto.sol\":4085:4131  oferente != highestBidder && montoOfrecido > 0 */\n    tag_127:\n        /* \"contracts/OtroEjemploSubastaMasCompleto.sol\":4081:4466  if (oferente != highestBidder && montoOfrecido > 0) {... */\n      iszero\n      tag_128\n      jumpi\n        /* \"contracts/OtroEjemploSubastaMasCompleto.sol\":4151:4167  uint256 comision */\n      0x00\n        /* \"contracts/OtroEjemploSubastaMasCompleto.sol\":4209:4212  100 */\n      0x64\n        /* \"contracts/OtroEjemploSubastaMasCompleto.sol\":1292:1293  2 */\n      0x02\n        /* \"contracts/OtroEjemploSubastaMasCompleto.sol\":4171:4184  montoOfrecido */\n      dup4\n        /* \"contracts/OtroEjemploSubastaMasCompleto.sol\":4171:4205  montoOfrecido * COMMISSION_PERCENT */\n      tag_129\n      swap2\n      swap1\n      tag_94\n      jump\t// in\n    tag_129:\n        /* \"contracts/OtroEjemploSubastaMasCompleto.sol\":4170:4212  (montoOfrecido * COMMISSION_PERCENT) / 100 */\n      tag_130\n      swap2\n      swap1\n      tag_96\n      jump\t// in\n    tag_130:\n        /* \"contracts/OtroEjemploSubastaMasCompleto.sol\":4151:4212  uint256 comision = (montoOfrecido * COMMISSION_PERCENT) / 100 */\n      swap1\n      pop\n        /* \"contracts/OtroEjemploSubastaMasCompleto.sol\":4230:4251  uint256 montoDevuelto */\n      0x00\n        /* \"contracts/OtroEjemploSubastaMasCompleto.sol\":4270:4278  comision */\n      dup2\n        /* \"contracts/OtroEjemploSubastaMasCompleto.sol\":4254:4267  montoOfrecido */\n      dup4\n        /* \"contracts/OtroEjemploSubastaMasCompleto.sol\":4254:4278  montoOfrecido - comision */\n      tag_131\n      swap2\n      swap1\n      tag_108\n      jump\t// in\n    tag_131:\n        /* \"contracts/OtroEjemploSubastaMasCompleto.sol\":4230:4278  uint256 montoDevuelto = montoOfrecido - comision */\n      swap1\n      pop\n        /* \"contracts/OtroEjemploSubastaMasCompleto.sol\":4326:4327  0 */\n      0x00\n        /* \"contracts/OtroEjemploSubastaMasCompleto.sol\":4297:4313  balancePendiente */\n      0x06\n        /* \"contracts/OtroEjemploSubastaMasCompleto.sol\":4297:4323  balancePendiente[oferente] */\n      0x00\n        /* \"contracts/OtroEjemploSubastaMasCompleto.sol\":4314:4322  oferente */\n      dup7\n        /* \"contracts/OtroEjemploSubastaMasCompleto.sol\":4297:4323  balancePendiente[oferente] */\n      0xffffffffffffffffffffffffffffffffffffffff\n      and\n      0xffffffffffffffffffffffffffffffffffffffff\n      and\n      dup2\n      mstore\n      0x20\n      add\n      swap1\n      dup2\n      mstore\n      0x20\n      add\n      0x00\n      keccak256\n        /* \"contracts/OtroEjemploSubastaMasCompleto.sol\":4297:4327  balancePendiente[oferente] = 0 */\n      dup2\n      swap1\n      sstore\n      pop\n        /* \"contracts/OtroEjemploSubastaMasCompleto.sol\":4353:4361  oferente */\n      dup4\n        /* \"contracts/OtroEjemploSubastaMasCompleto.sol\":4345:4371  payable(oferente).transfer */\n      0xffffffffffffffffffffffffffffffffffffffff\n      and\n        /* \"contracts/OtroEjemploSubastaMasCompleto.sol\":4345:4386  payable(oferente).transfer(montoDevuelto) */\n      0x08fc\n        /* \"contracts/OtroEjemploSubastaMasCompleto.sol\":4372:4385  montoDevuelto */\n      dup3\n        /* \"contracts/OtroEjemploSubastaMasCompleto.sol\":4345:4386  payable(oferente).transfer(montoDevuelto) */\n      swap1\n      dup2\n      iszero\n      mul\n      swap1\n      mload(0x40)\n      0x00\n      mload(0x40)\n      dup1\n      dup4\n      sub\n      dup2\n      dup6\n      dup9\n      dup9\n      call\n      swap4\n      pop\n      pop\n      pop\n      pop\n      iszero\n      dup1\n      iszero\n      tag_133\n      jumpi\n      returndatasize\n      0x00\n      dup1\n      returndatacopy\n      revert(0x00, returndatasize)\n    tag_133:\n      pop\n        /* \"contracts/OtroEjemploSubastaMasCompleto.sol\":4427:4435  oferente */\n      dup4\n        /* \"contracts/OtroEjemploSubastaMasCompleto.sol\":4410:4451  DepositoDevuelto(oferente, montoDevuelto) */\n      0xffffffffffffffffffffffffffffffffffffffff\n      and\n      0xc10e1a954b8aadb1bccad4ac0748414b575923ae1fe13aefe1b068c06019d73f\n        /* \"contracts/OtroEjemploSubastaMasCompleto.sol\":4437:4450  montoDevuelto */\n      dup3\n        /* \"contracts/OtroEjemploSubastaMasCompleto.sol\":4410:4451  DepositoDevuelto(oferente, montoDevuelto) */\n      mload(0x40)\n      tag_134\n      swap2\n      swap1\n      tag_24\n      jump\t// in\n    tag_134:\n      mload(0x40)\n      dup1\n      swap2\n      sub\n      swap1\n      log2\n        /* \"contracts/OtroEjemploSubastaMasCompleto.sol\":4133:4466  {... */\n      pop\n      pop\n        /* \"contracts/OtroEjemploSubastaMasCompleto.sol\":4081:4466  if (oferente != highestBidder && montoOfrecido > 0) {... */\n    tag_128:\n        /* \"contracts/OtroEjemploSubastaMasCompleto.sol\":3940:4476  {... */\n      pop\n      pop\n        /* \"contracts/OtroEjemploSubastaMasCompleto.sol\":3935:3938  i++ */\n      dup1\n      dup1\n      0x01\n      add\n      swap2\n      pop\n      pop\n        /* \"contracts/OtroEjemploSubastaMasCompleto.sol\":3895:4476  for (uint256 i = 0; i < ofertas.length; i++) {... */\n      jump(tag_120)\n    tag_121:\n      pop\n        /* \"contracts/OtroEjemploSubastaMasCompleto.sol\":4490:4533  GanadorAnunciado(highestBidder, highestBid) */\n      0xe3a2429a7985fd026b75a901911e3bee729e9f160f1b0e3a09596d891ed7e06f\n        /* \"contracts/OtroEjemploSubastaMasCompleto.sol\":4507:4520  highestBidder */\n      0x03\n      0x00\n      swap1\n      sload\n      swap1\n      0x0100\n      exp\n      swap1\n      div\n      0xffffffffffffffffffffffffffffffffffffffff\n      and\n        /* \"contracts/OtroEjemploSubastaMasCompleto.sol\":4522:4532  highestBid */\n      sload(0x04)\n        /* \"contracts/OtroEjemploSubastaMasCompleto.sol\":4490:4533  GanadorAnunciado(highestBidder, highestBid) */\n      mload(0x40)\n      tag_135\n      swap3\n      swap2\n      swap1\n      tag_44\n      jump\t// in\n    tag_135:\n      mload(0x40)\n      dup1\n      swap2\n      sub\n      swap1\n      log1\n        /* \"contracts/OtroEjemploSubastaMasCompleto.sol\":3750:4540  function devolverDepositos() external payable onlyOwner {... */\n      jump\t// out\n        /* \"contracts/OtroEjemploSubastaMasCompleto.sol\":1407:1430  Oferta[] public ofertas */\n    tag_42:\n      0x05\n      dup2\n      dup2\n      sload\n      dup2\n      lt\n      tag_136\n      jumpi\n      0x00\n      dup1\n      revert\n    tag_136:\n      swap1\n      0x00\n      mstore\n      keccak256(0x00, 0x20)\n      swap1\n      0x02\n      mul\n      add\n      0x00\n      swap2\n      pop\n      swap1\n      pop\n      dup1\n      0x00\n      add\n      0x00\n      swap1\n      sload\n      swap1\n      0x0100\n      exp\n      swap1\n      div\n      0xffffffffffffffffffffffffffffffffffffffff\n      and\n      swap1\n      dup1\n      0x01\n      add\n      sload\n      swap1\n      pop\n      dup3\n      jump\t// out\n        /* \"contracts/OtroEjemploSubastaMasCompleto.sol\":992:1019  uint256 public bidStartTime */\n    tag_47:\n      sload(0x01)\n      dup2\n      jump\t// out\n        /* \"contracts/OtroEjemploSubastaMasCompleto.sol\":1436:1487  mapping(address => uint256) public balancePendiente */\n    tag_53:\n      mstore(0x20, 0x06)\n      dup1\n      0x00\n      mstore\n      keccak256(0x00, 0x40)\n      0x00\n      swap2\n      pop\n      swap1\n      pop\n      sload\n      dup2\n      jump\t// out\n        /* \"contracts/OtroEjemploSubastaMasCompleto.sol\":3444:3641  function mostrarGanador() external view returns (address, uint256) {... */\n    tag_57:\n        /* \"contracts/OtroEjemploSubastaMasCompleto.sol\":3493:3500  address */\n      0x00\n        /* \"contracts/OtroEjemploSubastaMasCompleto.sol\":3502:3509  uint256 */\n      dup1\n        /* \"contracts/OtroEjemploSubastaMasCompleto.sol\":3547:3557  bidEndTime */\n      sload(0x02)\n        /* \"contracts/OtroEjemploSubastaMasCompleto.sol\":3529:3544  block.timestamp */\n      timestamp\n        /* \"contracts/OtroEjemploSubastaMasCompleto.sol\":3529:3557  block.timestamp > bidEndTime */\n      gt\n        /* \"contracts/OtroEjemploSubastaMasCompleto.sol\":3521:3590  require(block.timestamp > bidEndTime, \"La subasta aun esta en curso\") */\n      tag_139\n      jumpi\n      mload(0x40)\n      0x08c379a000000000000000000000000000000000000000000000000000000000\n      dup2\n      mstore\n      0x04\n      add\n      tag_140\n      swap1\n      tag_119\n      jump\t// in\n    tag_140:\n      mload(0x40)\n      dup1\n      swap2\n      sub\n      swap1\n      revert\n    tag_139:\n        /* \"contracts/OtroEjemploSubastaMasCompleto.sol\":3608:3621  highestBidder */\n      0x03\n      0x00\n      swap1\n      sload\n      swap1\n      0x0100\n      exp\n      swap1\n      div\n      0xffffffffffffffffffffffffffffffffffffffff\n      and\n        /* \"contracts/OtroEjemploSubastaMasCompleto.sol\":3623:3633  highestBid */\n      sload(0x04)\n        /* \"contracts/OtroEjemploSubastaMasCompleto.sol\":3600:3634  return (highestBidder, highestBid) */\n      swap2\n      pop\n      swap2\n      pop\n        /* \"contracts/OtroEjemploSubastaMasCompleto.sol\":3444:3641  function mostrarGanador() external view returns (address, uint256) {... */\n      swap1\n      swap2\n      jump\t// out\n        /* \"contracts/OtroEjemploSubastaMasCompleto.sol\":1172:1215  uint256 public constant BID_INC_PERCENT = 5 */\n    tag_61:\n        /* \"contracts/OtroEjemploSubastaMasCompleto.sol\":1214:1215  5 */\n      0x05\n        /* \"contracts/OtroEjemploSubastaMasCompleto.sol\":1172:1215  uint256 public constant BID_INC_PERCENT = 5 */\n      dup2\n      jump\t// out\n        /* \"contracts/OtroEjemploSubastaMasCompleto.sol\":1056:1084  address public highestBidder */\n    tag_65:\n      0x03\n      0x00\n      swap1\n      sload\n      swap1\n      0x0100\n      exp\n      swap1\n      div\n      0xffffffffffffffffffffffffffffffffffffffff\n      and\n      dup2\n      jump\t// out\n        /* \"contracts/OtroEjemploSubastaMasCompleto.sol\":1247:1293  uint256 public constant COMMISSION_PERCENT = 2 */\n    tag_69:\n        /* \"contracts/OtroEjemploSubastaMasCompleto.sol\":1292:1293  2 */\n      0x02\n        /* \"contracts/OtroEjemploSubastaMasCompleto.sol\":1247:1293  uint256 public constant COMMISSION_PERCENT = 2 */\n      dup2\n      jump\t// out\n        /* \"contracts/OtroEjemploSubastaMasCompleto.sol\":4546:4817  function retirarExceso() external {... */\n    tag_73:\n        /* \"contracts/OtroEjemploSubastaMasCompleto.sol\":4590:4604  uint256 exceso */\n      0x00\n        /* \"contracts/OtroEjemploSubastaMasCompleto.sol\":4638:4648  highestBid */\n      sload(0x04)\n        /* \"contracts/OtroEjemploSubastaMasCompleto.sol\":4607:4623  balancePendiente */\n      0x06\n        /* \"contracts/OtroEjemploSubastaMasCompleto.sol\":4607:4635  balancePendiente[msg.sender] */\n      0x00\n        /* \"contracts/OtroEjemploSubastaMasCompleto.sol\":4624:4634  msg.sender */\n      caller\n        /* \"contracts/OtroEjemploSubastaMasCompleto.sol\":4607:4635  balancePendiente[msg.sender] */\n      0xffffffffffffffffffffffffffffffffffffffff\n      and\n      0xffffffffffffffffffffffffffffffffffffffff\n      and\n      dup2\n      mstore\n      0x20\n      add\n      swap1\n      dup2\n      mstore\n      0x20\n      add\n      0x00\n      keccak256\n      sload\n        /* \"contracts/OtroEjemploSubastaMasCompleto.sol\":4607:4648  balancePendiente[msg.sender] - highestBid */\n      tag_142\n      swap2\n      swap1\n      tag_108\n      jump\t// in\n    tag_142:\n        /* \"contracts/OtroEjemploSubastaMasCompleto.sol\":4590:4648  uint256 exceso = balancePendiente[msg.sender] - highestBid */\n      swap1\n      pop\n        /* \"contracts/OtroEjemploSubastaMasCompleto.sol\":4675:4676  0 */\n      0x00\n        /* \"contracts/OtroEjemploSubastaMasCompleto.sol\":4666:4672  exceso */\n      dup2\n        /* \"contracts/OtroEjemploSubastaMasCompleto.sol\":4666:4676  exceso > 0 */\n      gt\n        /* \"contracts/OtroEjemploSubastaMasCompleto.sol\":4658:4707  require(exceso > 0, \"No tiene suficiente exceso\") */\n      tag_143\n      jumpi\n      mload(0x40)\n      0x08c379a000000000000000000000000000000000000000000000000000000000\n      dup2\n      mstore\n      0x04\n      add\n      tag_144\n      swap1\n      tag_145\n      jump\t// in\n    tag_144:\n      mload(0x40)\n      dup1\n      swap2\n      sub\n      swap1\n      revert\n    tag_143:\n        /* \"contracts/OtroEjemploSubastaMasCompleto.sol\":4758:4764  exceso */\n      dup1\n        /* \"contracts/OtroEjemploSubastaMasCompleto.sol\":4726:4742  balancePendiente */\n      0x06\n        /* \"contracts/OtroEjemploSubastaMasCompleto.sol\":4726:4754  balancePendiente[msg.sender] */\n      0x00\n        /* \"contracts/OtroEjemploSubastaMasCompleto.sol\":4743:4753  msg.sender */\n      caller\n        /* \"contracts/OtroEjemploSubastaMasCompleto.sol\":4726:4754  balancePendiente[msg.sender] */\n      0xffffffffffffffffffffffffffffffffffffffff\n      and\n      0xffffffffffffffffffffffffffffffffffffffff\n      and\n      dup2\n      mstore\n      0x20\n      add\n      swap1\n      dup2\n      mstore\n      0x20\n      add\n      0x00\n      keccak256\n      0x00\n        /* \"contracts/OtroEjemploSubastaMasCompleto.sol\":4726:4764  balancePendiente[msg.sender] -= exceso */\n      dup3\n      dup3\n      sload\n      tag_146\n      swap2\n      swap1\n      tag_108\n      jump\t// in\n    tag_146:\n      swap3\n      pop\n      pop\n      dup2\n      swap1\n      sstore\n      pop\n        /* \"contracts/OtroEjemploSubastaMasCompleto.sol\":4782:4792  msg.sender */\n      caller\n        /* \"contracts/OtroEjemploSubastaMasCompleto.sol\":4774:4802  payable(msg.sender).transfer */\n      0xffffffffffffffffffffffffffffffffffffffff\n      and\n        /* \"contracts/OtroEjemploSubastaMasCompleto.sol\":4774:4810  payable(msg.sender).transfer(exceso) */\n      0x08fc\n        /* \"contracts/OtroEjemploSubastaMasCompleto.sol\":4803:4809  exceso */\n      dup3\n        /* \"contracts/OtroEjemploSubastaMasCompleto.sol\":4774:4810  payable(msg.sender).transfer(exceso) */\n      swap1\n      dup2\n      iszero\n      mul\n      swap1\n      mload(0x40)\n      0x00\n      mload(0x40)\n      dup1\n      dup4\n      sub\n      dup2\n      dup6\n      dup9\n      dup9\n      call\n      swap4\n      pop\n      pop\n      pop\n      pop\n      iszero\n      dup1\n      iszero\n      tag_148\n      jumpi\n      returndatasize\n      0x00\n      dup1\n      returndatacopy\n      revert(0x00, returndatasize)\n    tag_148:\n      pop\n        /* \"contracts/OtroEjemploSubastaMasCompleto.sol\":4580:4817  {... */\n      pop\n        /* \"contracts/OtroEjemploSubastaMasCompleto.sol\":4546:4817  function retirarExceso() external {... */\n      jump\t// out\n        /* \"contracts/OtroEjemploSubastaMasCompleto.sol\":3647:3744  function mostrarOfertas() external view returns (Oferta[] memory) {... */\n    tag_76:\n        /* \"contracts/OtroEjemploSubastaMasCompleto.sol\":3696:3711  Oferta[] memory */\n      0x60\n        /* \"contracts/OtroEjemploSubastaMasCompleto.sol\":3730:3737  ofertas */\n      0x05\n        /* \"contracts/OtroEjemploSubastaMasCompleto.sol\":3723:3737  return ofertas */\n      dup1\n      sload\n      dup1\n      0x20\n      mul\n      0x20\n      add\n      mload(0x40)\n      swap1\n      dup2\n      add\n      0x40\n      mstore\n      dup1\n      swap3\n      swap2\n      swap1\n      dup2\n      dup2\n      mstore\n      0x20\n      add\n      0x00\n      swap1\n    tag_150:\n      dup3\n      dup3\n      lt\n      iszero\n      tag_151\n      jumpi\n      dup4\n      dup3\n      swap1\n      0x00\n      mstore\n      keccak256(0x00, 0x20)\n      swap1\n      0x02\n      mul\n      add\n      mload(0x40)\n      dup1\n      0x40\n      add\n      0x40\n      mstore\n      swap1\n      dup2\n      0x00\n      dup3\n      add\n      0x00\n      swap1\n      sload\n      swap1\n      0x0100\n      exp\n      swap1\n      div\n      0xffffffffffffffffffffffffffffffffffffffff\n      and\n      0xffffffffffffffffffffffffffffffffffffffff\n      and\n      0xffffffffffffffffffffffffffffffffffffffff\n      and\n      dup2\n      mstore\n      0x20\n      add\n      0x01\n      dup3\n      add\n      sload\n      dup2\n      mstore\n      pop\n      pop\n      dup2\n      mstore\n      0x20\n      add\n      swap1\n      0x01\n      add\n      swap1\n      jump(tag_150)\n    tag_151:\n      pop\n      pop\n      pop\n      pop\n      swap1\n      pop\n        /* \"contracts/OtroEjemploSubastaMasCompleto.sol\":3647:3744  function mostrarOfertas() external view returns (Oferta[] memory) {... */\n      swap1\n      jump\t// out\n        /* \"contracts/OtroEjemploSubastaMasCompleto.sol\":1090:1115  uint256 public highestBid */\n    tag_81:\n      sload(0x04)\n      dup2\n      jump\t// out\n        /* \"#utility.yul\":7:84   */\n    tag_153:\n        /* \"#utility.yul\":44:51   */\n      0x00\n        /* \"#utility.yul\":73:78   */\n      dup2\n        /* \"#utility.yul\":62:78   */\n      swap1\n      pop\n        /* \"#utility.yul\":7:84   */\n      swap2\n      swap1\n      pop\n      jump\t// out\n        /* \"#utility.yul\":90:208   */\n    tag_154:\n        /* \"#utility.yul\":177:201   */\n      tag_192\n        /* \"#utility.yul\":195:200   */\n      dup2\n        /* \"#utility.yul\":177:201   */\n      tag_153\n      jump\t// in\n    tag_192:\n        /* \"#utility.yul\":172:175   */\n      dup3\n        /* \"#utility.yul\":165:202   */\n      mstore\n        /* \"#utility.yul\":90:208   */\n      pop\n      pop\n      jump\t// out\n        /* \"#utility.yul\":214:436   */\n    tag_24:\n        /* \"#utility.yul\":307:311   */\n      0x00\n        /* \"#utility.yul\":345:347   */\n      0x20\n        /* \"#utility.yul\":334:343   */\n      dup3\n        /* \"#utility.yul\":330:348   */\n      add\n        /* \"#utility.yul\":322:348   */\n      swap1\n      pop\n        /* \"#utility.yul\":358:429   */\n      tag_194\n        /* \"#utility.yul\":426:427   */\n      0x00\n        /* \"#utility.yul\":415:424   */\n      dup4\n        /* \"#utility.yul\":411:428   */\n      add\n        /* \"#utility.yul\":402:408   */\n      dup5\n        /* \"#utility.yul\":358:429   */\n      tag_154\n      jump\t// in\n    tag_194:\n        /* \"#utility.yul\":214:436   */\n      swap3\n      swap2\n      pop\n      pop\n      jump\t// out\n        /* \"#utility.yul\":442:568   */\n    tag_155:\n        /* \"#utility.yul\":479:486   */\n      0x00\n        /* \"#utility.yul\":519:561   */\n      0xffffffffffffffffffffffffffffffffffffffff\n        /* \"#utility.yul\":512:517   */\n      dup3\n        /* \"#utility.yul\":508:562   */\n      and\n        /* \"#utility.yul\":497:562   */\n      swap1\n      pop\n        /* \"#utility.yul\":442:568   */\n      swap2\n      swap1\n      pop\n      jump\t// out\n        /* \"#utility.yul\":574:670   */\n    tag_156:\n        /* \"#utility.yul\":611:618   */\n      0x00\n        /* \"#utility.yul\":640:664   */\n      tag_197\n        /* \"#utility.yul\":658:663   */\n      dup3\n        /* \"#utility.yul\":640:664   */\n      tag_155\n      jump\t// in\n    tag_197:\n        /* \"#utility.yul\":629:664   */\n      swap1\n      pop\n        /* \"#utility.yul\":574:670   */\n      swap2\n      swap1\n      pop\n      jump\t// out\n        /* \"#utility.yul\":676:794   */\n    tag_157:\n        /* \"#utility.yul\":763:787   */\n      tag_199\n        /* \"#utility.yul\":781:786   */\n      dup2\n        /* \"#utility.yul\":763:787   */\n      tag_156\n      jump\t// in\n    tag_199:\n        /* \"#utility.yul\":758:761   */\n      dup3\n        /* \"#utility.yul\":751:788   */\n      mstore\n        /* \"#utility.yul\":676:794   */\n      pop\n      pop\n      jump\t// out\n        /* \"#utility.yul\":800:1022   */\n    tag_29:\n        /* \"#utility.yul\":893:897   */\n      0x00\n        /* \"#utility.yul\":931:933   */\n      0x20\n        /* \"#utility.yul\":920:929   */\n      dup3\n        /* \"#utility.yul\":916:934   */\n      add\n        /* \"#utility.yul\":908:934   */\n      swap1\n      pop\n        /* \"#utility.yul\":944:1015   */\n      tag_201\n        /* \"#utility.yul\":1012:1013   */\n      0x00\n        /* \"#utility.yul\":1001:1010   */\n      dup4\n        /* \"#utility.yul\":997:1014   */\n      add\n        /* \"#utility.yul\":988:994   */\n      dup5\n        /* \"#utility.yul\":944:1015   */\n      tag_157\n      jump\t// in\n    tag_201:\n        /* \"#utility.yul\":800:1022   */\n      swap3\n      swap2\n      pop\n      pop\n      jump\t// out\n        /* \"#utility.yul\":1109:1226   */\n    tag_159:\n        /* \"#utility.yul\":1218:1219   */\n      0x00\n        /* \"#utility.yul\":1215:1216   */\n      dup1\n        /* \"#utility.yul\":1208:1220   */\n      revert\n        /* \"#utility.yul\":1355:1477   */\n    tag_161:\n        /* \"#utility.yul\":1428:1452   */\n      tag_206\n        /* \"#utility.yul\":1446:1451   */\n      dup2\n        /* \"#utility.yul\":1428:1452   */\n      tag_153\n      jump\t// in\n    tag_206:\n        /* \"#utility.yul\":1421:1426   */\n      dup2\n        /* \"#utility.yul\":1418:1453   */\n      eq\n        /* \"#utility.yul\":1408:1471   */\n      tag_207\n      jumpi\n        /* \"#utility.yul\":1467:1468   */\n      0x00\n        /* \"#utility.yul\":1464:1465   */\n      dup1\n        /* \"#utility.yul\":1457:1469   */\n      revert\n        /* \"#utility.yul\":1408:1471   */\n    tag_207:\n        /* \"#utility.yul\":1355:1477   */\n      pop\n      jump\t// out\n        /* \"#utility.yul\":1483:1622   */\n    tag_162:\n        /* \"#utility.yul\":1529:1534   */\n      0x00\n        /* \"#utility.yul\":1567:1573   */\n      dup2\n        /* \"#utility.yul\":1554:1574   */\n      calldataload\n        /* \"#utility.yul\":1545:1574   */\n      swap1\n      pop\n        /* \"#utility.yul\":1583:1616   */\n      tag_209\n        /* \"#utility.yul\":1610:1615   */\n      dup2\n        /* \"#utility.yul\":1583:1616   */\n      tag_161\n      jump\t// in\n    tag_209:\n        /* \"#utility.yul\":1483:1622   */\n      swap3\n      swap2\n      pop\n      pop\n      jump\t// out\n        /* \"#utility.yul\":1628:1957   */\n    tag_41:\n        /* \"#utility.yul\":1687:1693   */\n      0x00\n        /* \"#utility.yul\":1736:1738   */\n      0x20\n        /* \"#utility.yul\":1724:1733   */\n      dup3\n        /* \"#utility.yul\":1715:1722   */\n      dup5\n        /* \"#utility.yul\":1711:1734   */\n      sub\n        /* \"#utility.yul\":1707:1739   */\n      slt\n        /* \"#utility.yul\":1704:1823   */\n      iszero\n      tag_211\n      jumpi\n        /* \"#utility.yul\":1742:1821   */\n      tag_212\n      tag_159\n      jump\t// in\n    tag_212:\n        /* \"#utility.yul\":1704:1823   */\n    tag_211:\n        /* \"#utility.yul\":1862:1863   */\n      0x00\n        /* \"#utility.yul\":1887:1940   */\n      tag_213\n        /* \"#utility.yul\":1932:1939   */\n      dup5\n        /* \"#utility.yul\":1923:1929   */\n      dup3\n        /* \"#utility.yul\":1912:1921   */\n      dup6\n        /* \"#utility.yul\":1908:1930   */\n      add\n        /* \"#utility.yul\":1887:1940   */\n      tag_162\n      jump\t// in\n    tag_213:\n        /* \"#utility.yul\":1877:1940   */\n      swap2\n      pop\n        /* \"#utility.yul\":1833:1950   */\n      pop\n        /* \"#utility.yul\":1628:1957   */\n      swap3\n      swap2\n      pop\n      pop\n      jump\t// out\n        /* \"#utility.yul\":1963:2295   */\n    tag_44:\n        /* \"#utility.yul\":2084:2088   */\n      0x00\n        /* \"#utility.yul\":2122:2124   */\n      0x40\n        /* \"#utility.yul\":2111:2120   */\n      dup3\n        /* \"#utility.yul\":2107:2125   */\n      add\n        /* \"#utility.yul\":2099:2125   */\n      swap1\n      pop\n        /* \"#utility.yul\":2135:2206   */\n      tag_215\n        /* \"#utility.yul\":2203:2204   */\n      0x00\n        /* \"#utility.yul\":2192:2201   */\n      dup4\n        /* \"#utility.yul\":2188:2205   */\n      add\n        /* \"#utility.yul\":2179:2185   */\n      dup6\n        /* \"#utility.yul\":2135:2206   */\n      tag_157\n      jump\t// in\n    tag_215:\n        /* \"#utility.yul\":2216:2288   */\n      tag_216\n        /* \"#utility.yul\":2284:2286   */\n      0x20\n        /* \"#utility.yul\":2273:2282   */\n      dup4\n        /* \"#utility.yul\":2269:2287   */\n      add\n        /* \"#utility.yul\":2260:2266   */\n      dup5\n        /* \"#utility.yul\":2216:2288   */\n      tag_154\n      jump\t// in\n    tag_216:\n        /* \"#utility.yul\":1963:2295   */\n      swap4\n      swap3\n      pop\n      pop\n      pop\n      jump\t// out\n        /* \"#utility.yul\":2301:2423   */\n    tag_163:\n        /* \"#utility.yul\":2374:2398   */\n      tag_218\n        /* \"#utility.yul\":2392:2397   */\n      dup2\n        /* \"#utility.yul\":2374:2398   */\n      tag_156\n      jump\t// in\n    tag_218:\n        /* \"#utility.yul\":2367:2372   */\n      dup2\n        /* \"#utility.yul\":2364:2399   */\n      eq\n        /* \"#utility.yul\":2354:2417   */\n      tag_219\n      jumpi\n        /* \"#utility.yul\":2413:2414   */\n      0x00\n        /* \"#utility.yul\":2410:2411   */\n      dup1\n        /* \"#utility.yul\":2403:2415   */\n      revert\n        /* \"#utility.yul\":2354:2417   */\n    tag_219:\n        /* \"#utility.yul\":2301:2423   */\n      pop\n      jump\t// out\n        /* \"#utility.yul\":2429:2568   */\n    tag_164:\n        /* \"#utility.yul\":2475:2480   */\n      0x00\n        /* \"#utility.yul\":2513:2519   */\n      dup2\n        /* \"#utility.yul\":2500:2520   */\n      calldataload\n        /* \"#utility.yul\":2491:2520   */\n      swap1\n      pop\n        /* \"#utility.yul\":2529:2562   */\n      tag_221\n        /* \"#utility.yul\":2556:2561   */\n      dup2\n        /* \"#utility.yul\":2529:2562   */\n      tag_163\n      jump\t// in\n    tag_221:\n        /* \"#utility.yul\":2429:2568   */\n      swap3\n      swap2\n      pop\n      pop\n      jump\t// out\n        /* \"#utility.yul\":2574:2903   */\n    tag_52:\n        /* \"#utility.yul\":2633:2639   */\n      0x00\n        /* \"#utility.yul\":2682:2684   */\n      0x20\n        /* \"#utility.yul\":2670:2679   */\n      dup3\n        /* \"#utility.yul\":2661:2668   */\n      dup5\n        /* \"#utility.yul\":2657:2680   */\n      sub\n        /* \"#utility.yul\":2653:2685   */\n      slt\n        /* \"#utility.yul\":2650:2769   */\n      iszero\n      tag_223\n      jumpi\n        /* \"#utility.yul\":2688:2767   */\n      tag_224\n      tag_159\n      jump\t// in\n    tag_224:\n        /* \"#utility.yul\":2650:2769   */\n    tag_223:\n        /* \"#utility.yul\":2808:2809   */\n      0x00\n        /* \"#utility.yul\":2833:2886   */\n      tag_225\n        /* \"#utility.yul\":2878:2885   */\n      dup5\n        /* \"#utility.yul\":2869:2875   */\n      dup3\n        /* \"#utility.yul\":2858:2867   */\n      dup6\n        /* \"#utility.yul\":2854:2876   */\n      add\n        /* \"#utility.yul\":2833:2886   */\n      tag_164\n      jump\t// in\n    tag_225:\n        /* \"#utility.yul\":2823:2886   */\n      swap2\n      pop\n        /* \"#utility.yul\":2779:2896   */\n      pop\n        /* \"#utility.yul\":2574:2903   */\n      swap3\n      swap2\n      pop\n      pop\n      jump\t// out\n        /* \"#utility.yul\":2909:3045   */\n    tag_165:\n        /* \"#utility.yul\":2998:3004   */\n      0x00\n        /* \"#utility.yul\":3032:3037   */\n      dup2\n        /* \"#utility.yul\":3026:3038   */\n      mload\n        /* \"#utility.yul\":3016:3038   */\n      swap1\n      pop\n        /* \"#utility.yul\":2909:3045   */\n      swap2\n      swap1\n      pop\n      jump\t// out\n        /* \"#utility.yul\":3051:3257   */\n    tag_166:\n        /* \"#utility.yul\":3172:3183   */\n      0x00\n        /* \"#utility.yul\":3206:3212   */\n      dup3\n        /* \"#utility.yul\":3201:3204   */\n      dup3\n        /* \"#utility.yul\":3194:3213   */\n      mstore\n        /* \"#utility.yul\":3246:3250   */\n      0x20\n        /* \"#utility.yul\":3241:3244   */\n      dup3\n        /* \"#utility.yul\":3237:3251   */\n      add\n        /* \"#utility.yul\":3222:3251   */\n      swap1\n      pop\n        /* \"#utility.yul\":3051:3257   */\n      swap3\n      swap2\n      pop\n      pop\n      jump\t// out\n        /* \"#utility.yul\":3263:3417   */\n    tag_167:\n        /* \"#utility.yul\":3352:3356   */\n      0x00\n        /* \"#utility.yul\":3375:3378   */\n      dup2\n        /* \"#utility.yul\":3367:3378   */\n      swap1\n      pop\n        /* \"#utility.yul\":3405:3409   */\n      0x20\n        /* \"#utility.yul\":3400:3403   */\n      dup3\n        /* \"#utility.yul\":3396:3410   */\n      add\n        /* \"#utility.yul\":3388:3410   */\n      swap1\n      pop\n        /* \"#utility.yul\":3263:3417   */\n      swap2\n      swap1\n      pop\n      jump\t// out\n        /* \"#utility.yul\":3423:3531   */\n    tag_168:\n        /* \"#utility.yul\":3500:3524   */\n      tag_230\n        /* \"#utility.yul\":3518:3523   */\n      dup2\n        /* \"#utility.yul\":3500:3524   */\n      tag_156\n      jump\t// in\n    tag_230:\n        /* \"#utility.yul\":3495:3498   */\n      dup3\n        /* \"#utility.yul\":3488:3525   */\n      mstore\n        /* \"#utility.yul\":3423:3531   */\n      pop\n      pop\n      jump\t// out\n        /* \"#utility.yul\":3537:3645   */\n    tag_169:\n        /* \"#utility.yul\":3614:3638   */\n      tag_232\n        /* \"#utility.yul\":3632:3637   */\n      dup2\n        /* \"#utility.yul\":3614:3638   */\n      tag_153\n      jump\t// in\n    tag_232:\n        /* \"#utility.yul\":3609:3612   */\n      dup3\n        /* \"#utility.yul\":3602:3639   */\n      mstore\n        /* \"#utility.yul\":3537:3645   */\n      pop\n      pop\n      jump\t// out\n        /* \"#utility.yul\":3705:4200   */\n    tag_170:\n        /* \"#utility.yul\":3836:3840   */\n      0x40\n        /* \"#utility.yul\":3831:3834   */\n      dup3\n        /* \"#utility.yul\":3827:3841   */\n      add\n        /* \"#utility.yul\":3925:3929   */\n      0x00\n        /* \"#utility.yul\":3918:3923   */\n      dup3\n        /* \"#utility.yul\":3914:3930   */\n      add\n        /* \"#utility.yul\":3908:3931   */\n      mload\n        /* \"#utility.yul\":3944:4007   */\n      tag_234\n        /* \"#utility.yul\":4001:4005   */\n      0x00\n        /* \"#utility.yul\":3996:3999   */\n      dup6\n        /* \"#utility.yul\":3992:4006   */\n      add\n        /* \"#utility.yul\":3978:3990   */\n      dup3\n        /* \"#utility.yul\":3944:4007   */\n      tag_168\n      jump\t// in\n    tag_234:\n        /* \"#utility.yul\":3851:4017   */\n      pop\n        /* \"#utility.yul\":4101:4105   */\n      0x20\n        /* \"#utility.yul\":4094:4099   */\n      dup3\n        /* \"#utility.yul\":4090:4106   */\n      add\n        /* \"#utility.yul\":4084:4107   */\n      mload\n        /* \"#utility.yul\":4120:4183   */\n      tag_235\n        /* \"#utility.yul\":4177:4181   */\n      0x20\n        /* \"#utility.yul\":4172:4175   */\n      dup6\n        /* \"#utility.yul\":4168:4182   */\n      add\n        /* \"#utility.yul\":4154:4166   */\n      dup3\n        /* \"#utility.yul\":4120:4183   */\n      tag_169\n      jump\t// in\n    tag_235:\n        /* \"#utility.yul\":4027:4193   */\n      pop\n        /* \"#utility.yul\":3805:4200   */\n      pop\n        /* \"#utility.yul\":3705:4200   */\n      pop\n      pop\n      jump\t// out\n        /* \"#utility.yul\":4206:4473   */\n    tag_171:\n        /* \"#utility.yul\":4319:4329   */\n      0x00\n        /* \"#utility.yul\":4340:4430   */\n      tag_237\n        /* \"#utility.yul\":4426:4429   */\n      dup4\n        /* \"#utility.yul\":4418:4424   */\n      dup4\n        /* \"#utility.yul\":4340:4430   */\n      tag_170\n      jump\t// in\n    tag_237:\n        /* \"#utility.yul\":4462:4466   */\n      0x40\n        /* \"#utility.yul\":4457:4460   */\n      dup4\n        /* \"#utility.yul\":4453:4467   */\n      add\n        /* \"#utility.yul\":4439:4467   */\n      swap1\n      pop\n        /* \"#utility.yul\":4206:4473   */\n      swap3\n      swap2\n      pop\n      pop\n      jump\t// out\n        /* \"#utility.yul\":4479:4614   */\n    tag_172:\n        /* \"#utility.yul\":4571:4575   */\n      0x00\n        /* \"#utility.yul\":4603:4607   */\n      0x20\n        /* \"#utility.yul\":4598:4601   */\n      dup3\n        /* \"#utility.yul\":4594:4608   */\n      add\n        /* \"#utility.yul\":4586:4608   */\n      swap1\n      pop\n        /* \"#utility.yul\":4479:4614   */\n      swap2\n      swap1\n      pop\n      jump\t// out\n        /* \"#utility.yul\":4678:5586   */\n    tag_173:\n        /* \"#utility.yul\":4841:4844   */\n      0x00\n        /* \"#utility.yul\":4870:4946   */\n      tag_240\n        /* \"#utility.yul\":4940:4945   */\n      dup3\n        /* \"#utility.yul\":4870:4946   */\n      tag_165\n      jump\t// in\n    tag_240:\n        /* \"#utility.yul\":4962:5070   */\n      tag_241\n        /* \"#utility.yul\":5063:5069   */\n      dup2\n        /* \"#utility.yul\":5058:5061   */\n      dup6\n        /* \"#utility.yul\":4962:5070   */\n      tag_166\n      jump\t// in\n    tag_241:\n        /* \"#utility.yul\":4955:5070   */\n      swap4\n      pop\n        /* \"#utility.yul\":5094:5172   */\n      tag_242\n        /* \"#utility.yul\":5166:5171   */\n      dup4\n        /* \"#utility.yul\":5094:5172   */\n      tag_167\n      jump\t// in\n    tag_242:\n        /* \"#utility.yul\":5195:5202   */\n      dup1\n        /* \"#utility.yul\":5226:5227   */\n      0x00\n        /* \"#utility.yul\":5211:5561   */\n    tag_243:\n        /* \"#utility.yul\":5236:5242   */\n      dup4\n        /* \"#utility.yul\":5233:5234   */\n      dup2\n        /* \"#utility.yul\":5230:5243   */\n      lt\n        /* \"#utility.yul\":5211:5561   */\n      iszero\n      tag_245\n      jumpi\n        /* \"#utility.yul\":5312:5318   */\n      dup2\n        /* \"#utility.yul\":5306:5319   */\n      mload\n        /* \"#utility.yul\":5339:5446   */\n      tag_246\n        /* \"#utility.yul\":5442:5445   */\n      dup9\n        /* \"#utility.yul\":5427:5440   */\n      dup3\n        /* \"#utility.yul\":5339:5446   */\n      tag_171\n      jump\t// in\n    tag_246:\n        /* \"#utility.yul\":5332:5446   */\n      swap8\n      pop\n        /* \"#utility.yul\":5469:5551   */\n      tag_247\n        /* \"#utility.yul\":5544:5550   */\n      dup4\n        /* \"#utility.yul\":5469:5551   */\n      tag_172\n      jump\t// in\n    tag_247:\n        /* \"#utility.yul\":5459:5551   */\n      swap3\n      pop\n        /* \"#utility.yul\":5271:5561   */\n      pop\n        /* \"#utility.yul\":5258:5259   */\n      0x01\n        /* \"#utility.yul\":5255:5256   */\n      dup2\n        /* \"#utility.yul\":5251:5260   */\n      add\n        /* \"#utility.yul\":5246:5260   */\n      swap1\n      pop\n        /* \"#utility.yul\":5211:5561   */\n      jump(tag_243)\n    tag_245:\n        /* \"#utility.yul\":5215:5229   */\n      pop\n        /* \"#utility.yul\":5577:5580   */\n      dup6\n        /* \"#utility.yul\":5570:5580   */\n      swap4\n      pop\n        /* \"#utility.yul\":4846:5586   */\n      pop\n      pop\n      pop\n        /* \"#utility.yul\":4678:5586   */\n      swap3\n      swap2\n      pop\n      pop\n      jump\t// out\n        /* \"#utility.yul\":5592:6053   */\n    tag_78:\n        /* \"#utility.yul\":5779:5783   */\n      0x00\n        /* \"#utility.yul\":5817:5819   */\n      0x20\n        /* \"#utility.yul\":5806:5815   */\n      dup3\n        /* \"#utility.yul\":5802:5820   */\n      add\n        /* \"#utility.yul\":5794:5820   */\n      swap1\n      pop\n        /* \"#utility.yul\":5866:5875   */\n      dup2\n        /* \"#utility.yul\":5860:5864   */\n      dup2\n        /* \"#utility.yul\":5856:5876   */\n      sub\n        /* \"#utility.yul\":5852:5853   */\n      0x00\n        /* \"#utility.yul\":5841:5850   */\n      dup4\n        /* \"#utility.yul\":5837:5854   */\n      add\n        /* \"#utility.yul\":5830:5877   */\n      mstore\n        /* \"#utility.yul\":5894:6046   */\n      tag_249\n        /* \"#utility.yul\":6041:6045   */\n      dup2\n        /* \"#utility.yul\":6032:6038   */\n      dup5\n        /* \"#utility.yul\":5894:6046   */\n      tag_173\n      jump\t// in\n    tag_249:\n        /* \"#utility.yul\":5886:6046   */\n      swap1\n      pop\n        /* \"#utility.yul\":5592:6053   */\n      swap3\n      swap2\n      pop\n      pop\n      jump\t// out\n        /* \"#utility.yul\":6059:6228   */\n    tag_174:\n        /* \"#utility.yul\":6143:6154   */\n      0x00\n        /* \"#utility.yul\":6177:6183   */\n      dup3\n        /* \"#utility.yul\":6172:6175   */\n      dup3\n        /* \"#utility.yul\":6165:6184   */\n      mstore\n        /* \"#utility.yul\":6217:6221   */\n      0x20\n        /* \"#utility.yul\":6212:6215   */\n      dup3\n        /* \"#utility.yul\":6208:6222   */\n      add\n        /* \"#utility.yul\":6193:6222   */\n      swap1\n      pop\n        /* \"#utility.yul\":6059:6228   */\n      swap3\n      swap2\n      pop\n      pop\n      jump\t// out\n        /* \"#utility.yul\":6234:6397   */\n    tag_175:\n        /* \"#utility.yul\":6374:6389   */\n      0x4269642068617320656e64656400000000000000000000000000000000000000\n        /* \"#utility.yul\":6370:6371   */\n      0x00\n        /* \"#utility.yul\":6362:6368   */\n      dup3\n        /* \"#utility.yul\":6358:6372   */\n      add\n        /* \"#utility.yul\":6351:6390   */\n      mstore\n        /* \"#utility.yul\":6234:6397   */\n      pop\n      jump\t// out\n        /* \"#utility.yul\":6403:6769   */\n    tag_176:\n        /* \"#utility.yul\":6545:6548   */\n      0x00\n        /* \"#utility.yul\":6566:6633   */\n      tag_253\n        /* \"#utility.yul\":6630:6632   */\n      0x0d\n        /* \"#utility.yul\":6625:6628   */\n      dup4\n        /* \"#utility.yul\":6566:6633   */\n      tag_174\n      jump\t// in\n    tag_253:\n        /* \"#utility.yul\":6559:6633   */\n      swap2\n      pop\n        /* \"#utility.yul\":6642:6735   */\n      tag_254\n        /* \"#utility.yul\":6731:6734   */\n      dup3\n        /* \"#utility.yul\":6642:6735   */\n      tag_175\n      jump\t// in\n    tag_254:\n        /* \"#utility.yul\":6760:6762   */\n      0x20\n        /* \"#utility.yul\":6755:6758   */\n      dup3\n        /* \"#utility.yul\":6751:6763   */\n      add\n        /* \"#utility.yul\":6744:6763   */\n      swap1\n      pop\n        /* \"#utility.yul\":6403:6769   */\n      swap2\n      swap1\n      pop\n      jump\t// out\n        /* \"#utility.yul\":6775:7194   */\n    tag_86:\n        /* \"#utility.yul\":6941:6945   */\n      0x00\n        /* \"#utility.yul\":6979:6981   */\n      0x20\n        /* \"#utility.yul\":6968:6977   */\n      dup3\n        /* \"#utility.yul\":6964:6982   */\n      add\n        /* \"#utility.yul\":6956:6982   */\n      swap1\n      pop\n        /* \"#utility.yul\":7028:7037   */\n      dup2\n        /* \"#utility.yul\":7022:7026   */\n      dup2\n        /* \"#utility.yul\":7018:7038   */\n      sub\n        /* \"#utility.yul\":7014:7015   */\n      0x00\n        /* \"#utility.yul\":7003:7012   */\n      dup4\n        /* \"#utility.yul\":6999:7016   */\n      add\n        /* \"#utility.yul\":6992:7039   */\n      mstore\n        /* \"#utility.yul\":7056:7187   */\n      tag_256\n        /* \"#utility.yul\":7182:7186   */\n      dup2\n        /* \"#utility.yul\":7056:7187   */\n      tag_176\n      jump\t// in\n    tag_256:\n        /* \"#utility.yul\":7048:7187   */\n      swap1\n      pop\n        /* \"#utility.yul\":6775:7194   */\n      swap2\n      swap1\n      pop\n      jump\t// out\n        /* \"#utility.yul\":7200:7379   */\n    tag_177:\n        /* \"#utility.yul\":7340:7371   */\n      0x426964206d7573742062652067726561746572207468616e207a65726f000000\n        /* \"#utility.yul\":7336:7337   */\n      0x00\n        /* \"#utility.yul\":7328:7334   */\n      dup3\n        /* \"#utility.yul\":7324:7338   */\n      add\n        /* \"#utility.yul\":7317:7372   */\n      mstore\n        /* \"#utility.yul\":7200:7379   */\n      pop\n      jump\t// out\n        /* \"#utility.yul\":7385:7751   */\n    tag_178:\n        /* \"#utility.yul\":7527:7530   */\n      0x00\n        /* \"#utility.yul\":7548:7615   */\n      tag_259\n        /* \"#utility.yul\":7612:7614   */\n      0x1d\n        /* \"#utility.yul\":7607:7610   */\n      dup4\n        /* \"#utility.yul\":7548:7615   */\n      tag_174\n      jump\t// in\n    tag_259:\n        /* \"#utility.yul\":7541:7615   */\n      swap2\n      pop\n        /* \"#utility.yul\":7624:7717   */\n      tag_260\n        /* \"#utility.yul\":7713:7716   */\n      dup3\n        /* \"#utility.yul\":7624:7717   */\n      tag_177\n      jump\t// in\n    tag_260:\n        /* \"#utility.yul\":7742:7744   */\n      0x20\n        /* \"#utility.yul\":7737:7740   */\n      dup3\n        /* \"#utility.yul\":7733:7745   */\n      add\n        /* \"#utility.yul\":7726:7745   */\n      swap1\n      pop\n        /* \"#utility.yul\":7385:7751   */\n      swap2\n      swap1\n      pop\n      jump\t// out\n        /* \"#utility.yul\":7757:8176   */\n    tag_90:\n        /* \"#utility.yul\":7923:7927   */\n      0x00\n        /* \"#utility.yul\":7961:7963   */\n      0x20\n        /* \"#utility.yul\":7950:7959   */\n      dup3\n        /* \"#utility.yul\":7946:7964   */\n      add\n        /* \"#utility.yul\":7938:7964   */\n      swap1\n      pop\n        /* \"#utility.yul\":8010:8019   */\n      dup2\n        /* \"#utility.yul\":8004:8008   */\n      dup2\n        /* \"#utility.yul\":8000:8020   */\n      sub\n        /* \"#utility.yul\":7996:7997   */\n      0x00\n        /* \"#utility.yul\":7985:7994   */\n      dup4\n        /* \"#utility.yul\":7981:7998   */\n      add\n        /* \"#utility.yul\":7974:8021   */\n      mstore\n        /* \"#utility.yul\":8038:8169   */\n      tag_262\n        /* \"#utility.yul\":8164:8168   */\n      dup2\n        /* \"#utility.yul\":8038:8169   */\n      tag_178\n      jump\t// in\n    tag_262:\n        /* \"#utility.yul\":8030:8169   */\n      swap1\n      pop\n        /* \"#utility.yul\":7757:8176   */\n      swap2\n      swap1\n      pop\n      jump\t// out\n        /* \"#utility.yul\":8182:8362   */\n    tag_179:\n        /* \"#utility.yul\":8230:8307   */\n      0x4e487b7100000000000000000000000000000000000000000000000000000000\n        /* \"#utility.yul\":8227:8228   */\n      0x00\n        /* \"#utility.yul\":8220:8308   */\n      mstore\n        /* \"#utility.yul\":8327:8331   */\n      0x11\n        /* \"#utility.yul\":8324:8325   */\n      0x04\n        /* \"#utility.yul\":8317:8332   */\n      mstore\n        /* \"#utility.yul\":8351:8355   */\n      0x24\n        /* \"#utility.yul\":8348:8349   */\n      0x00\n        /* \"#utility.yul\":8341:8356   */\n      revert\n        /* \"#utility.yul\":8368:8559   */\n    tag_92:\n        /* \"#utility.yul\":8408:8411   */\n      0x00\n        /* \"#utility.yul\":8427:8447   */\n      tag_265\n        /* \"#utility.yul\":8445:8446   */\n      dup3\n        /* \"#utility.yul\":8427:8447   */\n      tag_153\n      jump\t// in\n    tag_265:\n        /* \"#utility.yul\":8422:8447   */\n      swap2\n      pop\n        /* \"#utility.yul\":8461:8481   */\n      tag_266\n        /* \"#utility.yul\":8479:8480   */\n      dup4\n        /* \"#utility.yul\":8461:8481   */\n      tag_153\n      jump\t// in\n    tag_266:\n        /* \"#utility.yul\":8456:8481   */\n      swap3\n      pop\n        /* \"#utility.yul\":8504:8505   */\n      dup3\n        /* \"#utility.yul\":8501:8502   */\n      dup3\n        /* \"#utility.yul\":8497:8506   */\n      add\n        /* \"#utility.yul\":8490:8506   */\n      swap1\n      pop\n        /* \"#utility.yul\":8525:8528   */\n      dup1\n        /* \"#utility.yul\":8522:8523   */\n      dup3\n        /* \"#utility.yul\":8519:8529   */\n      gt\n        /* \"#utility.yul\":8516:8552   */\n      iszero\n      tag_267\n      jumpi\n        /* \"#utility.yul\":8532:8550   */\n      tag_268\n      tag_179\n      jump\t// in\n    tag_268:\n        /* \"#utility.yul\":8516:8552   */\n    tag_267:\n        /* \"#utility.yul\":8368:8559   */\n      swap3\n      swap2\n      pop\n      pop\n      jump\t// out\n        /* \"#utility.yul\":8565:8975   */\n    tag_94:\n        /* \"#utility.yul\":8605:8612   */\n      0x00\n        /* \"#utility.yul\":8628:8648   */\n      tag_270\n        /* \"#utility.yul\":8646:8647   */\n      dup3\n        /* \"#utility.yul\":8628:8648   */\n      tag_153\n      jump\t// in\n    tag_270:\n        /* \"#utility.yul\":8623:8648   */\n      swap2\n      pop\n        /* \"#utility.yul\":8662:8682   */\n      tag_271\n        /* \"#utility.yul\":8680:8681   */\n      dup4\n        /* \"#utility.yul\":8662:8682   */\n      tag_153\n      jump\t// in\n    tag_271:\n        /* \"#utility.yul\":8657:8682   */\n      swap3\n      pop\n        /* \"#utility.yul\":8717:8718   */\n      dup3\n        /* \"#utility.yul\":8714:8715   */\n      dup3\n        /* \"#utility.yul\":8710:8719   */\n      mul\n        /* \"#utility.yul\":8739:8769   */\n      tag_272\n        /* \"#utility.yul\":8757:8768   */\n      dup2\n        /* \"#utility.yul\":8739:8769   */\n      tag_153\n      jump\t// in\n    tag_272:\n        /* \"#utility.yul\":8728:8769   */\n      swap2\n      pop\n        /* \"#utility.yul\":8918:8919   */\n      dup3\n        /* \"#utility.yul\":8909:8916   */\n      dup3\n        /* \"#utility.yul\":8905:8920   */\n      div\n        /* \"#utility.yul\":8902:8903   */\n      dup5\n        /* \"#utility.yul\":8899:8921   */\n      eq\n        /* \"#utility.yul\":8879:8880   */\n      dup4\n        /* \"#utility.yul\":8872:8881   */\n      iszero\n        /* \"#utility.yul\":8852:8935   */\n      or\n        /* \"#utility.yul\":8829:8968   */\n      tag_273\n      jumpi\n        /* \"#utility.yul\":8948:8966   */\n      tag_274\n      tag_179\n      jump\t// in\n    tag_274:\n        /* \"#utility.yul\":8829:8968   */\n    tag_273:\n        /* \"#utility.yul\":8613:8975   */\n      pop\n        /* \"#utility.yul\":8565:8975   */\n      swap3\n      swap2\n      pop\n      pop\n      jump\t// out\n        /* \"#utility.yul\":8981:9161   */\n    tag_180:\n        /* \"#utility.yul\":9029:9106   */\n      0x4e487b7100000000000000000000000000000000000000000000000000000000\n        /* \"#utility.yul\":9026:9027   */\n      0x00\n        /* \"#utility.yul\":9019:9107   */\n      mstore\n        /* \"#utility.yul\":9126:9130   */\n      0x12\n        /* \"#utility.yul\":9123:9124   */\n      0x04\n        /* \"#utility.yul\":9116:9131   */\n      mstore\n        /* \"#utility.yul\":9150:9154   */\n      0x24\n        /* \"#utility.yul\":9147:9148   */\n      0x00\n        /* \"#utility.yul\":9140:9155   */\n      revert\n        /* \"#utility.yul\":9167:9352   */\n    tag_96:\n        /* \"#utility.yul\":9207:9208   */\n      0x00\n        /* \"#utility.yul\":9224:9244   */\n      tag_277\n        /* \"#utility.yul\":9242:9243   */\n      dup3\n        /* \"#utility.yul\":9224:9244   */\n      tag_153\n      jump\t// in\n    tag_277:\n        /* \"#utility.yul\":9219:9244   */\n      swap2\n      pop\n        /* \"#utility.yul\":9258:9278   */\n      tag_278\n        /* \"#utility.yul\":9276:9277   */\n      dup4\n        /* \"#utility.yul\":9258:9278   */\n      tag_153\n      jump\t// in\n    tag_278:\n        /* \"#utility.yul\":9253:9278   */\n      swap3\n      pop\n        /* \"#utility.yul\":9297:9298   */\n      dup3\n        /* \"#utility.yul\":9287:9322   */\n      tag_279\n      jumpi\n        /* \"#utility.yul\":9302:9320   */\n      tag_280\n      tag_180\n      jump\t// in\n    tag_280:\n        /* \"#utility.yul\":9287:9322   */\n    tag_279:\n        /* \"#utility.yul\":9344:9345   */\n      dup3\n        /* \"#utility.yul\":9341:9342   */\n      dup3\n        /* \"#utility.yul\":9337:9346   */\n      div\n        /* \"#utility.yul\":9332:9346   */\n      swap1\n      pop\n        /* \"#utility.yul\":9167:9352   */\n      swap3\n      swap2\n      pop\n      pop\n      jump\t// out\n        /* \"#utility.yul\":9358:9540   */\n    tag_181:\n        /* \"#utility.yul\":9498:9532   */\n      0x4f66666572206d757374206265206174206c6561737420352520686967686572\n        /* \"#utility.yul\":9494:9495   */\n      0x00\n        /* \"#utility.yul\":9486:9492   */\n      dup3\n        /* \"#utility.yul\":9482:9496   */\n      add\n        /* \"#utility.yul\":9475:9533   */\n      mstore\n        /* \"#utility.yul\":9358:9540   */\n      pop\n      jump\t// out\n        /* \"#utility.yul\":9546:9912   */\n    tag_182:\n        /* \"#utility.yul\":9688:9691   */\n      0x00\n        /* \"#utility.yul\":9709:9776   */\n      tag_283\n        /* \"#utility.yul\":9773:9775   */\n      0x20\n        /* \"#utility.yul\":9768:9771   */\n      dup4\n        /* \"#utility.yul\":9709:9776   */\n      tag_174\n      jump\t// in\n    tag_283:\n        /* \"#utility.yul\":9702:9776   */\n      swap2\n      pop\n        /* \"#utility.yul\":9785:9878   */\n      tag_284\n        /* \"#utility.yul\":9874:9877   */\n      dup3\n        /* \"#utility.yul\":9785:9878   */\n      tag_181\n      jump\t// in\n    tag_284:\n        /* \"#utility.yul\":9903:9905   */\n      0x20\n        /* \"#utility.yul\":9898:9901   */\n      dup3\n        /* \"#utility.yul\":9894:9906   */\n      add\n        /* \"#utility.yul\":9887:9906   */\n      swap1\n      pop\n        /* \"#utility.yul\":9546:9912   */\n      swap2\n      swap1\n      pop\n      jump\t// out\n        /* \"#utility.yul\":9918:10337   */\n    tag_100:\n        /* \"#utility.yul\":10084:10088   */\n      0x00\n        /* \"#utility.yul\":10122:10124   */\n      0x20\n        /* \"#utility.yul\":10111:10120   */\n      dup3\n        /* \"#utility.yul\":10107:10125   */\n      add\n        /* \"#utility.yul\":10099:10125   */\n      swap1\n      pop\n        /* \"#utility.yul\":10171:10180   */\n      dup2\n        /* \"#utility.yul\":10165:10169   */\n      dup2\n        /* \"#utility.yul\":10161:10181   */\n      sub\n        /* \"#utility.yul\":10157:10158   */\n      0x00\n        /* \"#utility.yul\":10146:10155   */\n      dup4\n        /* \"#utility.yul\":10142:10159   */\n      add\n        /* \"#utility.yul\":10135:10182   */\n      mstore\n        /* \"#utility.yul\":10199:10330   */\n      tag_286\n        /* \"#utility.yul\":10325:10329   */\n      dup2\n        /* \"#utility.yul\":10199:10330   */\n      tag_182\n      jump\t// in\n    tag_286:\n        /* \"#utility.yul\":10191:10330   */\n      swap1\n      pop\n        /* \"#utility.yul\":9918:10337   */\n      swap2\n      swap1\n      pop\n      jump\t// out\n        /* \"#utility.yul\":10343:10675   */\n    tag_106:\n        /* \"#utility.yul\":10464:10468   */\n      0x00\n        /* \"#utility.yul\":10502:10504   */\n      0x40\n        /* \"#utility.yul\":10491:10500   */\n      dup3\n        /* \"#utility.yul\":10487:10505   */\n      add\n        /* \"#utility.yul\":10479:10505   */\n      swap1\n      pop\n        /* \"#utility.yul\":10515:10586   */\n      tag_288\n        /* \"#utility.yul\":10583:10584   */\n      0x00\n        /* \"#utility.yul\":10572:10581   */\n      dup4\n        /* \"#utility.yul\":10568:10585   */\n      add\n        /* \"#utility.yul\":10559:10565   */\n      dup6\n        /* \"#utility.yul\":10515:10586   */\n      tag_154\n      jump\t// in\n    tag_288:\n        /* \"#utility.yul\":10596:10668   */\n      tag_289\n        /* \"#utility.yul\":10664:10666   */\n      0x20\n        /* \"#utility.yul\":10653:10662   */\n      dup4\n        /* \"#utility.yul\":10649:10667   */\n      add\n        /* \"#utility.yul\":10640:10646   */\n      dup5\n        /* \"#utility.yul\":10596:10668   */\n      tag_154\n      jump\t// in\n    tag_289:\n        /* \"#utility.yul\":10343:10675   */\n      swap4\n      swap3\n      pop\n      pop\n      pop\n      jump\t// out\n        /* \"#utility.yul\":10681:10875   */\n    tag_108:\n        /* \"#utility.yul\":10721:10725   */\n      0x00\n        /* \"#utility.yul\":10741:10761   */\n      tag_291\n        /* \"#utility.yul\":10759:10760   */\n      dup3\n        /* \"#utility.yul\":10741:10761   */\n      tag_153\n      jump\t// in\n    tag_291:\n        /* \"#utility.yul\":10736:10761   */\n      swap2\n      pop\n        /* \"#utility.yul\":10775:10795   */\n      tag_292\n        /* \"#utility.yul\":10793:10794   */\n      dup4\n        /* \"#utility.yul\":10775:10795   */\n      tag_153\n      jump\t// in\n    tag_292:\n        /* \"#utility.yul\":10770:10795   */\n      swap3\n      pop\n        /* \"#utility.yul\":10819:10820   */\n      dup3\n        /* \"#utility.yul\":10816:10817   */\n      dup3\n        /* \"#utility.yul\":10812:10821   */\n      sub\n        /* \"#utility.yul\":10804:10821   */\n      swap1\n      pop\n        /* \"#utility.yul\":10843:10844   */\n      dup2\n        /* \"#utility.yul\":10837:10841   */\n      dup2\n        /* \"#utility.yul\":10834:10845   */\n      gt\n        /* \"#utility.yul\":10831:10868   */\n      iszero\n      tag_293\n      jumpi\n        /* \"#utility.yul\":10848:10866   */\n      tag_294\n      tag_179\n      jump\t// in\n    tag_294:\n        /* \"#utility.yul\":10831:10868   */\n    tag_293:\n        /* \"#utility.yul\":10681:10875   */\n      swap3\n      swap2\n      pop\n      pop\n      jump\t// out\n        /* \"#utility.yul\":10881:11101   */\n    tag_183:\n        /* \"#utility.yul\":11021:11055   */\n      0x54686973206665617475726520697320726573657276656420746f204f776e65\n        /* \"#utility.yul\":11017:11018   */\n      0x00\n        /* \"#utility.yul\":11009:11015   */\n      dup3\n        /* \"#utility.yul\":11005:11019   */\n      add\n        /* \"#utility.yul\":10998:11056   */\n      mstore\n        /* \"#utility.yul\":11090:11093   */\n      0x7200000000000000000000000000000000000000000000000000000000000000\n        /* \"#utility.yul\":11085:11087   */\n      0x20\n        /* \"#utility.yul\":11077:11083   */\n      dup3\n        /* \"#utility.yul\":11073:11088   */\n      add\n        /* \"#utility.yul\":11066:11094   */\n      mstore\n        /* \"#utility.yul\":10881:11101   */\n      pop\n      jump\t// out\n        /* \"#utility.yul\":11107:11473   */\n    tag_184:\n        /* \"#utility.yul\":11249:11252   */\n      0x00\n        /* \"#utility.yul\":11270:11337   */\n      tag_297\n        /* \"#utility.yul\":11334:11336   */\n      0x21\n        /* \"#utility.yul\":11329:11332   */\n      dup4\n        /* \"#utility.yul\":11270:11337   */\n      tag_174\n      jump\t// in\n    tag_297:\n        /* \"#utility.yul\":11263:11337   */\n      swap2\n      pop\n        /* \"#utility.yul\":11346:11439   */\n      tag_298\n        /* \"#utility.yul\":11435:11438   */\n      dup3\n        /* \"#utility.yul\":11346:11439   */\n      tag_183\n      jump\t// in\n    tag_298:\n        /* \"#utility.yul\":11464:11466   */\n      0x40\n        /* \"#utility.yul\":11459:11462   */\n      dup3\n        /* \"#utility.yul\":11455:11467   */\n      add\n        /* \"#utility.yul\":11448:11467   */\n      swap1\n      pop\n        /* \"#utility.yul\":11107:11473   */\n      swap2\n      swap1\n      pop\n      jump\t// out\n        /* \"#utility.yul\":11479:11898   */\n    tag_115:\n        /* \"#utility.yul\":11645:11649   */\n      0x00\n        /* \"#utility.yul\":11683:11685   */\n      0x20\n        /* \"#utility.yul\":11672:11681   */\n      dup3\n        /* \"#utility.yul\":11668:11686   */\n      add\n        /* \"#utility.yul\":11660:11686   */\n      swap1\n      pop\n        /* \"#utility.yul\":11732:11741   */\n      dup2\n        /* \"#utility.yul\":11726:11730   */\n      dup2\n        /* \"#utility.yul\":11722:11742   */\n      sub\n        /* \"#utility.yul\":11718:11719   */\n      0x00\n        /* \"#utility.yul\":11707:11716   */\n      dup4\n        /* \"#utility.yul\":11703:11720   */\n      add\n        /* \"#utility.yul\":11696:11743   */\n      mstore\n        /* \"#utility.yul\":11760:11891   */\n      tag_300\n        /* \"#utility.yul\":11886:11890   */\n      dup2\n        /* \"#utility.yul\":11760:11891   */\n      tag_184\n      jump\t// in\n    tag_300:\n        /* \"#utility.yul\":11752:11891   */\n      swap1\n      pop\n        /* \"#utility.yul\":11479:11898   */\n      swap2\n      swap1\n      pop\n      jump\t// out\n        /* \"#utility.yul\":11904:12082   */\n    tag_185:\n        /* \"#utility.yul\":12044:12074   */\n      0x4c6120737562617374612061756e206573746120656e20637572736f00000000\n        /* \"#utility.yul\":12040:12041   */\n      0x00\n        /* \"#utility.yul\":12032:12038   */\n      dup3\n        /* \"#utility.yul\":12028:12042   */\n      add\n        /* \"#utility.yul\":12021:12075   */\n      mstore\n        /* \"#utility.yul\":11904:12082   */\n      pop\n      jump\t// out\n        /* \"#utility.yul\":12088:12454   */\n    tag_186:\n        /* \"#utility.yul\":12230:12233   */\n      0x00\n        /* \"#utility.yul\":12251:12318   */\n      tag_303\n        /* \"#utility.yul\":12315:12317   */\n      0x1c\n        /* \"#utility.yul\":12310:12313   */\n      dup4\n        /* \"#utility.yul\":12251:12318   */\n      tag_174\n      jump\t// in\n    tag_303:\n        /* \"#utility.yul\":12244:12318   */\n      swap2\n      pop\n        /* \"#utility.yul\":12327:12420   */\n      tag_304\n        /* \"#utility.yul\":12416:12419   */\n      dup3\n        /* \"#utility.yul\":12327:12420   */\n      tag_185\n      jump\t// in\n    tag_304:\n        /* \"#utility.yul\":12445:12447   */\n      0x20\n        /* \"#utility.yul\":12440:12443   */\n      dup3\n        /* \"#utility.yul\":12436:12448   */\n      add\n        /* \"#utility.yul\":12429:12448   */\n      swap1\n      pop\n        /* \"#utility.yul\":12088:12454   */\n      swap2\n      swap1\n      pop\n      jump\t// out\n        /* \"#utility.yul\":12460:12879   */\n    tag_119:\n        /* \"#utility.yul\":12626:12630   */\n      0x00\n        /* \"#utility.yul\":12664:12666   */\n      0x20\n        /* \"#utility.yul\":12653:12662   */\n      dup3\n        /* \"#utility.yul\":12649:12667   */\n      add\n        /* \"#utility.yul\":12641:12667   */\n      swap1\n      pop\n        /* \"#utility.yul\":12713:12722   */\n      dup2\n        /* \"#utility.yul\":12707:12711   */\n      dup2\n        /* \"#utility.yul\":12703:12723   */\n      sub\n        /* \"#utility.yul\":12699:12700   */\n      0x00\n        /* \"#utility.yul\":12688:12697   */\n      dup4\n        /* \"#utility.yul\":12684:12701   */\n      add\n        /* \"#utility.yul\":12677:12724   */\n      mstore\n        /* \"#utility.yul\":12741:12872   */\n      tag_306\n        /* \"#utility.yul\":12867:12871   */\n      dup2\n        /* \"#utility.yul\":12741:12872   */\n      tag_186\n      jump\t// in\n    tag_306:\n        /* \"#utility.yul\":12733:12872   */\n      swap1\n      pop\n        /* \"#utility.yul\":12460:12879   */\n      swap2\n      swap1\n      pop\n      jump\t// out\n        /* \"#utility.yul\":12885:13065   */\n    tag_125:\n        /* \"#utility.yul\":12933:13010   */\n      0x4e487b7100000000000000000000000000000000000000000000000000000000\n        /* \"#utility.yul\":12930:12931   */\n      0x00\n        /* \"#utility.yul\":12923:13011   */\n      mstore\n        /* \"#utility.yul\":13030:13034   */\n      0x32\n        /* \"#utility.yul\":13027:13028   */\n      0x04\n        /* \"#utility.yul\":13020:13035   */\n      mstore\n        /* \"#utility.yul\":13054:13058   */\n      0x24\n        /* \"#utility.yul\":13051:13052   */\n      0x00\n        /* \"#utility.yul\":13044:13059   */\n      revert\n        /* \"#utility.yul\":13071:13247   */\n    tag_187:\n        /* \"#utility.yul\":13211:13239   */\n      0x4e6f207469656e6520737566696369656e74652065786365736f000000000000\n        /* \"#utility.yul\":13207:13208   */\n      0x00\n        /* \"#utility.yul\":13199:13205   */\n      dup3\n        /* \"#utility.yul\":13195:13209   */\n      add\n        /* \"#utility.yul\":13188:13240   */\n      mstore\n        /* \"#utility.yul\":13071:13247   */\n      pop\n      jump\t// out\n        /* \"#utility.yul\":13253:13619   */\n    tag_188:\n        /* \"#utility.yul\":13395:13398   */\n      0x00\n        /* \"#utility.yul\":13416:13483   */\n      tag_310\n        /* \"#utility.yul\":13480:13482   */\n      0x1a\n        /* \"#utility.yul\":13475:13478   */\n      dup4\n        /* \"#utility.yul\":13416:13483   */\n      tag_174\n      jump\t// in\n    tag_310:\n        /* \"#utility.yul\":13409:13483   */\n      swap2\n      pop\n        /* \"#utility.yul\":13492:13585   */\n      tag_311\n        /* \"#utility.yul\":13581:13584   */\n      dup3\n        /* \"#utility.yul\":13492:13585   */\n      tag_187\n      jump\t// in\n    tag_311:\n        /* \"#utility.yul\":13610:13612   */\n      0x20\n        /* \"#utility.yul\":13605:13608   */\n      dup3\n        /* \"#utility.yul\":13601:13613   */\n      add\n        /* \"#utility.yul\":13594:13613   */\n      swap1\n      pop\n        /* \"#utility.yul\":13253:13619   */\n      swap2\n      swap1\n      pop\n      jump\t// out\n        /* \"#utility.yul\":13625:14044   */\n    tag_145:\n        /* \"#utility.yul\":13791:13795   */\n      0x00\n        /* \"#utility.yul\":13829:13831   */\n      0x20\n        /* \"#utility.yul\":13818:13827   */\n      dup3\n        /* \"#utility.yul\":13814:13832   */\n      add\n        /* \"#utility.yul\":13806:13832   */\n      swap1\n      pop\n        /* \"#utility.yul\":13878:13887   */\n      dup2\n        /* \"#utility.yul\":13872:13876   */\n      dup2\n        /* \"#utility.yul\":13868:13888   */\n      sub\n        /* \"#utility.yul\":13864:13865   */\n      0x00\n        /* \"#utility.yul\":13853:13862   */\n      dup4\n        /* \"#utility.yul\":13849:13866   */\n      add\n        /* \"#utility.yul\":13842:13889   */\n      mstore\n        /* \"#utility.yul\":13906:14037   */\n      tag_313\n        /* \"#utility.yul\":14032:14036   */\n      dup2\n        /* \"#utility.yul\":13906:14037   */\n      tag_188\n      jump\t// in\n    tag_313:\n        /* \"#utility.yul\":13898:14037   */\n      swap1\n      pop\n        /* \"#utility.yul\":13625:14044   */\n      swap2\n      swap1\n      pop\n      jump\t// out\n\n    auxdata: 0xa264697066735822122013b34e0a3405f452821c0edd3d3a89edca8ad5ddd12d0ac9ded2d60f52ddac3564736f6c634300081a0033\n}\n",
				"bytecode": {
					"linkReferences": {},
					"object": "608060405234801561000f575f80fd5b506040516115fb3803806115fb833981810160405281019061003191906100cf565b335f806101000a81548173ffffffffffffffffffffffffffffffffffffffff021916908373ffffffffffffffffffffffffffffffffffffffff16021790555042600181905550806001546100859190610127565b6002819055505f6004819055505061015a565b5f80fd5b5f819050919050565b6100ae8161009c565b81146100b8575f80fd5b50565b5f815190506100c9816100a5565b92915050565b5f602082840312156100e4576100e3610098565b5b5f6100f1848285016100bb565b91505092915050565b7f4e487b71000000000000000000000000000000000000000000000000000000005f52601160045260245ffd5b5f6101318261009c565b915061013c8361009c565b9250828201905080821115610154576101536100fa565b5b92915050565b611494806101675f395ff3fe6080604052600436106100e7575f3560e01c80637070f1be11610089578063b404e00111610058578063b404e0011461029f578063c1902319146102c9578063c442a99f146102df578063d57bde7914610309576100e7565b80637070f1be146101e4578063753dcaeb146102205780637bb44b831461024b57806391f9015714610275576100e7565b80634ba9a927116100c55780634ba9a927146101495780635298a3c41461017357806356afff7c1461017d5780636d4d09d7146101ba576100e7565b806302bc22fc146100eb57806303fe7faa146101155780633ec059d71461013f575b5f80fd5b3480156100f6575f80fd5b506100ff610333565b60405161010c9190610dda565b60405180910390f35b348015610120575f80fd5b50610129610339565b6040516101369190610e32565b60405180910390f35b61014761035c565b005b348015610154575f80fd5b5061015d610790565b60405161016a9190610dda565b60405180910390f35b61017b610796565b005b348015610188575f80fd5b506101a3600480360381019061019e9190610e79565b610acd565b6040516101b1929190610ea4565b60405180910390f35b3480156101c5575f80fd5b506101ce610b1b565b6040516101db9190610dda565b60405180910390f35b3480156101ef575f80fd5b5061020a60048036038101906102059190610ef5565b610b21565b6040516102179190610dda565b60405180910390f35b34801561022b575f80fd5b50610234610b36565b604051610242929190610ea4565b60405180910390f35b348015610256575f80fd5b5061025f610ba9565b60405161026c9190610dda565b60405180910390f35b348015610280575f80fd5b50610289610bae565b6040516102969190610e32565b60405180910390f35b3480156102aa575f80fd5b506102b3610bd3565b6040516102c09190610dda565b60405180910390f35b3480156102d4575f80fd5b506102dd610bd8565b005b3480156102ea575f80fd5b506102f3610d02565b6040516103009190611013565b60405180910390f35b348015610314575f80fd5b5061031d610dbc565b60405161032a9190610dda565b60405180910390f35b61025881565b5f8054906101000a900473ffffffffffffffffffffffffffffffffffffffff1681565b6002544211156103a1576040517f08c379a00000000000000000000000000000000000000000000000000000000081526004016103989061108d565b60405180910390fd5b5f34116103e3576040517f08c379a00000000000000000000000000000000000000000000000000000000081526004016103da906110f5565b60405180910390fd5b5f3460065f3373ffffffffffffffffffffffffffffffffffffffff1673ffffffffffffffffffffffffffffffffffffffff1681526020019081526020015f205461042d9190611140565b9050606460056004546104409190611173565b61044a91906111e1565b6004546104579190611140565b811015610499576040517f08c379a00000000000000000000000000000000000000000000000000000000081526004016104909061125b565b60405180910390fd5b600560405180604001604052803373ffffffffffffffffffffffffffffffffffffffff16815260200183815250908060018154018082558091505060019003905f5260205f2090600202015f909190919091505f820151815f015f6101000a81548173ffffffffffffffffffffffffffffffffffffffff021916908373ffffffffffffffffffffffffffffffffffffffff1602179055506020820151816001015550505f60065f3373ffffffffffffffffffffffffffffffffffffffff1673ffffffffffffffffffffffffffffffffffffffff1681526020019081526020015f2054111561064a575f60065f3373ffffffffffffffffffffffffffffffffffffffff1673ffffffffffffffffffffffffffffffffffffffff1681526020019081526020015f205490505f60065f3373ffffffffffffffffffffffffffffffffffffffff1673ffffffffffffffffffffffffffffffffffffffff1681526020019081526020015f20819055503373ffffffffffffffffffffffffffffffffffffffff166108fc8290811502906040515f60405180830381858888f19350505050158015610647573d5f803e3d5ffd5b50505b3360035f6101000a81548173ffffffffffffffffffffffffffffffffffffffff021916908373ffffffffffffffffffffffffffffffffffffffff160217905550806004819055508060065f3373ffffffffffffffffffffffffffffffffffffffff1673ffffffffffffffffffffffffffffffffffffffff1681526020019081526020015f20819055503373ffffffffffffffffffffffffffffffffffffffff167fc0ee0120c42d2a25d2d9a3d40a59a7570ca25f0fa2f9fd6a8b885a761f0beefa824260405161071b929190611279565b60405180910390a261025860025461073391906112a0565b421061078d5761025860025f82825461074c9190611140565b925050819055507fd00df96ab7dbc2500d2727d4e26bfa8f37e005495bb12f2af6ba48952c742c176002546040516107849190610dda565b60405180910390a15b50565b60025481565b5f8054906101000a900473ffffffffffffffffffffffffffffffffffffffff1673ffffffffffffffffffffffffffffffffffffffff163373ffffffffffffffffffffffffffffffffffffffff1614610823576040517f08c379a000000000000000000000000000000000000000000000000000000000815260040161081a90611343565b60405180910390fd5b6002544211610867576040517f08c379a000000000000000000000000000000000000000000000000000000000815260040161085e906113ab565b60405180910390fd5b5f5b600580549050811015610a6e575f6005828154811061088b5761088a6113c9565b5b905f5260205f2090600202015f015f9054906101000a900473ffffffffffffffffffffffffffffffffffffffff1690505f60065f8373ffffffffffffffffffffffffffffffffffffffff1673ffffffffffffffffffffffffffffffffffffffff1681526020019081526020015f2054905060035f9054906101000a900473ffffffffffffffffffffffffffffffffffffffff1673ffffffffffffffffffffffffffffffffffffffff168273ffffffffffffffffffffffffffffffffffffffff161415801561095857505f81115b15610a5f575f606460028361096d9190611173565b61097791906111e1565b90505f818361098691906112a0565b90505f60065f8673ffffffffffffffffffffffffffffffffffffffff1673ffffffffffffffffffffffffffffffffffffffff1681526020019081526020015f20819055508373ffffffffffffffffffffffffffffffffffffffff166108fc8290811502906040515f60405180830381858888f19350505050158015610a0d573d5f803e3d5ffd5b508373ffffffffffffffffffffffffffffffffffffffff167fc10e1a954b8aadb1bccad4ac0748414b575923ae1fe13aefe1b068c06019d73f82604051610a549190610dda565b60405180910390a250505b50508080600101915050610869565b507fe3a2429a7985fd026b75a901911e3bee729e9f160f1b0e3a09596d891ed7e06f60035f9054906101000a900473ffffffffffffffffffffffffffffffffffffffff16600454604051610ac3929190610ea4565b60405180910390a1565b60058181548110610adc575f80fd5b905f5260205f2090600202015f91509050805f015f9054906101000a900473ffffffffffffffffffffffffffffffffffffffff16908060010154905082565b60015481565b6006602052805f5260405f205f915090505481565b5f806002544211610b7c576040517f08c379a0000000000000000000000000000000000000000000000000000000008152600401610b73906113ab565b60405180910390fd5b60035f9054906101000a900473ffffffffffffffffffffffffffffffffffffffff16600454915091509091565b600581565b60035f9054906101000a900473ffffffffffffffffffffffffffffffffffffffff1681565b600281565b5f60045460065f3373ffffffffffffffffffffffffffffffffffffffff1673ffffffffffffffffffffffffffffffffffffffff1681526020019081526020015f2054610c2491906112a0565b90505f8111610c68576040517f08c379a0000000000000000000000000000000000000000000000000000000008152600401610c5f90611440565b60405180910390fd5b8060065f3373ffffffffffffffffffffffffffffffffffffffff1673ffffffffffffffffffffffffffffffffffffffff1681526020019081526020015f205f828254610cb491906112a0565b925050819055503373ffffffffffffffffffffffffffffffffffffffff166108fc8290811502906040515f60405180830381858888f19350505050158015610cfe573d5f803e3d5ffd5b5050565b60606005805480602002602001604051908101604052809291908181526020015f905b82821015610db3578382905f5260205f2090600202016040518060400160405290815f82015f9054906101000a900473ffffffffffffffffffffffffffffffffffffffff1673ffffffffffffffffffffffffffffffffffffffff1673ffffffffffffffffffffffffffffffffffffffff16815260200160018201548152505081526020019060010190610d25565b50505050905090565b60045481565b5f819050919050565b610dd481610dc2565b82525050565b5f602082019050610ded5f830184610dcb565b92915050565b5f73ffffffffffffffffffffffffffffffffffffffff82169050919050565b5f610e1c82610df3565b9050919050565b610e2c81610e12565b82525050565b5f602082019050610e455f830184610e23565b92915050565b5f80fd5b610e5881610dc2565b8114610e62575f80fd5b50565b5f81359050610e7381610e4f565b92915050565b5f60208284031215610e8e57610e8d610e4b565b5b5f610e9b84828501610e65565b91505092915050565b5f604082019050610eb75f830185610e23565b610ec46020830184610dcb565b9392505050565b610ed481610e12565b8114610ede575f80fd5b50565b5f81359050610eef81610ecb565b92915050565b5f60208284031215610f0a57610f09610e4b565b5b5f610f1784828501610ee1565b91505092915050565b5f81519050919050565b5f82825260208201905092915050565b5f819050602082019050919050565b610f5281610e12565b82525050565b610f6181610dc2565b82525050565b604082015f820151610f7b5f850182610f49565b506020820151610f8e6020850182610f58565b50505050565b5f610f9f8383610f67565b60408301905092915050565b5f602082019050919050565b5f610fc182610f20565b610fcb8185610f2a565b9350610fd683610f3a565b805f5b83811015611006578151610fed8882610f94565b9750610ff883610fab565b925050600181019050610fd9565b5085935050505092915050565b5f6020820190508181035f83015261102b8184610fb7565b905092915050565b5f82825260208201905092915050565b7f4269642068617320656e646564000000000000000000000000000000000000005f82015250565b5f611077600d83611033565b915061108282611043565b602082019050919050565b5f6020820190508181035f8301526110a48161106b565b9050919050565b7f426964206d7573742062652067726561746572207468616e207a65726f0000005f82015250565b5f6110df601d83611033565b91506110ea826110ab565b602082019050919050565b5f6020820190508181035f83015261110c816110d3565b9050919050565b7f4e487b71000000000000000000000000000000000000000000000000000000005f52601160045260245ffd5b5f61114a82610dc2565b915061115583610dc2565b925082820190508082111561116d5761116c611113565b5b92915050565b5f61117d82610dc2565b915061118883610dc2565b925082820261119681610dc2565b915082820484148315176111ad576111ac611113565b5b5092915050565b7f4e487b71000000000000000000000000000000000000000000000000000000005f52601260045260245ffd5b5f6111eb82610dc2565b91506111f683610dc2565b925082611206576112056111b4565b5b828204905092915050565b7f4f66666572206d757374206265206174206c65617374203525206869676865725f82015250565b5f611245602083611033565b915061125082611211565b602082019050919050565b5f6020820190508181035f83015261127281611239565b9050919050565b5f60408201905061128c5f830185610dcb565b6112996020830184610dcb565b9392505050565b5f6112aa82610dc2565b91506112b583610dc2565b92508282039050818111156112cd576112cc611113565b5b92915050565b7f54686973206665617475726520697320726573657276656420746f204f776e655f8201527f7200000000000000000000000000000000000000000000000000000000000000602082015250565b5f61132d602183611033565b9150611338826112d3565b604082019050919050565b5f6020820190508181035f83015261135a81611321565b9050919050565b7f4c6120737562617374612061756e206573746120656e20637572736f000000005f82015250565b5f611395601c83611033565b91506113a082611361565b602082019050919050565b5f6020820190508181035f8301526113c281611389565b9050919050565b7f4e487b71000000000000000000000000000000000000000000000000000000005f52603260045260245ffd5b7f4e6f207469656e6520737566696369656e74652065786365736f0000000000005f82015250565b5f61142a601a83611033565b9150611435826113f6565b602082019050919050565b5f6020820190508181035f8301526114578161141e565b905091905056fea264697066735822122013b34e0a3405f452821c0edd3d3a89edca8ad5ddd12d0ac9ded2d60f52ddac3564736f6c634300081a0033",
					"opcodes": "PUSH1 0x80 PUSH1 0x40 MSTORE CALLVALUE DUP1 ISZERO PUSH2 0xF JUMPI PUSH0 DUP1 REVERT JUMPDEST POP PUSH1 0x40 MLOAD PUSH2 0x15FB CODESIZE SUB DUP1 PUSH2 0x15FB DUP4 CODECOPY DUP2 DUP2 ADD PUSH1 0x40 MSTORE DUP2 ADD SWAP1 PUSH2 0x31 SWAP2 SWAP1 PUSH2 0xCF JUMP JUMPDEST CALLER PUSH0 DUP1 PUSH2 0x100 EXP DUP2 SLOAD DUP2 PUSH20 0xFFFFFFFFFFFFFFFFFFFFFFFFFFFFFFFFFFFFFFFF MUL NOT AND SWAP1 DUP4 PUSH20 0xFFFFFFFFFFFFFFFFFFFFFFFFFFFFFFFFFFFFFFFF AND MUL OR SWAP1 SSTORE POP TIMESTAMP PUSH1 0x1 DUP2 SWAP1 SSTORE POP DUP1 PUSH1 0x1 SLOAD PUSH2 0x85 SWAP2 SWAP1 PUSH2 0x127 JUMP JUMPDEST PUSH1 0x2 DUP2 SWAP1 SSTORE POP PUSH0 PUSH1 0x4 DUP2 SWAP1 SSTORE POP POP PUSH2 0x15A JUMP JUMPDEST PUSH0 DUP1 REVERT JUMPDEST PUSH0 DUP2 SWAP1 POP SWAP2 SWAP1 POP JUMP JUMPDEST PUSH2 0xAE DUP2 PUSH2 0x9C JUMP JUMPDEST DUP2 EQ PUSH2 0xB8 JUMPI PUSH0 DUP1 REVERT JUMPDEST POP JUMP JUMPDEST PUSH0 DUP2 MLOAD SWAP1 POP PUSH2 0xC9 DUP2 PUSH2 0xA5 JUMP JUMPDEST SWAP3 SWAP2 POP POP JUMP JUMPDEST PUSH0 PUSH1 0x20 DUP3 DUP5 SUB SLT ISZERO PUSH2 0xE4 JUMPI PUSH2 0xE3 PUSH2 0x98 JUMP JUMPDEST JUMPDEST PUSH0 PUSH2 0xF1 DUP5 DUP3 DUP6 ADD PUSH2 0xBB JUMP JUMPDEST SWAP2 POP POP SWAP3 SWAP2 POP POP JUMP JUMPDEST PUSH32 0x4E487B7100000000000000000000000000000000000000000000000000000000 PUSH0 MSTORE PUSH1 0x11 PUSH1 0x4 MSTORE PUSH1 0x24 PUSH0 REVERT JUMPDEST PUSH0 PUSH2 0x131 DUP3 PUSH2 0x9C JUMP JUMPDEST SWAP2 POP PUSH2 0x13C DUP4 PUSH2 0x9C JUMP JUMPDEST SWAP3 POP DUP3 DUP3 ADD SWAP1 POP DUP1 DUP3 GT ISZERO PUSH2 0x154 JUMPI PUSH2 0x153 PUSH2 0xFA JUMP JUMPDEST JUMPDEST SWAP3 SWAP2 POP POP JUMP JUMPDEST PUSH2 0x1494 DUP1 PUSH2 0x167 PUSH0 CODECOPY PUSH0 RETURN INVALID PUSH1 0x80 PUSH1 0x40 MSTORE PUSH1 0x4 CALLDATASIZE LT PUSH2 0xE7 JUMPI PUSH0 CALLDATALOAD PUSH1 0xE0 SHR DUP1 PUSH4 0x7070F1BE GT PUSH2 0x89 JUMPI DUP1 PUSH4 0xB404E001 GT PUSH2 0x58 JUMPI DUP1 PUSH4 0xB404E001 EQ PUSH2 0x29F JUMPI DUP1 PUSH4 0xC1902319 EQ PUSH2 0x2C9 JUMPI DUP1 PUSH4 0xC442A99F EQ PUSH2 0x2DF JUMPI DUP1 PUSH4 0xD57BDE79 EQ PUSH2 0x309 JUMPI PUSH2 0xE7 JUMP JUMPDEST DUP1 PUSH4 0x7070F1BE EQ PUSH2 0x1E4 JUMPI DUP1 PUSH4 0x753DCAEB EQ PUSH2 0x220 JUMPI DUP1 PUSH4 0x7BB44B83 EQ PUSH2 0x24B JUMPI DUP1 PUSH4 0x91F90157 EQ PUSH2 0x275 JUMPI PUSH2 0xE7 JUMP JUMPDEST DUP1 PUSH4 0x4BA9A927 GT PUSH2 0xC5 JUMPI DUP1 PUSH4 0x4BA9A927 EQ PUSH2 0x149 JUMPI DUP1 PUSH4 0x5298A3C4 EQ PUSH2 0x173 JUMPI DUP1 PUSH4 0x56AFFF7C EQ PUSH2 0x17D JUMPI DUP1 PUSH4 0x6D4D09D7 EQ PUSH2 0x1BA JUMPI PUSH2 0xE7 JUMP JUMPDEST DUP1 PUSH4 0x2BC22FC EQ PUSH2 0xEB JUMPI DUP1 PUSH4 0x3FE7FAA EQ PUSH2 0x115 JUMPI DUP1 PUSH4 0x3EC059D7 EQ PUSH2 0x13F JUMPI JUMPDEST PUSH0 DUP1 REVERT JUMPDEST CALLVALUE DUP1 ISZERO PUSH2 0xF6 JUMPI PUSH0 DUP1 REVERT JUMPDEST POP PUSH2 0xFF PUSH2 0x333 JUMP JUMPDEST PUSH1 0x40 MLOAD PUSH2 0x10C SWAP2 SWAP1 PUSH2 0xDDA JUMP JUMPDEST PUSH1 0x40 MLOAD DUP1 SWAP2 SUB SWAP1 RETURN JUMPDEST CALLVALUE DUP1 ISZERO PUSH2 0x120 JUMPI PUSH0 DUP1 REVERT JUMPDEST POP PUSH2 0x129 PUSH2 0x339 JUMP JUMPDEST PUSH1 0x40 MLOAD PUSH2 0x136 SWAP2 SWAP1 PUSH2 0xE32 JUMP JUMPDEST PUSH1 0x40 MLOAD DUP1 SWAP2 SUB SWAP1 RETURN JUMPDEST PUSH2 0x147 PUSH2 0x35C JUMP JUMPDEST STOP JUMPDEST CALLVALUE DUP1 ISZERO PUSH2 0x154 JUMPI PUSH0 DUP1 REVERT JUMPDEST POP PUSH2 0x15D PUSH2 0x790 JUMP JUMPDEST PUSH1 0x40 MLOAD PUSH2 0x16A SWAP2 SWAP1 PUSH2 0xDDA JUMP JUMPDEST PUSH1 0x40 MLOAD DUP1 SWAP2 SUB SWAP1 RETURN JUMPDEST PUSH2 0x17B PUSH2 0x796 JUMP JUMPDEST STOP JUMPDEST CALLVALUE DUP1 ISZERO PUSH2 0x188 JUMPI PUSH0 DUP1 REVERT JUMPDEST POP PUSH2 0x1A3 PUSH1 0x4 DUP1 CALLDATASIZE SUB DUP2 ADD SWAP1 PUSH2 0x19E SWAP2 SWAP1 PUSH2 0xE79 JUMP JUMPDEST PUSH2 0xACD JUMP JUMPDEST PUSH1 0x40 MLOAD PUSH2 0x1B1 SWAP3 SWAP2 SWAP1 PUSH2 0xEA4 JUMP JUMPDEST PUSH1 0x40 MLOAD DUP1 SWAP2 SUB SWAP1 RETURN JUMPDEST CALLVALUE DUP1 ISZERO PUSH2 0x1C5 JUMPI PUSH0 DUP1 REVERT JUMPDEST POP PUSH2 0x1CE PUSH2 0xB1B JUMP JUMPDEST PUSH1 0x40 MLOAD PUSH2 0x1DB SWAP2 SWAP1 PUSH2 0xDDA JUMP JUMPDEST PUSH1 0x40 MLOAD DUP1 SWAP2 SUB SWAP1 RETURN JUMPDEST CALLVALUE DUP1 ISZERO PUSH2 0x1EF JUMPI PUSH0 DUP1 REVERT JUMPDEST POP PUSH2 0x20A PUSH1 0x4 DUP1 CALLDATASIZE SUB DUP2 ADD SWAP1 PUSH2 0x205 SWAP2 SWAP1 PUSH2 0xEF5 JUMP JUMPDEST PUSH2 0xB21 JUMP JUMPDEST PUSH1 0x40 MLOAD PUSH2 0x217 SWAP2 SWAP1 PUSH2 0xDDA JUMP JUMPDEST PUSH1 0x40 MLOAD DUP1 SWAP2 SUB SWAP1 RETURN JUMPDEST CALLVALUE DUP1 ISZERO PUSH2 0x22B JUMPI PUSH0 DUP1 REVERT JUMPDEST POP PUSH2 0x234 PUSH2 0xB36 JUMP JUMPDEST PUSH1 0x40 MLOAD PUSH2 0x242 SWAP3 SWAP2 SWAP1 PUSH2 0xEA4 JUMP JUMPDEST PUSH1 0x40 MLOAD DUP1 SWAP2 SUB SWAP1 RETURN JUMPDEST CALLVALUE DUP1 ISZERO PUSH2 0x256 JUMPI PUSH0 DUP1 REVERT JUMPDEST POP PUSH2 0x25F PUSH2 0xBA9 JUMP JUMPDEST PUSH1 0x40 MLOAD PUSH2 0x26C SWAP2 SWAP1 PUSH2 0xDDA JUMP JUMPDEST PUSH1 0x40 MLOAD DUP1 SWAP2 SUB SWAP1 RETURN JUMPDEST CALLVALUE DUP1 ISZERO PUSH2 0x280 JUMPI PUSH0 DUP1 REVERT JUMPDEST POP PUSH2 0x289 PUSH2 0xBAE JUMP JUMPDEST PUSH1 0x40 MLOAD PUSH2 0x296 SWAP2 SWAP1 PUSH2 0xE32 JUMP JUMPDEST PUSH1 0x40 MLOAD DUP1 SWAP2 SUB SWAP1 RETURN JUMPDEST CALLVALUE DUP1 ISZERO PUSH2 0x2AA JUMPI PUSH0 DUP1 REVERT JUMPDEST POP PUSH2 0x2B3 PUSH2 0xBD3 JUMP JUMPDEST PUSH1 0x40 MLOAD PUSH2 0x2C0 SWAP2 SWAP1 PUSH2 0xDDA JUMP JUMPDEST PUSH1 0x40 MLOAD DUP1 SWAP2 SUB SWAP1 RETURN JUMPDEST CALLVALUE DUP1 ISZERO PUSH2 0x2D4 JUMPI PUSH0 DUP1 REVERT JUMPDEST POP PUSH2 0x2DD PUSH2 0xBD8 JUMP JUMPDEST STOP JUMPDEST CALLVALUE DUP1 ISZERO PUSH2 0x2EA JUMPI PUSH0 DUP1 REVERT JUMPDEST POP PUSH2 0x2F3 PUSH2 0xD02 JUMP JUMPDEST PUSH1 0x40 MLOAD PUSH2 0x300 SWAP2 SWAP1 PUSH2 0x1013 JUMP JUMPDEST PUSH1 0x40 MLOAD DUP1 SWAP2 SUB SWAP1 RETURN JUMPDEST CALLVALUE DUP1 ISZERO PUSH2 0x314 JUMPI PUSH0 DUP1 REVERT JUMPDEST POP PUSH2 0x31D PUSH2 0xDBC JUMP JUMPDEST PUSH1 0x40 MLOAD PUSH2 0x32A SWAP2 SWAP1 PUSH2 0xDDA JUMP JUMPDEST PUSH1 0x40 MLOAD DUP1 SWAP2 SUB SWAP1 RETURN JUMPDEST PUSH2 0x258 DUP2 JUMP JUMPDEST PUSH0 DUP1 SLOAD SWAP1 PUSH2 0x100 EXP SWAP1 DIV PUSH20 0xFFFFFFFFFFFFFFFFFFFFFFFFFFFFFFFFFFFFFFFF AND DUP2 JUMP JUMPDEST PUSH1 0x2 SLOAD TIMESTAMP GT ISZERO PUSH2 0x3A1 JUMPI PUSH1 0x40 MLOAD PUSH32 0x8C379A000000000000000000000000000000000000000000000000000000000 DUP2 MSTORE PUSH1 0x4 ADD PUSH2 0x398 SWAP1 PUSH2 0x108D JUMP JUMPDEST PUSH1 0x40 MLOAD DUP1 SWAP2 SUB SWAP1 REVERT JUMPDEST PUSH0 CALLVALUE GT PUSH2 0x3E3 JUMPI PUSH1 0x40 MLOAD PUSH32 0x8C379A000000000000000000000000000000000000000000000000000000000 DUP2 MSTORE PUSH1 0x4 ADD PUSH2 0x3DA SWAP1 PUSH2 0x10F5 JUMP JUMPDEST PUSH1 0x40 MLOAD DUP1 SWAP2 SUB SWAP1 REVERT JUMPDEST PUSH0 CALLVALUE PUSH1 0x6 PUSH0 CALLER PUSH20 0xFFFFFFFFFFFFFFFFFFFFFFFFFFFFFFFFFFFFFFFF AND PUSH20 0xFFFFFFFFFFFFFFFFFFFFFFFFFFFFFFFFFFFFFFFF AND DUP2 MSTORE PUSH1 0x20 ADD SWAP1 DUP2 MSTORE PUSH1 0x20 ADD PUSH0 KECCAK256 SLOAD PUSH2 0x42D SWAP2 SWAP1 PUSH2 0x1140 JUMP JUMPDEST SWAP1 POP PUSH1 0x64 PUSH1 0x5 PUSH1 0x4 SLOAD PUSH2 0x440 SWAP2 SWAP1 PUSH2 0x1173 JUMP JUMPDEST PUSH2 0x44A SWAP2 SWAP1 PUSH2 0x11E1 JUMP JUMPDEST PUSH1 0x4 SLOAD PUSH2 0x457 SWAP2 SWAP1 PUSH2 0x1140 JUMP JUMPDEST DUP2 LT ISZERO PUSH2 0x499 JUMPI PUSH1 0x40 MLOAD PUSH32 0x8C379A000000000000000000000000000000000000000000000000000000000 DUP2 MSTORE PUSH1 0x4 ADD PUSH2 0x490 SWAP1 PUSH2 0x125B JUMP JUMPDEST PUSH1 0x40 MLOAD DUP1 SWAP2 SUB SWAP1 REVERT JUMPDEST PUSH1 0x5 PUSH1 0x40 MLOAD DUP1 PUSH1 0x40 ADD PUSH1 0x40 MSTORE DUP1 CALLER PUSH20 0xFFFFFFFFFFFFFFFFFFFFFFFFFFFFFFFFFFFFFFFF AND DUP2 MSTORE PUSH1 0x20 ADD DUP4 DUP2 MSTORE POP SWAP1 DUP1 PUSH1 0x1 DUP2 SLOAD ADD DUP1 DUP3 SSTORE DUP1 SWAP2 POP POP PUSH1 0x1 SWAP1 SUB SWAP1 PUSH0 MSTORE PUSH1 0x20 PUSH0 KECCAK256 SWAP1 PUSH1 0x2 MUL ADD PUSH0 SWAP1 SWAP2 SWAP1 SWAP2 SWAP1 SWAP2 POP PUSH0 DUP3 ADD MLOAD DUP2 PUSH0 ADD PUSH0 PUSH2 0x100 EXP DUP2 SLOAD DUP2 PUSH20 0xFFFFFFFFFFFFFFFFFFFFFFFFFFFFFFFFFFFFFFFF MUL NOT AND SWAP1 DUP4 PUSH20 0xFFFFFFFFFFFFFFFFFFFFFFFFFFFFFFFFFFFFFFFF AND MUL OR SWAP1 SSTORE POP PUSH1 0x20 DUP3 ADD MLOAD DUP2 PUSH1 0x1 ADD SSTORE POP POP PUSH0 PUSH1 0x6 PUSH0 CALLER PUSH20 0xFFFFFFFFFFFFFFFFFFFFFFFFFFFFFFFFFFFFFFFF AND PUSH20 0xFFFFFFFFFFFFFFFFFFFFFFFFFFFFFFFFFFFFFFFF AND DUP2 MSTORE PUSH1 0x20 ADD SWAP1 DUP2 MSTORE PUSH1 0x20 ADD PUSH0 KECCAK256 SLOAD GT ISZERO PUSH2 0x64A JUMPI PUSH0 PUSH1 0x6 PUSH0 CALLER PUSH20 0xFFFFFFFFFFFFFFFFFFFFFFFFFFFFFFFFFFFFFFFF AND PUSH20 0xFFFFFFFFFFFFFFFFFFFFFFFFFFFFFFFFFFFFFFFF AND DUP2 MSTORE PUSH1 0x20 ADD SWAP1 DUP2 MSTORE PUSH1 0x20 ADD PUSH0 KECCAK256 SLOAD SWAP1 POP PUSH0 PUSH1 0x6 PUSH0 CALLER PUSH20 0xFFFFFFFFFFFFFFFFFFFFFFFFFFFFFFFFFFFFFFFF AND PUSH20 0xFFFFFFFFFFFFFFFFFFFFFFFFFFFFFFFFFFFFFFFF AND DUP2 MSTORE PUSH1 0x20 ADD SWAP1 DUP2 MSTORE PUSH1 0x20 ADD PUSH0 KECCAK256 DUP2 SWAP1 SSTORE POP CALLER PUSH20 0xFFFFFFFFFFFFFFFFFFFFFFFFFFFFFFFFFFFFFFFF AND PUSH2 0x8FC DUP3 SWAP1 DUP2 ISZERO MUL SWAP1 PUSH1 0x40 MLOAD PUSH0 PUSH1 0x40 MLOAD DUP1 DUP4 SUB DUP2 DUP6 DUP9 DUP9 CALL SWAP4 POP POP POP POP ISZERO DUP1 ISZERO PUSH2 0x647 JUMPI RETURNDATASIZE PUSH0 DUP1 RETURNDATACOPY RETURNDATASIZE PUSH0 REVERT JUMPDEST POP POP JUMPDEST CALLER PUSH1 0x3 PUSH0 PUSH2 0x100 EXP DUP2 SLOAD DUP2 PUSH20 0xFFFFFFFFFFFFFFFFFFFFFFFFFFFFFFFFFFFFFFFF MUL NOT AND SWAP1 DUP4 PUSH20 0xFFFFFFFFFFFFFFFFFFFFFFFFFFFFFFFFFFFFFFFF AND MUL OR SWAP1 SSTORE POP DUP1 PUSH1 0x4 DUP2 SWAP1 SSTORE POP DUP1 PUSH1 0x6 PUSH0 CALLER PUSH20 0xFFFFFFFFFFFFFFFFFFFFFFFFFFFFFFFFFFFFFFFF AND PUSH20 0xFFFFFFFFFFFFFFFFFFFFFFFFFFFFFFFFFFFFFFFF AND DUP2 MSTORE PUSH1 0x20 ADD SWAP1 DUP2 MSTORE PUSH1 0x20 ADD PUSH0 KECCAK256 DUP2 SWAP1 SSTORE POP CALLER PUSH20 0xFFFFFFFFFFFFFFFFFFFFFFFFFFFFFFFFFFFFFFFF AND PUSH32 0xC0EE0120C42D2A25D2D9A3D40A59A7570CA25F0FA2F9FD6A8B885A761F0BEEFA DUP3 TIMESTAMP PUSH1 0x40 MLOAD PUSH2 0x71B SWAP3 SWAP2 SWAP1 PUSH2 0x1279 JUMP JUMPDEST PUSH1 0x40 MLOAD DUP1 SWAP2 SUB SWAP1 LOG2 PUSH2 0x258 PUSH1 0x2 SLOAD PUSH2 0x733 SWAP2 SWAP1 PUSH2 0x12A0 JUMP JUMPDEST TIMESTAMP LT PUSH2 0x78D JUMPI PUSH2 0x258 PUSH1 0x2 PUSH0 DUP3 DUP3 SLOAD PUSH2 0x74C SWAP2 SWAP1 PUSH2 0x1140 JUMP JUMPDEST SWAP3 POP POP DUP2 SWAP1 SSTORE POP PUSH32 0xD00DF96AB7DBC2500D2727D4E26BFA8F37E005495BB12F2AF6BA48952C742C17 PUSH1 0x2 SLOAD PUSH1 0x40 MLOAD PUSH2 0x784 SWAP2 SWAP1 PUSH2 0xDDA JUMP JUMPDEST PUSH1 0x40 MLOAD DUP1 SWAP2 SUB SWAP1 LOG1 JUMPDEST POP JUMP JUMPDEST PUSH1 0x2 SLOAD DUP2 JUMP JUMPDEST PUSH0 DUP1 SLOAD SWAP1 PUSH2 0x100 EXP SWAP1 DIV PUSH20 0xFFFFFFFFFFFFFFFFFFFFFFFFFFFFFFFFFFFFFFFF AND PUSH20 0xFFFFFFFFFFFFFFFFFFFFFFFFFFFFFFFFFFFFFFFF AND CALLER PUSH20 0xFFFFFFFFFFFFFFFFFFFFFFFFFFFFFFFFFFFFFFFF AND EQ PUSH2 0x823 JUMPI PUSH1 0x40 MLOAD PUSH32 0x8C379A000000000000000000000000000000000000000000000000000000000 DUP2 MSTORE PUSH1 0x4 ADD PUSH2 0x81A SWAP1 PUSH2 0x1343 JUMP JUMPDEST PUSH1 0x40 MLOAD DUP1 SWAP2 SUB SWAP1 REVERT JUMPDEST PUSH1 0x2 SLOAD TIMESTAMP GT PUSH2 0x867 JUMPI PUSH1 0x40 MLOAD PUSH32 0x8C379A000000000000000000000000000000000000000000000000000000000 DUP2 MSTORE PUSH1 0x4 ADD PUSH2 0x85E SWAP1 PUSH2 0x13AB JUMP JUMPDEST PUSH1 0x40 MLOAD DUP1 SWAP2 SUB SWAP1 REVERT JUMPDEST PUSH0 JUMPDEST PUSH1 0x5 DUP1 SLOAD SWAP1 POP DUP2 LT ISZERO PUSH2 0xA6E JUMPI PUSH0 PUSH1 0x5 DUP3 DUP2 SLOAD DUP2 LT PUSH2 0x88B JUMPI PUSH2 0x88A PUSH2 0x13C9 JUMP JUMPDEST JUMPDEST SWAP1 PUSH0 MSTORE PUSH1 0x20 PUSH0 KECCAK256 SWAP1 PUSH1 0x2 MUL ADD PUSH0 ADD PUSH0 SWAP1 SLOAD SWAP1 PUSH2 0x100 EXP SWAP1 DIV PUSH20 0xFFFFFFFFFFFFFFFFFFFFFFFFFFFFFFFFFFFFFFFF AND SWAP1 POP PUSH0 PUSH1 0x6 PUSH0 DUP4 PUSH20 0xFFFFFFFFFFFFFFFFFFFFFFFFFFFFFFFFFFFFFFFF AND PUSH20 0xFFFFFFFFFFFFFFFFFFFFFFFFFFFFFFFFFFFFFFFF AND DUP2 MSTORE PUSH1 0x20 ADD SWAP1 DUP2 MSTORE PUSH1 0x20 ADD PUSH0 KECCAK256 SLOAD SWAP1 POP PUSH1 0x3 PUSH0 SWAP1 SLOAD SWAP1 PUSH2 0x100 EXP SWAP1 DIV PUSH20 0xFFFFFFFFFFFFFFFFFFFFFFFFFFFFFFFFFFFFFFFF AND PUSH20 0xFFFFFFFFFFFFFFFFFFFFFFFFFFFFFFFFFFFFFFFF AND DUP3 PUSH20 0xFFFFFFFFFFFFFFFFFFFFFFFFFFFFFFFFFFFFFFFF AND EQ ISZERO DUP1 ISZERO PUSH2 0x958 JUMPI POP PUSH0 DUP2 GT JUMPDEST ISZERO PUSH2 0xA5F JUMPI PUSH0 PUSH1 0x64 PUSH1 0x2 DUP4 PUSH2 0x96D SWAP2 SWAP1 PUSH2 0x1173 JUMP JUMPDEST PUSH2 0x977 SWAP2 SWAP1 PUSH2 0x11E1 JUMP JUMPDEST SWAP1 POP PUSH0 DUP2 DUP4 PUSH2 0x986 SWAP2 SWAP1 PUSH2 0x12A0 JUMP JUMPDEST SWAP1 POP PUSH0 PUSH1 0x6 PUSH0 DUP7 PUSH20 0xFFFFFFFFFFFFFFFFFFFFFFFFFFFFFFFFFFFFFFFF AND PUSH20 0xFFFFFFFFFFFFFFFFFFFFFFFFFFFFFFFFFFFFFFFF AND DUP2 MSTORE PUSH1 0x20 ADD SWAP1 DUP2 MSTORE PUSH1 0x20 ADD PUSH0 KECCAK256 DUP2 SWAP1 SSTORE POP DUP4 PUSH20 0xFFFFFFFFFFFFFFFFFFFFFFFFFFFFFFFFFFFFFFFF AND PUSH2 0x8FC DUP3 SWAP1 DUP2 ISZERO MUL SWAP1 PUSH1 0x40 MLOAD PUSH0 PUSH1 0x40 MLOAD DUP1 DUP4 SUB DUP2 DUP6 DUP9 DUP9 CALL SWAP4 POP POP POP POP ISZERO DUP1 ISZERO PUSH2 0xA0D JUMPI RETURNDATASIZE PUSH0 DUP1 RETURNDATACOPY RETURNDATASIZE PUSH0 REVERT JUMPDEST POP DUP4 PUSH20 0xFFFFFFFFFFFFFFFFFFFFFFFFFFFFFFFFFFFFFFFF AND PUSH32 0xC10E1A954B8AADB1BCCAD4AC0748414B575923AE1FE13AEFE1B068C06019D73F DUP3 PUSH1 0x40 MLOAD PUSH2 0xA54 SWAP2 SWAP1 PUSH2 0xDDA JUMP JUMPDEST PUSH1 0x40 MLOAD DUP1 SWAP2 SUB SWAP1 LOG2 POP POP JUMPDEST POP POP DUP1 DUP1 PUSH1 0x1 ADD SWAP2 POP POP PUSH2 0x869 JUMP JUMPDEST POP PUSH32 0xE3A2429A7985FD026B75A901911E3BEE729E9F160F1B0E3A09596D891ED7E06F PUSH1 0x3 PUSH0 SWAP1 SLOAD SWAP1 PUSH2 0x100 EXP SWAP1 DIV PUSH20 0xFFFFFFFFFFFFFFFFFFFFFFFFFFFFFFFFFFFFFFFF AND PUSH1 0x4 SLOAD PUSH1 0x40 MLOAD PUSH2 0xAC3 SWAP3 SWAP2 SWAP1 PUSH2 0xEA4 JUMP JUMPDEST PUSH1 0x40 MLOAD DUP1 SWAP2 SUB SWAP1 LOG1 JUMP JUMPDEST PUSH1 0x5 DUP2 DUP2 SLOAD DUP2 LT PUSH2 0xADC JUMPI PUSH0 DUP1 REVERT JUMPDEST SWAP1 PUSH0 MSTORE PUSH1 0x20 PUSH0 KECCAK256 SWAP1 PUSH1 0x2 MUL ADD PUSH0 SWAP2 POP SWAP1 POP DUP1 PUSH0 ADD PUSH0 SWAP1 SLOAD SWAP1 PUSH2 0x100 EXP SWAP1 DIV PUSH20 0xFFFFFFFFFFFFFFFFFFFFFFFFFFFFFFFFFFFFFFFF AND SWAP1 DUP1 PUSH1 0x1 ADD SLOAD SWAP1 POP DUP3 JUMP JUMPDEST PUSH1 0x1 SLOAD DUP2 JUMP JUMPDEST PUSH1 0x6 PUSH1 0x20 MSTORE DUP1 PUSH0 MSTORE PUSH1 0x40 PUSH0 KECCAK256 PUSH0 SWAP2 POP SWAP1 POP SLOAD DUP2 JUMP JUMPDEST PUSH0 DUP1 PUSH1 0x2 SLOAD TIMESTAMP GT PUSH2 0xB7C JUMPI PUSH1 0x40 MLOAD PUSH32 0x8C379A000000000000000000000000000000000000000000000000000000000 DUP2 MSTORE PUSH1 0x4 ADD PUSH2 0xB73 SWAP1 PUSH2 0x13AB JUMP JUMPDEST PUSH1 0x40 MLOAD DUP1 SWAP2 SUB SWAP1 REVERT JUMPDEST PUSH1 0x3 PUSH0 SWAP1 SLOAD SWAP1 PUSH2 0x100 EXP SWAP1 DIV PUSH20 0xFFFFFFFFFFFFFFFFFFFFFFFFFFFFFFFFFFFFFFFF AND PUSH1 0x4 SLOAD SWAP2 POP SWAP2 POP SWAP1 SWAP2 JUMP JUMPDEST PUSH1 0x5 DUP2 JUMP JUMPDEST PUSH1 0x3 PUSH0 SWAP1 SLOAD SWAP1 PUSH2 0x100 EXP SWAP1 DIV PUSH20 0xFFFFFFFFFFFFFFFFFFFFFFFFFFFFFFFFFFFFFFFF AND DUP2 JUMP JUMPDEST PUSH1 0x2 DUP2 JUMP JUMPDEST PUSH0 PUSH1 0x4 SLOAD PUSH1 0x6 PUSH0 CALLER PUSH20 0xFFFFFFFFFFFFFFFFFFFFFFFFFFFFFFFFFFFFFFFF AND PUSH20 0xFFFFFFFFFFFFFFFFFFFFFFFFFFFFFFFFFFFFFFFF AND DUP2 MSTORE PUSH1 0x20 ADD SWAP1 DUP2 MSTORE PUSH1 0x20 ADD PUSH0 KECCAK256 SLOAD PUSH2 0xC24 SWAP2 SWAP1 PUSH2 0x12A0 JUMP JUMPDEST SWAP1 POP PUSH0 DUP2 GT PUSH2 0xC68 JUMPI PUSH1 0x40 MLOAD PUSH32 0x8C379A000000000000000000000000000000000000000000000000000000000 DUP2 MSTORE PUSH1 0x4 ADD PUSH2 0xC5F SWAP1 PUSH2 0x1440 JUMP JUMPDEST PUSH1 0x40 MLOAD DUP1 SWAP2 SUB SWAP1 REVERT JUMPDEST DUP1 PUSH1 0x6 PUSH0 CALLER PUSH20 0xFFFFFFFFFFFFFFFFFFFFFFFFFFFFFFFFFFFFFFFF AND PUSH20 0xFFFFFFFFFFFFFFFFFFFFFFFFFFFFFFFFFFFFFFFF AND DUP2 MSTORE PUSH1 0x20 ADD SWAP1 DUP2 MSTORE PUSH1 0x20 ADD PUSH0 KECCAK256 PUSH0 DUP3 DUP3 SLOAD PUSH2 0xCB4 SWAP2 SWAP1 PUSH2 0x12A0 JUMP JUMPDEST SWAP3 POP POP DUP2 SWAP1 SSTORE POP CALLER PUSH20 0xFFFFFFFFFFFFFFFFFFFFFFFFFFFFFFFFFFFFFFFF AND PUSH2 0x8FC DUP3 SWAP1 DUP2 ISZERO MUL SWAP1 PUSH1 0x40 MLOAD PUSH0 PUSH1 0x40 MLOAD DUP1 DUP4 SUB DUP2 DUP6 DUP9 DUP9 CALL SWAP4 POP POP POP POP ISZERO DUP1 ISZERO PUSH2 0xCFE JUMPI RETURNDATASIZE PUSH0 DUP1 RETURNDATACOPY RETURNDATASIZE PUSH0 REVERT JUMPDEST POP POP JUMP JUMPDEST PUSH1 0x60 PUSH1 0x5 DUP1 SLOAD DUP1 PUSH1 0x20 MUL PUSH1 0x20 ADD PUSH1 0x40 MLOAD SWAP1 DUP2 ADD PUSH1 0x40 MSTORE DUP1 SWAP3 SWAP2 SWAP1 DUP2 DUP2 MSTORE PUSH1 0x20 ADD PUSH0 SWAP1 JUMPDEST DUP3 DUP3 LT ISZERO PUSH2 0xDB3 JUMPI DUP4 DUP3 SWAP1 PUSH0 MSTORE PUSH1 0x20 PUSH0 KECCAK256 SWAP1 PUSH1 0x2 MUL ADD PUSH1 0x40 MLOAD DUP1 PUSH1 0x40 ADD PUSH1 0x40 MSTORE SWAP1 DUP2 PUSH0 DUP3 ADD PUSH0 SWAP1 SLOAD SWAP1 PUSH2 0x100 EXP SWAP1 DIV PUSH20 0xFFFFFFFFFFFFFFFFFFFFFFFFFFFFFFFFFFFFFFFF AND PUSH20 0xFFFFFFFFFFFFFFFFFFFFFFFFFFFFFFFFFFFFFFFF AND PUSH20 0xFFFFFFFFFFFFFFFFFFFFFFFFFFFFFFFFFFFFFFFF AND DUP2 MSTORE PUSH1 0x20 ADD PUSH1 0x1 DUP3 ADD SLOAD DUP2 MSTORE POP POP DUP2 MSTORE PUSH1 0x20 ADD SWAP1 PUSH1 0x1 ADD SWAP1 PUSH2 0xD25 JUMP JUMPDEST POP POP POP POP SWAP1 POP SWAP1 JUMP JUMPDEST PUSH1 0x4 SLOAD DUP2 JUMP JUMPDEST PUSH0 DUP2 SWAP1 POP SWAP2 SWAP1 POP JUMP JUMPDEST PUSH2 0xDD4 DUP2 PUSH2 0xDC2 JUMP JUMPDEST DUP3 MSTORE POP POP JUMP JUMPDEST PUSH0 PUSH1 0x20 DUP3 ADD SWAP1 POP PUSH2 0xDED PUSH0 DUP4 ADD DUP5 PUSH2 0xDCB JUMP JUMPDEST SWAP3 SWAP2 POP POP JUMP JUMPDEST PUSH0 PUSH20 0xFFFFFFFFFFFFFFFFFFFFFFFFFFFFFFFFFFFFFFFF DUP3 AND SWAP1 POP SWAP2 SWAP1 POP JUMP JUMPDEST PUSH0 PUSH2 0xE1C DUP3 PUSH2 0xDF3 JUMP JUMPDEST SWAP1 POP SWAP2 SWAP1 POP JUMP JUMPDEST PUSH2 0xE2C DUP2 PUSH2 0xE12 JUMP JUMPDEST DUP3 MSTORE POP POP JUMP JUMPDEST PUSH0 PUSH1 0x20 DUP3 ADD SWAP1 POP PUSH2 0xE45 PUSH0 DUP4 ADD DUP5 PUSH2 0xE23 JUMP JUMPDEST SWAP3 SWAP2 POP POP JUMP JUMPDEST PUSH0 DUP1 REVERT JUMPDEST PUSH2 0xE58 DUP2 PUSH2 0xDC2 JUMP JUMPDEST DUP2 EQ PUSH2 0xE62 JUMPI PUSH0 DUP1 REVERT JUMPDEST POP JUMP JUMPDEST PUSH0 DUP2 CALLDATALOAD SWAP1 POP PUSH2 0xE73 DUP2 PUSH2 0xE4F JUMP JUMPDEST SWAP3 SWAP2 POP POP JUMP JUMPDEST PUSH0 PUSH1 0x20 DUP3 DUP5 SUB SLT ISZERO PUSH2 0xE8E JUMPI PUSH2 0xE8D PUSH2 0xE4B JUMP JUMPDEST JUMPDEST PUSH0 PUSH2 0xE9B DUP5 DUP3 DUP6 ADD PUSH2 0xE65 JUMP JUMPDEST SWAP2 POP POP SWAP3 SWAP2 POP POP JUMP JUMPDEST PUSH0 PUSH1 0x40 DUP3 ADD SWAP1 POP PUSH2 0xEB7 PUSH0 DUP4 ADD DUP6 PUSH2 0xE23 JUMP JUMPDEST PUSH2 0xEC4 PUSH1 0x20 DUP4 ADD DUP5 PUSH2 0xDCB JUMP JUMPDEST SWAP4 SWAP3 POP POP POP JUMP JUMPDEST PUSH2 0xED4 DUP2 PUSH2 0xE12 JUMP JUMPDEST DUP2 EQ PUSH2 0xEDE JUMPI PUSH0 DUP1 REVERT JUMPDEST POP JUMP JUMPDEST PUSH0 DUP2 CALLDATALOAD SWAP1 POP PUSH2 0xEEF DUP2 PUSH2 0xECB JUMP JUMPDEST SWAP3 SWAP2 POP POP JUMP JUMPDEST PUSH0 PUSH1 0x20 DUP3 DUP5 SUB SLT ISZERO PUSH2 0xF0A JUMPI PUSH2 0xF09 PUSH2 0xE4B JUMP JUMPDEST JUMPDEST PUSH0 PUSH2 0xF17 DUP5 DUP3 DUP6 ADD PUSH2 0xEE1 JUMP JUMPDEST SWAP2 POP POP SWAP3 SWAP2 POP POP JUMP JUMPDEST PUSH0 DUP2 MLOAD SWAP1 POP SWAP2 SWAP1 POP JUMP JUMPDEST PUSH0 DUP3 DUP3 MSTORE PUSH1 0x20 DUP3 ADD SWAP1 POP SWAP3 SWAP2 POP POP JUMP JUMPDEST PUSH0 DUP2 SWAP1 POP PUSH1 0x20 DUP3 ADD SWAP1 POP SWAP2 SWAP1 POP JUMP JUMPDEST PUSH2 0xF52 DUP2 PUSH2 0xE12 JUMP JUMPDEST DUP3 MSTORE POP POP JUMP JUMPDEST PUSH2 0xF61 DUP2 PUSH2 0xDC2 JUMP JUMPDEST DUP3 MSTORE POP POP JUMP JUMPDEST PUSH1 0x40 DUP3 ADD PUSH0 DUP3 ADD MLOAD PUSH2 0xF7B PUSH0 DUP6 ADD DUP3 PUSH2 0xF49 JUMP JUMPDEST POP PUSH1 0x20 DUP3 ADD MLOAD PUSH2 0xF8E PUSH1 0x20 DUP6 ADD DUP3 PUSH2 0xF58 JUMP JUMPDEST POP POP POP POP JUMP JUMPDEST PUSH0 PUSH2 0xF9F DUP4 DUP4 PUSH2 0xF67 JUMP JUMPDEST PUSH1 0x40 DUP4 ADD SWAP1 POP SWAP3 SWAP2 POP POP JUMP JUMPDEST PUSH0 PUSH1 0x20 DUP3 ADD SWAP1 POP SWAP2 SWAP1 POP JUMP JUMPDEST PUSH0 PUSH2 0xFC1 DUP3 PUSH2 0xF20 JUMP JUMPDEST PUSH2 0xFCB DUP2 DUP6 PUSH2 0xF2A JUMP JUMPDEST SWAP4 POP PUSH2 0xFD6 DUP4 PUSH2 0xF3A JUMP JUMPDEST DUP1 PUSH0 JUMPDEST DUP4 DUP2 LT ISZERO PUSH2 0x1006 JUMPI DUP2 MLOAD PUSH2 0xFED DUP9 DUP3 PUSH2 0xF94 JUMP JUMPDEST SWAP8 POP PUSH2 0xFF8 DUP4 PUSH2 0xFAB JUMP JUMPDEST SWAP3 POP POP PUSH1 0x1 DUP2 ADD SWAP1 POP PUSH2 0xFD9 JUMP JUMPDEST POP DUP6 SWAP4 POP POP POP POP SWAP3 SWAP2 POP POP JUMP JUMPDEST PUSH0 PUSH1 0x20 DUP3 ADD SWAP1 POP DUP2 DUP2 SUB PUSH0 DUP4 ADD MSTORE PUSH2 0x102B DUP2 DUP5 PUSH2 0xFB7 JUMP JUMPDEST SWAP1 POP SWAP3 SWAP2 POP POP JUMP JUMPDEST PUSH0 DUP3 DUP3 MSTORE PUSH1 0x20 DUP3 ADD SWAP1 POP SWAP3 SWAP2 POP POP JUMP JUMPDEST PUSH32 0x4269642068617320656E64656400000000000000000000000000000000000000 PUSH0 DUP3 ADD MSTORE POP JUMP JUMPDEST PUSH0 PUSH2 0x1077 PUSH1 0xD DUP4 PUSH2 0x1033 JUMP JUMPDEST SWAP2 POP PUSH2 0x1082 DUP3 PUSH2 0x1043 JUMP JUMPDEST PUSH1 0x20 DUP3 ADD SWAP1 POP SWAP2 SWAP1 POP JUMP JUMPDEST PUSH0 PUSH1 0x20 DUP3 ADD SWAP1 POP DUP2 DUP2 SUB PUSH0 DUP4 ADD MSTORE PUSH2 0x10A4 DUP2 PUSH2 0x106B JUMP JUMPDEST SWAP1 POP SWAP2 SWAP1 POP JUMP JUMPDEST PUSH32 0x426964206D7573742062652067726561746572207468616E207A65726F000000 PUSH0 DUP3 ADD MSTORE POP JUMP JUMPDEST PUSH0 PUSH2 0x10DF PUSH1 0x1D DUP4 PUSH2 0x1033 JUMP JUMPDEST SWAP2 POP PUSH2 0x10EA DUP3 PUSH2 0x10AB JUMP JUMPDEST PUSH1 0x20 DUP3 ADD SWAP1 POP SWAP2 SWAP1 POP JUMP JUMPDEST PUSH0 PUSH1 0x20 DUP3 ADD SWAP1 POP DUP2 DUP2 SUB PUSH0 DUP4 ADD MSTORE PUSH2 0x110C DUP2 PUSH2 0x10D3 JUMP JUMPDEST SWAP1 POP SWAP2 SWAP1 POP JUMP JUMPDEST PUSH32 0x4E487B7100000000000000000000000000000000000000000000000000000000 PUSH0 MSTORE PUSH1 0x11 PUSH1 0x4 MSTORE PUSH1 0x24 PUSH0 REVERT JUMPDEST PUSH0 PUSH2 0x114A DUP3 PUSH2 0xDC2 JUMP JUMPDEST SWAP2 POP PUSH2 0x1155 DUP4 PUSH2 0xDC2 JUMP JUMPDEST SWAP3 POP DUP3 DUP3 ADD SWAP1 POP DUP1 DUP3 GT ISZERO PUSH2 0x116D JUMPI PUSH2 0x116C PUSH2 0x1113 JUMP JUMPDEST JUMPDEST SWAP3 SWAP2 POP POP JUMP JUMPDEST PUSH0 PUSH2 0x117D DUP3 PUSH2 0xDC2 JUMP JUMPDEST SWAP2 POP PUSH2 0x1188 DUP4 PUSH2 0xDC2 JUMP JUMPDEST SWAP3 POP DUP3 DUP3 MUL PUSH2 0x1196 DUP2 PUSH2 0xDC2 JUMP JUMPDEST SWAP2 POP DUP3 DUP3 DIV DUP5 EQ DUP4 ISZERO OR PUSH2 0x11AD JUMPI PUSH2 0x11AC PUSH2 0x1113 JUMP JUMPDEST JUMPDEST POP SWAP3 SWAP2 POP POP JUMP JUMPDEST PUSH32 0x4E487B7100000000000000000000000000000000000000000000000000000000 PUSH0 MSTORE PUSH1 0x12 PUSH1 0x4 MSTORE PUSH1 0x24 PUSH0 REVERT JUMPDEST PUSH0 PUSH2 0x11EB DUP3 PUSH2 0xDC2 JUMP JUMPDEST SWAP2 POP PUSH2 0x11F6 DUP4 PUSH2 0xDC2 JUMP JUMPDEST SWAP3 POP DUP3 PUSH2 0x1206 JUMPI PUSH2 0x1205 PUSH2 0x11B4 JUMP JUMPDEST JUMPDEST DUP3 DUP3 DIV SWAP1 POP SWAP3 SWAP2 POP POP JUMP JUMPDEST PUSH32 0x4F66666572206D757374206265206174206C6561737420352520686967686572 PUSH0 DUP3 ADD MSTORE POP JUMP JUMPDEST PUSH0 PUSH2 0x1245 PUSH1 0x20 DUP4 PUSH2 0x1033 JUMP JUMPDEST SWAP2 POP PUSH2 0x1250 DUP3 PUSH2 0x1211 JUMP JUMPDEST PUSH1 0x20 DUP3 ADD SWAP1 POP SWAP2 SWAP1 POP JUMP JUMPDEST PUSH0 PUSH1 0x20 DUP3 ADD SWAP1 POP DUP2 DUP2 SUB PUSH0 DUP4 ADD MSTORE PUSH2 0x1272 DUP2 PUSH2 0x1239 JUMP JUMPDEST SWAP1 POP SWAP2 SWAP1 POP JUMP JUMPDEST PUSH0 PUSH1 0x40 DUP3 ADD SWAP1 POP PUSH2 0x128C PUSH0 DUP4 ADD DUP6 PUSH2 0xDCB JUMP JUMPDEST PUSH2 0x1299 PUSH1 0x20 DUP4 ADD DUP5 PUSH2 0xDCB JUMP JUMPDEST SWAP4 SWAP3 POP POP POP JUMP JUMPDEST PUSH0 PUSH2 0x12AA DUP3 PUSH2 0xDC2 JUMP JUMPDEST SWAP2 POP PUSH2 0x12B5 DUP4 PUSH2 0xDC2 JUMP JUMPDEST SWAP3 POP DUP3 DUP3 SUB SWAP1 POP DUP2 DUP2 GT ISZERO PUSH2 0x12CD JUMPI PUSH2 0x12CC PUSH2 0x1113 JUMP JUMPDEST JUMPDEST SWAP3 SWAP2 POP POP JUMP JUMPDEST PUSH32 0x54686973206665617475726520697320726573657276656420746F204F776E65 PUSH0 DUP3 ADD MSTORE PUSH32 0x7200000000000000000000000000000000000000000000000000000000000000 PUSH1 0x20 DUP3 ADD MSTORE POP JUMP JUMPDEST PUSH0 PUSH2 0x132D PUSH1 0x21 DUP4 PUSH2 0x1033 JUMP JUMPDEST SWAP2 POP PUSH2 0x1338 DUP3 PUSH2 0x12D3 JUMP JUMPDEST PUSH1 0x40 DUP3 ADD SWAP1 POP SWAP2 SWAP1 POP JUMP JUMPDEST PUSH0 PUSH1 0x20 DUP3 ADD SWAP1 POP DUP2 DUP2 SUB PUSH0 DUP4 ADD MSTORE PUSH2 0x135A DUP2 PUSH2 0x1321 JUMP JUMPDEST SWAP1 POP SWAP2 SWAP1 POP JUMP JUMPDEST PUSH32 0x4C6120737562617374612061756E206573746120656E20637572736F00000000 PUSH0 DUP3 ADD MSTORE POP JUMP JUMPDEST PUSH0 PUSH2 0x1395 PUSH1 0x1C DUP4 PUSH2 0x1033 JUMP JUMPDEST SWAP2 POP PUSH2 0x13A0 DUP3 PUSH2 0x1361 JUMP JUMPDEST PUSH1 0x20 DUP3 ADD SWAP1 POP SWAP2 SWAP1 POP JUMP JUMPDEST PUSH0 PUSH1 0x20 DUP3 ADD SWAP1 POP DUP2 DUP2 SUB PUSH0 DUP4 ADD MSTORE PUSH2 0x13C2 DUP2 PUSH2 0x1389 JUMP JUMPDEST SWAP1 POP SWAP2 SWAP1 POP JUMP JUMPDEST PUSH32 0x4E487B7100000000000000000000000000000000000000000000000000000000 PUSH0 MSTORE PUSH1 0x32 PUSH1 0x4 MSTORE PUSH1 0x24 PUSH0 REVERT JUMPDEST PUSH32 0x4E6F207469656E6520737566696369656E74652065786365736F000000000000 PUSH0 DUP3 ADD MSTORE POP JUMP JUMPDEST PUSH0 PUSH2 0x142A PUSH1 0x1A DUP4 PUSH2 0x1033 JUMP JUMPDEST SWAP2 POP PUSH2 0x1435 DUP3 PUSH2 0x13F6 JUMP JUMPDEST PUSH1 0x20 DUP3 ADD SWAP1 POP SWAP2 SWAP1 POP JUMP JUMPDEST PUSH0 PUSH1 0x20 DUP3 ADD SWAP1 POP DUP2 DUP2 SUB PUSH0 DUP4 ADD MSTORE PUSH2 0x1457 DUP2 PUSH2 0x141E JUMP JUMPDEST SWAP1 POP SWAP2 SWAP1 POP JUMP INVALID LOG2 PUSH5 0x6970667358 0x22 SLT KECCAK256 SGT 0xB3 0x4E EXP CALLVALUE SDIV DELEGATECALL MSTORE DUP3 SHR 0xE 0xDD RETURNDATASIZE GASPRICE DUP10 0xED 0xCA DUP11 0xD5 0xDD 0xD1 0x2D EXP 0xC9 0xDE 0xD2 0xD6 0xF MSTORE 0xDD 0xAC CALLDATALOAD PUSH5 0x736F6C6343 STOP ADDMOD BYTE STOP CALLER "
				},
				"gasEstimates": {
					"creation": {
						"codeDepositCost": "1053600",
						"executionCost": "infinite",
						"totalCost": "infinite"
					},
					"external": {
						"BID_INC_PERCENT()": "392",
						"COMMISSION_PERCENT()": "347",
						"EXT_TIME()": "349",
						"balancePendiente(address)": "2825",
						"bidEndTime()": "2448",
						"bidOwner()": "2551",
						"bidStartTime()": "2514",
						"devolverDepositos()": "infinite",
						"highestBid()": "2513",
						"highestBidder()": "2597",
						"mostrarGanador()": "6895",
						"mostrarOfertas()": "infinite",
						"ofertar()": "infinite",
						"ofertas(uint256)": "infinite",
						"retirarExceso()": "infinite"
					}
				},
				"methodIdentifiers": {
					"BID_INC_PERCENT()": "7bb44b83",
					"COMMISSION_PERCENT()": "b404e001",
					"EXT_TIME()": "02bc22fc",
					"balancePendiente(address)": "7070f1be",
					"bidEndTime()": "4ba9a927",
					"bidOwner()": "03fe7faa",
					"bidStartTime()": "6d4d09d7",
					"devolverDepositos()": "5298a3c4",
					"highestBid()": "d57bde79",
					"highestBidder()": "91f90157",
					"mostrarGanador()": "753dcaeb",
					"mostrarOfertas()": "c442a99f",
					"ofertar()": "3ec059d7",
					"ofertas(uint256)": "56afff7c",
					"retirarExceso()": "c1902319"
				}
			},
			"storageLayout": {
				"storage": [
					{
						"astId": 3,
						"contract": "contracts/OtroEjemploSubastaMasCompleto.sol:Subasta",
						"label": "bidOwner",
						"offset": 0,
						"slot": "0",
						"type": "t_address"
					},
					{
						"astId": 5,
						"contract": "contracts/OtroEjemploSubastaMasCompleto.sol:Subasta",
						"label": "bidStartTime",
						"offset": 0,
						"slot": "1",
						"type": "t_uint256"
					},
					{
						"astId": 7,
						"contract": "contracts/OtroEjemploSubastaMasCompleto.sol:Subasta",
						"label": "bidEndTime",
						"offset": 0,
						"slot": "2",
						"type": "t_uint256"
					},
					{
						"astId": 9,
						"contract": "contracts/OtroEjemploSubastaMasCompleto.sol:Subasta",
						"label": "highestBidder",
						"offset": 0,
						"slot": "3",
						"type": "t_address"
					},
					{
						"astId": 11,
						"contract": "contracts/OtroEjemploSubastaMasCompleto.sol:Subasta",
						"label": "highestBid",
						"offset": 0,
						"slot": "4",
						"type": "t_uint256"
					},
					{
						"astId": 29,
						"contract": "contracts/OtroEjemploSubastaMasCompleto.sol:Subasta",
						"label": "ofertas",
						"offset": 0,
						"slot": "5",
						"type": "t_array(t_struct(Oferta)25_storage)dyn_storage"
					},
					{
						"astId": 33,
						"contract": "contracts/OtroEjemploSubastaMasCompleto.sol:Subasta",
						"label": "balancePendiente",
						"offset": 0,
						"slot": "6",
						"type": "t_mapping(t_address,t_uint256)"
					}
				],
				"types": {
					"t_address": {
						"encoding": "inplace",
						"label": "address",
						"numberOfBytes": "20"
					},
					"t_array(t_struct(Oferta)25_storage)dyn_storage": {
						"base": "t_struct(Oferta)25_storage",
						"encoding": "dynamic_array",
						"label": "struct Subasta.Oferta[]",
						"numberOfBytes": "32"
					},
					"t_mapping(t_address,t_uint256)": {
						"encoding": "mapping",
						"key": "t_address",
						"label": "mapping(address => uint256)",
						"numberOfBytes": "32",
						"value": "t_uint256"
					},
					"t_struct(Oferta)25_storage": {
						"encoding": "inplace",
						"label": "struct Subasta.Oferta",
						"members": [
							{
								"astId": 22,
								"contract": "contracts/OtroEjemploSubastaMasCompleto.sol:Subasta",
								"label": "bidder",
								"offset": 0,
								"slot": "0",
								"type": "t_address"
							},
							{
								"astId": 24,
								"contract": "contracts/OtroEjemploSubastaMasCompleto.sol:Subasta",
								"label": "amount",
								"offset": 0,
								"slot": "1",
								"type": "t_uint256"
							}
						],
						"numberOfBytes": "64"
					},
					"t_uint256": {
						"encoding": "inplace",
						"label": "uint256",
						"numberOfBytes": "32"
					}
				}
			},
			"userdoc": {
				"kind": "user",
				"methods": {},
				"version": 1
			}
		}
	}
}