{
	"contracts/EjemploSubasta.sol": {
		"Auction": {
			"abi": [
				{
					"inputs": [
						{
							"internalType": "uint256",
							"name": "_duration",
							"type": "uint256"
						}
					],
					"stateMutability": "nonpayable",
					"type": "constructor"
				},
				{
					"anonymous": false,
					"inputs": [
						{
							"indexed": false,
							"internalType": "address",
							"name": "winner",
							"type": "address"
						},
						{
							"indexed": false,
							"internalType": "uint256",
							"name": "amount",
							"type": "uint256"
						}
					],
					"name": "AuctionEnded",
					"type": "event"
				},
				{
					"anonymous": false,
					"inputs": [
						{
							"indexed": true,
							"internalType": "address",
							"name": "bidder",
							"type": "address"
						},
						{
							"indexed": false,
							"internalType": "uint256",
							"name": "amount",
							"type": "uint256"
						}
					],
					"name": "NewBid",
					"type": "event"
				},
				{
					"inputs": [],
					"name": "auctionEndTime",
					"outputs": [
						{
							"internalType": "uint256",
							"name": "",
							"type": "uint256"
						}
					],
					"stateMutability": "view",
					"type": "function"
				},
				{
					"inputs": [],
					"name": "bid",
					"outputs": [],
					"stateMutability": "payable",
					"type": "function"
				},
				{
					"inputs": [
						{
							"internalType": "uint256",
							"name": "",
							"type": "uint256"
						}
					],
					"name": "bidders",
					"outputs": [
						{
							"internalType": "address",
							"name": "",
							"type": "address"
						}
					],
					"stateMutability": "view",
					"type": "function"
				},
				{
					"inputs": [
						{
							"internalType": "address",
							"name": "",
							"type": "address"
						}
					],
					"name": "deposits",
					"outputs": [
						{
							"internalType": "uint256",
							"name": "",
							"type": "uint256"
						}
					],
					"stateMutability": "view",
					"type": "function"
				},
				{
					"inputs": [],
					"name": "endAuction",
					"outputs": [],
					"stateMutability": "nonpayable",
					"type": "function"
				},
				{
					"inputs": [],
					"name": "ended",
					"outputs": [
						{
							"internalType": "bool",
							"name": "",
							"type": "bool"
						}
					],
					"stateMutability": "view",
					"type": "function"
				},
				{
					"inputs": [],
					"name": "highestBid",
					"outputs": [
						{
							"internalType": "uint256",
							"name": "",
							"type": "uint256"
						}
					],
					"stateMutability": "view",
					"type": "function"
				},
				{
					"inputs": [],
					"name": "highestBidder",
					"outputs": [
						{
							"internalType": "address",
							"name": "",
							"type": "address"
						}
					],
					"stateMutability": "view",
					"type": "function"
				},
				{
					"inputs": [],
					"name": "owner",
					"outputs": [
						{
							"internalType": "address",
							"name": "",
							"type": "address"
						}
					],
					"stateMutability": "view",
					"type": "function"
				},
				{
					"inputs": [],
					"name": "showBids",
					"outputs": [
						{
							"internalType": "address[]",
							"name": "",
							"type": "address[]"
						},
						{
							"internalType": "uint256[]",
							"name": "",
							"type": "uint256[]"
						}
					],
					"stateMutability": "view",
					"type": "function"
				},
				{
					"inputs": [],
					"name": "showWinner",
					"outputs": [
						{
							"internalType": "address",
							"name": "ganador",
							"type": "address"
						},
						{
							"internalType": "uint256",
							"name": "oferta",
							"type": "uint256"
						}
					],
					"stateMutability": "view",
					"type": "function"
				},
				{
					"inputs": [],
					"name": "withdrawExcess",
					"outputs": [],
					"stateMutability": "nonpayable",
					"type": "function"
				}
			],
			"devdoc": {
				"details": "Gestión de una subasta con control de ofertas, reembolsos y extensión del tiempo.",
				"kind": "dev",
				"methods": {
					"bid()": {
						"details": "Función para ofertar. La oferta debe ser 5% mayor que la actual."
					},
					"constructor": {
						"details": "Constructor que inicializa la subasta.",
						"params": {
							"_duration": "Duración de la subasta en segundos."
						}
					},
					"endAuction()": {
						"details": "Finaliza la subasta y devuelve los depósitos a los perdedores."
					},
					"showBids()": {
						"details": "Muestra la lista de ofertantes y sus montos.",
						"returns": {
							"_0": "Lista de ofertantes y montos ofertados."
						}
					},
					"showWinner()": {
						"details": "Función para mostrar al ganador y la oferta ganadora.",
						"returns": {
							"ganador": "Dirección del ofertante ganador.",
							"oferta": "Valor de la oferta ganadora."
						}
					},
					"withdrawExcess()": {
						"details": "Permite a los ofertantes retirar el exceso de sus depósitos."
					}
				},
				"title": "Auction",
				"version": 1
			},
			"evm": {
				"assembly": "    /* \"contracts/EjemploSubasta.sol\":176:4793  contract Auction {... */\n  mstore(0x40, 0x80)\n    /* \"contracts/EjemploSubasta.sol\":1504:1624  constructor(uint256 _duration) {... */\n  callvalue\n  dup1\n  iszero\n  tag_1\n  jumpi\n  0x00\n  dup1\n  revert\ntag_1:\n  pop\n  mload(0x40)\n  sub(codesize, bytecodeSize)\n  dup1\n  bytecodeSize\n  dup4\n  codecopy\n  dup2\n  dup2\n  add\n  0x40\n  mstore\n  dup2\n  add\n  swap1\n  tag_2\n  swap2\n  swap1\n  tag_3\n  jump\t// in\ntag_2:\n    /* \"contracts/EjemploSubasta.sol\":1553:1563  msg.sender */\n  caller\n    /* \"contracts/EjemploSubasta.sol\":1545:1550  owner */\n  0x00\n  dup1\n    /* \"contracts/EjemploSubasta.sol\":1545:1563  owner = msg.sender */\n  0x0100\n  exp\n  dup2\n  sload\n  dup2\n  0xffffffffffffffffffffffffffffffffffffffff\n  mul\n  not\n  and\n  swap1\n  dup4\n  0xffffffffffffffffffffffffffffffffffffffff\n  and\n  mul\n  or\n  swap1\n  sstore\n  pop\n    /* \"contracts/EjemploSubasta.sol\":1608:1617  _duration */\n  dup1\n    /* \"contracts/EjemploSubasta.sol\":1590:1605  block.timestamp */\n  timestamp\n    /* \"contracts/EjemploSubasta.sol\":1590:1617  block.timestamp + _duration */\n  tag_6\n  swap2\n  swap1\n  tag_7\n  jump\t// in\ntag_6:\n    /* \"contracts/EjemploSubasta.sol\":1573:1587  auctionEndTime */\n  0x01\n    /* \"contracts/EjemploSubasta.sol\":1573:1617  auctionEndTime = block.timestamp + _duration */\n  dup2\n  swap1\n  sstore\n  pop\n    /* \"contracts/EjemploSubasta.sol\":1504:1624  constructor(uint256 _duration) {... */\n  pop\n    /* \"contracts/EjemploSubasta.sol\":176:4793  contract Auction {... */\n  jump(tag_8)\n    /* \"#utility.yul\":88:205   */\ntag_10:\n    /* \"#utility.yul\":197:198   */\n  0x00\n    /* \"#utility.yul\":194:195   */\n  dup1\n    /* \"#utility.yul\":187:199   */\n  revert\n    /* \"#utility.yul\":334:411   */\ntag_12:\n    /* \"#utility.yul\":371:378   */\n  0x00\n    /* \"#utility.yul\":400:405   */\n  dup2\n    /* \"#utility.yul\":389:405   */\n  swap1\n  pop\n    /* \"#utility.yul\":334:411   */\n  swap2\n  swap1\n  pop\n  jump\t// out\n    /* \"#utility.yul\":417:539   */\ntag_13:\n    /* \"#utility.yul\":490:514   */\n  tag_22\n    /* \"#utility.yul\":508:513   */\n  dup2\n    /* \"#utility.yul\":490:514   */\n  tag_12\n  jump\t// in\ntag_22:\n    /* \"#utility.yul\":483:488   */\n  dup2\n    /* \"#utility.yul\":480:515   */\n  eq\n    /* \"#utility.yul\":470:533   */\n  tag_23\n  jumpi\n    /* \"#utility.yul\":529:530   */\n  0x00\n    /* \"#utility.yul\":526:527   */\n  dup1\n    /* \"#utility.yul\":519:531   */\n  revert\n    /* \"#utility.yul\":470:533   */\ntag_23:\n    /* \"#utility.yul\":417:539   */\n  pop\n  jump\t// out\n    /* \"#utility.yul\":545:688   */\ntag_14:\n    /* \"#utility.yul\":602:607   */\n  0x00\n    /* \"#utility.yul\":633:639   */\n  dup2\n    /* \"#utility.yul\":627:640   */\n  mload\n    /* \"#utility.yul\":618:640   */\n  swap1\n  pop\n    /* \"#utility.yul\":649:682   */\n  tag_25\n    /* \"#utility.yul\":676:681   */\n  dup2\n    /* \"#utility.yul\":649:682   */\n  tag_13\n  jump\t// in\ntag_25:\n    /* \"#utility.yul\":545:688   */\n  swap3\n  swap2\n  pop\n  pop\n  jump\t// out\n    /* \"#utility.yul\":694:1045   */\ntag_3:\n    /* \"#utility.yul\":764:770   */\n  0x00\n    /* \"#utility.yul\":813:815   */\n  0x20\n    /* \"#utility.yul\":801:810   */\n  dup3\n    /* \"#utility.yul\":792:799   */\n  dup5\n    /* \"#utility.yul\":788:811   */\n  sub\n    /* \"#utility.yul\":784:816   */\n  slt\n    /* \"#utility.yul\":781:900   */\n  iszero\n  tag_27\n  jumpi\n    /* \"#utility.yul\":819:898   */\n  tag_28\n  tag_10\n  jump\t// in\ntag_28:\n    /* \"#utility.yul\":781:900   */\ntag_27:\n    /* \"#utility.yul\":939:940   */\n  0x00\n    /* \"#utility.yul\":964:1028   */\n  tag_29\n    /* \"#utility.yul\":1020:1027   */\n  dup5\n    /* \"#utility.yul\":1011:1017   */\n  dup3\n    /* \"#utility.yul\":1000:1009   */\n  dup6\n    /* \"#utility.yul\":996:1018   */\n  add\n    /* \"#utility.yul\":964:1028   */\n  tag_14\n  jump\t// in\ntag_29:\n    /* \"#utility.yul\":954:1028   */\n  swap2\n  pop\n    /* \"#utility.yul\":910:1038   */\n  pop\n    /* \"#utility.yul\":694:1045   */\n  swap3\n  swap2\n  pop\n  pop\n  jump\t// out\n    /* \"#utility.yul\":1051:1231   */\ntag_15:\n    /* \"#utility.yul\":1099:1176   */\n  0x4e487b7100000000000000000000000000000000000000000000000000000000\n    /* \"#utility.yul\":1096:1097   */\n  0x00\n    /* \"#utility.yul\":1089:1177   */\n  mstore\n    /* \"#utility.yul\":1196:1200   */\n  0x11\n    /* \"#utility.yul\":1193:1194   */\n  0x04\n    /* \"#utility.yul\":1186:1201   */\n  mstore\n    /* \"#utility.yul\":1220:1224   */\n  0x24\n    /* \"#utility.yul\":1217:1218   */\n  0x00\n    /* \"#utility.yul\":1210:1225   */\n  revert\n    /* \"#utility.yul\":1237:1428   */\ntag_7:\n    /* \"#utility.yul\":1277:1280   */\n  0x00\n    /* \"#utility.yul\":1296:1316   */\n  tag_32\n    /* \"#utility.yul\":1314:1315   */\n  dup3\n    /* \"#utility.yul\":1296:1316   */\n  tag_12\n  jump\t// in\ntag_32:\n    /* \"#utility.yul\":1291:1316   */\n  swap2\n  pop\n    /* \"#utility.yul\":1330:1350   */\n  tag_33\n    /* \"#utility.yul\":1348:1349   */\n  dup4\n    /* \"#utility.yul\":1330:1350   */\n  tag_12\n  jump\t// in\ntag_33:\n    /* \"#utility.yul\":1325:1350   */\n  swap3\n  pop\n    /* \"#utility.yul\":1373:1374   */\n  dup3\n    /* \"#utility.yul\":1370:1371   */\n  dup3\n    /* \"#utility.yul\":1366:1375   */\n  add\n    /* \"#utility.yul\":1359:1375   */\n  swap1\n  pop\n    /* \"#utility.yul\":1394:1397   */\n  dup1\n    /* \"#utility.yul\":1391:1392   */\n  dup3\n    /* \"#utility.yul\":1388:1398   */\n  gt\n    /* \"#utility.yul\":1385:1421   */\n  iszero\n  tag_34\n  jumpi\n    /* \"#utility.yul\":1401:1419   */\n  tag_35\n  tag_15\n  jump\t// in\ntag_35:\n    /* \"#utility.yul\":1385:1421   */\ntag_34:\n    /* \"#utility.yul\":1237:1428   */\n  swap3\n  swap2\n  pop\n  pop\n  jump\t// out\n    /* \"contracts/EjemploSubasta.sol\":176:4793  contract Auction {... */\ntag_8:\n  dataSize(sub_0)\n  dup1\n  dataOffset(sub_0)\n  0x00\n  codecopy\n  0x00\n  return\nstop\n\nsub_0: assembly {\n        /* \"contracts/EjemploSubasta.sol\":176:4793  contract Auction {... */\n      mstore(0x40, 0x80)\n      jumpi(tag_1, lt(calldatasize, 0x04))\n      shr(0xe0, calldataload(0x00))\n      dup1\n      0xb7e03264\n      gt\n      tag_14\n      jumpi\n      dup1\n      0xb7e03264\n      eq\n      tag_8\n      jumpi\n      dup1\n      0xc264a063\n      eq\n      tag_9\n      jumpi\n      dup1\n      0xcff29dfd\n      eq\n      tag_10\n      jumpi\n      dup1\n      0xd57bde79\n      eq\n      tag_11\n      jumpi\n      dup1\n      0xfc7e286d\n      eq\n      tag_12\n      jumpi\n      dup1\n      0xfe67a54b\n      eq\n      tag_13\n      jumpi\n      jump(tag_1)\n    tag_14:\n      dup1\n      0x12fa6feb\n      eq\n      tag_2\n      jumpi\n      dup1\n      0x14d2687c\n      eq\n      tag_3\n      jumpi\n      dup1\n      0x1998aeef\n      eq\n      tag_4\n      jumpi\n      dup1\n      0x4b449cba\n      eq\n      tag_5\n      jumpi\n      dup1\n      0x8da5cb5b\n      eq\n      tag_6\n      jumpi\n      dup1\n      0x91f90157\n      eq\n      tag_7\n      jumpi\n    tag_1:\n      0x00\n      dup1\n      revert\n        /* \"contracts/EjemploSubasta.sol\":501:518  bool public ended */\n    tag_2:\n      callvalue\n      dup1\n      iszero\n      tag_15\n      jumpi\n      0x00\n      dup1\n      revert\n    tag_15:\n      pop\n      tag_16\n      tag_17\n      jump\t// in\n    tag_16:\n      mload(0x40)\n      tag_18\n      swap2\n      swap1\n      tag_19\n      jump\t// in\n    tag_18:\n      mload(0x40)\n      dup1\n      swap2\n      sub\n      swap1\n      return\n        /* \"contracts/EjemploSubasta.sol\":3284:3583  function showBids() external view returns (address[] memory, uint256[] memory) {... */\n    tag_3:\n      callvalue\n      dup1\n      iszero\n      tag_20\n      jumpi\n      0x00\n      dup1\n      revert\n    tag_20:\n      pop\n      tag_21\n      tag_22\n      jump\t// in\n    tag_21:\n      mload(0x40)\n      tag_23\n      swap3\n      swap2\n      swap1\n      tag_24\n      jump\t// in\n    tag_23:\n      mload(0x40)\n      dup1\n      swap2\n      sub\n      swap1\n      return\n        /* \"contracts/EjemploSubasta.sol\":1724:2779  function bid() external payable onlyWhileActive {... */\n    tag_4:\n      tag_25\n      tag_26\n      jump\t// in\n    tag_25:\n      stop\n        /* \"contracts/EjemploSubasta.sol\":277:306  uint256 public auctionEndTime */\n    tag_5:\n      callvalue\n      dup1\n      iszero\n      tag_27\n      jumpi\n      0x00\n      dup1\n      revert\n    tag_27:\n      pop\n      tag_28\n      tag_29\n      jump\t// in\n    tag_28:\n      mload(0x40)\n      tag_30\n      swap2\n      swap1\n      tag_31\n      jump\t// in\n    tag_30:\n      mload(0x40)\n      dup1\n      swap2\n      sub\n      swap1\n      return\n        /* \"contracts/EjemploSubasta.sol\":199:219  address public owner */\n    tag_6:\n      callvalue\n      dup1\n      iszero\n      tag_32\n      jumpi\n      0x00\n      dup1\n      revert\n    tag_32:\n      pop\n      tag_33\n      tag_34\n      jump\t// in\n    tag_33:\n      mload(0x40)\n      tag_35\n      swap2\n      swap1\n      tag_36\n      jump\t// in\n    tag_35:\n      mload(0x40)\n      dup1\n      swap2\n      sub\n      swap1\n      return\n        /* \"contracts/EjemploSubasta.sol\":424:452  address public highestBidder */\n    tag_7:\n      callvalue\n      dup1\n      iszero\n      tag_37\n      jumpi\n      0x00\n      dup1\n      revert\n    tag_37:\n      pop\n      tag_38\n      tag_39\n      jump\t// in\n    tag_38:\n      mload(0x40)\n      tag_40\n      swap2\n      swap1\n      tag_36\n      jump\t// in\n    tag_40:\n      mload(0x40)\n      dup1\n      swap2\n      sub\n      swap1\n      return\n        /* \"contracts/EjemploSubasta.sol\":2976:3150  function showWinner() external view returns (address ganador, uint256 oferta) {... */\n    tag_8:\n      callvalue\n      dup1\n      iszero\n      tag_41\n      jumpi\n      0x00\n      dup1\n      revert\n    tag_41:\n      pop\n      tag_42\n      tag_43\n      jump\t// in\n    tag_42:\n      mload(0x40)\n      tag_44\n      swap3\n      swap2\n      swap1\n      tag_45\n      jump\t// in\n    tag_44:\n      mload(0x40)\n      dup1\n      swap2\n      sub\n      swap1\n      return\n        /* \"contracts/EjemploSubasta.sol\":4448:4791  function withdrawExcess() external {... */\n    tag_9:\n      callvalue\n      dup1\n      iszero\n      tag_46\n      jumpi\n      0x00\n      dup1\n      revert\n    tag_46:\n      pop\n      tag_47\n      tag_48\n      jump\t// in\n    tag_47:\n      stop\n        /* \"contracts/EjemploSubasta.sol\":669:693  address[] public bidders */\n    tag_10:\n      callvalue\n      dup1\n      iszero\n      tag_49\n      jumpi\n      0x00\n      dup1\n      revert\n    tag_49:\n      pop\n      tag_50\n      0x04\n      dup1\n      calldatasize\n      sub\n      dup2\n      add\n      swap1\n      tag_51\n      swap2\n      swap1\n      tag_52\n      jump\t// in\n    tag_51:\n      tag_53\n      jump\t// in\n    tag_50:\n      mload(0x40)\n      tag_54\n      swap2\n      swap1\n      tag_36\n      jump\t// in\n    tag_54:\n      mload(0x40)\n      dup1\n      swap2\n      sub\n      swap1\n      return\n        /* \"contracts/EjemploSubasta.sol\":353:378  uint256 public highestBid */\n    tag_11:\n      callvalue\n      dup1\n      iszero\n      tag_55\n      jumpi\n      0x00\n      dup1\n      revert\n    tag_55:\n      pop\n      tag_56\n      tag_57\n      jump\t// in\n    tag_56:\n      mload(0x40)\n      tag_58\n      swap2\n      swap1\n      tag_31\n      jump\t// in\n    tag_58:\n      mload(0x40)\n      dup1\n      swap2\n      sub\n      swap1\n      return\n        /* \"contracts/EjemploSubasta.sol\":583:626  mapping(address => uint256) public deposits */\n    tag_12:\n      callvalue\n      dup1\n      iszero\n      tag_59\n      jumpi\n      0x00\n      dup1\n      revert\n    tag_59:\n      pop\n      tag_60\n      0x04\n      dup1\n      calldatasize\n      sub\n      dup2\n      add\n      swap1\n      tag_61\n      swap2\n      swap1\n      tag_62\n      jump\t// in\n    tag_61:\n      tag_63\n      jump\t// in\n    tag_60:\n      mload(0x40)\n      tag_64\n      swap2\n      swap1\n      tag_31\n      jump\t// in\n    tag_64:\n      mload(0x40)\n      dup1\n      swap2\n      sub\n      swap1\n      return\n        /* \"contracts/EjemploSubasta.sol\":3681:4352  function endAuction() external onlyOwner {... */\n    tag_13:\n      callvalue\n      dup1\n      iszero\n      tag_65\n      jumpi\n      0x00\n      dup1\n      revert\n    tag_65:\n      pop\n      tag_66\n      tag_67\n      jump\t// in\n    tag_66:\n      stop\n        /* \"contracts/EjemploSubasta.sol\":501:518  bool public ended */\n    tag_17:\n      0x03\n      0x14\n      swap1\n      sload\n      swap1\n      0x0100\n      exp\n      swap1\n      div\n      0xff\n      and\n      dup2\n      jump\t// out\n        /* \"contracts/EjemploSubasta.sol\":3284:3583  function showBids() external view returns (address[] memory, uint256[] memory) {... */\n    tag_22:\n        /* \"contracts/EjemploSubasta.sol\":3327:3343  address[] memory */\n      0x60\n        /* \"contracts/EjemploSubasta.sol\":3345:3361  uint256[] memory */\n      dup1\n        /* \"contracts/EjemploSubasta.sol\":3373:3397  uint256[] memory amounts */\n      0x00\n        /* \"contracts/EjemploSubasta.sol\":3414:3421  bidders */\n      0x05\n        /* \"contracts/EjemploSubasta.sol\":3414:3428  bidders.length */\n      dup1\n      sload\n      swap1\n      pop\n        /* \"contracts/EjemploSubasta.sol\":3400:3429  new uint256[](bidders.length) */\n      0xffffffffffffffff\n      dup2\n      gt\n      iszero\n      tag_69\n      jumpi\n      tag_70\n      tag_71\n      jump\t// in\n    tag_70:\n    tag_69:\n      mload(0x40)\n      swap1\n      dup1\n      dup3\n      mstore\n      dup1\n      0x20\n      mul\n      0x20\n      add\n      dup3\n      add\n      0x40\n      mstore\n      dup1\n      iszero\n      tag_72\n      jumpi\n      dup2\n      0x20\n      add\n      0x20\n      dup3\n      mul\n      dup1\n      calldatasize\n      dup4\n      calldatacopy\n      dup1\n      dup3\n      add\n      swap2\n      pop\n      pop\n      swap1\n      pop\n    tag_72:\n      pop\n        /* \"contracts/EjemploSubasta.sol\":3373:3429  uint256[] memory amounts = new uint256[](bidders.length) */\n      swap1\n      pop\n        /* \"contracts/EjemploSubasta.sol\":3444:3453  uint256 i */\n      0x00\n        /* \"contracts/EjemploSubasta.sol\":3439:3542  for (uint256 i = 0; i < bidders.length; i++) {... */\n    tag_73:\n        /* \"contracts/EjemploSubasta.sol\":3463:3470  bidders */\n      0x05\n        /* \"contracts/EjemploSubasta.sol\":3463:3477  bidders.length */\n      dup1\n      sload\n      swap1\n      pop\n        /* \"contracts/EjemploSubasta.sol\":3459:3460  i */\n      dup2\n        /* \"contracts/EjemploSubasta.sol\":3459:3477  i < bidders.length */\n      lt\n        /* \"contracts/EjemploSubasta.sol\":3439:3542  for (uint256 i = 0; i < bidders.length; i++) {... */\n      iszero\n      tag_74\n      jumpi\n        /* \"contracts/EjemploSubasta.sol\":3511:3519  deposits */\n      0x04\n        /* \"contracts/EjemploSubasta.sol\":3511:3531  deposits[bidders[i]] */\n      0x00\n        /* \"contracts/EjemploSubasta.sol\":3520:3527  bidders */\n      0x05\n        /* \"contracts/EjemploSubasta.sol\":3528:3529  i */\n      dup4\n        /* \"contracts/EjemploSubasta.sol\":3520:3530  bidders[i] */\n      dup2\n      sload\n      dup2\n      lt\n      tag_76\n      jumpi\n      tag_77\n      tag_78\n      jump\t// in\n    tag_77:\n    tag_76:\n      swap1\n      0x00\n      mstore\n      keccak256(0x00, 0x20)\n      add\n      0x00\n      swap1\n      sload\n      swap1\n      0x0100\n      exp\n      swap1\n      div\n      0xffffffffffffffffffffffffffffffffffffffff\n      and\n        /* \"contracts/EjemploSubasta.sol\":3511:3531  deposits[bidders[i]] */\n      0xffffffffffffffffffffffffffffffffffffffff\n      and\n      0xffffffffffffffffffffffffffffffffffffffff\n      and\n      dup2\n      mstore\n      0x20\n      add\n      swap1\n      dup2\n      mstore\n      0x20\n      add\n      0x00\n      keccak256\n      sload\n        /* \"contracts/EjemploSubasta.sol\":3498:3505  amounts */\n      dup3\n        /* \"contracts/EjemploSubasta.sol\":3506:3507  i */\n      dup3\n        /* \"contracts/EjemploSubasta.sol\":3498:3508  amounts[i] */\n      dup2\n      mload\n      dup2\n      lt\n      tag_80\n      jumpi\n      tag_81\n      tag_78\n      jump\t// in\n    tag_81:\n    tag_80:\n      0x20\n      mul\n      0x20\n      add\n      add\n        /* \"contracts/EjemploSubasta.sol\":3498:3531  amounts[i] = deposits[bidders[i]] */\n      dup2\n      dup2\n      mstore\n      pop\n      pop\n        /* \"contracts/EjemploSubasta.sol\":3479:3482  i++ */\n      dup1\n      dup1\n      0x01\n      add\n      swap2\n      pop\n      pop\n        /* \"contracts/EjemploSubasta.sol\":3439:3542  for (uint256 i = 0; i < bidders.length; i++) {... */\n      jump(tag_73)\n    tag_74:\n      pop\n        /* \"contracts/EjemploSubasta.sol\":3559:3566  bidders */\n      0x05\n        /* \"contracts/EjemploSubasta.sol\":3568:3575  amounts */\n      dup2\n        /* \"contracts/EjemploSubasta.sol\":3551:3576  return (bidders, amounts) */\n      dup2\n      dup1\n      sload\n      dup1\n      0x20\n      mul\n      0x20\n      add\n      mload(0x40)\n      swap1\n      dup2\n      add\n      0x40\n      mstore\n      dup1\n      swap3\n      swap2\n      swap1\n      dup2\n      dup2\n      mstore\n      0x20\n      add\n      dup3\n      dup1\n      sload\n      dup1\n      iszero\n      tag_82\n      jumpi\n      0x20\n      mul\n      dup3\n      add\n      swap2\n      swap1\n      0x00\n      mstore\n      keccak256(0x00, 0x20)\n      swap1\n    tag_83:\n      dup2\n      0x00\n      swap1\n      sload\n      swap1\n      0x0100\n      exp\n      swap1\n      div\n      0xffffffffffffffffffffffffffffffffffffffff\n      and\n      0xffffffffffffffffffffffffffffffffffffffff\n      and\n      dup2\n      mstore\n      0x20\n      add\n      swap1\n      0x01\n      add\n      swap1\n      dup1\n      dup4\n      gt\n      tag_83\n      jumpi\n    tag_82:\n      pop\n      pop\n      pop\n      pop\n      pop\n      swap2\n      pop\n      swap3\n      pop\n      swap3\n      pop\n      pop\n        /* \"contracts/EjemploSubasta.sol\":3284:3583  function showBids() external view returns (address[] memory, uint256[] memory) {... */\n      swap1\n      swap2\n      jump\t// out\n        /* \"contracts/EjemploSubasta.sol\":1724:2779  function bid() external payable onlyWhileActive {... */\n    tag_26:\n        /* \"contracts/EjemploSubasta.sol\":1275:1289  auctionEndTime */\n      sload(0x01)\n        /* \"contracts/EjemploSubasta.sol\":1257:1272  block.timestamp */\n      timestamp\n        /* \"contracts/EjemploSubasta.sol\":1257:1289  block.timestamp < auctionEndTime */\n      lt\n        /* \"contracts/EjemploSubasta.sol\":1249:1312  require(block.timestamp < auctionEndTime, \"Bid already Closed\") */\n      tag_85\n      jumpi\n      mload(0x40)\n      0x08c379a000000000000000000000000000000000000000000000000000000000\n      dup2\n      mstore\n      0x04\n      add\n      tag_86\n      swap1\n      tag_87\n      jump\t// in\n    tag_86:\n      mload(0x40)\n      dup1\n      swap2\n      sub\n      swap1\n      revert\n    tag_85:\n        /* \"contracts/EjemploSubasta.sol\":1331:1336  ended */\n      0x03\n      0x14\n      swap1\n      sload\n      swap1\n      0x0100\n      exp\n      swap1\n      div\n      0xff\n      and\n        /* \"contracts/EjemploSubasta.sol\":1330:1336  !ended */\n      iszero\n        /* \"contracts/EjemploSubasta.sol\":1322:1352  require(!ended, \"Bid Closed!\") */\n      tag_88\n      jumpi\n      mload(0x40)\n      0x08c379a000000000000000000000000000000000000000000000000000000000\n      dup2\n      mstore\n      0x04\n      add\n      tag_89\n      swap1\n      tag_90\n      jump\t// in\n    tag_89:\n      mload(0x40)\n      dup1\n      swap2\n      sub\n      swap1\n      revert\n    tag_88:\n        /* \"contracts/EjemploSubasta.sol\":1802:1803  0 */\n      0x00\n        /* \"contracts/EjemploSubasta.sol\":1790:1799  msg.value */\n      callvalue\n        /* \"contracts/EjemploSubasta.sol\":1790:1803  msg.value > 0 */\n      gt\n        /* \"contracts/EjemploSubasta.sol\":1782:1840  require(msg.value > 0, \"La oferta debe ser mayor a cero.\") */\n      tag_92\n      jumpi\n      mload(0x40)\n      0x08c379a000000000000000000000000000000000000000000000000000000000\n      dup2\n      mstore\n      0x04\n      add\n      tag_93\n      swap1\n      tag_94\n      jump\t// in\n    tag_93:\n      mload(0x40)\n      dup1\n      swap2\n      sub\n      swap1\n      revert\n    tag_92:\n        /* \"contracts/EjemploSubasta.sol\":1850:1864  uint256 minBid */\n      0x00\n        /* \"contracts/EjemploSubasta.sol\":1899:1902  100 */\n      0x64\n        /* \"contracts/EjemploSubasta.sol\":1894:1895  5 */\n      0x05\n        /* \"contracts/EjemploSubasta.sol\":1881:1891  highestBid */\n      sload(0x02)\n        /* \"contracts/EjemploSubasta.sol\":1881:1895  highestBid * 5 */\n      tag_95\n      swap2\n      swap1\n      tag_96\n      jump\t// in\n    tag_95:\n        /* \"contracts/EjemploSubasta.sol\":1880:1902  (highestBid * 5) / 100 */\n      tag_97\n      swap2\n      swap1\n      tag_98\n      jump\t// in\n    tag_97:\n        /* \"contracts/EjemploSubasta.sol\":1867:1877  highestBid */\n      sload(0x02)\n        /* \"contracts/EjemploSubasta.sol\":1867:1902  highestBid + (highestBid * 5) / 100 */\n      tag_99\n      swap2\n      swap1\n      tag_100\n      jump\t// in\n    tag_99:\n        /* \"contracts/EjemploSubasta.sol\":1850:1902  uint256 minBid = highestBid + (highestBid * 5) / 100 */\n      swap1\n      pop\n        /* \"contracts/EjemploSubasta.sol\":1975:1981  minBid */\n      dup1\n        /* \"contracts/EjemploSubasta.sol\":1962:1971  msg.value */\n      callvalue\n        /* \"contracts/EjemploSubasta.sol\":1962:1981  msg.value >= minBid */\n      lt\n      iszero\n        /* \"contracts/EjemploSubasta.sol\":1954:2024  require(msg.value >= minBid, \"Offer must be 5% greater than max Bid!\") */\n      tag_101\n      jumpi\n      mload(0x40)\n      0x08c379a000000000000000000000000000000000000000000000000000000000\n      dup2\n      mstore\n      0x04\n      add\n      tag_102\n      swap1\n      tag_103\n      jump\t// in\n    tag_102:\n      mload(0x40)\n      dup1\n      swap2\n      sub\n      swap1\n      revert\n    tag_101:\n        /* \"contracts/EjemploSubasta.sol\":2150:2151  0 */\n      0x00\n        /* \"contracts/EjemploSubasta.sol\":2126:2134  deposits */\n      0x04\n        /* \"contracts/EjemploSubasta.sol\":2126:2146  deposits[msg.sender] */\n      0x00\n        /* \"contracts/EjemploSubasta.sol\":2135:2145  msg.sender */\n      caller\n        /* \"contracts/EjemploSubasta.sol\":2126:2146  deposits[msg.sender] */\n      0xffffffffffffffffffffffffffffffffffffffff\n      and\n      0xffffffffffffffffffffffffffffffffffffffff\n      and\n      dup2\n      mstore\n      0x20\n      add\n      swap1\n      dup2\n      mstore\n      0x20\n      add\n      0x00\n      keccak256\n      sload\n        /* \"contracts/EjemploSubasta.sol\":2126:2151  deposits[msg.sender] == 0 */\n      sub\n        /* \"contracts/EjemploSubasta.sol\":2122:2202  if (deposits[msg.sender] == 0) {... */\n      tag_104\n      jumpi\n        /* \"contracts/EjemploSubasta.sol\":2167:2174  bidders */\n      0x05\n        /* \"contracts/EjemploSubasta.sol\":2180:2190  msg.sender */\n      caller\n        /* \"contracts/EjemploSubasta.sol\":2167:2191  bidders.push(msg.sender) */\n      swap1\n      dup1\n      0x01\n      dup2\n      sload\n      add\n      dup1\n      dup3\n      sstore\n      dup1\n      swap2\n      pop\n      pop\n      0x01\n      swap1\n      sub\n      swap1\n      0x00\n      mstore\n      keccak256(0x00, 0x20)\n      add\n      0x00\n      swap1\n      swap2\n      swap1\n      swap2\n      swap1\n      swap2\n      0x0100\n      exp\n      dup2\n      sload\n      dup2\n      0xffffffffffffffffffffffffffffffffffffffff\n      mul\n      not\n      and\n      swap1\n      dup4\n      0xffffffffffffffffffffffffffffffffffffffff\n      and\n      mul\n      or\n      swap1\n      sstore\n      pop\n        /* \"contracts/EjemploSubasta.sol\":2122:2202  if (deposits[msg.sender] == 0) {... */\n    tag_104:\n        /* \"contracts/EjemploSubasta.sol\":2235:2244  msg.value */\n      callvalue\n        /* \"contracts/EjemploSubasta.sol\":2211:2219  deposits */\n      0x04\n        /* \"contracts/EjemploSubasta.sol\":2211:2231  deposits[msg.sender] */\n      0x00\n        /* \"contracts/EjemploSubasta.sol\":2220:2230  msg.sender */\n      caller\n        /* \"contracts/EjemploSubasta.sol\":2211:2231  deposits[msg.sender] */\n      0xffffffffffffffffffffffffffffffffffffffff\n      and\n      0xffffffffffffffffffffffffffffffffffffffff\n      and\n      dup2\n      mstore\n      0x20\n      add\n      swap1\n      dup2\n      mstore\n      0x20\n      add\n      0x00\n      keccak256\n      0x00\n        /* \"contracts/EjemploSubasta.sol\":2211:2244  deposits[msg.sender] += msg.value */\n      dup3\n      dup3\n      sload\n      tag_106\n      swap2\n      swap1\n      tag_100\n      jump\t// in\n    tag_106:\n      swap3\n      pop\n      pop\n      dup2\n      swap1\n      sstore\n      pop\n        /* \"contracts/EjemploSubasta.sol\":2349:2350  0 */\n      0x00\n        /* \"contracts/EjemploSubasta.sol\":2324:2351  highestBidder != address(0) */\n      0xffffffffffffffffffffffffffffffffffffffff\n      and\n        /* \"contracts/EjemploSubasta.sol\":2324:2337  highestBidder */\n      0x03\n      0x00\n      swap1\n      sload\n      swap1\n      0x0100\n      exp\n      swap1\n      div\n      0xffffffffffffffffffffffffffffffffffffffff\n      and\n        /* \"contracts/EjemploSubasta.sol\":2324:2351  highestBidder != address(0) */\n      0xffffffffffffffffffffffffffffffffffffffff\n      and\n      eq\n        /* \"contracts/EjemploSubasta.sol\":2320:2421  if (highestBidder != address(0)) {... */\n      tag_107\n      jumpi\n        /* \"contracts/EjemploSubasta.sol\":2375:2388  highestBidder */\n      0x03\n      0x00\n      swap1\n      sload\n      swap1\n      0x0100\n      exp\n      swap1\n      div\n      0xffffffffffffffffffffffffffffffffffffffff\n      and\n        /* \"contracts/EjemploSubasta.sol\":2367:2398  payable(highestBidder).transfer */\n      0xffffffffffffffffffffffffffffffffffffffff\n      and\n        /* \"contracts/EjemploSubasta.sol\":2367:2410  payable(highestBidder).transfer(highestBid) */\n      0x08fc\n        /* \"contracts/EjemploSubasta.sol\":2399:2409  highestBid */\n      sload(0x02)\n        /* \"contracts/EjemploSubasta.sol\":2367:2410  payable(highestBidder).transfer(highestBid) */\n      swap1\n      dup2\n      iszero\n      mul\n      swap1\n      mload(0x40)\n      0x00\n      mload(0x40)\n      dup1\n      dup4\n      sub\n      dup2\n      dup6\n      dup9\n      dup9\n      call\n      swap4\n      pop\n      pop\n      pop\n      pop\n      iszero\n      dup1\n      iszero\n      tag_109\n      jumpi\n      returndatasize\n      0x00\n      dup1\n      returndatacopy\n      revert(0x00, returndatasize)\n    tag_109:\n      pop\n        /* \"contracts/EjemploSubasta.sol\":2320:2421  if (highestBidder != address(0)) {... */\n    tag_107:\n        /* \"contracts/EjemploSubasta.sol\":2504:2513  msg.value */\n      callvalue\n        /* \"contracts/EjemploSubasta.sol\":2491:2501  highestBid */\n      0x02\n        /* \"contracts/EjemploSubasta.sol\":2491:2513  highestBid = msg.value */\n      dup2\n      swap1\n      sstore\n      pop\n        /* \"contracts/EjemploSubasta.sol\":2539:2549  msg.sender */\n      caller\n        /* \"contracts/EjemploSubasta.sol\":2523:2536  highestBidder */\n      0x03\n      0x00\n        /* \"contracts/EjemploSubasta.sol\":2523:2549  highestBidder = msg.sender */\n      0x0100\n      exp\n      dup2\n      sload\n      dup2\n      0xffffffffffffffffffffffffffffffffffffffff\n      mul\n      not\n      and\n      swap1\n      dup4\n      0xffffffffffffffffffffffffffffffffffffffff\n      and\n      mul\n      or\n      swap1\n      sstore\n      pop\n        /* \"contracts/EjemploSubasta.sol\":2663:2673  10 minutes */\n      0x0258\n        /* \"contracts/EjemploSubasta.sol\":2645:2660  block.timestamp */\n      timestamp\n        /* \"contracts/EjemploSubasta.sol\":2628:2642  auctionEndTime */\n      sload(0x01)\n        /* \"contracts/EjemploSubasta.sol\":2628:2660  auctionEndTime - block.timestamp */\n      tag_110\n      swap2\n      swap1\n      tag_111\n      jump\t// in\n    tag_110:\n        /* \"contracts/EjemploSubasta.sol\":2628:2673  auctionEndTime - block.timestamp < 10 minutes */\n      lt\n        /* \"contracts/EjemploSubasta.sol\":2624:2728  if (auctionEndTime - block.timestamp < 10 minutes) {... */\n      iszero\n      tag_112\n      jumpi\n        /* \"contracts/EjemploSubasta.sol\":2707:2717  10 minutes */\n      0x0258\n        /* \"contracts/EjemploSubasta.sol\":2689:2703  auctionEndTime */\n      0x01\n      0x00\n        /* \"contracts/EjemploSubasta.sol\":2689:2717  auctionEndTime += 10 minutes */\n      dup3\n      dup3\n      sload\n      tag_113\n      swap2\n      swap1\n      tag_100\n      jump\t// in\n    tag_113:\n      swap3\n      pop\n      pop\n      dup2\n      swap1\n      sstore\n      pop\n        /* \"contracts/EjemploSubasta.sol\":2624:2728  if (auctionEndTime - block.timestamp < 10 minutes) {... */\n    tag_112:\n        /* \"contracts/EjemploSubasta.sol\":2750:2760  msg.sender */\n      caller\n        /* \"contracts/EjemploSubasta.sol\":2743:2772  NewBid(msg.sender, msg.value) */\n      0xffffffffffffffffffffffffffffffffffffffff\n      and\n      0xdd0b6c6a77960e2066c96171b4d7ac9e8b4c184011f38544afa36a5bb63ec59f\n        /* \"contracts/EjemploSubasta.sol\":2762:2771  msg.value */\n      callvalue\n        /* \"contracts/EjemploSubasta.sol\":2743:2772  NewBid(msg.sender, msg.value) */\n      mload(0x40)\n      tag_114\n      swap2\n      swap1\n      tag_31\n      jump\t// in\n    tag_114:\n      mload(0x40)\n      dup1\n      swap2\n      sub\n      swap1\n      log2\n        /* \"contracts/EjemploSubasta.sol\":1772:2779  {... */\n      pop\n        /* \"contracts/EjemploSubasta.sol\":1724:2779  function bid() external payable onlyWhileActive {... */\n      jump\t// out\n        /* \"contracts/EjemploSubasta.sol\":277:306  uint256 public auctionEndTime */\n    tag_29:\n      sload(0x01)\n      dup2\n      jump\t// out\n        /* \"contracts/EjemploSubasta.sol\":199:219  address public owner */\n    tag_34:\n      0x00\n      dup1\n      sload\n      swap1\n      0x0100\n      exp\n      swap1\n      div\n      0xffffffffffffffffffffffffffffffffffffffff\n      and\n      dup2\n      jump\t// out\n        /* \"contracts/EjemploSubasta.sol\":424:452  address public highestBidder */\n    tag_39:\n      0x03\n      0x00\n      swap1\n      sload\n      swap1\n      0x0100\n      exp\n      swap1\n      div\n      0xffffffffffffffffffffffffffffffffffffffff\n      and\n      dup2\n      jump\t// out\n        /* \"contracts/EjemploSubasta.sol\":2976:3150  function showWinner() external view returns (address ganador, uint256 oferta) {... */\n    tag_43:\n        /* \"contracts/EjemploSubasta.sol\":3021:3036  address ganador */\n      0x00\n        /* \"contracts/EjemploSubasta.sol\":3038:3052  uint256 oferta */\n      dup1\n        /* \"contracts/EjemploSubasta.sol\":3072:3077  ended */\n      0x03\n      0x14\n      swap1\n      sload\n      swap1\n      0x0100\n      exp\n      swap1\n      div\n      0xff\n      and\n        /* \"contracts/EjemploSubasta.sol\":3064:3099  require(ended, \"Bid is still open\") */\n      tag_116\n      jumpi\n      mload(0x40)\n      0x08c379a000000000000000000000000000000000000000000000000000000000\n      dup2\n      mstore\n      0x04\n      add\n      tag_117\n      swap1\n      tag_118\n      jump\t// in\n    tag_117:\n      mload(0x40)\n      dup1\n      swap2\n      sub\n      swap1\n      revert\n    tag_116:\n        /* \"contracts/EjemploSubasta.sol\":3117:3130  highestBidder */\n      0x03\n      0x00\n      swap1\n      sload\n      swap1\n      0x0100\n      exp\n      swap1\n      div\n      0xffffffffffffffffffffffffffffffffffffffff\n      and\n        /* \"contracts/EjemploSubasta.sol\":3132:3142  highestBid */\n      sload(0x02)\n        /* \"contracts/EjemploSubasta.sol\":3109:3143  return (highestBidder, highestBid) */\n      swap2\n      pop\n      swap2\n      pop\n        /* \"contracts/EjemploSubasta.sol\":2976:3150  function showWinner() external view returns (address ganador, uint256 oferta) {... */\n      swap1\n      swap2\n      jump\t// out\n        /* \"contracts/EjemploSubasta.sol\":4448:4791  function withdrawExcess() external {... */\n    tag_48:\n        /* \"contracts/EjemploSubasta.sol\":4524:4534  highestBid */\n      sload(0x02)\n        /* \"contracts/EjemploSubasta.sol\":4501:4509  deposits */\n      0x04\n        /* \"contracts/EjemploSubasta.sol\":4501:4521  deposits[msg.sender] */\n      0x00\n        /* \"contracts/EjemploSubasta.sol\":4510:4520  msg.sender */\n      caller\n        /* \"contracts/EjemploSubasta.sol\":4501:4521  deposits[msg.sender] */\n      0xffffffffffffffffffffffffffffffffffffffff\n      and\n      0xffffffffffffffffffffffffffffffffffffffff\n      and\n      dup2\n      mstore\n      0x20\n      add\n      swap1\n      dup2\n      mstore\n      0x20\n      add\n      0x00\n      keccak256\n      sload\n        /* \"contracts/EjemploSubasta.sol\":4501:4534  deposits[msg.sender] > highestBid */\n      gt\n        /* \"contracts/EjemploSubasta.sol\":4493:4577  require(deposits[msg.sender] > highestBid, \"There in no enough balance to withdraw\") */\n      tag_120\n      jumpi\n      mload(0x40)\n      0x08c379a000000000000000000000000000000000000000000000000000000000\n      dup2\n      mstore\n      0x04\n      add\n      tag_121\n      swap1\n      tag_122\n      jump\t// in\n    tag_121:\n      mload(0x40)\n      dup1\n      swap2\n      sub\n      swap1\n      revert\n    tag_120:\n        /* \"contracts/EjemploSubasta.sol\":4587:4601  uint256 excess */\n      0x00\n        /* \"contracts/EjemploSubasta.sol\":4627:4637  highestBid */\n      sload(0x02)\n        /* \"contracts/EjemploSubasta.sol\":4604:4612  deposits */\n      0x04\n        /* \"contracts/EjemploSubasta.sol\":4604:4624  deposits[msg.sender] */\n      0x00\n        /* \"contracts/EjemploSubasta.sol\":4613:4623  msg.sender */\n      caller\n        /* \"contracts/EjemploSubasta.sol\":4604:4624  deposits[msg.sender] */\n      0xffffffffffffffffffffffffffffffffffffffff\n      and\n      0xffffffffffffffffffffffffffffffffffffffff\n      and\n      dup2\n      mstore\n      0x20\n      add\n      swap1\n      dup2\n      mstore\n      0x20\n      add\n      0x00\n      keccak256\n      sload\n        /* \"contracts/EjemploSubasta.sol\":4604:4637  deposits[msg.sender] - highestBid */\n      tag_123\n      swap2\n      swap1\n      tag_111\n      jump\t// in\n    tag_123:\n        /* \"contracts/EjemploSubasta.sol\":4587:4637  uint256 excess = deposits[msg.sender] - highestBid */\n      swap1\n      pop\n        /* \"contracts/EjemploSubasta.sol\":4670:4680  highestBid */\n      sload(0x02)\n        /* \"contracts/EjemploSubasta.sol\":4647:4655  deposits */\n      0x04\n        /* \"contracts/EjemploSubasta.sol\":4647:4667  deposits[msg.sender] */\n      0x00\n        /* \"contracts/EjemploSubasta.sol\":4656:4666  msg.sender */\n      caller\n        /* \"contracts/EjemploSubasta.sol\":4647:4667  deposits[msg.sender] */\n      0xffffffffffffffffffffffffffffffffffffffff\n      and\n      0xffffffffffffffffffffffffffffffffffffffff\n      and\n      dup2\n      mstore\n      0x20\n      add\n      swap1\n      dup2\n      mstore\n      0x20\n      add\n      0x00\n      keccak256\n        /* \"contracts/EjemploSubasta.sol\":4647:4680  deposits[msg.sender] = highestBid */\n      dup2\n      swap1\n      sstore\n      pop\n        /* \"contracts/EjemploSubasta.sol\":4756:4766  msg.sender */\n      caller\n        /* \"contracts/EjemploSubasta.sol\":4748:4776  payable(msg.sender).transfer */\n      0xffffffffffffffffffffffffffffffffffffffff\n      and\n        /* \"contracts/EjemploSubasta.sol\":4748:4784  payable(msg.sender).transfer(excess) */\n      0x08fc\n        /* \"contracts/EjemploSubasta.sol\":4777:4783  excess */\n      dup3\n        /* \"contracts/EjemploSubasta.sol\":4748:4784  payable(msg.sender).transfer(excess) */\n      swap1\n      dup2\n      iszero\n      mul\n      swap1\n      mload(0x40)\n      0x00\n      mload(0x40)\n      dup1\n      dup4\n      sub\n      dup2\n      dup6\n      dup9\n      dup9\n      call\n      swap4\n      pop\n      pop\n      pop\n      pop\n      iszero\n      dup1\n      iszero\n      tag_125\n      jumpi\n      returndatasize\n      0x00\n      dup1\n      returndatacopy\n      revert(0x00, returndatasize)\n    tag_125:\n      pop\n        /* \"contracts/EjemploSubasta.sol\":4483:4791  {... */\n      pop\n        /* \"contracts/EjemploSubasta.sol\":4448:4791  function withdrawExcess() external {... */\n      jump\t// out\n        /* \"contracts/EjemploSubasta.sol\":669:693  address[] public bidders */\n    tag_53:\n      0x05\n      dup2\n      dup2\n      sload\n      dup2\n      lt\n      tag_126\n      jumpi\n      0x00\n      dup1\n      revert\n    tag_126:\n      swap1\n      0x00\n      mstore\n      keccak256(0x00, 0x20)\n      add\n      0x00\n      swap2\n      pop\n      sload\n      swap1\n      0x0100\n      exp\n      swap1\n      div\n      0xffffffffffffffffffffffffffffffffffffffff\n      and\n      dup2\n      jump\t// out\n        /* \"contracts/EjemploSubasta.sol\":353:378  uint256 public highestBid */\n    tag_57:\n      sload(0x02)\n      dup2\n      jump\t// out\n        /* \"contracts/EjemploSubasta.sol\":583:626  mapping(address => uint256) public deposits */\n    tag_63:\n      mstore(0x20, 0x04)\n      dup1\n      0x00\n      mstore\n      keccak256(0x00, 0x40)\n      0x00\n      swap2\n      pop\n      swap1\n      pop\n      sload\n      dup2\n      jump\t// out\n        /* \"contracts/EjemploSubasta.sol\":3681:4352  function endAuction() external onlyOwner {... */\n    tag_67:\n        /* \"contracts/EjemploSubasta.sol\":1078:1083  owner */\n      0x00\n      dup1\n      sload\n      swap1\n      0x0100\n      exp\n      swap1\n      div\n      0xffffffffffffffffffffffffffffffffffffffff\n      and\n        /* \"contracts/EjemploSubasta.sol\":1064:1083  msg.sender == owner */\n      0xffffffffffffffffffffffffffffffffffffffff\n      and\n        /* \"contracts/EjemploSubasta.sol\":1064:1074  msg.sender */\n      caller\n        /* \"contracts/EjemploSubasta.sol\":1064:1083  msg.sender == owner */\n      0xffffffffffffffffffffffffffffffffffffffff\n      and\n      eq\n        /* \"contracts/EjemploSubasta.sol\":1056:1107  require(msg.sender == owner, \"Owner Only Function\") */\n      tag_129\n      jumpi\n      mload(0x40)\n      0x08c379a000000000000000000000000000000000000000000000000000000000\n      dup2\n      mstore\n      0x04\n      add\n      tag_130\n      swap1\n      tag_131\n      jump\t// in\n    tag_130:\n      mload(0x40)\n      dup1\n      swap2\n      sub\n      swap1\n      revert\n    tag_129:\n        /* \"contracts/EjemploSubasta.sol\":3759:3773  auctionEndTime */\n      sload(0x01)\n        /* \"contracts/EjemploSubasta.sol\":3740:3755  block.timestamp */\n      timestamp\n        /* \"contracts/EjemploSubasta.sol\":3740:3773  block.timestamp >= auctionEndTime */\n      lt\n      iszero\n        /* \"contracts/EjemploSubasta.sol\":3732:3796  require(block.timestamp >= auctionEndTime, \"Bid not ended yet!\") */\n      tag_133\n      jumpi\n      mload(0x40)\n      0x08c379a000000000000000000000000000000000000000000000000000000000\n      dup2\n      mstore\n      0x04\n      add\n      tag_134\n      swap1\n      tag_135\n      jump\t// in\n    tag_134:\n      mload(0x40)\n      dup1\n      swap2\n      sub\n      swap1\n      revert\n    tag_133:\n        /* \"contracts/EjemploSubasta.sol\":3815:3820  ended */\n      0x03\n      0x14\n      swap1\n      sload\n      swap1\n      0x0100\n      exp\n      swap1\n      div\n      0xff\n      and\n        /* \"contracts/EjemploSubasta.sol\":3814:3820  !ended */\n      iszero\n        /* \"contracts/EjemploSubasta.sol\":3806:3858  require(!ended, \"La subasta ya ha sido finalizada.\") */\n      tag_136\n      jumpi\n      mload(0x40)\n      0x08c379a000000000000000000000000000000000000000000000000000000000\n      dup2\n      mstore\n      0x04\n      add\n      tag_137\n      swap1\n      tag_138\n      jump\t// in\n    tag_137:\n      mload(0x40)\n      dup1\n      swap2\n      sub\n      swap1\n      revert\n    tag_136:\n        /* \"contracts/EjemploSubasta.sol\":3877:3881  true */\n      0x01\n        /* \"contracts/EjemploSubasta.sol\":3869:3874  ended */\n      0x03\n      0x14\n        /* \"contracts/EjemploSubasta.sol\":3869:3881  ended = true */\n      0x0100\n      exp\n      dup2\n      sload\n      dup2\n      0xff\n      mul\n      not\n      and\n      swap1\n      dup4\n      iszero\n      iszero\n      mul\n      or\n      swap1\n      sstore\n      pop\n        /* \"contracts/EjemploSubasta.sol\":3972:3981  uint256 i */\n      0x00\n        /* \"contracts/EjemploSubasta.sol\":3967:4291  for (uint256 i = 0; i < bidders.length; i++) {... */\n    tag_139:\n        /* \"contracts/EjemploSubasta.sol\":3991:3998  bidders */\n      0x05\n        /* \"contracts/EjemploSubasta.sol\":3991:4005  bidders.length */\n      dup1\n      sload\n      swap1\n      pop\n        /* \"contracts/EjemploSubasta.sol\":3987:3988  i */\n      dup2\n        /* \"contracts/EjemploSubasta.sol\":3987:4005  i < bidders.length */\n      lt\n        /* \"contracts/EjemploSubasta.sol\":3967:4291  for (uint256 i = 0; i < bidders.length; i++) {... */\n      iszero\n      tag_140\n      jumpi\n        /* \"contracts/EjemploSubasta.sol\":4026:4040  address bidder */\n      0x00\n        /* \"contracts/EjemploSubasta.sol\":4043:4050  bidders */\n      0x05\n        /* \"contracts/EjemploSubasta.sol\":4051:4052  i */\n      dup3\n        /* \"contracts/EjemploSubasta.sol\":4043:4053  bidders[i] */\n      dup2\n      sload\n      dup2\n      lt\n      tag_142\n      jumpi\n      tag_143\n      tag_78\n      jump\t// in\n    tag_143:\n    tag_142:\n      swap1\n      0x00\n      mstore\n      keccak256(0x00, 0x20)\n      add\n      0x00\n      swap1\n      sload\n      swap1\n      0x0100\n      exp\n      swap1\n      div\n      0xffffffffffffffffffffffffffffffffffffffff\n      and\n        /* \"contracts/EjemploSubasta.sol\":4026:4053  address bidder = bidders[i] */\n      swap1\n      pop\n        /* \"contracts/EjemploSubasta.sol\":4081:4094  highestBidder */\n      0x03\n      0x00\n      swap1\n      sload\n      swap1\n      0x0100\n      exp\n      swap1\n      div\n      0xffffffffffffffffffffffffffffffffffffffff\n      and\n        /* \"contracts/EjemploSubasta.sol\":4071:4094  bidder != highestBidder */\n      0xffffffffffffffffffffffffffffffffffffffff\n      and\n        /* \"contracts/EjemploSubasta.sol\":4071:4077  bidder */\n      dup2\n        /* \"contracts/EjemploSubasta.sol\":4071:4094  bidder != highestBidder */\n      0xffffffffffffffffffffffffffffffffffffffff\n      and\n      eq\n        /* \"contracts/EjemploSubasta.sol\":4067:4281  if (bidder != highestBidder) {... */\n      tag_145\n      jumpi\n        /* \"contracts/EjemploSubasta.sol\":4114:4128  uint256 refund */\n      0x00\n        /* \"contracts/EjemploSubasta.sol\":4175:4178  100 */\n      0x64\n        /* \"contracts/EjemploSubasta.sol\":4170:4171  2 */\n      0x02\n        /* \"contracts/EjemploSubasta.sol\":4151:4159  deposits */\n      0x04\n        /* \"contracts/EjemploSubasta.sol\":4151:4167  deposits[bidder] */\n      0x00\n        /* \"contracts/EjemploSubasta.sol\":4160:4166  bidder */\n      dup6\n        /* \"contracts/EjemploSubasta.sol\":4151:4167  deposits[bidder] */\n      0xffffffffffffffffffffffffffffffffffffffff\n      and\n      0xffffffffffffffffffffffffffffffffffffffff\n      and\n      dup2\n      mstore\n      0x20\n      add\n      swap1\n      dup2\n      mstore\n      0x20\n      add\n      0x00\n      keccak256\n      sload\n        /* \"contracts/EjemploSubasta.sol\":4151:4171  deposits[bidder] * 2 */\n      tag_146\n      swap2\n      swap1\n      tag_96\n      jump\t// in\n    tag_146:\n        /* \"contracts/EjemploSubasta.sol\":4150:4178  (deposits[bidder] * 2) / 100 */\n      tag_147\n      swap2\n      swap1\n      tag_98\n      jump\t// in\n    tag_147:\n        /* \"contracts/EjemploSubasta.sol\":4131:4139  deposits */\n      0x04\n        /* \"contracts/EjemploSubasta.sol\":4131:4147  deposits[bidder] */\n      0x00\n        /* \"contracts/EjemploSubasta.sol\":4140:4146  bidder */\n      dup5\n        /* \"contracts/EjemploSubasta.sol\":4131:4147  deposits[bidder] */\n      0xffffffffffffffffffffffffffffffffffffffff\n      and\n      0xffffffffffffffffffffffffffffffffffffffff\n      and\n      dup2\n      mstore\n      0x20\n      add\n      swap1\n      dup2\n      mstore\n      0x20\n      add\n      0x00\n      keccak256\n      sload\n        /* \"contracts/EjemploSubasta.sol\":4131:4178  deposits[bidder] - (deposits[bidder] * 2) / 100 */\n      tag_148\n      swap2\n      swap1\n      tag_111\n      jump\t// in\n    tag_148:\n        /* \"contracts/EjemploSubasta.sol\":4114:4178  uint256 refund = deposits[bidder] - (deposits[bidder] * 2) / 100 */\n      swap1\n      pop\n        /* \"contracts/EjemploSubasta.sol\":4215:4216  0 */\n      0x00\n        /* \"contracts/EjemploSubasta.sol\":4196:4204  deposits */\n      0x04\n        /* \"contracts/EjemploSubasta.sol\":4196:4212  deposits[bidder] */\n      0x00\n        /* \"contracts/EjemploSubasta.sol\":4205:4211  bidder */\n      dup5\n        /* \"contracts/EjemploSubasta.sol\":4196:4212  deposits[bidder] */\n      0xffffffffffffffffffffffffffffffffffffffff\n      and\n      0xffffffffffffffffffffffffffffffffffffffff\n      and\n      dup2\n      mstore\n      0x20\n      add\n      swap1\n      dup2\n      mstore\n      0x20\n      add\n      0x00\n      keccak256\n        /* \"contracts/EjemploSubasta.sol\":4196:4216  deposits[bidder] = 0 */\n      dup2\n      swap1\n      sstore\n      pop\n        /* \"contracts/EjemploSubasta.sol\":4242:4248  bidder */\n      dup2\n        /* \"contracts/EjemploSubasta.sol\":4234:4258  payable(bidder).transfer */\n      0xffffffffffffffffffffffffffffffffffffffff\n      and\n        /* \"contracts/EjemploSubasta.sol\":4234:4266  payable(bidder).transfer(refund) */\n      0x08fc\n        /* \"contracts/EjemploSubasta.sol\":4259:4265  refund */\n      dup3\n        /* \"contracts/EjemploSubasta.sol\":4234:4266  payable(bidder).transfer(refund) */\n      swap1\n      dup2\n      iszero\n      mul\n      swap1\n      mload(0x40)\n      0x00\n      mload(0x40)\n      dup1\n      dup4\n      sub\n      dup2\n      dup6\n      dup9\n      dup9\n      call\n      swap4\n      pop\n      pop\n      pop\n      pop\n      iszero\n      dup1\n      iszero\n      tag_150\n      jumpi\n      returndatasize\n      0x00\n      dup1\n      returndatacopy\n      revert(0x00, returndatasize)\n    tag_150:\n      pop\n        /* \"contracts/EjemploSubasta.sol\":4096:4281  {... */\n      pop\n        /* \"contracts/EjemploSubasta.sol\":4067:4281  if (bidder != highestBidder) {... */\n    tag_145:\n        /* \"contracts/EjemploSubasta.sol\":4012:4291  {... */\n      pop\n        /* \"contracts/EjemploSubasta.sol\":4007:4010  i++ */\n      dup1\n      dup1\n      0x01\n      add\n      swap2\n      pop\n      pop\n        /* \"contracts/EjemploSubasta.sol\":3967:4291  for (uint256 i = 0; i < bidders.length; i++) {... */\n      jump(tag_139)\n    tag_140:\n      pop\n        /* \"contracts/EjemploSubasta.sol\":4306:4345  AuctionEnded(highestBidder, highestBid) */\n      0xdaec4582d5d9595688c8c98545fdd1c696d41c6aeaeb636737e84ed2f5c00eda\n        /* \"contracts/EjemploSubasta.sol\":4319:4332  highestBidder */\n      0x03\n      0x00\n      swap1\n      sload\n      swap1\n      0x0100\n      exp\n      swap1\n      div\n      0xffffffffffffffffffffffffffffffffffffffff\n      and\n        /* \"contracts/EjemploSubasta.sol\":4334:4344  highestBid */\n      sload(0x02)\n        /* \"contracts/EjemploSubasta.sol\":4306:4345  AuctionEnded(highestBidder, highestBid) */\n      mload(0x40)\n      tag_151\n      swap3\n      swap2\n      swap1\n      tag_45\n      jump\t// in\n    tag_151:\n      mload(0x40)\n      dup1\n      swap2\n      sub\n      swap1\n      log1\n        /* \"contracts/EjemploSubasta.sol\":3681:4352  function endAuction() external onlyOwner {... */\n      jump\t// out\n        /* \"#utility.yul\":7:97   */\n    tag_152:\n        /* \"#utility.yul\":41:48   */\n      0x00\n        /* \"#utility.yul\":84:89   */\n      dup2\n        /* \"#utility.yul\":77:90   */\n      iszero\n        /* \"#utility.yul\":70:91   */\n      iszero\n        /* \"#utility.yul\":59:91   */\n      swap1\n      pop\n        /* \"#utility.yul\":7:97   */\n      swap2\n      swap1\n      pop\n      jump\t// out\n        /* \"#utility.yul\":103:212   */\n    tag_153:\n        /* \"#utility.yul\":184:205   */\n      tag_204\n        /* \"#utility.yul\":199:204   */\n      dup2\n        /* \"#utility.yul\":184:205   */\n      tag_152\n      jump\t// in\n    tag_204:\n        /* \"#utility.yul\":179:182   */\n      dup3\n        /* \"#utility.yul\":172:206   */\n      mstore\n        /* \"#utility.yul\":103:212   */\n      pop\n      pop\n      jump\t// out\n        /* \"#utility.yul\":218:428   */\n    tag_19:\n        /* \"#utility.yul\":305:309   */\n      0x00\n        /* \"#utility.yul\":343:345   */\n      0x20\n        /* \"#utility.yul\":332:341   */\n      dup3\n        /* \"#utility.yul\":328:346   */\n      add\n        /* \"#utility.yul\":320:346   */\n      swap1\n      pop\n        /* \"#utility.yul\":356:421   */\n      tag_206\n        /* \"#utility.yul\":418:419   */\n      0x00\n        /* \"#utility.yul\":407:416   */\n      dup4\n        /* \"#utility.yul\":403:420   */\n      add\n        /* \"#utility.yul\":394:400   */\n      dup5\n        /* \"#utility.yul\":356:421   */\n      tag_153\n      jump\t// in\n    tag_206:\n        /* \"#utility.yul\":218:428   */\n      swap3\n      swap2\n      pop\n      pop\n      jump\t// out\n        /* \"#utility.yul\":434:548   */\n    tag_154:\n        /* \"#utility.yul\":501:507   */\n      0x00\n        /* \"#utility.yul\":535:540   */\n      dup2\n        /* \"#utility.yul\":529:541   */\n      mload\n        /* \"#utility.yul\":519:541   */\n      swap1\n      pop\n        /* \"#utility.yul\":434:548   */\n      swap2\n      swap1\n      pop\n      jump\t// out\n        /* \"#utility.yul\":554:738   */\n    tag_155:\n        /* \"#utility.yul\":653:664   */\n      0x00\n        /* \"#utility.yul\":687:693   */\n      dup3\n        /* \"#utility.yul\":682:685   */\n      dup3\n        /* \"#utility.yul\":675:694   */\n      mstore\n        /* \"#utility.yul\":727:731   */\n      0x20\n        /* \"#utility.yul\":722:725   */\n      dup3\n        /* \"#utility.yul\":718:732   */\n      add\n        /* \"#utility.yul\":703:732   */\n      swap1\n      pop\n        /* \"#utility.yul\":554:738   */\n      swap3\n      swap2\n      pop\n      pop\n      jump\t// out\n        /* \"#utility.yul\":744:876   */\n    tag_156:\n        /* \"#utility.yul\":811:815   */\n      0x00\n        /* \"#utility.yul\":834:837   */\n      dup2\n        /* \"#utility.yul\":826:837   */\n      swap1\n      pop\n        /* \"#utility.yul\":864:868   */\n      0x20\n        /* \"#utility.yul\":859:862   */\n      dup3\n        /* \"#utility.yul\":855:869   */\n      add\n        /* \"#utility.yul\":847:869   */\n      swap1\n      pop\n        /* \"#utility.yul\":744:876   */\n      swap2\n      swap1\n      pop\n      jump\t// out\n        /* \"#utility.yul\":882:1008   */\n    tag_157:\n        /* \"#utility.yul\":919:926   */\n      0x00\n        /* \"#utility.yul\":959:1001   */\n      0xffffffffffffffffffffffffffffffffffffffff\n        /* \"#utility.yul\":952:957   */\n      dup3\n        /* \"#utility.yul\":948:1002   */\n      and\n        /* \"#utility.yul\":937:1002   */\n      swap1\n      pop\n        /* \"#utility.yul\":882:1008   */\n      swap2\n      swap1\n      pop\n      jump\t// out\n        /* \"#utility.yul\":1014:1110   */\n    tag_158:\n        /* \"#utility.yul\":1051:1058   */\n      0x00\n        /* \"#utility.yul\":1080:1104   */\n      tag_212\n        /* \"#utility.yul\":1098:1103   */\n      dup3\n        /* \"#utility.yul\":1080:1104   */\n      tag_157\n      jump\t// in\n    tag_212:\n        /* \"#utility.yul\":1069:1104   */\n      swap1\n      pop\n        /* \"#utility.yul\":1014:1110   */\n      swap2\n      swap1\n      pop\n      jump\t// out\n        /* \"#utility.yul\":1116:1224   */\n    tag_159:\n        /* \"#utility.yul\":1193:1217   */\n      tag_214\n        /* \"#utility.yul\":1211:1216   */\n      dup2\n        /* \"#utility.yul\":1193:1217   */\n      tag_158\n      jump\t// in\n    tag_214:\n        /* \"#utility.yul\":1188:1191   */\n      dup3\n        /* \"#utility.yul\":1181:1218   */\n      mstore\n        /* \"#utility.yul\":1116:1224   */\n      pop\n      pop\n      jump\t// out\n        /* \"#utility.yul\":1230:1409   */\n    tag_160:\n        /* \"#utility.yul\":1299:1309   */\n      0x00\n        /* \"#utility.yul\":1320:1366   */\n      tag_216\n        /* \"#utility.yul\":1362:1365   */\n      dup4\n        /* \"#utility.yul\":1354:1360   */\n      dup4\n        /* \"#utility.yul\":1320:1366   */\n      tag_159\n      jump\t// in\n    tag_216:\n        /* \"#utility.yul\":1398:1402   */\n      0x20\n        /* \"#utility.yul\":1393:1396   */\n      dup4\n        /* \"#utility.yul\":1389:1403   */\n      add\n        /* \"#utility.yul\":1375:1403   */\n      swap1\n      pop\n        /* \"#utility.yul\":1230:1409   */\n      swap3\n      swap2\n      pop\n      pop\n      jump\t// out\n        /* \"#utility.yul\":1415:1528   */\n    tag_161:\n        /* \"#utility.yul\":1485:1489   */\n      0x00\n        /* \"#utility.yul\":1517:1521   */\n      0x20\n        /* \"#utility.yul\":1512:1515   */\n      dup3\n        /* \"#utility.yul\":1508:1522   */\n      add\n        /* \"#utility.yul\":1500:1522   */\n      swap1\n      pop\n        /* \"#utility.yul\":1415:1528   */\n      swap2\n      swap1\n      pop\n      jump\t// out\n        /* \"#utility.yul\":1564:2296   */\n    tag_162:\n        /* \"#utility.yul\":1683:1686   */\n      0x00\n        /* \"#utility.yul\":1712:1766   */\n      tag_219\n        /* \"#utility.yul\":1760:1765   */\n      dup3\n        /* \"#utility.yul\":1712:1766   */\n      tag_154\n      jump\t// in\n    tag_219:\n        /* \"#utility.yul\":1782:1868   */\n      tag_220\n        /* \"#utility.yul\":1861:1867   */\n      dup2\n        /* \"#utility.yul\":1856:1859   */\n      dup6\n        /* \"#utility.yul\":1782:1868   */\n      tag_155\n      jump\t// in\n    tag_220:\n        /* \"#utility.yul\":1775:1868   */\n      swap4\n      pop\n        /* \"#utility.yul\":1892:1948   */\n      tag_221\n        /* \"#utility.yul\":1942:1947   */\n      dup4\n        /* \"#utility.yul\":1892:1948   */\n      tag_156\n      jump\t// in\n    tag_221:\n        /* \"#utility.yul\":1971:1978   */\n      dup1\n        /* \"#utility.yul\":2002:2003   */\n      0x00\n        /* \"#utility.yul\":1987:2271   */\n    tag_222:\n        /* \"#utility.yul\":2012:2018   */\n      dup4\n        /* \"#utility.yul\":2009:2010   */\n      dup2\n        /* \"#utility.yul\":2006:2019   */\n      lt\n        /* \"#utility.yul\":1987:2271   */\n      iszero\n      tag_224\n      jumpi\n        /* \"#utility.yul\":2088:2094   */\n      dup2\n        /* \"#utility.yul\":2082:2095   */\n      mload\n        /* \"#utility.yul\":2115:2178   */\n      tag_225\n        /* \"#utility.yul\":2174:2177   */\n      dup9\n        /* \"#utility.yul\":2159:2172   */\n      dup3\n        /* \"#utility.yul\":2115:2178   */\n      tag_160\n      jump\t// in\n    tag_225:\n        /* \"#utility.yul\":2108:2178   */\n      swap8\n      pop\n        /* \"#utility.yul\":2201:2261   */\n      tag_226\n        /* \"#utility.yul\":2254:2260   */\n      dup4\n        /* \"#utility.yul\":2201:2261   */\n      tag_161\n      jump\t// in\n    tag_226:\n        /* \"#utility.yul\":2191:2261   */\n      swap3\n      pop\n        /* \"#utility.yul\":2047:2271   */\n      pop\n        /* \"#utility.yul\":2034:2035   */\n      0x01\n        /* \"#utility.yul\":2031:2032   */\n      dup2\n        /* \"#utility.yul\":2027:2036   */\n      add\n        /* \"#utility.yul\":2022:2036   */\n      swap1\n      pop\n        /* \"#utility.yul\":1987:2271   */\n      jump(tag_222)\n    tag_224:\n        /* \"#utility.yul\":1991:2005   */\n      pop\n        /* \"#utility.yul\":2287:2290   */\n      dup6\n        /* \"#utility.yul\":2280:2290   */\n      swap4\n      pop\n        /* \"#utility.yul\":1688:2296   */\n      pop\n      pop\n      pop\n        /* \"#utility.yul\":1564:2296   */\n      swap3\n      swap2\n      pop\n      pop\n      jump\t// out\n        /* \"#utility.yul\":2302:2416   */\n    tag_163:\n        /* \"#utility.yul\":2369:2375   */\n      0x00\n        /* \"#utility.yul\":2403:2408   */\n      dup2\n        /* \"#utility.yul\":2397:2409   */\n      mload\n        /* \"#utility.yul\":2387:2409   */\n      swap1\n      pop\n        /* \"#utility.yul\":2302:2416   */\n      swap2\n      swap1\n      pop\n      jump\t// out\n        /* \"#utility.yul\":2422:2606   */\n    tag_164:\n        /* \"#utility.yul\":2521:2532   */\n      0x00\n        /* \"#utility.yul\":2555:2561   */\n      dup3\n        /* \"#utility.yul\":2550:2553   */\n      dup3\n        /* \"#utility.yul\":2543:2562   */\n      mstore\n        /* \"#utility.yul\":2595:2599   */\n      0x20\n        /* \"#utility.yul\":2590:2593   */\n      dup3\n        /* \"#utility.yul\":2586:2600   */\n      add\n        /* \"#utility.yul\":2571:2600   */\n      swap1\n      pop\n        /* \"#utility.yul\":2422:2606   */\n      swap3\n      swap2\n      pop\n      pop\n      jump\t// out\n        /* \"#utility.yul\":2612:2744   */\n    tag_165:\n        /* \"#utility.yul\":2679:2683   */\n      0x00\n        /* \"#utility.yul\":2702:2705   */\n      dup2\n        /* \"#utility.yul\":2694:2705   */\n      swap1\n      pop\n        /* \"#utility.yul\":2732:2736   */\n      0x20\n        /* \"#utility.yul\":2727:2730   */\n      dup3\n        /* \"#utility.yul\":2723:2737   */\n      add\n        /* \"#utility.yul\":2715:2737   */\n      swap1\n      pop\n        /* \"#utility.yul\":2612:2744   */\n      swap2\n      swap1\n      pop\n      jump\t// out\n        /* \"#utility.yul\":2750:2827   */\n    tag_166:\n        /* \"#utility.yul\":2787:2794   */\n      0x00\n        /* \"#utility.yul\":2816:2821   */\n      dup2\n        /* \"#utility.yul\":2805:2821   */\n      swap1\n      pop\n        /* \"#utility.yul\":2750:2827   */\n      swap2\n      swap1\n      pop\n      jump\t// out\n        /* \"#utility.yul\":2833:2941   */\n    tag_167:\n        /* \"#utility.yul\":2910:2934   */\n      tag_232\n        /* \"#utility.yul\":2928:2933   */\n      dup2\n        /* \"#utility.yul\":2910:2934   */\n      tag_166\n      jump\t// in\n    tag_232:\n        /* \"#utility.yul\":2905:2908   */\n      dup3\n        /* \"#utility.yul\":2898:2935   */\n      mstore\n        /* \"#utility.yul\":2833:2941   */\n      pop\n      pop\n      jump\t// out\n        /* \"#utility.yul\":2947:3126   */\n    tag_168:\n        /* \"#utility.yul\":3016:3026   */\n      0x00\n        /* \"#utility.yul\":3037:3083   */\n      tag_234\n        /* \"#utility.yul\":3079:3082   */\n      dup4\n        /* \"#utility.yul\":3071:3077   */\n      dup4\n        /* \"#utility.yul\":3037:3083   */\n      tag_167\n      jump\t// in\n    tag_234:\n        /* \"#utility.yul\":3115:3119   */\n      0x20\n        /* \"#utility.yul\":3110:3113   */\n      dup4\n        /* \"#utility.yul\":3106:3120   */\n      add\n        /* \"#utility.yul\":3092:3120   */\n      swap1\n      pop\n        /* \"#utility.yul\":2947:3126   */\n      swap3\n      swap2\n      pop\n      pop\n      jump\t// out\n        /* \"#utility.yul\":3132:3245   */\n    tag_169:\n        /* \"#utility.yul\":3202:3206   */\n      0x00\n        /* \"#utility.yul\":3234:3238   */\n      0x20\n        /* \"#utility.yul\":3229:3232   */\n      dup3\n        /* \"#utility.yul\":3225:3239   */\n      add\n        /* \"#utility.yul\":3217:3239   */\n      swap1\n      pop\n        /* \"#utility.yul\":3132:3245   */\n      swap2\n      swap1\n      pop\n      jump\t// out\n        /* \"#utility.yul\":3281:4013   */\n    tag_170:\n        /* \"#utility.yul\":3400:3403   */\n      0x00\n        /* \"#utility.yul\":3429:3483   */\n      tag_237\n        /* \"#utility.yul\":3477:3482   */\n      dup3\n        /* \"#utility.yul\":3429:3483   */\n      tag_163\n      jump\t// in\n    tag_237:\n        /* \"#utility.yul\":3499:3585   */\n      tag_238\n        /* \"#utility.yul\":3578:3584   */\n      dup2\n        /* \"#utility.yul\":3573:3576   */\n      dup6\n        /* \"#utility.yul\":3499:3585   */\n      tag_164\n      jump\t// in\n    tag_238:\n        /* \"#utility.yul\":3492:3585   */\n      swap4\n      pop\n        /* \"#utility.yul\":3609:3665   */\n      tag_239\n        /* \"#utility.yul\":3659:3664   */\n      dup4\n        /* \"#utility.yul\":3609:3665   */\n      tag_165\n      jump\t// in\n    tag_239:\n        /* \"#utility.yul\":3688:3695   */\n      dup1\n        /* \"#utility.yul\":3719:3720   */\n      0x00\n        /* \"#utility.yul\":3704:3988   */\n    tag_240:\n        /* \"#utility.yul\":3729:3735   */\n      dup4\n        /* \"#utility.yul\":3726:3727   */\n      dup2\n        /* \"#utility.yul\":3723:3736   */\n      lt\n        /* \"#utility.yul\":3704:3988   */\n      iszero\n      tag_242\n      jumpi\n        /* \"#utility.yul\":3805:3811   */\n      dup2\n        /* \"#utility.yul\":3799:3812   */\n      mload\n        /* \"#utility.yul\":3832:3895   */\n      tag_243\n        /* \"#utility.yul\":3891:3894   */\n      dup9\n        /* \"#utility.yul\":3876:3889   */\n      dup3\n        /* \"#utility.yul\":3832:3895   */\n      tag_168\n      jump\t// in\n    tag_243:\n        /* \"#utility.yul\":3825:3895   */\n      swap8\n      pop\n        /* \"#utility.yul\":3918:3978   */\n      tag_244\n        /* \"#utility.yul\":3971:3977   */\n      dup4\n        /* \"#utility.yul\":3918:3978   */\n      tag_169\n      jump\t// in\n    tag_244:\n        /* \"#utility.yul\":3908:3978   */\n      swap3\n      pop\n        /* \"#utility.yul\":3764:3988   */\n      pop\n        /* \"#utility.yul\":3751:3752   */\n      0x01\n        /* \"#utility.yul\":3748:3749   */\n      dup2\n        /* \"#utility.yul\":3744:3753   */\n      add\n        /* \"#utility.yul\":3739:3753   */\n      swap1\n      pop\n        /* \"#utility.yul\":3704:3988   */\n      jump(tag_240)\n    tag_242:\n        /* \"#utility.yul\":3708:3722   */\n      pop\n        /* \"#utility.yul\":4004:4007   */\n      dup6\n        /* \"#utility.yul\":3997:4007   */\n      swap4\n      pop\n        /* \"#utility.yul\":3405:4013   */\n      pop\n      pop\n      pop\n        /* \"#utility.yul\":3281:4013   */\n      swap3\n      swap2\n      pop\n      pop\n      jump\t// out\n        /* \"#utility.yul\":4019:4653   */\n    tag_24:\n        /* \"#utility.yul\":4240:4244   */\n      0x00\n        /* \"#utility.yul\":4278:4280   */\n      0x40\n        /* \"#utility.yul\":4267:4276   */\n      dup3\n        /* \"#utility.yul\":4263:4281   */\n      add\n        /* \"#utility.yul\":4255:4281   */\n      swap1\n      pop\n        /* \"#utility.yul\":4327:4336   */\n      dup2\n        /* \"#utility.yul\":4321:4325   */\n      dup2\n        /* \"#utility.yul\":4317:4337   */\n      sub\n        /* \"#utility.yul\":4313:4314   */\n      0x00\n        /* \"#utility.yul\":4302:4311   */\n      dup4\n        /* \"#utility.yul\":4298:4315   */\n      add\n        /* \"#utility.yul\":4291:4338   */\n      mstore\n        /* \"#utility.yul\":4355:4463   */\n      tag_246\n        /* \"#utility.yul\":4458:4462   */\n      dup2\n        /* \"#utility.yul\":4449:4455   */\n      dup6\n        /* \"#utility.yul\":4355:4463   */\n      tag_162\n      jump\t// in\n    tag_246:\n        /* \"#utility.yul\":4347:4463   */\n      swap1\n      pop\n        /* \"#utility.yul\":4510:4519   */\n      dup2\n        /* \"#utility.yul\":4504:4508   */\n      dup2\n        /* \"#utility.yul\":4500:4520   */\n      sub\n        /* \"#utility.yul\":4495:4497   */\n      0x20\n        /* \"#utility.yul\":4484:4493   */\n      dup4\n        /* \"#utility.yul\":4480:4498   */\n      add\n        /* \"#utility.yul\":4473:4521   */\n      mstore\n        /* \"#utility.yul\":4538:4646   */\n      tag_247\n        /* \"#utility.yul\":4641:4645   */\n      dup2\n        /* \"#utility.yul\":4632:4638   */\n      dup5\n        /* \"#utility.yul\":4538:4646   */\n      tag_170\n      jump\t// in\n    tag_247:\n        /* \"#utility.yul\":4530:4646   */\n      swap1\n      pop\n        /* \"#utility.yul\":4019:4653   */\n      swap4\n      swap3\n      pop\n      pop\n      pop\n      jump\t// out\n        /* \"#utility.yul\":4659:4777   */\n    tag_171:\n        /* \"#utility.yul\":4746:4770   */\n      tag_249\n        /* \"#utility.yul\":4764:4769   */\n      dup2\n        /* \"#utility.yul\":4746:4770   */\n      tag_166\n      jump\t// in\n    tag_249:\n        /* \"#utility.yul\":4741:4744   */\n      dup3\n        /* \"#utility.yul\":4734:4771   */\n      mstore\n        /* \"#utility.yul\":4659:4777   */\n      pop\n      pop\n      jump\t// out\n        /* \"#utility.yul\":4783:5005   */\n    tag_31:\n        /* \"#utility.yul\":4876:4880   */\n      0x00\n        /* \"#utility.yul\":4914:4916   */\n      0x20\n        /* \"#utility.yul\":4903:4912   */\n      dup3\n        /* \"#utility.yul\":4899:4917   */\n      add\n        /* \"#utility.yul\":4891:4917   */\n      swap1\n      pop\n        /* \"#utility.yul\":4927:4998   */\n      tag_251\n        /* \"#utility.yul\":4995:4996   */\n      0x00\n        /* \"#utility.yul\":4984:4993   */\n      dup4\n        /* \"#utility.yul\":4980:4997   */\n      add\n        /* \"#utility.yul\":4971:4977   */\n      dup5\n        /* \"#utility.yul\":4927:4998   */\n      tag_171\n      jump\t// in\n    tag_251:\n        /* \"#utility.yul\":4783:5005   */\n      swap3\n      swap2\n      pop\n      pop\n      jump\t// out\n        /* \"#utility.yul\":5011:5129   */\n    tag_172:\n        /* \"#utility.yul\":5098:5122   */\n      tag_253\n        /* \"#utility.yul\":5116:5121   */\n      dup2\n        /* \"#utility.yul\":5098:5122   */\n      tag_158\n      jump\t// in\n    tag_253:\n        /* \"#utility.yul\":5093:5096   */\n      dup3\n        /* \"#utility.yul\":5086:5123   */\n      mstore\n        /* \"#utility.yul\":5011:5129   */\n      pop\n      pop\n      jump\t// out\n        /* \"#utility.yul\":5135:5357   */\n    tag_36:\n        /* \"#utility.yul\":5228:5232   */\n      0x00\n        /* \"#utility.yul\":5266:5268   */\n      0x20\n        /* \"#utility.yul\":5255:5264   */\n      dup3\n        /* \"#utility.yul\":5251:5269   */\n      add\n        /* \"#utility.yul\":5243:5269   */\n      swap1\n      pop\n        /* \"#utility.yul\":5279:5350   */\n      tag_255\n        /* \"#utility.yul\":5347:5348   */\n      0x00\n        /* \"#utility.yul\":5336:5345   */\n      dup4\n        /* \"#utility.yul\":5332:5349   */\n      add\n        /* \"#utility.yul\":5323:5329   */\n      dup5\n        /* \"#utility.yul\":5279:5350   */\n      tag_172\n      jump\t// in\n    tag_255:\n        /* \"#utility.yul\":5135:5357   */\n      swap3\n      swap2\n      pop\n      pop\n      jump\t// out\n        /* \"#utility.yul\":5363:5695   */\n    tag_45:\n        /* \"#utility.yul\":5484:5488   */\n      0x00\n        /* \"#utility.yul\":5522:5524   */\n      0x40\n        /* \"#utility.yul\":5511:5520   */\n      dup3\n        /* \"#utility.yul\":5507:5525   */\n      add\n        /* \"#utility.yul\":5499:5525   */\n      swap1\n      pop\n        /* \"#utility.yul\":5535:5606   */\n      tag_257\n        /* \"#utility.yul\":5603:5604   */\n      0x00\n        /* \"#utility.yul\":5592:5601   */\n      dup4\n        /* \"#utility.yul\":5588:5605   */\n      add\n        /* \"#utility.yul\":5579:5585   */\n      dup6\n        /* \"#utility.yul\":5535:5606   */\n      tag_172\n      jump\t// in\n    tag_257:\n        /* \"#utility.yul\":5616:5688   */\n      tag_258\n        /* \"#utility.yul\":5684:5686   */\n      0x20\n        /* \"#utility.yul\":5673:5682   */\n      dup4\n        /* \"#utility.yul\":5669:5687   */\n      add\n        /* \"#utility.yul\":5660:5666   */\n      dup5\n        /* \"#utility.yul\":5616:5688   */\n      tag_171\n      jump\t// in\n    tag_258:\n        /* \"#utility.yul\":5363:5695   */\n      swap4\n      swap3\n      pop\n      pop\n      pop\n      jump\t// out\n        /* \"#utility.yul\":5782:5899   */\n    tag_174:\n        /* \"#utility.yul\":5891:5892   */\n      0x00\n        /* \"#utility.yul\":5888:5889   */\n      dup1\n        /* \"#utility.yul\":5881:5893   */\n      revert\n        /* \"#utility.yul\":6028:6150   */\n    tag_176:\n        /* \"#utility.yul\":6101:6125   */\n      tag_263\n        /* \"#utility.yul\":6119:6124   */\n      dup2\n        /* \"#utility.yul\":6101:6125   */\n      tag_166\n      jump\t// in\n    tag_263:\n        /* \"#utility.yul\":6094:6099   */\n      dup2\n        /* \"#utility.yul\":6091:6126   */\n      eq\n        /* \"#utility.yul\":6081:6144   */\n      tag_264\n      jumpi\n        /* \"#utility.yul\":6140:6141   */\n      0x00\n        /* \"#utility.yul\":6137:6138   */\n      dup1\n        /* \"#utility.yul\":6130:6142   */\n      revert\n        /* \"#utility.yul\":6081:6144   */\n    tag_264:\n        /* \"#utility.yul\":6028:6150   */\n      pop\n      jump\t// out\n        /* \"#utility.yul\":6156:6295   */\n    tag_177:\n        /* \"#utility.yul\":6202:6207   */\n      0x00\n        /* \"#utility.yul\":6240:6246   */\n      dup2\n        /* \"#utility.yul\":6227:6247   */\n      calldataload\n        /* \"#utility.yul\":6218:6247   */\n      swap1\n      pop\n        /* \"#utility.yul\":6256:6289   */\n      tag_266\n        /* \"#utility.yul\":6283:6288   */\n      dup2\n        /* \"#utility.yul\":6256:6289   */\n      tag_176\n      jump\t// in\n    tag_266:\n        /* \"#utility.yul\":6156:6295   */\n      swap3\n      swap2\n      pop\n      pop\n      jump\t// out\n        /* \"#utility.yul\":6301:6630   */\n    tag_52:\n        /* \"#utility.yul\":6360:6366   */\n      0x00\n        /* \"#utility.yul\":6409:6411   */\n      0x20\n        /* \"#utility.yul\":6397:6406   */\n      dup3\n        /* \"#utility.yul\":6388:6395   */\n      dup5\n        /* \"#utility.yul\":6384:6407   */\n      sub\n        /* \"#utility.yul\":6380:6412   */\n      slt\n        /* \"#utility.yul\":6377:6496   */\n      iszero\n      tag_268\n      jumpi\n        /* \"#utility.yul\":6415:6494   */\n      tag_269\n      tag_174\n      jump\t// in\n    tag_269:\n        /* \"#utility.yul\":6377:6496   */\n    tag_268:\n        /* \"#utility.yul\":6535:6536   */\n      0x00\n        /* \"#utility.yul\":6560:6613   */\n      tag_270\n        /* \"#utility.yul\":6605:6612   */\n      dup5\n        /* \"#utility.yul\":6596:6602   */\n      dup3\n        /* \"#utility.yul\":6585:6594   */\n      dup6\n        /* \"#utility.yul\":6581:6603   */\n      add\n        /* \"#utility.yul\":6560:6613   */\n      tag_177\n      jump\t// in\n    tag_270:\n        /* \"#utility.yul\":6550:6613   */\n      swap2\n      pop\n        /* \"#utility.yul\":6506:6623   */\n      pop\n        /* \"#utility.yul\":6301:6630   */\n      swap3\n      swap2\n      pop\n      pop\n      jump\t// out\n        /* \"#utility.yul\":6636:6758   */\n    tag_178:\n        /* \"#utility.yul\":6709:6733   */\n      tag_272\n        /* \"#utility.yul\":6727:6732   */\n      dup2\n        /* \"#utility.yul\":6709:6733   */\n      tag_158\n      jump\t// in\n    tag_272:\n        /* \"#utility.yul\":6702:6707   */\n      dup2\n        /* \"#utility.yul\":6699:6734   */\n      eq\n        /* \"#utility.yul\":6689:6752   */\n      tag_273\n      jumpi\n        /* \"#utility.yul\":6748:6749   */\n      0x00\n        /* \"#utility.yul\":6745:6746   */\n      dup1\n        /* \"#utility.yul\":6738:6750   */\n      revert\n        /* \"#utility.yul\":6689:6752   */\n    tag_273:\n        /* \"#utility.yul\":6636:6758   */\n      pop\n      jump\t// out\n        /* \"#utility.yul\":6764:6903   */\n    tag_179:\n        /* \"#utility.yul\":6810:6815   */\n      0x00\n        /* \"#utility.yul\":6848:6854   */\n      dup2\n        /* \"#utility.yul\":6835:6855   */\n      calldataload\n        /* \"#utility.yul\":6826:6855   */\n      swap1\n      pop\n        /* \"#utility.yul\":6864:6897   */\n      tag_275\n        /* \"#utility.yul\":6891:6896   */\n      dup2\n        /* \"#utility.yul\":6864:6897   */\n      tag_178\n      jump\t// in\n    tag_275:\n        /* \"#utility.yul\":6764:6903   */\n      swap3\n      swap2\n      pop\n      pop\n      jump\t// out\n        /* \"#utility.yul\":6909:7238   */\n    tag_62:\n        /* \"#utility.yul\":6968:6974   */\n      0x00\n        /* \"#utility.yul\":7017:7019   */\n      0x20\n        /* \"#utility.yul\":7005:7014   */\n      dup3\n        /* \"#utility.yul\":6996:7003   */\n      dup5\n        /* \"#utility.yul\":6992:7015   */\n      sub\n        /* \"#utility.yul\":6988:7020   */\n      slt\n        /* \"#utility.yul\":6985:7104   */\n      iszero\n      tag_277\n      jumpi\n        /* \"#utility.yul\":7023:7102   */\n      tag_278\n      tag_174\n      jump\t// in\n    tag_278:\n        /* \"#utility.yul\":6985:7104   */\n    tag_277:\n        /* \"#utility.yul\":7143:7144   */\n      0x00\n        /* \"#utility.yul\":7168:7221   */\n      tag_279\n        /* \"#utility.yul\":7213:7220   */\n      dup5\n        /* \"#utility.yul\":7204:7210   */\n      dup3\n        /* \"#utility.yul\":7193:7202   */\n      dup6\n        /* \"#utility.yul\":7189:7211   */\n      add\n        /* \"#utility.yul\":7168:7221   */\n      tag_179\n      jump\t// in\n    tag_279:\n        /* \"#utility.yul\":7158:7221   */\n      swap2\n      pop\n        /* \"#utility.yul\":7114:7231   */\n      pop\n        /* \"#utility.yul\":6909:7238   */\n      swap3\n      swap2\n      pop\n      pop\n      jump\t// out\n        /* \"#utility.yul\":7244:7424   */\n    tag_71:\n        /* \"#utility.yul\":7292:7369   */\n      0x4e487b7100000000000000000000000000000000000000000000000000000000\n        /* \"#utility.yul\":7289:7290   */\n      0x00\n        /* \"#utility.yul\":7282:7370   */\n      mstore\n        /* \"#utility.yul\":7389:7393   */\n      0x41\n        /* \"#utility.yul\":7386:7387   */\n      0x04\n        /* \"#utility.yul\":7379:7394   */\n      mstore\n        /* \"#utility.yul\":7413:7417   */\n      0x24\n        /* \"#utility.yul\":7410:7411   */\n      0x00\n        /* \"#utility.yul\":7403:7418   */\n      revert\n        /* \"#utility.yul\":7430:7610   */\n    tag_78:\n        /* \"#utility.yul\":7478:7555   */\n      0x4e487b7100000000000000000000000000000000000000000000000000000000\n        /* \"#utility.yul\":7475:7476   */\n      0x00\n        /* \"#utility.yul\":7468:7556   */\n      mstore\n        /* \"#utility.yul\":7575:7579   */\n      0x32\n        /* \"#utility.yul\":7572:7573   */\n      0x04\n        /* \"#utility.yul\":7565:7580   */\n      mstore\n        /* \"#utility.yul\":7599:7603   */\n      0x24\n        /* \"#utility.yul\":7596:7597   */\n      0x00\n        /* \"#utility.yul\":7589:7604   */\n      revert\n        /* \"#utility.yul\":7616:7785   */\n    tag_180:\n        /* \"#utility.yul\":7700:7711   */\n      0x00\n        /* \"#utility.yul\":7734:7740   */\n      dup3\n        /* \"#utility.yul\":7729:7732   */\n      dup3\n        /* \"#utility.yul\":7722:7741   */\n      mstore\n        /* \"#utility.yul\":7774:7778   */\n      0x20\n        /* \"#utility.yul\":7769:7772   */\n      dup3\n        /* \"#utility.yul\":7765:7779   */\n      add\n        /* \"#utility.yul\":7750:7779   */\n      swap1\n      pop\n        /* \"#utility.yul\":7616:7785   */\n      swap3\n      swap2\n      pop\n      pop\n      jump\t// out\n        /* \"#utility.yul\":7791:7959   */\n    tag_181:\n        /* \"#utility.yul\":7931:7951   */\n      0x42696420616c726561647920436c6f7365640000000000000000000000000000\n        /* \"#utility.yul\":7927:7928   */\n      0x00\n        /* \"#utility.yul\":7919:7925   */\n      dup3\n        /* \"#utility.yul\":7915:7929   */\n      add\n        /* \"#utility.yul\":7908:7952   */\n      mstore\n        /* \"#utility.yul\":7791:7959   */\n      pop\n      jump\t// out\n        /* \"#utility.yul\":7965:8331   */\n    tag_182:\n        /* \"#utility.yul\":8107:8110   */\n      0x00\n        /* \"#utility.yul\":8128:8195   */\n      tag_285\n        /* \"#utility.yul\":8192:8194   */\n      0x12\n        /* \"#utility.yul\":8187:8190   */\n      dup4\n        /* \"#utility.yul\":8128:8195   */\n      tag_180\n      jump\t// in\n    tag_285:\n        /* \"#utility.yul\":8121:8195   */\n      swap2\n      pop\n        /* \"#utility.yul\":8204:8297   */\n      tag_286\n        /* \"#utility.yul\":8293:8296   */\n      dup3\n        /* \"#utility.yul\":8204:8297   */\n      tag_181\n      jump\t// in\n    tag_286:\n        /* \"#utility.yul\":8322:8324   */\n      0x20\n        /* \"#utility.yul\":8317:8320   */\n      dup3\n        /* \"#utility.yul\":8313:8325   */\n      add\n        /* \"#utility.yul\":8306:8325   */\n      swap1\n      pop\n        /* \"#utility.yul\":7965:8331   */\n      swap2\n      swap1\n      pop\n      jump\t// out\n        /* \"#utility.yul\":8337:8756   */\n    tag_87:\n        /* \"#utility.yul\":8503:8507   */\n      0x00\n        /* \"#utility.yul\":8541:8543   */\n      0x20\n        /* \"#utility.yul\":8530:8539   */\n      dup3\n        /* \"#utility.yul\":8526:8544   */\n      add\n        /* \"#utility.yul\":8518:8544   */\n      swap1\n      pop\n        /* \"#utility.yul\":8590:8599   */\n      dup2\n        /* \"#utility.yul\":8584:8588   */\n      dup2\n        /* \"#utility.yul\":8580:8600   */\n      sub\n        /* \"#utility.yul\":8576:8577   */\n      0x00\n        /* \"#utility.yul\":8565:8574   */\n      dup4\n        /* \"#utility.yul\":8561:8578   */\n      add\n        /* \"#utility.yul\":8554:8601   */\n      mstore\n        /* \"#utility.yul\":8618:8749   */\n      tag_288\n        /* \"#utility.yul\":8744:8748   */\n      dup2\n        /* \"#utility.yul\":8618:8749   */\n      tag_182\n      jump\t// in\n    tag_288:\n        /* \"#utility.yul\":8610:8749   */\n      swap1\n      pop\n        /* \"#utility.yul\":8337:8756   */\n      swap2\n      swap1\n      pop\n      jump\t// out\n        /* \"#utility.yul\":8762:8923   */\n    tag_183:\n        /* \"#utility.yul\":8902:8915   */\n      0x42696420436c6f73656421000000000000000000000000000000000000000000\n        /* \"#utility.yul\":8898:8899   */\n      0x00\n        /* \"#utility.yul\":8890:8896   */\n      dup3\n        /* \"#utility.yul\":8886:8900   */\n      add\n        /* \"#utility.yul\":8879:8916   */\n      mstore\n        /* \"#utility.yul\":8762:8923   */\n      pop\n      jump\t// out\n        /* \"#utility.yul\":8929:9295   */\n    tag_184:\n        /* \"#utility.yul\":9071:9074   */\n      0x00\n        /* \"#utility.yul\":9092:9159   */\n      tag_291\n        /* \"#utility.yul\":9156:9158   */\n      0x0b\n        /* \"#utility.yul\":9151:9154   */\n      dup4\n        /* \"#utility.yul\":9092:9159   */\n      tag_180\n      jump\t// in\n    tag_291:\n        /* \"#utility.yul\":9085:9159   */\n      swap2\n      pop\n        /* \"#utility.yul\":9168:9261   */\n      tag_292\n        /* \"#utility.yul\":9257:9260   */\n      dup3\n        /* \"#utility.yul\":9168:9261   */\n      tag_183\n      jump\t// in\n    tag_292:\n        /* \"#utility.yul\":9286:9288   */\n      0x20\n        /* \"#utility.yul\":9281:9284   */\n      dup3\n        /* \"#utility.yul\":9277:9289   */\n      add\n        /* \"#utility.yul\":9270:9289   */\n      swap1\n      pop\n        /* \"#utility.yul\":8929:9295   */\n      swap2\n      swap1\n      pop\n      jump\t// out\n        /* \"#utility.yul\":9301:9720   */\n    tag_90:\n        /* \"#utility.yul\":9467:9471   */\n      0x00\n        /* \"#utility.yul\":9505:9507   */\n      0x20\n        /* \"#utility.yul\":9494:9503   */\n      dup3\n        /* \"#utility.yul\":9490:9508   */\n      add\n        /* \"#utility.yul\":9482:9508   */\n      swap1\n      pop\n        /* \"#utility.yul\":9554:9563   */\n      dup2\n        /* \"#utility.yul\":9548:9552   */\n      dup2\n        /* \"#utility.yul\":9544:9564   */\n      sub\n        /* \"#utility.yul\":9540:9541   */\n      0x00\n        /* \"#utility.yul\":9529:9538   */\n      dup4\n        /* \"#utility.yul\":9525:9542   */\n      add\n        /* \"#utility.yul\":9518:9565   */\n      mstore\n        /* \"#utility.yul\":9582:9713   */\n      tag_294\n        /* \"#utility.yul\":9708:9712   */\n      dup2\n        /* \"#utility.yul\":9582:9713   */\n      tag_184\n      jump\t// in\n    tag_294:\n        /* \"#utility.yul\":9574:9713   */\n      swap1\n      pop\n        /* \"#utility.yul\":9301:9720   */\n      swap2\n      swap1\n      pop\n      jump\t// out\n        /* \"#utility.yul\":9726:9908   */\n    tag_185:\n        /* \"#utility.yul\":9866:9900   */\n      0x4c61206f6665727461206465626520736572206d61796f722061206365726f2e\n        /* \"#utility.yul\":9862:9863   */\n      0x00\n        /* \"#utility.yul\":9854:9860   */\n      dup3\n        /* \"#utility.yul\":9850:9864   */\n      add\n        /* \"#utility.yul\":9843:9901   */\n      mstore\n        /* \"#utility.yul\":9726:9908   */\n      pop\n      jump\t// out\n        /* \"#utility.yul\":9914:10280   */\n    tag_186:\n        /* \"#utility.yul\":10056:10059   */\n      0x00\n        /* \"#utility.yul\":10077:10144   */\n      tag_297\n        /* \"#utility.yul\":10141:10143   */\n      0x20\n        /* \"#utility.yul\":10136:10139   */\n      dup4\n        /* \"#utility.yul\":10077:10144   */\n      tag_180\n      jump\t// in\n    tag_297:\n        /* \"#utility.yul\":10070:10144   */\n      swap2\n      pop\n        /* \"#utility.yul\":10153:10246   */\n      tag_298\n        /* \"#utility.yul\":10242:10245   */\n      dup3\n        /* \"#utility.yul\":10153:10246   */\n      tag_185\n      jump\t// in\n    tag_298:\n        /* \"#utility.yul\":10271:10273   */\n      0x20\n        /* \"#utility.yul\":10266:10269   */\n      dup3\n        /* \"#utility.yul\":10262:10274   */\n      add\n        /* \"#utility.yul\":10255:10274   */\n      swap1\n      pop\n        /* \"#utility.yul\":9914:10280   */\n      swap2\n      swap1\n      pop\n      jump\t// out\n        /* \"#utility.yul\":10286:10705   */\n    tag_94:\n        /* \"#utility.yul\":10452:10456   */\n      0x00\n        /* \"#utility.yul\":10490:10492   */\n      0x20\n        /* \"#utility.yul\":10479:10488   */\n      dup3\n        /* \"#utility.yul\":10475:10493   */\n      add\n        /* \"#utility.yul\":10467:10493   */\n      swap1\n      pop\n        /* \"#utility.yul\":10539:10548   */\n      dup2\n        /* \"#utility.yul\":10533:10537   */\n      dup2\n        /* \"#utility.yul\":10529:10549   */\n      sub\n        /* \"#utility.yul\":10525:10526   */\n      0x00\n        /* \"#utility.yul\":10514:10523   */\n      dup4\n        /* \"#utility.yul\":10510:10527   */\n      add\n        /* \"#utility.yul\":10503:10550   */\n      mstore\n        /* \"#utility.yul\":10567:10698   */\n      tag_300\n        /* \"#utility.yul\":10693:10697   */\n      dup2\n        /* \"#utility.yul\":10567:10698   */\n      tag_186\n      jump\t// in\n    tag_300:\n        /* \"#utility.yul\":10559:10698   */\n      swap1\n      pop\n        /* \"#utility.yul\":10286:10705   */\n      swap2\n      swap1\n      pop\n      jump\t// out\n        /* \"#utility.yul\":10711:10891   */\n    tag_187:\n        /* \"#utility.yul\":10759:10836   */\n      0x4e487b7100000000000000000000000000000000000000000000000000000000\n        /* \"#utility.yul\":10756:10757   */\n      0x00\n        /* \"#utility.yul\":10749:10837   */\n      mstore\n        /* \"#utility.yul\":10856:10860   */\n      0x11\n        /* \"#utility.yul\":10853:10854   */\n      0x04\n        /* \"#utility.yul\":10846:10861   */\n      mstore\n        /* \"#utility.yul\":10880:10884   */\n      0x24\n        /* \"#utility.yul\":10877:10878   */\n      0x00\n        /* \"#utility.yul\":10870:10885   */\n      revert\n        /* \"#utility.yul\":10897:11307   */\n    tag_96:\n        /* \"#utility.yul\":10937:10944   */\n      0x00\n        /* \"#utility.yul\":10960:10980   */\n      tag_303\n        /* \"#utility.yul\":10978:10979   */\n      dup3\n        /* \"#utility.yul\":10960:10980   */\n      tag_166\n      jump\t// in\n    tag_303:\n        /* \"#utility.yul\":10955:10980   */\n      swap2\n      pop\n        /* \"#utility.yul\":10994:11014   */\n      tag_304\n        /* \"#utility.yul\":11012:11013   */\n      dup4\n        /* \"#utility.yul\":10994:11014   */\n      tag_166\n      jump\t// in\n    tag_304:\n        /* \"#utility.yul\":10989:11014   */\n      swap3\n      pop\n        /* \"#utility.yul\":11049:11050   */\n      dup3\n        /* \"#utility.yul\":11046:11047   */\n      dup3\n        /* \"#utility.yul\":11042:11051   */\n      mul\n        /* \"#utility.yul\":11071:11101   */\n      tag_305\n        /* \"#utility.yul\":11089:11100   */\n      dup2\n        /* \"#utility.yul\":11071:11101   */\n      tag_166\n      jump\t// in\n    tag_305:\n        /* \"#utility.yul\":11060:11101   */\n      swap2\n      pop\n        /* \"#utility.yul\":11250:11251   */\n      dup3\n        /* \"#utility.yul\":11241:11248   */\n      dup3\n        /* \"#utility.yul\":11237:11252   */\n      div\n        /* \"#utility.yul\":11234:11235   */\n      dup5\n        /* \"#utility.yul\":11231:11253   */\n      eq\n        /* \"#utility.yul\":11211:11212   */\n      dup4\n        /* \"#utility.yul\":11204:11213   */\n      iszero\n        /* \"#utility.yul\":11184:11267   */\n      or\n        /* \"#utility.yul\":11161:11300   */\n      tag_306\n      jumpi\n        /* \"#utility.yul\":11280:11298   */\n      tag_307\n      tag_187\n      jump\t// in\n    tag_307:\n        /* \"#utility.yul\":11161:11300   */\n    tag_306:\n        /* \"#utility.yul\":10945:11307   */\n      pop\n        /* \"#utility.yul\":10897:11307   */\n      swap3\n      swap2\n      pop\n      pop\n      jump\t// out\n        /* \"#utility.yul\":11313:11493   */\n    tag_188:\n        /* \"#utility.yul\":11361:11438   */\n      0x4e487b7100000000000000000000000000000000000000000000000000000000\n        /* \"#utility.yul\":11358:11359   */\n      0x00\n        /* \"#utility.yul\":11351:11439   */\n      mstore\n        /* \"#utility.yul\":11458:11462   */\n      0x12\n        /* \"#utility.yul\":11455:11456   */\n      0x04\n        /* \"#utility.yul\":11448:11463   */\n      mstore\n        /* \"#utility.yul\":11482:11486   */\n      0x24\n        /* \"#utility.yul\":11479:11480   */\n      0x00\n        /* \"#utility.yul\":11472:11487   */\n      revert\n        /* \"#utility.yul\":11499:11684   */\n    tag_98:\n        /* \"#utility.yul\":11539:11540   */\n      0x00\n        /* \"#utility.yul\":11556:11576   */\n      tag_310\n        /* \"#utility.yul\":11574:11575   */\n      dup3\n        /* \"#utility.yul\":11556:11576   */\n      tag_166\n      jump\t// in\n    tag_310:\n        /* \"#utility.yul\":11551:11576   */\n      swap2\n      pop\n        /* \"#utility.yul\":11590:11610   */\n      tag_311\n        /* \"#utility.yul\":11608:11609   */\n      dup4\n        /* \"#utility.yul\":11590:11610   */\n      tag_166\n      jump\t// in\n    tag_311:\n        /* \"#utility.yul\":11585:11610   */\n      swap3\n      pop\n        /* \"#utility.yul\":11629:11630   */\n      dup3\n        /* \"#utility.yul\":11619:11654   */\n      tag_312\n      jumpi\n        /* \"#utility.yul\":11634:11652   */\n      tag_313\n      tag_188\n      jump\t// in\n    tag_313:\n        /* \"#utility.yul\":11619:11654   */\n    tag_312:\n        /* \"#utility.yul\":11676:11677   */\n      dup3\n        /* \"#utility.yul\":11673:11674   */\n      dup3\n        /* \"#utility.yul\":11669:11678   */\n      div\n        /* \"#utility.yul\":11664:11678   */\n      swap1\n      pop\n        /* \"#utility.yul\":11499:11684   */\n      swap3\n      swap2\n      pop\n      pop\n      jump\t// out\n        /* \"#utility.yul\":11690:11881   */\n    tag_100:\n        /* \"#utility.yul\":11730:11733   */\n      0x00\n        /* \"#utility.yul\":11749:11769   */\n      tag_315\n        /* \"#utility.yul\":11767:11768   */\n      dup3\n        /* \"#utility.yul\":11749:11769   */\n      tag_166\n      jump\t// in\n    tag_315:\n        /* \"#utility.yul\":11744:11769   */\n      swap2\n      pop\n        /* \"#utility.yul\":11783:11803   */\n      tag_316\n        /* \"#utility.yul\":11801:11802   */\n      dup4\n        /* \"#utility.yul\":11783:11803   */\n      tag_166\n      jump\t// in\n    tag_316:\n        /* \"#utility.yul\":11778:11803   */\n      swap3\n      pop\n        /* \"#utility.yul\":11826:11827   */\n      dup3\n        /* \"#utility.yul\":11823:11824   */\n      dup3\n        /* \"#utility.yul\":11819:11828   */\n      add\n        /* \"#utility.yul\":11812:11828   */\n      swap1\n      pop\n        /* \"#utility.yul\":11847:11850   */\n      dup1\n        /* \"#utility.yul\":11844:11845   */\n      dup3\n        /* \"#utility.yul\":11841:11851   */\n      gt\n        /* \"#utility.yul\":11838:11874   */\n      iszero\n      tag_317\n      jumpi\n        /* \"#utility.yul\":11854:11872   */\n      tag_318\n      tag_187\n      jump\t// in\n    tag_318:\n        /* \"#utility.yul\":11838:11874   */\n    tag_317:\n        /* \"#utility.yul\":11690:11881   */\n      swap3\n      swap2\n      pop\n      pop\n      jump\t// out\n        /* \"#utility.yul\":11887:12112   */\n    tag_189:\n        /* \"#utility.yul\":12027:12061   */\n      0x4f66666572206d7573742062652035252067726561746572207468616e206d61\n        /* \"#utility.yul\":12023:12024   */\n      0x00\n        /* \"#utility.yul\":12015:12021   */\n      dup3\n        /* \"#utility.yul\":12011:12025   */\n      add\n        /* \"#utility.yul\":12004:12062   */\n      mstore\n        /* \"#utility.yul\":12096:12104   */\n      0x7820426964210000000000000000000000000000000000000000000000000000\n        /* \"#utility.yul\":12091:12093   */\n      0x20\n        /* \"#utility.yul\":12083:12089   */\n      dup3\n        /* \"#utility.yul\":12079:12094   */\n      add\n        /* \"#utility.yul\":12072:12105   */\n      mstore\n        /* \"#utility.yul\":11887:12112   */\n      pop\n      jump\t// out\n        /* \"#utility.yul\":12118:12484   */\n    tag_190:\n        /* \"#utility.yul\":12260:12263   */\n      0x00\n        /* \"#utility.yul\":12281:12348   */\n      tag_321\n        /* \"#utility.yul\":12345:12347   */\n      0x26\n        /* \"#utility.yul\":12340:12343   */\n      dup4\n        /* \"#utility.yul\":12281:12348   */\n      tag_180\n      jump\t// in\n    tag_321:\n        /* \"#utility.yul\":12274:12348   */\n      swap2\n      pop\n        /* \"#utility.yul\":12357:12450   */\n      tag_322\n        /* \"#utility.yul\":12446:12449   */\n      dup3\n        /* \"#utility.yul\":12357:12450   */\n      tag_189\n      jump\t// in\n    tag_322:\n        /* \"#utility.yul\":12475:12477   */\n      0x40\n        /* \"#utility.yul\":12470:12473   */\n      dup3\n        /* \"#utility.yul\":12466:12478   */\n      add\n        /* \"#utility.yul\":12459:12478   */\n      swap1\n      pop\n        /* \"#utility.yul\":12118:12484   */\n      swap2\n      swap1\n      pop\n      jump\t// out\n        /* \"#utility.yul\":12490:12909   */\n    tag_103:\n        /* \"#utility.yul\":12656:12660   */\n      0x00\n        /* \"#utility.yul\":12694:12696   */\n      0x20\n        /* \"#utility.yul\":12683:12692   */\n      dup3\n        /* \"#utility.yul\":12679:12697   */\n      add\n        /* \"#utility.yul\":12671:12697   */\n      swap1\n      pop\n        /* \"#utility.yul\":12743:12752   */\n      dup2\n        /* \"#utility.yul\":12737:12741   */\n      dup2\n        /* \"#utility.yul\":12733:12753   */\n      sub\n        /* \"#utility.yul\":12729:12730   */\n      0x00\n        /* \"#utility.yul\":12718:12727   */\n      dup4\n        /* \"#utility.yul\":12714:12731   */\n      add\n        /* \"#utility.yul\":12707:12754   */\n      mstore\n        /* \"#utility.yul\":12771:12902   */\n      tag_324\n        /* \"#utility.yul\":12897:12901   */\n      dup2\n        /* \"#utility.yul\":12771:12902   */\n      tag_190\n      jump\t// in\n    tag_324:\n        /* \"#utility.yul\":12763:12902   */\n      swap1\n      pop\n        /* \"#utility.yul\":12490:12909   */\n      swap2\n      swap1\n      pop\n      jump\t// out\n        /* \"#utility.yul\":12915:13109   */\n    tag_111:\n        /* \"#utility.yul\":12955:12959   */\n      0x00\n        /* \"#utility.yul\":12975:12995   */\n      tag_326\n        /* \"#utility.yul\":12993:12994   */\n      dup3\n        /* \"#utility.yul\":12975:12995   */\n      tag_166\n      jump\t// in\n    tag_326:\n        /* \"#utility.yul\":12970:12995   */\n      swap2\n      pop\n        /* \"#utility.yul\":13009:13029   */\n      tag_327\n        /* \"#utility.yul\":13027:13028   */\n      dup4\n        /* \"#utility.yul\":13009:13029   */\n      tag_166\n      jump\t// in\n    tag_327:\n        /* \"#utility.yul\":13004:13029   */\n      swap3\n      pop\n        /* \"#utility.yul\":13053:13054   */\n      dup3\n        /* \"#utility.yul\":13050:13051   */\n      dup3\n        /* \"#utility.yul\":13046:13055   */\n      sub\n        /* \"#utility.yul\":13038:13055   */\n      swap1\n      pop\n        /* \"#utility.yul\":13077:13078   */\n      dup2\n        /* \"#utility.yul\":13071:13075   */\n      dup2\n        /* \"#utility.yul\":13068:13079   */\n      gt\n        /* \"#utility.yul\":13065:13102   */\n      iszero\n      tag_328\n      jumpi\n        /* \"#utility.yul\":13082:13100   */\n      tag_329\n      tag_187\n      jump\t// in\n    tag_329:\n        /* \"#utility.yul\":13065:13102   */\n    tag_328:\n        /* \"#utility.yul\":12915:13109   */\n      swap3\n      swap2\n      pop\n      pop\n      jump\t// out\n        /* \"#utility.yul\":13115:13282   */\n    tag_191:\n        /* \"#utility.yul\":13255:13274   */\n      0x426964206973207374696c6c206f70656e000000000000000000000000000000\n        /* \"#utility.yul\":13251:13252   */\n      0x00\n        /* \"#utility.yul\":13243:13249   */\n      dup3\n        /* \"#utility.yul\":13239:13253   */\n      add\n        /* \"#utility.yul\":13232:13275   */\n      mstore\n        /* \"#utility.yul\":13115:13282   */\n      pop\n      jump\t// out\n        /* \"#utility.yul\":13288:13654   */\n    tag_192:\n        /* \"#utility.yul\":13430:13433   */\n      0x00\n        /* \"#utility.yul\":13451:13518   */\n      tag_332\n        /* \"#utility.yul\":13515:13517   */\n      0x11\n        /* \"#utility.yul\":13510:13513   */\n      dup4\n        /* \"#utility.yul\":13451:13518   */\n      tag_180\n      jump\t// in\n    tag_332:\n        /* \"#utility.yul\":13444:13518   */\n      swap2\n      pop\n        /* \"#utility.yul\":13527:13620   */\n      tag_333\n        /* \"#utility.yul\":13616:13619   */\n      dup3\n        /* \"#utility.yul\":13527:13620   */\n      tag_191\n      jump\t// in\n    tag_333:\n        /* \"#utility.yul\":13645:13647   */\n      0x20\n        /* \"#utility.yul\":13640:13643   */\n      dup3\n        /* \"#utility.yul\":13636:13648   */\n      add\n        /* \"#utility.yul\":13629:13648   */\n      swap1\n      pop\n        /* \"#utility.yul\":13288:13654   */\n      swap2\n      swap1\n      pop\n      jump\t// out\n        /* \"#utility.yul\":13660:14079   */\n    tag_118:\n        /* \"#utility.yul\":13826:13830   */\n      0x00\n        /* \"#utility.yul\":13864:13866   */\n      0x20\n        /* \"#utility.yul\":13853:13862   */\n      dup3\n        /* \"#utility.yul\":13849:13867   */\n      add\n        /* \"#utility.yul\":13841:13867   */\n      swap1\n      pop\n        /* \"#utility.yul\":13913:13922   */\n      dup2\n        /* \"#utility.yul\":13907:13911   */\n      dup2\n        /* \"#utility.yul\":13903:13923   */\n      sub\n        /* \"#utility.yul\":13899:13900   */\n      0x00\n        /* \"#utility.yul\":13888:13897   */\n      dup4\n        /* \"#utility.yul\":13884:13901   */\n      add\n        /* \"#utility.yul\":13877:13924   */\n      mstore\n        /* \"#utility.yul\":13941:14072   */\n      tag_335\n        /* \"#utility.yul\":14067:14071   */\n      dup2\n        /* \"#utility.yul\":13941:14072   */\n      tag_192\n      jump\t// in\n    tag_335:\n        /* \"#utility.yul\":13933:14072   */\n      swap1\n      pop\n        /* \"#utility.yul\":13660:14079   */\n      swap2\n      swap1\n      pop\n      jump\t// out\n        /* \"#utility.yul\":14085:14310   */\n    tag_193:\n        /* \"#utility.yul\":14225:14259   */\n      0x546865726520696e206e6f20656e6f7567682062616c616e636520746f207769\n        /* \"#utility.yul\":14221:14222   */\n      0x00\n        /* \"#utility.yul\":14213:14219   */\n      dup3\n        /* \"#utility.yul\":14209:14223   */\n      add\n        /* \"#utility.yul\":14202:14260   */\n      mstore\n        /* \"#utility.yul\":14294:14302   */\n      0x7468647261770000000000000000000000000000000000000000000000000000\n        /* \"#utility.yul\":14289:14291   */\n      0x20\n        /* \"#utility.yul\":14281:14287   */\n      dup3\n        /* \"#utility.yul\":14277:14292   */\n      add\n        /* \"#utility.yul\":14270:14303   */\n      mstore\n        /* \"#utility.yul\":14085:14310   */\n      pop\n      jump\t// out\n        /* \"#utility.yul\":14316:14682   */\n    tag_194:\n        /* \"#utility.yul\":14458:14461   */\n      0x00\n        /* \"#utility.yul\":14479:14546   */\n      tag_338\n        /* \"#utility.yul\":14543:14545   */\n      0x26\n        /* \"#utility.yul\":14538:14541   */\n      dup4\n        /* \"#utility.yul\":14479:14546   */\n      tag_180\n      jump\t// in\n    tag_338:\n        /* \"#utility.yul\":14472:14546   */\n      swap2\n      pop\n        /* \"#utility.yul\":14555:14648   */\n      tag_339\n        /* \"#utility.yul\":14644:14647   */\n      dup3\n        /* \"#utility.yul\":14555:14648   */\n      tag_193\n      jump\t// in\n    tag_339:\n        /* \"#utility.yul\":14673:14675   */\n      0x40\n        /* \"#utility.yul\":14668:14671   */\n      dup3\n        /* \"#utility.yul\":14664:14676   */\n      add\n        /* \"#utility.yul\":14657:14676   */\n      swap1\n      pop\n        /* \"#utility.yul\":14316:14682   */\n      swap2\n      swap1\n      pop\n      jump\t// out\n        /* \"#utility.yul\":14688:15107   */\n    tag_122:\n        /* \"#utility.yul\":14854:14858   */\n      0x00\n        /* \"#utility.yul\":14892:14894   */\n      0x20\n        /* \"#utility.yul\":14881:14890   */\n      dup3\n        /* \"#utility.yul\":14877:14895   */\n      add\n        /* \"#utility.yul\":14869:14895   */\n      swap1\n      pop\n        /* \"#utility.yul\":14941:14950   */\n      dup2\n        /* \"#utility.yul\":14935:14939   */\n      dup2\n        /* \"#utility.yul\":14931:14951   */\n      sub\n        /* \"#utility.yul\":14927:14928   */\n      0x00\n        /* \"#utility.yul\":14916:14925   */\n      dup4\n        /* \"#utility.yul\":14912:14929   */\n      add\n        /* \"#utility.yul\":14905:14952   */\n      mstore\n        /* \"#utility.yul\":14969:15100   */\n      tag_341\n        /* \"#utility.yul\":15095:15099   */\n      dup2\n        /* \"#utility.yul\":14969:15100   */\n      tag_194\n      jump\t// in\n    tag_341:\n        /* \"#utility.yul\":14961:15100   */\n      swap1\n      pop\n        /* \"#utility.yul\":14688:15107   */\n      swap2\n      swap1\n      pop\n      jump\t// out\n        /* \"#utility.yul\":15113:15282   */\n    tag_195:\n        /* \"#utility.yul\":15253:15274   */\n      0x4f776e6572204f6e6c792046756e6374696f6e00000000000000000000000000\n        /* \"#utility.yul\":15249:15250   */\n      0x00\n        /* \"#utility.yul\":15241:15247   */\n      dup3\n        /* \"#utility.yul\":15237:15251   */\n      add\n        /* \"#utility.yul\":15230:15275   */\n      mstore\n        /* \"#utility.yul\":15113:15282   */\n      pop\n      jump\t// out\n        /* \"#utility.yul\":15288:15654   */\n    tag_196:\n        /* \"#utility.yul\":15430:15433   */\n      0x00\n        /* \"#utility.yul\":15451:15518   */\n      tag_344\n        /* \"#utility.yul\":15515:15517   */\n      0x13\n        /* \"#utility.yul\":15510:15513   */\n      dup4\n        /* \"#utility.yul\":15451:15518   */\n      tag_180\n      jump\t// in\n    tag_344:\n        /* \"#utility.yul\":15444:15518   */\n      swap2\n      pop\n        /* \"#utility.yul\":15527:15620   */\n      tag_345\n        /* \"#utility.yul\":15616:15619   */\n      dup3\n        /* \"#utility.yul\":15527:15620   */\n      tag_195\n      jump\t// in\n    tag_345:\n        /* \"#utility.yul\":15645:15647   */\n      0x20\n        /* \"#utility.yul\":15640:15643   */\n      dup3\n        /* \"#utility.yul\":15636:15648   */\n      add\n        /* \"#utility.yul\":15629:15648   */\n      swap1\n      pop\n        /* \"#utility.yul\":15288:15654   */\n      swap2\n      swap1\n      pop\n      jump\t// out\n        /* \"#utility.yul\":15660:16079   */\n    tag_131:\n        /* \"#utility.yul\":15826:15830   */\n      0x00\n        /* \"#utility.yul\":15864:15866   */\n      0x20\n        /* \"#utility.yul\":15853:15862   */\n      dup3\n        /* \"#utility.yul\":15849:15867   */\n      add\n        /* \"#utility.yul\":15841:15867   */\n      swap1\n      pop\n        /* \"#utility.yul\":15913:15922   */\n      dup2\n        /* \"#utility.yul\":15907:15911   */\n      dup2\n        /* \"#utility.yul\":15903:15923   */\n      sub\n        /* \"#utility.yul\":15899:15900   */\n      0x00\n        /* \"#utility.yul\":15888:15897   */\n      dup4\n        /* \"#utility.yul\":15884:15901   */\n      add\n        /* \"#utility.yul\":15877:15924   */\n      mstore\n        /* \"#utility.yul\":15941:16072   */\n      tag_347\n        /* \"#utility.yul\":16067:16071   */\n      dup2\n        /* \"#utility.yul\":15941:16072   */\n      tag_196\n      jump\t// in\n    tag_347:\n        /* \"#utility.yul\":15933:16072   */\n      swap1\n      pop\n        /* \"#utility.yul\":15660:16079   */\n      swap2\n      swap1\n      pop\n      jump\t// out\n        /* \"#utility.yul\":16085:16253   */\n    tag_197:\n        /* \"#utility.yul\":16225:16245   */\n      0x426964206e6f7420656e64656420796574210000000000000000000000000000\n        /* \"#utility.yul\":16221:16222   */\n      0x00\n        /* \"#utility.yul\":16213:16219   */\n      dup3\n        /* \"#utility.yul\":16209:16223   */\n      add\n        /* \"#utility.yul\":16202:16246   */\n      mstore\n        /* \"#utility.yul\":16085:16253   */\n      pop\n      jump\t// out\n        /* \"#utility.yul\":16259:16625   */\n    tag_198:\n        /* \"#utility.yul\":16401:16404   */\n      0x00\n        /* \"#utility.yul\":16422:16489   */\n      tag_350\n        /* \"#utility.yul\":16486:16488   */\n      0x12\n        /* \"#utility.yul\":16481:16484   */\n      dup4\n        /* \"#utility.yul\":16422:16489   */\n      tag_180\n      jump\t// in\n    tag_350:\n        /* \"#utility.yul\":16415:16489   */\n      swap2\n      pop\n        /* \"#utility.yul\":16498:16591   */\n      tag_351\n        /* \"#utility.yul\":16587:16590   */\n      dup3\n        /* \"#utility.yul\":16498:16591   */\n      tag_197\n      jump\t// in\n    tag_351:\n        /* \"#utility.yul\":16616:16618   */\n      0x20\n        /* \"#utility.yul\":16611:16614   */\n      dup3\n        /* \"#utility.yul\":16607:16619   */\n      add\n        /* \"#utility.yul\":16600:16619   */\n      swap1\n      pop\n        /* \"#utility.yul\":16259:16625   */\n      swap2\n      swap1\n      pop\n      jump\t// out\n        /* \"#utility.yul\":16631:17050   */\n    tag_135:\n        /* \"#utility.yul\":16797:16801   */\n      0x00\n        /* \"#utility.yul\":16835:16837   */\n      0x20\n        /* \"#utility.yul\":16824:16833   */\n      dup3\n        /* \"#utility.yul\":16820:16838   */\n      add\n        /* \"#utility.yul\":16812:16838   */\n      swap1\n      pop\n        /* \"#utility.yul\":16884:16893   */\n      dup2\n        /* \"#utility.yul\":16878:16882   */\n      dup2\n        /* \"#utility.yul\":16874:16894   */\n      sub\n        /* \"#utility.yul\":16870:16871   */\n      0x00\n        /* \"#utility.yul\":16859:16868   */\n      dup4\n        /* \"#utility.yul\":16855:16872   */\n      add\n        /* \"#utility.yul\":16848:16895   */\n      mstore\n        /* \"#utility.yul\":16912:17043   */\n      tag_353\n        /* \"#utility.yul\":17038:17042   */\n      dup2\n        /* \"#utility.yul\":16912:17043   */\n      tag_198\n      jump\t// in\n    tag_353:\n        /* \"#utility.yul\":16904:17043   */\n      swap1\n      pop\n        /* \"#utility.yul\":16631:17050   */\n      swap2\n      swap1\n      pop\n      jump\t// out\n        /* \"#utility.yul\":17056:17276   */\n    tag_199:\n        /* \"#utility.yul\":17196:17230   */\n      0x4c612073756261737461207961206861207369646f2066696e616c697a616461\n        /* \"#utility.yul\":17192:17193   */\n      0x00\n        /* \"#utility.yul\":17184:17190   */\n      dup3\n        /* \"#utility.yul\":17180:17194   */\n      add\n        /* \"#utility.yul\":17173:17231   */\n      mstore\n        /* \"#utility.yul\":17265:17268   */\n      0x2e00000000000000000000000000000000000000000000000000000000000000\n        /* \"#utility.yul\":17260:17262   */\n      0x20\n        /* \"#utility.yul\":17252:17258   */\n      dup3\n        /* \"#utility.yul\":17248:17263   */\n      add\n        /* \"#utility.yul\":17241:17269   */\n      mstore\n        /* \"#utility.yul\":17056:17276   */\n      pop\n      jump\t// out\n        /* \"#utility.yul\":17282:17648   */\n    tag_200:\n        /* \"#utility.yul\":17424:17427   */\n      0x00\n        /* \"#utility.yul\":17445:17512   */\n      tag_356\n        /* \"#utility.yul\":17509:17511   */\n      0x21\n        /* \"#utility.yul\":17504:17507   */\n      dup4\n        /* \"#utility.yul\":17445:17512   */\n      tag_180\n      jump\t// in\n    tag_356:\n        /* \"#utility.yul\":17438:17512   */\n      swap2\n      pop\n        /* \"#utility.yul\":17521:17614   */\n      tag_357\n        /* \"#utility.yul\":17610:17613   */\n      dup3\n        /* \"#utility.yul\":17521:17614   */\n      tag_199\n      jump\t// in\n    tag_357:\n        /* \"#utility.yul\":17639:17641   */\n      0x40\n        /* \"#utility.yul\":17634:17637   */\n      dup3\n        /* \"#utility.yul\":17630:17642   */\n      add\n        /* \"#utility.yul\":17623:17642   */\n      swap1\n      pop\n        /* \"#utility.yul\":17282:17648   */\n      swap2\n      swap1\n      pop\n      jump\t// out\n        /* \"#utility.yul\":17654:18073   */\n    tag_138:\n        /* \"#utility.yul\":17820:17824   */\n      0x00\n        /* \"#utility.yul\":17858:17860   */\n      0x20\n        /* \"#utility.yul\":17847:17856   */\n      dup3\n        /* \"#utility.yul\":17843:17861   */\n      add\n        /* \"#utility.yul\":17835:17861   */\n      swap1\n      pop\n        /* \"#utility.yul\":17907:17916   */\n      dup2\n        /* \"#utility.yul\":17901:17905   */\n      dup2\n        /* \"#utility.yul\":17897:17917   */\n      sub\n        /* \"#utility.yul\":17893:17894   */\n      0x00\n        /* \"#utility.yul\":17882:17891   */\n      dup4\n        /* \"#utility.yul\":17878:17895   */\n      add\n        /* \"#utility.yul\":17871:17918   */\n      mstore\n        /* \"#utility.yul\":17935:18066   */\n      tag_359\n        /* \"#utility.yul\":18061:18065   */\n      dup2\n        /* \"#utility.yul\":17935:18066   */\n      tag_200\n      jump\t// in\n    tag_359:\n        /* \"#utility.yul\":17927:18066   */\n      swap1\n      pop\n        /* \"#utility.yul\":17654:18073   */\n      swap2\n      swap1\n      pop\n      jump\t// out\n\n    auxdata: 0xa264697066735822122055b71d3933fcb8ad3f79b2ec622c0223b1fbcadd37e21b2d573238898628b84164736f6c634300081a0033\n}\n",
				"bytecode": {
					"linkReferences": {},
					"object": "608060405234801561000f575f80fd5b50604051611856380380611856833981810160405281019061003191906100bf565b335f806101000a81548173ffffffffffffffffffffffffffffffffffffffff021916908373ffffffffffffffffffffffffffffffffffffffff160217905550804261007c9190610117565b6001819055505061014a565b5f80fd5b5f819050919050565b61009e8161008c565b81146100a8575f80fd5b50565b5f815190506100b981610095565b92915050565b5f602082840312156100d4576100d3610088565b5b5f6100e1848285016100ab565b91505092915050565b7f4e487b71000000000000000000000000000000000000000000000000000000005f52601160045260245ffd5b5f6101218261008c565b915061012c8361008c565b9250828201905080821115610144576101436100ea565b5b92915050565b6116ff806101575f395ff3fe6080604052600436106100a6575f3560e01c8063b7e0326411610063578063b7e0326414610187578063c264a063146101b2578063cff29dfd146101c8578063d57bde7914610204578063fc7e286d1461022e578063fe67a54b1461026a576100a6565b806312fa6feb146100aa57806314d2687c146100d45780631998aeef146100ff5780634b449cba146101095780638da5cb5b1461013357806391f901571461015d575b5f80fd5b3480156100b5575f80fd5b506100be610280565b6040516100cb9190610dfa565b60405180910390f35b3480156100df575f80fd5b506100e8610293565b6040516100f6929190610fba565b60405180910390f35b61010761042d565b005b348015610114575f80fd5b5061011d6107ef565b60405161012a9190610ffe565b60405180910390f35b34801561013e575f80fd5b506101476107f5565b6040516101549190611026565b60405180910390f35b348015610168575f80fd5b50610171610818565b60405161017e9190611026565b60405180910390f35b348015610192575f80fd5b5061019b61083d565b6040516101a992919061103f565b60405180910390f35b3480156101bd575f80fd5b506101c66108bb565b005b3480156101d3575f80fd5b506101ee60048036038101906101e99190611094565b610a15565b6040516101fb9190611026565b60405180910390f35b34801561020f575f80fd5b50610218610a50565b6040516102259190610ffe565b60405180910390f35b348015610239575f80fd5b50610254600480360381019061024f91906110e9565b610a56565b6040516102619190610ffe565b60405180910390f35b348015610275575f80fd5b5061027e610a6b565b005b600360149054906101000a900460ff1681565b6060805f60058054905067ffffffffffffffff8111156102b6576102b5611114565b5b6040519080825280602002602001820160405280156102e45781602001602082028036833780820191505090505b5090505f5b60058054905081101561039b5760045f6005838154811061030d5761030c611141565b5b905f5260205f20015f9054906101000a900473ffffffffffffffffffffffffffffffffffffffff1673ffffffffffffffffffffffffffffffffffffffff1673ffffffffffffffffffffffffffffffffffffffff1681526020019081526020015f205482828151811061038257610381611141565b5b60200260200101818152505080806001019150506102e9565b506005818180548060200260200160405190810160405280929190818152602001828054801561041d57602002820191905f5260205f20905b815f9054906101000a900473ffffffffffffffffffffffffffffffffffffffff1673ffffffffffffffffffffffffffffffffffffffff16815260200190600101908083116103d4575b5050505050915092509250509091565b6001544210610471576040517f08c379a0000000000000000000000000000000000000000000000000000000008152600401610468906111c8565b60405180910390fd5b600360149054906101000a900460ff16156104c1576040517f08c379a00000000000000000000000000000000000000000000000000000000081526004016104b890611230565b60405180910390fd5b5f3411610503576040517f08c379a00000000000000000000000000000000000000000000000000000000081526004016104fa90611298565b60405180910390fd5b5f6064600560025461051591906112e3565b61051f9190611351565b60025461052c9190611381565b905080341015610571576040517f08c379a000000000000000000000000000000000000000000000000000000000815260040161056890611424565b60405180910390fd5b5f60045f3373ffffffffffffffffffffffffffffffffffffffff1673ffffffffffffffffffffffffffffffffffffffff1681526020019081526020015f20540361061657600533908060018154018082558091505060019003905f5260205f20015f9091909190916101000a81548173ffffffffffffffffffffffffffffffffffffffff021916908373ffffffffffffffffffffffffffffffffffffffff1602179055505b3460045f3373ffffffffffffffffffffffffffffffffffffffff1673ffffffffffffffffffffffffffffffffffffffff1681526020019081526020015f205f8282546106629190611381565b925050819055505f73ffffffffffffffffffffffffffffffffffffffff1660035f9054906101000a900473ffffffffffffffffffffffffffffffffffffffff1673ffffffffffffffffffffffffffffffffffffffff16146107255760035f9054906101000a900473ffffffffffffffffffffffffffffffffffffffff1673ffffffffffffffffffffffffffffffffffffffff166108fc60025490811502906040515f60405180830381858888f19350505050158015610723573d5f803e3d5ffd5b505b346002819055503360035f6101000a81548173ffffffffffffffffffffffffffffffffffffffff021916908373ffffffffffffffffffffffffffffffffffffffff1602179055506102584260015461077d9190611442565b101561079e5761025860015f8282546107969190611381565b925050819055505b3373ffffffffffffffffffffffffffffffffffffffff167fdd0b6c6a77960e2066c96171b4d7ac9e8b4c184011f38544afa36a5bb63ec59f346040516107e49190610ffe565b60405180910390a250565b60015481565b5f8054906101000a900473ffffffffffffffffffffffffffffffffffffffff1681565b60035f9054906101000a900473ffffffffffffffffffffffffffffffffffffffff1681565b5f80600360149054906101000a900460ff1661088e576040517f08c379a0000000000000000000000000000000000000000000000000000000008152600401610885906114bf565b60405180910390fd5b60035f9054906101000a900473ffffffffffffffffffffffffffffffffffffffff16600254915091509091565b60025460045f3373ffffffffffffffffffffffffffffffffffffffff1673ffffffffffffffffffffffffffffffffffffffff1681526020019081526020015f20541161093c576040517f08c379a00000000000000000000000000000000000000000000000000000000081526004016109339061154d565b60405180910390fd5b5f60025460045f3373ffffffffffffffffffffffffffffffffffffffff1673ffffffffffffffffffffffffffffffffffffffff1681526020019081526020015f20546109889190611442565b905060025460045f3373ffffffffffffffffffffffffffffffffffffffff1673ffffffffffffffffffffffffffffffffffffffff1681526020019081526020015f20819055503373ffffffffffffffffffffffffffffffffffffffff166108fc8290811502906040515f60405180830381858888f19350505050158015610a11573d5f803e3d5ffd5b5050565b60058181548110610a24575f80fd5b905f5260205f20015f915054906101000a900473ffffffffffffffffffffffffffffffffffffffff1681565b60025481565b6004602052805f5260405f205f915090505481565b5f8054906101000a900473ffffffffffffffffffffffffffffffffffffffff1673ffffffffffffffffffffffffffffffffffffffff163373ffffffffffffffffffffffffffffffffffffffff1614610af8576040517f08c379a0000000000000000000000000000000000000000000000000000000008152600401610aef906115b5565b60405180910390fd5b600154421015610b3d576040517f08c379a0000000000000000000000000000000000000000000000000000000008152600401610b349061161d565b60405180910390fd5b600360149054906101000a900460ff1615610b8d576040517f08c379a0000000000000000000000000000000000000000000000000000000008152600401610b84906116ab565b60405180910390fd5b6001600360146101000a81548160ff0219169083151502179055505f5b600580549050811015610d81575f60058281548110610bcc57610bcb611141565b5b905f5260205f20015f9054906101000a900473ffffffffffffffffffffffffffffffffffffffff16905060035f9054906101000a900473ffffffffffffffffffffffffffffffffffffffff1673ffffffffffffffffffffffffffffffffffffffff168173ffffffffffffffffffffffffffffffffffffffff1614610d73575f6064600260045f8573ffffffffffffffffffffffffffffffffffffffff1673ffffffffffffffffffffffffffffffffffffffff1681526020019081526020015f2054610c9791906112e3565b610ca19190611351565b60045f8473ffffffffffffffffffffffffffffffffffffffff1673ffffffffffffffffffffffffffffffffffffffff1681526020019081526020015f2054610ce99190611442565b90505f60045f8473ffffffffffffffffffffffffffffffffffffffff1673ffffffffffffffffffffffffffffffffffffffff1681526020019081526020015f20819055508173ffffffffffffffffffffffffffffffffffffffff166108fc8290811502906040515f60405180830381858888f19350505050158015610d70573d5f803e3d5ffd5b50505b508080600101915050610baa565b507fdaec4582d5d9595688c8c98545fdd1c696d41c6aeaeb636737e84ed2f5c00eda60035f9054906101000a900473ffffffffffffffffffffffffffffffffffffffff16600254604051610dd692919061103f565b60405180910390a1565b5f8115159050919050565b610df481610de0565b82525050565b5f602082019050610e0d5f830184610deb565b92915050565b5f81519050919050565b5f82825260208201905092915050565b5f819050602082019050919050565b5f73ffffffffffffffffffffffffffffffffffffffff82169050919050565b5f610e6582610e3c565b9050919050565b610e7581610e5b565b82525050565b5f610e868383610e6c565b60208301905092915050565b5f602082019050919050565b5f610ea882610e13565b610eb28185610e1d565b9350610ebd83610e2d565b805f5b83811015610eed578151610ed48882610e7b565b9750610edf83610e92565b925050600181019050610ec0565b5085935050505092915050565b5f81519050919050565b5f82825260208201905092915050565b5f819050602082019050919050565b5f819050919050565b610f3581610f23565b82525050565b5f610f468383610f2c565b60208301905092915050565b5f602082019050919050565b5f610f6882610efa565b610f728185610f04565b9350610f7d83610f14565b805f5b83811015610fad578151610f948882610f3b565b9750610f9f83610f52565b925050600181019050610f80565b5085935050505092915050565b5f6040820190508181035f830152610fd28185610e9e565b90508181036020830152610fe68184610f5e565b90509392505050565b610ff881610f23565b82525050565b5f6020820190506110115f830184610fef565b92915050565b61102081610e5b565b82525050565b5f6020820190506110395f830184611017565b92915050565b5f6040820190506110525f830185611017565b61105f6020830184610fef565b9392505050565b5f80fd5b61107381610f23565b811461107d575f80fd5b50565b5f8135905061108e8161106a565b92915050565b5f602082840312156110a9576110a8611066565b5b5f6110b684828501611080565b91505092915050565b6110c881610e5b565b81146110d2575f80fd5b50565b5f813590506110e3816110bf565b92915050565b5f602082840312156110fe576110fd611066565b5b5f61110b848285016110d5565b91505092915050565b7f4e487b71000000000000000000000000000000000000000000000000000000005f52604160045260245ffd5b7f4e487b71000000000000000000000000000000000000000000000000000000005f52603260045260245ffd5b5f82825260208201905092915050565b7f42696420616c726561647920436c6f73656400000000000000000000000000005f82015250565b5f6111b260128361116e565b91506111bd8261117e565b602082019050919050565b5f6020820190508181035f8301526111df816111a6565b9050919050565b7f42696420436c6f736564210000000000000000000000000000000000000000005f82015250565b5f61121a600b8361116e565b9150611225826111e6565b602082019050919050565b5f6020820190508181035f8301526112478161120e565b9050919050565b7f4c61206f6665727461206465626520736572206d61796f722061206365726f2e5f82015250565b5f61128260208361116e565b915061128d8261124e565b602082019050919050565b5f6020820190508181035f8301526112af81611276565b9050919050565b7f4e487b71000000000000000000000000000000000000000000000000000000005f52601160045260245ffd5b5f6112ed82610f23565b91506112f883610f23565b925082820261130681610f23565b9150828204841483151761131d5761131c6112b6565b5b5092915050565b7f4e487b71000000000000000000000000000000000000000000000000000000005f52601260045260245ffd5b5f61135b82610f23565b915061136683610f23565b92508261137657611375611324565b5b828204905092915050565b5f61138b82610f23565b915061139683610f23565b92508282019050808211156113ae576113ad6112b6565b5b92915050565b7f4f66666572206d7573742062652035252067726561746572207468616e206d615f8201527f7820426964210000000000000000000000000000000000000000000000000000602082015250565b5f61140e60268361116e565b9150611419826113b4565b604082019050919050565b5f6020820190508181035f83015261143b81611402565b9050919050565b5f61144c82610f23565b915061145783610f23565b925082820390508181111561146f5761146e6112b6565b5b92915050565b7f426964206973207374696c6c206f70656e0000000000000000000000000000005f82015250565b5f6114a960118361116e565b91506114b482611475565b602082019050919050565b5f6020820190508181035f8301526114d68161149d565b9050919050565b7f546865726520696e206e6f20656e6f7567682062616c616e636520746f2077695f8201527f7468647261770000000000000000000000000000000000000000000000000000602082015250565b5f61153760268361116e565b9150611542826114dd565b604082019050919050565b5f6020820190508181035f8301526115648161152b565b9050919050565b7f4f776e6572204f6e6c792046756e6374696f6e000000000000000000000000005f82015250565b5f61159f60138361116e565b91506115aa8261156b565b602082019050919050565b5f6020820190508181035f8301526115cc81611593565b9050919050565b7f426964206e6f7420656e646564207965742100000000000000000000000000005f82015250565b5f61160760128361116e565b9150611612826115d3565b602082019050919050565b5f6020820190508181035f830152611634816115fb565b9050919050565b7f4c612073756261737461207961206861207369646f2066696e616c697a6164615f8201527f2e00000000000000000000000000000000000000000000000000000000000000602082015250565b5f61169560218361116e565b91506116a08261163b565b604082019050919050565b5f6020820190508181035f8301526116c281611689565b905091905056fea264697066735822122055b71d3933fcb8ad3f79b2ec622c0223b1fbcadd37e21b2d573238898628b84164736f6c634300081a0033",
					"opcodes": "PUSH1 0x80 PUSH1 0x40 MSTORE CALLVALUE DUP1 ISZERO PUSH2 0xF JUMPI PUSH0 DUP1 REVERT JUMPDEST POP PUSH1 0x40 MLOAD PUSH2 0x1856 CODESIZE SUB DUP1 PUSH2 0x1856 DUP4 CODECOPY DUP2 DUP2 ADD PUSH1 0x40 MSTORE DUP2 ADD SWAP1 PUSH2 0x31 SWAP2 SWAP1 PUSH2 0xBF JUMP JUMPDEST CALLER PUSH0 DUP1 PUSH2 0x100 EXP DUP2 SLOAD DUP2 PUSH20 0xFFFFFFFFFFFFFFFFFFFFFFFFFFFFFFFFFFFFFFFF MUL NOT AND SWAP1 DUP4 PUSH20 0xFFFFFFFFFFFFFFFFFFFFFFFFFFFFFFFFFFFFFFFF AND MUL OR SWAP1 SSTORE POP DUP1 TIMESTAMP PUSH2 0x7C SWAP2 SWAP1 PUSH2 0x117 JUMP JUMPDEST PUSH1 0x1 DUP2 SWAP1 SSTORE POP POP PUSH2 0x14A JUMP JUMPDEST PUSH0 DUP1 REVERT JUMPDEST PUSH0 DUP2 SWAP1 POP SWAP2 SWAP1 POP JUMP JUMPDEST PUSH2 0x9E DUP2 PUSH2 0x8C JUMP JUMPDEST DUP2 EQ PUSH2 0xA8 JUMPI PUSH0 DUP1 REVERT JUMPDEST POP JUMP JUMPDEST PUSH0 DUP2 MLOAD SWAP1 POP PUSH2 0xB9 DUP2 PUSH2 0x95 JUMP JUMPDEST SWAP3 SWAP2 POP POP JUMP JUMPDEST PUSH0 PUSH1 0x20 DUP3 DUP5 SUB SLT ISZERO PUSH2 0xD4 JUMPI PUSH2 0xD3 PUSH2 0x88 JUMP JUMPDEST JUMPDEST PUSH0 PUSH2 0xE1 DUP5 DUP3 DUP6 ADD PUSH2 0xAB JUMP JUMPDEST SWAP2 POP POP SWAP3 SWAP2 POP POP JUMP JUMPDEST PUSH32 0x4E487B7100000000000000000000000000000000000000000000000000000000 PUSH0 MSTORE PUSH1 0x11 PUSH1 0x4 MSTORE PUSH1 0x24 PUSH0 REVERT JUMPDEST PUSH0 PUSH2 0x121 DUP3 PUSH2 0x8C JUMP JUMPDEST SWAP2 POP PUSH2 0x12C DUP4 PUSH2 0x8C JUMP JUMPDEST SWAP3 POP DUP3 DUP3 ADD SWAP1 POP DUP1 DUP3 GT ISZERO PUSH2 0x144 JUMPI PUSH2 0x143 PUSH2 0xEA JUMP JUMPDEST JUMPDEST SWAP3 SWAP2 POP POP JUMP JUMPDEST PUSH2 0x16FF DUP1 PUSH2 0x157 PUSH0 CODECOPY PUSH0 RETURN INVALID PUSH1 0x80 PUSH1 0x40 MSTORE PUSH1 0x4 CALLDATASIZE LT PUSH2 0xA6 JUMPI PUSH0 CALLDATALOAD PUSH1 0xE0 SHR DUP1 PUSH4 0xB7E03264 GT PUSH2 0x63 JUMPI DUP1 PUSH4 0xB7E03264 EQ PUSH2 0x187 JUMPI DUP1 PUSH4 0xC264A063 EQ PUSH2 0x1B2 JUMPI DUP1 PUSH4 0xCFF29DFD EQ PUSH2 0x1C8 JUMPI DUP1 PUSH4 0xD57BDE79 EQ PUSH2 0x204 JUMPI DUP1 PUSH4 0xFC7E286D EQ PUSH2 0x22E JUMPI DUP1 PUSH4 0xFE67A54B EQ PUSH2 0x26A JUMPI PUSH2 0xA6 JUMP JUMPDEST DUP1 PUSH4 0x12FA6FEB EQ PUSH2 0xAA JUMPI DUP1 PUSH4 0x14D2687C EQ PUSH2 0xD4 JUMPI DUP1 PUSH4 0x1998AEEF EQ PUSH2 0xFF JUMPI DUP1 PUSH4 0x4B449CBA EQ PUSH2 0x109 JUMPI DUP1 PUSH4 0x8DA5CB5B EQ PUSH2 0x133 JUMPI DUP1 PUSH4 0x91F90157 EQ PUSH2 0x15D JUMPI JUMPDEST PUSH0 DUP1 REVERT JUMPDEST CALLVALUE DUP1 ISZERO PUSH2 0xB5 JUMPI PUSH0 DUP1 REVERT JUMPDEST POP PUSH2 0xBE PUSH2 0x280 JUMP JUMPDEST PUSH1 0x40 MLOAD PUSH2 0xCB SWAP2 SWAP1 PUSH2 0xDFA JUMP JUMPDEST PUSH1 0x40 MLOAD DUP1 SWAP2 SUB SWAP1 RETURN JUMPDEST CALLVALUE DUP1 ISZERO PUSH2 0xDF JUMPI PUSH0 DUP1 REVERT JUMPDEST POP PUSH2 0xE8 PUSH2 0x293 JUMP JUMPDEST PUSH1 0x40 MLOAD PUSH2 0xF6 SWAP3 SWAP2 SWAP1 PUSH2 0xFBA JUMP JUMPDEST PUSH1 0x40 MLOAD DUP1 SWAP2 SUB SWAP1 RETURN JUMPDEST PUSH2 0x107 PUSH2 0x42D JUMP JUMPDEST STOP JUMPDEST CALLVALUE DUP1 ISZERO PUSH2 0x114 JUMPI PUSH0 DUP1 REVERT JUMPDEST POP PUSH2 0x11D PUSH2 0x7EF JUMP JUMPDEST PUSH1 0x40 MLOAD PUSH2 0x12A SWAP2 SWAP1 PUSH2 0xFFE JUMP JUMPDEST PUSH1 0x40 MLOAD DUP1 SWAP2 SUB SWAP1 RETURN JUMPDEST CALLVALUE DUP1 ISZERO PUSH2 0x13E JUMPI PUSH0 DUP1 REVERT JUMPDEST POP PUSH2 0x147 PUSH2 0x7F5 JUMP JUMPDEST PUSH1 0x40 MLOAD PUSH2 0x154 SWAP2 SWAP1 PUSH2 0x1026 JUMP JUMPDEST PUSH1 0x40 MLOAD DUP1 SWAP2 SUB SWAP1 RETURN JUMPDEST CALLVALUE DUP1 ISZERO PUSH2 0x168 JUMPI PUSH0 DUP1 REVERT JUMPDEST POP PUSH2 0x171 PUSH2 0x818 JUMP JUMPDEST PUSH1 0x40 MLOAD PUSH2 0x17E SWAP2 SWAP1 PUSH2 0x1026 JUMP JUMPDEST PUSH1 0x40 MLOAD DUP1 SWAP2 SUB SWAP1 RETURN JUMPDEST CALLVALUE DUP1 ISZERO PUSH2 0x192 JUMPI PUSH0 DUP1 REVERT JUMPDEST POP PUSH2 0x19B PUSH2 0x83D JUMP JUMPDEST PUSH1 0x40 MLOAD PUSH2 0x1A9 SWAP3 SWAP2 SWAP1 PUSH2 0x103F JUMP JUMPDEST PUSH1 0x40 MLOAD DUP1 SWAP2 SUB SWAP1 RETURN JUMPDEST CALLVALUE DUP1 ISZERO PUSH2 0x1BD JUMPI PUSH0 DUP1 REVERT JUMPDEST POP PUSH2 0x1C6 PUSH2 0x8BB JUMP JUMPDEST STOP JUMPDEST CALLVALUE DUP1 ISZERO PUSH2 0x1D3 JUMPI PUSH0 DUP1 REVERT JUMPDEST POP PUSH2 0x1EE PUSH1 0x4 DUP1 CALLDATASIZE SUB DUP2 ADD SWAP1 PUSH2 0x1E9 SWAP2 SWAP1 PUSH2 0x1094 JUMP JUMPDEST PUSH2 0xA15 JUMP JUMPDEST PUSH1 0x40 MLOAD PUSH2 0x1FB SWAP2 SWAP1 PUSH2 0x1026 JUMP JUMPDEST PUSH1 0x40 MLOAD DUP1 SWAP2 SUB SWAP1 RETURN JUMPDEST CALLVALUE DUP1 ISZERO PUSH2 0x20F JUMPI PUSH0 DUP1 REVERT JUMPDEST POP PUSH2 0x218 PUSH2 0xA50 JUMP JUMPDEST PUSH1 0x40 MLOAD PUSH2 0x225 SWAP2 SWAP1 PUSH2 0xFFE JUMP JUMPDEST PUSH1 0x40 MLOAD DUP1 SWAP2 SUB SWAP1 RETURN JUMPDEST CALLVALUE DUP1 ISZERO PUSH2 0x239 JUMPI PUSH0 DUP1 REVERT JUMPDEST POP PUSH2 0x254 PUSH1 0x4 DUP1 CALLDATASIZE SUB DUP2 ADD SWAP1 PUSH2 0x24F SWAP2 SWAP1 PUSH2 0x10E9 JUMP JUMPDEST PUSH2 0xA56 JUMP JUMPDEST PUSH1 0x40 MLOAD PUSH2 0x261 SWAP2 SWAP1 PUSH2 0xFFE JUMP JUMPDEST PUSH1 0x40 MLOAD DUP1 SWAP2 SUB SWAP1 RETURN JUMPDEST CALLVALUE DUP1 ISZERO PUSH2 0x275 JUMPI PUSH0 DUP1 REVERT JUMPDEST POP PUSH2 0x27E PUSH2 0xA6B JUMP JUMPDEST STOP JUMPDEST PUSH1 0x3 PUSH1 0x14 SWAP1 SLOAD SWAP1 PUSH2 0x100 EXP SWAP1 DIV PUSH1 0xFF AND DUP2 JUMP JUMPDEST PUSH1 0x60 DUP1 PUSH0 PUSH1 0x5 DUP1 SLOAD SWAP1 POP PUSH8 0xFFFFFFFFFFFFFFFF DUP2 GT ISZERO PUSH2 0x2B6 JUMPI PUSH2 0x2B5 PUSH2 0x1114 JUMP JUMPDEST JUMPDEST PUSH1 0x40 MLOAD SWAP1 DUP1 DUP3 MSTORE DUP1 PUSH1 0x20 MUL PUSH1 0x20 ADD DUP3 ADD PUSH1 0x40 MSTORE DUP1 ISZERO PUSH2 0x2E4 JUMPI DUP2 PUSH1 0x20 ADD PUSH1 0x20 DUP3 MUL DUP1 CALLDATASIZE DUP4 CALLDATACOPY DUP1 DUP3 ADD SWAP2 POP POP SWAP1 POP JUMPDEST POP SWAP1 POP PUSH0 JUMPDEST PUSH1 0x5 DUP1 SLOAD SWAP1 POP DUP2 LT ISZERO PUSH2 0x39B JUMPI PUSH1 0x4 PUSH0 PUSH1 0x5 DUP4 DUP2 SLOAD DUP2 LT PUSH2 0x30D JUMPI PUSH2 0x30C PUSH2 0x1141 JUMP JUMPDEST JUMPDEST SWAP1 PUSH0 MSTORE PUSH1 0x20 PUSH0 KECCAK256 ADD PUSH0 SWAP1 SLOAD SWAP1 PUSH2 0x100 EXP SWAP1 DIV PUSH20 0xFFFFFFFFFFFFFFFFFFFFFFFFFFFFFFFFFFFFFFFF AND PUSH20 0xFFFFFFFFFFFFFFFFFFFFFFFFFFFFFFFFFFFFFFFF AND PUSH20 0xFFFFFFFFFFFFFFFFFFFFFFFFFFFFFFFFFFFFFFFF AND DUP2 MSTORE PUSH1 0x20 ADD SWAP1 DUP2 MSTORE PUSH1 0x20 ADD PUSH0 KECCAK256 SLOAD DUP3 DUP3 DUP2 MLOAD DUP2 LT PUSH2 0x382 JUMPI PUSH2 0x381 PUSH2 0x1141 JUMP JUMPDEST JUMPDEST PUSH1 0x20 MUL PUSH1 0x20 ADD ADD DUP2 DUP2 MSTORE POP POP DUP1 DUP1 PUSH1 0x1 ADD SWAP2 POP POP PUSH2 0x2E9 JUMP JUMPDEST POP PUSH1 0x5 DUP2 DUP2 DUP1 SLOAD DUP1 PUSH1 0x20 MUL PUSH1 0x20 ADD PUSH1 0x40 MLOAD SWAP1 DUP2 ADD PUSH1 0x40 MSTORE DUP1 SWAP3 SWAP2 SWAP1 DUP2 DUP2 MSTORE PUSH1 0x20 ADD DUP3 DUP1 SLOAD DUP1 ISZERO PUSH2 0x41D JUMPI PUSH1 0x20 MUL DUP3 ADD SWAP2 SWAP1 PUSH0 MSTORE PUSH1 0x20 PUSH0 KECCAK256 SWAP1 JUMPDEST DUP2 PUSH0 SWAP1 SLOAD SWAP1 PUSH2 0x100 EXP SWAP1 DIV PUSH20 0xFFFFFFFFFFFFFFFFFFFFFFFFFFFFFFFFFFFFFFFF AND PUSH20 0xFFFFFFFFFFFFFFFFFFFFFFFFFFFFFFFFFFFFFFFF AND DUP2 MSTORE PUSH1 0x20 ADD SWAP1 PUSH1 0x1 ADD SWAP1 DUP1 DUP4 GT PUSH2 0x3D4 JUMPI JUMPDEST POP POP POP POP POP SWAP2 POP SWAP3 POP SWAP3 POP POP SWAP1 SWAP2 JUMP JUMPDEST PUSH1 0x1 SLOAD TIMESTAMP LT PUSH2 0x471 JUMPI PUSH1 0x40 MLOAD PUSH32 0x8C379A000000000000000000000000000000000000000000000000000000000 DUP2 MSTORE PUSH1 0x4 ADD PUSH2 0x468 SWAP1 PUSH2 0x11C8 JUMP JUMPDEST PUSH1 0x40 MLOAD DUP1 SWAP2 SUB SWAP1 REVERT JUMPDEST PUSH1 0x3 PUSH1 0x14 SWAP1 SLOAD SWAP1 PUSH2 0x100 EXP SWAP1 DIV PUSH1 0xFF AND ISZERO PUSH2 0x4C1 JUMPI PUSH1 0x40 MLOAD PUSH32 0x8C379A000000000000000000000000000000000000000000000000000000000 DUP2 MSTORE PUSH1 0x4 ADD PUSH2 0x4B8 SWAP1 PUSH2 0x1230 JUMP JUMPDEST PUSH1 0x40 MLOAD DUP1 SWAP2 SUB SWAP1 REVERT JUMPDEST PUSH0 CALLVALUE GT PUSH2 0x503 JUMPI PUSH1 0x40 MLOAD PUSH32 0x8C379A000000000000000000000000000000000000000000000000000000000 DUP2 MSTORE PUSH1 0x4 ADD PUSH2 0x4FA SWAP1 PUSH2 0x1298 JUMP JUMPDEST PUSH1 0x40 MLOAD DUP1 SWAP2 SUB SWAP1 REVERT JUMPDEST PUSH0 PUSH1 0x64 PUSH1 0x5 PUSH1 0x2 SLOAD PUSH2 0x515 SWAP2 SWAP1 PUSH2 0x12E3 JUMP JUMPDEST PUSH2 0x51F SWAP2 SWAP1 PUSH2 0x1351 JUMP JUMPDEST PUSH1 0x2 SLOAD PUSH2 0x52C SWAP2 SWAP1 PUSH2 0x1381 JUMP JUMPDEST SWAP1 POP DUP1 CALLVALUE LT ISZERO PUSH2 0x571 JUMPI PUSH1 0x40 MLOAD PUSH32 0x8C379A000000000000000000000000000000000000000000000000000000000 DUP2 MSTORE PUSH1 0x4 ADD PUSH2 0x568 SWAP1 PUSH2 0x1424 JUMP JUMPDEST PUSH1 0x40 MLOAD DUP1 SWAP2 SUB SWAP1 REVERT JUMPDEST PUSH0 PUSH1 0x4 PUSH0 CALLER PUSH20 0xFFFFFFFFFFFFFFFFFFFFFFFFFFFFFFFFFFFFFFFF AND PUSH20 0xFFFFFFFFFFFFFFFFFFFFFFFFFFFFFFFFFFFFFFFF AND DUP2 MSTORE PUSH1 0x20 ADD SWAP1 DUP2 MSTORE PUSH1 0x20 ADD PUSH0 KECCAK256 SLOAD SUB PUSH2 0x616 JUMPI PUSH1 0x5 CALLER SWAP1 DUP1 PUSH1 0x1 DUP2 SLOAD ADD DUP1 DUP3 SSTORE DUP1 SWAP2 POP POP PUSH1 0x1 SWAP1 SUB SWAP1 PUSH0 MSTORE PUSH1 0x20 PUSH0 KECCAK256 ADD PUSH0 SWAP1 SWAP2 SWAP1 SWAP2 SWAP1 SWAP2 PUSH2 0x100 EXP DUP2 SLOAD DUP2 PUSH20 0xFFFFFFFFFFFFFFFFFFFFFFFFFFFFFFFFFFFFFFFF MUL NOT AND SWAP1 DUP4 PUSH20 0xFFFFFFFFFFFFFFFFFFFFFFFFFFFFFFFFFFFFFFFF AND MUL OR SWAP1 SSTORE POP JUMPDEST CALLVALUE PUSH1 0x4 PUSH0 CALLER PUSH20 0xFFFFFFFFFFFFFFFFFFFFFFFFFFFFFFFFFFFFFFFF AND PUSH20 0xFFFFFFFFFFFFFFFFFFFFFFFFFFFFFFFFFFFFFFFF AND DUP2 MSTORE PUSH1 0x20 ADD SWAP1 DUP2 MSTORE PUSH1 0x20 ADD PUSH0 KECCAK256 PUSH0 DUP3 DUP3 SLOAD PUSH2 0x662 SWAP2 SWAP1 PUSH2 0x1381 JUMP JUMPDEST SWAP3 POP POP DUP2 SWAP1 SSTORE POP PUSH0 PUSH20 0xFFFFFFFFFFFFFFFFFFFFFFFFFFFFFFFFFFFFFFFF AND PUSH1 0x3 PUSH0 SWAP1 SLOAD SWAP1 PUSH2 0x100 EXP SWAP1 DIV PUSH20 0xFFFFFFFFFFFFFFFFFFFFFFFFFFFFFFFFFFFFFFFF AND PUSH20 0xFFFFFFFFFFFFFFFFFFFFFFFFFFFFFFFFFFFFFFFF AND EQ PUSH2 0x725 JUMPI PUSH1 0x3 PUSH0 SWAP1 SLOAD SWAP1 PUSH2 0x100 EXP SWAP1 DIV PUSH20 0xFFFFFFFFFFFFFFFFFFFFFFFFFFFFFFFFFFFFFFFF AND PUSH20 0xFFFFFFFFFFFFFFFFFFFFFFFFFFFFFFFFFFFFFFFF AND PUSH2 0x8FC PUSH1 0x2 SLOAD SWAP1 DUP2 ISZERO MUL SWAP1 PUSH1 0x40 MLOAD PUSH0 PUSH1 0x40 MLOAD DUP1 DUP4 SUB DUP2 DUP6 DUP9 DUP9 CALL SWAP4 POP POP POP POP ISZERO DUP1 ISZERO PUSH2 0x723 JUMPI RETURNDATASIZE PUSH0 DUP1 RETURNDATACOPY RETURNDATASIZE PUSH0 REVERT JUMPDEST POP JUMPDEST CALLVALUE PUSH1 0x2 DUP2 SWAP1 SSTORE POP CALLER PUSH1 0x3 PUSH0 PUSH2 0x100 EXP DUP2 SLOAD DUP2 PUSH20 0xFFFFFFFFFFFFFFFFFFFFFFFFFFFFFFFFFFFFFFFF MUL NOT AND SWAP1 DUP4 PUSH20 0xFFFFFFFFFFFFFFFFFFFFFFFFFFFFFFFFFFFFFFFF AND MUL OR SWAP1 SSTORE POP PUSH2 0x258 TIMESTAMP PUSH1 0x1 SLOAD PUSH2 0x77D SWAP2 SWAP1 PUSH2 0x1442 JUMP JUMPDEST LT ISZERO PUSH2 0x79E JUMPI PUSH2 0x258 PUSH1 0x1 PUSH0 DUP3 DUP3 SLOAD PUSH2 0x796 SWAP2 SWAP1 PUSH2 0x1381 JUMP JUMPDEST SWAP3 POP POP DUP2 SWAP1 SSTORE POP JUMPDEST CALLER PUSH20 0xFFFFFFFFFFFFFFFFFFFFFFFFFFFFFFFFFFFFFFFF AND PUSH32 0xDD0B6C6A77960E2066C96171B4D7AC9E8B4C184011F38544AFA36A5BB63EC59F CALLVALUE PUSH1 0x40 MLOAD PUSH2 0x7E4 SWAP2 SWAP1 PUSH2 0xFFE JUMP JUMPDEST PUSH1 0x40 MLOAD DUP1 SWAP2 SUB SWAP1 LOG2 POP JUMP JUMPDEST PUSH1 0x1 SLOAD DUP2 JUMP JUMPDEST PUSH0 DUP1 SLOAD SWAP1 PUSH2 0x100 EXP SWAP1 DIV PUSH20 0xFFFFFFFFFFFFFFFFFFFFFFFFFFFFFFFFFFFFFFFF AND DUP2 JUMP JUMPDEST PUSH1 0x3 PUSH0 SWAP1 SLOAD SWAP1 PUSH2 0x100 EXP SWAP1 DIV PUSH20 0xFFFFFFFFFFFFFFFFFFFFFFFFFFFFFFFFFFFFFFFF AND DUP2 JUMP JUMPDEST PUSH0 DUP1 PUSH1 0x3 PUSH1 0x14 SWAP1 SLOAD SWAP1 PUSH2 0x100 EXP SWAP1 DIV PUSH1 0xFF AND PUSH2 0x88E JUMPI PUSH1 0x40 MLOAD PUSH32 0x8C379A000000000000000000000000000000000000000000000000000000000 DUP2 MSTORE PUSH1 0x4 ADD PUSH2 0x885 SWAP1 PUSH2 0x14BF JUMP JUMPDEST PUSH1 0x40 MLOAD DUP1 SWAP2 SUB SWAP1 REVERT JUMPDEST PUSH1 0x3 PUSH0 SWAP1 SLOAD SWAP1 PUSH2 0x100 EXP SWAP1 DIV PUSH20 0xFFFFFFFFFFFFFFFFFFFFFFFFFFFFFFFFFFFFFFFF AND PUSH1 0x2 SLOAD SWAP2 POP SWAP2 POP SWAP1 SWAP2 JUMP JUMPDEST PUSH1 0x2 SLOAD PUSH1 0x4 PUSH0 CALLER PUSH20 0xFFFFFFFFFFFFFFFFFFFFFFFFFFFFFFFFFFFFFFFF AND PUSH20 0xFFFFFFFFFFFFFFFFFFFFFFFFFFFFFFFFFFFFFFFF AND DUP2 MSTORE PUSH1 0x20 ADD SWAP1 DUP2 MSTORE PUSH1 0x20 ADD PUSH0 KECCAK256 SLOAD GT PUSH2 0x93C JUMPI PUSH1 0x40 MLOAD PUSH32 0x8C379A000000000000000000000000000000000000000000000000000000000 DUP2 MSTORE PUSH1 0x4 ADD PUSH2 0x933 SWAP1 PUSH2 0x154D JUMP JUMPDEST PUSH1 0x40 MLOAD DUP1 SWAP2 SUB SWAP1 REVERT JUMPDEST PUSH0 PUSH1 0x2 SLOAD PUSH1 0x4 PUSH0 CALLER PUSH20 0xFFFFFFFFFFFFFFFFFFFFFFFFFFFFFFFFFFFFFFFF AND PUSH20 0xFFFFFFFFFFFFFFFFFFFFFFFFFFFFFFFFFFFFFFFF AND DUP2 MSTORE PUSH1 0x20 ADD SWAP1 DUP2 MSTORE PUSH1 0x20 ADD PUSH0 KECCAK256 SLOAD PUSH2 0x988 SWAP2 SWAP1 PUSH2 0x1442 JUMP JUMPDEST SWAP1 POP PUSH1 0x2 SLOAD PUSH1 0x4 PUSH0 CALLER PUSH20 0xFFFFFFFFFFFFFFFFFFFFFFFFFFFFFFFFFFFFFFFF AND PUSH20 0xFFFFFFFFFFFFFFFFFFFFFFFFFFFFFFFFFFFFFFFF AND DUP2 MSTORE PUSH1 0x20 ADD SWAP1 DUP2 MSTORE PUSH1 0x20 ADD PUSH0 KECCAK256 DUP2 SWAP1 SSTORE POP CALLER PUSH20 0xFFFFFFFFFFFFFFFFFFFFFFFFFFFFFFFFFFFFFFFF AND PUSH2 0x8FC DUP3 SWAP1 DUP2 ISZERO MUL SWAP1 PUSH1 0x40 MLOAD PUSH0 PUSH1 0x40 MLOAD DUP1 DUP4 SUB DUP2 DUP6 DUP9 DUP9 CALL SWAP4 POP POP POP POP ISZERO DUP1 ISZERO PUSH2 0xA11 JUMPI RETURNDATASIZE PUSH0 DUP1 RETURNDATACOPY RETURNDATASIZE PUSH0 REVERT JUMPDEST POP POP JUMP JUMPDEST PUSH1 0x5 DUP2 DUP2 SLOAD DUP2 LT PUSH2 0xA24 JUMPI PUSH0 DUP1 REVERT JUMPDEST SWAP1 PUSH0 MSTORE PUSH1 0x20 PUSH0 KECCAK256 ADD PUSH0 SWAP2 POP SLOAD SWAP1 PUSH2 0x100 EXP SWAP1 DIV PUSH20 0xFFFFFFFFFFFFFFFFFFFFFFFFFFFFFFFFFFFFFFFF AND DUP2 JUMP JUMPDEST PUSH1 0x2 SLOAD DUP2 JUMP JUMPDEST PUSH1 0x4 PUSH1 0x20 MSTORE DUP1 PUSH0 MSTORE PUSH1 0x40 PUSH0 KECCAK256 PUSH0 SWAP2 POP SWAP1 POP SLOAD DUP2 JUMP JUMPDEST PUSH0 DUP1 SLOAD SWAP1 PUSH2 0x100 EXP SWAP1 DIV PUSH20 0xFFFFFFFFFFFFFFFFFFFFFFFFFFFFFFFFFFFFFFFF AND PUSH20 0xFFFFFFFFFFFFFFFFFFFFFFFFFFFFFFFFFFFFFFFF AND CALLER PUSH20 0xFFFFFFFFFFFFFFFFFFFFFFFFFFFFFFFFFFFFFFFF AND EQ PUSH2 0xAF8 JUMPI PUSH1 0x40 MLOAD PUSH32 0x8C379A000000000000000000000000000000000000000000000000000000000 DUP2 MSTORE PUSH1 0x4 ADD PUSH2 0xAEF SWAP1 PUSH2 0x15B5 JUMP JUMPDEST PUSH1 0x40 MLOAD DUP1 SWAP2 SUB SWAP1 REVERT JUMPDEST PUSH1 0x1 SLOAD TIMESTAMP LT ISZERO PUSH2 0xB3D JUMPI PUSH1 0x40 MLOAD PUSH32 0x8C379A000000000000000000000000000000000000000000000000000000000 DUP2 MSTORE PUSH1 0x4 ADD PUSH2 0xB34 SWAP1 PUSH2 0x161D JUMP JUMPDEST PUSH1 0x40 MLOAD DUP1 SWAP2 SUB SWAP1 REVERT JUMPDEST PUSH1 0x3 PUSH1 0x14 SWAP1 SLOAD SWAP1 PUSH2 0x100 EXP SWAP1 DIV PUSH1 0xFF AND ISZERO PUSH2 0xB8D JUMPI PUSH1 0x40 MLOAD PUSH32 0x8C379A000000000000000000000000000000000000000000000000000000000 DUP2 MSTORE PUSH1 0x4 ADD PUSH2 0xB84 SWAP1 PUSH2 0x16AB JUMP JUMPDEST PUSH1 0x40 MLOAD DUP1 SWAP2 SUB SWAP1 REVERT JUMPDEST PUSH1 0x1 PUSH1 0x3 PUSH1 0x14 PUSH2 0x100 EXP DUP2 SLOAD DUP2 PUSH1 0xFF MUL NOT AND SWAP1 DUP4 ISZERO ISZERO MUL OR SWAP1 SSTORE POP PUSH0 JUMPDEST PUSH1 0x5 DUP1 SLOAD SWAP1 POP DUP2 LT ISZERO PUSH2 0xD81 JUMPI PUSH0 PUSH1 0x5 DUP3 DUP2 SLOAD DUP2 LT PUSH2 0xBCC JUMPI PUSH2 0xBCB PUSH2 0x1141 JUMP JUMPDEST JUMPDEST SWAP1 PUSH0 MSTORE PUSH1 0x20 PUSH0 KECCAK256 ADD PUSH0 SWAP1 SLOAD SWAP1 PUSH2 0x100 EXP SWAP1 DIV PUSH20 0xFFFFFFFFFFFFFFFFFFFFFFFFFFFFFFFFFFFFFFFF AND SWAP1 POP PUSH1 0x3 PUSH0 SWAP1 SLOAD SWAP1 PUSH2 0x100 EXP SWAP1 DIV PUSH20 0xFFFFFFFFFFFFFFFFFFFFFFFFFFFFFFFFFFFFFFFF AND PUSH20 0xFFFFFFFFFFFFFFFFFFFFFFFFFFFFFFFFFFFFFFFF AND DUP2 PUSH20 0xFFFFFFFFFFFFFFFFFFFFFFFFFFFFFFFFFFFFFFFF AND EQ PUSH2 0xD73 JUMPI PUSH0 PUSH1 0x64 PUSH1 0x2 PUSH1 0x4 PUSH0 DUP6 PUSH20 0xFFFFFFFFFFFFFFFFFFFFFFFFFFFFFFFFFFFFFFFF AND PUSH20 0xFFFFFFFFFFFFFFFFFFFFFFFFFFFFFFFFFFFFFFFF AND DUP2 MSTORE PUSH1 0x20 ADD SWAP1 DUP2 MSTORE PUSH1 0x20 ADD PUSH0 KECCAK256 SLOAD PUSH2 0xC97 SWAP2 SWAP1 PUSH2 0x12E3 JUMP JUMPDEST PUSH2 0xCA1 SWAP2 SWAP1 PUSH2 0x1351 JUMP JUMPDEST PUSH1 0x4 PUSH0 DUP5 PUSH20 0xFFFFFFFFFFFFFFFFFFFFFFFFFFFFFFFFFFFFFFFF AND PUSH20 0xFFFFFFFFFFFFFFFFFFFFFFFFFFFFFFFFFFFFFFFF AND DUP2 MSTORE PUSH1 0x20 ADD SWAP1 DUP2 MSTORE PUSH1 0x20 ADD PUSH0 KECCAK256 SLOAD PUSH2 0xCE9 SWAP2 SWAP1 PUSH2 0x1442 JUMP JUMPDEST SWAP1 POP PUSH0 PUSH1 0x4 PUSH0 DUP5 PUSH20 0xFFFFFFFFFFFFFFFFFFFFFFFFFFFFFFFFFFFFFFFF AND PUSH20 0xFFFFFFFFFFFFFFFFFFFFFFFFFFFFFFFFFFFFFFFF AND DUP2 MSTORE PUSH1 0x20 ADD SWAP1 DUP2 MSTORE PUSH1 0x20 ADD PUSH0 KECCAK256 DUP2 SWAP1 SSTORE POP DUP2 PUSH20 0xFFFFFFFFFFFFFFFFFFFFFFFFFFFFFFFFFFFFFFFF AND PUSH2 0x8FC DUP3 SWAP1 DUP2 ISZERO MUL SWAP1 PUSH1 0x40 MLOAD PUSH0 PUSH1 0x40 MLOAD DUP1 DUP4 SUB DUP2 DUP6 DUP9 DUP9 CALL SWAP4 POP POP POP POP ISZERO DUP1 ISZERO PUSH2 0xD70 JUMPI RETURNDATASIZE PUSH0 DUP1 RETURNDATACOPY RETURNDATASIZE PUSH0 REVERT JUMPDEST POP POP JUMPDEST POP DUP1 DUP1 PUSH1 0x1 ADD SWAP2 POP POP PUSH2 0xBAA JUMP JUMPDEST POP PUSH32 0xDAEC4582D5D9595688C8C98545FDD1C696D41C6AEAEB636737E84ED2F5C00EDA PUSH1 0x3 PUSH0 SWAP1 SLOAD SWAP1 PUSH2 0x100 EXP SWAP1 DIV PUSH20 0xFFFFFFFFFFFFFFFFFFFFFFFFFFFFFFFFFFFFFFFF AND PUSH1 0x2 SLOAD PUSH1 0x40 MLOAD PUSH2 0xDD6 SWAP3 SWAP2 SWAP1 PUSH2 0x103F JUMP JUMPDEST PUSH1 0x40 MLOAD DUP1 SWAP2 SUB SWAP1 LOG1 JUMP JUMPDEST PUSH0 DUP2 ISZERO ISZERO SWAP1 POP SWAP2 SWAP1 POP JUMP JUMPDEST PUSH2 0xDF4 DUP2 PUSH2 0xDE0 JUMP JUMPDEST DUP3 MSTORE POP POP JUMP JUMPDEST PUSH0 PUSH1 0x20 DUP3 ADD SWAP1 POP PUSH2 0xE0D PUSH0 DUP4 ADD DUP5 PUSH2 0xDEB JUMP JUMPDEST SWAP3 SWAP2 POP POP JUMP JUMPDEST PUSH0 DUP2 MLOAD SWAP1 POP SWAP2 SWAP1 POP JUMP JUMPDEST PUSH0 DUP3 DUP3 MSTORE PUSH1 0x20 DUP3 ADD SWAP1 POP SWAP3 SWAP2 POP POP JUMP JUMPDEST PUSH0 DUP2 SWAP1 POP PUSH1 0x20 DUP3 ADD SWAP1 POP SWAP2 SWAP1 POP JUMP JUMPDEST PUSH0 PUSH20 0xFFFFFFFFFFFFFFFFFFFFFFFFFFFFFFFFFFFFFFFF DUP3 AND SWAP1 POP SWAP2 SWAP1 POP JUMP JUMPDEST PUSH0 PUSH2 0xE65 DUP3 PUSH2 0xE3C JUMP JUMPDEST SWAP1 POP SWAP2 SWAP1 POP JUMP JUMPDEST PUSH2 0xE75 DUP2 PUSH2 0xE5B JUMP JUMPDEST DUP3 MSTORE POP POP JUMP JUMPDEST PUSH0 PUSH2 0xE86 DUP4 DUP4 PUSH2 0xE6C JUMP JUMPDEST PUSH1 0x20 DUP4 ADD SWAP1 POP SWAP3 SWAP2 POP POP JUMP JUMPDEST PUSH0 PUSH1 0x20 DUP3 ADD SWAP1 POP SWAP2 SWAP1 POP JUMP JUMPDEST PUSH0 PUSH2 0xEA8 DUP3 PUSH2 0xE13 JUMP JUMPDEST PUSH2 0xEB2 DUP2 DUP6 PUSH2 0xE1D JUMP JUMPDEST SWAP4 POP PUSH2 0xEBD DUP4 PUSH2 0xE2D JUMP JUMPDEST DUP1 PUSH0 JUMPDEST DUP4 DUP2 LT ISZERO PUSH2 0xEED JUMPI DUP2 MLOAD PUSH2 0xED4 DUP9 DUP3 PUSH2 0xE7B JUMP JUMPDEST SWAP8 POP PUSH2 0xEDF DUP4 PUSH2 0xE92 JUMP JUMPDEST SWAP3 POP POP PUSH1 0x1 DUP2 ADD SWAP1 POP PUSH2 0xEC0 JUMP JUMPDEST POP DUP6 SWAP4 POP POP POP POP SWAP3 SWAP2 POP POP JUMP JUMPDEST PUSH0 DUP2 MLOAD SWAP1 POP SWAP2 SWAP1 POP JUMP JUMPDEST PUSH0 DUP3 DUP3 MSTORE PUSH1 0x20 DUP3 ADD SWAP1 POP SWAP3 SWAP2 POP POP JUMP JUMPDEST PUSH0 DUP2 SWAP1 POP PUSH1 0x20 DUP3 ADD SWAP1 POP SWAP2 SWAP1 POP JUMP JUMPDEST PUSH0 DUP2 SWAP1 POP SWAP2 SWAP1 POP JUMP JUMPDEST PUSH2 0xF35 DUP2 PUSH2 0xF23 JUMP JUMPDEST DUP3 MSTORE POP POP JUMP JUMPDEST PUSH0 PUSH2 0xF46 DUP4 DUP4 PUSH2 0xF2C JUMP JUMPDEST PUSH1 0x20 DUP4 ADD SWAP1 POP SWAP3 SWAP2 POP POP JUMP JUMPDEST PUSH0 PUSH1 0x20 DUP3 ADD SWAP1 POP SWAP2 SWAP1 POP JUMP JUMPDEST PUSH0 PUSH2 0xF68 DUP3 PUSH2 0xEFA JUMP JUMPDEST PUSH2 0xF72 DUP2 DUP6 PUSH2 0xF04 JUMP JUMPDEST SWAP4 POP PUSH2 0xF7D DUP4 PUSH2 0xF14 JUMP JUMPDEST DUP1 PUSH0 JUMPDEST DUP4 DUP2 LT ISZERO PUSH2 0xFAD JUMPI DUP2 MLOAD PUSH2 0xF94 DUP9 DUP3 PUSH2 0xF3B JUMP JUMPDEST SWAP8 POP PUSH2 0xF9F DUP4 PUSH2 0xF52 JUMP JUMPDEST SWAP3 POP POP PUSH1 0x1 DUP2 ADD SWAP1 POP PUSH2 0xF80 JUMP JUMPDEST POP DUP6 SWAP4 POP POP POP POP SWAP3 SWAP2 POP POP JUMP JUMPDEST PUSH0 PUSH1 0x40 DUP3 ADD SWAP1 POP DUP2 DUP2 SUB PUSH0 DUP4 ADD MSTORE PUSH2 0xFD2 DUP2 DUP6 PUSH2 0xE9E JUMP JUMPDEST SWAP1 POP DUP2 DUP2 SUB PUSH1 0x20 DUP4 ADD MSTORE PUSH2 0xFE6 DUP2 DUP5 PUSH2 0xF5E JUMP JUMPDEST SWAP1 POP SWAP4 SWAP3 POP POP POP JUMP JUMPDEST PUSH2 0xFF8 DUP2 PUSH2 0xF23 JUMP JUMPDEST DUP3 MSTORE POP POP JUMP JUMPDEST PUSH0 PUSH1 0x20 DUP3 ADD SWAP1 POP PUSH2 0x1011 PUSH0 DUP4 ADD DUP5 PUSH2 0xFEF JUMP JUMPDEST SWAP3 SWAP2 POP POP JUMP JUMPDEST PUSH2 0x1020 DUP2 PUSH2 0xE5B JUMP JUMPDEST DUP3 MSTORE POP POP JUMP JUMPDEST PUSH0 PUSH1 0x20 DUP3 ADD SWAP1 POP PUSH2 0x1039 PUSH0 DUP4 ADD DUP5 PUSH2 0x1017 JUMP JUMPDEST SWAP3 SWAP2 POP POP JUMP JUMPDEST PUSH0 PUSH1 0x40 DUP3 ADD SWAP1 POP PUSH2 0x1052 PUSH0 DUP4 ADD DUP6 PUSH2 0x1017 JUMP JUMPDEST PUSH2 0x105F PUSH1 0x20 DUP4 ADD DUP5 PUSH2 0xFEF JUMP JUMPDEST SWAP4 SWAP3 POP POP POP JUMP JUMPDEST PUSH0 DUP1 REVERT JUMPDEST PUSH2 0x1073 DUP2 PUSH2 0xF23 JUMP JUMPDEST DUP2 EQ PUSH2 0x107D JUMPI PUSH0 DUP1 REVERT JUMPDEST POP JUMP JUMPDEST PUSH0 DUP2 CALLDATALOAD SWAP1 POP PUSH2 0x108E DUP2 PUSH2 0x106A JUMP JUMPDEST SWAP3 SWAP2 POP POP JUMP JUMPDEST PUSH0 PUSH1 0x20 DUP3 DUP5 SUB SLT ISZERO PUSH2 0x10A9 JUMPI PUSH2 0x10A8 PUSH2 0x1066 JUMP JUMPDEST JUMPDEST PUSH0 PUSH2 0x10B6 DUP5 DUP3 DUP6 ADD PUSH2 0x1080 JUMP JUMPDEST SWAP2 POP POP SWAP3 SWAP2 POP POP JUMP JUMPDEST PUSH2 0x10C8 DUP2 PUSH2 0xE5B JUMP JUMPDEST DUP2 EQ PUSH2 0x10D2 JUMPI PUSH0 DUP1 REVERT JUMPDEST POP JUMP JUMPDEST PUSH0 DUP2 CALLDATALOAD SWAP1 POP PUSH2 0x10E3 DUP2 PUSH2 0x10BF JUMP JUMPDEST SWAP3 SWAP2 POP POP JUMP JUMPDEST PUSH0 PUSH1 0x20 DUP3 DUP5 SUB SLT ISZERO PUSH2 0x10FE JUMPI PUSH2 0x10FD PUSH2 0x1066 JUMP JUMPDEST JUMPDEST PUSH0 PUSH2 0x110B DUP5 DUP3 DUP6 ADD PUSH2 0x10D5 JUMP JUMPDEST SWAP2 POP POP SWAP3 SWAP2 POP POP JUMP JUMPDEST PUSH32 0x4E487B7100000000000000000000000000000000000000000000000000000000 PUSH0 MSTORE PUSH1 0x41 PUSH1 0x4 MSTORE PUSH1 0x24 PUSH0 REVERT JUMPDEST PUSH32 0x4E487B7100000000000000000000000000000000000000000000000000000000 PUSH0 MSTORE PUSH1 0x32 PUSH1 0x4 MSTORE PUSH1 0x24 PUSH0 REVERT JUMPDEST PUSH0 DUP3 DUP3 MSTORE PUSH1 0x20 DUP3 ADD SWAP1 POP SWAP3 SWAP2 POP POP JUMP JUMPDEST PUSH32 0x42696420616C726561647920436C6F7365640000000000000000000000000000 PUSH0 DUP3 ADD MSTORE POP JUMP JUMPDEST PUSH0 PUSH2 0x11B2 PUSH1 0x12 DUP4 PUSH2 0x116E JUMP JUMPDEST SWAP2 POP PUSH2 0x11BD DUP3 PUSH2 0x117E JUMP JUMPDEST PUSH1 0x20 DUP3 ADD SWAP1 POP SWAP2 SWAP1 POP JUMP JUMPDEST PUSH0 PUSH1 0x20 DUP3 ADD SWAP1 POP DUP2 DUP2 SUB PUSH0 DUP4 ADD MSTORE PUSH2 0x11DF DUP2 PUSH2 0x11A6 JUMP JUMPDEST SWAP1 POP SWAP2 SWAP1 POP JUMP JUMPDEST PUSH32 0x42696420436C6F73656421000000000000000000000000000000000000000000 PUSH0 DUP3 ADD MSTORE POP JUMP JUMPDEST PUSH0 PUSH2 0x121A PUSH1 0xB DUP4 PUSH2 0x116E JUMP JUMPDEST SWAP2 POP PUSH2 0x1225 DUP3 PUSH2 0x11E6 JUMP JUMPDEST PUSH1 0x20 DUP3 ADD SWAP1 POP SWAP2 SWAP1 POP JUMP JUMPDEST PUSH0 PUSH1 0x20 DUP3 ADD SWAP1 POP DUP2 DUP2 SUB PUSH0 DUP4 ADD MSTORE PUSH2 0x1247 DUP2 PUSH2 0x120E JUMP JUMPDEST SWAP1 POP SWAP2 SWAP1 POP JUMP JUMPDEST PUSH32 0x4C61206F6665727461206465626520736572206D61796F722061206365726F2E PUSH0 DUP3 ADD MSTORE POP JUMP JUMPDEST PUSH0 PUSH2 0x1282 PUSH1 0x20 DUP4 PUSH2 0x116E JUMP JUMPDEST SWAP2 POP PUSH2 0x128D DUP3 PUSH2 0x124E JUMP JUMPDEST PUSH1 0x20 DUP3 ADD SWAP1 POP SWAP2 SWAP1 POP JUMP JUMPDEST PUSH0 PUSH1 0x20 DUP3 ADD SWAP1 POP DUP2 DUP2 SUB PUSH0 DUP4 ADD MSTORE PUSH2 0x12AF DUP2 PUSH2 0x1276 JUMP JUMPDEST SWAP1 POP SWAP2 SWAP1 POP JUMP JUMPDEST PUSH32 0x4E487B7100000000000000000000000000000000000000000000000000000000 PUSH0 MSTORE PUSH1 0x11 PUSH1 0x4 MSTORE PUSH1 0x24 PUSH0 REVERT JUMPDEST PUSH0 PUSH2 0x12ED DUP3 PUSH2 0xF23 JUMP JUMPDEST SWAP2 POP PUSH2 0x12F8 DUP4 PUSH2 0xF23 JUMP JUMPDEST SWAP3 POP DUP3 DUP3 MUL PUSH2 0x1306 DUP2 PUSH2 0xF23 JUMP JUMPDEST SWAP2 POP DUP3 DUP3 DIV DUP5 EQ DUP4 ISZERO OR PUSH2 0x131D JUMPI PUSH2 0x131C PUSH2 0x12B6 JUMP JUMPDEST JUMPDEST POP SWAP3 SWAP2 POP POP JUMP JUMPDEST PUSH32 0x4E487B7100000000000000000000000000000000000000000000000000000000 PUSH0 MSTORE PUSH1 0x12 PUSH1 0x4 MSTORE PUSH1 0x24 PUSH0 REVERT JUMPDEST PUSH0 PUSH2 0x135B DUP3 PUSH2 0xF23 JUMP JUMPDEST SWAP2 POP PUSH2 0x1366 DUP4 PUSH2 0xF23 JUMP JUMPDEST SWAP3 POP DUP3 PUSH2 0x1376 JUMPI PUSH2 0x1375 PUSH2 0x1324 JUMP JUMPDEST JUMPDEST DUP3 DUP3 DIV SWAP1 POP SWAP3 SWAP2 POP POP JUMP JUMPDEST PUSH0 PUSH2 0x138B DUP3 PUSH2 0xF23 JUMP JUMPDEST SWAP2 POP PUSH2 0x1396 DUP4 PUSH2 0xF23 JUMP JUMPDEST SWAP3 POP DUP3 DUP3 ADD SWAP1 POP DUP1 DUP3 GT ISZERO PUSH2 0x13AE JUMPI PUSH2 0x13AD PUSH2 0x12B6 JUMP JUMPDEST JUMPDEST SWAP3 SWAP2 POP POP JUMP JUMPDEST PUSH32 0x4F66666572206D7573742062652035252067726561746572207468616E206D61 PUSH0 DUP3 ADD MSTORE PUSH32 0x7820426964210000000000000000000000000000000000000000000000000000 PUSH1 0x20 DUP3 ADD MSTORE POP JUMP JUMPDEST PUSH0 PUSH2 0x140E PUSH1 0x26 DUP4 PUSH2 0x116E JUMP JUMPDEST SWAP2 POP PUSH2 0x1419 DUP3 PUSH2 0x13B4 JUMP JUMPDEST PUSH1 0x40 DUP3 ADD SWAP1 POP SWAP2 SWAP1 POP JUMP JUMPDEST PUSH0 PUSH1 0x20 DUP3 ADD SWAP1 POP DUP2 DUP2 SUB PUSH0 DUP4 ADD MSTORE PUSH2 0x143B DUP2 PUSH2 0x1402 JUMP JUMPDEST SWAP1 POP SWAP2 SWAP1 POP JUMP JUMPDEST PUSH0 PUSH2 0x144C DUP3 PUSH2 0xF23 JUMP JUMPDEST SWAP2 POP PUSH2 0x1457 DUP4 PUSH2 0xF23 JUMP JUMPDEST SWAP3 POP DUP3 DUP3 SUB SWAP1 POP DUP2 DUP2 GT ISZERO PUSH2 0x146F JUMPI PUSH2 0x146E PUSH2 0x12B6 JUMP JUMPDEST JUMPDEST SWAP3 SWAP2 POP POP JUMP JUMPDEST PUSH32 0x426964206973207374696C6C206F70656E000000000000000000000000000000 PUSH0 DUP3 ADD MSTORE POP JUMP JUMPDEST PUSH0 PUSH2 0x14A9 PUSH1 0x11 DUP4 PUSH2 0x116E JUMP JUMPDEST SWAP2 POP PUSH2 0x14B4 DUP3 PUSH2 0x1475 JUMP JUMPDEST PUSH1 0x20 DUP3 ADD SWAP1 POP SWAP2 SWAP1 POP JUMP JUMPDEST PUSH0 PUSH1 0x20 DUP3 ADD SWAP1 POP DUP2 DUP2 SUB PUSH0 DUP4 ADD MSTORE PUSH2 0x14D6 DUP2 PUSH2 0x149D JUMP JUMPDEST SWAP1 POP SWAP2 SWAP1 POP JUMP JUMPDEST PUSH32 0x546865726520696E206E6F20656E6F7567682062616C616E636520746F207769 PUSH0 DUP3 ADD MSTORE PUSH32 0x7468647261770000000000000000000000000000000000000000000000000000 PUSH1 0x20 DUP3 ADD MSTORE POP JUMP JUMPDEST PUSH0 PUSH2 0x1537 PUSH1 0x26 DUP4 PUSH2 0x116E JUMP JUMPDEST SWAP2 POP PUSH2 0x1542 DUP3 PUSH2 0x14DD JUMP JUMPDEST PUSH1 0x40 DUP3 ADD SWAP1 POP SWAP2 SWAP1 POP JUMP JUMPDEST PUSH0 PUSH1 0x20 DUP3 ADD SWAP1 POP DUP2 DUP2 SUB PUSH0 DUP4 ADD MSTORE PUSH2 0x1564 DUP2 PUSH2 0x152B JUMP JUMPDEST SWAP1 POP SWAP2 SWAP1 POP JUMP JUMPDEST PUSH32 0x4F776E6572204F6E6C792046756E6374696F6E00000000000000000000000000 PUSH0 DUP3 ADD MSTORE POP JUMP JUMPDEST PUSH0 PUSH2 0x159F PUSH1 0x13 DUP4 PUSH2 0x116E JUMP JUMPDEST SWAP2 POP PUSH2 0x15AA DUP3 PUSH2 0x156B JUMP JUMPDEST PUSH1 0x20 DUP3 ADD SWAP1 POP SWAP2 SWAP1 POP JUMP JUMPDEST PUSH0 PUSH1 0x20 DUP3 ADD SWAP1 POP DUP2 DUP2 SUB PUSH0 DUP4 ADD MSTORE PUSH2 0x15CC DUP2 PUSH2 0x1593 JUMP JUMPDEST SWAP1 POP SWAP2 SWAP1 POP JUMP JUMPDEST PUSH32 0x426964206E6F7420656E64656420796574210000000000000000000000000000 PUSH0 DUP3 ADD MSTORE POP JUMP JUMPDEST PUSH0 PUSH2 0x1607 PUSH1 0x12 DUP4 PUSH2 0x116E JUMP JUMPDEST SWAP2 POP PUSH2 0x1612 DUP3 PUSH2 0x15D3 JUMP JUMPDEST PUSH1 0x20 DUP3 ADD SWAP1 POP SWAP2 SWAP1 POP JUMP JUMPDEST PUSH0 PUSH1 0x20 DUP3 ADD SWAP1 POP DUP2 DUP2 SUB PUSH0 DUP4 ADD MSTORE PUSH2 0x1634 DUP2 PUSH2 0x15FB JUMP JUMPDEST SWAP1 POP SWAP2 SWAP1 POP JUMP JUMPDEST PUSH32 0x4C612073756261737461207961206861207369646F2066696E616C697A616461 PUSH0 DUP3 ADD MSTORE PUSH32 0x2E00000000000000000000000000000000000000000000000000000000000000 PUSH1 0x20 DUP3 ADD MSTORE POP JUMP JUMPDEST PUSH0 PUSH2 0x1695 PUSH1 0x21 DUP4 PUSH2 0x116E JUMP JUMPDEST SWAP2 POP PUSH2 0x16A0 DUP3 PUSH2 0x163B JUMP JUMPDEST PUSH1 0x40 DUP3 ADD SWAP1 POP SWAP2 SWAP1 POP JUMP JUMPDEST PUSH0 PUSH1 0x20 DUP3 ADD SWAP1 POP DUP2 DUP2 SUB PUSH0 DUP4 ADD MSTORE PUSH2 0x16C2 DUP2 PUSH2 0x1689 JUMP JUMPDEST SWAP1 POP SWAP2 SWAP1 POP JUMP INVALID LOG2 PUSH5 0x6970667358 0x22 SLT KECCAK256 SSTORE 0xB7 SAR CODECOPY CALLER 0xFC 0xB8 0xAD EXTCODEHASH PUSH26 0xB2EC622C0223B1FBCADD37E21B2D573238898628B84164736F6C PUSH4 0x4300081A STOP CALLER "
				},
				"gasEstimates": {
					"creation": {
						"codeDepositCost": "1177400",
						"executionCost": "infinite",
						"totalCost": "infinite"
					},
					"external": {
						"auctionEndTime()": "2492",
						"bid()": "infinite",
						"bidders(uint256)": "4988",
						"deposits(address)": "2890",
						"endAuction()": "infinite",
						"ended()": "2518",
						"highestBid()": "2491",
						"highestBidder()": "2619",
						"owner()": "2594",
						"showBids()": "infinite",
						"showWinner()": "6931",
						"withdrawExcess()": "infinite"
					}
				},
				"methodIdentifiers": {
					"auctionEndTime()": "4b449cba",
					"bid()": "1998aeef",
					"bidders(uint256)": "cff29dfd",
					"deposits(address)": "fc7e286d",
					"endAuction()": "fe67a54b",
					"ended()": "12fa6feb",
					"highestBid()": "d57bde79",
					"highestBidder()": "91f90157",
					"owner()": "8da5cb5b",
					"showBids()": "14d2687c",
					"showWinner()": "b7e03264",
					"withdrawExcess()": "c264a063"
				}
			},
			"storageLayout": {
				"storage": [
					{
						"astId": 4,
						"contract": "contracts/EjemploSubasta.sol:Auction",
						"label": "owner",
						"offset": 0,
						"slot": "0",
						"type": "t_address"
					},
					{
						"astId": 6,
						"contract": "contracts/EjemploSubasta.sol:Auction",
						"label": "auctionEndTime",
						"offset": 0,
						"slot": "1",
						"type": "t_uint256"
					},
					{
						"astId": 8,
						"contract": "contracts/EjemploSubasta.sol:Auction",
						"label": "highestBid",
						"offset": 0,
						"slot": "2",
						"type": "t_uint256"
					},
					{
						"astId": 10,
						"contract": "contracts/EjemploSubasta.sol:Auction",
						"label": "highestBidder",
						"offset": 0,
						"slot": "3",
						"type": "t_address"
					},
					{
						"astId": 12,
						"contract": "contracts/EjemploSubasta.sol:Auction",
						"label": "ended",
						"offset": 20,
						"slot": "3",
						"type": "t_bool"
					},
					{
						"astId": 16,
						"contract": "contracts/EjemploSubasta.sol:Auction",
						"label": "deposits",
						"offset": 0,
						"slot": "4",
						"type": "t_mapping(t_address,t_uint256)"
					},
					{
						"astId": 19,
						"contract": "contracts/EjemploSubasta.sol:Auction",
						"label": "bidders",
						"offset": 0,
						"slot": "5",
						"type": "t_array(t_address)dyn_storage"
					}
				],
				"types": {
					"t_address": {
						"encoding": "inplace",
						"label": "address",
						"numberOfBytes": "20"
					},
					"t_array(t_address)dyn_storage": {
						"base": "t_address",
						"encoding": "dynamic_array",
						"label": "address[]",
						"numberOfBytes": "32"
					},
					"t_bool": {
						"encoding": "inplace",
						"label": "bool",
						"numberOfBytes": "1"
					},
					"t_mapping(t_address,t_uint256)": {
						"encoding": "mapping",
						"key": "t_address",
						"label": "mapping(address => uint256)",
						"numberOfBytes": "32",
						"value": "t_uint256"
					},
					"t_uint256": {
						"encoding": "inplace",
						"label": "uint256",
						"numberOfBytes": "32"
					}
				}
			},
			"userdoc": {
				"kind": "user",
				"methods": {},
				"version": 1
			}
		}
	}
}