{
	"contracts/TPSubastaW.sol": {
		"Subasta": {
			"abi": [
				{
					"inputs": [
						{
							"internalType": "uint256",
							"name": "_auctionDurationMinutes",
							"type": "uint256"
						}
					],
					"stateMutability": "nonpayable",
					"type": "constructor"
				},
				{
					"anonymous": false,
					"inputs": [
						{
							"indexed": false,
							"internalType": "address",
							"name": "winner",
							"type": "address"
						},
						{
							"indexed": false,
							"internalType": "uint256",
							"name": "amount",
							"type": "uint256"
						}
					],
					"name": "AuctionEnded",
					"type": "event"
				},
				{
					"anonymous": false,
					"inputs": [
						{
							"indexed": false,
							"internalType": "uint256",
							"name": "newbidEndTime",
							"type": "uint256"
						}
					],
					"name": "AuctionExtended",
					"type": "event"
				},
				{
					"anonymous": false,
					"inputs": [
						{
							"indexed": true,
							"internalType": "address",
							"name": "bidder",
							"type": "address"
						},
						{
							"indexed": false,
							"internalType": "uint256",
							"name": "amount",
							"type": "uint256"
						},
						{
							"indexed": false,
							"internalType": "uint256",
							"name": "timestamp",
							"type": "uint256"
						}
					],
					"name": "NewBid",
					"type": "event"
				},
				{
					"anonymous": false,
					"inputs": [
						{
							"indexed": true,
							"internalType": "address",
							"name": "oferente",
							"type": "address"
						},
						{
							"indexed": false,
							"internalType": "uint256",
							"name": "monto",
							"type": "uint256"
						}
					],
					"name": "Refund",
					"type": "event"
				},
				{
					"anonymous": false,
					"inputs": [
						{
							"indexed": false,
							"internalType": "address",
							"name": "ganador",
							"type": "address"
						},
						{
							"indexed": false,
							"internalType": "uint256",
							"name": "montoGanador",
							"type": "uint256"
						}
					],
					"name": "WeHaveAWinner",
					"type": "event"
				},
				{
					"inputs": [],
					"name": "BID_INC_PERCENT",
					"outputs": [
						{
							"internalType": "uint256",
							"name": "",
							"type": "uint256"
						}
					],
					"stateMutability": "view",
					"type": "function"
				},
				{
					"inputs": [],
					"name": "EXTENSION_TIME",
					"outputs": [
						{
							"internalType": "uint256",
							"name": "",
							"type": "uint256"
						}
					],
					"stateMutability": "view",
					"type": "function"
				},
				{
					"inputs": [],
					"name": "GAS_FEE_PERCENT",
					"outputs": [
						{
							"internalType": "uint256",
							"name": "",
							"type": "uint256"
						}
					],
					"stateMutability": "view",
					"type": "function"
				},
				{
					"inputs": [],
					"name": "auctionEnded",
					"outputs": [
						{
							"internalType": "bool",
							"name": "",
							"type": "bool"
						}
					],
					"stateMutability": "view",
					"type": "function"
				},
				{
					"inputs": [],
					"name": "auctioneer",
					"outputs": [
						{
							"internalType": "address payable",
							"name": "",
							"type": "address"
						}
					],
					"stateMutability": "view",
					"type": "function"
				},
				{
					"inputs": [],
					"name": "bidEndTime",
					"outputs": [
						{
							"internalType": "uint256",
							"name": "",
							"type": "uint256"
						}
					],
					"stateMutability": "view",
					"type": "function"
				},
				{
					"inputs": [],
					"name": "bidStartTime",
					"outputs": [
						{
							"internalType": "uint256",
							"name": "",
							"type": "uint256"
						}
					],
					"stateMutability": "view",
					"type": "function"
				},
				{
					"inputs": [
						{
							"internalType": "uint256",
							"name": "",
							"type": "uint256"
						}
					],
					"name": "bids",
					"outputs": [
						{
							"internalType": "address payable",
							"name": "bidder",
							"type": "address"
						},
						{
							"internalType": "uint256",
							"name": "amount",
							"type": "uint256"
						}
					],
					"stateMutability": "view",
					"type": "function"
				},
				{
					"inputs": [
						{
							"internalType": "address",
							"name": "",
							"type": "address"
						}
					],
					"name": "deposits",
					"outputs": [
						{
							"internalType": "uint256",
							"name": "",
							"type": "uint256"
						}
					],
					"stateMutability": "view",
					"type": "function"
				},
				{
					"inputs": [],
					"name": "finalizeAuction",
					"outputs": [],
					"stateMutability": "nonpayable",
					"type": "function"
				},
				{
					"inputs": [],
					"name": "getBids",
					"outputs": [
						{
							"components": [
								{
									"internalType": "address payable",
									"name": "bidder",
									"type": "address"
								},
								{
									"internalType": "uint256",
									"name": "amount",
									"type": "uint256"
								}
							],
							"internalType": "struct Subasta.Bid[]",
							"name": "",
							"type": "tuple[]"
						}
					],
					"stateMutability": "view",
					"type": "function"
				},
				{
					"inputs": [],
					"name": "getWinner",
					"outputs": [
						{
							"internalType": "address",
							"name": "",
							"type": "address"
						},
						{
							"internalType": "uint256",
							"name": "",
							"type": "uint256"
						}
					],
					"stateMutability": "view",
					"type": "function"
				},
				{
					"inputs": [],
					"name": "highestBid",
					"outputs": [
						{
							"internalType": "address payable",
							"name": "bidder",
							"type": "address"
						},
						{
							"internalType": "uint256",
							"name": "amount",
							"type": "uint256"
						}
					],
					"stateMutability": "view",
					"type": "function"
				},
				{
					"inputs": [
						{
							"internalType": "uint256",
							"name": "bidAmount",
							"type": "uint256"
						}
					],
					"name": "placeBid",
					"outputs": [],
					"stateMutability": "payable",
					"type": "function"
				},
				{
					"inputs": [],
					"name": "refundLosingBids",
					"outputs": [],
					"stateMutability": "nonpayable",
					"type": "function"
				},
				{
					"inputs": [],
					"name": "withdrawPartialDeposit",
					"outputs": [],
					"stateMutability": "nonpayable",
					"type": "function"
				}
			],
			"devdoc": {
				"kind": "dev",
				"methods": {},
				"version": 1
			},
			"evm": {
				"assembly": "    /* \"contracts/TPSubastaW.sol\":1679:6039  contract Subasta {... */\n  mstore(0x40, 0x80)\n    /* \"contracts/TPSubastaW.sol\":2395:2650  constructor(uint256 _auctionDurationMinutes)... */\n  callvalue\n  dup1\n  iszero\n  tag_1\n  jumpi\n  0x00\n  dup1\n  revert\ntag_1:\n  pop\n  mload(0x40)\n  sub(codesize, bytecodeSize)\n  dup1\n  bytecodeSize\n  dup4\n  codecopy\n  dup2\n  dup2\n  add\n  0x40\n  mstore\n  dup2\n  add\n  swap1\n  tag_2\n  swap2\n  swap1\n  tag_3\n  jump\t// in\ntag_2:\n    /* \"contracts/TPSubastaW.sol\":2484:2494  msg.sender */\n  caller\n    /* \"contracts/TPSubastaW.sol\":2463:2473  auctioneer */\n  0x00\n  dup1\n    /* \"contracts/TPSubastaW.sol\":2463:2495  auctioneer = payable(msg.sender) */\n  0x0100\n  exp\n  dup2\n  sload\n  dup2\n  0xffffffffffffffffffffffffffffffffffffffff\n  mul\n  not\n  and\n  swap1\n  dup4\n  0xffffffffffffffffffffffffffffffffffffffff\n  and\n  mul\n  or\n  swap1\n  sstore\n  pop\n    /* \"contracts/TPSubastaW.sol\":2520:2535  block.timestamp */\n  timestamp\n    /* \"contracts/TPSubastaW.sol\":2505:2517  bidStartTime */\n  0x01\n    /* \"contracts/TPSubastaW.sol\":2505:2535  bidStartTime = block.timestamp */\n  dup2\n  swap1\n  sstore\n  pop\n    /* \"contracts/TPSubastaW.sol\":2603:2612  1 minutes */\n  0x3c\n    /* \"contracts/TPSubastaW.sol\":2577:2600  _auctionDurationMinutes */\n  dup2\n    /* \"contracts/TPSubastaW.sol\":2577:2612  _auctionDurationMinutes * 1 minutes */\n  tag_6\n  swap2\n  swap1\n  tag_7\n  jump\t// in\ntag_6:\n    /* \"contracts/TPSubastaW.sol\":2558:2573  block.timestamp */\n  timestamp\n    /* \"contracts/TPSubastaW.sol\":2558:2613  block.timestamp + (_auctionDurationMinutes * 1 minutes) */\n  tag_8\n  swap2\n  swap1\n  tag_9\n  jump\t// in\ntag_8:\n    /* \"contracts/TPSubastaW.sol\":2545:2555  bidEndTime */\n  0x02\n    /* \"contracts/TPSubastaW.sol\":2545:2613  bidEndTime = block.timestamp + (_auctionDurationMinutes * 1 minutes) */\n  dup2\n  swap1\n  sstore\n  pop\n    /* \"contracts/TPSubastaW.sol\":2638:2643  false */\n  0x00\n    /* \"contracts/TPSubastaW.sol\":2623:2635  auctionEnded */\n  0x03\n  0x00\n    /* \"contracts/TPSubastaW.sol\":2623:2643  auctionEnded = false */\n  0x0100\n  exp\n  dup2\n  sload\n  dup2\n  0xff\n  mul\n  not\n  and\n  swap1\n  dup4\n  iszero\n  iszero\n  mul\n  or\n  swap1\n  sstore\n  pop\n    /* \"contracts/TPSubastaW.sol\":2395:2650  constructor(uint256 _auctionDurationMinutes)... */\n  pop\n    /* \"contracts/TPSubastaW.sol\":1679:6039  contract Subasta {... */\n  jump(tag_10)\n    /* \"#utility.yul\":88:205   */\ntag_12:\n    /* \"#utility.yul\":197:198   */\n  0x00\n    /* \"#utility.yul\":194:195   */\n  dup1\n    /* \"#utility.yul\":187:199   */\n  revert\n    /* \"#utility.yul\":334:411   */\ntag_14:\n    /* \"#utility.yul\":371:378   */\n  0x00\n    /* \"#utility.yul\":400:405   */\n  dup2\n    /* \"#utility.yul\":389:405   */\n  swap1\n  pop\n    /* \"#utility.yul\":334:411   */\n  swap2\n  swap1\n  pop\n  jump\t// out\n    /* \"#utility.yul\":417:539   */\ntag_15:\n    /* \"#utility.yul\":490:514   */\n  tag_24\n    /* \"#utility.yul\":508:513   */\n  dup2\n    /* \"#utility.yul\":490:514   */\n  tag_14\n  jump\t// in\ntag_24:\n    /* \"#utility.yul\":483:488   */\n  dup2\n    /* \"#utility.yul\":480:515   */\n  eq\n    /* \"#utility.yul\":470:533   */\n  tag_25\n  jumpi\n    /* \"#utility.yul\":529:530   */\n  0x00\n    /* \"#utility.yul\":526:527   */\n  dup1\n    /* \"#utility.yul\":519:531   */\n  revert\n    /* \"#utility.yul\":470:533   */\ntag_25:\n    /* \"#utility.yul\":417:539   */\n  pop\n  jump\t// out\n    /* \"#utility.yul\":545:688   */\ntag_16:\n    /* \"#utility.yul\":602:607   */\n  0x00\n    /* \"#utility.yul\":633:639   */\n  dup2\n    /* \"#utility.yul\":627:640   */\n  mload\n    /* \"#utility.yul\":618:640   */\n  swap1\n  pop\n    /* \"#utility.yul\":649:682   */\n  tag_27\n    /* \"#utility.yul\":676:681   */\n  dup2\n    /* \"#utility.yul\":649:682   */\n  tag_15\n  jump\t// in\ntag_27:\n    /* \"#utility.yul\":545:688   */\n  swap3\n  swap2\n  pop\n  pop\n  jump\t// out\n    /* \"#utility.yul\":694:1045   */\ntag_3:\n    /* \"#utility.yul\":764:770   */\n  0x00\n    /* \"#utility.yul\":813:815   */\n  0x20\n    /* \"#utility.yul\":801:810   */\n  dup3\n    /* \"#utility.yul\":792:799   */\n  dup5\n    /* \"#utility.yul\":788:811   */\n  sub\n    /* \"#utility.yul\":784:816   */\n  slt\n    /* \"#utility.yul\":781:900   */\n  iszero\n  tag_29\n  jumpi\n    /* \"#utility.yul\":819:898   */\n  tag_30\n  tag_12\n  jump\t// in\ntag_30:\n    /* \"#utility.yul\":781:900   */\ntag_29:\n    /* \"#utility.yul\":939:940   */\n  0x00\n    /* \"#utility.yul\":964:1028   */\n  tag_31\n    /* \"#utility.yul\":1020:1027   */\n  dup5\n    /* \"#utility.yul\":1011:1017   */\n  dup3\n    /* \"#utility.yul\":1000:1009   */\n  dup6\n    /* \"#utility.yul\":996:1018   */\n  add\n    /* \"#utility.yul\":964:1028   */\n  tag_16\n  jump\t// in\ntag_31:\n    /* \"#utility.yul\":954:1028   */\n  swap2\n  pop\n    /* \"#utility.yul\":910:1038   */\n  pop\n    /* \"#utility.yul\":694:1045   */\n  swap3\n  swap2\n  pop\n  pop\n  jump\t// out\n    /* \"#utility.yul\":1051:1231   */\ntag_17:\n    /* \"#utility.yul\":1099:1176   */\n  0x4e487b7100000000000000000000000000000000000000000000000000000000\n    /* \"#utility.yul\":1096:1097   */\n  0x00\n    /* \"#utility.yul\":1089:1177   */\n  mstore\n    /* \"#utility.yul\":1196:1200   */\n  0x11\n    /* \"#utility.yul\":1193:1194   */\n  0x04\n    /* \"#utility.yul\":1186:1201   */\n  mstore\n    /* \"#utility.yul\":1220:1224   */\n  0x24\n    /* \"#utility.yul\":1217:1218   */\n  0x00\n    /* \"#utility.yul\":1210:1225   */\n  revert\n    /* \"#utility.yul\":1237:1647   */\ntag_7:\n    /* \"#utility.yul\":1277:1284   */\n  0x00\n    /* \"#utility.yul\":1300:1320   */\n  tag_34\n    /* \"#utility.yul\":1318:1319   */\n  dup3\n    /* \"#utility.yul\":1300:1320   */\n  tag_14\n  jump\t// in\ntag_34:\n    /* \"#utility.yul\":1295:1320   */\n  swap2\n  pop\n    /* \"#utility.yul\":1334:1354   */\n  tag_35\n    /* \"#utility.yul\":1352:1353   */\n  dup4\n    /* \"#utility.yul\":1334:1354   */\n  tag_14\n  jump\t// in\ntag_35:\n    /* \"#utility.yul\":1329:1354   */\n  swap3\n  pop\n    /* \"#utility.yul\":1389:1390   */\n  dup3\n    /* \"#utility.yul\":1386:1387   */\n  dup3\n    /* \"#utility.yul\":1382:1391   */\n  mul\n    /* \"#utility.yul\":1411:1441   */\n  tag_36\n    /* \"#utility.yul\":1429:1440   */\n  dup2\n    /* \"#utility.yul\":1411:1441   */\n  tag_14\n  jump\t// in\ntag_36:\n    /* \"#utility.yul\":1400:1441   */\n  swap2\n  pop\n    /* \"#utility.yul\":1590:1591   */\n  dup3\n    /* \"#utility.yul\":1581:1588   */\n  dup3\n    /* \"#utility.yul\":1577:1592   */\n  div\n    /* \"#utility.yul\":1574:1575   */\n  dup5\n    /* \"#utility.yul\":1571:1593   */\n  eq\n    /* \"#utility.yul\":1551:1552   */\n  dup4\n    /* \"#utility.yul\":1544:1553   */\n  iszero\n    /* \"#utility.yul\":1524:1607   */\n  or\n    /* \"#utility.yul\":1501:1640   */\n  tag_37\n  jumpi\n    /* \"#utility.yul\":1620:1638   */\n  tag_38\n  tag_17\n  jump\t// in\ntag_38:\n    /* \"#utility.yul\":1501:1640   */\ntag_37:\n    /* \"#utility.yul\":1285:1647   */\n  pop\n    /* \"#utility.yul\":1237:1647   */\n  swap3\n  swap2\n  pop\n  pop\n  jump\t// out\n    /* \"#utility.yul\":1653:1844   */\ntag_9:\n    /* \"#utility.yul\":1693:1696   */\n  0x00\n    /* \"#utility.yul\":1712:1732   */\n  tag_40\n    /* \"#utility.yul\":1730:1731   */\n  dup3\n    /* \"#utility.yul\":1712:1732   */\n  tag_14\n  jump\t// in\ntag_40:\n    /* \"#utility.yul\":1707:1732   */\n  swap2\n  pop\n    /* \"#utility.yul\":1746:1766   */\n  tag_41\n    /* \"#utility.yul\":1764:1765   */\n  dup4\n    /* \"#utility.yul\":1746:1766   */\n  tag_14\n  jump\t// in\ntag_41:\n    /* \"#utility.yul\":1741:1766   */\n  swap3\n  pop\n    /* \"#utility.yul\":1789:1790   */\n  dup3\n    /* \"#utility.yul\":1786:1787   */\n  dup3\n    /* \"#utility.yul\":1782:1791   */\n  add\n    /* \"#utility.yul\":1775:1791   */\n  swap1\n  pop\n    /* \"#utility.yul\":1810:1813   */\n  dup1\n    /* \"#utility.yul\":1807:1808   */\n  dup3\n    /* \"#utility.yul\":1804:1814   */\n  gt\n    /* \"#utility.yul\":1801:1837   */\n  iszero\n  tag_42\n  jumpi\n    /* \"#utility.yul\":1817:1835   */\n  tag_43\n  tag_17\n  jump\t// in\ntag_43:\n    /* \"#utility.yul\":1801:1837   */\ntag_42:\n    /* \"#utility.yul\":1653:1844   */\n  swap3\n  swap2\n  pop\n  pop\n  jump\t// out\n    /* \"contracts/TPSubastaW.sol\":1679:6039  contract Subasta {... */\ntag_10:\n  dataSize(sub_0)\n  dup1\n  dataOffset(sub_0)\n  0x00\n  codecopy\n  0x00\n  return\nstop\n\nsub_0: assembly {\n        /* \"contracts/TPSubastaW.sol\":1679:6039  contract Subasta {... */\n      mstore(0x40, 0x80)\n      jumpi(tag_1, lt(calldatasize, 0x04))\n      shr(0xe0, calldataload(0x00))\n      dup1\n      0x7bb44b83\n      gt\n      tag_18\n      jumpi\n      dup1\n      0xb81c78ec\n      gt\n      tag_19\n      jumpi\n      dup1\n      0xb81c78ec\n      eq\n      tag_14\n      jumpi\n      dup1\n      0xd57bde79\n      eq\n      tag_15\n      jumpi\n      dup1\n      0xf77282ab\n      eq\n      tag_16\n      jumpi\n      dup1\n      0xfc7e286d\n      eq\n      tag_17\n      jumpi\n      jump(tag_1)\n    tag_19:\n      dup1\n      0x7bb44b83\n      eq\n      tag_10\n      jumpi\n      dup1\n      0x86433374\n      eq\n      tag_11\n      jumpi\n      dup1\n      0x8e7ea5b2\n      eq\n      tag_12\n      jumpi\n      dup1\n      0x9979ef45\n      eq\n      tag_13\n      jumpi\n      jump(tag_1)\n    tag_18:\n      dup1\n      0x5ccf987e\n      gt\n      tag_20\n      jumpi\n      dup1\n      0x5ccf987e\n      eq\n      tag_6\n      jumpi\n      dup1\n      0x5ec2c7bf\n      eq\n      tag_7\n      jumpi\n      dup1\n      0x629e6b24\n      eq\n      tag_8\n      jumpi\n      dup1\n      0x6d4d09d7\n      eq\n      tag_9\n      jumpi\n      jump(tag_1)\n    tag_20:\n      dup1\n      0x2f6f81d9\n      eq\n      tag_2\n      jumpi\n      dup1\n      0x4423c5f1\n      eq\n      tag_3\n      jumpi\n      dup1\n      0x4ba9a927\n      eq\n      tag_4\n      jumpi\n      dup1\n      0x5681104a\n      eq\n      tag_5\n      jumpi\n    tag_1:\n      0x00\n      dup1\n      revert\n        /* \"contracts/TPSubastaW.sol\":1806:1849  uint256 public constant GAS_FEE_PERCENT = 2 */\n    tag_2:\n      callvalue\n      dup1\n      iszero\n      tag_21\n      jumpi\n      0x00\n      dup1\n      revert\n    tag_21:\n      pop\n      tag_22\n      tag_23\n      jump\t// in\n    tag_22:\n      mload(0x40)\n      tag_24\n      swap2\n      swap1\n      tag_25\n      jump\t// in\n    tag_24:\n      mload(0x40)\n      dup1\n      swap2\n      sub\n      swap1\n      return\n        /* \"contracts/TPSubastaW.sol\":2276:2293  Bid[] public bids */\n    tag_3:\n      callvalue\n      dup1\n      iszero\n      tag_26\n      jumpi\n      0x00\n      dup1\n      revert\n    tag_26:\n      pop\n      tag_27\n      0x04\n      dup1\n      calldatasize\n      sub\n      dup2\n      add\n      swap1\n      tag_28\n      swap2\n      swap1\n      tag_29\n      jump\t// in\n    tag_28:\n      tag_30\n      jump\t// in\n    tag_27:\n      mload(0x40)\n      tag_31\n      swap3\n      swap2\n      swap1\n      tag_32\n      jump\t// in\n    tag_31:\n      mload(0x40)\n      dup1\n      swap2\n      sub\n      swap1\n      return\n        /* \"contracts/TPSubastaW.sol\":1775:1800  uint256 public bidEndTime */\n    tag_4:\n      callvalue\n      dup1\n      iszero\n      tag_33\n      jumpi\n      0x00\n      dup1\n      revert\n    tag_33:\n      pop\n      tag_34\n      tag_35\n      jump\t// in\n    tag_34:\n      mload(0x40)\n      tag_36\n      swap2\n      swap1\n      tag_25\n      jump\t// in\n    tag_36:\n      mload(0x40)\n      dup1\n      swap2\n      sub\n      swap1\n      return\n        /* \"contracts/TPSubastaW.sol\":1875:1926  uint256 public constant EXTENSION_TIME = 10 minutes */\n    tag_5:\n      callvalue\n      dup1\n      iszero\n      tag_37\n      jumpi\n      0x00\n      dup1\n      revert\n    tag_37:\n      pop\n      tag_38\n      tag_39\n      jump\t// in\n    tag_38:\n      mload(0x40)\n      tag_40\n      swap2\n      swap1\n      tag_25\n      jump\t// in\n    tag_40:\n      mload(0x40)\n      dup1\n      swap2\n      sub\n      swap1\n      return\n        /* \"contracts/TPSubastaW.sol\":5311:5594  function withdrawPartialDeposit() public onlyBeforeEnd {... */\n    tag_6:\n      callvalue\n      dup1\n      iszero\n      tag_41\n      jumpi\n      0x00\n      dup1\n      revert\n    tag_41:\n      pop\n      tag_42\n      tag_43\n      jump\t// in\n    tag_42:\n      stop\n        /* \"contracts/TPSubastaW.sol\":1702:1735  address payable public auctioneer */\n    tag_7:\n      callvalue\n      dup1\n      iszero\n      tag_44\n      jumpi\n      0x00\n      dup1\n      revert\n    tag_44:\n      pop\n      tag_45\n      tag_46\n      jump\t// in\n    tag_45:\n      mload(0x40)\n      tag_47\n      swap2\n      swap1\n      tag_48\n      jump\t// in\n    tag_47:\n      mload(0x40)\n      dup1\n      swap2\n      sub\n      swap1\n      return\n        /* \"contracts/TPSubastaW.sol\":5600:6037  function refundLosingBids() public onlyAfterEnd {... */\n    tag_8:\n      callvalue\n      dup1\n      iszero\n      tag_49\n      jumpi\n      0x00\n      dup1\n      revert\n    tag_49:\n      pop\n      tag_50\n      tag_51\n      jump\t// in\n    tag_50:\n      stop\n        /* \"contracts/TPSubastaW.sol\":1741:1768  uint256 public bidStartTime */\n    tag_9:\n      callvalue\n      dup1\n      iszero\n      tag_52\n      jumpi\n      0x00\n      dup1\n      revert\n    tag_52:\n      pop\n      tag_53\n      tag_54\n      jump\t// in\n    tag_53:\n      mload(0x40)\n      tag_55\n      swap2\n      swap1\n      tag_25\n      jump\t// in\n    tag_55:\n      mload(0x40)\n      dup1\n      swap2\n      sub\n      swap1\n      return\n        /* \"contracts/TPSubastaW.sol\":1932:1975  uint256 public constant BID_INC_PERCENT = 5 */\n    tag_10:\n      callvalue\n      dup1\n      iszero\n      tag_56\n      jumpi\n      0x00\n      dup1\n      revert\n    tag_56:\n      pop\n      tag_57\n      tag_58\n      jump\t// in\n    tag_57:\n      mload(0x40)\n      tag_59\n      swap2\n      swap1\n      tag_25\n      jump\t// in\n    tag_59:\n      mload(0x40)\n      dup1\n      swap2\n      sub\n      swap1\n      return\n        /* \"contracts/TPSubastaW.sol\":2039:2063  bool public auctionEnded */\n    tag_11:\n      callvalue\n      dup1\n      iszero\n      tag_60\n      jumpi\n      0x00\n      dup1\n      revert\n    tag_60:\n      pop\n      tag_61\n      tag_62\n      jump\t// in\n    tag_61:\n      mload(0x40)\n      tag_63\n      swap2\n      swap1\n      tag_64\n      jump\t// in\n    tag_63:\n      mload(0x40)\n      dup1\n      swap2\n      sub\n      swap1\n      return\n        /* \"contracts/TPSubastaW.sol\":4638:4848  function getWinner() public view onlyAfterEnd returns (address, uint256) {... */\n    tag_12:\n      callvalue\n      dup1\n      iszero\n      tag_65\n      jumpi\n      0x00\n      dup1\n      revert\n    tag_65:\n      pop\n      tag_66\n      tag_67\n      jump\t// in\n    tag_66:\n      mload(0x40)\n      tag_68\n      swap3\n      swap2\n      swap1\n      tag_69\n      jump\t// in\n    tag_68:\n      mload(0x40)\n      dup1\n      swap2\n      sub\n      swap1\n      return\n        /* \"contracts/TPSubastaW.sol\":3671:4632  function placeBid(uint256 bidAmount) public payable onlyBeforeEnd {... */\n    tag_13:\n      tag_70\n      0x04\n      dup1\n      calldatasize\n      sub\n      dup2\n      add\n      swap1\n      tag_71\n      swap2\n      swap1\n      tag_29\n      jump\t// in\n    tag_71:\n      tag_72\n      jump\t// in\n    tag_70:\n      stop\n        /* \"contracts/TPSubastaW.sol\":4854:4936  function getBids() public view returns (Bid[] memory) {... */\n    tag_14:\n      callvalue\n      dup1\n      iszero\n      tag_73\n      jumpi\n      0x00\n      dup1\n      revert\n    tag_73:\n      pop\n      tag_74\n      tag_75\n      jump\t// in\n    tag_74:\n      mload(0x40)\n      tag_76\n      swap2\n      swap1\n      tag_77\n      jump\t// in\n    tag_76:\n      mload(0x40)\n      dup1\n      swap2\n      sub\n      swap1\n      return\n        /* \"contracts/TPSubastaW.sol\":2150:2171  Bid public highestBid */\n    tag_15:\n      callvalue\n      dup1\n      iszero\n      tag_78\n      jumpi\n      0x00\n      dup1\n      revert\n    tag_78:\n      pop\n      tag_79\n      tag_80\n      jump\t// in\n    tag_79:\n      mload(0x40)\n      tag_81\n      swap3\n      swap2\n      swap1\n      tag_32\n      jump\t// in\n    tag_81:\n      mload(0x40)\n      dup1\n      swap2\n      sub\n      swap1\n      return\n        /* \"contracts/TPSubastaW.sol\":4942:5305  function finalizeAuction() public onlyAuctioneer onlyAfterEnd {... */\n    tag_16:\n      callvalue\n      dup1\n      iszero\n      tag_82\n      jumpi\n      0x00\n      dup1\n      revert\n    tag_82:\n      pop\n      tag_83\n      tag_84\n      jump\t// in\n    tag_83:\n      stop\n        /* \"contracts/TPSubastaW.sol\":2222:2265  mapping(address => uint256) public deposits */\n    tag_17:\n      callvalue\n      dup1\n      iszero\n      tag_85\n      jumpi\n      0x00\n      dup1\n      revert\n    tag_85:\n      pop\n      tag_86\n      0x04\n      dup1\n      calldatasize\n      sub\n      dup2\n      add\n      swap1\n      tag_87\n      swap2\n      swap1\n      tag_88\n      jump\t// in\n    tag_87:\n      tag_89\n      jump\t// in\n    tag_86:\n      mload(0x40)\n      tag_90\n      swap2\n      swap1\n      tag_25\n      jump\t// in\n    tag_90:\n      mload(0x40)\n      dup1\n      swap2\n      sub\n      swap1\n      return\n        /* \"contracts/TPSubastaW.sol\":1806:1849  uint256 public constant GAS_FEE_PERCENT = 2 */\n    tag_23:\n        /* \"contracts/TPSubastaW.sol\":1848:1849  2 */\n      0x02\n        /* \"contracts/TPSubastaW.sol\":1806:1849  uint256 public constant GAS_FEE_PERCENT = 2 */\n      dup2\n      jump\t// out\n        /* \"contracts/TPSubastaW.sol\":2276:2293  Bid[] public bids */\n    tag_30:\n      0x07\n      dup2\n      dup2\n      sload\n      dup2\n      lt\n      tag_91\n      jumpi\n      0x00\n      dup1\n      revert\n    tag_91:\n      swap1\n      0x00\n      mstore\n      keccak256(0x00, 0x20)\n      swap1\n      0x02\n      mul\n      add\n      0x00\n      swap2\n      pop\n      swap1\n      pop\n      dup1\n      0x00\n      add\n      0x00\n      swap1\n      sload\n      swap1\n      0x0100\n      exp\n      swap1\n      div\n      0xffffffffffffffffffffffffffffffffffffffff\n      and\n      swap1\n      dup1\n      0x01\n      add\n      sload\n      swap1\n      pop\n      dup3\n      jump\t// out\n        /* \"contracts/TPSubastaW.sol\":1775:1800  uint256 public bidEndTime */\n    tag_35:\n      sload(0x02)\n      dup2\n      jump\t// out\n        /* \"contracts/TPSubastaW.sol\":1875:1926  uint256 public constant EXTENSION_TIME = 10 minutes */\n    tag_39:\n        /* \"contracts/TPSubastaW.sol\":1916:1926  10 minutes */\n      0x0258\n        /* \"contracts/TPSubastaW.sol\":1875:1926  uint256 public constant EXTENSION_TIME = 10 minutes */\n      dup2\n      jump\t// out\n        /* \"contracts/TPSubastaW.sol\":5311:5594  function withdrawPartialDeposit() public onlyBeforeEnd {... */\n    tag_43:\n        /* \"contracts/TPSubastaW.sol\":3237:3247  bidEndTime */\n      sload(0x02)\n        /* \"contracts/TPSubastaW.sol\":3219:3234  block.timestamp */\n      timestamp\n        /* \"contracts/TPSubastaW.sol\":3219:3247  block.timestamp < bidEndTime */\n      lt\n        /* \"contracts/TPSubastaW.sol\":3211:3278  require(block.timestamp < bidEndTime, \"Auction has already ended.\") */\n      tag_94\n      jumpi\n      mload(0x40)\n      0x08c379a000000000000000000000000000000000000000000000000000000000\n      dup2\n      mstore\n      0x04\n      add\n      tag_95\n      swap1\n      tag_96\n      jump\t// in\n    tag_95:\n      mload(0x40)\n      dup1\n      swap2\n      sub\n      swap1\n      revert\n    tag_94:\n        /* \"contracts/TPSubastaW.sol\":5376:5400  uint256 refundableAmount */\n      0x00\n        /* \"contracts/TPSubastaW.sol\":5403:5411  deposits */\n      0x06\n        /* \"contracts/TPSubastaW.sol\":5403:5423  deposits[msg.sender] */\n      0x00\n        /* \"contracts/TPSubastaW.sol\":5412:5422  msg.sender */\n      caller\n        /* \"contracts/TPSubastaW.sol\":5403:5423  deposits[msg.sender] */\n      0xffffffffffffffffffffffffffffffffffffffff\n      and\n      0xffffffffffffffffffffffffffffffffffffffff\n      and\n      dup2\n      mstore\n      0x20\n      add\n      swap1\n      dup2\n      mstore\n      0x20\n      add\n      0x00\n      keccak256\n      sload\n        /* \"contracts/TPSubastaW.sol\":5376:5423  uint256 refundableAmount = deposits[msg.sender] */\n      swap1\n      pop\n        /* \"contracts/TPSubastaW.sol\":5460:5461  0 */\n      0x00\n        /* \"contracts/TPSubastaW.sol\":5441:5457  refundableAmount */\n      dup2\n        /* \"contracts/TPSubastaW.sol\":5441:5461  refundableAmount > 0 */\n      gt\n        /* \"contracts/TPSubastaW.sol\":5433:5496  require(refundableAmount > 0, \"No funds available for refund.\") */\n      tag_98\n      jumpi\n      mload(0x40)\n      0x08c379a000000000000000000000000000000000000000000000000000000000\n      dup2\n      mstore\n      0x04\n      add\n      tag_99\n      swap1\n      tag_100\n      jump\t// in\n    tag_99:\n      mload(0x40)\n      dup1\n      swap2\n      sub\n      swap1\n      revert\n    tag_98:\n        /* \"contracts/TPSubastaW.sol\":5530:5531  0 */\n      0x00\n        /* \"contracts/TPSubastaW.sol\":5507:5515  deposits */\n      0x06\n        /* \"contracts/TPSubastaW.sol\":5507:5527  deposits[msg.sender] */\n      0x00\n        /* \"contracts/TPSubastaW.sol\":5516:5526  msg.sender */\n      caller\n        /* \"contracts/TPSubastaW.sol\":5507:5527  deposits[msg.sender] */\n      0xffffffffffffffffffffffffffffffffffffffff\n      and\n      0xffffffffffffffffffffffffffffffffffffffff\n      and\n      dup2\n      mstore\n      0x20\n      add\n      swap1\n      dup2\n      mstore\n      0x20\n      add\n      0x00\n      keccak256\n        /* \"contracts/TPSubastaW.sol\":5507:5531  deposits[msg.sender] = 0 */\n      dup2\n      swap1\n      sstore\n      pop\n        /* \"contracts/TPSubastaW.sol\":5549:5559  msg.sender */\n      caller\n        /* \"contracts/TPSubastaW.sol\":5541:5569  payable(msg.sender).transfer */\n      0xffffffffffffffffffffffffffffffffffffffff\n      and\n        /* \"contracts/TPSubastaW.sol\":5541:5587  payable(msg.sender).transfer(refundableAmount) */\n      0x08fc\n        /* \"contracts/TPSubastaW.sol\":5570:5586  refundableAmount */\n      dup3\n        /* \"contracts/TPSubastaW.sol\":5541:5587  payable(msg.sender).transfer(refundableAmount) */\n      swap1\n      dup2\n      iszero\n      mul\n      swap1\n      mload(0x40)\n      0x00\n      mload(0x40)\n      dup1\n      dup4\n      sub\n      dup2\n      dup6\n      dup9\n      dup9\n      call\n      swap4\n      pop\n      pop\n      pop\n      pop\n      iszero\n      dup1\n      iszero\n      tag_102\n      jumpi\n      returndatasize\n      0x00\n      dup1\n      returndatacopy\n      revert(0x00, returndatasize)\n    tag_102:\n      pop\n        /* \"contracts/TPSubastaW.sol\":5366:5594  {... */\n      pop\n        /* \"contracts/TPSubastaW.sol\":5311:5594  function withdrawPartialDeposit() public onlyBeforeEnd {... */\n      jump\t// out\n        /* \"contracts/TPSubastaW.sol\":1702:1735  address payable public auctioneer */\n    tag_46:\n      0x00\n      dup1\n      sload\n      swap1\n      0x0100\n      exp\n      swap1\n      div\n      0xffffffffffffffffffffffffffffffffffffffff\n      and\n      dup2\n      jump\t// out\n        /* \"contracts/TPSubastaW.sol\":5600:6037  function refundLosingBids() public onlyAfterEnd {... */\n    tag_51:\n        /* \"contracts/TPSubastaW.sol\":3363:3373  bidEndTime */\n      sload(0x02)\n        /* \"contracts/TPSubastaW.sol\":3344:3359  block.timestamp */\n      timestamp\n        /* \"contracts/TPSubastaW.sol\":3344:3373  block.timestamp >= bidEndTime */\n      lt\n      iszero\n        /* \"contracts/TPSubastaW.sol\":3336:3407  require(block.timestamp >= bidEndTime, \"Auction is still in progress.\") */\n      tag_104\n      jumpi\n      mload(0x40)\n      0x08c379a000000000000000000000000000000000000000000000000000000000\n      dup2\n      mstore\n      0x04\n      add\n      tag_105\n      swap1\n      tag_106\n      jump\t// in\n    tag_105:\n      mload(0x40)\n      dup1\n      swap2\n      sub\n      swap1\n      revert\n    tag_104:\n        /* \"contracts/TPSubastaW.sol\":5666:5678  auctionEnded */\n      0x03\n      0x00\n      swap1\n      sload\n      swap1\n      0x0100\n      exp\n      swap1\n      div\n      0xff\n      and\n        /* \"contracts/TPSubastaW.sol\":5658:5709  require(auctionEnded, \"Auction has not ended yet.\") */\n      tag_108\n      jumpi\n      mload(0x40)\n      0x08c379a000000000000000000000000000000000000000000000000000000000\n      dup2\n      mstore\n      0x04\n      add\n      tag_109\n      swap1\n      tag_110\n      jump\t// in\n    tag_109:\n      mload(0x40)\n      dup1\n      swap2\n      sub\n      swap1\n      revert\n    tag_108:\n        /* \"contracts/TPSubastaW.sol\":5719:5739  uint256 refundAmount */\n      0x00\n        /* \"contracts/TPSubastaW.sol\":5742:5750  deposits */\n      0x06\n        /* \"contracts/TPSubastaW.sol\":5742:5762  deposits[msg.sender] */\n      0x00\n        /* \"contracts/TPSubastaW.sol\":5751:5761  msg.sender */\n      caller\n        /* \"contracts/TPSubastaW.sol\":5742:5762  deposits[msg.sender] */\n      0xffffffffffffffffffffffffffffffffffffffff\n      and\n      0xffffffffffffffffffffffffffffffffffffffff\n      and\n      dup2\n      mstore\n      0x20\n      add\n      swap1\n      dup2\n      mstore\n      0x20\n      add\n      0x00\n      keccak256\n      sload\n        /* \"contracts/TPSubastaW.sol\":5719:5762  uint256 refundAmount = deposits[msg.sender] */\n      swap1\n      pop\n        /* \"contracts/TPSubastaW.sol\":5795:5796  0 */\n      0x00\n        /* \"contracts/TPSubastaW.sol\":5780:5792  refundAmount */\n      dup2\n        /* \"contracts/TPSubastaW.sol\":5780:5796  refundAmount > 0 */\n      gt\n        /* \"contracts/TPSubastaW.sol\":5772:5821  require(refundAmount > 0, \"No refund available.\") */\n      tag_111\n      jumpi\n      mload(0x40)\n      0x08c379a000000000000000000000000000000000000000000000000000000000\n      dup2\n      mstore\n      0x04\n      add\n      tag_112\n      swap1\n      tag_113\n      jump\t// in\n    tag_112:\n      mload(0x40)\n      dup1\n      swap2\n      sub\n      swap1\n      revert\n    tag_111:\n        /* \"contracts/TPSubastaW.sol\":5832:5846  uint256 gasFee */\n      0x00\n        /* \"contracts/TPSubastaW.sol\":5884:5887  100 */\n      0x64\n        /* \"contracts/TPSubastaW.sol\":1848:1849  2 */\n      0x02\n        /* \"contracts/TPSubastaW.sol\":5850:5862  refundAmount */\n      dup4\n        /* \"contracts/TPSubastaW.sol\":5850:5880  refundAmount * GAS_FEE_PERCENT */\n      tag_114\n      swap2\n      swap1\n      tag_115\n      jump\t// in\n    tag_114:\n        /* \"contracts/TPSubastaW.sol\":5849:5887  (refundAmount * GAS_FEE_PERCENT) / 100 */\n      tag_116\n      swap2\n      swap1\n      tag_117\n      jump\t// in\n    tag_116:\n        /* \"contracts/TPSubastaW.sol\":5832:5887  uint256 gasFee = (refundAmount * GAS_FEE_PERCENT) / 100 */\n      swap1\n      pop\n        /* \"contracts/TPSubastaW.sol\":5897:5918  uint256 refundWithFee */\n      0x00\n        /* \"contracts/TPSubastaW.sol\":5936:5942  gasFee */\n      dup2\n        /* \"contracts/TPSubastaW.sol\":5921:5933  refundAmount */\n      dup4\n        /* \"contracts/TPSubastaW.sol\":5921:5942  refundAmount - gasFee */\n      tag_118\n      swap2\n      swap1\n      tag_119\n      jump\t// in\n    tag_118:\n        /* \"contracts/TPSubastaW.sol\":5897:5942  uint256 refundWithFee = refundAmount - gasFee */\n      swap1\n      pop\n        /* \"contracts/TPSubastaW.sol\":5976:5977  0 */\n      0x00\n        /* \"contracts/TPSubastaW.sol\":5953:5961  deposits */\n      0x06\n        /* \"contracts/TPSubastaW.sol\":5953:5973  deposits[msg.sender] */\n      0x00\n        /* \"contracts/TPSubastaW.sol\":5962:5972  msg.sender */\n      caller\n        /* \"contracts/TPSubastaW.sol\":5953:5973  deposits[msg.sender] */\n      0xffffffffffffffffffffffffffffffffffffffff\n      and\n      0xffffffffffffffffffffffffffffffffffffffff\n      and\n      dup2\n      mstore\n      0x20\n      add\n      swap1\n      dup2\n      mstore\n      0x20\n      add\n      0x00\n      keccak256\n        /* \"contracts/TPSubastaW.sol\":5953:5977  deposits[msg.sender] = 0 */\n      dup2\n      swap1\n      sstore\n      pop\n        /* \"contracts/TPSubastaW.sol\":5995:6005  msg.sender */\n      caller\n        /* \"contracts/TPSubastaW.sol\":5987:6015  payable(msg.sender).transfer */\n      0xffffffffffffffffffffffffffffffffffffffff\n      and\n        /* \"contracts/TPSubastaW.sol\":5987:6030  payable(msg.sender).transfer(refundWithFee) */\n      0x08fc\n        /* \"contracts/TPSubastaW.sol\":6016:6029  refundWithFee */\n      dup3\n        /* \"contracts/TPSubastaW.sol\":5987:6030  payable(msg.sender).transfer(refundWithFee) */\n      swap1\n      dup2\n      iszero\n      mul\n      swap1\n      mload(0x40)\n      0x00\n      mload(0x40)\n      dup1\n      dup4\n      sub\n      dup2\n      dup6\n      dup9\n      dup9\n      call\n      swap4\n      pop\n      pop\n      pop\n      pop\n      iszero\n      dup1\n      iszero\n      tag_121\n      jumpi\n      returndatasize\n      0x00\n      dup1\n      returndatacopy\n      revert(0x00, returndatasize)\n    tag_121:\n      pop\n        /* \"contracts/TPSubastaW.sol\":5648:6037  {... */\n      pop\n      pop\n      pop\n        /* \"contracts/TPSubastaW.sol\":5600:6037  function refundLosingBids() public onlyAfterEnd {... */\n      jump\t// out\n        /* \"contracts/TPSubastaW.sol\":1741:1768  uint256 public bidStartTime */\n    tag_54:\n      sload(0x01)\n      dup2\n      jump\t// out\n        /* \"contracts/TPSubastaW.sol\":1932:1975  uint256 public constant BID_INC_PERCENT = 5 */\n    tag_58:\n        /* \"contracts/TPSubastaW.sol\":1974:1975  5 */\n      0x05\n        /* \"contracts/TPSubastaW.sol\":1932:1975  uint256 public constant BID_INC_PERCENT = 5 */\n      dup2\n      jump\t// out\n        /* \"contracts/TPSubastaW.sol\":2039:2063  bool public auctionEnded */\n    tag_62:\n      0x03\n      0x00\n      swap1\n      sload\n      swap1\n      0x0100\n      exp\n      swap1\n      div\n      0xff\n      and\n      dup2\n      jump\t// out\n        /* \"contracts/TPSubastaW.sol\":4638:4848  function getWinner() public view onlyAfterEnd returns (address, uint256) {... */\n    tag_67:\n        /* \"contracts/TPSubastaW.sol\":4693:4700  address */\n      0x00\n        /* \"contracts/TPSubastaW.sol\":4702:4709  uint256 */\n      dup1\n        /* \"contracts/TPSubastaW.sol\":3363:3373  bidEndTime */\n      sload(0x02)\n        /* \"contracts/TPSubastaW.sol\":3344:3359  block.timestamp */\n      timestamp\n        /* \"contracts/TPSubastaW.sol\":3344:3373  block.timestamp >= bidEndTime */\n      lt\n      iszero\n        /* \"contracts/TPSubastaW.sol\":3336:3407  require(block.timestamp >= bidEndTime, \"Auction is still in progress.\") */\n      tag_123\n      jumpi\n      mload(0x40)\n      0x08c379a000000000000000000000000000000000000000000000000000000000\n      dup2\n      mstore\n      0x04\n      add\n      tag_124\n      swap1\n      tag_106\n      jump\t// in\n    tag_124:\n      mload(0x40)\n      dup1\n      swap2\n      sub\n      swap1\n      revert\n    tag_123:\n        /* \"contracts/TPSubastaW.sol\":4729:4741  auctionEnded */\n      0x03\n      0x00\n      swap1\n      sload\n      swap1\n      0x0100\n      exp\n      swap1\n      div\n      0xff\n      and\n        /* \"contracts/TPSubastaW.sol\":4721:4786  require(auctionEnded, \"Auction must be ended to get the winner.\") */\n      tag_126\n      jumpi\n      mload(0x40)\n      0x08c379a000000000000000000000000000000000000000000000000000000000\n      dup2\n      mstore\n      0x04\n      add\n      tag_127\n      swap1\n      tag_128\n      jump\t// in\n    tag_127:\n      mload(0x40)\n      dup1\n      swap2\n      sub\n      swap1\n      revert\n    tag_126:\n        /* \"contracts/TPSubastaW.sol\":4804:4814  highestBid */\n      0x04\n        /* \"contracts/TPSubastaW.sol\":4804:4821  highestBid.bidder */\n      0x00\n      add\n      0x00\n      swap1\n      sload\n      swap1\n      0x0100\n      exp\n      swap1\n      div\n      0xffffffffffffffffffffffffffffffffffffffff\n      and\n        /* \"contracts/TPSubastaW.sol\":4823:4833  highestBid */\n      0x04\n        /* \"contracts/TPSubastaW.sol\":4823:4840  highestBid.amount */\n      0x01\n      add\n      sload\n        /* \"contracts/TPSubastaW.sol\":4796:4841  return (highestBid.bidder, highestBid.amount) */\n      swap2\n      pop\n      swap2\n      pop\n        /* \"contracts/TPSubastaW.sol\":4638:4848  function getWinner() public view onlyAfterEnd returns (address, uint256) {... */\n      swap1\n      swap2\n      jump\t// out\n        /* \"contracts/TPSubastaW.sol\":3671:4632  function placeBid(uint256 bidAmount) public payable onlyBeforeEnd {... */\n    tag_72:\n        /* \"contracts/TPSubastaW.sol\":3237:3247  bidEndTime */\n      sload(0x02)\n        /* \"contracts/TPSubastaW.sol\":3219:3234  block.timestamp */\n      timestamp\n        /* \"contracts/TPSubastaW.sol\":3219:3247  block.timestamp < bidEndTime */\n      lt\n        /* \"contracts/TPSubastaW.sol\":3211:3278  require(block.timestamp < bidEndTime, \"Auction has already ended.\") */\n      tag_130\n      jumpi\n      mload(0x40)\n      0x08c379a000000000000000000000000000000000000000000000000000000000\n      dup2\n      mstore\n      0x04\n      add\n      tag_131\n      swap1\n      tag_96\n      jump\t// in\n    tag_131:\n      mload(0x40)\n      dup1\n      swap2\n      sub\n      swap1\n      revert\n    tag_130:\n        /* \"contracts/TPSubastaW.sol\":3767:3768  0 */\n      0x00\n        /* \"contracts/TPSubastaW.sol\":3755:3764  bidAmount */\n      dup2\n        /* \"contracts/TPSubastaW.sol\":3755:3768  bidAmount > 0 */\n      gt\n        /* \"contracts/TPSubastaW.sol\":3747:3810  require(bidAmount > 0, \"Bid amount must be greater than zero.\") */\n      tag_133\n      jumpi\n      mload(0x40)\n      0x08c379a000000000000000000000000000000000000000000000000000000000\n      dup2\n      mstore\n      0x04\n      add\n      tag_134\n      swap1\n      tag_135\n      jump\t// in\n    tag_134:\n      mload(0x40)\n      dup1\n      swap2\n      sub\n      swap1\n      revert\n    tag_133:\n        /* \"contracts/TPSubastaW.sol\":3820:3840  uint256 minBidAmount */\n      0x00\n        /* \"contracts/TPSubastaW.sol\":3903:3906  100 */\n      0x64\n        /* \"contracts/TPSubastaW.sol\":1974:1975  5 */\n      0x05\n        /* \"contracts/TPSubastaW.sol\":3864:3874  highestBid */\n      0x04\n        /* \"contracts/TPSubastaW.sol\":3864:3881  highestBid.amount */\n      0x01\n      add\n      sload\n        /* \"contracts/TPSubastaW.sol\":3864:3899  highestBid.amount * BID_INC_PERCENT */\n      tag_136\n      swap2\n      swap1\n      tag_115\n      jump\t// in\n    tag_136:\n        /* \"contracts/TPSubastaW.sol\":3863:3906  (highestBid.amount * BID_INC_PERCENT) / 100 */\n      tag_137\n      swap2\n      swap1\n      tag_117\n      jump\t// in\n    tag_137:\n        /* \"contracts/TPSubastaW.sol\":3843:3853  highestBid */\n      0x04\n        /* \"contracts/TPSubastaW.sol\":3843:3860  highestBid.amount */\n      0x01\n      add\n      sload\n        /* \"contracts/TPSubastaW.sol\":3843:3906  highestBid.amount + (highestBid.amount * BID_INC_PERCENT) / 100 */\n      tag_138\n      swap2\n      swap1\n      tag_139\n      jump\t// in\n    tag_138:\n        /* \"contracts/TPSubastaW.sol\":3820:3906  uint256 minBidAmount = highestBid.amount + (highestBid.amount * BID_INC_PERCENT) / 100 */\n      swap1\n      pop\n        /* \"contracts/TPSubastaW.sol\":3950:3962  minBidAmount */\n      dup1\n        /* \"contracts/TPSubastaW.sol\":3937:3946  msg.value */\n      callvalue\n        /* \"contracts/TPSubastaW.sol\":3937:3962  msg.value >= minBidAmount */\n      lt\n      iszero\n        /* \"contracts/TPSubastaW.sol\":3916:4048  require(... */\n      tag_140\n      jumpi\n      mload(0x40)\n      0x08c379a000000000000000000000000000000000000000000000000000000000\n      dup2\n      mstore\n      0x04\n      add\n      tag_141\n      swap1\n      tag_142\n      jump\t// in\n    tag_141:\n      mload(0x40)\n      dup1\n      swap2\n      sub\n      swap1\n      revert\n    tag_140:\n        /* \"contracts/TPSubastaW.sol\":4154:4155  0 */\n      0x00\n        /* \"contracts/TPSubastaW.sol\":4125:4156  highestBid.bidder != address(0) */\n      0xffffffffffffffffffffffffffffffffffffffff\n      and\n        /* \"contracts/TPSubastaW.sol\":4125:4135  highestBid */\n      0x04\n        /* \"contracts/TPSubastaW.sol\":4125:4142  highestBid.bidder */\n      0x00\n      add\n      0x00\n      swap1\n      sload\n      swap1\n      0x0100\n      exp\n      swap1\n      div\n      0xffffffffffffffffffffffffffffffffffffffff\n      and\n        /* \"contracts/TPSubastaW.sol\":4125:4156  highestBid.bidder != address(0) */\n      0xffffffffffffffffffffffffffffffffffffffff\n      and\n      eq\n        /* \"contracts/TPSubastaW.sol\":4121:4231  if (highestBid.bidder != address(0)) {... */\n      tag_143\n      jumpi\n        /* \"contracts/TPSubastaW.sol\":4203:4213  highestBid */\n      0x04\n        /* \"contracts/TPSubastaW.sol\":4203:4220  highestBid.amount */\n      0x01\n      add\n      sload\n        /* \"contracts/TPSubastaW.sol\":4172:4180  deposits */\n      0x06\n        /* \"contracts/TPSubastaW.sol\":4172:4199  deposits[highestBid.bidder] */\n      0x00\n        /* \"contracts/TPSubastaW.sol\":4181:4191  highestBid */\n      0x04\n        /* \"contracts/TPSubastaW.sol\":4181:4198  highestBid.bidder */\n      0x00\n      add\n      0x00\n      swap1\n      sload\n      swap1\n      0x0100\n      exp\n      swap1\n      div\n      0xffffffffffffffffffffffffffffffffffffffff\n      and\n        /* \"contracts/TPSubastaW.sol\":4172:4199  deposits[highestBid.bidder] */\n      0xffffffffffffffffffffffffffffffffffffffff\n      and\n      0xffffffffffffffffffffffffffffffffffffffff\n      and\n      dup2\n      mstore\n      0x20\n      add\n      swap1\n      dup2\n      mstore\n      0x20\n      add\n      0x00\n      keccak256\n      0x00\n        /* \"contracts/TPSubastaW.sol\":4172:4220  deposits[highestBid.bidder] += highestBid.amount */\n      dup3\n      dup3\n      sload\n      tag_144\n      swap2\n      swap1\n      tag_139\n      jump\t// in\n    tag_144:\n      swap3\n      pop\n      pop\n      dup2\n      swap1\n      sstore\n      pop\n        /* \"contracts/TPSubastaW.sol\":4121:4231  if (highestBid.bidder != address(0)) {... */\n    tag_143:\n        /* \"contracts/TPSubastaW.sol\":4254:4289  Bid(payable(msg.sender), msg.value) */\n      mload(0x40)\n      dup1\n      0x40\n      add\n      0x40\n      mstore\n      dup1\n        /* \"contracts/TPSubastaW.sol\":4266:4276  msg.sender */\n      caller\n        /* \"contracts/TPSubastaW.sol\":4254:4289  Bid(payable(msg.sender), msg.value) */\n      0xffffffffffffffffffffffffffffffffffffffff\n      and\n      dup2\n      mstore\n      0x20\n      add\n        /* \"contracts/TPSubastaW.sol\":4279:4288  msg.value */\n      callvalue\n        /* \"contracts/TPSubastaW.sol\":4254:4289  Bid(payable(msg.sender), msg.value) */\n      dup2\n      mstore\n      pop\n        /* \"contracts/TPSubastaW.sol\":4241:4251  highestBid */\n      0x04\n        /* \"contracts/TPSubastaW.sol\":4241:4289  highestBid = Bid(payable(msg.sender), msg.value) */\n      0x00\n      dup3\n      add\n      mload\n      dup2\n      0x00\n      add\n      exp(0x0100, 0x00)\n      dup2\n      sload\n      dup2\n      0xffffffffffffffffffffffffffffffffffffffff\n      mul\n      not\n      and\n      swap1\n      dup4\n      0xffffffffffffffffffffffffffffffffffffffff\n      and\n      mul\n      or\n      swap1\n      sstore\n      pop\n      0x20\n      dup3\n      add\n      mload\n      dup2\n      0x01\n      add\n      sstore\n      swap1\n      pop\n      pop\n        /* \"contracts/TPSubastaW.sol\":4299:4303  bids */\n      0x07\n        /* \"contracts/TPSubastaW.sol\":4309:4319  highestBid */\n      0x04\n        /* \"contracts/TPSubastaW.sol\":4299:4320  bids.push(highestBid) */\n      swap1\n      dup1\n      0x01\n      dup2\n      sload\n      add\n      dup1\n      dup3\n      sstore\n      dup1\n      swap2\n      pop\n      pop\n      0x01\n      swap1\n      sub\n      swap1\n      0x00\n      mstore\n      keccak256(0x00, 0x20)\n      swap1\n      0x02\n      mul\n      add\n      0x00\n      swap1\n      swap2\n      swap1\n      swap2\n      swap1\n      swap2\n      pop\n      0x00\n      dup3\n      add\n      0x00\n      swap1\n      sload\n      swap1\n      0x0100\n      exp\n      swap1\n      div\n      0xffffffffffffffffffffffffffffffffffffffff\n      and\n      dup2\n      0x00\n      add\n      exp(0x0100, 0x00)\n      dup2\n      sload\n      dup2\n      0xffffffffffffffffffffffffffffffffffffffff\n      mul\n      not\n      and\n      swap1\n      dup4\n      0xffffffffffffffffffffffffffffffffffffffff\n      and\n      mul\n      or\n      swap1\n      sstore\n      pop\n      0x01\n      dup3\n      add\n      sload\n      dup2\n      0x01\n      add\n      sstore\n      pop\n      pop\n        /* \"contracts/TPSubastaW.sol\":4458:4468  10 minutes */\n      0x0258\n        /* \"contracts/TPSubastaW.sol\":4445:4455  bidEndTime */\n      sload(0x02)\n        /* \"contracts/TPSubastaW.sol\":4445:4468  bidEndTime - 10 minutes */\n      tag_146\n      swap2\n      swap1\n      tag_119\n      jump\t// in\n    tag_146:\n        /* \"contracts/TPSubastaW.sol\":4426:4441  block.timestamp */\n      timestamp\n        /* \"contracts/TPSubastaW.sol\":4426:4468  block.timestamp >= bidEndTime - 10 minutes */\n      lt\n        /* \"contracts/TPSubastaW.sol\":4422:4565  if (block.timestamp >= bidEndTime - 10 minutes) {... */\n      tag_147\n      jumpi\n        /* \"contracts/TPSubastaW.sol\":4498:4508  10 minutes */\n      0x0258\n        /* \"contracts/TPSubastaW.sol\":4484:4494  bidEndTime */\n      0x02\n      0x00\n        /* \"contracts/TPSubastaW.sol\":4484:4508  bidEndTime += 10 minutes */\n      dup3\n      dup3\n      sload\n      tag_148\n      swap2\n      swap1\n      tag_139\n      jump\t// in\n    tag_148:\n      swap3\n      pop\n      pop\n      dup2\n      swap1\n      sstore\n      pop\n        /* \"contracts/TPSubastaW.sol\":4527:4554  AuctionExtended(bidEndTime) */\n      0xc2b459809119087ca9d2bc10dea53a51b7d848b1a11075db037bdca58292c3e8\n        /* \"contracts/TPSubastaW.sol\":4543:4553  bidEndTime */\n      sload(0x02)\n        /* \"contracts/TPSubastaW.sol\":4527:4554  AuctionExtended(bidEndTime) */\n      mload(0x40)\n      tag_149\n      swap2\n      swap1\n      tag_25\n      jump\t// in\n    tag_149:\n      mload(0x40)\n      dup1\n      swap2\n      sub\n      swap1\n      log1\n        /* \"contracts/TPSubastaW.sol\":4422:4565  if (block.timestamp >= bidEndTime - 10 minutes) {... */\n    tag_147:\n        /* \"contracts/TPSubastaW.sol\":4587:4597  msg.sender */\n      caller\n        /* \"contracts/TPSubastaW.sol\":4580:4625  NewBid(msg.sender, msg.value,block.timestamp) */\n      0xffffffffffffffffffffffffffffffffffffffff\n      and\n      0x87f5b2fe112bf269d30fb8ca9dc0bde0afd0cc39258e13fafd75fe794795bf0e\n        /* \"contracts/TPSubastaW.sol\":4599:4608  msg.value */\n      callvalue\n        /* \"contracts/TPSubastaW.sol\":4609:4624  block.timestamp */\n      timestamp\n        /* \"contracts/TPSubastaW.sol\":4580:4625  NewBid(msg.sender, msg.value,block.timestamp) */\n      mload(0x40)\n      tag_150\n      swap3\n      swap2\n      swap1\n      tag_151\n      jump\t// in\n    tag_150:\n      mload(0x40)\n      dup1\n      swap2\n      sub\n      swap1\n      log2\n        /* \"contracts/TPSubastaW.sol\":3737:4632  {... */\n      pop\n        /* \"contracts/TPSubastaW.sol\":3671:4632  function placeBid(uint256 bidAmount) public payable onlyBeforeEnd {... */\n      pop\n      jump\t// out\n        /* \"contracts/TPSubastaW.sol\":4854:4936  function getBids() public view returns (Bid[] memory) {... */\n    tag_75:\n        /* \"contracts/TPSubastaW.sol\":4894:4906  Bid[] memory */\n      0x60\n        /* \"contracts/TPSubastaW.sol\":4925:4929  bids */\n      0x07\n        /* \"contracts/TPSubastaW.sol\":4918:4929  return bids */\n      dup1\n      sload\n      dup1\n      0x20\n      mul\n      0x20\n      add\n      mload(0x40)\n      swap1\n      dup2\n      add\n      0x40\n      mstore\n      dup1\n      swap3\n      swap2\n      swap1\n      dup2\n      dup2\n      mstore\n      0x20\n      add\n      0x00\n      swap1\n    tag_153:\n      dup3\n      dup3\n      lt\n      iszero\n      tag_154\n      jumpi\n      dup4\n      dup3\n      swap1\n      0x00\n      mstore\n      keccak256(0x00, 0x20)\n      swap1\n      0x02\n      mul\n      add\n      mload(0x40)\n      dup1\n      0x40\n      add\n      0x40\n      mstore\n      swap1\n      dup2\n      0x00\n      dup3\n      add\n      0x00\n      swap1\n      sload\n      swap1\n      0x0100\n      exp\n      swap1\n      div\n      0xffffffffffffffffffffffffffffffffffffffff\n      and\n      0xffffffffffffffffffffffffffffffffffffffff\n      and\n      0xffffffffffffffffffffffffffffffffffffffff\n      and\n      dup2\n      mstore\n      0x20\n      add\n      0x01\n      dup3\n      add\n      sload\n      dup2\n      mstore\n      pop\n      pop\n      dup2\n      mstore\n      0x20\n      add\n      swap1\n      0x01\n      add\n      swap1\n      jump(tag_153)\n    tag_154:\n      pop\n      pop\n      pop\n      pop\n      swap1\n      pop\n        /* \"contracts/TPSubastaW.sol\":4854:4936  function getBids() public view returns (Bid[] memory) {... */\n      swap1\n      jump\t// out\n        /* \"contracts/TPSubastaW.sol\":2150:2171  Bid public highestBid */\n    tag_80:\n      0x04\n      dup1\n      0x00\n      add\n      0x00\n      swap1\n      sload\n      swap1\n      0x0100\n      exp\n      swap1\n      div\n      0xffffffffffffffffffffffffffffffffffffffff\n      and\n      swap1\n      dup1\n      0x01\n      add\n      sload\n      swap1\n      pop\n      dup3\n      jump\t// out\n        /* \"contracts/TPSubastaW.sol\":4942:5305  function finalizeAuction() public onlyAuctioneer onlyAfterEnd {... */\n    tag_84:\n        /* \"contracts/TPSubastaW.sol\":3080:3090  auctioneer */\n      0x00\n      dup1\n      sload\n      swap1\n      0x0100\n      exp\n      swap1\n      div\n      0xffffffffffffffffffffffffffffffffffffffff\n      and\n        /* \"contracts/TPSubastaW.sol\":3066:3090  msg.sender == auctioneer */\n      0xffffffffffffffffffffffffffffffffffffffff\n      and\n        /* \"contracts/TPSubastaW.sol\":3066:3076  msg.sender */\n      caller\n        /* \"contracts/TPSubastaW.sol\":3066:3090  msg.sender == auctioneer */\n      0xffffffffffffffffffffffffffffffffffffffff\n      and\n      eq\n        /* \"contracts/TPSubastaW.sol\":3045:3152  require(... */\n      tag_157\n      jumpi\n      mload(0x40)\n      0x08c379a000000000000000000000000000000000000000000000000000000000\n      dup2\n      mstore\n      0x04\n      add\n      tag_158\n      swap1\n      tag_159\n      jump\t// in\n    tag_158:\n      mload(0x40)\n      dup1\n      swap2\n      sub\n      swap1\n      revert\n    tag_157:\n        /* \"contracts/TPSubastaW.sol\":3363:3373  bidEndTime */\n      sload(0x02)\n        /* \"contracts/TPSubastaW.sol\":3344:3359  block.timestamp */\n      timestamp\n        /* \"contracts/TPSubastaW.sol\":3344:3373  block.timestamp >= bidEndTime */\n      lt\n      iszero\n        /* \"contracts/TPSubastaW.sol\":3336:3407  require(block.timestamp >= bidEndTime, \"Auction is still in progress.\") */\n      tag_161\n      jumpi\n      mload(0x40)\n      0x08c379a000000000000000000000000000000000000000000000000000000000\n      dup2\n      mstore\n      0x04\n      add\n      tag_162\n      swap1\n      tag_106\n      jump\t// in\n    tag_162:\n      mload(0x40)\n      dup1\n      swap2\n      sub\n      swap1\n      revert\n    tag_161:\n        /* \"contracts/TPSubastaW.sol\":5023:5035  auctionEnded */\n      0x03\n      0x00\n      swap1\n      sload\n      swap1\n      0x0100\n      exp\n      swap1\n      div\n      0xff\n      and\n        /* \"contracts/TPSubastaW.sol\":5022:5035  !auctionEnded */\n      iszero\n        /* \"contracts/TPSubastaW.sol\":5014:5075  require(!auctionEnded, \"Auction has already been finalized.\") */\n      tag_164\n      jumpi\n      mload(0x40)\n      0x08c379a000000000000000000000000000000000000000000000000000000000\n      dup2\n      mstore\n      0x04\n      add\n      tag_165\n      swap1\n      tag_166\n      jump\t// in\n    tag_165:\n      mload(0x40)\n      dup1\n      swap2\n      sub\n      swap1\n      revert\n    tag_164:\n        /* \"contracts/TPSubastaW.sol\":5100:5104  true */\n      0x01\n        /* \"contracts/TPSubastaW.sol\":5085:5097  auctionEnded */\n      0x03\n      0x00\n        /* \"contracts/TPSubastaW.sol\":5085:5104  auctionEnded = true */\n      0x0100\n      exp\n      dup2\n      sload\n      dup2\n      0xff\n      mul\n      not\n      and\n      swap1\n      dup4\n      iszero\n      iszero\n      mul\n      or\n      swap1\n      sstore\n      pop\n        /* \"contracts/TPSubastaW.sol\":5115:5129  uint256 gasFee */\n      0x00\n        /* \"contracts/TPSubastaW.sol\":5172:5175  100 */\n      0x64\n        /* \"contracts/TPSubastaW.sol\":1848:1849  2 */\n      0x02\n        /* \"contracts/TPSubastaW.sol\":5133:5143  highestBid */\n      0x04\n        /* \"contracts/TPSubastaW.sol\":5133:5150  highestBid.amount */\n      0x01\n      add\n      sload\n        /* \"contracts/TPSubastaW.sol\":5133:5168  highestBid.amount * GAS_FEE_PERCENT */\n      tag_167\n      swap2\n      swap1\n      tag_115\n      jump\t// in\n    tag_167:\n        /* \"contracts/TPSubastaW.sol\":5132:5175  (highestBid.amount * GAS_FEE_PERCENT) / 100 */\n      tag_168\n      swap2\n      swap1\n      tag_117\n      jump\t// in\n    tag_168:\n        /* \"contracts/TPSubastaW.sol\":5115:5175  uint256 gasFee = (highestBid.amount * GAS_FEE_PERCENT) / 100 */\n      swap1\n      pop\n        /* \"contracts/TPSubastaW.sol\":5185:5195  auctioneer */\n      0x00\n      dup1\n      sload\n      swap1\n      0x0100\n      exp\n      swap1\n      div\n      0xffffffffffffffffffffffffffffffffffffffff\n      and\n        /* \"contracts/TPSubastaW.sol\":5185:5204  auctioneer.transfer */\n      0xffffffffffffffffffffffffffffffffffffffff\n      and\n        /* \"contracts/TPSubastaW.sol\":5185:5232  auctioneer.transfer(highestBid.amount - gasFee) */\n      0x08fc\n        /* \"contracts/TPSubastaW.sol\":5225:5231  gasFee */\n      dup3\n        /* \"contracts/TPSubastaW.sol\":5205:5215  highestBid */\n      0x04\n        /* \"contracts/TPSubastaW.sol\":5205:5222  highestBid.amount */\n      0x01\n      add\n      sload\n        /* \"contracts/TPSubastaW.sol\":5205:5231  highestBid.amount - gasFee */\n      tag_169\n      swap2\n      swap1\n      tag_119\n      jump\t// in\n    tag_169:\n        /* \"contracts/TPSubastaW.sol\":5185:5232  auctioneer.transfer(highestBid.amount - gasFee) */\n      swap1\n      dup2\n      iszero\n      mul\n      swap1\n      mload(0x40)\n      0x00\n      mload(0x40)\n      dup1\n      dup4\n      sub\n      dup2\n      dup6\n      dup9\n      dup9\n      call\n      swap4\n      pop\n      pop\n      pop\n      pop\n      iszero\n      dup1\n      iszero\n      tag_171\n      jumpi\n      returndatasize\n      0x00\n      dup1\n      returndatacopy\n      revert(0x00, returndatasize)\n    tag_171:\n      pop\n        /* \"contracts/TPSubastaW.sol\":5248:5298  AuctionEnded(highestBid.bidder, highestBid.amount) */\n      0xdaec4582d5d9595688c8c98545fdd1c696d41c6aeaeb636737e84ed2f5c00eda\n        /* \"contracts/TPSubastaW.sol\":5261:5271  highestBid */\n      0x04\n        /* \"contracts/TPSubastaW.sol\":5261:5278  highestBid.bidder */\n      0x00\n      add\n      0x00\n      swap1\n      sload\n      swap1\n      0x0100\n      exp\n      swap1\n      div\n      0xffffffffffffffffffffffffffffffffffffffff\n      and\n        /* \"contracts/TPSubastaW.sol\":5280:5290  highestBid */\n      0x04\n        /* \"contracts/TPSubastaW.sol\":5280:5297  highestBid.amount */\n      0x01\n      add\n      sload\n        /* \"contracts/TPSubastaW.sol\":5248:5298  AuctionEnded(highestBid.bidder, highestBid.amount) */\n      mload(0x40)\n      tag_172\n      swap3\n      swap2\n      swap1\n      tag_173\n      jump\t// in\n    tag_172:\n      mload(0x40)\n      dup1\n      swap2\n      sub\n      swap1\n      log1\n        /* \"contracts/TPSubastaW.sol\":5004:5305  {... */\n      pop\n        /* \"contracts/TPSubastaW.sol\":4942:5305  function finalizeAuction() public onlyAuctioneer onlyAfterEnd {... */\n      jump\t// out\n        /* \"contracts/TPSubastaW.sol\":2222:2265  mapping(address => uint256) public deposits */\n    tag_89:\n      mstore(0x20, 0x06)\n      dup1\n      0x00\n      mstore\n      keccak256(0x00, 0x40)\n      0x00\n      swap2\n      pop\n      swap1\n      pop\n      sload\n      dup2\n      jump\t// out\n        /* \"#utility.yul\":7:84   */\n    tag_174:\n        /* \"#utility.yul\":44:51   */\n      0x00\n        /* \"#utility.yul\":73:78   */\n      dup2\n        /* \"#utility.yul\":62:78   */\n      swap1\n      pop\n        /* \"#utility.yul\":7:84   */\n      swap2\n      swap1\n      pop\n      jump\t// out\n        /* \"#utility.yul\":90:208   */\n    tag_175:\n        /* \"#utility.yul\":177:201   */\n      tag_230\n        /* \"#utility.yul\":195:200   */\n      dup2\n        /* \"#utility.yul\":177:201   */\n      tag_174\n      jump\t// in\n    tag_230:\n        /* \"#utility.yul\":172:175   */\n      dup3\n        /* \"#utility.yul\":165:202   */\n      mstore\n        /* \"#utility.yul\":90:208   */\n      pop\n      pop\n      jump\t// out\n        /* \"#utility.yul\":214:436   */\n    tag_25:\n        /* \"#utility.yul\":307:311   */\n      0x00\n        /* \"#utility.yul\":345:347   */\n      0x20\n        /* \"#utility.yul\":334:343   */\n      dup3\n        /* \"#utility.yul\":330:348   */\n      add\n        /* \"#utility.yul\":322:348   */\n      swap1\n      pop\n        /* \"#utility.yul\":358:429   */\n      tag_232\n        /* \"#utility.yul\":426:427   */\n      0x00\n        /* \"#utility.yul\":415:424   */\n      dup4\n        /* \"#utility.yul\":411:428   */\n      add\n        /* \"#utility.yul\":402:408   */\n      dup5\n        /* \"#utility.yul\":358:429   */\n      tag_175\n      jump\t// in\n    tag_232:\n        /* \"#utility.yul\":214:436   */\n      swap3\n      swap2\n      pop\n      pop\n      jump\t// out\n        /* \"#utility.yul\":523:640   */\n    tag_177:\n        /* \"#utility.yul\":632:633   */\n      0x00\n        /* \"#utility.yul\":629:630   */\n      dup1\n        /* \"#utility.yul\":622:634   */\n      revert\n        /* \"#utility.yul\":769:891   */\n    tag_179:\n        /* \"#utility.yul\":842:866   */\n      tag_237\n        /* \"#utility.yul\":860:865   */\n      dup2\n        /* \"#utility.yul\":842:866   */\n      tag_174\n      jump\t// in\n    tag_237:\n        /* \"#utility.yul\":835:840   */\n      dup2\n        /* \"#utility.yul\":832:867   */\n      eq\n        /* \"#utility.yul\":822:885   */\n      tag_238\n      jumpi\n        /* \"#utility.yul\":881:882   */\n      0x00\n        /* \"#utility.yul\":878:879   */\n      dup1\n        /* \"#utility.yul\":871:883   */\n      revert\n        /* \"#utility.yul\":822:885   */\n    tag_238:\n        /* \"#utility.yul\":769:891   */\n      pop\n      jump\t// out\n        /* \"#utility.yul\":897:1036   */\n    tag_180:\n        /* \"#utility.yul\":943:948   */\n      0x00\n        /* \"#utility.yul\":981:987   */\n      dup2\n        /* \"#utility.yul\":968:988   */\n      calldataload\n        /* \"#utility.yul\":959:988   */\n      swap1\n      pop\n        /* \"#utility.yul\":997:1030   */\n      tag_240\n        /* \"#utility.yul\":1024:1029   */\n      dup2\n        /* \"#utility.yul\":997:1030   */\n      tag_179\n      jump\t// in\n    tag_240:\n        /* \"#utility.yul\":897:1036   */\n      swap3\n      swap2\n      pop\n      pop\n      jump\t// out\n        /* \"#utility.yul\":1042:1371   */\n    tag_29:\n        /* \"#utility.yul\":1101:1107   */\n      0x00\n        /* \"#utility.yul\":1150:1152   */\n      0x20\n        /* \"#utility.yul\":1138:1147   */\n      dup3\n        /* \"#utility.yul\":1129:1136   */\n      dup5\n        /* \"#utility.yul\":1125:1148   */\n      sub\n        /* \"#utility.yul\":1121:1153   */\n      slt\n        /* \"#utility.yul\":1118:1237   */\n      iszero\n      tag_242\n      jumpi\n        /* \"#utility.yul\":1156:1235   */\n      tag_243\n      tag_177\n      jump\t// in\n    tag_243:\n        /* \"#utility.yul\":1118:1237   */\n    tag_242:\n        /* \"#utility.yul\":1276:1277   */\n      0x00\n        /* \"#utility.yul\":1301:1354   */\n      tag_244\n        /* \"#utility.yul\":1346:1353   */\n      dup5\n        /* \"#utility.yul\":1337:1343   */\n      dup3\n        /* \"#utility.yul\":1326:1335   */\n      dup6\n        /* \"#utility.yul\":1322:1344   */\n      add\n        /* \"#utility.yul\":1301:1354   */\n      tag_180\n      jump\t// in\n    tag_244:\n        /* \"#utility.yul\":1291:1354   */\n      swap2\n      pop\n        /* \"#utility.yul\":1247:1364   */\n      pop\n        /* \"#utility.yul\":1042:1371   */\n      swap3\n      swap2\n      pop\n      pop\n      jump\t// out\n        /* \"#utility.yul\":1377:1503   */\n    tag_181:\n        /* \"#utility.yul\":1414:1421   */\n      0x00\n        /* \"#utility.yul\":1454:1496   */\n      0xffffffffffffffffffffffffffffffffffffffff\n        /* \"#utility.yul\":1447:1452   */\n      dup3\n        /* \"#utility.yul\":1443:1497   */\n      and\n        /* \"#utility.yul\":1432:1497   */\n      swap1\n      pop\n        /* \"#utility.yul\":1377:1503   */\n      swap2\n      swap1\n      pop\n      jump\t// out\n        /* \"#utility.yul\":1509:1613   */\n    tag_182:\n        /* \"#utility.yul\":1554:1561   */\n      0x00\n        /* \"#utility.yul\":1583:1607   */\n      tag_247\n        /* \"#utility.yul\":1601:1606   */\n      dup3\n        /* \"#utility.yul\":1583:1607   */\n      tag_181\n      jump\t// in\n    tag_247:\n        /* \"#utility.yul\":1572:1607   */\n      swap1\n      pop\n        /* \"#utility.yul\":1509:1613   */\n      swap2\n      swap1\n      pop\n      jump\t// out\n        /* \"#utility.yul\":1619:1761   */\n    tag_183:\n        /* \"#utility.yul\":1722:1754   */\n      tag_249\n        /* \"#utility.yul\":1748:1753   */\n      dup2\n        /* \"#utility.yul\":1722:1754   */\n      tag_182\n      jump\t// in\n    tag_249:\n        /* \"#utility.yul\":1717:1720   */\n      dup3\n        /* \"#utility.yul\":1710:1755   */\n      mstore\n        /* \"#utility.yul\":1619:1761   */\n      pop\n      pop\n      jump\t// out\n        /* \"#utility.yul\":1767:2131   */\n    tag_32:\n        /* \"#utility.yul\":1904:1908   */\n      0x00\n        /* \"#utility.yul\":1942:1944   */\n      0x40\n        /* \"#utility.yul\":1931:1940   */\n      dup3\n        /* \"#utility.yul\":1927:1945   */\n      add\n        /* \"#utility.yul\":1919:1945   */\n      swap1\n      pop\n        /* \"#utility.yul\":1955:2042   */\n      tag_251\n        /* \"#utility.yul\":2039:2040   */\n      0x00\n        /* \"#utility.yul\":2028:2037   */\n      dup4\n        /* \"#utility.yul\":2024:2041   */\n      add\n        /* \"#utility.yul\":2015:2021   */\n      dup6\n        /* \"#utility.yul\":1955:2042   */\n      tag_183\n      jump\t// in\n    tag_251:\n        /* \"#utility.yul\":2052:2124   */\n      tag_252\n        /* \"#utility.yul\":2120:2122   */\n      0x20\n        /* \"#utility.yul\":2109:2118   */\n      dup4\n        /* \"#utility.yul\":2105:2123   */\n      add\n        /* \"#utility.yul\":2096:2102   */\n      dup5\n        /* \"#utility.yul\":2052:2124   */\n      tag_175\n      jump\t// in\n    tag_252:\n        /* \"#utility.yul\":1767:2131   */\n      swap4\n      swap3\n      pop\n      pop\n      pop\n      jump\t// out\n        /* \"#utility.yul\":2137:2391   */\n    tag_48:\n        /* \"#utility.yul\":2246:2250   */\n      0x00\n        /* \"#utility.yul\":2284:2286   */\n      0x20\n        /* \"#utility.yul\":2273:2282   */\n      dup3\n        /* \"#utility.yul\":2269:2287   */\n      add\n        /* \"#utility.yul\":2261:2287   */\n      swap1\n      pop\n        /* \"#utility.yul\":2297:2384   */\n      tag_254\n        /* \"#utility.yul\":2381:2382   */\n      0x00\n        /* \"#utility.yul\":2370:2379   */\n      dup4\n        /* \"#utility.yul\":2366:2383   */\n      add\n        /* \"#utility.yul\":2357:2363   */\n      dup5\n        /* \"#utility.yul\":2297:2384   */\n      tag_183\n      jump\t// in\n    tag_254:\n        /* \"#utility.yul\":2137:2391   */\n      swap3\n      swap2\n      pop\n      pop\n      jump\t// out\n        /* \"#utility.yul\":2397:2487   */\n    tag_184:\n        /* \"#utility.yul\":2431:2438   */\n      0x00\n        /* \"#utility.yul\":2474:2479   */\n      dup2\n        /* \"#utility.yul\":2467:2480   */\n      iszero\n        /* \"#utility.yul\":2460:2481   */\n      iszero\n        /* \"#utility.yul\":2449:2481   */\n      swap1\n      pop\n        /* \"#utility.yul\":2397:2487   */\n      swap2\n      swap1\n      pop\n      jump\t// out\n        /* \"#utility.yul\":2493:2602   */\n    tag_185:\n        /* \"#utility.yul\":2574:2595   */\n      tag_257\n        /* \"#utility.yul\":2589:2594   */\n      dup2\n        /* \"#utility.yul\":2574:2595   */\n      tag_184\n      jump\t// in\n    tag_257:\n        /* \"#utility.yul\":2569:2572   */\n      dup3\n        /* \"#utility.yul\":2562:2596   */\n      mstore\n        /* \"#utility.yul\":2493:2602   */\n      pop\n      pop\n      jump\t// out\n        /* \"#utility.yul\":2608:2818   */\n    tag_64:\n        /* \"#utility.yul\":2695:2699   */\n      0x00\n        /* \"#utility.yul\":2733:2735   */\n      0x20\n        /* \"#utility.yul\":2722:2731   */\n      dup3\n        /* \"#utility.yul\":2718:2736   */\n      add\n        /* \"#utility.yul\":2710:2736   */\n      swap1\n      pop\n        /* \"#utility.yul\":2746:2811   */\n      tag_259\n        /* \"#utility.yul\":2808:2809   */\n      0x00\n        /* \"#utility.yul\":2797:2806   */\n      dup4\n        /* \"#utility.yul\":2793:2810   */\n      add\n        /* \"#utility.yul\":2784:2790   */\n      dup5\n        /* \"#utility.yul\":2746:2811   */\n      tag_185\n      jump\t// in\n    tag_259:\n        /* \"#utility.yul\":2608:2818   */\n      swap3\n      swap2\n      pop\n      pop\n      jump\t// out\n        /* \"#utility.yul\":2824:2920   */\n    tag_186:\n        /* \"#utility.yul\":2861:2868   */\n      0x00\n        /* \"#utility.yul\":2890:2914   */\n      tag_261\n        /* \"#utility.yul\":2908:2913   */\n      dup3\n        /* \"#utility.yul\":2890:2914   */\n      tag_181\n      jump\t// in\n    tag_261:\n        /* \"#utility.yul\":2879:2914   */\n      swap1\n      pop\n        /* \"#utility.yul\":2824:2920   */\n      swap2\n      swap1\n      pop\n      jump\t// out\n        /* \"#utility.yul\":2926:3044   */\n    tag_187:\n        /* \"#utility.yul\":3013:3037   */\n      tag_263\n        /* \"#utility.yul\":3031:3036   */\n      dup2\n        /* \"#utility.yul\":3013:3037   */\n      tag_186\n      jump\t// in\n    tag_263:\n        /* \"#utility.yul\":3008:3011   */\n      dup3\n        /* \"#utility.yul\":3001:3038   */\n      mstore\n        /* \"#utility.yul\":2926:3044   */\n      pop\n      pop\n      jump\t// out\n        /* \"#utility.yul\":3050:3382   */\n    tag_69:\n        /* \"#utility.yul\":3171:3175   */\n      0x00\n        /* \"#utility.yul\":3209:3211   */\n      0x40\n        /* \"#utility.yul\":3198:3207   */\n      dup3\n        /* \"#utility.yul\":3194:3212   */\n      add\n        /* \"#utility.yul\":3186:3212   */\n      swap1\n      pop\n        /* \"#utility.yul\":3222:3293   */\n      tag_265\n        /* \"#utility.yul\":3290:3291   */\n      0x00\n        /* \"#utility.yul\":3279:3288   */\n      dup4\n        /* \"#utility.yul\":3275:3292   */\n      add\n        /* \"#utility.yul\":3266:3272   */\n      dup6\n        /* \"#utility.yul\":3222:3293   */\n      tag_187\n      jump\t// in\n    tag_265:\n        /* \"#utility.yul\":3303:3375   */\n      tag_266\n        /* \"#utility.yul\":3371:3373   */\n      0x20\n        /* \"#utility.yul\":3360:3369   */\n      dup4\n        /* \"#utility.yul\":3356:3374   */\n      add\n        /* \"#utility.yul\":3347:3353   */\n      dup5\n        /* \"#utility.yul\":3303:3375   */\n      tag_175\n      jump\t// in\n    tag_266:\n        /* \"#utility.yul\":3050:3382   */\n      swap4\n      swap3\n      pop\n      pop\n      pop\n      jump\t// out\n        /* \"#utility.yul\":3388:3521   */\n    tag_188:\n        /* \"#utility.yul\":3474:3480   */\n      0x00\n        /* \"#utility.yul\":3508:3513   */\n      dup2\n        /* \"#utility.yul\":3502:3514   */\n      mload\n        /* \"#utility.yul\":3492:3514   */\n      swap1\n      pop\n        /* \"#utility.yul\":3388:3521   */\n      swap2\n      swap1\n      pop\n      jump\t// out\n        /* \"#utility.yul\":3527:3730   */\n    tag_189:\n        /* \"#utility.yul\":3645:3656   */\n      0x00\n        /* \"#utility.yul\":3679:3685   */\n      dup3\n        /* \"#utility.yul\":3674:3677   */\n      dup3\n        /* \"#utility.yul\":3667:3686   */\n      mstore\n        /* \"#utility.yul\":3719:3723   */\n      0x20\n        /* \"#utility.yul\":3714:3717   */\n      dup3\n        /* \"#utility.yul\":3710:3724   */\n      add\n        /* \"#utility.yul\":3695:3724   */\n      swap1\n      pop\n        /* \"#utility.yul\":3527:3730   */\n      swap3\n      swap2\n      pop\n      pop\n      jump\t// out\n        /* \"#utility.yul\":3736:3887   */\n    tag_190:\n        /* \"#utility.yul\":3822:3826   */\n      0x00\n        /* \"#utility.yul\":3845:3848   */\n      dup2\n        /* \"#utility.yul\":3837:3848   */\n      swap1\n      pop\n        /* \"#utility.yul\":3875:3879   */\n      0x20\n        /* \"#utility.yul\":3870:3873   */\n      dup3\n        /* \"#utility.yul\":3866:3880   */\n      add\n        /* \"#utility.yul\":3858:3880   */\n      swap1\n      pop\n        /* \"#utility.yul\":3736:3887   */\n      swap2\n      swap1\n      pop\n      jump\t// out\n        /* \"#utility.yul\":3893:4025   */\n    tag_191:\n        /* \"#utility.yul\":3986:4018   */\n      tag_271\n        /* \"#utility.yul\":4012:4017   */\n      dup2\n        /* \"#utility.yul\":3986:4018   */\n      tag_182\n      jump\t// in\n    tag_271:\n        /* \"#utility.yul\":3981:3984   */\n      dup3\n        /* \"#utility.yul\":3974:4019   */\n      mstore\n        /* \"#utility.yul\":3893:4025   */\n      pop\n      pop\n      jump\t// out\n        /* \"#utility.yul\":4031:4139   */\n    tag_192:\n        /* \"#utility.yul\":4108:4132   */\n      tag_273\n        /* \"#utility.yul\":4126:4131   */\n      dup2\n        /* \"#utility.yul\":4108:4132   */\n      tag_174\n      jump\t// in\n    tag_273:\n        /* \"#utility.yul\":4103:4106   */\n      dup3\n        /* \"#utility.yul\":4096:4133   */\n      mstore\n        /* \"#utility.yul\":4031:4139   */\n      pop\n      pop\n      jump\t// out\n        /* \"#utility.yul\":4193:4698   */\n    tag_193:\n        /* \"#utility.yul\":4318:4322   */\n      0x40\n        /* \"#utility.yul\":4313:4316   */\n      dup3\n        /* \"#utility.yul\":4309:4323   */\n      add\n        /* \"#utility.yul\":4407:4411   */\n      0x00\n        /* \"#utility.yul\":4400:4405   */\n      dup3\n        /* \"#utility.yul\":4396:4412   */\n      add\n        /* \"#utility.yul\":4390:4413   */\n      mload\n        /* \"#utility.yul\":4426:4505   */\n      tag_275\n        /* \"#utility.yul\":4499:4503   */\n      0x00\n        /* \"#utility.yul\":4494:4497   */\n      dup6\n        /* \"#utility.yul\":4490:4504   */\n      add\n        /* \"#utility.yul\":4476:4488   */\n      dup3\n        /* \"#utility.yul\":4426:4505   */\n      tag_191\n      jump\t// in\n    tag_275:\n        /* \"#utility.yul\":4333:4515   */\n      pop\n        /* \"#utility.yul\":4599:4603   */\n      0x20\n        /* \"#utility.yul\":4592:4597   */\n      dup3\n        /* \"#utility.yul\":4588:4604   */\n      add\n        /* \"#utility.yul\":4582:4605   */\n      mload\n        /* \"#utility.yul\":4618:4681   */\n      tag_276\n        /* \"#utility.yul\":4675:4679   */\n      0x20\n        /* \"#utility.yul\":4670:4673   */\n      dup6\n        /* \"#utility.yul\":4666:4680   */\n      add\n        /* \"#utility.yul\":4652:4664   */\n      dup3\n        /* \"#utility.yul\":4618:4681   */\n      tag_192\n      jump\t// in\n    tag_276:\n        /* \"#utility.yul\":4525:4691   */\n      pop\n        /* \"#utility.yul\":4287:4698   */\n      pop\n        /* \"#utility.yul\":4193:4698   */\n      pop\n      pop\n      jump\t// out\n        /* \"#utility.yul\":4704:4959   */\n    tag_194:\n        /* \"#utility.yul\":4811:4821   */\n      0x00\n        /* \"#utility.yul\":4832:4916   */\n      tag_278\n        /* \"#utility.yul\":4912:4915   */\n      dup4\n        /* \"#utility.yul\":4904:4910   */\n      dup4\n        /* \"#utility.yul\":4832:4916   */\n      tag_193\n      jump\t// in\n    tag_278:\n        /* \"#utility.yul\":4948:4952   */\n      0x40\n        /* \"#utility.yul\":4943:4946   */\n      dup4\n        /* \"#utility.yul\":4939:4953   */\n      add\n        /* \"#utility.yul\":4925:4953   */\n      swap1\n      pop\n        /* \"#utility.yul\":4704:4959   */\n      swap3\n      swap2\n      pop\n      pop\n      jump\t// out\n        /* \"#utility.yul\":4965:5097   */\n    tag_195:\n        /* \"#utility.yul\":5054:5058   */\n      0x00\n        /* \"#utility.yul\":5086:5090   */\n      0x20\n        /* \"#utility.yul\":5081:5084   */\n      dup3\n        /* \"#utility.yul\":5077:5091   */\n      add\n        /* \"#utility.yul\":5069:5091   */\n      swap1\n      pop\n        /* \"#utility.yul\":4965:5097   */\n      swap2\n      swap1\n      pop\n      jump\t// out\n        /* \"#utility.yul\":5155:6039   */\n    tag_196:\n        /* \"#utility.yul\":5312:5315   */\n      0x00\n        /* \"#utility.yul\":5341:5414   */\n      tag_281\n        /* \"#utility.yul\":5408:5413   */\n      dup3\n        /* \"#utility.yul\":5341:5414   */\n      tag_188\n      jump\t// in\n    tag_281:\n        /* \"#utility.yul\":5430:5535   */\n      tag_282\n        /* \"#utility.yul\":5528:5534   */\n      dup2\n        /* \"#utility.yul\":5523:5526   */\n      dup6\n        /* \"#utility.yul\":5430:5535   */\n      tag_189\n      jump\t// in\n    tag_282:\n        /* \"#utility.yul\":5423:5535   */\n      swap4\n      pop\n        /* \"#utility.yul\":5559:5634   */\n      tag_283\n        /* \"#utility.yul\":5628:5633   */\n      dup4\n        /* \"#utility.yul\":5559:5634   */\n      tag_190\n      jump\t// in\n    tag_283:\n        /* \"#utility.yul\":5657:5664   */\n      dup1\n        /* \"#utility.yul\":5688:5689   */\n      0x00\n        /* \"#utility.yul\":5673:6014   */\n    tag_284:\n        /* \"#utility.yul\":5698:5704   */\n      dup4\n        /* \"#utility.yul\":5695:5696   */\n      dup2\n        /* \"#utility.yul\":5692:5705   */\n      lt\n        /* \"#utility.yul\":5673:6014   */\n      iszero\n      tag_286\n      jumpi\n        /* \"#utility.yul\":5774:5780   */\n      dup2\n        /* \"#utility.yul\":5768:5781   */\n      mload\n        /* \"#utility.yul\":5801:5902   */\n      tag_287\n        /* \"#utility.yul\":5898:5901   */\n      dup9\n        /* \"#utility.yul\":5883:5896   */\n      dup3\n        /* \"#utility.yul\":5801:5902   */\n      tag_194\n      jump\t// in\n    tag_287:\n        /* \"#utility.yul\":5794:5902   */\n      swap8\n      pop\n        /* \"#utility.yul\":5925:6004   */\n      tag_288\n        /* \"#utility.yul\":5997:6003   */\n      dup4\n        /* \"#utility.yul\":5925:6004   */\n      tag_195\n      jump\t// in\n    tag_288:\n        /* \"#utility.yul\":5915:6004   */\n      swap3\n      pop\n        /* \"#utility.yul\":5733:6014   */\n      pop\n        /* \"#utility.yul\":5720:5721   */\n      0x01\n        /* \"#utility.yul\":5717:5718   */\n      dup2\n        /* \"#utility.yul\":5713:5722   */\n      add\n        /* \"#utility.yul\":5708:5722   */\n      swap1\n      pop\n        /* \"#utility.yul\":5673:6014   */\n      jump(tag_284)\n    tag_286:\n        /* \"#utility.yul\":5677:5691   */\n      pop\n        /* \"#utility.yul\":6030:6033   */\n      dup6\n        /* \"#utility.yul\":6023:6033   */\n      swap4\n      pop\n        /* \"#utility.yul\":5317:6039   */\n      pop\n      pop\n      pop\n        /* \"#utility.yul\":5155:6039   */\n      swap3\n      swap2\n      pop\n      pop\n      jump\t// out\n        /* \"#utility.yul\":6045:6494   */\n    tag_77:\n        /* \"#utility.yul\":6226:6230   */\n      0x00\n        /* \"#utility.yul\":6264:6266   */\n      0x20\n        /* \"#utility.yul\":6253:6262   */\n      dup3\n        /* \"#utility.yul\":6249:6267   */\n      add\n        /* \"#utility.yul\":6241:6267   */\n      swap1\n      pop\n        /* \"#utility.yul\":6313:6322   */\n      dup2\n        /* \"#utility.yul\":6307:6311   */\n      dup2\n        /* \"#utility.yul\":6303:6323   */\n      sub\n        /* \"#utility.yul\":6299:6300   */\n      0x00\n        /* \"#utility.yul\":6288:6297   */\n      dup4\n        /* \"#utility.yul\":6284:6301   */\n      add\n        /* \"#utility.yul\":6277:6324   */\n      mstore\n        /* \"#utility.yul\":6341:6487   */\n      tag_290\n        /* \"#utility.yul\":6482:6486   */\n      dup2\n        /* \"#utility.yul\":6473:6479   */\n      dup5\n        /* \"#utility.yul\":6341:6487   */\n      tag_196\n      jump\t// in\n    tag_290:\n        /* \"#utility.yul\":6333:6487   */\n      swap1\n      pop\n        /* \"#utility.yul\":6045:6494   */\n      swap3\n      swap2\n      pop\n      pop\n      jump\t// out\n        /* \"#utility.yul\":6500:6622   */\n    tag_197:\n        /* \"#utility.yul\":6573:6597   */\n      tag_292\n        /* \"#utility.yul\":6591:6596   */\n      dup2\n        /* \"#utility.yul\":6573:6597   */\n      tag_186\n      jump\t// in\n    tag_292:\n        /* \"#utility.yul\":6566:6571   */\n      dup2\n        /* \"#utility.yul\":6563:6598   */\n      eq\n        /* \"#utility.yul\":6553:6616   */\n      tag_293\n      jumpi\n        /* \"#utility.yul\":6612:6613   */\n      0x00\n        /* \"#utility.yul\":6609:6610   */\n      dup1\n        /* \"#utility.yul\":6602:6614   */\n      revert\n        /* \"#utility.yul\":6553:6616   */\n    tag_293:\n        /* \"#utility.yul\":6500:6622   */\n      pop\n      jump\t// out\n        /* \"#utility.yul\":6628:6767   */\n    tag_198:\n        /* \"#utility.yul\":6674:6679   */\n      0x00\n        /* \"#utility.yul\":6712:6718   */\n      dup2\n        /* \"#utility.yul\":6699:6719   */\n      calldataload\n        /* \"#utility.yul\":6690:6719   */\n      swap1\n      pop\n        /* \"#utility.yul\":6728:6761   */\n      tag_295\n        /* \"#utility.yul\":6755:6760   */\n      dup2\n        /* \"#utility.yul\":6728:6761   */\n      tag_197\n      jump\t// in\n    tag_295:\n        /* \"#utility.yul\":6628:6767   */\n      swap3\n      swap2\n      pop\n      pop\n      jump\t// out\n        /* \"#utility.yul\":6773:7102   */\n    tag_88:\n        /* \"#utility.yul\":6832:6838   */\n      0x00\n        /* \"#utility.yul\":6881:6883   */\n      0x20\n        /* \"#utility.yul\":6869:6878   */\n      dup3\n        /* \"#utility.yul\":6860:6867   */\n      dup5\n        /* \"#utility.yul\":6856:6879   */\n      sub\n        /* \"#utility.yul\":6852:6884   */\n      slt\n        /* \"#utility.yul\":6849:6968   */\n      iszero\n      tag_297\n      jumpi\n        /* \"#utility.yul\":6887:6966   */\n      tag_298\n      tag_177\n      jump\t// in\n    tag_298:\n        /* \"#utility.yul\":6849:6968   */\n    tag_297:\n        /* \"#utility.yul\":7007:7008   */\n      0x00\n        /* \"#utility.yul\":7032:7085   */\n      tag_299\n        /* \"#utility.yul\":7077:7084   */\n      dup5\n        /* \"#utility.yul\":7068:7074   */\n      dup3\n        /* \"#utility.yul\":7057:7066   */\n      dup6\n        /* \"#utility.yul\":7053:7075   */\n      add\n        /* \"#utility.yul\":7032:7085   */\n      tag_198\n      jump\t// in\n    tag_299:\n        /* \"#utility.yul\":7022:7085   */\n      swap2\n      pop\n        /* \"#utility.yul\":6978:7095   */\n      pop\n        /* \"#utility.yul\":6773:7102   */\n      swap3\n      swap2\n      pop\n      pop\n      jump\t// out\n        /* \"#utility.yul\":7108:7277   */\n    tag_199:\n        /* \"#utility.yul\":7192:7203   */\n      0x00\n        /* \"#utility.yul\":7226:7232   */\n      dup3\n        /* \"#utility.yul\":7221:7224   */\n      dup3\n        /* \"#utility.yul\":7214:7233   */\n      mstore\n        /* \"#utility.yul\":7266:7270   */\n      0x20\n        /* \"#utility.yul\":7261:7264   */\n      dup3\n        /* \"#utility.yul\":7257:7271   */\n      add\n        /* \"#utility.yul\":7242:7271   */\n      swap1\n      pop\n        /* \"#utility.yul\":7108:7277   */\n      swap3\n      swap2\n      pop\n      pop\n      jump\t// out\n        /* \"#utility.yul\":7283:7459   */\n    tag_200:\n        /* \"#utility.yul\":7423:7451   */\n      0x41756374696f6e2068617320616c726561647920656e6465642e000000000000\n        /* \"#utility.yul\":7419:7420   */\n      0x00\n        /* \"#utility.yul\":7411:7417   */\n      dup3\n        /* \"#utility.yul\":7407:7421   */\n      add\n        /* \"#utility.yul\":7400:7452   */\n      mstore\n        /* \"#utility.yul\":7283:7459   */\n      pop\n      jump\t// out\n        /* \"#utility.yul\":7465:7831   */\n    tag_201:\n        /* \"#utility.yul\":7607:7610   */\n      0x00\n        /* \"#utility.yul\":7628:7695   */\n      tag_303\n        /* \"#utility.yul\":7692:7694   */\n      0x1a\n        /* \"#utility.yul\":7687:7690   */\n      dup4\n        /* \"#utility.yul\":7628:7695   */\n      tag_199\n      jump\t// in\n    tag_303:\n        /* \"#utility.yul\":7621:7695   */\n      swap2\n      pop\n        /* \"#utility.yul\":7704:7797   */\n      tag_304\n        /* \"#utility.yul\":7793:7796   */\n      dup3\n        /* \"#utility.yul\":7704:7797   */\n      tag_200\n      jump\t// in\n    tag_304:\n        /* \"#utility.yul\":7822:7824   */\n      0x20\n        /* \"#utility.yul\":7817:7820   */\n      dup3\n        /* \"#utility.yul\":7813:7825   */\n      add\n        /* \"#utility.yul\":7806:7825   */\n      swap1\n      pop\n        /* \"#utility.yul\":7465:7831   */\n      swap2\n      swap1\n      pop\n      jump\t// out\n        /* \"#utility.yul\":7837:8256   */\n    tag_96:\n        /* \"#utility.yul\":8003:8007   */\n      0x00\n        /* \"#utility.yul\":8041:8043   */\n      0x20\n        /* \"#utility.yul\":8030:8039   */\n      dup3\n        /* \"#utility.yul\":8026:8044   */\n      add\n        /* \"#utility.yul\":8018:8044   */\n      swap1\n      pop\n        /* \"#utility.yul\":8090:8099   */\n      dup2\n        /* \"#utility.yul\":8084:8088   */\n      dup2\n        /* \"#utility.yul\":8080:8100   */\n      sub\n        /* \"#utility.yul\":8076:8077   */\n      0x00\n        /* \"#utility.yul\":8065:8074   */\n      dup4\n        /* \"#utility.yul\":8061:8078   */\n      add\n        /* \"#utility.yul\":8054:8101   */\n      mstore\n        /* \"#utility.yul\":8118:8249   */\n      tag_306\n        /* \"#utility.yul\":8244:8248   */\n      dup2\n        /* \"#utility.yul\":8118:8249   */\n      tag_201\n      jump\t// in\n    tag_306:\n        /* \"#utility.yul\":8110:8249   */\n      swap1\n      pop\n        /* \"#utility.yul\":7837:8256   */\n      swap2\n      swap1\n      pop\n      jump\t// out\n        /* \"#utility.yul\":8262:8442   */\n    tag_202:\n        /* \"#utility.yul\":8402:8434   */\n      0x4e6f2066756e647320617661696c61626c6520666f7220726566756e642e0000\n        /* \"#utility.yul\":8398:8399   */\n      0x00\n        /* \"#utility.yul\":8390:8396   */\n      dup3\n        /* \"#utility.yul\":8386:8400   */\n      add\n        /* \"#utility.yul\":8379:8435   */\n      mstore\n        /* \"#utility.yul\":8262:8442   */\n      pop\n      jump\t// out\n        /* \"#utility.yul\":8448:8814   */\n    tag_203:\n        /* \"#utility.yul\":8590:8593   */\n      0x00\n        /* \"#utility.yul\":8611:8678   */\n      tag_309\n        /* \"#utility.yul\":8675:8677   */\n      0x1e\n        /* \"#utility.yul\":8670:8673   */\n      dup4\n        /* \"#utility.yul\":8611:8678   */\n      tag_199\n      jump\t// in\n    tag_309:\n        /* \"#utility.yul\":8604:8678   */\n      swap2\n      pop\n        /* \"#utility.yul\":8687:8780   */\n      tag_310\n        /* \"#utility.yul\":8776:8779   */\n      dup3\n        /* \"#utility.yul\":8687:8780   */\n      tag_202\n      jump\t// in\n    tag_310:\n        /* \"#utility.yul\":8805:8807   */\n      0x20\n        /* \"#utility.yul\":8800:8803   */\n      dup3\n        /* \"#utility.yul\":8796:8808   */\n      add\n        /* \"#utility.yul\":8789:8808   */\n      swap1\n      pop\n        /* \"#utility.yul\":8448:8814   */\n      swap2\n      swap1\n      pop\n      jump\t// out\n        /* \"#utility.yul\":8820:9239   */\n    tag_100:\n        /* \"#utility.yul\":8986:8990   */\n      0x00\n        /* \"#utility.yul\":9024:9026   */\n      0x20\n        /* \"#utility.yul\":9013:9022   */\n      dup3\n        /* \"#utility.yul\":9009:9027   */\n      add\n        /* \"#utility.yul\":9001:9027   */\n      swap1\n      pop\n        /* \"#utility.yul\":9073:9082   */\n      dup2\n        /* \"#utility.yul\":9067:9071   */\n      dup2\n        /* \"#utility.yul\":9063:9083   */\n      sub\n        /* \"#utility.yul\":9059:9060   */\n      0x00\n        /* \"#utility.yul\":9048:9057   */\n      dup4\n        /* \"#utility.yul\":9044:9061   */\n      add\n        /* \"#utility.yul\":9037:9084   */\n      mstore\n        /* \"#utility.yul\":9101:9232   */\n      tag_312\n        /* \"#utility.yul\":9227:9231   */\n      dup2\n        /* \"#utility.yul\":9101:9232   */\n      tag_203\n      jump\t// in\n    tag_312:\n        /* \"#utility.yul\":9093:9232   */\n      swap1\n      pop\n        /* \"#utility.yul\":8820:9239   */\n      swap2\n      swap1\n      pop\n      jump\t// out\n        /* \"#utility.yul\":9245:9424   */\n    tag_204:\n        /* \"#utility.yul\":9385:9416   */\n      0x41756374696f6e206973207374696c6c20696e2070726f67726573732e000000\n        /* \"#utility.yul\":9381:9382   */\n      0x00\n        /* \"#utility.yul\":9373:9379   */\n      dup3\n        /* \"#utility.yul\":9369:9383   */\n      add\n        /* \"#utility.yul\":9362:9417   */\n      mstore\n        /* \"#utility.yul\":9245:9424   */\n      pop\n      jump\t// out\n        /* \"#utility.yul\":9430:9796   */\n    tag_205:\n        /* \"#utility.yul\":9572:9575   */\n      0x00\n        /* \"#utility.yul\":9593:9660   */\n      tag_315\n        /* \"#utility.yul\":9657:9659   */\n      0x1d\n        /* \"#utility.yul\":9652:9655   */\n      dup4\n        /* \"#utility.yul\":9593:9660   */\n      tag_199\n      jump\t// in\n    tag_315:\n        /* \"#utility.yul\":9586:9660   */\n      swap2\n      pop\n        /* \"#utility.yul\":9669:9762   */\n      tag_316\n        /* \"#utility.yul\":9758:9761   */\n      dup3\n        /* \"#utility.yul\":9669:9762   */\n      tag_204\n      jump\t// in\n    tag_316:\n        /* \"#utility.yul\":9787:9789   */\n      0x20\n        /* \"#utility.yul\":9782:9785   */\n      dup3\n        /* \"#utility.yul\":9778:9790   */\n      add\n        /* \"#utility.yul\":9771:9790   */\n      swap1\n      pop\n        /* \"#utility.yul\":9430:9796   */\n      swap2\n      swap1\n      pop\n      jump\t// out\n        /* \"#utility.yul\":9802:10221   */\n    tag_106:\n        /* \"#utility.yul\":9968:9972   */\n      0x00\n        /* \"#utility.yul\":10006:10008   */\n      0x20\n        /* \"#utility.yul\":9995:10004   */\n      dup3\n        /* \"#utility.yul\":9991:10009   */\n      add\n        /* \"#utility.yul\":9983:10009   */\n      swap1\n      pop\n        /* \"#utility.yul\":10055:10064   */\n      dup2\n        /* \"#utility.yul\":10049:10053   */\n      dup2\n        /* \"#utility.yul\":10045:10065   */\n      sub\n        /* \"#utility.yul\":10041:10042   */\n      0x00\n        /* \"#utility.yul\":10030:10039   */\n      dup4\n        /* \"#utility.yul\":10026:10043   */\n      add\n        /* \"#utility.yul\":10019:10066   */\n      mstore\n        /* \"#utility.yul\":10083:10214   */\n      tag_318\n        /* \"#utility.yul\":10209:10213   */\n      dup2\n        /* \"#utility.yul\":10083:10214   */\n      tag_205\n      jump\t// in\n    tag_318:\n        /* \"#utility.yul\":10075:10214   */\n      swap1\n      pop\n        /* \"#utility.yul\":9802:10221   */\n      swap2\n      swap1\n      pop\n      jump\t// out\n        /* \"#utility.yul\":10227:10403   */\n    tag_206:\n        /* \"#utility.yul\":10367:10395   */\n      0x41756374696f6e20686173206e6f7420656e646564207965742e000000000000\n        /* \"#utility.yul\":10363:10364   */\n      0x00\n        /* \"#utility.yul\":10355:10361   */\n      dup3\n        /* \"#utility.yul\":10351:10365   */\n      add\n        /* \"#utility.yul\":10344:10396   */\n      mstore\n        /* \"#utility.yul\":10227:10403   */\n      pop\n      jump\t// out\n        /* \"#utility.yul\":10409:10775   */\n    tag_207:\n        /* \"#utility.yul\":10551:10554   */\n      0x00\n        /* \"#utility.yul\":10572:10639   */\n      tag_321\n        /* \"#utility.yul\":10636:10638   */\n      0x1a\n        /* \"#utility.yul\":10631:10634   */\n      dup4\n        /* \"#utility.yul\":10572:10639   */\n      tag_199\n      jump\t// in\n    tag_321:\n        /* \"#utility.yul\":10565:10639   */\n      swap2\n      pop\n        /* \"#utility.yul\":10648:10741   */\n      tag_322\n        /* \"#utility.yul\":10737:10740   */\n      dup3\n        /* \"#utility.yul\":10648:10741   */\n      tag_206\n      jump\t// in\n    tag_322:\n        /* \"#utility.yul\":10766:10768   */\n      0x20\n        /* \"#utility.yul\":10761:10764   */\n      dup3\n        /* \"#utility.yul\":10757:10769   */\n      add\n        /* \"#utility.yul\":10750:10769   */\n      swap1\n      pop\n        /* \"#utility.yul\":10409:10775   */\n      swap2\n      swap1\n      pop\n      jump\t// out\n        /* \"#utility.yul\":10781:11200   */\n    tag_110:\n        /* \"#utility.yul\":10947:10951   */\n      0x00\n        /* \"#utility.yul\":10985:10987   */\n      0x20\n        /* \"#utility.yul\":10974:10983   */\n      dup3\n        /* \"#utility.yul\":10970:10988   */\n      add\n        /* \"#utility.yul\":10962:10988   */\n      swap1\n      pop\n        /* \"#utility.yul\":11034:11043   */\n      dup2\n        /* \"#utility.yul\":11028:11032   */\n      dup2\n        /* \"#utility.yul\":11024:11044   */\n      sub\n        /* \"#utility.yul\":11020:11021   */\n      0x00\n        /* \"#utility.yul\":11009:11018   */\n      dup4\n        /* \"#utility.yul\":11005:11022   */\n      add\n        /* \"#utility.yul\":10998:11045   */\n      mstore\n        /* \"#utility.yul\":11062:11193   */\n      tag_324\n        /* \"#utility.yul\":11188:11192   */\n      dup2\n        /* \"#utility.yul\":11062:11193   */\n      tag_207\n      jump\t// in\n    tag_324:\n        /* \"#utility.yul\":11054:11193   */\n      swap1\n      pop\n        /* \"#utility.yul\":10781:11200   */\n      swap2\n      swap1\n      pop\n      jump\t// out\n        /* \"#utility.yul\":11206:11376   */\n    tag_208:\n        /* \"#utility.yul\":11346:11368   */\n      0x4e6f20726566756e6420617661696c61626c652e000000000000000000000000\n        /* \"#utility.yul\":11342:11343   */\n      0x00\n        /* \"#utility.yul\":11334:11340   */\n      dup3\n        /* \"#utility.yul\":11330:11344   */\n      add\n        /* \"#utility.yul\":11323:11369   */\n      mstore\n        /* \"#utility.yul\":11206:11376   */\n      pop\n      jump\t// out\n        /* \"#utility.yul\":11382:11748   */\n    tag_209:\n        /* \"#utility.yul\":11524:11527   */\n      0x00\n        /* \"#utility.yul\":11545:11612   */\n      tag_327\n        /* \"#utility.yul\":11609:11611   */\n      0x14\n        /* \"#utility.yul\":11604:11607   */\n      dup4\n        /* \"#utility.yul\":11545:11612   */\n      tag_199\n      jump\t// in\n    tag_327:\n        /* \"#utility.yul\":11538:11612   */\n      swap2\n      pop\n        /* \"#utility.yul\":11621:11714   */\n      tag_328\n        /* \"#utility.yul\":11710:11713   */\n      dup3\n        /* \"#utility.yul\":11621:11714   */\n      tag_208\n      jump\t// in\n    tag_328:\n        /* \"#utility.yul\":11739:11741   */\n      0x20\n        /* \"#utility.yul\":11734:11737   */\n      dup3\n        /* \"#utility.yul\":11730:11742   */\n      add\n        /* \"#utility.yul\":11723:11742   */\n      swap1\n      pop\n        /* \"#utility.yul\":11382:11748   */\n      swap2\n      swap1\n      pop\n      jump\t// out\n        /* \"#utility.yul\":11754:12173   */\n    tag_113:\n        /* \"#utility.yul\":11920:11924   */\n      0x00\n        /* \"#utility.yul\":11958:11960   */\n      0x20\n        /* \"#utility.yul\":11947:11956   */\n      dup3\n        /* \"#utility.yul\":11943:11961   */\n      add\n        /* \"#utility.yul\":11935:11961   */\n      swap1\n      pop\n        /* \"#utility.yul\":12007:12016   */\n      dup2\n        /* \"#utility.yul\":12001:12005   */\n      dup2\n        /* \"#utility.yul\":11997:12017   */\n      sub\n        /* \"#utility.yul\":11993:11994   */\n      0x00\n        /* \"#utility.yul\":11982:11991   */\n      dup4\n        /* \"#utility.yul\":11978:11995   */\n      add\n        /* \"#utility.yul\":11971:12018   */\n      mstore\n        /* \"#utility.yul\":12035:12166   */\n      tag_330\n        /* \"#utility.yul\":12161:12165   */\n      dup2\n        /* \"#utility.yul\":12035:12166   */\n      tag_209\n      jump\t// in\n    tag_330:\n        /* \"#utility.yul\":12027:12166   */\n      swap1\n      pop\n        /* \"#utility.yul\":11754:12173   */\n      swap2\n      swap1\n      pop\n      jump\t// out\n        /* \"#utility.yul\":12179:12359   */\n    tag_210:\n        /* \"#utility.yul\":12227:12304   */\n      0x4e487b7100000000000000000000000000000000000000000000000000000000\n        /* \"#utility.yul\":12224:12225   */\n      0x00\n        /* \"#utility.yul\":12217:12305   */\n      mstore\n        /* \"#utility.yul\":12324:12328   */\n      0x11\n        /* \"#utility.yul\":12321:12322   */\n      0x04\n        /* \"#utility.yul\":12314:12329   */\n      mstore\n        /* \"#utility.yul\":12348:12352   */\n      0x24\n        /* \"#utility.yul\":12345:12346   */\n      0x00\n        /* \"#utility.yul\":12338:12353   */\n      revert\n        /* \"#utility.yul\":12365:12775   */\n    tag_115:\n        /* \"#utility.yul\":12405:12412   */\n      0x00\n        /* \"#utility.yul\":12428:12448   */\n      tag_333\n        /* \"#utility.yul\":12446:12447   */\n      dup3\n        /* \"#utility.yul\":12428:12448   */\n      tag_174\n      jump\t// in\n    tag_333:\n        /* \"#utility.yul\":12423:12448   */\n      swap2\n      pop\n        /* \"#utility.yul\":12462:12482   */\n      tag_334\n        /* \"#utility.yul\":12480:12481   */\n      dup4\n        /* \"#utility.yul\":12462:12482   */\n      tag_174\n      jump\t// in\n    tag_334:\n        /* \"#utility.yul\":12457:12482   */\n      swap3\n      pop\n        /* \"#utility.yul\":12517:12518   */\n      dup3\n        /* \"#utility.yul\":12514:12515   */\n      dup3\n        /* \"#utility.yul\":12510:12519   */\n      mul\n        /* \"#utility.yul\":12539:12569   */\n      tag_335\n        /* \"#utility.yul\":12557:12568   */\n      dup2\n        /* \"#utility.yul\":12539:12569   */\n      tag_174\n      jump\t// in\n    tag_335:\n        /* \"#utility.yul\":12528:12569   */\n      swap2\n      pop\n        /* \"#utility.yul\":12718:12719   */\n      dup3\n        /* \"#utility.yul\":12709:12716   */\n      dup3\n        /* \"#utility.yul\":12705:12720   */\n      div\n        /* \"#utility.yul\":12702:12703   */\n      dup5\n        /* \"#utility.yul\":12699:12721   */\n      eq\n        /* \"#utility.yul\":12679:12680   */\n      dup4\n        /* \"#utility.yul\":12672:12681   */\n      iszero\n        /* \"#utility.yul\":12652:12735   */\n      or\n        /* \"#utility.yul\":12629:12768   */\n      tag_336\n      jumpi\n        /* \"#utility.yul\":12748:12766   */\n      tag_337\n      tag_210\n      jump\t// in\n    tag_337:\n        /* \"#utility.yul\":12629:12768   */\n    tag_336:\n        /* \"#utility.yul\":12413:12775   */\n      pop\n        /* \"#utility.yul\":12365:12775   */\n      swap3\n      swap2\n      pop\n      pop\n      jump\t// out\n        /* \"#utility.yul\":12781:12961   */\n    tag_211:\n        /* \"#utility.yul\":12829:12906   */\n      0x4e487b7100000000000000000000000000000000000000000000000000000000\n        /* \"#utility.yul\":12826:12827   */\n      0x00\n        /* \"#utility.yul\":12819:12907   */\n      mstore\n        /* \"#utility.yul\":12926:12930   */\n      0x12\n        /* \"#utility.yul\":12923:12924   */\n      0x04\n        /* \"#utility.yul\":12916:12931   */\n      mstore\n        /* \"#utility.yul\":12950:12954   */\n      0x24\n        /* \"#utility.yul\":12947:12948   */\n      0x00\n        /* \"#utility.yul\":12940:12955   */\n      revert\n        /* \"#utility.yul\":12967:13152   */\n    tag_117:\n        /* \"#utility.yul\":13007:13008   */\n      0x00\n        /* \"#utility.yul\":13024:13044   */\n      tag_340\n        /* \"#utility.yul\":13042:13043   */\n      dup3\n        /* \"#utility.yul\":13024:13044   */\n      tag_174\n      jump\t// in\n    tag_340:\n        /* \"#utility.yul\":13019:13044   */\n      swap2\n      pop\n        /* \"#utility.yul\":13058:13078   */\n      tag_341\n        /* \"#utility.yul\":13076:13077   */\n      dup4\n        /* \"#utility.yul\":13058:13078   */\n      tag_174\n      jump\t// in\n    tag_341:\n        /* \"#utility.yul\":13053:13078   */\n      swap3\n      pop\n        /* \"#utility.yul\":13097:13098   */\n      dup3\n        /* \"#utility.yul\":13087:13122   */\n      tag_342\n      jumpi\n        /* \"#utility.yul\":13102:13120   */\n      tag_343\n      tag_211\n      jump\t// in\n    tag_343:\n        /* \"#utility.yul\":13087:13122   */\n    tag_342:\n        /* \"#utility.yul\":13144:13145   */\n      dup3\n        /* \"#utility.yul\":13141:13142   */\n      dup3\n        /* \"#utility.yul\":13137:13146   */\n      div\n        /* \"#utility.yul\":13132:13146   */\n      swap1\n      pop\n        /* \"#utility.yul\":12967:13152   */\n      swap3\n      swap2\n      pop\n      pop\n      jump\t// out\n        /* \"#utility.yul\":13158:13352   */\n    tag_119:\n        /* \"#utility.yul\":13198:13202   */\n      0x00\n        /* \"#utility.yul\":13218:13238   */\n      tag_345\n        /* \"#utility.yul\":13236:13237   */\n      dup3\n        /* \"#utility.yul\":13218:13238   */\n      tag_174\n      jump\t// in\n    tag_345:\n        /* \"#utility.yul\":13213:13238   */\n      swap2\n      pop\n        /* \"#utility.yul\":13252:13272   */\n      tag_346\n        /* \"#utility.yul\":13270:13271   */\n      dup4\n        /* \"#utility.yul\":13252:13272   */\n      tag_174\n      jump\t// in\n    tag_346:\n        /* \"#utility.yul\":13247:13272   */\n      swap3\n      pop\n        /* \"#utility.yul\":13296:13297   */\n      dup3\n        /* \"#utility.yul\":13293:13294   */\n      dup3\n        /* \"#utility.yul\":13289:13298   */\n      sub\n        /* \"#utility.yul\":13281:13298   */\n      swap1\n      pop\n        /* \"#utility.yul\":13320:13321   */\n      dup2\n        /* \"#utility.yul\":13314:13318   */\n      dup2\n        /* \"#utility.yul\":13311:13322   */\n      gt\n        /* \"#utility.yul\":13308:13345   */\n      iszero\n      tag_347\n      jumpi\n        /* \"#utility.yul\":13325:13343   */\n      tag_348\n      tag_210\n      jump\t// in\n    tag_348:\n        /* \"#utility.yul\":13308:13345   */\n    tag_347:\n        /* \"#utility.yul\":13158:13352   */\n      swap3\n      swap2\n      pop\n      pop\n      jump\t// out\n        /* \"#utility.yul\":13358:13585   */\n    tag_212:\n        /* \"#utility.yul\":13498:13532   */\n      0x41756374696f6e206d75737420626520656e64656420746f2067657420746865\n        /* \"#utility.yul\":13494:13495   */\n      0x00\n        /* \"#utility.yul\":13486:13492   */\n      dup3\n        /* \"#utility.yul\":13482:13496   */\n      add\n        /* \"#utility.yul\":13475:13533   */\n      mstore\n        /* \"#utility.yul\":13567:13577   */\n      0x2077696e6e65722e000000000000000000000000000000000000000000000000\n        /* \"#utility.yul\":13562:13564   */\n      0x20\n        /* \"#utility.yul\":13554:13560   */\n      dup3\n        /* \"#utility.yul\":13550:13565   */\n      add\n        /* \"#utility.yul\":13543:13578   */\n      mstore\n        /* \"#utility.yul\":13358:13585   */\n      pop\n      jump\t// out\n        /* \"#utility.yul\":13591:13957   */\n    tag_213:\n        /* \"#utility.yul\":13733:13736   */\n      0x00\n        /* \"#utility.yul\":13754:13821   */\n      tag_351\n        /* \"#utility.yul\":13818:13820   */\n      0x28\n        /* \"#utility.yul\":13813:13816   */\n      dup4\n        /* \"#utility.yul\":13754:13821   */\n      tag_199\n      jump\t// in\n    tag_351:\n        /* \"#utility.yul\":13747:13821   */\n      swap2\n      pop\n        /* \"#utility.yul\":13830:13923   */\n      tag_352\n        /* \"#utility.yul\":13919:13922   */\n      dup3\n        /* \"#utility.yul\":13830:13923   */\n      tag_212\n      jump\t// in\n    tag_352:\n        /* \"#utility.yul\":13948:13950   */\n      0x40\n        /* \"#utility.yul\":13943:13946   */\n      dup3\n        /* \"#utility.yul\":13939:13951   */\n      add\n        /* \"#utility.yul\":13932:13951   */\n      swap1\n      pop\n        /* \"#utility.yul\":13591:13957   */\n      swap2\n      swap1\n      pop\n      jump\t// out\n        /* \"#utility.yul\":13963:14382   */\n    tag_128:\n        /* \"#utility.yul\":14129:14133   */\n      0x00\n        /* \"#utility.yul\":14167:14169   */\n      0x20\n        /* \"#utility.yul\":14156:14165   */\n      dup3\n        /* \"#utility.yul\":14152:14170   */\n      add\n        /* \"#utility.yul\":14144:14170   */\n      swap1\n      pop\n        /* \"#utility.yul\":14216:14225   */\n      dup2\n        /* \"#utility.yul\":14210:14214   */\n      dup2\n        /* \"#utility.yul\":14206:14226   */\n      sub\n        /* \"#utility.yul\":14202:14203   */\n      0x00\n        /* \"#utility.yul\":14191:14200   */\n      dup4\n        /* \"#utility.yul\":14187:14204   */\n      add\n        /* \"#utility.yul\":14180:14227   */\n      mstore\n        /* \"#utility.yul\":14244:14375   */\n      tag_354\n        /* \"#utility.yul\":14370:14374   */\n      dup2\n        /* \"#utility.yul\":14244:14375   */\n      tag_213\n      jump\t// in\n    tag_354:\n        /* \"#utility.yul\":14236:14375   */\n      swap1\n      pop\n        /* \"#utility.yul\":13963:14382   */\n      swap2\n      swap1\n      pop\n      jump\t// out\n        /* \"#utility.yul\":14388:14612   */\n    tag_214:\n        /* \"#utility.yul\":14528:14562   */\n      0x42696420616d6f756e74206d7573742062652067726561746572207468616e20\n        /* \"#utility.yul\":14524:14525   */\n      0x00\n        /* \"#utility.yul\":14516:14522   */\n      dup3\n        /* \"#utility.yul\":14512:14526   */\n      add\n        /* \"#utility.yul\":14505:14563   */\n      mstore\n        /* \"#utility.yul\":14597:14604   */\n      0x7a65726f2e000000000000000000000000000000000000000000000000000000\n        /* \"#utility.yul\":14592:14594   */\n      0x20\n        /* \"#utility.yul\":14584:14590   */\n      dup3\n        /* \"#utility.yul\":14580:14595   */\n      add\n        /* \"#utility.yul\":14573:14605   */\n      mstore\n        /* \"#utility.yul\":14388:14612   */\n      pop\n      jump\t// out\n        /* \"#utility.yul\":14618:14984   */\n    tag_215:\n        /* \"#utility.yul\":14760:14763   */\n      0x00\n        /* \"#utility.yul\":14781:14848   */\n      tag_357\n        /* \"#utility.yul\":14845:14847   */\n      0x25\n        /* \"#utility.yul\":14840:14843   */\n      dup4\n        /* \"#utility.yul\":14781:14848   */\n      tag_199\n      jump\t// in\n    tag_357:\n        /* \"#utility.yul\":14774:14848   */\n      swap2\n      pop\n        /* \"#utility.yul\":14857:14950   */\n      tag_358\n        /* \"#utility.yul\":14946:14949   */\n      dup3\n        /* \"#utility.yul\":14857:14950   */\n      tag_214\n      jump\t// in\n    tag_358:\n        /* \"#utility.yul\":14975:14977   */\n      0x40\n        /* \"#utility.yul\":14970:14973   */\n      dup3\n        /* \"#utility.yul\":14966:14978   */\n      add\n        /* \"#utility.yul\":14959:14978   */\n      swap1\n      pop\n        /* \"#utility.yul\":14618:14984   */\n      swap2\n      swap1\n      pop\n      jump\t// out\n        /* \"#utility.yul\":14990:15409   */\n    tag_135:\n        /* \"#utility.yul\":15156:15160   */\n      0x00\n        /* \"#utility.yul\":15194:15196   */\n      0x20\n        /* \"#utility.yul\":15183:15192   */\n      dup3\n        /* \"#utility.yul\":15179:15197   */\n      add\n        /* \"#utility.yul\":15171:15197   */\n      swap1\n      pop\n        /* \"#utility.yul\":15243:15252   */\n      dup2\n        /* \"#utility.yul\":15237:15241   */\n      dup2\n        /* \"#utility.yul\":15233:15253   */\n      sub\n        /* \"#utility.yul\":15229:15230   */\n      0x00\n        /* \"#utility.yul\":15218:15227   */\n      dup4\n        /* \"#utility.yul\":15214:15231   */\n      add\n        /* \"#utility.yul\":15207:15254   */\n      mstore\n        /* \"#utility.yul\":15271:15402   */\n      tag_360\n        /* \"#utility.yul\":15397:15401   */\n      dup2\n        /* \"#utility.yul\":15271:15402   */\n      tag_215\n      jump\t// in\n    tag_360:\n        /* \"#utility.yul\":15263:15402   */\n      swap1\n      pop\n        /* \"#utility.yul\":14990:15409   */\n      swap2\n      swap1\n      pop\n      jump\t// out\n        /* \"#utility.yul\":15415:15606   */\n    tag_139:\n        /* \"#utility.yul\":15455:15458   */\n      0x00\n        /* \"#utility.yul\":15474:15494   */\n      tag_362\n        /* \"#utility.yul\":15492:15493   */\n      dup3\n        /* \"#utility.yul\":15474:15494   */\n      tag_174\n      jump\t// in\n    tag_362:\n        /* \"#utility.yul\":15469:15494   */\n      swap2\n      pop\n        /* \"#utility.yul\":15508:15528   */\n      tag_363\n        /* \"#utility.yul\":15526:15527   */\n      dup4\n        /* \"#utility.yul\":15508:15528   */\n      tag_174\n      jump\t// in\n    tag_363:\n        /* \"#utility.yul\":15503:15528   */\n      swap3\n      pop\n        /* \"#utility.yul\":15551:15552   */\n      dup3\n        /* \"#utility.yul\":15548:15549   */\n      dup3\n        /* \"#utility.yul\":15544:15553   */\n      add\n        /* \"#utility.yul\":15537:15553   */\n      swap1\n      pop\n        /* \"#utility.yul\":15572:15575   */\n      dup1\n        /* \"#utility.yul\":15569:15570   */\n      dup3\n        /* \"#utility.yul\":15566:15576   */\n      gt\n        /* \"#utility.yul\":15563:15599   */\n      iszero\n      tag_364\n      jumpi\n        /* \"#utility.yul\":15579:15597   */\n      tag_365\n      tag_210\n      jump\t// in\n    tag_365:\n        /* \"#utility.yul\":15563:15599   */\n    tag_364:\n        /* \"#utility.yul\":15415:15606   */\n      swap3\n      swap2\n      pop\n      pop\n      jump\t// out\n        /* \"#utility.yul\":15612:15859   */\n    tag_216:\n        /* \"#utility.yul\":15752:15786   */\n      0x426964206d757374206265206174206c65617374203525206869676865722074\n        /* \"#utility.yul\":15748:15749   */\n      0x00\n        /* \"#utility.yul\":15740:15746   */\n      dup3\n        /* \"#utility.yul\":15736:15750   */\n      add\n        /* \"#utility.yul\":15729:15787   */\n      mstore\n        /* \"#utility.yul\":15821:15851   */\n      0x68616e207468652063757272656e742068696768657374206269642e00000000\n        /* \"#utility.yul\":15816:15818   */\n      0x20\n        /* \"#utility.yul\":15808:15814   */\n      dup3\n        /* \"#utility.yul\":15804:15819   */\n      add\n        /* \"#utility.yul\":15797:15852   */\n      mstore\n        /* \"#utility.yul\":15612:15859   */\n      pop\n      jump\t// out\n        /* \"#utility.yul\":15865:16231   */\n    tag_217:\n        /* \"#utility.yul\":16007:16010   */\n      0x00\n        /* \"#utility.yul\":16028:16095   */\n      tag_368\n        /* \"#utility.yul\":16092:16094   */\n      0x3c\n        /* \"#utility.yul\":16087:16090   */\n      dup4\n        /* \"#utility.yul\":16028:16095   */\n      tag_199\n      jump\t// in\n    tag_368:\n        /* \"#utility.yul\":16021:16095   */\n      swap2\n      pop\n        /* \"#utility.yul\":16104:16197   */\n      tag_369\n        /* \"#utility.yul\":16193:16196   */\n      dup3\n        /* \"#utility.yul\":16104:16197   */\n      tag_216\n      jump\t// in\n    tag_369:\n        /* \"#utility.yul\":16222:16224   */\n      0x40\n        /* \"#utility.yul\":16217:16220   */\n      dup3\n        /* \"#utility.yul\":16213:16225   */\n      add\n        /* \"#utility.yul\":16206:16225   */\n      swap1\n      pop\n        /* \"#utility.yul\":15865:16231   */\n      swap2\n      swap1\n      pop\n      jump\t// out\n        /* \"#utility.yul\":16237:16656   */\n    tag_142:\n        /* \"#utility.yul\":16403:16407   */\n      0x00\n        /* \"#utility.yul\":16441:16443   */\n      0x20\n        /* \"#utility.yul\":16430:16439   */\n      dup3\n        /* \"#utility.yul\":16426:16444   */\n      add\n        /* \"#utility.yul\":16418:16444   */\n      swap1\n      pop\n        /* \"#utility.yul\":16490:16499   */\n      dup2\n        /* \"#utility.yul\":16484:16488   */\n      dup2\n        /* \"#utility.yul\":16480:16500   */\n      sub\n        /* \"#utility.yul\":16476:16477   */\n      0x00\n        /* \"#utility.yul\":16465:16474   */\n      dup4\n        /* \"#utility.yul\":16461:16478   */\n      add\n        /* \"#utility.yul\":16454:16501   */\n      mstore\n        /* \"#utility.yul\":16518:16649   */\n      tag_371\n        /* \"#utility.yul\":16644:16648   */\n      dup2\n        /* \"#utility.yul\":16518:16649   */\n      tag_217\n      jump\t// in\n    tag_371:\n        /* \"#utility.yul\":16510:16649   */\n      swap1\n      pop\n        /* \"#utility.yul\":16237:16656   */\n      swap2\n      swap1\n      pop\n      jump\t// out\n        /* \"#utility.yul\":16662:16994   */\n    tag_151:\n        /* \"#utility.yul\":16783:16787   */\n      0x00\n        /* \"#utility.yul\":16821:16823   */\n      0x40\n        /* \"#utility.yul\":16810:16819   */\n      dup3\n        /* \"#utility.yul\":16806:16824   */\n      add\n        /* \"#utility.yul\":16798:16824   */\n      swap1\n      pop\n        /* \"#utility.yul\":16834:16905   */\n      tag_373\n        /* \"#utility.yul\":16902:16903   */\n      0x00\n        /* \"#utility.yul\":16891:16900   */\n      dup4\n        /* \"#utility.yul\":16887:16904   */\n      add\n        /* \"#utility.yul\":16878:16884   */\n      dup6\n        /* \"#utility.yul\":16834:16905   */\n      tag_175\n      jump\t// in\n    tag_373:\n        /* \"#utility.yul\":16915:16987   */\n      tag_374\n        /* \"#utility.yul\":16983:16985   */\n      0x20\n        /* \"#utility.yul\":16972:16981   */\n      dup4\n        /* \"#utility.yul\":16968:16986   */\n      add\n        /* \"#utility.yul\":16959:16965   */\n      dup5\n        /* \"#utility.yul\":16915:16987   */\n      tag_175\n      jump\t// in\n    tag_374:\n        /* \"#utility.yul\":16662:16994   */\n      swap4\n      swap3\n      pop\n      pop\n      pop\n      jump\t// out\n        /* \"#utility.yul\":17000:17223   */\n    tag_218:\n        /* \"#utility.yul\":17140:17174   */\n      0x4f6e6c792073656e6465722063616e20706572666f726d207468697320616374\n        /* \"#utility.yul\":17136:17137   */\n      0x00\n        /* \"#utility.yul\":17128:17134   */\n      dup3\n        /* \"#utility.yul\":17124:17138   */\n      add\n        /* \"#utility.yul\":17117:17175   */\n      mstore\n        /* \"#utility.yul\":17209:17215   */\n      0x696f6e2e00000000000000000000000000000000000000000000000000000000\n        /* \"#utility.yul\":17204:17206   */\n      0x20\n        /* \"#utility.yul\":17196:17202   */\n      dup3\n        /* \"#utility.yul\":17192:17207   */\n      add\n        /* \"#utility.yul\":17185:17216   */\n      mstore\n        /* \"#utility.yul\":17000:17223   */\n      pop\n      jump\t// out\n        /* \"#utility.yul\":17229:17595   */\n    tag_219:\n        /* \"#utility.yul\":17371:17374   */\n      0x00\n        /* \"#utility.yul\":17392:17459   */\n      tag_377\n        /* \"#utility.yul\":17456:17458   */\n      0x24\n        /* \"#utility.yul\":17451:17454   */\n      dup4\n        /* \"#utility.yul\":17392:17459   */\n      tag_199\n      jump\t// in\n    tag_377:\n        /* \"#utility.yul\":17385:17459   */\n      swap2\n      pop\n        /* \"#utility.yul\":17468:17561   */\n      tag_378\n        /* \"#utility.yul\":17557:17560   */\n      dup3\n        /* \"#utility.yul\":17468:17561   */\n      tag_218\n      jump\t// in\n    tag_378:\n        /* \"#utility.yul\":17586:17588   */\n      0x40\n        /* \"#utility.yul\":17581:17584   */\n      dup3\n        /* \"#utility.yul\":17577:17589   */\n      add\n        /* \"#utility.yul\":17570:17589   */\n      swap1\n      pop\n        /* \"#utility.yul\":17229:17595   */\n      swap2\n      swap1\n      pop\n      jump\t// out\n        /* \"#utility.yul\":17601:18020   */\n    tag_159:\n        /* \"#utility.yul\":17767:17771   */\n      0x00\n        /* \"#utility.yul\":17805:17807   */\n      0x20\n        /* \"#utility.yul\":17794:17803   */\n      dup3\n        /* \"#utility.yul\":17790:17808   */\n      add\n        /* \"#utility.yul\":17782:17808   */\n      swap1\n      pop\n        /* \"#utility.yul\":17854:17863   */\n      dup2\n        /* \"#utility.yul\":17848:17852   */\n      dup2\n        /* \"#utility.yul\":17844:17864   */\n      sub\n        /* \"#utility.yul\":17840:17841   */\n      0x00\n        /* \"#utility.yul\":17829:17838   */\n      dup4\n        /* \"#utility.yul\":17825:17842   */\n      add\n        /* \"#utility.yul\":17818:17865   */\n      mstore\n        /* \"#utility.yul\":17882:18013   */\n      tag_380\n        /* \"#utility.yul\":18008:18012   */\n      dup2\n        /* \"#utility.yul\":17882:18013   */\n      tag_219\n      jump\t// in\n    tag_380:\n        /* \"#utility.yul\":17874:18013   */\n      swap1\n      pop\n        /* \"#utility.yul\":17601:18020   */\n      swap2\n      swap1\n      pop\n      jump\t// out\n        /* \"#utility.yul\":18026:18248   */\n    tag_220:\n        /* \"#utility.yul\":18166:18200   */\n      0x41756374696f6e2068617320616c7265616479206265656e2066696e616c697a\n        /* \"#utility.yul\":18162:18163   */\n      0x00\n        /* \"#utility.yul\":18154:18160   */\n      dup3\n        /* \"#utility.yul\":18150:18164   */\n      add\n        /* \"#utility.yul\":18143:18201   */\n      mstore\n        /* \"#utility.yul\":18235:18240   */\n      0x65642e0000000000000000000000000000000000000000000000000000000000\n        /* \"#utility.yul\":18230:18232   */\n      0x20\n        /* \"#utility.yul\":18222:18228   */\n      dup3\n        /* \"#utility.yul\":18218:18233   */\n      add\n        /* \"#utility.yul\":18211:18241   */\n      mstore\n        /* \"#utility.yul\":18026:18248   */\n      pop\n      jump\t// out\n        /* \"#utility.yul\":18254:18620   */\n    tag_221:\n        /* \"#utility.yul\":18396:18399   */\n      0x00\n        /* \"#utility.yul\":18417:18484   */\n      tag_383\n        /* \"#utility.yul\":18481:18483   */\n      0x23\n        /* \"#utility.yul\":18476:18479   */\n      dup4\n        /* \"#utility.yul\":18417:18484   */\n      tag_199\n      jump\t// in\n    tag_383:\n        /* \"#utility.yul\":18410:18484   */\n      swap2\n      pop\n        /* \"#utility.yul\":18493:18586   */\n      tag_384\n        /* \"#utility.yul\":18582:18585   */\n      dup3\n        /* \"#utility.yul\":18493:18586   */\n      tag_220\n      jump\t// in\n    tag_384:\n        /* \"#utility.yul\":18611:18613   */\n      0x40\n        /* \"#utility.yul\":18606:18609   */\n      dup3\n        /* \"#utility.yul\":18602:18614   */\n      add\n        /* \"#utility.yul\":18595:18614   */\n      swap1\n      pop\n        /* \"#utility.yul\":18254:18620   */\n      swap2\n      swap1\n      pop\n      jump\t// out\n        /* \"#utility.yul\":18626:19045   */\n    tag_166:\n        /* \"#utility.yul\":18792:18796   */\n      0x00\n        /* \"#utility.yul\":18830:18832   */\n      0x20\n        /* \"#utility.yul\":18819:18828   */\n      dup3\n        /* \"#utility.yul\":18815:18833   */\n      add\n        /* \"#utility.yul\":18807:18833   */\n      swap1\n      pop\n        /* \"#utility.yul\":18879:18888   */\n      dup2\n        /* \"#utility.yul\":18873:18877   */\n      dup2\n        /* \"#utility.yul\":18869:18889   */\n      sub\n        /* \"#utility.yul\":18865:18866   */\n      0x00\n        /* \"#utility.yul\":18854:18863   */\n      dup4\n        /* \"#utility.yul\":18850:18867   */\n      add\n        /* \"#utility.yul\":18843:18890   */\n      mstore\n        /* \"#utility.yul\":18907:19038   */\n      tag_386\n        /* \"#utility.yul\":19033:19037   */\n      dup2\n        /* \"#utility.yul\":18907:19038   */\n      tag_221\n      jump\t// in\n    tag_386:\n        /* \"#utility.yul\":18899:19038   */\n      swap1\n      pop\n        /* \"#utility.yul\":18626:19045   */\n      swap2\n      swap1\n      pop\n      jump\t// out\n        /* \"#utility.yul\":19051:19111   */\n    tag_222:\n        /* \"#utility.yul\":19079:19082   */\n      0x00\n        /* \"#utility.yul\":19100:19105   */\n      dup2\n        /* \"#utility.yul\":19093:19105   */\n      swap1\n      pop\n        /* \"#utility.yul\":19051:19111   */\n      swap2\n      swap1\n      pop\n      jump\t// out\n        /* \"#utility.yul\":19117:19259   */\n    tag_223:\n        /* \"#utility.yul\":19167:19176   */\n      0x00\n        /* \"#utility.yul\":19200:19253   */\n      tag_389\n        /* \"#utility.yul\":19218:19252   */\n      tag_390\n        /* \"#utility.yul\":19227:19251   */\n      tag_391\n        /* \"#utility.yul\":19245:19250   */\n      dup5\n        /* \"#utility.yul\":19227:19251   */\n      tag_181\n      jump\t// in\n    tag_391:\n        /* \"#utility.yul\":19218:19252   */\n      tag_222\n      jump\t// in\n    tag_390:\n        /* \"#utility.yul\":19200:19253   */\n      tag_181\n      jump\t// in\n    tag_389:\n        /* \"#utility.yul\":19187:19253   */\n      swap1\n      pop\n        /* \"#utility.yul\":19117:19259   */\n      swap2\n      swap1\n      pop\n      jump\t// out\n        /* \"#utility.yul\":19265:19391   */\n    tag_224:\n        /* \"#utility.yul\":19315:19324   */\n      0x00\n        /* \"#utility.yul\":19348:19385   */\n      tag_393\n        /* \"#utility.yul\":19379:19384   */\n      dup3\n        /* \"#utility.yul\":19348:19385   */\n      tag_223\n      jump\t// in\n    tag_393:\n        /* \"#utility.yul\":19335:19385   */\n      swap1\n      pop\n        /* \"#utility.yul\":19265:19391   */\n      swap2\n      swap1\n      pop\n      jump\t// out\n        /* \"#utility.yul\":19397:19531   */\n    tag_225:\n        /* \"#utility.yul\":19455:19464   */\n      0x00\n        /* \"#utility.yul\":19488:19525   */\n      tag_395\n        /* \"#utility.yul\":19519:19524   */\n      dup3\n        /* \"#utility.yul\":19488:19525   */\n      tag_224\n      jump\t// in\n    tag_395:\n        /* \"#utility.yul\":19475:19525   */\n      swap1\n      pop\n        /* \"#utility.yul\":19397:19531   */\n      swap2\n      swap1\n      pop\n      jump\t// out\n        /* \"#utility.yul\":19537:19684   */\n    tag_226:\n        /* \"#utility.yul\":19632:19677   */\n      tag_397\n        /* \"#utility.yul\":19671:19676   */\n      dup2\n        /* \"#utility.yul\":19632:19677   */\n      tag_225\n      jump\t// in\n    tag_397:\n        /* \"#utility.yul\":19627:19630   */\n      dup3\n        /* \"#utility.yul\":19620:19678   */\n      mstore\n        /* \"#utility.yul\":19537:19684   */\n      pop\n      pop\n      jump\t// out\n        /* \"#utility.yul\":19690:20038   */\n    tag_173:\n        /* \"#utility.yul\":19819:19823   */\n      0x00\n        /* \"#utility.yul\":19857:19859   */\n      0x40\n        /* \"#utility.yul\":19846:19855   */\n      dup3\n        /* \"#utility.yul\":19842:19860   */\n      add\n        /* \"#utility.yul\":19834:19860   */\n      swap1\n      pop\n        /* \"#utility.yul\":19870:19949   */\n      tag_399\n        /* \"#utility.yul\":19946:19947   */\n      0x00\n        /* \"#utility.yul\":19935:19944   */\n      dup4\n        /* \"#utility.yul\":19931:19948   */\n      add\n        /* \"#utility.yul\":19922:19928   */\n      dup6\n        /* \"#utility.yul\":19870:19949   */\n      tag_226\n      jump\t// in\n    tag_399:\n        /* \"#utility.yul\":19959:20031   */\n      tag_400\n        /* \"#utility.yul\":20027:20029   */\n      0x20\n        /* \"#utility.yul\":20016:20025   */\n      dup4\n        /* \"#utility.yul\":20012:20030   */\n      add\n        /* \"#utility.yul\":20003:20009   */\n      dup5\n        /* \"#utility.yul\":19959:20031   */\n      tag_175\n      jump\t// in\n    tag_400:\n        /* \"#utility.yul\":19690:20038   */\n      swap4\n      swap3\n      pop\n      pop\n      pop\n      jump\t// out\n\n    auxdata: 0xa2646970667358221220871a6bb74a73058c13eb30c693b8d52badfb100863cd832c2f954fc0973fedda64736f6c634300081a0033\n}\n",
				"bytecode": {
					"linkReferences": {},
					"object": "608060405234801561000f575f80fd5b50604051611a65380380611a65833981810160405281019061003191906100eb565b335f806101000a81548173ffffffffffffffffffffffffffffffffffffffff021916908373ffffffffffffffffffffffffffffffffffffffff16021790555042600181905550603c816100849190610143565b4261008f9190610184565b6002819055505f60035f6101000a81548160ff021916908315150217905550506101b7565b5f80fd5b5f819050919050565b6100ca816100b8565b81146100d4575f80fd5b50565b5f815190506100e5816100c1565b92915050565b5f60208284031215610100576100ff6100b4565b5b5f61010d848285016100d7565b91505092915050565b7f4e487b71000000000000000000000000000000000000000000000000000000005f52601160045260245ffd5b5f61014d826100b8565b9150610158836100b8565b9250828202610166816100b8565b9150828204841483151761017d5761017c610116565b5b5092915050565b5f61018e826100b8565b9150610199836100b8565b92508282019050808211156101b1576101b0610116565b5b92915050565b6118a1806101c45f395ff3fe6080604052600436106100f2575f3560e01c80637bb44b8311610089578063b81c78ec11610058578063b81c78ec146102cc578063d57bde79146102f6578063f77282ab14610321578063fc7e286d14610337576100f2565b80637bb44b8314610231578063864333741461025b5780638e7ea5b2146102855780639979ef45146102b0576100f2565b80635ccf987e116100c55780635ccf987e146101b15780635ec2c7bf146101c7578063629e6b24146101f15780636d4d09d714610207576100f2565b80632f6f81d9146100f65780634423c5f1146101205780634ba9a9271461015d5780635681104a14610187575b5f80fd5b348015610101575f80fd5b5061010a610373565b6040516101179190610ee0565b60405180910390f35b34801561012b575f80fd5b5061014660048036038101906101419190610f27565b610378565b604051610154929190610f91565b60405180910390f35b348015610168575f80fd5b506101716103c6565b60405161017e9190610ee0565b60405180910390f35b348015610192575f80fd5b5061019b6103cc565b6040516101a89190610ee0565b60405180910390f35b3480156101bc575f80fd5b506101c56103d2565b005b3480156101d2575f80fd5b506101db610522565b6040516101e89190610fb8565b60405180910390f35b3480156101fc575f80fd5b50610205610545565b005b348015610212575f80fd5b5061021b610711565b6040516102289190610ee0565b60405180910390f35b34801561023c575f80fd5b50610245610717565b6040516102529190610ee0565b60405180910390f35b348015610266575f80fd5b5061026f61071c565b60405161027c9190610feb565b60405180910390f35b348015610290575f80fd5b5061029961072e565b6040516102a7929190611024565b60405180910390f35b6102ca60048036038101906102c59190610f27565b6107f5565b005b3480156102d7575f80fd5b506102e0610b96565b6040516102ed919061113e565b60405180910390f35b348015610301575f80fd5b5061030a610c50565b604051610318929190610f91565b60405180910390f35b34801561032c575f80fd5b50610335610c80565b005b348015610342575f80fd5b5061035d60048036038101906103589190611188565b610eb3565b60405161036a9190610ee0565b60405180910390f35b600281565b60078181548110610387575f80fd5b905f5260205f2090600202015f91509050805f015f9054906101000a900473ffffffffffffffffffffffffffffffffffffffff16908060010154905082565b60025481565b61025881565b6002544210610416576040517f08c379a000000000000000000000000000000000000000000000000000000000815260040161040d9061120d565b60405180910390fd5b5f60065f3373ffffffffffffffffffffffffffffffffffffffff1673ffffffffffffffffffffffffffffffffffffffff1681526020019081526020015f205490505f8111610499576040517f08c379a000000000000000000000000000000000000000000000000000000000815260040161049090611275565b60405180910390fd5b5f60065f3373ffffffffffffffffffffffffffffffffffffffff1673ffffffffffffffffffffffffffffffffffffffff1681526020019081526020015f20819055503373ffffffffffffffffffffffffffffffffffffffff166108fc8290811502906040515f60405180830381858888f1935050505015801561051e573d5f803e3d5ffd5b5050565b5f8054906101000a900473ffffffffffffffffffffffffffffffffffffffff1681565b60025442101561058a576040517f08c379a0000000000000000000000000000000000000000000000000000000008152600401610581906112dd565b60405180910390fd5b60035f9054906101000a900460ff166105d8576040517f08c379a00000000000000000000000000000000000000000000000000000000081526004016105cf90611345565b60405180910390fd5b5f60065f3373ffffffffffffffffffffffffffffffffffffffff1673ffffffffffffffffffffffffffffffffffffffff1681526020019081526020015f205490505f811161065b576040517f08c379a0000000000000000000000000000000000000000000000000000000008152600401610652906113ad565b60405180910390fd5b5f606460028361066b91906113f8565b6106759190611466565b90505f81836106849190611496565b90505f60065f3373ffffffffffffffffffffffffffffffffffffffff1673ffffffffffffffffffffffffffffffffffffffff1681526020019081526020015f20819055503373ffffffffffffffffffffffffffffffffffffffff166108fc8290811502906040515f60405180830381858888f1935050505015801561070b573d5f803e3d5ffd5b50505050565b60015481565b600581565b60035f9054906101000a900460ff1681565b5f80600254421015610775576040517f08c379a000000000000000000000000000000000000000000000000000000000815260040161076c906112dd565b60405180910390fd5b60035f9054906101000a900460ff166107c3576040517f08c379a00000000000000000000000000000000000000000000000000000000081526004016107ba90611539565b60405180910390fd5b60045f015f9054906101000a900473ffffffffffffffffffffffffffffffffffffffff16600460010154915091509091565b6002544210610839576040517f08c379a00000000000000000000000000000000000000000000000000000000081526004016108309061120d565b60405180910390fd5b5f811161087b576040517f08c379a0000000000000000000000000000000000000000000000000000000008152600401610872906115c7565b60405180910390fd5b5f6064600560046001015461089091906113f8565b61089a9190611466565b6004600101546108aa91906115e5565b9050803410156108ef576040517f08c379a00000000000000000000000000000000000000000000000000000000081526004016108e690611688565b60405180910390fd5b5f73ffffffffffffffffffffffffffffffffffffffff1660045f015f9054906101000a900473ffffffffffffffffffffffffffffffffffffffff1673ffffffffffffffffffffffffffffffffffffffff16146109c15760046001015460065f60045f015f9054906101000a900473ffffffffffffffffffffffffffffffffffffffff1673ffffffffffffffffffffffffffffffffffffffff1673ffffffffffffffffffffffffffffffffffffffff1681526020019081526020015f205f8282546109b991906115e5565b925050819055505b60405180604001604052803373ffffffffffffffffffffffffffffffffffffffff1681526020013481525060045f820151815f015f6101000a81548173ffffffffffffffffffffffffffffffffffffffff021916908373ffffffffffffffffffffffffffffffffffffffff1602179055506020820151816001015590505060076004908060018154018082558091505060019003905f5260205f2090600202015f909190919091505f82015f9054906101000a900473ffffffffffffffffffffffffffffffffffffffff16815f015f6101000a81548173ffffffffffffffffffffffffffffffffffffffff021916908373ffffffffffffffffffffffffffffffffffffffff160217905550600182015481600101555050610258600254610ae89190611496565b4210610b425761025860025f828254610b0191906115e5565b925050819055507fc2b459809119087ca9d2bc10dea53a51b7d848b1a11075db037bdca58292c3e8600254604051610b399190610ee0565b60405180910390a15b3373ffffffffffffffffffffffffffffffffffffffff167f87f5b2fe112bf269d30fb8ca9dc0bde0afd0cc39258e13fafd75fe794795bf0e3442604051610b8a9291906116a6565b60405180910390a25050565b60606007805480602002602001604051908101604052809291908181526020015f905b82821015610c47578382905f5260205f2090600202016040518060400160405290815f82015f9054906101000a900473ffffffffffffffffffffffffffffffffffffffff1673ffffffffffffffffffffffffffffffffffffffff1673ffffffffffffffffffffffffffffffffffffffff16815260200160018201548152505081526020019060010190610bb9565b50505050905090565b6004805f015f9054906101000a900473ffffffffffffffffffffffffffffffffffffffff16908060010154905082565b5f8054906101000a900473ffffffffffffffffffffffffffffffffffffffff1673ffffffffffffffffffffffffffffffffffffffff163373ffffffffffffffffffffffffffffffffffffffff1614610d0d576040517f08c379a0000000000000000000000000000000000000000000000000000000008152600401610d049061173d565b60405180910390fd5b600254421015610d52576040517f08c379a0000000000000000000000000000000000000000000000000000000008152600401610d49906112dd565b60405180910390fd5b60035f9054906101000a900460ff1615610da1576040517f08c379a0000000000000000000000000000000000000000000000000000000008152600401610d98906117cb565b60405180910390fd5b600160035f6101000a81548160ff0219169083151502179055505f60646002600460010154610dd091906113f8565b610dda9190611466565b90505f8054906101000a900473ffffffffffffffffffffffffffffffffffffffff1673ffffffffffffffffffffffffffffffffffffffff166108fc82600460010154610e269190611496565b90811502906040515f60405180830381858888f19350505050158015610e4e573d5f803e3d5ffd5b507fdaec4582d5d9595688c8c98545fdd1c696d41c6aeaeb636737e84ed2f5c00eda60045f015f9054906101000a900473ffffffffffffffffffffffffffffffffffffffff16600460010154604051610ea8929190611844565b60405180910390a150565b6006602052805f5260405f205f915090505481565b5f819050919050565b610eda81610ec8565b82525050565b5f602082019050610ef35f830184610ed1565b92915050565b5f80fd5b610f0681610ec8565b8114610f10575f80fd5b50565b5f81359050610f2181610efd565b92915050565b5f60208284031215610f3c57610f3b610ef9565b5b5f610f4984828501610f13565b91505092915050565b5f73ffffffffffffffffffffffffffffffffffffffff82169050919050565b5f610f7b82610f52565b9050919050565b610f8b81610f71565b82525050565b5f604082019050610fa45f830185610f82565b610fb16020830184610ed1565b9392505050565b5f602082019050610fcb5f830184610f82565b92915050565b5f8115159050919050565b610fe581610fd1565b82525050565b5f602082019050610ffe5f830184610fdc565b92915050565b5f61100e82610f52565b9050919050565b61101e81611004565b82525050565b5f6040820190506110375f830185611015565b6110446020830184610ed1565b9392505050565b5f81519050919050565b5f82825260208201905092915050565b5f819050602082019050919050565b61107d81610f71565b82525050565b61108c81610ec8565b82525050565b604082015f8201516110a65f850182611074565b5060208201516110b96020850182611083565b50505050565b5f6110ca8383611092565b60408301905092915050565b5f602082019050919050565b5f6110ec8261104b565b6110f68185611055565b935061110183611065565b805f5b8381101561113157815161111888826110bf565b9750611123836110d6565b925050600181019050611104565b5085935050505092915050565b5f6020820190508181035f83015261115681846110e2565b905092915050565b61116781611004565b8114611171575f80fd5b50565b5f813590506111828161115e565b92915050565b5f6020828403121561119d5761119c610ef9565b5b5f6111aa84828501611174565b91505092915050565b5f82825260208201905092915050565b7f41756374696f6e2068617320616c726561647920656e6465642e0000000000005f82015250565b5f6111f7601a836111b3565b9150611202826111c3565b602082019050919050565b5f6020820190508181035f830152611224816111eb565b9050919050565b7f4e6f2066756e647320617661696c61626c6520666f7220726566756e642e00005f82015250565b5f61125f601e836111b3565b915061126a8261122b565b602082019050919050565b5f6020820190508181035f83015261128c81611253565b9050919050565b7f41756374696f6e206973207374696c6c20696e2070726f67726573732e0000005f82015250565b5f6112c7601d836111b3565b91506112d282611293565b602082019050919050565b5f6020820190508181035f8301526112f4816112bb565b9050919050565b7f41756374696f6e20686173206e6f7420656e646564207965742e0000000000005f82015250565b5f61132f601a836111b3565b915061133a826112fb565b602082019050919050565b5f6020820190508181035f83015261135c81611323565b9050919050565b7f4e6f20726566756e6420617661696c61626c652e0000000000000000000000005f82015250565b5f6113976014836111b3565b91506113a282611363565b602082019050919050565b5f6020820190508181035f8301526113c48161138b565b9050919050565b7f4e487b71000000000000000000000000000000000000000000000000000000005f52601160045260245ffd5b5f61140282610ec8565b915061140d83610ec8565b925082820261141b81610ec8565b91508282048414831517611432576114316113cb565b5b5092915050565b7f4e487b71000000000000000000000000000000000000000000000000000000005f52601260045260245ffd5b5f61147082610ec8565b915061147b83610ec8565b92508261148b5761148a611439565b5b828204905092915050565b5f6114a082610ec8565b91506114ab83610ec8565b92508282039050818111156114c3576114c26113cb565b5b92915050565b7f41756374696f6e206d75737420626520656e64656420746f20676574207468655f8201527f2077696e6e65722e000000000000000000000000000000000000000000000000602082015250565b5f6115236028836111b3565b915061152e826114c9565b604082019050919050565b5f6020820190508181035f83015261155081611517565b9050919050565b7f42696420616d6f756e74206d7573742062652067726561746572207468616e205f8201527f7a65726f2e000000000000000000000000000000000000000000000000000000602082015250565b5f6115b16025836111b3565b91506115bc82611557565b604082019050919050565b5f6020820190508181035f8301526115de816115a5565b9050919050565b5f6115ef82610ec8565b91506115fa83610ec8565b9250828201905080821115611612576116116113cb565b5b92915050565b7f426964206d757374206265206174206c656173742035252068696768657220745f8201527f68616e207468652063757272656e742068696768657374206269642e00000000602082015250565b5f611672603c836111b3565b915061167d82611618565b604082019050919050565b5f6020820190508181035f83015261169f81611666565b9050919050565b5f6040820190506116b95f830185610ed1565b6116c66020830184610ed1565b9392505050565b7f4f6e6c792073656e6465722063616e20706572666f726d2074686973206163745f8201527f696f6e2e00000000000000000000000000000000000000000000000000000000602082015250565b5f6117276024836111b3565b9150611732826116cd565b604082019050919050565b5f6020820190508181035f8301526117548161171b565b9050919050565b7f41756374696f6e2068617320616c7265616479206265656e2066696e616c697a5f8201527f65642e0000000000000000000000000000000000000000000000000000000000602082015250565b5f6117b56023836111b3565b91506117c08261175b565b604082019050919050565b5f6020820190508181035f8301526117e2816117a9565b9050919050565b5f819050919050565b5f61180c61180761180284610f52565b6117e9565b610f52565b9050919050565b5f61181d826117f2565b9050919050565b5f61182e82611813565b9050919050565b61183e81611824565b82525050565b5f6040820190506118575f830185611835565b6118646020830184610ed1565b939250505056fea2646970667358221220871a6bb74a73058c13eb30c693b8d52badfb100863cd832c2f954fc0973fedda64736f6c634300081a0033",
					"opcodes": "PUSH1 0x80 PUSH1 0x40 MSTORE CALLVALUE DUP1 ISZERO PUSH2 0xF JUMPI PUSH0 DUP1 REVERT JUMPDEST POP PUSH1 0x40 MLOAD PUSH2 0x1A65 CODESIZE SUB DUP1 PUSH2 0x1A65 DUP4 CODECOPY DUP2 DUP2 ADD PUSH1 0x40 MSTORE DUP2 ADD SWAP1 PUSH2 0x31 SWAP2 SWAP1 PUSH2 0xEB JUMP JUMPDEST CALLER PUSH0 DUP1 PUSH2 0x100 EXP DUP2 SLOAD DUP2 PUSH20 0xFFFFFFFFFFFFFFFFFFFFFFFFFFFFFFFFFFFFFFFF MUL NOT AND SWAP1 DUP4 PUSH20 0xFFFFFFFFFFFFFFFFFFFFFFFFFFFFFFFFFFFFFFFF AND MUL OR SWAP1 SSTORE POP TIMESTAMP PUSH1 0x1 DUP2 SWAP1 SSTORE POP PUSH1 0x3C DUP2 PUSH2 0x84 SWAP2 SWAP1 PUSH2 0x143 JUMP JUMPDEST TIMESTAMP PUSH2 0x8F SWAP2 SWAP1 PUSH2 0x184 JUMP JUMPDEST PUSH1 0x2 DUP2 SWAP1 SSTORE POP PUSH0 PUSH1 0x3 PUSH0 PUSH2 0x100 EXP DUP2 SLOAD DUP2 PUSH1 0xFF MUL NOT AND SWAP1 DUP4 ISZERO ISZERO MUL OR SWAP1 SSTORE POP POP PUSH2 0x1B7 JUMP JUMPDEST PUSH0 DUP1 REVERT JUMPDEST PUSH0 DUP2 SWAP1 POP SWAP2 SWAP1 POP JUMP JUMPDEST PUSH2 0xCA DUP2 PUSH2 0xB8 JUMP JUMPDEST DUP2 EQ PUSH2 0xD4 JUMPI PUSH0 DUP1 REVERT JUMPDEST POP JUMP JUMPDEST PUSH0 DUP2 MLOAD SWAP1 POP PUSH2 0xE5 DUP2 PUSH2 0xC1 JUMP JUMPDEST SWAP3 SWAP2 POP POP JUMP JUMPDEST PUSH0 PUSH1 0x20 DUP3 DUP5 SUB SLT ISZERO PUSH2 0x100 JUMPI PUSH2 0xFF PUSH2 0xB4 JUMP JUMPDEST JUMPDEST PUSH0 PUSH2 0x10D DUP5 DUP3 DUP6 ADD PUSH2 0xD7 JUMP JUMPDEST SWAP2 POP POP SWAP3 SWAP2 POP POP JUMP JUMPDEST PUSH32 0x4E487B7100000000000000000000000000000000000000000000000000000000 PUSH0 MSTORE PUSH1 0x11 PUSH1 0x4 MSTORE PUSH1 0x24 PUSH0 REVERT JUMPDEST PUSH0 PUSH2 0x14D DUP3 PUSH2 0xB8 JUMP JUMPDEST SWAP2 POP PUSH2 0x158 DUP4 PUSH2 0xB8 JUMP JUMPDEST SWAP3 POP DUP3 DUP3 MUL PUSH2 0x166 DUP2 PUSH2 0xB8 JUMP JUMPDEST SWAP2 POP DUP3 DUP3 DIV DUP5 EQ DUP4 ISZERO OR PUSH2 0x17D JUMPI PUSH2 0x17C PUSH2 0x116 JUMP JUMPDEST JUMPDEST POP SWAP3 SWAP2 POP POP JUMP JUMPDEST PUSH0 PUSH2 0x18E DUP3 PUSH2 0xB8 JUMP JUMPDEST SWAP2 POP PUSH2 0x199 DUP4 PUSH2 0xB8 JUMP JUMPDEST SWAP3 POP DUP3 DUP3 ADD SWAP1 POP DUP1 DUP3 GT ISZERO PUSH2 0x1B1 JUMPI PUSH2 0x1B0 PUSH2 0x116 JUMP JUMPDEST JUMPDEST SWAP3 SWAP2 POP POP JUMP JUMPDEST PUSH2 0x18A1 DUP1 PUSH2 0x1C4 PUSH0 CODECOPY PUSH0 RETURN INVALID PUSH1 0x80 PUSH1 0x40 MSTORE PUSH1 0x4 CALLDATASIZE LT PUSH2 0xF2 JUMPI PUSH0 CALLDATALOAD PUSH1 0xE0 SHR DUP1 PUSH4 0x7BB44B83 GT PUSH2 0x89 JUMPI DUP1 PUSH4 0xB81C78EC GT PUSH2 0x58 JUMPI DUP1 PUSH4 0xB81C78EC EQ PUSH2 0x2CC JUMPI DUP1 PUSH4 0xD57BDE79 EQ PUSH2 0x2F6 JUMPI DUP1 PUSH4 0xF77282AB EQ PUSH2 0x321 JUMPI DUP1 PUSH4 0xFC7E286D EQ PUSH2 0x337 JUMPI PUSH2 0xF2 JUMP JUMPDEST DUP1 PUSH4 0x7BB44B83 EQ PUSH2 0x231 JUMPI DUP1 PUSH4 0x86433374 EQ PUSH2 0x25B JUMPI DUP1 PUSH4 0x8E7EA5B2 EQ PUSH2 0x285 JUMPI DUP1 PUSH4 0x9979EF45 EQ PUSH2 0x2B0 JUMPI PUSH2 0xF2 JUMP JUMPDEST DUP1 PUSH4 0x5CCF987E GT PUSH2 0xC5 JUMPI DUP1 PUSH4 0x5CCF987E EQ PUSH2 0x1B1 JUMPI DUP1 PUSH4 0x5EC2C7BF EQ PUSH2 0x1C7 JUMPI DUP1 PUSH4 0x629E6B24 EQ PUSH2 0x1F1 JUMPI DUP1 PUSH4 0x6D4D09D7 EQ PUSH2 0x207 JUMPI PUSH2 0xF2 JUMP JUMPDEST DUP1 PUSH4 0x2F6F81D9 EQ PUSH2 0xF6 JUMPI DUP1 PUSH4 0x4423C5F1 EQ PUSH2 0x120 JUMPI DUP1 PUSH4 0x4BA9A927 EQ PUSH2 0x15D JUMPI DUP1 PUSH4 0x5681104A EQ PUSH2 0x187 JUMPI JUMPDEST PUSH0 DUP1 REVERT JUMPDEST CALLVALUE DUP1 ISZERO PUSH2 0x101 JUMPI PUSH0 DUP1 REVERT JUMPDEST POP PUSH2 0x10A PUSH2 0x373 JUMP JUMPDEST PUSH1 0x40 MLOAD PUSH2 0x117 SWAP2 SWAP1 PUSH2 0xEE0 JUMP JUMPDEST PUSH1 0x40 MLOAD DUP1 SWAP2 SUB SWAP1 RETURN JUMPDEST CALLVALUE DUP1 ISZERO PUSH2 0x12B JUMPI PUSH0 DUP1 REVERT JUMPDEST POP PUSH2 0x146 PUSH1 0x4 DUP1 CALLDATASIZE SUB DUP2 ADD SWAP1 PUSH2 0x141 SWAP2 SWAP1 PUSH2 0xF27 JUMP JUMPDEST PUSH2 0x378 JUMP JUMPDEST PUSH1 0x40 MLOAD PUSH2 0x154 SWAP3 SWAP2 SWAP1 PUSH2 0xF91 JUMP JUMPDEST PUSH1 0x40 MLOAD DUP1 SWAP2 SUB SWAP1 RETURN JUMPDEST CALLVALUE DUP1 ISZERO PUSH2 0x168 JUMPI PUSH0 DUP1 REVERT JUMPDEST POP PUSH2 0x171 PUSH2 0x3C6 JUMP JUMPDEST PUSH1 0x40 MLOAD PUSH2 0x17E SWAP2 SWAP1 PUSH2 0xEE0 JUMP JUMPDEST PUSH1 0x40 MLOAD DUP1 SWAP2 SUB SWAP1 RETURN JUMPDEST CALLVALUE DUP1 ISZERO PUSH2 0x192 JUMPI PUSH0 DUP1 REVERT JUMPDEST POP PUSH2 0x19B PUSH2 0x3CC JUMP JUMPDEST PUSH1 0x40 MLOAD PUSH2 0x1A8 SWAP2 SWAP1 PUSH2 0xEE0 JUMP JUMPDEST PUSH1 0x40 MLOAD DUP1 SWAP2 SUB SWAP1 RETURN JUMPDEST CALLVALUE DUP1 ISZERO PUSH2 0x1BC JUMPI PUSH0 DUP1 REVERT JUMPDEST POP PUSH2 0x1C5 PUSH2 0x3D2 JUMP JUMPDEST STOP JUMPDEST CALLVALUE DUP1 ISZERO PUSH2 0x1D2 JUMPI PUSH0 DUP1 REVERT JUMPDEST POP PUSH2 0x1DB PUSH2 0x522 JUMP JUMPDEST PUSH1 0x40 MLOAD PUSH2 0x1E8 SWAP2 SWAP1 PUSH2 0xFB8 JUMP JUMPDEST PUSH1 0x40 MLOAD DUP1 SWAP2 SUB SWAP1 RETURN JUMPDEST CALLVALUE DUP1 ISZERO PUSH2 0x1FC JUMPI PUSH0 DUP1 REVERT JUMPDEST POP PUSH2 0x205 PUSH2 0x545 JUMP JUMPDEST STOP JUMPDEST CALLVALUE DUP1 ISZERO PUSH2 0x212 JUMPI PUSH0 DUP1 REVERT JUMPDEST POP PUSH2 0x21B PUSH2 0x711 JUMP JUMPDEST PUSH1 0x40 MLOAD PUSH2 0x228 SWAP2 SWAP1 PUSH2 0xEE0 JUMP JUMPDEST PUSH1 0x40 MLOAD DUP1 SWAP2 SUB SWAP1 RETURN JUMPDEST CALLVALUE DUP1 ISZERO PUSH2 0x23C JUMPI PUSH0 DUP1 REVERT JUMPDEST POP PUSH2 0x245 PUSH2 0x717 JUMP JUMPDEST PUSH1 0x40 MLOAD PUSH2 0x252 SWAP2 SWAP1 PUSH2 0xEE0 JUMP JUMPDEST PUSH1 0x40 MLOAD DUP1 SWAP2 SUB SWAP1 RETURN JUMPDEST CALLVALUE DUP1 ISZERO PUSH2 0x266 JUMPI PUSH0 DUP1 REVERT JUMPDEST POP PUSH2 0x26F PUSH2 0x71C JUMP JUMPDEST PUSH1 0x40 MLOAD PUSH2 0x27C SWAP2 SWAP1 PUSH2 0xFEB JUMP JUMPDEST PUSH1 0x40 MLOAD DUP1 SWAP2 SUB SWAP1 RETURN JUMPDEST CALLVALUE DUP1 ISZERO PUSH2 0x290 JUMPI PUSH0 DUP1 REVERT JUMPDEST POP PUSH2 0x299 PUSH2 0x72E JUMP JUMPDEST PUSH1 0x40 MLOAD PUSH2 0x2A7 SWAP3 SWAP2 SWAP1 PUSH2 0x1024 JUMP JUMPDEST PUSH1 0x40 MLOAD DUP1 SWAP2 SUB SWAP1 RETURN JUMPDEST PUSH2 0x2CA PUSH1 0x4 DUP1 CALLDATASIZE SUB DUP2 ADD SWAP1 PUSH2 0x2C5 SWAP2 SWAP1 PUSH2 0xF27 JUMP JUMPDEST PUSH2 0x7F5 JUMP JUMPDEST STOP JUMPDEST CALLVALUE DUP1 ISZERO PUSH2 0x2D7 JUMPI PUSH0 DUP1 REVERT JUMPDEST POP PUSH2 0x2E0 PUSH2 0xB96 JUMP JUMPDEST PUSH1 0x40 MLOAD PUSH2 0x2ED SWAP2 SWAP1 PUSH2 0x113E JUMP JUMPDEST PUSH1 0x40 MLOAD DUP1 SWAP2 SUB SWAP1 RETURN JUMPDEST CALLVALUE DUP1 ISZERO PUSH2 0x301 JUMPI PUSH0 DUP1 REVERT JUMPDEST POP PUSH2 0x30A PUSH2 0xC50 JUMP JUMPDEST PUSH1 0x40 MLOAD PUSH2 0x318 SWAP3 SWAP2 SWAP1 PUSH2 0xF91 JUMP JUMPDEST PUSH1 0x40 MLOAD DUP1 SWAP2 SUB SWAP1 RETURN JUMPDEST CALLVALUE DUP1 ISZERO PUSH2 0x32C JUMPI PUSH0 DUP1 REVERT JUMPDEST POP PUSH2 0x335 PUSH2 0xC80 JUMP JUMPDEST STOP JUMPDEST CALLVALUE DUP1 ISZERO PUSH2 0x342 JUMPI PUSH0 DUP1 REVERT JUMPDEST POP PUSH2 0x35D PUSH1 0x4 DUP1 CALLDATASIZE SUB DUP2 ADD SWAP1 PUSH2 0x358 SWAP2 SWAP1 PUSH2 0x1188 JUMP JUMPDEST PUSH2 0xEB3 JUMP JUMPDEST PUSH1 0x40 MLOAD PUSH2 0x36A SWAP2 SWAP1 PUSH2 0xEE0 JUMP JUMPDEST PUSH1 0x40 MLOAD DUP1 SWAP2 SUB SWAP1 RETURN JUMPDEST PUSH1 0x2 DUP2 JUMP JUMPDEST PUSH1 0x7 DUP2 DUP2 SLOAD DUP2 LT PUSH2 0x387 JUMPI PUSH0 DUP1 REVERT JUMPDEST SWAP1 PUSH0 MSTORE PUSH1 0x20 PUSH0 KECCAK256 SWAP1 PUSH1 0x2 MUL ADD PUSH0 SWAP2 POP SWAP1 POP DUP1 PUSH0 ADD PUSH0 SWAP1 SLOAD SWAP1 PUSH2 0x100 EXP SWAP1 DIV PUSH20 0xFFFFFFFFFFFFFFFFFFFFFFFFFFFFFFFFFFFFFFFF AND SWAP1 DUP1 PUSH1 0x1 ADD SLOAD SWAP1 POP DUP3 JUMP JUMPDEST PUSH1 0x2 SLOAD DUP2 JUMP JUMPDEST PUSH2 0x258 DUP2 JUMP JUMPDEST PUSH1 0x2 SLOAD TIMESTAMP LT PUSH2 0x416 JUMPI PUSH1 0x40 MLOAD PUSH32 0x8C379A000000000000000000000000000000000000000000000000000000000 DUP2 MSTORE PUSH1 0x4 ADD PUSH2 0x40D SWAP1 PUSH2 0x120D JUMP JUMPDEST PUSH1 0x40 MLOAD DUP1 SWAP2 SUB SWAP1 REVERT JUMPDEST PUSH0 PUSH1 0x6 PUSH0 CALLER PUSH20 0xFFFFFFFFFFFFFFFFFFFFFFFFFFFFFFFFFFFFFFFF AND PUSH20 0xFFFFFFFFFFFFFFFFFFFFFFFFFFFFFFFFFFFFFFFF AND DUP2 MSTORE PUSH1 0x20 ADD SWAP1 DUP2 MSTORE PUSH1 0x20 ADD PUSH0 KECCAK256 SLOAD SWAP1 POP PUSH0 DUP2 GT PUSH2 0x499 JUMPI PUSH1 0x40 MLOAD PUSH32 0x8C379A000000000000000000000000000000000000000000000000000000000 DUP2 MSTORE PUSH1 0x4 ADD PUSH2 0x490 SWAP1 PUSH2 0x1275 JUMP JUMPDEST PUSH1 0x40 MLOAD DUP1 SWAP2 SUB SWAP1 REVERT JUMPDEST PUSH0 PUSH1 0x6 PUSH0 CALLER PUSH20 0xFFFFFFFFFFFFFFFFFFFFFFFFFFFFFFFFFFFFFFFF AND PUSH20 0xFFFFFFFFFFFFFFFFFFFFFFFFFFFFFFFFFFFFFFFF AND DUP2 MSTORE PUSH1 0x20 ADD SWAP1 DUP2 MSTORE PUSH1 0x20 ADD PUSH0 KECCAK256 DUP2 SWAP1 SSTORE POP CALLER PUSH20 0xFFFFFFFFFFFFFFFFFFFFFFFFFFFFFFFFFFFFFFFF AND PUSH2 0x8FC DUP3 SWAP1 DUP2 ISZERO MUL SWAP1 PUSH1 0x40 MLOAD PUSH0 PUSH1 0x40 MLOAD DUP1 DUP4 SUB DUP2 DUP6 DUP9 DUP9 CALL SWAP4 POP POP POP POP ISZERO DUP1 ISZERO PUSH2 0x51E JUMPI RETURNDATASIZE PUSH0 DUP1 RETURNDATACOPY RETURNDATASIZE PUSH0 REVERT JUMPDEST POP POP JUMP JUMPDEST PUSH0 DUP1 SLOAD SWAP1 PUSH2 0x100 EXP SWAP1 DIV PUSH20 0xFFFFFFFFFFFFFFFFFFFFFFFFFFFFFFFFFFFFFFFF AND DUP2 JUMP JUMPDEST PUSH1 0x2 SLOAD TIMESTAMP LT ISZERO PUSH2 0x58A JUMPI PUSH1 0x40 MLOAD PUSH32 0x8C379A000000000000000000000000000000000000000000000000000000000 DUP2 MSTORE PUSH1 0x4 ADD PUSH2 0x581 SWAP1 PUSH2 0x12DD JUMP JUMPDEST PUSH1 0x40 MLOAD DUP1 SWAP2 SUB SWAP1 REVERT JUMPDEST PUSH1 0x3 PUSH0 SWAP1 SLOAD SWAP1 PUSH2 0x100 EXP SWAP1 DIV PUSH1 0xFF AND PUSH2 0x5D8 JUMPI PUSH1 0x40 MLOAD PUSH32 0x8C379A000000000000000000000000000000000000000000000000000000000 DUP2 MSTORE PUSH1 0x4 ADD PUSH2 0x5CF SWAP1 PUSH2 0x1345 JUMP JUMPDEST PUSH1 0x40 MLOAD DUP1 SWAP2 SUB SWAP1 REVERT JUMPDEST PUSH0 PUSH1 0x6 PUSH0 CALLER PUSH20 0xFFFFFFFFFFFFFFFFFFFFFFFFFFFFFFFFFFFFFFFF AND PUSH20 0xFFFFFFFFFFFFFFFFFFFFFFFFFFFFFFFFFFFFFFFF AND DUP2 MSTORE PUSH1 0x20 ADD SWAP1 DUP2 MSTORE PUSH1 0x20 ADD PUSH0 KECCAK256 SLOAD SWAP1 POP PUSH0 DUP2 GT PUSH2 0x65B JUMPI PUSH1 0x40 MLOAD PUSH32 0x8C379A000000000000000000000000000000000000000000000000000000000 DUP2 MSTORE PUSH1 0x4 ADD PUSH2 0x652 SWAP1 PUSH2 0x13AD JUMP JUMPDEST PUSH1 0x40 MLOAD DUP1 SWAP2 SUB SWAP1 REVERT JUMPDEST PUSH0 PUSH1 0x64 PUSH1 0x2 DUP4 PUSH2 0x66B SWAP2 SWAP1 PUSH2 0x13F8 JUMP JUMPDEST PUSH2 0x675 SWAP2 SWAP1 PUSH2 0x1466 JUMP JUMPDEST SWAP1 POP PUSH0 DUP2 DUP4 PUSH2 0x684 SWAP2 SWAP1 PUSH2 0x1496 JUMP JUMPDEST SWAP1 POP PUSH0 PUSH1 0x6 PUSH0 CALLER PUSH20 0xFFFFFFFFFFFFFFFFFFFFFFFFFFFFFFFFFFFFFFFF AND PUSH20 0xFFFFFFFFFFFFFFFFFFFFFFFFFFFFFFFFFFFFFFFF AND DUP2 MSTORE PUSH1 0x20 ADD SWAP1 DUP2 MSTORE PUSH1 0x20 ADD PUSH0 KECCAK256 DUP2 SWAP1 SSTORE POP CALLER PUSH20 0xFFFFFFFFFFFFFFFFFFFFFFFFFFFFFFFFFFFFFFFF AND PUSH2 0x8FC DUP3 SWAP1 DUP2 ISZERO MUL SWAP1 PUSH1 0x40 MLOAD PUSH0 PUSH1 0x40 MLOAD DUP1 DUP4 SUB DUP2 DUP6 DUP9 DUP9 CALL SWAP4 POP POP POP POP ISZERO DUP1 ISZERO PUSH2 0x70B JUMPI RETURNDATASIZE PUSH0 DUP1 RETURNDATACOPY RETURNDATASIZE PUSH0 REVERT JUMPDEST POP POP POP POP JUMP JUMPDEST PUSH1 0x1 SLOAD DUP2 JUMP JUMPDEST PUSH1 0x5 DUP2 JUMP JUMPDEST PUSH1 0x3 PUSH0 SWAP1 SLOAD SWAP1 PUSH2 0x100 EXP SWAP1 DIV PUSH1 0xFF AND DUP2 JUMP JUMPDEST PUSH0 DUP1 PUSH1 0x2 SLOAD TIMESTAMP LT ISZERO PUSH2 0x775 JUMPI PUSH1 0x40 MLOAD PUSH32 0x8C379A000000000000000000000000000000000000000000000000000000000 DUP2 MSTORE PUSH1 0x4 ADD PUSH2 0x76C SWAP1 PUSH2 0x12DD JUMP JUMPDEST PUSH1 0x40 MLOAD DUP1 SWAP2 SUB SWAP1 REVERT JUMPDEST PUSH1 0x3 PUSH0 SWAP1 SLOAD SWAP1 PUSH2 0x100 EXP SWAP1 DIV PUSH1 0xFF AND PUSH2 0x7C3 JUMPI PUSH1 0x40 MLOAD PUSH32 0x8C379A000000000000000000000000000000000000000000000000000000000 DUP2 MSTORE PUSH1 0x4 ADD PUSH2 0x7BA SWAP1 PUSH2 0x1539 JUMP JUMPDEST PUSH1 0x40 MLOAD DUP1 SWAP2 SUB SWAP1 REVERT JUMPDEST PUSH1 0x4 PUSH0 ADD PUSH0 SWAP1 SLOAD SWAP1 PUSH2 0x100 EXP SWAP1 DIV PUSH20 0xFFFFFFFFFFFFFFFFFFFFFFFFFFFFFFFFFFFFFFFF AND PUSH1 0x4 PUSH1 0x1 ADD SLOAD SWAP2 POP SWAP2 POP SWAP1 SWAP2 JUMP JUMPDEST PUSH1 0x2 SLOAD TIMESTAMP LT PUSH2 0x839 JUMPI PUSH1 0x40 MLOAD PUSH32 0x8C379A000000000000000000000000000000000000000000000000000000000 DUP2 MSTORE PUSH1 0x4 ADD PUSH2 0x830 SWAP1 PUSH2 0x120D JUMP JUMPDEST PUSH1 0x40 MLOAD DUP1 SWAP2 SUB SWAP1 REVERT JUMPDEST PUSH0 DUP2 GT PUSH2 0x87B JUMPI PUSH1 0x40 MLOAD PUSH32 0x8C379A000000000000000000000000000000000000000000000000000000000 DUP2 MSTORE PUSH1 0x4 ADD PUSH2 0x872 SWAP1 PUSH2 0x15C7 JUMP JUMPDEST PUSH1 0x40 MLOAD DUP1 SWAP2 SUB SWAP1 REVERT JUMPDEST PUSH0 PUSH1 0x64 PUSH1 0x5 PUSH1 0x4 PUSH1 0x1 ADD SLOAD PUSH2 0x890 SWAP2 SWAP1 PUSH2 0x13F8 JUMP JUMPDEST PUSH2 0x89A SWAP2 SWAP1 PUSH2 0x1466 JUMP JUMPDEST PUSH1 0x4 PUSH1 0x1 ADD SLOAD PUSH2 0x8AA SWAP2 SWAP1 PUSH2 0x15E5 JUMP JUMPDEST SWAP1 POP DUP1 CALLVALUE LT ISZERO PUSH2 0x8EF JUMPI PUSH1 0x40 MLOAD PUSH32 0x8C379A000000000000000000000000000000000000000000000000000000000 DUP2 MSTORE PUSH1 0x4 ADD PUSH2 0x8E6 SWAP1 PUSH2 0x1688 JUMP JUMPDEST PUSH1 0x40 MLOAD DUP1 SWAP2 SUB SWAP1 REVERT JUMPDEST PUSH0 PUSH20 0xFFFFFFFFFFFFFFFFFFFFFFFFFFFFFFFFFFFFFFFF AND PUSH1 0x4 PUSH0 ADD PUSH0 SWAP1 SLOAD SWAP1 PUSH2 0x100 EXP SWAP1 DIV PUSH20 0xFFFFFFFFFFFFFFFFFFFFFFFFFFFFFFFFFFFFFFFF AND PUSH20 0xFFFFFFFFFFFFFFFFFFFFFFFFFFFFFFFFFFFFFFFF AND EQ PUSH2 0x9C1 JUMPI PUSH1 0x4 PUSH1 0x1 ADD SLOAD PUSH1 0x6 PUSH0 PUSH1 0x4 PUSH0 ADD PUSH0 SWAP1 SLOAD SWAP1 PUSH2 0x100 EXP SWAP1 DIV PUSH20 0xFFFFFFFFFFFFFFFFFFFFFFFFFFFFFFFFFFFFFFFF AND PUSH20 0xFFFFFFFFFFFFFFFFFFFFFFFFFFFFFFFFFFFFFFFF AND PUSH20 0xFFFFFFFFFFFFFFFFFFFFFFFFFFFFFFFFFFFFFFFF AND DUP2 MSTORE PUSH1 0x20 ADD SWAP1 DUP2 MSTORE PUSH1 0x20 ADD PUSH0 KECCAK256 PUSH0 DUP3 DUP3 SLOAD PUSH2 0x9B9 SWAP2 SWAP1 PUSH2 0x15E5 JUMP JUMPDEST SWAP3 POP POP DUP2 SWAP1 SSTORE POP JUMPDEST PUSH1 0x40 MLOAD DUP1 PUSH1 0x40 ADD PUSH1 0x40 MSTORE DUP1 CALLER PUSH20 0xFFFFFFFFFFFFFFFFFFFFFFFFFFFFFFFFFFFFFFFF AND DUP2 MSTORE PUSH1 0x20 ADD CALLVALUE DUP2 MSTORE POP PUSH1 0x4 PUSH0 DUP3 ADD MLOAD DUP2 PUSH0 ADD PUSH0 PUSH2 0x100 EXP DUP2 SLOAD DUP2 PUSH20 0xFFFFFFFFFFFFFFFFFFFFFFFFFFFFFFFFFFFFFFFF MUL NOT AND SWAP1 DUP4 PUSH20 0xFFFFFFFFFFFFFFFFFFFFFFFFFFFFFFFFFFFFFFFF AND MUL OR SWAP1 SSTORE POP PUSH1 0x20 DUP3 ADD MLOAD DUP2 PUSH1 0x1 ADD SSTORE SWAP1 POP POP PUSH1 0x7 PUSH1 0x4 SWAP1 DUP1 PUSH1 0x1 DUP2 SLOAD ADD DUP1 DUP3 SSTORE DUP1 SWAP2 POP POP PUSH1 0x1 SWAP1 SUB SWAP1 PUSH0 MSTORE PUSH1 0x20 PUSH0 KECCAK256 SWAP1 PUSH1 0x2 MUL ADD PUSH0 SWAP1 SWAP2 SWAP1 SWAP2 SWAP1 SWAP2 POP PUSH0 DUP3 ADD PUSH0 SWAP1 SLOAD SWAP1 PUSH2 0x100 EXP SWAP1 DIV PUSH20 0xFFFFFFFFFFFFFFFFFFFFFFFFFFFFFFFFFFFFFFFF AND DUP2 PUSH0 ADD PUSH0 PUSH2 0x100 EXP DUP2 SLOAD DUP2 PUSH20 0xFFFFFFFFFFFFFFFFFFFFFFFFFFFFFFFFFFFFFFFF MUL NOT AND SWAP1 DUP4 PUSH20 0xFFFFFFFFFFFFFFFFFFFFFFFFFFFFFFFFFFFFFFFF AND MUL OR SWAP1 SSTORE POP PUSH1 0x1 DUP3 ADD SLOAD DUP2 PUSH1 0x1 ADD SSTORE POP POP PUSH2 0x258 PUSH1 0x2 SLOAD PUSH2 0xAE8 SWAP2 SWAP1 PUSH2 0x1496 JUMP JUMPDEST TIMESTAMP LT PUSH2 0xB42 JUMPI PUSH2 0x258 PUSH1 0x2 PUSH0 DUP3 DUP3 SLOAD PUSH2 0xB01 SWAP2 SWAP1 PUSH2 0x15E5 JUMP JUMPDEST SWAP3 POP POP DUP2 SWAP1 SSTORE POP PUSH32 0xC2B459809119087CA9D2BC10DEA53A51B7D848B1A11075DB037BDCA58292C3E8 PUSH1 0x2 SLOAD PUSH1 0x40 MLOAD PUSH2 0xB39 SWAP2 SWAP1 PUSH2 0xEE0 JUMP JUMPDEST PUSH1 0x40 MLOAD DUP1 SWAP2 SUB SWAP1 LOG1 JUMPDEST CALLER PUSH20 0xFFFFFFFFFFFFFFFFFFFFFFFFFFFFFFFFFFFFFFFF AND PUSH32 0x87F5B2FE112BF269D30FB8CA9DC0BDE0AFD0CC39258E13FAFD75FE794795BF0E CALLVALUE TIMESTAMP PUSH1 0x40 MLOAD PUSH2 0xB8A SWAP3 SWAP2 SWAP1 PUSH2 0x16A6 JUMP JUMPDEST PUSH1 0x40 MLOAD DUP1 SWAP2 SUB SWAP1 LOG2 POP POP JUMP JUMPDEST PUSH1 0x60 PUSH1 0x7 DUP1 SLOAD DUP1 PUSH1 0x20 MUL PUSH1 0x20 ADD PUSH1 0x40 MLOAD SWAP1 DUP2 ADD PUSH1 0x40 MSTORE DUP1 SWAP3 SWAP2 SWAP1 DUP2 DUP2 MSTORE PUSH1 0x20 ADD PUSH0 SWAP1 JUMPDEST DUP3 DUP3 LT ISZERO PUSH2 0xC47 JUMPI DUP4 DUP3 SWAP1 PUSH0 MSTORE PUSH1 0x20 PUSH0 KECCAK256 SWAP1 PUSH1 0x2 MUL ADD PUSH1 0x40 MLOAD DUP1 PUSH1 0x40 ADD PUSH1 0x40 MSTORE SWAP1 DUP2 PUSH0 DUP3 ADD PUSH0 SWAP1 SLOAD SWAP1 PUSH2 0x100 EXP SWAP1 DIV PUSH20 0xFFFFFFFFFFFFFFFFFFFFFFFFFFFFFFFFFFFFFFFF AND PUSH20 0xFFFFFFFFFFFFFFFFFFFFFFFFFFFFFFFFFFFFFFFF AND PUSH20 0xFFFFFFFFFFFFFFFFFFFFFFFFFFFFFFFFFFFFFFFF AND DUP2 MSTORE PUSH1 0x20 ADD PUSH1 0x1 DUP3 ADD SLOAD DUP2 MSTORE POP POP DUP2 MSTORE PUSH1 0x20 ADD SWAP1 PUSH1 0x1 ADD SWAP1 PUSH2 0xBB9 JUMP JUMPDEST POP POP POP POP SWAP1 POP SWAP1 JUMP JUMPDEST PUSH1 0x4 DUP1 PUSH0 ADD PUSH0 SWAP1 SLOAD SWAP1 PUSH2 0x100 EXP SWAP1 DIV PUSH20 0xFFFFFFFFFFFFFFFFFFFFFFFFFFFFFFFFFFFFFFFF AND SWAP1 DUP1 PUSH1 0x1 ADD SLOAD SWAP1 POP DUP3 JUMP JUMPDEST PUSH0 DUP1 SLOAD SWAP1 PUSH2 0x100 EXP SWAP1 DIV PUSH20 0xFFFFFFFFFFFFFFFFFFFFFFFFFFFFFFFFFFFFFFFF AND PUSH20 0xFFFFFFFFFFFFFFFFFFFFFFFFFFFFFFFFFFFFFFFF AND CALLER PUSH20 0xFFFFFFFFFFFFFFFFFFFFFFFFFFFFFFFFFFFFFFFF AND EQ PUSH2 0xD0D JUMPI PUSH1 0x40 MLOAD PUSH32 0x8C379A000000000000000000000000000000000000000000000000000000000 DUP2 MSTORE PUSH1 0x4 ADD PUSH2 0xD04 SWAP1 PUSH2 0x173D JUMP JUMPDEST PUSH1 0x40 MLOAD DUP1 SWAP2 SUB SWAP1 REVERT JUMPDEST PUSH1 0x2 SLOAD TIMESTAMP LT ISZERO PUSH2 0xD52 JUMPI PUSH1 0x40 MLOAD PUSH32 0x8C379A000000000000000000000000000000000000000000000000000000000 DUP2 MSTORE PUSH1 0x4 ADD PUSH2 0xD49 SWAP1 PUSH2 0x12DD JUMP JUMPDEST PUSH1 0x40 MLOAD DUP1 SWAP2 SUB SWAP1 REVERT JUMPDEST PUSH1 0x3 PUSH0 SWAP1 SLOAD SWAP1 PUSH2 0x100 EXP SWAP1 DIV PUSH1 0xFF AND ISZERO PUSH2 0xDA1 JUMPI PUSH1 0x40 MLOAD PUSH32 0x8C379A000000000000000000000000000000000000000000000000000000000 DUP2 MSTORE PUSH1 0x4 ADD PUSH2 0xD98 SWAP1 PUSH2 0x17CB JUMP JUMPDEST PUSH1 0x40 MLOAD DUP1 SWAP2 SUB SWAP1 REVERT JUMPDEST PUSH1 0x1 PUSH1 0x3 PUSH0 PUSH2 0x100 EXP DUP2 SLOAD DUP2 PUSH1 0xFF MUL NOT AND SWAP1 DUP4 ISZERO ISZERO MUL OR SWAP1 SSTORE POP PUSH0 PUSH1 0x64 PUSH1 0x2 PUSH1 0x4 PUSH1 0x1 ADD SLOAD PUSH2 0xDD0 SWAP2 SWAP1 PUSH2 0x13F8 JUMP JUMPDEST PUSH2 0xDDA SWAP2 SWAP1 PUSH2 0x1466 JUMP JUMPDEST SWAP1 POP PUSH0 DUP1 SLOAD SWAP1 PUSH2 0x100 EXP SWAP1 DIV PUSH20 0xFFFFFFFFFFFFFFFFFFFFFFFFFFFFFFFFFFFFFFFF AND PUSH20 0xFFFFFFFFFFFFFFFFFFFFFFFFFFFFFFFFFFFFFFFF AND PUSH2 0x8FC DUP3 PUSH1 0x4 PUSH1 0x1 ADD SLOAD PUSH2 0xE26 SWAP2 SWAP1 PUSH2 0x1496 JUMP JUMPDEST SWAP1 DUP2 ISZERO MUL SWAP1 PUSH1 0x40 MLOAD PUSH0 PUSH1 0x40 MLOAD DUP1 DUP4 SUB DUP2 DUP6 DUP9 DUP9 CALL SWAP4 POP POP POP POP ISZERO DUP1 ISZERO PUSH2 0xE4E JUMPI RETURNDATASIZE PUSH0 DUP1 RETURNDATACOPY RETURNDATASIZE PUSH0 REVERT JUMPDEST POP PUSH32 0xDAEC4582D5D9595688C8C98545FDD1C696D41C6AEAEB636737E84ED2F5C00EDA PUSH1 0x4 PUSH0 ADD PUSH0 SWAP1 SLOAD SWAP1 PUSH2 0x100 EXP SWAP1 DIV PUSH20 0xFFFFFFFFFFFFFFFFFFFFFFFFFFFFFFFFFFFFFFFF AND PUSH1 0x4 PUSH1 0x1 ADD SLOAD PUSH1 0x40 MLOAD PUSH2 0xEA8 SWAP3 SWAP2 SWAP1 PUSH2 0x1844 JUMP JUMPDEST PUSH1 0x40 MLOAD DUP1 SWAP2 SUB SWAP1 LOG1 POP JUMP JUMPDEST PUSH1 0x6 PUSH1 0x20 MSTORE DUP1 PUSH0 MSTORE PUSH1 0x40 PUSH0 KECCAK256 PUSH0 SWAP2 POP SWAP1 POP SLOAD DUP2 JUMP JUMPDEST PUSH0 DUP2 SWAP1 POP SWAP2 SWAP1 POP JUMP JUMPDEST PUSH2 0xEDA DUP2 PUSH2 0xEC8 JUMP JUMPDEST DUP3 MSTORE POP POP JUMP JUMPDEST PUSH0 PUSH1 0x20 DUP3 ADD SWAP1 POP PUSH2 0xEF3 PUSH0 DUP4 ADD DUP5 PUSH2 0xED1 JUMP JUMPDEST SWAP3 SWAP2 POP POP JUMP JUMPDEST PUSH0 DUP1 REVERT JUMPDEST PUSH2 0xF06 DUP2 PUSH2 0xEC8 JUMP JUMPDEST DUP2 EQ PUSH2 0xF10 JUMPI PUSH0 DUP1 REVERT JUMPDEST POP JUMP JUMPDEST PUSH0 DUP2 CALLDATALOAD SWAP1 POP PUSH2 0xF21 DUP2 PUSH2 0xEFD JUMP JUMPDEST SWAP3 SWAP2 POP POP JUMP JUMPDEST PUSH0 PUSH1 0x20 DUP3 DUP5 SUB SLT ISZERO PUSH2 0xF3C JUMPI PUSH2 0xF3B PUSH2 0xEF9 JUMP JUMPDEST JUMPDEST PUSH0 PUSH2 0xF49 DUP5 DUP3 DUP6 ADD PUSH2 0xF13 JUMP JUMPDEST SWAP2 POP POP SWAP3 SWAP2 POP POP JUMP JUMPDEST PUSH0 PUSH20 0xFFFFFFFFFFFFFFFFFFFFFFFFFFFFFFFFFFFFFFFF DUP3 AND SWAP1 POP SWAP2 SWAP1 POP JUMP JUMPDEST PUSH0 PUSH2 0xF7B DUP3 PUSH2 0xF52 JUMP JUMPDEST SWAP1 POP SWAP2 SWAP1 POP JUMP JUMPDEST PUSH2 0xF8B DUP2 PUSH2 0xF71 JUMP JUMPDEST DUP3 MSTORE POP POP JUMP JUMPDEST PUSH0 PUSH1 0x40 DUP3 ADD SWAP1 POP PUSH2 0xFA4 PUSH0 DUP4 ADD DUP6 PUSH2 0xF82 JUMP JUMPDEST PUSH2 0xFB1 PUSH1 0x20 DUP4 ADD DUP5 PUSH2 0xED1 JUMP JUMPDEST SWAP4 SWAP3 POP POP POP JUMP JUMPDEST PUSH0 PUSH1 0x20 DUP3 ADD SWAP1 POP PUSH2 0xFCB PUSH0 DUP4 ADD DUP5 PUSH2 0xF82 JUMP JUMPDEST SWAP3 SWAP2 POP POP JUMP JUMPDEST PUSH0 DUP2 ISZERO ISZERO SWAP1 POP SWAP2 SWAP1 POP JUMP JUMPDEST PUSH2 0xFE5 DUP2 PUSH2 0xFD1 JUMP JUMPDEST DUP3 MSTORE POP POP JUMP JUMPDEST PUSH0 PUSH1 0x20 DUP3 ADD SWAP1 POP PUSH2 0xFFE PUSH0 DUP4 ADD DUP5 PUSH2 0xFDC JUMP JUMPDEST SWAP3 SWAP2 POP POP JUMP JUMPDEST PUSH0 PUSH2 0x100E DUP3 PUSH2 0xF52 JUMP JUMPDEST SWAP1 POP SWAP2 SWAP1 POP JUMP JUMPDEST PUSH2 0x101E DUP2 PUSH2 0x1004 JUMP JUMPDEST DUP3 MSTORE POP POP JUMP JUMPDEST PUSH0 PUSH1 0x40 DUP3 ADD SWAP1 POP PUSH2 0x1037 PUSH0 DUP4 ADD DUP6 PUSH2 0x1015 JUMP JUMPDEST PUSH2 0x1044 PUSH1 0x20 DUP4 ADD DUP5 PUSH2 0xED1 JUMP JUMPDEST SWAP4 SWAP3 POP POP POP JUMP JUMPDEST PUSH0 DUP2 MLOAD SWAP1 POP SWAP2 SWAP1 POP JUMP JUMPDEST PUSH0 DUP3 DUP3 MSTORE PUSH1 0x20 DUP3 ADD SWAP1 POP SWAP3 SWAP2 POP POP JUMP JUMPDEST PUSH0 DUP2 SWAP1 POP PUSH1 0x20 DUP3 ADD SWAP1 POP SWAP2 SWAP1 POP JUMP JUMPDEST PUSH2 0x107D DUP2 PUSH2 0xF71 JUMP JUMPDEST DUP3 MSTORE POP POP JUMP JUMPDEST PUSH2 0x108C DUP2 PUSH2 0xEC8 JUMP JUMPDEST DUP3 MSTORE POP POP JUMP JUMPDEST PUSH1 0x40 DUP3 ADD PUSH0 DUP3 ADD MLOAD PUSH2 0x10A6 PUSH0 DUP6 ADD DUP3 PUSH2 0x1074 JUMP JUMPDEST POP PUSH1 0x20 DUP3 ADD MLOAD PUSH2 0x10B9 PUSH1 0x20 DUP6 ADD DUP3 PUSH2 0x1083 JUMP JUMPDEST POP POP POP POP JUMP JUMPDEST PUSH0 PUSH2 0x10CA DUP4 DUP4 PUSH2 0x1092 JUMP JUMPDEST PUSH1 0x40 DUP4 ADD SWAP1 POP SWAP3 SWAP2 POP POP JUMP JUMPDEST PUSH0 PUSH1 0x20 DUP3 ADD SWAP1 POP SWAP2 SWAP1 POP JUMP JUMPDEST PUSH0 PUSH2 0x10EC DUP3 PUSH2 0x104B JUMP JUMPDEST PUSH2 0x10F6 DUP2 DUP6 PUSH2 0x1055 JUMP JUMPDEST SWAP4 POP PUSH2 0x1101 DUP4 PUSH2 0x1065 JUMP JUMPDEST DUP1 PUSH0 JUMPDEST DUP4 DUP2 LT ISZERO PUSH2 0x1131 JUMPI DUP2 MLOAD PUSH2 0x1118 DUP9 DUP3 PUSH2 0x10BF JUMP JUMPDEST SWAP8 POP PUSH2 0x1123 DUP4 PUSH2 0x10D6 JUMP JUMPDEST SWAP3 POP POP PUSH1 0x1 DUP2 ADD SWAP1 POP PUSH2 0x1104 JUMP JUMPDEST POP DUP6 SWAP4 POP POP POP POP SWAP3 SWAP2 POP POP JUMP JUMPDEST PUSH0 PUSH1 0x20 DUP3 ADD SWAP1 POP DUP2 DUP2 SUB PUSH0 DUP4 ADD MSTORE PUSH2 0x1156 DUP2 DUP5 PUSH2 0x10E2 JUMP JUMPDEST SWAP1 POP SWAP3 SWAP2 POP POP JUMP JUMPDEST PUSH2 0x1167 DUP2 PUSH2 0x1004 JUMP JUMPDEST DUP2 EQ PUSH2 0x1171 JUMPI PUSH0 DUP1 REVERT JUMPDEST POP JUMP JUMPDEST PUSH0 DUP2 CALLDATALOAD SWAP1 POP PUSH2 0x1182 DUP2 PUSH2 0x115E JUMP JUMPDEST SWAP3 SWAP2 POP POP JUMP JUMPDEST PUSH0 PUSH1 0x20 DUP3 DUP5 SUB SLT ISZERO PUSH2 0x119D JUMPI PUSH2 0x119C PUSH2 0xEF9 JUMP JUMPDEST JUMPDEST PUSH0 PUSH2 0x11AA DUP5 DUP3 DUP6 ADD PUSH2 0x1174 JUMP JUMPDEST SWAP2 POP POP SWAP3 SWAP2 POP POP JUMP JUMPDEST PUSH0 DUP3 DUP3 MSTORE PUSH1 0x20 DUP3 ADD SWAP1 POP SWAP3 SWAP2 POP POP JUMP JUMPDEST PUSH32 0x41756374696F6E2068617320616C726561647920656E6465642E000000000000 PUSH0 DUP3 ADD MSTORE POP JUMP JUMPDEST PUSH0 PUSH2 0x11F7 PUSH1 0x1A DUP4 PUSH2 0x11B3 JUMP JUMPDEST SWAP2 POP PUSH2 0x1202 DUP3 PUSH2 0x11C3 JUMP JUMPDEST PUSH1 0x20 DUP3 ADD SWAP1 POP SWAP2 SWAP1 POP JUMP JUMPDEST PUSH0 PUSH1 0x20 DUP3 ADD SWAP1 POP DUP2 DUP2 SUB PUSH0 DUP4 ADD MSTORE PUSH2 0x1224 DUP2 PUSH2 0x11EB JUMP JUMPDEST SWAP1 POP SWAP2 SWAP1 POP JUMP JUMPDEST PUSH32 0x4E6F2066756E647320617661696C61626C6520666F7220726566756E642E0000 PUSH0 DUP3 ADD MSTORE POP JUMP JUMPDEST PUSH0 PUSH2 0x125F PUSH1 0x1E DUP4 PUSH2 0x11B3 JUMP JUMPDEST SWAP2 POP PUSH2 0x126A DUP3 PUSH2 0x122B JUMP JUMPDEST PUSH1 0x20 DUP3 ADD SWAP1 POP SWAP2 SWAP1 POP JUMP JUMPDEST PUSH0 PUSH1 0x20 DUP3 ADD SWAP1 POP DUP2 DUP2 SUB PUSH0 DUP4 ADD MSTORE PUSH2 0x128C DUP2 PUSH2 0x1253 JUMP JUMPDEST SWAP1 POP SWAP2 SWAP1 POP JUMP JUMPDEST PUSH32 0x41756374696F6E206973207374696C6C20696E2070726F67726573732E000000 PUSH0 DUP3 ADD MSTORE POP JUMP JUMPDEST PUSH0 PUSH2 0x12C7 PUSH1 0x1D DUP4 PUSH2 0x11B3 JUMP JUMPDEST SWAP2 POP PUSH2 0x12D2 DUP3 PUSH2 0x1293 JUMP JUMPDEST PUSH1 0x20 DUP3 ADD SWAP1 POP SWAP2 SWAP1 POP JUMP JUMPDEST PUSH0 PUSH1 0x20 DUP3 ADD SWAP1 POP DUP2 DUP2 SUB PUSH0 DUP4 ADD MSTORE PUSH2 0x12F4 DUP2 PUSH2 0x12BB JUMP JUMPDEST SWAP1 POP SWAP2 SWAP1 POP JUMP JUMPDEST PUSH32 0x41756374696F6E20686173206E6F7420656E646564207965742E000000000000 PUSH0 DUP3 ADD MSTORE POP JUMP JUMPDEST PUSH0 PUSH2 0x132F PUSH1 0x1A DUP4 PUSH2 0x11B3 JUMP JUMPDEST SWAP2 POP PUSH2 0x133A DUP3 PUSH2 0x12FB JUMP JUMPDEST PUSH1 0x20 DUP3 ADD SWAP1 POP SWAP2 SWAP1 POP JUMP JUMPDEST PUSH0 PUSH1 0x20 DUP3 ADD SWAP1 POP DUP2 DUP2 SUB PUSH0 DUP4 ADD MSTORE PUSH2 0x135C DUP2 PUSH2 0x1323 JUMP JUMPDEST SWAP1 POP SWAP2 SWAP1 POP JUMP JUMPDEST PUSH32 0x4E6F20726566756E6420617661696C61626C652E000000000000000000000000 PUSH0 DUP3 ADD MSTORE POP JUMP JUMPDEST PUSH0 PUSH2 0x1397 PUSH1 0x14 DUP4 PUSH2 0x11B3 JUMP JUMPDEST SWAP2 POP PUSH2 0x13A2 DUP3 PUSH2 0x1363 JUMP JUMPDEST PUSH1 0x20 DUP3 ADD SWAP1 POP SWAP2 SWAP1 POP JUMP JUMPDEST PUSH0 PUSH1 0x20 DUP3 ADD SWAP1 POP DUP2 DUP2 SUB PUSH0 DUP4 ADD MSTORE PUSH2 0x13C4 DUP2 PUSH2 0x138B JUMP JUMPDEST SWAP1 POP SWAP2 SWAP1 POP JUMP JUMPDEST PUSH32 0x4E487B7100000000000000000000000000000000000000000000000000000000 PUSH0 MSTORE PUSH1 0x11 PUSH1 0x4 MSTORE PUSH1 0x24 PUSH0 REVERT JUMPDEST PUSH0 PUSH2 0x1402 DUP3 PUSH2 0xEC8 JUMP JUMPDEST SWAP2 POP PUSH2 0x140D DUP4 PUSH2 0xEC8 JUMP JUMPDEST SWAP3 POP DUP3 DUP3 MUL PUSH2 0x141B DUP2 PUSH2 0xEC8 JUMP JUMPDEST SWAP2 POP DUP3 DUP3 DIV DUP5 EQ DUP4 ISZERO OR PUSH2 0x1432 JUMPI PUSH2 0x1431 PUSH2 0x13CB JUMP JUMPDEST JUMPDEST POP SWAP3 SWAP2 POP POP JUMP JUMPDEST PUSH32 0x4E487B7100000000000000000000000000000000000000000000000000000000 PUSH0 MSTORE PUSH1 0x12 PUSH1 0x4 MSTORE PUSH1 0x24 PUSH0 REVERT JUMPDEST PUSH0 PUSH2 0x1470 DUP3 PUSH2 0xEC8 JUMP JUMPDEST SWAP2 POP PUSH2 0x147B DUP4 PUSH2 0xEC8 JUMP JUMPDEST SWAP3 POP DUP3 PUSH2 0x148B JUMPI PUSH2 0x148A PUSH2 0x1439 JUMP JUMPDEST JUMPDEST DUP3 DUP3 DIV SWAP1 POP SWAP3 SWAP2 POP POP JUMP JUMPDEST PUSH0 PUSH2 0x14A0 DUP3 PUSH2 0xEC8 JUMP JUMPDEST SWAP2 POP PUSH2 0x14AB DUP4 PUSH2 0xEC8 JUMP JUMPDEST SWAP3 POP DUP3 DUP3 SUB SWAP1 POP DUP2 DUP2 GT ISZERO PUSH2 0x14C3 JUMPI PUSH2 0x14C2 PUSH2 0x13CB JUMP JUMPDEST JUMPDEST SWAP3 SWAP2 POP POP JUMP JUMPDEST PUSH32 0x41756374696F6E206D75737420626520656E64656420746F2067657420746865 PUSH0 DUP3 ADD MSTORE PUSH32 0x2077696E6E65722E000000000000000000000000000000000000000000000000 PUSH1 0x20 DUP3 ADD MSTORE POP JUMP JUMPDEST PUSH0 PUSH2 0x1523 PUSH1 0x28 DUP4 PUSH2 0x11B3 JUMP JUMPDEST SWAP2 POP PUSH2 0x152E DUP3 PUSH2 0x14C9 JUMP JUMPDEST PUSH1 0x40 DUP3 ADD SWAP1 POP SWAP2 SWAP1 POP JUMP JUMPDEST PUSH0 PUSH1 0x20 DUP3 ADD SWAP1 POP DUP2 DUP2 SUB PUSH0 DUP4 ADD MSTORE PUSH2 0x1550 DUP2 PUSH2 0x1517 JUMP JUMPDEST SWAP1 POP SWAP2 SWAP1 POP JUMP JUMPDEST PUSH32 0x42696420616D6F756E74206D7573742062652067726561746572207468616E20 PUSH0 DUP3 ADD MSTORE PUSH32 0x7A65726F2E000000000000000000000000000000000000000000000000000000 PUSH1 0x20 DUP3 ADD MSTORE POP JUMP JUMPDEST PUSH0 PUSH2 0x15B1 PUSH1 0x25 DUP4 PUSH2 0x11B3 JUMP JUMPDEST SWAP2 POP PUSH2 0x15BC DUP3 PUSH2 0x1557 JUMP JUMPDEST PUSH1 0x40 DUP3 ADD SWAP1 POP SWAP2 SWAP1 POP JUMP JUMPDEST PUSH0 PUSH1 0x20 DUP3 ADD SWAP1 POP DUP2 DUP2 SUB PUSH0 DUP4 ADD MSTORE PUSH2 0x15DE DUP2 PUSH2 0x15A5 JUMP JUMPDEST SWAP1 POP SWAP2 SWAP1 POP JUMP JUMPDEST PUSH0 PUSH2 0x15EF DUP3 PUSH2 0xEC8 JUMP JUMPDEST SWAP2 POP PUSH2 0x15FA DUP4 PUSH2 0xEC8 JUMP JUMPDEST SWAP3 POP DUP3 DUP3 ADD SWAP1 POP DUP1 DUP3 GT ISZERO PUSH2 0x1612 JUMPI PUSH2 0x1611 PUSH2 0x13CB JUMP JUMPDEST JUMPDEST SWAP3 SWAP2 POP POP JUMP JUMPDEST PUSH32 0x426964206D757374206265206174206C65617374203525206869676865722074 PUSH0 DUP3 ADD MSTORE PUSH32 0x68616E207468652063757272656E742068696768657374206269642E00000000 PUSH1 0x20 DUP3 ADD MSTORE POP JUMP JUMPDEST PUSH0 PUSH2 0x1672 PUSH1 0x3C DUP4 PUSH2 0x11B3 JUMP JUMPDEST SWAP2 POP PUSH2 0x167D DUP3 PUSH2 0x1618 JUMP JUMPDEST PUSH1 0x40 DUP3 ADD SWAP1 POP SWAP2 SWAP1 POP JUMP JUMPDEST PUSH0 PUSH1 0x20 DUP3 ADD SWAP1 POP DUP2 DUP2 SUB PUSH0 DUP4 ADD MSTORE PUSH2 0x169F DUP2 PUSH2 0x1666 JUMP JUMPDEST SWAP1 POP SWAP2 SWAP1 POP JUMP JUMPDEST PUSH0 PUSH1 0x40 DUP3 ADD SWAP1 POP PUSH2 0x16B9 PUSH0 DUP4 ADD DUP6 PUSH2 0xED1 JUMP JUMPDEST PUSH2 0x16C6 PUSH1 0x20 DUP4 ADD DUP5 PUSH2 0xED1 JUMP JUMPDEST SWAP4 SWAP3 POP POP POP JUMP JUMPDEST PUSH32 0x4F6E6C792073656E6465722063616E20706572666F726D207468697320616374 PUSH0 DUP3 ADD MSTORE PUSH32 0x696F6E2E00000000000000000000000000000000000000000000000000000000 PUSH1 0x20 DUP3 ADD MSTORE POP JUMP JUMPDEST PUSH0 PUSH2 0x1727 PUSH1 0x24 DUP4 PUSH2 0x11B3 JUMP JUMPDEST SWAP2 POP PUSH2 0x1732 DUP3 PUSH2 0x16CD JUMP JUMPDEST PUSH1 0x40 DUP3 ADD SWAP1 POP SWAP2 SWAP1 POP JUMP JUMPDEST PUSH0 PUSH1 0x20 DUP3 ADD SWAP1 POP DUP2 DUP2 SUB PUSH0 DUP4 ADD MSTORE PUSH2 0x1754 DUP2 PUSH2 0x171B JUMP JUMPDEST SWAP1 POP SWAP2 SWAP1 POP JUMP JUMPDEST PUSH32 0x41756374696F6E2068617320616C7265616479206265656E2066696E616C697A PUSH0 DUP3 ADD MSTORE PUSH32 0x65642E0000000000000000000000000000000000000000000000000000000000 PUSH1 0x20 DUP3 ADD MSTORE POP JUMP JUMPDEST PUSH0 PUSH2 0x17B5 PUSH1 0x23 DUP4 PUSH2 0x11B3 JUMP JUMPDEST SWAP2 POP PUSH2 0x17C0 DUP3 PUSH2 0x175B JUMP JUMPDEST PUSH1 0x40 DUP3 ADD SWAP1 POP SWAP2 SWAP1 POP JUMP JUMPDEST PUSH0 PUSH1 0x20 DUP3 ADD SWAP1 POP DUP2 DUP2 SUB PUSH0 DUP4 ADD MSTORE PUSH2 0x17E2 DUP2 PUSH2 0x17A9 JUMP JUMPDEST SWAP1 POP SWAP2 SWAP1 POP JUMP JUMPDEST PUSH0 DUP2 SWAP1 POP SWAP2 SWAP1 POP JUMP JUMPDEST PUSH0 PUSH2 0x180C PUSH2 0x1807 PUSH2 0x1802 DUP5 PUSH2 0xF52 JUMP JUMPDEST PUSH2 0x17E9 JUMP JUMPDEST PUSH2 0xF52 JUMP JUMPDEST SWAP1 POP SWAP2 SWAP1 POP JUMP JUMPDEST PUSH0 PUSH2 0x181D DUP3 PUSH2 0x17F2 JUMP JUMPDEST SWAP1 POP SWAP2 SWAP1 POP JUMP JUMPDEST PUSH0 PUSH2 0x182E DUP3 PUSH2 0x1813 JUMP JUMPDEST SWAP1 POP SWAP2 SWAP1 POP JUMP JUMPDEST PUSH2 0x183E DUP2 PUSH2 0x1824 JUMP JUMPDEST DUP3 MSTORE POP POP JUMP JUMPDEST PUSH0 PUSH1 0x40 DUP3 ADD SWAP1 POP PUSH2 0x1857 PUSH0 DUP4 ADD DUP6 PUSH2 0x1835 JUMP JUMPDEST PUSH2 0x1864 PUSH1 0x20 DUP4 ADD DUP5 PUSH2 0xED1 JUMP JUMPDEST SWAP4 SWAP3 POP POP POP JUMP INVALID LOG2 PUSH5 0x6970667358 0x22 SLT KECCAK256 DUP8 BYTE PUSH12 0xB74A73058C13EB30C693B8D5 0x2B 0xAD 0xFB LT ADDMOD PUSH4 0xCD832C2F SWAP6 0x4F 0xC0 SWAP8 EXTCODEHASH 0xED 0xDA PUSH5 0x736F6C6343 STOP ADDMOD BYTE STOP CALLER "
				},
				"gasEstimates": {
					"creation": {
						"codeDepositCost": "1261000",
						"executionCost": "infinite",
						"totalCost": "infinite"
					},
					"external": {
						"BID_INC_PERCENT()": "348",
						"EXTENSION_TIME()": "415",
						"GAS_FEE_PERCENT()": "349",
						"auctionEnded()": "2511",
						"auctioneer()": "2550",
						"bidEndTime()": "2493",
						"bidStartTime()": "2514",
						"bids(uint256)": "infinite",
						"deposits(address)": "2890",
						"finalizeAuction()": "infinite",
						"getBids()": "infinite",
						"getWinner()": "9083",
						"highestBid()": "4776",
						"placeBid(uint256)": "infinite",
						"refundLosingBids()": "infinite",
						"withdrawPartialDeposit()": "infinite"
					}
				},
				"methodIdentifiers": {
					"BID_INC_PERCENT()": "7bb44b83",
					"EXTENSION_TIME()": "5681104a",
					"GAS_FEE_PERCENT()": "2f6f81d9",
					"auctionEnded()": "86433374",
					"auctioneer()": "5ec2c7bf",
					"bidEndTime()": "4ba9a927",
					"bidStartTime()": "6d4d09d7",
					"bids(uint256)": "4423c5f1",
					"deposits(address)": "fc7e286d",
					"finalizeAuction()": "f77282ab",
					"getBids()": "b81c78ec",
					"getWinner()": "8e7ea5b2",
					"highestBid()": "d57bde79",
					"placeBid(uint256)": "9979ef45",
					"refundLosingBids()": "629e6b24",
					"withdrawPartialDeposit()": "5ccf987e"
				}
			},
			"storageLayout": {
				"storage": [
					{
						"astId": 3,
						"contract": "contracts/TPSubastaW.sol:Subasta",
						"label": "auctioneer",
						"offset": 0,
						"slot": "0",
						"type": "t_address_payable"
					},
					{
						"astId": 5,
						"contract": "contracts/TPSubastaW.sol:Subasta",
						"label": "bidStartTime",
						"offset": 0,
						"slot": "1",
						"type": "t_uint256"
					},
					{
						"astId": 7,
						"contract": "contracts/TPSubastaW.sol:Subasta",
						"label": "bidEndTime",
						"offset": 0,
						"slot": "2",
						"type": "t_uint256"
					},
					{
						"astId": 18,
						"contract": "contracts/TPSubastaW.sol:Subasta",
						"label": "auctionEnded",
						"offset": 0,
						"slot": "3",
						"type": "t_bool"
					},
					{
						"astId": 26,
						"contract": "contracts/TPSubastaW.sol:Subasta",
						"label": "highestBid",
						"offset": 0,
						"slot": "4",
						"type": "t_struct(Bid)23_storage"
					},
					{
						"astId": 30,
						"contract": "contracts/TPSubastaW.sol:Subasta",
						"label": "deposits",
						"offset": 0,
						"slot": "6",
						"type": "t_mapping(t_address,t_uint256)"
					},
					{
						"astId": 34,
						"contract": "contracts/TPSubastaW.sol:Subasta",
						"label": "bids",
						"offset": 0,
						"slot": "7",
						"type": "t_array(t_struct(Bid)23_storage)dyn_storage"
					}
				],
				"types": {
					"t_address": {
						"encoding": "inplace",
						"label": "address",
						"numberOfBytes": "20"
					},
					"t_address_payable": {
						"encoding": "inplace",
						"label": "address payable",
						"numberOfBytes": "20"
					},
					"t_array(t_struct(Bid)23_storage)dyn_storage": {
						"base": "t_struct(Bid)23_storage",
						"encoding": "dynamic_array",
						"label": "struct Subasta.Bid[]",
						"numberOfBytes": "32"
					},
					"t_bool": {
						"encoding": "inplace",
						"label": "bool",
						"numberOfBytes": "1"
					},
					"t_mapping(t_address,t_uint256)": {
						"encoding": "mapping",
						"key": "t_address",
						"label": "mapping(address => uint256)",
						"numberOfBytes": "32",
						"value": "t_uint256"
					},
					"t_struct(Bid)23_storage": {
						"encoding": "inplace",
						"label": "struct Subasta.Bid",
						"members": [
							{
								"astId": 20,
								"contract": "contracts/TPSubastaW.sol:Subasta",
								"label": "bidder",
								"offset": 0,
								"slot": "0",
								"type": "t_address_payable"
							},
							{
								"astId": 22,
								"contract": "contracts/TPSubastaW.sol:Subasta",
								"label": "amount",
								"offset": 0,
								"slot": "1",
								"type": "t_uint256"
							}
						],
						"numberOfBytes": "64"
					},
					"t_uint256": {
						"encoding": "inplace",
						"label": "uint256",
						"numberOfBytes": "32"
					}
				}
			},
			"userdoc": {
				"kind": "user",
				"methods": {},
				"version": 1
			}
		}
	}
}