{
	"contracts/OtroEjemploSubastaMasCompleto.sol": {
		"Subasta": {
			"abi": [
				{
					"inputs": [
						{
							"internalType": "uint256",
							"name": "_duration",
							"type": "uint256"
						}
					],
					"stateMutability": "nonpayable",
					"type": "constructor"
				},
				{
					"anonymous": false,
					"inputs": [
						{
							"indexed": true,
							"internalType": "address",
							"name": "oferente",
							"type": "address"
						},
						{
							"indexed": false,
							"internalType": "uint256",
							"name": "monto",
							"type": "uint256"
						}
					],
					"name": "DepositoDevuelto",
					"type": "event"
				},
				{
					"anonymous": false,
					"inputs": [
						{
							"indexed": false,
							"internalType": "uint256",
							"name": "nuevaHoraFin",
							"type": "uint256"
						}
					],
					"name": "ExtiendeSubasta",
					"type": "event"
				},
				{
					"anonymous": false,
					"inputs": [
						{
							"indexed": false,
							"internalType": "address",
							"name": "ganador",
							"type": "address"
						},
						{
							"indexed": false,
							"internalType": "uint256",
							"name": "montoGanador",
							"type": "uint256"
						}
					],
					"name": "GanadorAnunciado",
					"type": "event"
				},
				{
					"anonymous": false,
					"inputs": [
						{
							"indexed": true,
							"internalType": "address",
							"name": "bidder",
							"type": "address"
						},
						{
							"indexed": false,
							"internalType": "uint256",
							"name": "monto",
							"type": "uint256"
						},
						{
							"indexed": false,
							"internalType": "uint256",
							"name": "timestamp",
							"type": "uint256"
						}
					],
					"name": "NuevaOferta",
					"type": "event"
				},
				{
					"inputs": [],
					"name": "BID_INC_PERCENT",
					"outputs": [
						{
							"internalType": "uint256",
							"name": "",
							"type": "uint256"
						}
					],
					"stateMutability": "view",
					"type": "function"
				},
				{
					"inputs": [],
					"name": "COMMISSION_PERCENT",
					"outputs": [
						{
							"internalType": "uint256",
							"name": "",
							"type": "uint256"
						}
					],
					"stateMutability": "view",
					"type": "function"
				},
				{
					"inputs": [],
					"name": "EXT_TIME",
					"outputs": [
						{
							"internalType": "uint256",
							"name": "",
							"type": "uint256"
						}
					],
					"stateMutability": "view",
					"type": "function"
				},
				{
					"inputs": [],
					"name": "bidEndTime",
					"outputs": [
						{
							"internalType": "uint256",
							"name": "",
							"type": "uint256"
						}
					],
					"stateMutability": "view",
					"type": "function"
				},
				{
					"inputs": [],
					"name": "bidOwner",
					"outputs": [
						{
							"internalType": "address payable",
							"name": "",
							"type": "address"
						}
					],
					"stateMutability": "view",
					"type": "function"
				},
				{
					"inputs": [],
					"name": "bidStartTime",
					"outputs": [
						{
							"internalType": "uint256",
							"name": "",
							"type": "uint256"
						}
					],
					"stateMutability": "view",
					"type": "function"
				},
				{
					"inputs": [],
					"name": "devolverDepositos",
					"outputs": [],
					"stateMutability": "payable",
					"type": "function"
				},
				{
					"inputs": [],
					"name": "highestBid",
					"outputs": [
						{
							"internalType": "uint256",
							"name": "",
							"type": "uint256"
						}
					],
					"stateMutability": "view",
					"type": "function"
				},
				{
					"inputs": [],
					"name": "highestBidder",
					"outputs": [
						{
							"internalType": "address",
							"name": "",
							"type": "address"
						}
					],
					"stateMutability": "view",
					"type": "function"
				},
				{
					"inputs": [],
					"name": "mostrarGanador",
					"outputs": [
						{
							"internalType": "address",
							"name": "",
							"type": "address"
						},
						{
							"internalType": "uint256",
							"name": "",
							"type": "uint256"
						}
					],
					"stateMutability": "view",
					"type": "function"
				},
				{
					"inputs": [],
					"name": "mostrarOfertas",
					"outputs": [
						{
							"components": [
								{
									"internalType": "address payable",
									"name": "bidder",
									"type": "address"
								},
								{
									"internalType": "uint256",
									"name": "amount",
									"type": "uint256"
								}
							],
							"internalType": "struct Subasta.Oferta[]",
							"name": "",
							"type": "tuple[]"
						}
					],
					"stateMutability": "view",
					"type": "function"
				},
				{
					"inputs": [],
					"name": "ofertar",
					"outputs": [],
					"stateMutability": "payable",
					"type": "function"
				},
				{
					"inputs": [
						{
							"internalType": "uint256",
							"name": "",
							"type": "uint256"
						}
					],
					"name": "ofertas",
					"outputs": [
						{
							"internalType": "address payable",
							"name": "bidder",
							"type": "address"
						},
						{
							"internalType": "uint256",
							"name": "amount",
							"type": "uint256"
						}
					],
					"stateMutability": "view",
					"type": "function"
				},
				{
					"inputs": [
						{
							"internalType": "address",
							"name": "",
							"type": "address"
						}
					],
					"name": "remainingBalance",
					"outputs": [
						{
							"internalType": "uint256",
							"name": "",
							"type": "uint256"
						}
					],
					"stateMutability": "view",
					"type": "function"
				},
				{
					"inputs": [],
					"name": "retirarExceso",
					"outputs": [],
					"stateMutability": "nonpayable",
					"type": "function"
				}
			],
			"devdoc": {
				"kind": "dev",
				"methods": {},
				"version": 1
			},
			"evm": {
				"assembly": "    /* \"contracts/OtroEjemploSubastaMasCompleto.sol\":940:4853  contract Subasta {... */\n  mstore(0x40, 0x80)\n    /* \"contracts/OtroEjemploSubastaMasCompleto.sol\":2130:2319  constructor(uint256 _duration) {... */\n  callvalue\n  dup1\n  iszero\n  tag_1\n  jumpi\n  0x00\n  dup1\n  revert\ntag_1:\n  pop\n  mload(0x40)\n  sub(codesize, bytecodeSize)\n  dup1\n  bytecodeSize\n  dup4\n  codecopy\n  dup2\n  dup2\n  add\n  0x40\n  mstore\n  dup2\n  add\n  swap1\n  tag_2\n  swap2\n  swap1\n  tag_3\n  jump\t// in\ntag_2:\n    /* \"contracts/OtroEjemploSubastaMasCompleto.sol\":2190:2200  msg.sender */\n  caller\n    /* \"contracts/OtroEjemploSubastaMasCompleto.sol\":2171:2179  bidOwner */\n  0x00\n  dup1\n    /* \"contracts/OtroEjemploSubastaMasCompleto.sol\":2171:2201  bidOwner = payable(msg.sender) */\n  0x0100\n  exp\n  dup2\n  sload\n  dup2\n  0xffffffffffffffffffffffffffffffffffffffff\n  mul\n  not\n  and\n  swap1\n  dup4\n  0xffffffffffffffffffffffffffffffffffffffff\n  and\n  mul\n  or\n  swap1\n  sstore\n  pop\n    /* \"contracts/OtroEjemploSubastaMasCompleto.sol\":2226:2241  block.timestamp */\n  timestamp\n    /* \"contracts/OtroEjemploSubastaMasCompleto.sol\":2211:2223  bidStartTime */\n  0x01\n    /* \"contracts/OtroEjemploSubastaMasCompleto.sol\":2211:2241  bidStartTime = block.timestamp */\n  dup2\n  swap1\n  sstore\n  pop\n    /* \"contracts/OtroEjemploSubastaMasCompleto.sol\":2279:2288  _duration */\n  dup1\n    /* \"contracts/OtroEjemploSubastaMasCompleto.sol\":2264:2276  bidStartTime */\n  sload(0x01)\n    /* \"contracts/OtroEjemploSubastaMasCompleto.sol\":2264:2288  bidStartTime + _duration */\n  tag_6\n  swap2\n  swap1\n  tag_7\n  jump\t// in\ntag_6:\n    /* \"contracts/OtroEjemploSubastaMasCompleto.sol\":2251:2261  bidEndTime */\n  0x02\n    /* \"contracts/OtroEjemploSubastaMasCompleto.sol\":2251:2288  bidEndTime = bidStartTime + _duration */\n  dup2\n  swap1\n  sstore\n  pop\n    /* \"contracts/OtroEjemploSubastaMasCompleto.sol\":2311:2312  0 */\n  0x00\n    /* \"contracts/OtroEjemploSubastaMasCompleto.sol\":2298:2308  highestBid */\n  0x04\n    /* \"contracts/OtroEjemploSubastaMasCompleto.sol\":2298:2312  highestBid = 0 */\n  dup2\n  swap1\n  sstore\n  pop\n    /* \"contracts/OtroEjemploSubastaMasCompleto.sol\":2130:2319  constructor(uint256 _duration) {... */\n  pop\n    /* \"contracts/OtroEjemploSubastaMasCompleto.sol\":940:4853  contract Subasta {... */\n  jump(tag_8)\n    /* \"#utility.yul\":88:205   */\ntag_10:\n    /* \"#utility.yul\":197:198   */\n  0x00\n    /* \"#utility.yul\":194:195   */\n  dup1\n    /* \"#utility.yul\":187:199   */\n  revert\n    /* \"#utility.yul\":334:411   */\ntag_12:\n    /* \"#utility.yul\":371:378   */\n  0x00\n    /* \"#utility.yul\":400:405   */\n  dup2\n    /* \"#utility.yul\":389:405   */\n  swap1\n  pop\n    /* \"#utility.yul\":334:411   */\n  swap2\n  swap1\n  pop\n  jump\t// out\n    /* \"#utility.yul\":417:539   */\ntag_13:\n    /* \"#utility.yul\":490:514   */\n  tag_22\n    /* \"#utility.yul\":508:513   */\n  dup2\n    /* \"#utility.yul\":490:514   */\n  tag_12\n  jump\t// in\ntag_22:\n    /* \"#utility.yul\":483:488   */\n  dup2\n    /* \"#utility.yul\":480:515   */\n  eq\n    /* \"#utility.yul\":470:533   */\n  tag_23\n  jumpi\n    /* \"#utility.yul\":529:530   */\n  0x00\n    /* \"#utility.yul\":526:527   */\n  dup1\n    /* \"#utility.yul\":519:531   */\n  revert\n    /* \"#utility.yul\":470:533   */\ntag_23:\n    /* \"#utility.yul\":417:539   */\n  pop\n  jump\t// out\n    /* \"#utility.yul\":545:688   */\ntag_14:\n    /* \"#utility.yul\":602:607   */\n  0x00\n    /* \"#utility.yul\":633:639   */\n  dup2\n    /* \"#utility.yul\":627:640   */\n  mload\n    /* \"#utility.yul\":618:640   */\n  swap1\n  pop\n    /* \"#utility.yul\":649:682   */\n  tag_25\n    /* \"#utility.yul\":676:681   */\n  dup2\n    /* \"#utility.yul\":649:682   */\n  tag_13\n  jump\t// in\ntag_25:\n    /* \"#utility.yul\":545:688   */\n  swap3\n  swap2\n  pop\n  pop\n  jump\t// out\n    /* \"#utility.yul\":694:1045   */\ntag_3:\n    /* \"#utility.yul\":764:770   */\n  0x00\n    /* \"#utility.yul\":813:815   */\n  0x20\n    /* \"#utility.yul\":801:810   */\n  dup3\n    /* \"#utility.yul\":792:799   */\n  dup5\n    /* \"#utility.yul\":788:811   */\n  sub\n    /* \"#utility.yul\":784:816   */\n  slt\n    /* \"#utility.yul\":781:900   */\n  iszero\n  tag_27\n  jumpi\n    /* \"#utility.yul\":819:898   */\n  tag_28\n  tag_10\n  jump\t// in\ntag_28:\n    /* \"#utility.yul\":781:900   */\ntag_27:\n    /* \"#utility.yul\":939:940   */\n  0x00\n    /* \"#utility.yul\":964:1028   */\n  tag_29\n    /* \"#utility.yul\":1020:1027   */\n  dup5\n    /* \"#utility.yul\":1011:1017   */\n  dup3\n    /* \"#utility.yul\":1000:1009   */\n  dup6\n    /* \"#utility.yul\":996:1018   */\n  add\n    /* \"#utility.yul\":964:1028   */\n  tag_14\n  jump\t// in\ntag_29:\n    /* \"#utility.yul\":954:1028   */\n  swap2\n  pop\n    /* \"#utility.yul\":910:1038   */\n  pop\n    /* \"#utility.yul\":694:1045   */\n  swap3\n  swap2\n  pop\n  pop\n  jump\t// out\n    /* \"#utility.yul\":1051:1231   */\ntag_15:\n    /* \"#utility.yul\":1099:1176   */\n  0x4e487b7100000000000000000000000000000000000000000000000000000000\n    /* \"#utility.yul\":1096:1097   */\n  0x00\n    /* \"#utility.yul\":1089:1177   */\n  mstore\n    /* \"#utility.yul\":1196:1200   */\n  0x11\n    /* \"#utility.yul\":1193:1194   */\n  0x04\n    /* \"#utility.yul\":1186:1201   */\n  mstore\n    /* \"#utility.yul\":1220:1224   */\n  0x24\n    /* \"#utility.yul\":1217:1218   */\n  0x00\n    /* \"#utility.yul\":1210:1225   */\n  revert\n    /* \"#utility.yul\":1237:1428   */\ntag_7:\n    /* \"#utility.yul\":1277:1280   */\n  0x00\n    /* \"#utility.yul\":1296:1316   */\n  tag_32\n    /* \"#utility.yul\":1314:1315   */\n  dup3\n    /* \"#utility.yul\":1296:1316   */\n  tag_12\n  jump\t// in\ntag_32:\n    /* \"#utility.yul\":1291:1316   */\n  swap2\n  pop\n    /* \"#utility.yul\":1330:1350   */\n  tag_33\n    /* \"#utility.yul\":1348:1349   */\n  dup4\n    /* \"#utility.yul\":1330:1350   */\n  tag_12\n  jump\t// in\ntag_33:\n    /* \"#utility.yul\":1325:1350   */\n  swap3\n  pop\n    /* \"#utility.yul\":1373:1374   */\n  dup3\n    /* \"#utility.yul\":1370:1371   */\n  dup3\n    /* \"#utility.yul\":1366:1375   */\n  add\n    /* \"#utility.yul\":1359:1375   */\n  swap1\n  pop\n    /* \"#utility.yul\":1394:1397   */\n  dup1\n    /* \"#utility.yul\":1391:1392   */\n  dup3\n    /* \"#utility.yul\":1388:1398   */\n  gt\n    /* \"#utility.yul\":1385:1421   */\n  iszero\n  tag_34\n  jumpi\n    /* \"#utility.yul\":1401:1419   */\n  tag_35\n  tag_15\n  jump\t// in\ntag_35:\n    /* \"#utility.yul\":1385:1421   */\ntag_34:\n    /* \"#utility.yul\":1237:1428   */\n  swap3\n  swap2\n  pop\n  pop\n  jump\t// out\n    /* \"contracts/OtroEjemploSubastaMasCompleto.sol\":940:4853  contract Subasta {... */\ntag_8:\n  dataSize(sub_0)\n  dup1\n  dataOffset(sub_0)\n  0x00\n  codecopy\n  0x00\n  return\nstop\n\nsub_0: assembly {\n        /* \"contracts/OtroEjemploSubastaMasCompleto.sol\":940:4853  contract Subasta {... */\n      mstore(0x40, 0x80)\n      jumpi(tag_1, lt(calldatasize, 0x04))\n      shr(0xe0, calldataload(0x00))\n      dup1\n      0x6d4d09d7\n      gt\n      tag_17\n      jumpi\n      dup1\n      0xb404e001\n      gt\n      tag_18\n      jumpi\n      dup1\n      0xb404e001\n      eq\n      tag_13\n      jumpi\n      dup1\n      0xc1902319\n      eq\n      tag_14\n      jumpi\n      dup1\n      0xc442a99f\n      eq\n      tag_15\n      jumpi\n      dup1\n      0xd57bde79\n      eq\n      tag_16\n      jumpi\n      jump(tag_1)\n    tag_18:\n      dup1\n      0x6d4d09d7\n      eq\n      tag_9\n      jumpi\n      dup1\n      0x753dcaeb\n      eq\n      tag_10\n      jumpi\n      dup1\n      0x7bb44b83\n      eq\n      tag_11\n      jumpi\n      dup1\n      0x91f90157\n      eq\n      tag_12\n      jumpi\n      jump(tag_1)\n    tag_17:\n      dup1\n      0x4ba9a927\n      gt\n      tag_19\n      jumpi\n      dup1\n      0x4ba9a927\n      eq\n      tag_5\n      jumpi\n      dup1\n      0x5298a3c4\n      eq\n      tag_6\n      jumpi\n      dup1\n      0x56afff7c\n      eq\n      tag_7\n      jumpi\n      dup1\n      0x65281d15\n      eq\n      tag_8\n      jumpi\n      jump(tag_1)\n    tag_19:\n      dup1\n      0x02bc22fc\n      eq\n      tag_2\n      jumpi\n      dup1\n      0x03fe7faa\n      eq\n      tag_3\n      jumpi\n      dup1\n      0x3ec059d7\n      eq\n      tag_4\n      jumpi\n    tag_1:\n      0x00\n      dup1\n      revert\n        /* \"contracts/OtroEjemploSubastaMasCompleto.sol\":1129:1174  uint256 public constant EXT_TIME = 10 minutes */\n    tag_2:\n      callvalue\n      dup1\n      iszero\n      tag_20\n      jumpi\n      0x00\n      dup1\n      revert\n    tag_20:\n      pop\n      tag_21\n      tag_22\n      jump\t// in\n    tag_21:\n      mload(0x40)\n      tag_23\n      swap2\n      swap1\n      tag_24\n      jump\t// in\n    tag_23:\n      mload(0x40)\n      dup1\n      swap2\n      sub\n      swap1\n      return\n        /* \"contracts/OtroEjemploSubastaMasCompleto.sol\":963:994  address payable public bidOwner */\n    tag_3:\n      callvalue\n      dup1\n      iszero\n      tag_25\n      jumpi\n      0x00\n      dup1\n      revert\n    tag_25:\n      pop\n      tag_26\n      tag_27\n      jump\t// in\n    tag_26:\n      mload(0x40)\n      tag_28\n      swap2\n      swap1\n      tag_29\n      jump\t// in\n    tag_28:\n      mload(0x40)\n      dup1\n      swap2\n      sub\n      swap1\n      return\n        /* \"contracts/OtroEjemploSubastaMasCompleto.sol\":2325:3472  function ofertar() external payable soloMientrasActiva {... */\n    tag_4:\n      tag_30\n      tag_31\n      jump\t// in\n    tag_30:\n      stop\n        /* \"contracts/OtroEjemploSubastaMasCompleto.sol\":1033:1058  uint256 public bidEndTime */\n    tag_5:\n      callvalue\n      dup1\n      iszero\n      tag_32\n      jumpi\n      0x00\n      dup1\n      revert\n    tag_32:\n      pop\n      tag_33\n      tag_34\n      jump\t// in\n    tag_33:\n      mload(0x40)\n      tag_35\n      swap2\n      swap1\n      tag_24\n      jump\t// in\n    tag_35:\n      mload(0x40)\n      dup1\n      swap2\n      sub\n      swap1\n      return\n        /* \"contracts/OtroEjemploSubastaMasCompleto.sol\":3784:4574  function devolverDepositos() external payable onlyOwner {... */\n    tag_6:\n      tag_36\n      tag_37\n      jump\t// in\n    tag_36:\n      stop\n        /* \"contracts/OtroEjemploSubastaMasCompleto.sol\":1423:1446  Oferta[] public ofertas */\n    tag_7:\n      callvalue\n      dup1\n      iszero\n      tag_38\n      jumpi\n      0x00\n      dup1\n      revert\n    tag_38:\n      pop\n      tag_39\n      0x04\n      dup1\n      calldatasize\n      sub\n      dup2\n      add\n      swap1\n      tag_40\n      swap2\n      swap1\n      tag_41\n      jump\t// in\n    tag_40:\n      tag_42\n      jump\t// in\n    tag_39:\n      mload(0x40)\n      tag_43\n      swap3\n      swap2\n      swap1\n      tag_44\n      jump\t// in\n    tag_43:\n      mload(0x40)\n      dup1\n      swap2\n      sub\n      swap1\n      return\n        /* \"contracts/OtroEjemploSubastaMasCompleto.sol\":1452:1503  mapping(address => uint256) public remainingBalance */\n    tag_8:\n      callvalue\n      dup1\n      iszero\n      tag_45\n      jumpi\n      0x00\n      dup1\n      revert\n    tag_45:\n      pop\n      tag_46\n      0x04\n      dup1\n      calldatasize\n      sub\n      dup2\n      add\n      swap1\n      tag_47\n      swap2\n      swap1\n      tag_48\n      jump\t// in\n    tag_47:\n      tag_49\n      jump\t// in\n    tag_46:\n      mload(0x40)\n      tag_50\n      swap2\n      swap1\n      tag_24\n      jump\t// in\n    tag_50:\n      mload(0x40)\n      dup1\n      swap2\n      sub\n      swap1\n      return\n        /* \"contracts/OtroEjemploSubastaMasCompleto.sol\":1000:1027  uint256 public bidStartTime */\n    tag_9:\n      callvalue\n      dup1\n      iszero\n      tag_51\n      jumpi\n      0x00\n      dup1\n      revert\n    tag_51:\n      pop\n      tag_52\n      tag_53\n      jump\t// in\n    tag_52:\n      mload(0x40)\n      tag_54\n      swap2\n      swap1\n      tag_24\n      jump\t// in\n    tag_54:\n      mload(0x40)\n      dup1\n      swap2\n      sub\n      swap1\n      return\n        /* \"contracts/OtroEjemploSubastaMasCompleto.sol\":3478:3675  function mostrarGanador() external view returns (address, uint256) {... */\n    tag_10:\n      callvalue\n      dup1\n      iszero\n      tag_55\n      jumpi\n      0x00\n      dup1\n      revert\n    tag_55:\n      pop\n      tag_56\n      tag_57\n      jump\t// in\n    tag_56:\n      mload(0x40)\n      tag_58\n      swap3\n      swap2\n      swap1\n      tag_59\n      jump\t// in\n    tag_58:\n      mload(0x40)\n      dup1\n      swap2\n      sub\n      swap1\n      return\n        /* \"contracts/OtroEjemploSubastaMasCompleto.sol\":1180:1223  uint256 public constant BID_INC_PERCENT = 5 */\n    tag_11:\n      callvalue\n      dup1\n      iszero\n      tag_60\n      jumpi\n      0x00\n      dup1\n      revert\n    tag_60:\n      pop\n      tag_61\n      tag_62\n      jump\t// in\n    tag_61:\n      mload(0x40)\n      tag_63\n      swap2\n      swap1\n      tag_24\n      jump\t// in\n    tag_63:\n      mload(0x40)\n      dup1\n      swap2\n      sub\n      swap1\n      return\n        /* \"contracts/OtroEjemploSubastaMasCompleto.sol\":1064:1092  address public highestBidder */\n    tag_12:\n      callvalue\n      dup1\n      iszero\n      tag_64\n      jumpi\n      0x00\n      dup1\n      revert\n    tag_64:\n      pop\n      tag_65\n      tag_66\n      jump\t// in\n    tag_65:\n      mload(0x40)\n      tag_67\n      swap2\n      swap1\n      tag_68\n      jump\t// in\n    tag_67:\n      mload(0x40)\n      dup1\n      swap2\n      sub\n      swap1\n      return\n        /* \"contracts/OtroEjemploSubastaMasCompleto.sol\":1255:1301  uint256 public constant COMMISSION_PERCENT = 2 */\n    tag_13:\n      callvalue\n      dup1\n      iszero\n      tag_69\n      jumpi\n      0x00\n      dup1\n      revert\n    tag_69:\n      pop\n      tag_70\n      tag_71\n      jump\t// in\n    tag_70:\n      mload(0x40)\n      tag_72\n      swap2\n      swap1\n      tag_24\n      jump\t// in\n    tag_72:\n      mload(0x40)\n      dup1\n      swap2\n      sub\n      swap1\n      return\n        /* \"contracts/OtroEjemploSubastaMasCompleto.sol\":4580:4851  function retirarExceso() external {... */\n    tag_14:\n      callvalue\n      dup1\n      iszero\n      tag_73\n      jumpi\n      0x00\n      dup1\n      revert\n    tag_73:\n      pop\n      tag_74\n      tag_75\n      jump\t// in\n    tag_74:\n      stop\n        /* \"contracts/OtroEjemploSubastaMasCompleto.sol\":3681:3778  function mostrarOfertas() external view returns (Oferta[] memory) {... */\n    tag_15:\n      callvalue\n      dup1\n      iszero\n      tag_76\n      jumpi\n      0x00\n      dup1\n      revert\n    tag_76:\n      pop\n      tag_77\n      tag_78\n      jump\t// in\n    tag_77:\n      mload(0x40)\n      tag_79\n      swap2\n      swap1\n      tag_80\n      jump\t// in\n    tag_79:\n      mload(0x40)\n      dup1\n      swap2\n      sub\n      swap1\n      return\n        /* \"contracts/OtroEjemploSubastaMasCompleto.sol\":1098:1123  uint256 public highestBid */\n    tag_16:\n      callvalue\n      dup1\n      iszero\n      tag_81\n      jumpi\n      0x00\n      dup1\n      revert\n    tag_81:\n      pop\n      tag_82\n      tag_83\n      jump\t// in\n    tag_82:\n      mload(0x40)\n      tag_84\n      swap2\n      swap1\n      tag_24\n      jump\t// in\n    tag_84:\n      mload(0x40)\n      dup1\n      swap2\n      sub\n      swap1\n      return\n        /* \"contracts/OtroEjemploSubastaMasCompleto.sol\":1129:1174  uint256 public constant EXT_TIME = 10 minutes */\n    tag_22:\n        /* \"contracts/OtroEjemploSubastaMasCompleto.sol\":1164:1174  10 minutes */\n      0x0258\n        /* \"contracts/OtroEjemploSubastaMasCompleto.sol\":1129:1174  uint256 public constant EXT_TIME = 10 minutes */\n      dup2\n      jump\t// out\n        /* \"contracts/OtroEjemploSubastaMasCompleto.sol\":963:994  address payable public bidOwner */\n    tag_27:\n      0x00\n      dup1\n      sload\n      swap1\n      0x0100\n      exp\n      swap1\n      div\n      0xffffffffffffffffffffffffffffffffffffffff\n      and\n      dup2\n      jump\t// out\n        /* \"contracts/OtroEjemploSubastaMasCompleto.sol\":2325:3472  function ofertar() external payable soloMientrasActiva {... */\n    tag_31:\n        /* \"contracts/OtroEjemploSubastaMasCompleto.sol\":2003:2013  bidEndTime */\n      sload(0x02)\n        /* \"contracts/OtroEjemploSubastaMasCompleto.sol\":1984:1999  block.timestamp */\n      timestamp\n        /* \"contracts/OtroEjemploSubastaMasCompleto.sol\":1984:2013  block.timestamp <= bidEndTime */\n      gt\n      iszero\n        /* \"contracts/OtroEjemploSubastaMasCompleto.sol\":1976:2031  require(block.timestamp <= bidEndTime, \"Bid has ended\") */\n      tag_86\n      jumpi\n      mload(0x40)\n      0x08c379a000000000000000000000000000000000000000000000000000000000\n      dup2\n      mstore\n      0x04\n      add\n      tag_87\n      swap1\n      tag_88\n      jump\t// in\n    tag_87:\n      mload(0x40)\n      dup1\n      swap2\n      sub\n      swap1\n      revert\n    tag_86:\n        /* \"contracts/OtroEjemploSubastaMasCompleto.sol\":2410:2411  0 */\n      0x00\n        /* \"contracts/OtroEjemploSubastaMasCompleto.sol\":2398:2407  msg.value */\n      callvalue\n        /* \"contracts/OtroEjemploSubastaMasCompleto.sol\":2398:2411  msg.value > 0 */\n      gt\n        /* \"contracts/OtroEjemploSubastaMasCompleto.sol\":2390:2445  require(msg.value > 0, \"Bid must be greater than zero\") */\n      tag_90\n      jumpi\n      mload(0x40)\n      0x08c379a000000000000000000000000000000000000000000000000000000000\n      dup2\n      mstore\n      0x04\n      add\n      tag_91\n      swap1\n      tag_92\n      jump\t// in\n    tag_91:\n      mload(0x40)\n      dup1\n      swap2\n      sub\n      swap1\n      revert\n    tag_90:\n        /* \"contracts/OtroEjemploSubastaMasCompleto.sol\":2456:2475  uint256 nuevaOferta */\n      0x00\n        /* \"contracts/OtroEjemploSubastaMasCompleto.sol\":2509:2518  msg.value */\n      callvalue\n        /* \"contracts/OtroEjemploSubastaMasCompleto.sol\":2478:2494  remainingBalance */\n      0x06\n        /* \"contracts/OtroEjemploSubastaMasCompleto.sol\":2478:2506  remainingBalance[msg.sender] */\n      0x00\n        /* \"contracts/OtroEjemploSubastaMasCompleto.sol\":2495:2505  msg.sender */\n      caller\n        /* \"contracts/OtroEjemploSubastaMasCompleto.sol\":2478:2506  remainingBalance[msg.sender] */\n      0xffffffffffffffffffffffffffffffffffffffff\n      and\n      0xffffffffffffffffffffffffffffffffffffffff\n      and\n      dup2\n      mstore\n      0x20\n      add\n      swap1\n      dup2\n      mstore\n      0x20\n      add\n      0x00\n      keccak256\n      sload\n        /* \"contracts/OtroEjemploSubastaMasCompleto.sol\":2478:2518  remainingBalance[msg.sender] + msg.value */\n      tag_93\n      swap2\n      swap1\n      tag_94\n      jump\t// in\n    tag_93:\n        /* \"contracts/OtroEjemploSubastaMasCompleto.sol\":2456:2518  uint256 nuevaOferta = remainingBalance[msg.sender] + msg.value */\n      swap1\n      pop\n        /* \"contracts/OtroEjemploSubastaMasCompleto.sol\":2597:2600  100 */\n      0x64\n        /* \"contracts/OtroEjemploSubastaMasCompleto.sol\":1222:1223  5 */\n      0x05\n        /* \"contracts/OtroEjemploSubastaMasCompleto.sol\":2565:2575  highestBid */\n      sload(0x04)\n        /* \"contracts/OtroEjemploSubastaMasCompleto.sol\":2565:2593  highestBid * BID_INC_PERCENT */\n      tag_95\n      swap2\n      swap1\n      tag_96\n      jump\t// in\n    tag_95:\n        /* \"contracts/OtroEjemploSubastaMasCompleto.sol\":2564:2600  (highestBid * BID_INC_PERCENT) / 100 */\n      tag_97\n      swap2\n      swap1\n      tag_98\n      jump\t// in\n    tag_97:\n        /* \"contracts/OtroEjemploSubastaMasCompleto.sol\":2551:2561  highestBid */\n      sload(0x04)\n        /* \"contracts/OtroEjemploSubastaMasCompleto.sol\":2551:2600  highestBid + (highestBid * BID_INC_PERCENT) / 100 */\n      tag_99\n      swap2\n      swap1\n      tag_94\n      jump\t// in\n    tag_99:\n        /* \"contracts/OtroEjemploSubastaMasCompleto.sol\":2536:2547  nuevaOferta */\n      dup2\n        /* \"contracts/OtroEjemploSubastaMasCompleto.sol\":2536:2600  nuevaOferta >= highestBid + (highestBid * BID_INC_PERCENT) / 100 */\n      lt\n      iszero\n        /* \"contracts/OtroEjemploSubastaMasCompleto.sol\":2528:2637  require(nuevaOferta >= highestBid + (highestBid * BID_INC_PERCENT) / 100, \"Offer must be at least 5% higher\") */\n      tag_100\n      jumpi\n      mload(0x40)\n      0x08c379a000000000000000000000000000000000000000000000000000000000\n      dup2\n      mstore\n      0x04\n      add\n      tag_101\n      swap1\n      tag_102\n      jump\t// in\n    tag_101:\n      mload(0x40)\n      dup1\n      swap2\n      sub\n      swap1\n      revert\n    tag_100:\n        /* \"contracts/OtroEjemploSubastaMasCompleto.sol\":2679:2686  ofertas */\n      0x05\n        /* \"contracts/OtroEjemploSubastaMasCompleto.sol\":2692:2732  Oferta(payable(msg.sender), nuevaOferta) */\n      mload(0x40)\n      dup1\n      0x40\n      add\n      0x40\n      mstore\n      dup1\n        /* \"contracts/OtroEjemploSubastaMasCompleto.sol\":2707:2717  msg.sender */\n      caller\n        /* \"contracts/OtroEjemploSubastaMasCompleto.sol\":2692:2732  Oferta(payable(msg.sender), nuevaOferta) */\n      0xffffffffffffffffffffffffffffffffffffffff\n      and\n      dup2\n      mstore\n      0x20\n      add\n        /* \"contracts/OtroEjemploSubastaMasCompleto.sol\":2720:2731  nuevaOferta */\n      dup4\n        /* \"contracts/OtroEjemploSubastaMasCompleto.sol\":2692:2732  Oferta(payable(msg.sender), nuevaOferta) */\n      dup2\n      mstore\n      pop\n        /* \"contracts/OtroEjemploSubastaMasCompleto.sol\":2679:2733  ofertas.push(Oferta(payable(msg.sender), nuevaOferta)) */\n      swap1\n      dup1\n      0x01\n      dup2\n      sload\n      add\n      dup1\n      dup3\n      sstore\n      dup1\n      swap2\n      pop\n      pop\n      0x01\n      swap1\n      sub\n      swap1\n      0x00\n      mstore\n      keccak256(0x00, 0x20)\n      swap1\n      0x02\n      mul\n      add\n      0x00\n      swap1\n      swap2\n      swap1\n      swap2\n      swap1\n      swap2\n      pop\n      0x00\n      dup3\n      add\n      mload\n      dup2\n      0x00\n      add\n      exp(0x0100, 0x00)\n      dup2\n      sload\n      dup2\n      0xffffffffffffffffffffffffffffffffffffffff\n      mul\n      not\n      and\n      swap1\n      dup4\n      0xffffffffffffffffffffffffffffffffffffffff\n      and\n      mul\n      or\n      swap1\n      sstore\n      pop\n      0x20\n      dup3\n      add\n      mload\n      dup2\n      0x01\n      add\n      sstore\n      pop\n      pop\n        /* \"contracts/OtroEjemploSubastaMasCompleto.sol\":2842:2843  0 */\n      0x00\n        /* \"contracts/OtroEjemploSubastaMasCompleto.sol\":2811:2827  remainingBalance */\n      0x06\n        /* \"contracts/OtroEjemploSubastaMasCompleto.sol\":2811:2839  remainingBalance[msg.sender] */\n      0x00\n        /* \"contracts/OtroEjemploSubastaMasCompleto.sol\":2828:2838  msg.sender */\n      caller\n        /* \"contracts/OtroEjemploSubastaMasCompleto.sol\":2811:2839  remainingBalance[msg.sender] */\n      0xffffffffffffffffffffffffffffffffffffffff\n      and\n      0xffffffffffffffffffffffffffffffffffffffff\n      and\n      dup2\n      mstore\n      0x20\n      add\n      swap1\n      dup2\n      mstore\n      0x20\n      add\n      0x00\n      keccak256\n      sload\n        /* \"contracts/OtroEjemploSubastaMasCompleto.sol\":2811:2843  remainingBalance[msg.sender] > 0 */\n      gt\n        /* \"contracts/OtroEjemploSubastaMasCompleto.sol\":2807:3011  if (remainingBalance[msg.sender] > 0) {... */\n      iszero\n      tag_104\n      jumpi\n        /* \"contracts/OtroEjemploSubastaMasCompleto.sol\":2859:2873  uint256 exceso */\n      0x00\n        /* \"contracts/OtroEjemploSubastaMasCompleto.sol\":2876:2892  remainingBalance */\n      0x06\n        /* \"contracts/OtroEjemploSubastaMasCompleto.sol\":2876:2904  remainingBalance[msg.sender] */\n      0x00\n        /* \"contracts/OtroEjemploSubastaMasCompleto.sol\":2893:2903  msg.sender */\n      caller\n        /* \"contracts/OtroEjemploSubastaMasCompleto.sol\":2876:2904  remainingBalance[msg.sender] */\n      0xffffffffffffffffffffffffffffffffffffffff\n      and\n      0xffffffffffffffffffffffffffffffffffffffff\n      and\n      dup2\n      mstore\n      0x20\n      add\n      swap1\n      dup2\n      mstore\n      0x20\n      add\n      0x00\n      keccak256\n      sload\n        /* \"contracts/OtroEjemploSubastaMasCompleto.sol\":2859:2904  uint256 exceso = remainingBalance[msg.sender] */\n      swap1\n      pop\n        /* \"contracts/OtroEjemploSubastaMasCompleto.sol\":2949:2950  0 */\n      0x00\n        /* \"contracts/OtroEjemploSubastaMasCompleto.sol\":2918:2934  remainingBalance */\n      0x06\n        /* \"contracts/OtroEjemploSubastaMasCompleto.sol\":2918:2946  remainingBalance[msg.sender] */\n      0x00\n        /* \"contracts/OtroEjemploSubastaMasCompleto.sol\":2935:2945  msg.sender */\n      caller\n        /* \"contracts/OtroEjemploSubastaMasCompleto.sol\":2918:2946  remainingBalance[msg.sender] */\n      0xffffffffffffffffffffffffffffffffffffffff\n      and\n      0xffffffffffffffffffffffffffffffffffffffff\n      and\n      dup2\n      mstore\n      0x20\n      add\n      swap1\n      dup2\n      mstore\n      0x20\n      add\n      0x00\n      keccak256\n        /* \"contracts/OtroEjemploSubastaMasCompleto.sol\":2918:2950  remainingBalance[msg.sender] = 0 */\n      dup2\n      swap1\n      sstore\n      pop\n        /* \"contracts/OtroEjemploSubastaMasCompleto.sol\":2972:2982  msg.sender */\n      caller\n        /* \"contracts/OtroEjemploSubastaMasCompleto.sol\":2964:2992  payable(msg.sender).transfer */\n      0xffffffffffffffffffffffffffffffffffffffff\n      and\n        /* \"contracts/OtroEjemploSubastaMasCompleto.sol\":2964:3000  payable(msg.sender).transfer(exceso) */\n      0x08fc\n        /* \"contracts/OtroEjemploSubastaMasCompleto.sol\":2993:2999  exceso */\n      dup3\n        /* \"contracts/OtroEjemploSubastaMasCompleto.sol\":2964:3000  payable(msg.sender).transfer(exceso) */\n      swap1\n      dup2\n      iszero\n      mul\n      swap1\n      mload(0x40)\n      0x00\n      mload(0x40)\n      dup1\n      dup4\n      sub\n      dup2\n      dup6\n      dup9\n      dup9\n      call\n      swap4\n      pop\n      pop\n      pop\n      pop\n      iszero\n      dup1\n      iszero\n      tag_106\n      jumpi\n      returndatasize\n      0x00\n      dup1\n      returndatacopy\n      revert(0x00, returndatasize)\n    tag_106:\n      pop\n        /* \"contracts/OtroEjemploSubastaMasCompleto.sol\":2845:3011  {... */\n      pop\n        /* \"contracts/OtroEjemploSubastaMasCompleto.sol\":2807:3011  if (remainingBalance[msg.sender] > 0) {... */\n    tag_104:\n        /* \"contracts/OtroEjemploSubastaMasCompleto.sol\":3075:3085  msg.sender */\n      caller\n        /* \"contracts/OtroEjemploSubastaMasCompleto.sol\":3059:3072  highestBidder */\n      0x03\n      0x00\n        /* \"contracts/OtroEjemploSubastaMasCompleto.sol\":3059:3085  highestBidder = msg.sender */\n      0x0100\n      exp\n      dup2\n      sload\n      dup2\n      0xffffffffffffffffffffffffffffffffffffffff\n      mul\n      not\n      and\n      swap1\n      dup4\n      0xffffffffffffffffffffffffffffffffffffffff\n      and\n      mul\n      or\n      swap1\n      sstore\n      pop\n        /* \"contracts/OtroEjemploSubastaMasCompleto.sol\":3108:3119  nuevaOferta */\n      dup1\n        /* \"contracts/OtroEjemploSubastaMasCompleto.sol\":3095:3105  highestBid */\n      0x04\n        /* \"contracts/OtroEjemploSubastaMasCompleto.sol\":3095:3119  highestBid = nuevaOferta */\n      dup2\n      swap1\n      sstore\n      pop\n        /* \"contracts/OtroEjemploSubastaMasCompleto.sol\":3160:3171  nuevaOferta */\n      dup1\n        /* \"contracts/OtroEjemploSubastaMasCompleto.sol\":3129:3145  remainingBalance */\n      0x06\n        /* \"contracts/OtroEjemploSubastaMasCompleto.sol\":3129:3157  remainingBalance[msg.sender] */\n      0x00\n        /* \"contracts/OtroEjemploSubastaMasCompleto.sol\":3146:3156  msg.sender */\n      caller\n        /* \"contracts/OtroEjemploSubastaMasCompleto.sol\":3129:3157  remainingBalance[msg.sender] */\n      0xffffffffffffffffffffffffffffffffffffffff\n      and\n      0xffffffffffffffffffffffffffffffffffffffff\n      and\n      dup2\n      mstore\n      0x20\n      add\n      swap1\n      dup2\n      mstore\n      0x20\n      add\n      0x00\n      keccak256\n        /* \"contracts/OtroEjemploSubastaMasCompleto.sol\":3129:3171  remainingBalance[msg.sender] = nuevaOferta */\n      dup2\n      swap1\n      sstore\n      pop\n        /* \"contracts/OtroEjemploSubastaMasCompleto.sol\":3199:3209  msg.sender */\n      caller\n        /* \"contracts/OtroEjemploSubastaMasCompleto.sol\":3187:3240  NuevaOferta(msg.sender, nuevaOferta, block.timestamp) */\n      0xffffffffffffffffffffffffffffffffffffffff\n      and\n      0xc0ee0120c42d2a25d2d9a3d40a59a7570ca25f0fa2f9fd6a8b885a761f0beefa\n        /* \"contracts/OtroEjemploSubastaMasCompleto.sol\":3211:3222  nuevaOferta */\n      dup3\n        /* \"contracts/OtroEjemploSubastaMasCompleto.sol\":3224:3239  block.timestamp */\n      timestamp\n        /* \"contracts/OtroEjemploSubastaMasCompleto.sol\":3187:3240  NuevaOferta(msg.sender, nuevaOferta, block.timestamp) */\n      mload(0x40)\n      tag_107\n      swap3\n      swap2\n      swap1\n      tag_108\n      jump\t// in\n    tag_107:\n      mload(0x40)\n      dup1\n      swap2\n      sub\n      swap1\n      log2\n        /* \"contracts/OtroEjemploSubastaMasCompleto.sol\":3361:3371  10 minutes */\n      0x0258\n        /* \"contracts/OtroEjemploSubastaMasCompleto.sol\":3348:3358  bidEndTime */\n      sload(0x02)\n        /* \"contracts/OtroEjemploSubastaMasCompleto.sol\":3348:3371  bidEndTime - 10 minutes */\n      tag_109\n      swap2\n      swap1\n      tag_110\n      jump\t// in\n    tag_109:\n        /* \"contracts/OtroEjemploSubastaMasCompleto.sol\":3329:3344  block.timestamp */\n      timestamp\n        /* \"contracts/OtroEjemploSubastaMasCompleto.sol\":3329:3371  block.timestamp >= bidEndTime - 10 minutes */\n      lt\n        /* \"contracts/OtroEjemploSubastaMasCompleto.sol\":3325:3466  if (block.timestamp >= bidEndTime - 10 minutes) {... */\n      tag_111\n      jumpi\n        /* \"contracts/OtroEjemploSubastaMasCompleto.sol\":1164:1174  10 minutes */\n      0x0258\n        /* \"contracts/OtroEjemploSubastaMasCompleto.sol\":3387:3397  bidEndTime */\n      0x02\n      0x00\n        /* \"contracts/OtroEjemploSubastaMasCompleto.sol\":3387:3409  bidEndTime += EXT_TIME */\n      dup3\n      dup3\n      sload\n      tag_112\n      swap2\n      swap1\n      tag_94\n      jump\t// in\n    tag_112:\n      swap3\n      pop\n      pop\n      dup2\n      swap1\n      sstore\n      pop\n        /* \"contracts/OtroEjemploSubastaMasCompleto.sol\":3428:3455  ExtiendeSubasta(bidEndTime) */\n      0xd00df96ab7dbc2500d2727d4e26bfa8f37e005495bb12f2af6ba48952c742c17\n        /* \"contracts/OtroEjemploSubastaMasCompleto.sol\":3444:3454  bidEndTime */\n      sload(0x02)\n        /* \"contracts/OtroEjemploSubastaMasCompleto.sol\":3428:3455  ExtiendeSubasta(bidEndTime) */\n      mload(0x40)\n      tag_113\n      swap2\n      swap1\n      tag_24\n      jump\t// in\n    tag_113:\n      mload(0x40)\n      dup1\n      swap2\n      sub\n      swap1\n      log1\n        /* \"contracts/OtroEjemploSubastaMasCompleto.sol\":3325:3466  if (block.timestamp >= bidEndTime - 10 minutes) {... */\n    tag_111:\n        /* \"contracts/OtroEjemploSubastaMasCompleto.sol\":2380:3472  {... */\n      pop\n        /* \"contracts/OtroEjemploSubastaMasCompleto.sol\":2325:3472  function ofertar() external payable soloMientrasActiva {... */\n      jump\t// out\n        /* \"contracts/OtroEjemploSubastaMasCompleto.sol\":1033:1058  uint256 public bidEndTime */\n    tag_34:\n      sload(0x02)\n      dup2\n      jump\t// out\n        /* \"contracts/OtroEjemploSubastaMasCompleto.sol\":3784:4574  function devolverDepositos() external payable onlyOwner {... */\n    tag_37:\n        /* \"contracts/OtroEjemploSubastaMasCompleto.sol\":1866:1874  bidOwner */\n      0x00\n      dup1\n      sload\n      swap1\n      0x0100\n      exp\n      swap1\n      div\n      0xffffffffffffffffffffffffffffffffffffffff\n      and\n        /* \"contracts/OtroEjemploSubastaMasCompleto.sol\":1852:1874  msg.sender == bidOwner */\n      0xffffffffffffffffffffffffffffffffffffffff\n      and\n        /* \"contracts/OtroEjemploSubastaMasCompleto.sol\":1852:1862  msg.sender */\n      caller\n        /* \"contracts/OtroEjemploSubastaMasCompleto.sol\":1852:1874  msg.sender == bidOwner */\n      0xffffffffffffffffffffffffffffffffffffffff\n      and\n      eq\n        /* \"contracts/OtroEjemploSubastaMasCompleto.sol\":1844:1912  require(msg.sender == bidOwner, \"This feature is reserved to Owner\") */\n      tag_115\n      jumpi\n      mload(0x40)\n      0x08c379a000000000000000000000000000000000000000000000000000000000\n      dup2\n      mstore\n      0x04\n      add\n      tag_116\n      swap1\n      tag_117\n      jump\t// in\n    tag_116:\n      mload(0x40)\n      dup1\n      swap2\n      sub\n      swap1\n      revert\n    tag_115:\n        /* \"contracts/OtroEjemploSubastaMasCompleto.sol\":3876:3886  bidEndTime */\n      sload(0x02)\n        /* \"contracts/OtroEjemploSubastaMasCompleto.sol\":3858:3873  block.timestamp */\n      timestamp\n        /* \"contracts/OtroEjemploSubastaMasCompleto.sol\":3858:3886  block.timestamp > bidEndTime */\n      gt\n        /* \"contracts/OtroEjemploSubastaMasCompleto.sol\":3850:3919  require(block.timestamp > bidEndTime, \"La subasta aun esta en curso\") */\n      tag_119\n      jumpi\n      mload(0x40)\n      0x08c379a000000000000000000000000000000000000000000000000000000000\n      dup2\n      mstore\n      0x04\n      add\n      tag_120\n      swap1\n      tag_121\n      jump\t// in\n    tag_120:\n      mload(0x40)\n      dup1\n      swap2\n      sub\n      swap1\n      revert\n    tag_119:\n        /* \"contracts/OtroEjemploSubastaMasCompleto.sol\":3934:3943  uint256 i */\n      0x00\n        /* \"contracts/OtroEjemploSubastaMasCompleto.sol\":3929:4510  for (uint256 i = 0; i < ofertas.length; i++) {... */\n    tag_122:\n        /* \"contracts/OtroEjemploSubastaMasCompleto.sol\":3953:3960  ofertas */\n      0x05\n        /* \"contracts/OtroEjemploSubastaMasCompleto.sol\":3953:3967  ofertas.length */\n      dup1\n      sload\n      swap1\n      pop\n        /* \"contracts/OtroEjemploSubastaMasCompleto.sol\":3949:3950  i */\n      dup2\n        /* \"contracts/OtroEjemploSubastaMasCompleto.sol\":3949:3967  i < ofertas.length */\n      lt\n        /* \"contracts/OtroEjemploSubastaMasCompleto.sol\":3929:4510  for (uint256 i = 0; i < ofertas.length; i++) {... */\n      iszero\n      tag_123\n      jumpi\n        /* \"contracts/OtroEjemploSubastaMasCompleto.sol\":3988:4004  address oferente */\n      0x00\n        /* \"contracts/OtroEjemploSubastaMasCompleto.sol\":4007:4014  ofertas */\n      0x05\n        /* \"contracts/OtroEjemploSubastaMasCompleto.sol\":4015:4016  i */\n      dup3\n        /* \"contracts/OtroEjemploSubastaMasCompleto.sol\":4007:4017  ofertas[i] */\n      dup2\n      sload\n      dup2\n      lt\n      tag_125\n      jumpi\n      tag_126\n      tag_127\n      jump\t// in\n    tag_126:\n    tag_125:\n      swap1\n      0x00\n      mstore\n      keccak256(0x00, 0x20)\n      swap1\n      0x02\n      mul\n      add\n        /* \"contracts/OtroEjemploSubastaMasCompleto.sol\":4007:4024  ofertas[i].bidder */\n      0x00\n      add\n      0x00\n      swap1\n      sload\n      swap1\n      0x0100\n      exp\n      swap1\n      div\n      0xffffffffffffffffffffffffffffffffffffffff\n      and\n        /* \"contracts/OtroEjemploSubastaMasCompleto.sol\":3988:4024  address oferente = ofertas[i].bidder */\n      swap1\n      pop\n        /* \"contracts/OtroEjemploSubastaMasCompleto.sol\":4038:4059  uint256 montoOfrecido */\n      0x00\n        /* \"contracts/OtroEjemploSubastaMasCompleto.sol\":4062:4078  remainingBalance */\n      0x06\n        /* \"contracts/OtroEjemploSubastaMasCompleto.sol\":4062:4088  remainingBalance[oferente] */\n      0x00\n        /* \"contracts/OtroEjemploSubastaMasCompleto.sol\":4079:4087  oferente */\n      dup4\n        /* \"contracts/OtroEjemploSubastaMasCompleto.sol\":4062:4088  remainingBalance[oferente] */\n      0xffffffffffffffffffffffffffffffffffffffff\n      and\n      0xffffffffffffffffffffffffffffffffffffffff\n      and\n      dup2\n      mstore\n      0x20\n      add\n      swap1\n      dup2\n      mstore\n      0x20\n      add\n      0x00\n      keccak256\n      sload\n        /* \"contracts/OtroEjemploSubastaMasCompleto.sol\":4038:4088  uint256 montoOfrecido = remainingBalance[oferente] */\n      swap1\n      pop\n        /* \"contracts/OtroEjemploSubastaMasCompleto.sol\":4131:4144  highestBidder */\n      0x03\n      0x00\n      swap1\n      sload\n      swap1\n      0x0100\n      exp\n      swap1\n      div\n      0xffffffffffffffffffffffffffffffffffffffff\n      and\n        /* \"contracts/OtroEjemploSubastaMasCompleto.sol\":4119:4144  oferente != highestBidder */\n      0xffffffffffffffffffffffffffffffffffffffff\n      and\n        /* \"contracts/OtroEjemploSubastaMasCompleto.sol\":4119:4127  oferente */\n      dup3\n        /* \"contracts/OtroEjemploSubastaMasCompleto.sol\":4119:4144  oferente != highestBidder */\n      0xffffffffffffffffffffffffffffffffffffffff\n      and\n      eq\n      iszero\n        /* \"contracts/OtroEjemploSubastaMasCompleto.sol\":4119:4165  oferente != highestBidder && montoOfrecido > 0 */\n      dup1\n      iszero\n      tag_129\n      jumpi\n      pop\n        /* \"contracts/OtroEjemploSubastaMasCompleto.sol\":4164:4165  0 */\n      0x00\n        /* \"contracts/OtroEjemploSubastaMasCompleto.sol\":4148:4161  montoOfrecido */\n      dup2\n        /* \"contracts/OtroEjemploSubastaMasCompleto.sol\":4148:4165  montoOfrecido > 0 */\n      gt\n        /* \"contracts/OtroEjemploSubastaMasCompleto.sol\":4119:4165  oferente != highestBidder && montoOfrecido > 0 */\n    tag_129:\n        /* \"contracts/OtroEjemploSubastaMasCompleto.sol\":4115:4500  if (oferente != highestBidder && montoOfrecido > 0) {... */\n      iszero\n      tag_130\n      jumpi\n        /* \"contracts/OtroEjemploSubastaMasCompleto.sol\":4185:4201  uint256 comision */\n      0x00\n        /* \"contracts/OtroEjemploSubastaMasCompleto.sol\":4243:4246  100 */\n      0x64\n        /* \"contracts/OtroEjemploSubastaMasCompleto.sol\":1300:1301  2 */\n      0x02\n        /* \"contracts/OtroEjemploSubastaMasCompleto.sol\":4205:4218  montoOfrecido */\n      dup4\n        /* \"contracts/OtroEjemploSubastaMasCompleto.sol\":4205:4239  montoOfrecido * COMMISSION_PERCENT */\n      tag_131\n      swap2\n      swap1\n      tag_96\n      jump\t// in\n    tag_131:\n        /* \"contracts/OtroEjemploSubastaMasCompleto.sol\":4204:4246  (montoOfrecido * COMMISSION_PERCENT) / 100 */\n      tag_132\n      swap2\n      swap1\n      tag_98\n      jump\t// in\n    tag_132:\n        /* \"contracts/OtroEjemploSubastaMasCompleto.sol\":4185:4246  uint256 comision = (montoOfrecido * COMMISSION_PERCENT) / 100 */\n      swap1\n      pop\n        /* \"contracts/OtroEjemploSubastaMasCompleto.sol\":4264:4285  uint256 montoDevuelto */\n      0x00\n        /* \"contracts/OtroEjemploSubastaMasCompleto.sol\":4304:4312  comision */\n      dup2\n        /* \"contracts/OtroEjemploSubastaMasCompleto.sol\":4288:4301  montoOfrecido */\n      dup4\n        /* \"contracts/OtroEjemploSubastaMasCompleto.sol\":4288:4312  montoOfrecido - comision */\n      tag_133\n      swap2\n      swap1\n      tag_110\n      jump\t// in\n    tag_133:\n        /* \"contracts/OtroEjemploSubastaMasCompleto.sol\":4264:4312  uint256 montoDevuelto = montoOfrecido - comision */\n      swap1\n      pop\n        /* \"contracts/OtroEjemploSubastaMasCompleto.sol\":4360:4361  0 */\n      0x00\n        /* \"contracts/OtroEjemploSubastaMasCompleto.sol\":4331:4347  remainingBalance */\n      0x06\n        /* \"contracts/OtroEjemploSubastaMasCompleto.sol\":4331:4357  remainingBalance[oferente] */\n      0x00\n        /* \"contracts/OtroEjemploSubastaMasCompleto.sol\":4348:4356  oferente */\n      dup7\n        /* \"contracts/OtroEjemploSubastaMasCompleto.sol\":4331:4357  remainingBalance[oferente] */\n      0xffffffffffffffffffffffffffffffffffffffff\n      and\n      0xffffffffffffffffffffffffffffffffffffffff\n      and\n      dup2\n      mstore\n      0x20\n      add\n      swap1\n      dup2\n      mstore\n      0x20\n      add\n      0x00\n      keccak256\n        /* \"contracts/OtroEjemploSubastaMasCompleto.sol\":4331:4361  remainingBalance[oferente] = 0 */\n      dup2\n      swap1\n      sstore\n      pop\n        /* \"contracts/OtroEjemploSubastaMasCompleto.sol\":4387:4395  oferente */\n      dup4\n        /* \"contracts/OtroEjemploSubastaMasCompleto.sol\":4379:4405  payable(oferente).transfer */\n      0xffffffffffffffffffffffffffffffffffffffff\n      and\n        /* \"contracts/OtroEjemploSubastaMasCompleto.sol\":4379:4420  payable(oferente).transfer(montoDevuelto) */\n      0x08fc\n        /* \"contracts/OtroEjemploSubastaMasCompleto.sol\":4406:4419  montoDevuelto */\n      dup3\n        /* \"contracts/OtroEjemploSubastaMasCompleto.sol\":4379:4420  payable(oferente).transfer(montoDevuelto) */\n      swap1\n      dup2\n      iszero\n      mul\n      swap1\n      mload(0x40)\n      0x00\n      mload(0x40)\n      dup1\n      dup4\n      sub\n      dup2\n      dup6\n      dup9\n      dup9\n      call\n      swap4\n      pop\n      pop\n      pop\n      pop\n      iszero\n      dup1\n      iszero\n      tag_135\n      jumpi\n      returndatasize\n      0x00\n      dup1\n      returndatacopy\n      revert(0x00, returndatasize)\n    tag_135:\n      pop\n        /* \"contracts/OtroEjemploSubastaMasCompleto.sol\":4461:4469  oferente */\n      dup4\n        /* \"contracts/OtroEjemploSubastaMasCompleto.sol\":4444:4485  DepositoDevuelto(oferente, montoDevuelto) */\n      0xffffffffffffffffffffffffffffffffffffffff\n      and\n      0xc10e1a954b8aadb1bccad4ac0748414b575923ae1fe13aefe1b068c06019d73f\n        /* \"contracts/OtroEjemploSubastaMasCompleto.sol\":4471:4484  montoDevuelto */\n      dup3\n        /* \"contracts/OtroEjemploSubastaMasCompleto.sol\":4444:4485  DepositoDevuelto(oferente, montoDevuelto) */\n      mload(0x40)\n      tag_136\n      swap2\n      swap1\n      tag_24\n      jump\t// in\n    tag_136:\n      mload(0x40)\n      dup1\n      swap2\n      sub\n      swap1\n      log2\n        /* \"contracts/OtroEjemploSubastaMasCompleto.sol\":4167:4500  {... */\n      pop\n      pop\n        /* \"contracts/OtroEjemploSubastaMasCompleto.sol\":4115:4500  if (oferente != highestBidder && montoOfrecido > 0) {... */\n    tag_130:\n        /* \"contracts/OtroEjemploSubastaMasCompleto.sol\":3974:4510  {... */\n      pop\n      pop\n        /* \"contracts/OtroEjemploSubastaMasCompleto.sol\":3969:3972  i++ */\n      dup1\n      dup1\n      0x01\n      add\n      swap2\n      pop\n      pop\n        /* \"contracts/OtroEjemploSubastaMasCompleto.sol\":3929:4510  for (uint256 i = 0; i < ofertas.length; i++) {... */\n      jump(tag_122)\n    tag_123:\n      pop\n        /* \"contracts/OtroEjemploSubastaMasCompleto.sol\":4524:4567  GanadorAnunciado(highestBidder, highestBid) */\n      0xe3a2429a7985fd026b75a901911e3bee729e9f160f1b0e3a09596d891ed7e06f\n        /* \"contracts/OtroEjemploSubastaMasCompleto.sol\":4541:4554  highestBidder */\n      0x03\n      0x00\n      swap1\n      sload\n      swap1\n      0x0100\n      exp\n      swap1\n      div\n      0xffffffffffffffffffffffffffffffffffffffff\n      and\n        /* \"contracts/OtroEjemploSubastaMasCompleto.sol\":4556:4566  highestBid */\n      sload(0x04)\n        /* \"contracts/OtroEjemploSubastaMasCompleto.sol\":4524:4567  GanadorAnunciado(highestBidder, highestBid) */\n      mload(0x40)\n      tag_137\n      swap3\n      swap2\n      swap1\n      tag_59\n      jump\t// in\n    tag_137:\n      mload(0x40)\n      dup1\n      swap2\n      sub\n      swap1\n      log1\n        /* \"contracts/OtroEjemploSubastaMasCompleto.sol\":3784:4574  function devolverDepositos() external payable onlyOwner {... */\n      jump\t// out\n        /* \"contracts/OtroEjemploSubastaMasCompleto.sol\":1423:1446  Oferta[] public ofertas */\n    tag_42:\n      0x05\n      dup2\n      dup2\n      sload\n      dup2\n      lt\n      tag_138\n      jumpi\n      0x00\n      dup1\n      revert\n    tag_138:\n      swap1\n      0x00\n      mstore\n      keccak256(0x00, 0x20)\n      swap1\n      0x02\n      mul\n      add\n      0x00\n      swap2\n      pop\n      swap1\n      pop\n      dup1\n      0x00\n      add\n      0x00\n      swap1\n      sload\n      swap1\n      0x0100\n      exp\n      swap1\n      div\n      0xffffffffffffffffffffffffffffffffffffffff\n      and\n      swap1\n      dup1\n      0x01\n      add\n      sload\n      swap1\n      pop\n      dup3\n      jump\t// out\n        /* \"contracts/OtroEjemploSubastaMasCompleto.sol\":1452:1503  mapping(address => uint256) public remainingBalance */\n    tag_49:\n      mstore(0x20, 0x06)\n      dup1\n      0x00\n      mstore\n      keccak256(0x00, 0x40)\n      0x00\n      swap2\n      pop\n      swap1\n      pop\n      sload\n      dup2\n      jump\t// out\n        /* \"contracts/OtroEjemploSubastaMasCompleto.sol\":1000:1027  uint256 public bidStartTime */\n    tag_53:\n      sload(0x01)\n      dup2\n      jump\t// out\n        /* \"contracts/OtroEjemploSubastaMasCompleto.sol\":3478:3675  function mostrarGanador() external view returns (address, uint256) {... */\n    tag_57:\n        /* \"contracts/OtroEjemploSubastaMasCompleto.sol\":3527:3534  address */\n      0x00\n        /* \"contracts/OtroEjemploSubastaMasCompleto.sol\":3536:3543  uint256 */\n      dup1\n        /* \"contracts/OtroEjemploSubastaMasCompleto.sol\":3581:3591  bidEndTime */\n      sload(0x02)\n        /* \"contracts/OtroEjemploSubastaMasCompleto.sol\":3563:3578  block.timestamp */\n      timestamp\n        /* \"contracts/OtroEjemploSubastaMasCompleto.sol\":3563:3591  block.timestamp > bidEndTime */\n      gt\n        /* \"contracts/OtroEjemploSubastaMasCompleto.sol\":3555:3624  require(block.timestamp > bidEndTime, \"La subasta aun esta en curso\") */\n      tag_141\n      jumpi\n      mload(0x40)\n      0x08c379a000000000000000000000000000000000000000000000000000000000\n      dup2\n      mstore\n      0x04\n      add\n      tag_142\n      swap1\n      tag_121\n      jump\t// in\n    tag_142:\n      mload(0x40)\n      dup1\n      swap2\n      sub\n      swap1\n      revert\n    tag_141:\n        /* \"contracts/OtroEjemploSubastaMasCompleto.sol\":3642:3655  highestBidder */\n      0x03\n      0x00\n      swap1\n      sload\n      swap1\n      0x0100\n      exp\n      swap1\n      div\n      0xffffffffffffffffffffffffffffffffffffffff\n      and\n        /* \"contracts/OtroEjemploSubastaMasCompleto.sol\":3657:3667  highestBid */\n      sload(0x04)\n        /* \"contracts/OtroEjemploSubastaMasCompleto.sol\":3634:3668  return (highestBidder, highestBid) */\n      swap2\n      pop\n      swap2\n      pop\n        /* \"contracts/OtroEjemploSubastaMasCompleto.sol\":3478:3675  function mostrarGanador() external view returns (address, uint256) {... */\n      swap1\n      swap2\n      jump\t// out\n        /* \"contracts/OtroEjemploSubastaMasCompleto.sol\":1180:1223  uint256 public constant BID_INC_PERCENT = 5 */\n    tag_62:\n        /* \"contracts/OtroEjemploSubastaMasCompleto.sol\":1222:1223  5 */\n      0x05\n        /* \"contracts/OtroEjemploSubastaMasCompleto.sol\":1180:1223  uint256 public constant BID_INC_PERCENT = 5 */\n      dup2\n      jump\t// out\n        /* \"contracts/OtroEjemploSubastaMasCompleto.sol\":1064:1092  address public highestBidder */\n    tag_66:\n      0x03\n      0x00\n      swap1\n      sload\n      swap1\n      0x0100\n      exp\n      swap1\n      div\n      0xffffffffffffffffffffffffffffffffffffffff\n      and\n      dup2\n      jump\t// out\n        /* \"contracts/OtroEjemploSubastaMasCompleto.sol\":1255:1301  uint256 public constant COMMISSION_PERCENT = 2 */\n    tag_71:\n        /* \"contracts/OtroEjemploSubastaMasCompleto.sol\":1300:1301  2 */\n      0x02\n        /* \"contracts/OtroEjemploSubastaMasCompleto.sol\":1255:1301  uint256 public constant COMMISSION_PERCENT = 2 */\n      dup2\n      jump\t// out\n        /* \"contracts/OtroEjemploSubastaMasCompleto.sol\":4580:4851  function retirarExceso() external {... */\n    tag_75:\n        /* \"contracts/OtroEjemploSubastaMasCompleto.sol\":4624:4638  uint256 exceso */\n      0x00\n        /* \"contracts/OtroEjemploSubastaMasCompleto.sol\":4672:4682  highestBid */\n      sload(0x04)\n        /* \"contracts/OtroEjemploSubastaMasCompleto.sol\":4641:4657  remainingBalance */\n      0x06\n        /* \"contracts/OtroEjemploSubastaMasCompleto.sol\":4641:4669  remainingBalance[msg.sender] */\n      0x00\n        /* \"contracts/OtroEjemploSubastaMasCompleto.sol\":4658:4668  msg.sender */\n      caller\n        /* \"contracts/OtroEjemploSubastaMasCompleto.sol\":4641:4669  remainingBalance[msg.sender] */\n      0xffffffffffffffffffffffffffffffffffffffff\n      and\n      0xffffffffffffffffffffffffffffffffffffffff\n      and\n      dup2\n      mstore\n      0x20\n      add\n      swap1\n      dup2\n      mstore\n      0x20\n      add\n      0x00\n      keccak256\n      sload\n        /* \"contracts/OtroEjemploSubastaMasCompleto.sol\":4641:4682  remainingBalance[msg.sender] - highestBid */\n      tag_144\n      swap2\n      swap1\n      tag_110\n      jump\t// in\n    tag_144:\n        /* \"contracts/OtroEjemploSubastaMasCompleto.sol\":4624:4682  uint256 exceso = remainingBalance[msg.sender] - highestBid */\n      swap1\n      pop\n        /* \"contracts/OtroEjemploSubastaMasCompleto.sol\":4709:4710  0 */\n      0x00\n        /* \"contracts/OtroEjemploSubastaMasCompleto.sol\":4700:4706  exceso */\n      dup2\n        /* \"contracts/OtroEjemploSubastaMasCompleto.sol\":4700:4710  exceso > 0 */\n      gt\n        /* \"contracts/OtroEjemploSubastaMasCompleto.sol\":4692:4741  require(exceso > 0, \"No tiene suficiente exceso\") */\n      tag_145\n      jumpi\n      mload(0x40)\n      0x08c379a000000000000000000000000000000000000000000000000000000000\n      dup2\n      mstore\n      0x04\n      add\n      tag_146\n      swap1\n      tag_147\n      jump\t// in\n    tag_146:\n      mload(0x40)\n      dup1\n      swap2\n      sub\n      swap1\n      revert\n    tag_145:\n        /* \"contracts/OtroEjemploSubastaMasCompleto.sol\":4792:4798  exceso */\n      dup1\n        /* \"contracts/OtroEjemploSubastaMasCompleto.sol\":4760:4776  remainingBalance */\n      0x06\n        /* \"contracts/OtroEjemploSubastaMasCompleto.sol\":4760:4788  remainingBalance[msg.sender] */\n      0x00\n        /* \"contracts/OtroEjemploSubastaMasCompleto.sol\":4777:4787  msg.sender */\n      caller\n        /* \"contracts/OtroEjemploSubastaMasCompleto.sol\":4760:4788  remainingBalance[msg.sender] */\n      0xffffffffffffffffffffffffffffffffffffffff\n      and\n      0xffffffffffffffffffffffffffffffffffffffff\n      and\n      dup2\n      mstore\n      0x20\n      add\n      swap1\n      dup2\n      mstore\n      0x20\n      add\n      0x00\n      keccak256\n      0x00\n        /* \"contracts/OtroEjemploSubastaMasCompleto.sol\":4760:4798  remainingBalance[msg.sender] -= exceso */\n      dup3\n      dup3\n      sload\n      tag_148\n      swap2\n      swap1\n      tag_110\n      jump\t// in\n    tag_148:\n      swap3\n      pop\n      pop\n      dup2\n      swap1\n      sstore\n      pop\n        /* \"contracts/OtroEjemploSubastaMasCompleto.sol\":4816:4826  msg.sender */\n      caller\n        /* \"contracts/OtroEjemploSubastaMasCompleto.sol\":4808:4836  payable(msg.sender).transfer */\n      0xffffffffffffffffffffffffffffffffffffffff\n      and\n        /* \"contracts/OtroEjemploSubastaMasCompleto.sol\":4808:4844  payable(msg.sender).transfer(exceso) */\n      0x08fc\n        /* \"contracts/OtroEjemploSubastaMasCompleto.sol\":4837:4843  exceso */\n      dup3\n        /* \"contracts/OtroEjemploSubastaMasCompleto.sol\":4808:4844  payable(msg.sender).transfer(exceso) */\n      swap1\n      dup2\n      iszero\n      mul\n      swap1\n      mload(0x40)\n      0x00\n      mload(0x40)\n      dup1\n      dup4\n      sub\n      dup2\n      dup6\n      dup9\n      dup9\n      call\n      swap4\n      pop\n      pop\n      pop\n      pop\n      iszero\n      dup1\n      iszero\n      tag_150\n      jumpi\n      returndatasize\n      0x00\n      dup1\n      returndatacopy\n      revert(0x00, returndatasize)\n    tag_150:\n      pop\n        /* \"contracts/OtroEjemploSubastaMasCompleto.sol\":4614:4851  {... */\n      pop\n        /* \"contracts/OtroEjemploSubastaMasCompleto.sol\":4580:4851  function retirarExceso() external {... */\n      jump\t// out\n        /* \"contracts/OtroEjemploSubastaMasCompleto.sol\":3681:3778  function mostrarOfertas() external view returns (Oferta[] memory) {... */\n    tag_78:\n        /* \"contracts/OtroEjemploSubastaMasCompleto.sol\":3730:3745  Oferta[] memory */\n      0x60\n        /* \"contracts/OtroEjemploSubastaMasCompleto.sol\":3764:3771  ofertas */\n      0x05\n        /* \"contracts/OtroEjemploSubastaMasCompleto.sol\":3757:3771  return ofertas */\n      dup1\n      sload\n      dup1\n      0x20\n      mul\n      0x20\n      add\n      mload(0x40)\n      swap1\n      dup2\n      add\n      0x40\n      mstore\n      dup1\n      swap3\n      swap2\n      swap1\n      dup2\n      dup2\n      mstore\n      0x20\n      add\n      0x00\n      swap1\n    tag_152:\n      dup3\n      dup3\n      lt\n      iszero\n      tag_153\n      jumpi\n      dup4\n      dup3\n      swap1\n      0x00\n      mstore\n      keccak256(0x00, 0x20)\n      swap1\n      0x02\n      mul\n      add\n      mload(0x40)\n      dup1\n      0x40\n      add\n      0x40\n      mstore\n      swap1\n      dup2\n      0x00\n      dup3\n      add\n      0x00\n      swap1\n      sload\n      swap1\n      0x0100\n      exp\n      swap1\n      div\n      0xffffffffffffffffffffffffffffffffffffffff\n      and\n      0xffffffffffffffffffffffffffffffffffffffff\n      and\n      0xffffffffffffffffffffffffffffffffffffffff\n      and\n      dup2\n      mstore\n      0x20\n      add\n      0x01\n      dup3\n      add\n      sload\n      dup2\n      mstore\n      pop\n      pop\n      dup2\n      mstore\n      0x20\n      add\n      swap1\n      0x01\n      add\n      swap1\n      jump(tag_152)\n    tag_153:\n      pop\n      pop\n      pop\n      pop\n      swap1\n      pop\n        /* \"contracts/OtroEjemploSubastaMasCompleto.sol\":3681:3778  function mostrarOfertas() external view returns (Oferta[] memory) {... */\n      swap1\n      jump\t// out\n        /* \"contracts/OtroEjemploSubastaMasCompleto.sol\":1098:1123  uint256 public highestBid */\n    tag_83:\n      sload(0x04)\n      dup2\n      jump\t// out\n        /* \"#utility.yul\":7:84   */\n    tag_155:\n        /* \"#utility.yul\":44:51   */\n      0x00\n        /* \"#utility.yul\":73:78   */\n      dup2\n        /* \"#utility.yul\":62:78   */\n      swap1\n      pop\n        /* \"#utility.yul\":7:84   */\n      swap2\n      swap1\n      pop\n      jump\t// out\n        /* \"#utility.yul\":90:208   */\n    tag_156:\n        /* \"#utility.yul\":177:201   */\n      tag_196\n        /* \"#utility.yul\":195:200   */\n      dup2\n        /* \"#utility.yul\":177:201   */\n      tag_155\n      jump\t// in\n    tag_196:\n        /* \"#utility.yul\":172:175   */\n      dup3\n        /* \"#utility.yul\":165:202   */\n      mstore\n        /* \"#utility.yul\":90:208   */\n      pop\n      pop\n      jump\t// out\n        /* \"#utility.yul\":214:436   */\n    tag_24:\n        /* \"#utility.yul\":307:311   */\n      0x00\n        /* \"#utility.yul\":345:347   */\n      0x20\n        /* \"#utility.yul\":334:343   */\n      dup3\n        /* \"#utility.yul\":330:348   */\n      add\n        /* \"#utility.yul\":322:348   */\n      swap1\n      pop\n        /* \"#utility.yul\":358:429   */\n      tag_198\n        /* \"#utility.yul\":426:427   */\n      0x00\n        /* \"#utility.yul\":415:424   */\n      dup4\n        /* \"#utility.yul\":411:428   */\n      add\n        /* \"#utility.yul\":402:408   */\n      dup5\n        /* \"#utility.yul\":358:429   */\n      tag_156\n      jump\t// in\n    tag_198:\n        /* \"#utility.yul\":214:436   */\n      swap3\n      swap2\n      pop\n      pop\n      jump\t// out\n        /* \"#utility.yul\":442:568   */\n    tag_157:\n        /* \"#utility.yul\":479:486   */\n      0x00\n        /* \"#utility.yul\":519:561   */\n      0xffffffffffffffffffffffffffffffffffffffff\n        /* \"#utility.yul\":512:517   */\n      dup3\n        /* \"#utility.yul\":508:562   */\n      and\n        /* \"#utility.yul\":497:562   */\n      swap1\n      pop\n        /* \"#utility.yul\":442:568   */\n      swap2\n      swap1\n      pop\n      jump\t// out\n        /* \"#utility.yul\":574:678   */\n    tag_158:\n        /* \"#utility.yul\":619:626   */\n      0x00\n        /* \"#utility.yul\":648:672   */\n      tag_201\n        /* \"#utility.yul\":666:671   */\n      dup3\n        /* \"#utility.yul\":648:672   */\n      tag_157\n      jump\t// in\n    tag_201:\n        /* \"#utility.yul\":637:672   */\n      swap1\n      pop\n        /* \"#utility.yul\":574:678   */\n      swap2\n      swap1\n      pop\n      jump\t// out\n        /* \"#utility.yul\":684:826   */\n    tag_159:\n        /* \"#utility.yul\":787:819   */\n      tag_203\n        /* \"#utility.yul\":813:818   */\n      dup2\n        /* \"#utility.yul\":787:819   */\n      tag_158\n      jump\t// in\n    tag_203:\n        /* \"#utility.yul\":782:785   */\n      dup3\n        /* \"#utility.yul\":775:820   */\n      mstore\n        /* \"#utility.yul\":684:826   */\n      pop\n      pop\n      jump\t// out\n        /* \"#utility.yul\":832:1086   */\n    tag_29:\n        /* \"#utility.yul\":941:945   */\n      0x00\n        /* \"#utility.yul\":979:981   */\n      0x20\n        /* \"#utility.yul\":968:977   */\n      dup3\n        /* \"#utility.yul\":964:982   */\n      add\n        /* \"#utility.yul\":956:982   */\n      swap1\n      pop\n        /* \"#utility.yul\":992:1079   */\n      tag_205\n        /* \"#utility.yul\":1076:1077   */\n      0x00\n        /* \"#utility.yul\":1065:1074   */\n      dup4\n        /* \"#utility.yul\":1061:1078   */\n      add\n        /* \"#utility.yul\":1052:1058   */\n      dup5\n        /* \"#utility.yul\":992:1079   */\n      tag_159\n      jump\t// in\n    tag_205:\n        /* \"#utility.yul\":832:1086   */\n      swap3\n      swap2\n      pop\n      pop\n      jump\t// out\n        /* \"#utility.yul\":1173:1290   */\n    tag_161:\n        /* \"#utility.yul\":1282:1283   */\n      0x00\n        /* \"#utility.yul\":1279:1280   */\n      dup1\n        /* \"#utility.yul\":1272:1284   */\n      revert\n        /* \"#utility.yul\":1419:1541   */\n    tag_163:\n        /* \"#utility.yul\":1492:1516   */\n      tag_210\n        /* \"#utility.yul\":1510:1515   */\n      dup2\n        /* \"#utility.yul\":1492:1516   */\n      tag_155\n      jump\t// in\n    tag_210:\n        /* \"#utility.yul\":1485:1490   */\n      dup2\n        /* \"#utility.yul\":1482:1517   */\n      eq\n        /* \"#utility.yul\":1472:1535   */\n      tag_211\n      jumpi\n        /* \"#utility.yul\":1531:1532   */\n      0x00\n        /* \"#utility.yul\":1528:1529   */\n      dup1\n        /* \"#utility.yul\":1521:1533   */\n      revert\n        /* \"#utility.yul\":1472:1535   */\n    tag_211:\n        /* \"#utility.yul\":1419:1541   */\n      pop\n      jump\t// out\n        /* \"#utility.yul\":1547:1686   */\n    tag_164:\n        /* \"#utility.yul\":1593:1598   */\n      0x00\n        /* \"#utility.yul\":1631:1637   */\n      dup2\n        /* \"#utility.yul\":1618:1638   */\n      calldataload\n        /* \"#utility.yul\":1609:1638   */\n      swap1\n      pop\n        /* \"#utility.yul\":1647:1680   */\n      tag_213\n        /* \"#utility.yul\":1674:1679   */\n      dup2\n        /* \"#utility.yul\":1647:1680   */\n      tag_163\n      jump\t// in\n    tag_213:\n        /* \"#utility.yul\":1547:1686   */\n      swap3\n      swap2\n      pop\n      pop\n      jump\t// out\n        /* \"#utility.yul\":1692:2021   */\n    tag_41:\n        /* \"#utility.yul\":1751:1757   */\n      0x00\n        /* \"#utility.yul\":1800:1802   */\n      0x20\n        /* \"#utility.yul\":1788:1797   */\n      dup3\n        /* \"#utility.yul\":1779:1786   */\n      dup5\n        /* \"#utility.yul\":1775:1798   */\n      sub\n        /* \"#utility.yul\":1771:1803   */\n      slt\n        /* \"#utility.yul\":1768:1887   */\n      iszero\n      tag_215\n      jumpi\n        /* \"#utility.yul\":1806:1885   */\n      tag_216\n      tag_161\n      jump\t// in\n    tag_216:\n        /* \"#utility.yul\":1768:1887   */\n    tag_215:\n        /* \"#utility.yul\":1926:1927   */\n      0x00\n        /* \"#utility.yul\":1951:2004   */\n      tag_217\n        /* \"#utility.yul\":1996:2003   */\n      dup5\n        /* \"#utility.yul\":1987:1993   */\n      dup3\n        /* \"#utility.yul\":1976:1985   */\n      dup6\n        /* \"#utility.yul\":1972:1994   */\n      add\n        /* \"#utility.yul\":1951:2004   */\n      tag_164\n      jump\t// in\n    tag_217:\n        /* \"#utility.yul\":1941:2004   */\n      swap2\n      pop\n        /* \"#utility.yul\":1897:2014   */\n      pop\n        /* \"#utility.yul\":1692:2021   */\n      swap3\n      swap2\n      pop\n      pop\n      jump\t// out\n        /* \"#utility.yul\":2027:2391   */\n    tag_44:\n        /* \"#utility.yul\":2164:2168   */\n      0x00\n        /* \"#utility.yul\":2202:2204   */\n      0x40\n        /* \"#utility.yul\":2191:2200   */\n      dup3\n        /* \"#utility.yul\":2187:2205   */\n      add\n        /* \"#utility.yul\":2179:2205   */\n      swap1\n      pop\n        /* \"#utility.yul\":2215:2302   */\n      tag_219\n        /* \"#utility.yul\":2299:2300   */\n      0x00\n        /* \"#utility.yul\":2288:2297   */\n      dup4\n        /* \"#utility.yul\":2284:2301   */\n      add\n        /* \"#utility.yul\":2275:2281   */\n      dup6\n        /* \"#utility.yul\":2215:2302   */\n      tag_159\n      jump\t// in\n    tag_219:\n        /* \"#utility.yul\":2312:2384   */\n      tag_220\n        /* \"#utility.yul\":2380:2382   */\n      0x20\n        /* \"#utility.yul\":2369:2378   */\n      dup4\n        /* \"#utility.yul\":2365:2383   */\n      add\n        /* \"#utility.yul\":2356:2362   */\n      dup5\n        /* \"#utility.yul\":2312:2384   */\n      tag_156\n      jump\t// in\n    tag_220:\n        /* \"#utility.yul\":2027:2391   */\n      swap4\n      swap3\n      pop\n      pop\n      pop\n      jump\t// out\n        /* \"#utility.yul\":2397:2493   */\n    tag_165:\n        /* \"#utility.yul\":2434:2441   */\n      0x00\n        /* \"#utility.yul\":2463:2487   */\n      tag_222\n        /* \"#utility.yul\":2481:2486   */\n      dup3\n        /* \"#utility.yul\":2463:2487   */\n      tag_157\n      jump\t// in\n    tag_222:\n        /* \"#utility.yul\":2452:2487   */\n      swap1\n      pop\n        /* \"#utility.yul\":2397:2493   */\n      swap2\n      swap1\n      pop\n      jump\t// out\n        /* \"#utility.yul\":2499:2621   */\n    tag_166:\n        /* \"#utility.yul\":2572:2596   */\n      tag_224\n        /* \"#utility.yul\":2590:2595   */\n      dup2\n        /* \"#utility.yul\":2572:2596   */\n      tag_165\n      jump\t// in\n    tag_224:\n        /* \"#utility.yul\":2565:2570   */\n      dup2\n        /* \"#utility.yul\":2562:2597   */\n      eq\n        /* \"#utility.yul\":2552:2615   */\n      tag_225\n      jumpi\n        /* \"#utility.yul\":2611:2612   */\n      0x00\n        /* \"#utility.yul\":2608:2609   */\n      dup1\n        /* \"#utility.yul\":2601:2613   */\n      revert\n        /* \"#utility.yul\":2552:2615   */\n    tag_225:\n        /* \"#utility.yul\":2499:2621   */\n      pop\n      jump\t// out\n        /* \"#utility.yul\":2627:2766   */\n    tag_167:\n        /* \"#utility.yul\":2673:2678   */\n      0x00\n        /* \"#utility.yul\":2711:2717   */\n      dup2\n        /* \"#utility.yul\":2698:2718   */\n      calldataload\n        /* \"#utility.yul\":2689:2718   */\n      swap1\n      pop\n        /* \"#utility.yul\":2727:2760   */\n      tag_227\n        /* \"#utility.yul\":2754:2759   */\n      dup2\n        /* \"#utility.yul\":2727:2760   */\n      tag_166\n      jump\t// in\n    tag_227:\n        /* \"#utility.yul\":2627:2766   */\n      swap3\n      swap2\n      pop\n      pop\n      jump\t// out\n        /* \"#utility.yul\":2772:3101   */\n    tag_48:\n        /* \"#utility.yul\":2831:2837   */\n      0x00\n        /* \"#utility.yul\":2880:2882   */\n      0x20\n        /* \"#utility.yul\":2868:2877   */\n      dup3\n        /* \"#utility.yul\":2859:2866   */\n      dup5\n        /* \"#utility.yul\":2855:2878   */\n      sub\n        /* \"#utility.yul\":2851:2883   */\n      slt\n        /* \"#utility.yul\":2848:2967   */\n      iszero\n      tag_229\n      jumpi\n        /* \"#utility.yul\":2886:2965   */\n      tag_230\n      tag_161\n      jump\t// in\n    tag_230:\n        /* \"#utility.yul\":2848:2967   */\n    tag_229:\n        /* \"#utility.yul\":3006:3007   */\n      0x00\n        /* \"#utility.yul\":3031:3084   */\n      tag_231\n        /* \"#utility.yul\":3076:3083   */\n      dup5\n        /* \"#utility.yul\":3067:3073   */\n      dup3\n        /* \"#utility.yul\":3056:3065   */\n      dup6\n        /* \"#utility.yul\":3052:3074   */\n      add\n        /* \"#utility.yul\":3031:3084   */\n      tag_167\n      jump\t// in\n    tag_231:\n        /* \"#utility.yul\":3021:3084   */\n      swap2\n      pop\n        /* \"#utility.yul\":2977:3094   */\n      pop\n        /* \"#utility.yul\":2772:3101   */\n      swap3\n      swap2\n      pop\n      pop\n      jump\t// out\n        /* \"#utility.yul\":3107:3225   */\n    tag_168:\n        /* \"#utility.yul\":3194:3218   */\n      tag_233\n        /* \"#utility.yul\":3212:3217   */\n      dup2\n        /* \"#utility.yul\":3194:3218   */\n      tag_165\n      jump\t// in\n    tag_233:\n        /* \"#utility.yul\":3189:3192   */\n      dup3\n        /* \"#utility.yul\":3182:3219   */\n      mstore\n        /* \"#utility.yul\":3107:3225   */\n      pop\n      pop\n      jump\t// out\n        /* \"#utility.yul\":3231:3563   */\n    tag_59:\n        /* \"#utility.yul\":3352:3356   */\n      0x00\n        /* \"#utility.yul\":3390:3392   */\n      0x40\n        /* \"#utility.yul\":3379:3388   */\n      dup3\n        /* \"#utility.yul\":3375:3393   */\n      add\n        /* \"#utility.yul\":3367:3393   */\n      swap1\n      pop\n        /* \"#utility.yul\":3403:3474   */\n      tag_235\n        /* \"#utility.yul\":3471:3472   */\n      0x00\n        /* \"#utility.yul\":3460:3469   */\n      dup4\n        /* \"#utility.yul\":3456:3473   */\n      add\n        /* \"#utility.yul\":3447:3453   */\n      dup6\n        /* \"#utility.yul\":3403:3474   */\n      tag_168\n      jump\t// in\n    tag_235:\n        /* \"#utility.yul\":3484:3556   */\n      tag_236\n        /* \"#utility.yul\":3552:3554   */\n      0x20\n        /* \"#utility.yul\":3541:3550   */\n      dup4\n        /* \"#utility.yul\":3537:3555   */\n      add\n        /* \"#utility.yul\":3528:3534   */\n      dup5\n        /* \"#utility.yul\":3484:3556   */\n      tag_156\n      jump\t// in\n    tag_236:\n        /* \"#utility.yul\":3231:3563   */\n      swap4\n      swap3\n      pop\n      pop\n      pop\n      jump\t// out\n        /* \"#utility.yul\":3569:3791   */\n    tag_68:\n        /* \"#utility.yul\":3662:3666   */\n      0x00\n        /* \"#utility.yul\":3700:3702   */\n      0x20\n        /* \"#utility.yul\":3689:3698   */\n      dup3\n        /* \"#utility.yul\":3685:3703   */\n      add\n        /* \"#utility.yul\":3677:3703   */\n      swap1\n      pop\n        /* \"#utility.yul\":3713:3784   */\n      tag_238\n        /* \"#utility.yul\":3781:3782   */\n      0x00\n        /* \"#utility.yul\":3770:3779   */\n      dup4\n        /* \"#utility.yul\":3766:3783   */\n      add\n        /* \"#utility.yul\":3757:3763   */\n      dup5\n        /* \"#utility.yul\":3713:3784   */\n      tag_168\n      jump\t// in\n    tag_238:\n        /* \"#utility.yul\":3569:3791   */\n      swap3\n      swap2\n      pop\n      pop\n      jump\t// out\n        /* \"#utility.yul\":3797:3933   */\n    tag_169:\n        /* \"#utility.yul\":3886:3892   */\n      0x00\n        /* \"#utility.yul\":3920:3925   */\n      dup2\n        /* \"#utility.yul\":3914:3926   */\n      mload\n        /* \"#utility.yul\":3904:3926   */\n      swap1\n      pop\n        /* \"#utility.yul\":3797:3933   */\n      swap2\n      swap1\n      pop\n      jump\t// out\n        /* \"#utility.yul\":3939:4145   */\n    tag_170:\n        /* \"#utility.yul\":4060:4071   */\n      0x00\n        /* \"#utility.yul\":4094:4100   */\n      dup3\n        /* \"#utility.yul\":4089:4092   */\n      dup3\n        /* \"#utility.yul\":4082:4101   */\n      mstore\n        /* \"#utility.yul\":4134:4138   */\n      0x20\n        /* \"#utility.yul\":4129:4132   */\n      dup3\n        /* \"#utility.yul\":4125:4139   */\n      add\n        /* \"#utility.yul\":4110:4139   */\n      swap1\n      pop\n        /* \"#utility.yul\":3939:4145   */\n      swap3\n      swap2\n      pop\n      pop\n      jump\t// out\n        /* \"#utility.yul\":4151:4305   */\n    tag_171:\n        /* \"#utility.yul\":4240:4244   */\n      0x00\n        /* \"#utility.yul\":4263:4266   */\n      dup2\n        /* \"#utility.yul\":4255:4266   */\n      swap1\n      pop\n        /* \"#utility.yul\":4293:4297   */\n      0x20\n        /* \"#utility.yul\":4288:4291   */\n      dup3\n        /* \"#utility.yul\":4284:4298   */\n      add\n        /* \"#utility.yul\":4276:4298   */\n      swap1\n      pop\n        /* \"#utility.yul\":4151:4305   */\n      swap2\n      swap1\n      pop\n      jump\t// out\n        /* \"#utility.yul\":4311:4443   */\n    tag_172:\n        /* \"#utility.yul\":4404:4436   */\n      tag_243\n        /* \"#utility.yul\":4430:4435   */\n      dup2\n        /* \"#utility.yul\":4404:4436   */\n      tag_158\n      jump\t// in\n    tag_243:\n        /* \"#utility.yul\":4399:4402   */\n      dup3\n        /* \"#utility.yul\":4392:4437   */\n      mstore\n        /* \"#utility.yul\":4311:4443   */\n      pop\n      pop\n      jump\t// out\n        /* \"#utility.yul\":4449:4557   */\n    tag_173:\n        /* \"#utility.yul\":4526:4550   */\n      tag_245\n        /* \"#utility.yul\":4544:4549   */\n      dup2\n        /* \"#utility.yul\":4526:4550   */\n      tag_155\n      jump\t// in\n    tag_245:\n        /* \"#utility.yul\":4521:4524   */\n      dup3\n        /* \"#utility.yul\":4514:4551   */\n      mstore\n        /* \"#utility.yul\":4449:4557   */\n      pop\n      pop\n      jump\t// out\n        /* \"#utility.yul\":4617:5128   */\n    tag_174:\n        /* \"#utility.yul\":4748:4752   */\n      0x40\n        /* \"#utility.yul\":4743:4746   */\n      dup3\n        /* \"#utility.yul\":4739:4753   */\n      add\n        /* \"#utility.yul\":4837:4841   */\n      0x00\n        /* \"#utility.yul\":4830:4835   */\n      dup3\n        /* \"#utility.yul\":4826:4842   */\n      add\n        /* \"#utility.yul\":4820:4843   */\n      mload\n        /* \"#utility.yul\":4856:4935   */\n      tag_247\n        /* \"#utility.yul\":4929:4933   */\n      0x00\n        /* \"#utility.yul\":4924:4927   */\n      dup6\n        /* \"#utility.yul\":4920:4934   */\n      add\n        /* \"#utility.yul\":4906:4918   */\n      dup3\n        /* \"#utility.yul\":4856:4935   */\n      tag_172\n      jump\t// in\n    tag_247:\n        /* \"#utility.yul\":4763:4945   */\n      pop\n        /* \"#utility.yul\":5029:5033   */\n      0x20\n        /* \"#utility.yul\":5022:5027   */\n      dup3\n        /* \"#utility.yul\":5018:5034   */\n      add\n        /* \"#utility.yul\":5012:5035   */\n      mload\n        /* \"#utility.yul\":5048:5111   */\n      tag_248\n        /* \"#utility.yul\":5105:5109   */\n      0x20\n        /* \"#utility.yul\":5100:5103   */\n      dup6\n        /* \"#utility.yul\":5096:5110   */\n      add\n        /* \"#utility.yul\":5082:5094   */\n      dup3\n        /* \"#utility.yul\":5048:5111   */\n      tag_173\n      jump\t// in\n    tag_248:\n        /* \"#utility.yul\":4955:5121   */\n      pop\n        /* \"#utility.yul\":4717:5128   */\n      pop\n        /* \"#utility.yul\":4617:5128   */\n      pop\n      pop\n      jump\t// out\n        /* \"#utility.yul\":5134:5401   */\n    tag_175:\n        /* \"#utility.yul\":5247:5257   */\n      0x00\n        /* \"#utility.yul\":5268:5358   */\n      tag_250\n        /* \"#utility.yul\":5354:5357   */\n      dup4\n        /* \"#utility.yul\":5346:5352   */\n      dup4\n        /* \"#utility.yul\":5268:5358   */\n      tag_174\n      jump\t// in\n    tag_250:\n        /* \"#utility.yul\":5390:5394   */\n      0x40\n        /* \"#utility.yul\":5385:5388   */\n      dup4\n        /* \"#utility.yul\":5381:5395   */\n      add\n        /* \"#utility.yul\":5367:5395   */\n      swap1\n      pop\n        /* \"#utility.yul\":5134:5401   */\n      swap3\n      swap2\n      pop\n      pop\n      jump\t// out\n        /* \"#utility.yul\":5407:5542   */\n    tag_176:\n        /* \"#utility.yul\":5499:5503   */\n      0x00\n        /* \"#utility.yul\":5531:5535   */\n      0x20\n        /* \"#utility.yul\":5526:5529   */\n      dup3\n        /* \"#utility.yul\":5522:5536   */\n      add\n        /* \"#utility.yul\":5514:5536   */\n      swap1\n      pop\n        /* \"#utility.yul\":5407:5542   */\n      swap2\n      swap1\n      pop\n      jump\t// out\n        /* \"#utility.yul\":5606:6514   */\n    tag_177:\n        /* \"#utility.yul\":5769:5772   */\n      0x00\n        /* \"#utility.yul\":5798:5874   */\n      tag_253\n        /* \"#utility.yul\":5868:5873   */\n      dup3\n        /* \"#utility.yul\":5798:5874   */\n      tag_169\n      jump\t// in\n    tag_253:\n        /* \"#utility.yul\":5890:5998   */\n      tag_254\n        /* \"#utility.yul\":5991:5997   */\n      dup2\n        /* \"#utility.yul\":5986:5989   */\n      dup6\n        /* \"#utility.yul\":5890:5998   */\n      tag_170\n      jump\t// in\n    tag_254:\n        /* \"#utility.yul\":5883:5998   */\n      swap4\n      pop\n        /* \"#utility.yul\":6022:6100   */\n      tag_255\n        /* \"#utility.yul\":6094:6099   */\n      dup4\n        /* \"#utility.yul\":6022:6100   */\n      tag_171\n      jump\t// in\n    tag_255:\n        /* \"#utility.yul\":6123:6130   */\n      dup1\n        /* \"#utility.yul\":6154:6155   */\n      0x00\n        /* \"#utility.yul\":6139:6489   */\n    tag_256:\n        /* \"#utility.yul\":6164:6170   */\n      dup4\n        /* \"#utility.yul\":6161:6162   */\n      dup2\n        /* \"#utility.yul\":6158:6171   */\n      lt\n        /* \"#utility.yul\":6139:6489   */\n      iszero\n      tag_258\n      jumpi\n        /* \"#utility.yul\":6240:6246   */\n      dup2\n        /* \"#utility.yul\":6234:6247   */\n      mload\n        /* \"#utility.yul\":6267:6374   */\n      tag_259\n        /* \"#utility.yul\":6370:6373   */\n      dup9\n        /* \"#utility.yul\":6355:6368   */\n      dup3\n        /* \"#utility.yul\":6267:6374   */\n      tag_175\n      jump\t// in\n    tag_259:\n        /* \"#utility.yul\":6260:6374   */\n      swap8\n      pop\n        /* \"#utility.yul\":6397:6479   */\n      tag_260\n        /* \"#utility.yul\":6472:6478   */\n      dup4\n        /* \"#utility.yul\":6397:6479   */\n      tag_176\n      jump\t// in\n    tag_260:\n        /* \"#utility.yul\":6387:6479   */\n      swap3\n      pop\n        /* \"#utility.yul\":6199:6489   */\n      pop\n        /* \"#utility.yul\":6186:6187   */\n      0x01\n        /* \"#utility.yul\":6183:6184   */\n      dup2\n        /* \"#utility.yul\":6179:6188   */\n      add\n        /* \"#utility.yul\":6174:6188   */\n      swap1\n      pop\n        /* \"#utility.yul\":6139:6489   */\n      jump(tag_256)\n    tag_258:\n        /* \"#utility.yul\":6143:6157   */\n      pop\n        /* \"#utility.yul\":6505:6508   */\n      dup6\n        /* \"#utility.yul\":6498:6508   */\n      swap4\n      pop\n        /* \"#utility.yul\":5774:6514   */\n      pop\n      pop\n      pop\n        /* \"#utility.yul\":5606:6514   */\n      swap3\n      swap2\n      pop\n      pop\n      jump\t// out\n        /* \"#utility.yul\":6520:6981   */\n    tag_80:\n        /* \"#utility.yul\":6707:6711   */\n      0x00\n        /* \"#utility.yul\":6745:6747   */\n      0x20\n        /* \"#utility.yul\":6734:6743   */\n      dup3\n        /* \"#utility.yul\":6730:6748   */\n      add\n        /* \"#utility.yul\":6722:6748   */\n      swap1\n      pop\n        /* \"#utility.yul\":6794:6803   */\n      dup2\n        /* \"#utility.yul\":6788:6792   */\n      dup2\n        /* \"#utility.yul\":6784:6804   */\n      sub\n        /* \"#utility.yul\":6780:6781   */\n      0x00\n        /* \"#utility.yul\":6769:6778   */\n      dup4\n        /* \"#utility.yul\":6765:6782   */\n      add\n        /* \"#utility.yul\":6758:6805   */\n      mstore\n        /* \"#utility.yul\":6822:6974   */\n      tag_262\n        /* \"#utility.yul\":6969:6973   */\n      dup2\n        /* \"#utility.yul\":6960:6966   */\n      dup5\n        /* \"#utility.yul\":6822:6974   */\n      tag_177\n      jump\t// in\n    tag_262:\n        /* \"#utility.yul\":6814:6974   */\n      swap1\n      pop\n        /* \"#utility.yul\":6520:6981   */\n      swap3\n      swap2\n      pop\n      pop\n      jump\t// out\n        /* \"#utility.yul\":6987:7156   */\n    tag_178:\n        /* \"#utility.yul\":7071:7082   */\n      0x00\n        /* \"#utility.yul\":7105:7111   */\n      dup3\n        /* \"#utility.yul\":7100:7103   */\n      dup3\n        /* \"#utility.yul\":7093:7112   */\n      mstore\n        /* \"#utility.yul\":7145:7149   */\n      0x20\n        /* \"#utility.yul\":7140:7143   */\n      dup3\n        /* \"#utility.yul\":7136:7150   */\n      add\n        /* \"#utility.yul\":7121:7150   */\n      swap1\n      pop\n        /* \"#utility.yul\":6987:7156   */\n      swap3\n      swap2\n      pop\n      pop\n      jump\t// out\n        /* \"#utility.yul\":7162:7325   */\n    tag_179:\n        /* \"#utility.yul\":7302:7317   */\n      0x4269642068617320656e64656400000000000000000000000000000000000000\n        /* \"#utility.yul\":7298:7299   */\n      0x00\n        /* \"#utility.yul\":7290:7296   */\n      dup3\n        /* \"#utility.yul\":7286:7300   */\n      add\n        /* \"#utility.yul\":7279:7318   */\n      mstore\n        /* \"#utility.yul\":7162:7325   */\n      pop\n      jump\t// out\n        /* \"#utility.yul\":7331:7697   */\n    tag_180:\n        /* \"#utility.yul\":7473:7476   */\n      0x00\n        /* \"#utility.yul\":7494:7561   */\n      tag_266\n        /* \"#utility.yul\":7558:7560   */\n      0x0d\n        /* \"#utility.yul\":7553:7556   */\n      dup4\n        /* \"#utility.yul\":7494:7561   */\n      tag_178\n      jump\t// in\n    tag_266:\n        /* \"#utility.yul\":7487:7561   */\n      swap2\n      pop\n        /* \"#utility.yul\":7570:7663   */\n      tag_267\n        /* \"#utility.yul\":7659:7662   */\n      dup3\n        /* \"#utility.yul\":7570:7663   */\n      tag_179\n      jump\t// in\n    tag_267:\n        /* \"#utility.yul\":7688:7690   */\n      0x20\n        /* \"#utility.yul\":7683:7686   */\n      dup3\n        /* \"#utility.yul\":7679:7691   */\n      add\n        /* \"#utility.yul\":7672:7691   */\n      swap1\n      pop\n        /* \"#utility.yul\":7331:7697   */\n      swap2\n      swap1\n      pop\n      jump\t// out\n        /* \"#utility.yul\":7703:8122   */\n    tag_88:\n        /* \"#utility.yul\":7869:7873   */\n      0x00\n        /* \"#utility.yul\":7907:7909   */\n      0x20\n        /* \"#utility.yul\":7896:7905   */\n      dup3\n        /* \"#utility.yul\":7892:7910   */\n      add\n        /* \"#utility.yul\":7884:7910   */\n      swap1\n      pop\n        /* \"#utility.yul\":7956:7965   */\n      dup2\n        /* \"#utility.yul\":7950:7954   */\n      dup2\n        /* \"#utility.yul\":7946:7966   */\n      sub\n        /* \"#utility.yul\":7942:7943   */\n      0x00\n        /* \"#utility.yul\":7931:7940   */\n      dup4\n        /* \"#utility.yul\":7927:7944   */\n      add\n        /* \"#utility.yul\":7920:7967   */\n      mstore\n        /* \"#utility.yul\":7984:8115   */\n      tag_269\n        /* \"#utility.yul\":8110:8114   */\n      dup2\n        /* \"#utility.yul\":7984:8115   */\n      tag_180\n      jump\t// in\n    tag_269:\n        /* \"#utility.yul\":7976:8115   */\n      swap1\n      pop\n        /* \"#utility.yul\":7703:8122   */\n      swap2\n      swap1\n      pop\n      jump\t// out\n        /* \"#utility.yul\":8128:8307   */\n    tag_181:\n        /* \"#utility.yul\":8268:8299   */\n      0x426964206d7573742062652067726561746572207468616e207a65726f000000\n        /* \"#utility.yul\":8264:8265   */\n      0x00\n        /* \"#utility.yul\":8256:8262   */\n      dup3\n        /* \"#utility.yul\":8252:8266   */\n      add\n        /* \"#utility.yul\":8245:8300   */\n      mstore\n        /* \"#utility.yul\":8128:8307   */\n      pop\n      jump\t// out\n        /* \"#utility.yul\":8313:8679   */\n    tag_182:\n        /* \"#utility.yul\":8455:8458   */\n      0x00\n        /* \"#utility.yul\":8476:8543   */\n      tag_272\n        /* \"#utility.yul\":8540:8542   */\n      0x1d\n        /* \"#utility.yul\":8535:8538   */\n      dup4\n        /* \"#utility.yul\":8476:8543   */\n      tag_178\n      jump\t// in\n    tag_272:\n        /* \"#utility.yul\":8469:8543   */\n      swap2\n      pop\n        /* \"#utility.yul\":8552:8645   */\n      tag_273\n        /* \"#utility.yul\":8641:8644   */\n      dup3\n        /* \"#utility.yul\":8552:8645   */\n      tag_181\n      jump\t// in\n    tag_273:\n        /* \"#utility.yul\":8670:8672   */\n      0x20\n        /* \"#utility.yul\":8665:8668   */\n      dup3\n        /* \"#utility.yul\":8661:8673   */\n      add\n        /* \"#utility.yul\":8654:8673   */\n      swap1\n      pop\n        /* \"#utility.yul\":8313:8679   */\n      swap2\n      swap1\n      pop\n      jump\t// out\n        /* \"#utility.yul\":8685:9104   */\n    tag_92:\n        /* \"#utility.yul\":8851:8855   */\n      0x00\n        /* \"#utility.yul\":8889:8891   */\n      0x20\n        /* \"#utility.yul\":8878:8887   */\n      dup3\n        /* \"#utility.yul\":8874:8892   */\n      add\n        /* \"#utility.yul\":8866:8892   */\n      swap1\n      pop\n        /* \"#utility.yul\":8938:8947   */\n      dup2\n        /* \"#utility.yul\":8932:8936   */\n      dup2\n        /* \"#utility.yul\":8928:8948   */\n      sub\n        /* \"#utility.yul\":8924:8925   */\n      0x00\n        /* \"#utility.yul\":8913:8922   */\n      dup4\n        /* \"#utility.yul\":8909:8926   */\n      add\n        /* \"#utility.yul\":8902:8949   */\n      mstore\n        /* \"#utility.yul\":8966:9097   */\n      tag_275\n        /* \"#utility.yul\":9092:9096   */\n      dup2\n        /* \"#utility.yul\":8966:9097   */\n      tag_182\n      jump\t// in\n    tag_275:\n        /* \"#utility.yul\":8958:9097   */\n      swap1\n      pop\n        /* \"#utility.yul\":8685:9104   */\n      swap2\n      swap1\n      pop\n      jump\t// out\n        /* \"#utility.yul\":9110:9290   */\n    tag_183:\n        /* \"#utility.yul\":9158:9235   */\n      0x4e487b7100000000000000000000000000000000000000000000000000000000\n        /* \"#utility.yul\":9155:9156   */\n      0x00\n        /* \"#utility.yul\":9148:9236   */\n      mstore\n        /* \"#utility.yul\":9255:9259   */\n      0x11\n        /* \"#utility.yul\":9252:9253   */\n      0x04\n        /* \"#utility.yul\":9245:9260   */\n      mstore\n        /* \"#utility.yul\":9279:9283   */\n      0x24\n        /* \"#utility.yul\":9276:9277   */\n      0x00\n        /* \"#utility.yul\":9269:9284   */\n      revert\n        /* \"#utility.yul\":9296:9487   */\n    tag_94:\n        /* \"#utility.yul\":9336:9339   */\n      0x00\n        /* \"#utility.yul\":9355:9375   */\n      tag_278\n        /* \"#utility.yul\":9373:9374   */\n      dup3\n        /* \"#utility.yul\":9355:9375   */\n      tag_155\n      jump\t// in\n    tag_278:\n        /* \"#utility.yul\":9350:9375   */\n      swap2\n      pop\n        /* \"#utility.yul\":9389:9409   */\n      tag_279\n        /* \"#utility.yul\":9407:9408   */\n      dup4\n        /* \"#utility.yul\":9389:9409   */\n      tag_155\n      jump\t// in\n    tag_279:\n        /* \"#utility.yul\":9384:9409   */\n      swap3\n      pop\n        /* \"#utility.yul\":9432:9433   */\n      dup3\n        /* \"#utility.yul\":9429:9430   */\n      dup3\n        /* \"#utility.yul\":9425:9434   */\n      add\n        /* \"#utility.yul\":9418:9434   */\n      swap1\n      pop\n        /* \"#utility.yul\":9453:9456   */\n      dup1\n        /* \"#utility.yul\":9450:9451   */\n      dup3\n        /* \"#utility.yul\":9447:9457   */\n      gt\n        /* \"#utility.yul\":9444:9480   */\n      iszero\n      tag_280\n      jumpi\n        /* \"#utility.yul\":9460:9478   */\n      tag_281\n      tag_183\n      jump\t// in\n    tag_281:\n        /* \"#utility.yul\":9444:9480   */\n    tag_280:\n        /* \"#utility.yul\":9296:9487   */\n      swap3\n      swap2\n      pop\n      pop\n      jump\t// out\n        /* \"#utility.yul\":9493:9903   */\n    tag_96:\n        /* \"#utility.yul\":9533:9540   */\n      0x00\n        /* \"#utility.yul\":9556:9576   */\n      tag_283\n        /* \"#utility.yul\":9574:9575   */\n      dup3\n        /* \"#utility.yul\":9556:9576   */\n      tag_155\n      jump\t// in\n    tag_283:\n        /* \"#utility.yul\":9551:9576   */\n      swap2\n      pop\n        /* \"#utility.yul\":9590:9610   */\n      tag_284\n        /* \"#utility.yul\":9608:9609   */\n      dup4\n        /* \"#utility.yul\":9590:9610   */\n      tag_155\n      jump\t// in\n    tag_284:\n        /* \"#utility.yul\":9585:9610   */\n      swap3\n      pop\n        /* \"#utility.yul\":9645:9646   */\n      dup3\n        /* \"#utility.yul\":9642:9643   */\n      dup3\n        /* \"#utility.yul\":9638:9647   */\n      mul\n        /* \"#utility.yul\":9667:9697   */\n      tag_285\n        /* \"#utility.yul\":9685:9696   */\n      dup2\n        /* \"#utility.yul\":9667:9697   */\n      tag_155\n      jump\t// in\n    tag_285:\n        /* \"#utility.yul\":9656:9697   */\n      swap2\n      pop\n        /* \"#utility.yul\":9846:9847   */\n      dup3\n        /* \"#utility.yul\":9837:9844   */\n      dup3\n        /* \"#utility.yul\":9833:9848   */\n      div\n        /* \"#utility.yul\":9830:9831   */\n      dup5\n        /* \"#utility.yul\":9827:9849   */\n      eq\n        /* \"#utility.yul\":9807:9808   */\n      dup4\n        /* \"#utility.yul\":9800:9809   */\n      iszero\n        /* \"#utility.yul\":9780:9863   */\n      or\n        /* \"#utility.yul\":9757:9896   */\n      tag_286\n      jumpi\n        /* \"#utility.yul\":9876:9894   */\n      tag_287\n      tag_183\n      jump\t// in\n    tag_287:\n        /* \"#utility.yul\":9757:9896   */\n    tag_286:\n        /* \"#utility.yul\":9541:9903   */\n      pop\n        /* \"#utility.yul\":9493:9903   */\n      swap3\n      swap2\n      pop\n      pop\n      jump\t// out\n        /* \"#utility.yul\":9909:10089   */\n    tag_184:\n        /* \"#utility.yul\":9957:10034   */\n      0x4e487b7100000000000000000000000000000000000000000000000000000000\n        /* \"#utility.yul\":9954:9955   */\n      0x00\n        /* \"#utility.yul\":9947:10035   */\n      mstore\n        /* \"#utility.yul\":10054:10058   */\n      0x12\n        /* \"#utility.yul\":10051:10052   */\n      0x04\n        /* \"#utility.yul\":10044:10059   */\n      mstore\n        /* \"#utility.yul\":10078:10082   */\n      0x24\n        /* \"#utility.yul\":10075:10076   */\n      0x00\n        /* \"#utility.yul\":10068:10083   */\n      revert\n        /* \"#utility.yul\":10095:10280   */\n    tag_98:\n        /* \"#utility.yul\":10135:10136   */\n      0x00\n        /* \"#utility.yul\":10152:10172   */\n      tag_290\n        /* \"#utility.yul\":10170:10171   */\n      dup3\n        /* \"#utility.yul\":10152:10172   */\n      tag_155\n      jump\t// in\n    tag_290:\n        /* \"#utility.yul\":10147:10172   */\n      swap2\n      pop\n        /* \"#utility.yul\":10186:10206   */\n      tag_291\n        /* \"#utility.yul\":10204:10205   */\n      dup4\n        /* \"#utility.yul\":10186:10206   */\n      tag_155\n      jump\t// in\n    tag_291:\n        /* \"#utility.yul\":10181:10206   */\n      swap3\n      pop\n        /* \"#utility.yul\":10225:10226   */\n      dup3\n        /* \"#utility.yul\":10215:10250   */\n      tag_292\n      jumpi\n        /* \"#utility.yul\":10230:10248   */\n      tag_293\n      tag_184\n      jump\t// in\n    tag_293:\n        /* \"#utility.yul\":10215:10250   */\n    tag_292:\n        /* \"#utility.yul\":10272:10273   */\n      dup3\n        /* \"#utility.yul\":10269:10270   */\n      dup3\n        /* \"#utility.yul\":10265:10274   */\n      div\n        /* \"#utility.yul\":10260:10274   */\n      swap1\n      pop\n        /* \"#utility.yul\":10095:10280   */\n      swap3\n      swap2\n      pop\n      pop\n      jump\t// out\n        /* \"#utility.yul\":10286:10468   */\n    tag_185:\n        /* \"#utility.yul\":10426:10460   */\n      0x4f66666572206d757374206265206174206c6561737420352520686967686572\n        /* \"#utility.yul\":10422:10423   */\n      0x00\n        /* \"#utility.yul\":10414:10420   */\n      dup3\n        /* \"#utility.yul\":10410:10424   */\n      add\n        /* \"#utility.yul\":10403:10461   */\n      mstore\n        /* \"#utility.yul\":10286:10468   */\n      pop\n      jump\t// out\n        /* \"#utility.yul\":10474:10840   */\n    tag_186:\n        /* \"#utility.yul\":10616:10619   */\n      0x00\n        /* \"#utility.yul\":10637:10704   */\n      tag_296\n        /* \"#utility.yul\":10701:10703   */\n      0x20\n        /* \"#utility.yul\":10696:10699   */\n      dup4\n        /* \"#utility.yul\":10637:10704   */\n      tag_178\n      jump\t// in\n    tag_296:\n        /* \"#utility.yul\":10630:10704   */\n      swap2\n      pop\n        /* \"#utility.yul\":10713:10806   */\n      tag_297\n        /* \"#utility.yul\":10802:10805   */\n      dup3\n        /* \"#utility.yul\":10713:10806   */\n      tag_185\n      jump\t// in\n    tag_297:\n        /* \"#utility.yul\":10831:10833   */\n      0x20\n        /* \"#utility.yul\":10826:10829   */\n      dup3\n        /* \"#utility.yul\":10822:10834   */\n      add\n        /* \"#utility.yul\":10815:10834   */\n      swap1\n      pop\n        /* \"#utility.yul\":10474:10840   */\n      swap2\n      swap1\n      pop\n      jump\t// out\n        /* \"#utility.yul\":10846:11265   */\n    tag_102:\n        /* \"#utility.yul\":11012:11016   */\n      0x00\n        /* \"#utility.yul\":11050:11052   */\n      0x20\n        /* \"#utility.yul\":11039:11048   */\n      dup3\n        /* \"#utility.yul\":11035:11053   */\n      add\n        /* \"#utility.yul\":11027:11053   */\n      swap1\n      pop\n        /* \"#utility.yul\":11099:11108   */\n      dup2\n        /* \"#utility.yul\":11093:11097   */\n      dup2\n        /* \"#utility.yul\":11089:11109   */\n      sub\n        /* \"#utility.yul\":11085:11086   */\n      0x00\n        /* \"#utility.yul\":11074:11083   */\n      dup4\n        /* \"#utility.yul\":11070:11087   */\n      add\n        /* \"#utility.yul\":11063:11110   */\n      mstore\n        /* \"#utility.yul\":11127:11258   */\n      tag_299\n        /* \"#utility.yul\":11253:11257   */\n      dup2\n        /* \"#utility.yul\":11127:11258   */\n      tag_186\n      jump\t// in\n    tag_299:\n        /* \"#utility.yul\":11119:11258   */\n      swap1\n      pop\n        /* \"#utility.yul\":10846:11265   */\n      swap2\n      swap1\n      pop\n      jump\t// out\n        /* \"#utility.yul\":11271:11603   */\n    tag_108:\n        /* \"#utility.yul\":11392:11396   */\n      0x00\n        /* \"#utility.yul\":11430:11432   */\n      0x40\n        /* \"#utility.yul\":11419:11428   */\n      dup3\n        /* \"#utility.yul\":11415:11433   */\n      add\n        /* \"#utility.yul\":11407:11433   */\n      swap1\n      pop\n        /* \"#utility.yul\":11443:11514   */\n      tag_301\n        /* \"#utility.yul\":11511:11512   */\n      0x00\n        /* \"#utility.yul\":11500:11509   */\n      dup4\n        /* \"#utility.yul\":11496:11513   */\n      add\n        /* \"#utility.yul\":11487:11493   */\n      dup6\n        /* \"#utility.yul\":11443:11514   */\n      tag_156\n      jump\t// in\n    tag_301:\n        /* \"#utility.yul\":11524:11596   */\n      tag_302\n        /* \"#utility.yul\":11592:11594   */\n      0x20\n        /* \"#utility.yul\":11581:11590   */\n      dup4\n        /* \"#utility.yul\":11577:11595   */\n      add\n        /* \"#utility.yul\":11568:11574   */\n      dup5\n        /* \"#utility.yul\":11524:11596   */\n      tag_156\n      jump\t// in\n    tag_302:\n        /* \"#utility.yul\":11271:11603   */\n      swap4\n      swap3\n      pop\n      pop\n      pop\n      jump\t// out\n        /* \"#utility.yul\":11609:11803   */\n    tag_110:\n        /* \"#utility.yul\":11649:11653   */\n      0x00\n        /* \"#utility.yul\":11669:11689   */\n      tag_304\n        /* \"#utility.yul\":11687:11688   */\n      dup3\n        /* \"#utility.yul\":11669:11689   */\n      tag_155\n      jump\t// in\n    tag_304:\n        /* \"#utility.yul\":11664:11689   */\n      swap2\n      pop\n        /* \"#utility.yul\":11703:11723   */\n      tag_305\n        /* \"#utility.yul\":11721:11722   */\n      dup4\n        /* \"#utility.yul\":11703:11723   */\n      tag_155\n      jump\t// in\n    tag_305:\n        /* \"#utility.yul\":11698:11723   */\n      swap3\n      pop\n        /* \"#utility.yul\":11747:11748   */\n      dup3\n        /* \"#utility.yul\":11744:11745   */\n      dup3\n        /* \"#utility.yul\":11740:11749   */\n      sub\n        /* \"#utility.yul\":11732:11749   */\n      swap1\n      pop\n        /* \"#utility.yul\":11771:11772   */\n      dup2\n        /* \"#utility.yul\":11765:11769   */\n      dup2\n        /* \"#utility.yul\":11762:11773   */\n      gt\n        /* \"#utility.yul\":11759:11796   */\n      iszero\n      tag_306\n      jumpi\n        /* \"#utility.yul\":11776:11794   */\n      tag_307\n      tag_183\n      jump\t// in\n    tag_307:\n        /* \"#utility.yul\":11759:11796   */\n    tag_306:\n        /* \"#utility.yul\":11609:11803   */\n      swap3\n      swap2\n      pop\n      pop\n      jump\t// out\n        /* \"#utility.yul\":11809:12029   */\n    tag_187:\n        /* \"#utility.yul\":11949:11983   */\n      0x54686973206665617475726520697320726573657276656420746f204f776e65\n        /* \"#utility.yul\":11945:11946   */\n      0x00\n        /* \"#utility.yul\":11937:11943   */\n      dup3\n        /* \"#utility.yul\":11933:11947   */\n      add\n        /* \"#utility.yul\":11926:11984   */\n      mstore\n        /* \"#utility.yul\":12018:12021   */\n      0x7200000000000000000000000000000000000000000000000000000000000000\n        /* \"#utility.yul\":12013:12015   */\n      0x20\n        /* \"#utility.yul\":12005:12011   */\n      dup3\n        /* \"#utility.yul\":12001:12016   */\n      add\n        /* \"#utility.yul\":11994:12022   */\n      mstore\n        /* \"#utility.yul\":11809:12029   */\n      pop\n      jump\t// out\n        /* \"#utility.yul\":12035:12401   */\n    tag_188:\n        /* \"#utility.yul\":12177:12180   */\n      0x00\n        /* \"#utility.yul\":12198:12265   */\n      tag_310\n        /* \"#utility.yul\":12262:12264   */\n      0x21\n        /* \"#utility.yul\":12257:12260   */\n      dup4\n        /* \"#utility.yul\":12198:12265   */\n      tag_178\n      jump\t// in\n    tag_310:\n        /* \"#utility.yul\":12191:12265   */\n      swap2\n      pop\n        /* \"#utility.yul\":12274:12367   */\n      tag_311\n        /* \"#utility.yul\":12363:12366   */\n      dup3\n        /* \"#utility.yul\":12274:12367   */\n      tag_187\n      jump\t// in\n    tag_311:\n        /* \"#utility.yul\":12392:12394   */\n      0x40\n        /* \"#utility.yul\":12387:12390   */\n      dup3\n        /* \"#utility.yul\":12383:12395   */\n      add\n        /* \"#utility.yul\":12376:12395   */\n      swap1\n      pop\n        /* \"#utility.yul\":12035:12401   */\n      swap2\n      swap1\n      pop\n      jump\t// out\n        /* \"#utility.yul\":12407:12826   */\n    tag_117:\n        /* \"#utility.yul\":12573:12577   */\n      0x00\n        /* \"#utility.yul\":12611:12613   */\n      0x20\n        /* \"#utility.yul\":12600:12609   */\n      dup3\n        /* \"#utility.yul\":12596:12614   */\n      add\n        /* \"#utility.yul\":12588:12614   */\n      swap1\n      pop\n        /* \"#utility.yul\":12660:12669   */\n      dup2\n        /* \"#utility.yul\":12654:12658   */\n      dup2\n        /* \"#utility.yul\":12650:12670   */\n      sub\n        /* \"#utility.yul\":12646:12647   */\n      0x00\n        /* \"#utility.yul\":12635:12644   */\n      dup4\n        /* \"#utility.yul\":12631:12648   */\n      add\n        /* \"#utility.yul\":12624:12671   */\n      mstore\n        /* \"#utility.yul\":12688:12819   */\n      tag_313\n        /* \"#utility.yul\":12814:12818   */\n      dup2\n        /* \"#utility.yul\":12688:12819   */\n      tag_188\n      jump\t// in\n    tag_313:\n        /* \"#utility.yul\":12680:12819   */\n      swap1\n      pop\n        /* \"#utility.yul\":12407:12826   */\n      swap2\n      swap1\n      pop\n      jump\t// out\n        /* \"#utility.yul\":12832:13010   */\n    tag_189:\n        /* \"#utility.yul\":12972:13002   */\n      0x4c6120737562617374612061756e206573746120656e20637572736f00000000\n        /* \"#utility.yul\":12968:12969   */\n      0x00\n        /* \"#utility.yul\":12960:12966   */\n      dup3\n        /* \"#utility.yul\":12956:12970   */\n      add\n        /* \"#utility.yul\":12949:13003   */\n      mstore\n        /* \"#utility.yul\":12832:13010   */\n      pop\n      jump\t// out\n        /* \"#utility.yul\":13016:13382   */\n    tag_190:\n        /* \"#utility.yul\":13158:13161   */\n      0x00\n        /* \"#utility.yul\":13179:13246   */\n      tag_316\n        /* \"#utility.yul\":13243:13245   */\n      0x1c\n        /* \"#utility.yul\":13238:13241   */\n      dup4\n        /* \"#utility.yul\":13179:13246   */\n      tag_178\n      jump\t// in\n    tag_316:\n        /* \"#utility.yul\":13172:13246   */\n      swap2\n      pop\n        /* \"#utility.yul\":13255:13348   */\n      tag_317\n        /* \"#utility.yul\":13344:13347   */\n      dup3\n        /* \"#utility.yul\":13255:13348   */\n      tag_189\n      jump\t// in\n    tag_317:\n        /* \"#utility.yul\":13373:13375   */\n      0x20\n        /* \"#utility.yul\":13368:13371   */\n      dup3\n        /* \"#utility.yul\":13364:13376   */\n      add\n        /* \"#utility.yul\":13357:13376   */\n      swap1\n      pop\n        /* \"#utility.yul\":13016:13382   */\n      swap2\n      swap1\n      pop\n      jump\t// out\n        /* \"#utility.yul\":13388:13807   */\n    tag_121:\n        /* \"#utility.yul\":13554:13558   */\n      0x00\n        /* \"#utility.yul\":13592:13594   */\n      0x20\n        /* \"#utility.yul\":13581:13590   */\n      dup3\n        /* \"#utility.yul\":13577:13595   */\n      add\n        /* \"#utility.yul\":13569:13595   */\n      swap1\n      pop\n        /* \"#utility.yul\":13641:13650   */\n      dup2\n        /* \"#utility.yul\":13635:13639   */\n      dup2\n        /* \"#utility.yul\":13631:13651   */\n      sub\n        /* \"#utility.yul\":13627:13628   */\n      0x00\n        /* \"#utility.yul\":13616:13625   */\n      dup4\n        /* \"#utility.yul\":13612:13629   */\n      add\n        /* \"#utility.yul\":13605:13652   */\n      mstore\n        /* \"#utility.yul\":13669:13800   */\n      tag_319\n        /* \"#utility.yul\":13795:13799   */\n      dup2\n        /* \"#utility.yul\":13669:13800   */\n      tag_190\n      jump\t// in\n    tag_319:\n        /* \"#utility.yul\":13661:13800   */\n      swap1\n      pop\n        /* \"#utility.yul\":13388:13807   */\n      swap2\n      swap1\n      pop\n      jump\t// out\n        /* \"#utility.yul\":13813:13993   */\n    tag_127:\n        /* \"#utility.yul\":13861:13938   */\n      0x4e487b7100000000000000000000000000000000000000000000000000000000\n        /* \"#utility.yul\":13858:13859   */\n      0x00\n        /* \"#utility.yul\":13851:13939   */\n      mstore\n        /* \"#utility.yul\":13958:13962   */\n      0x32\n        /* \"#utility.yul\":13955:13956   */\n      0x04\n        /* \"#utility.yul\":13948:13963   */\n      mstore\n        /* \"#utility.yul\":13982:13986   */\n      0x24\n        /* \"#utility.yul\":13979:13980   */\n      0x00\n        /* \"#utility.yul\":13972:13987   */\n      revert\n        /* \"#utility.yul\":13999:14175   */\n    tag_191:\n        /* \"#utility.yul\":14139:14167   */\n      0x4e6f207469656e6520737566696369656e74652065786365736f000000000000\n        /* \"#utility.yul\":14135:14136   */\n      0x00\n        /* \"#utility.yul\":14127:14133   */\n      dup3\n        /* \"#utility.yul\":14123:14137   */\n      add\n        /* \"#utility.yul\":14116:14168   */\n      mstore\n        /* \"#utility.yul\":13999:14175   */\n      pop\n      jump\t// out\n        /* \"#utility.yul\":14181:14547   */\n    tag_192:\n        /* \"#utility.yul\":14323:14326   */\n      0x00\n        /* \"#utility.yul\":14344:14411   */\n      tag_323\n        /* \"#utility.yul\":14408:14410   */\n      0x1a\n        /* \"#utility.yul\":14403:14406   */\n      dup4\n        /* \"#utility.yul\":14344:14411   */\n      tag_178\n      jump\t// in\n    tag_323:\n        /* \"#utility.yul\":14337:14411   */\n      swap2\n      pop\n        /* \"#utility.yul\":14420:14513   */\n      tag_324\n        /* \"#utility.yul\":14509:14512   */\n      dup3\n        /* \"#utility.yul\":14420:14513   */\n      tag_191\n      jump\t// in\n    tag_324:\n        /* \"#utility.yul\":14538:14540   */\n      0x20\n        /* \"#utility.yul\":14533:14536   */\n      dup3\n        /* \"#utility.yul\":14529:14541   */\n      add\n        /* \"#utility.yul\":14522:14541   */\n      swap1\n      pop\n        /* \"#utility.yul\":14181:14547   */\n      swap2\n      swap1\n      pop\n      jump\t// out\n        /* \"#utility.yul\":14553:14972   */\n    tag_147:\n        /* \"#utility.yul\":14719:14723   */\n      0x00\n        /* \"#utility.yul\":14757:14759   */\n      0x20\n        /* \"#utility.yul\":14746:14755   */\n      dup3\n        /* \"#utility.yul\":14742:14760   */\n      add\n        /* \"#utility.yul\":14734:14760   */\n      swap1\n      pop\n        /* \"#utility.yul\":14806:14815   */\n      dup2\n        /* \"#utility.yul\":14800:14804   */\n      dup2\n        /* \"#utility.yul\":14796:14816   */\n      sub\n        /* \"#utility.yul\":14792:14793   */\n      0x00\n        /* \"#utility.yul\":14781:14790   */\n      dup4\n        /* \"#utility.yul\":14777:14794   */\n      add\n        /* \"#utility.yul\":14770:14817   */\n      mstore\n        /* \"#utility.yul\":14834:14965   */\n      tag_326\n        /* \"#utility.yul\":14960:14964   */\n      dup2\n        /* \"#utility.yul\":14834:14965   */\n      tag_192\n      jump\t// in\n    tag_326:\n        /* \"#utility.yul\":14826:14965   */\n      swap1\n      pop\n        /* \"#utility.yul\":14553:14972   */\n      swap2\n      swap1\n      pop\n      jump\t// out\n\n    auxdata: 0xa26469706673582212208ffbada28c2131746dd1998b4672bce4d2e3f5fb65b94839aedb694451f8f3cd64736f6c634300081a0033\n}\n",
				"bytecode": {
					"linkReferences": {},
					"object": "608060405234801561000f575f80fd5b5060405161165b38038061165b833981810160405281019061003191906100cf565b335f806101000a81548173ffffffffffffffffffffffffffffffffffffffff021916908373ffffffffffffffffffffffffffffffffffffffff16021790555042600181905550806001546100859190610127565b6002819055505f6004819055505061015a565b5f80fd5b5f819050919050565b6100ae8161009c565b81146100b8575f80fd5b50565b5f815190506100c9816100a5565b92915050565b5f602082840312156100e4576100e3610098565b5b5f6100f1848285016100bb565b91505092915050565b7f4e487b71000000000000000000000000000000000000000000000000000000005f52601160045260245ffd5b5f6101318261009c565b915061013c8361009c565b9250828201905080821115610154576101536100fa565b5b92915050565b6114f4806101675f395ff3fe6080604052600436106100e7575f3560e01c80636d4d09d711610089578063b404e00111610058578063b404e0011461029f578063c1902319146102c9578063c442a99f146102df578063d57bde7914610309576100e7565b80636d4d09d7146101f6578063753dcaeb146102205780637bb44b831461024b57806391f9015714610275576100e7565b80634ba9a927116100c55780634ba9a927146101495780635298a3c41461017357806356afff7c1461017d57806365281d15146101ba576100e7565b806302bc22fc146100eb57806303fe7faa146101155780633ec059d71461013f575b5f80fd5b3480156100f6575f80fd5b506100ff610333565b60405161010c9190610dda565b60405180910390f35b348015610120575f80fd5b50610129610339565b6040516101369190610e32565b60405180910390f35b61014761035c565b005b348015610154575f80fd5b5061015d610790565b60405161016a9190610dda565b60405180910390f35b61017b610796565b005b348015610188575f80fd5b506101a3600480360381019061019e9190610e79565b610acd565b6040516101b1929190610ea4565b60405180910390f35b3480156101c5575f80fd5b506101e060048036038101906101db9190610f06565b610b1b565b6040516101ed9190610dda565b60405180910390f35b348015610201575f80fd5b5061020a610b30565b6040516102179190610dda565b60405180910390f35b34801561022b575f80fd5b50610234610b36565b604051610242929190610f40565b60405180910390f35b348015610256575f80fd5b5061025f610ba9565b60405161026c9190610dda565b60405180910390f35b348015610280575f80fd5b50610289610bae565b6040516102969190610f67565b60405180910390f35b3480156102aa575f80fd5b506102b3610bd3565b6040516102c09190610dda565b60405180910390f35b3480156102d4575f80fd5b506102dd610bd8565b005b3480156102ea575f80fd5b506102f3610d02565b6040516103009190611073565b60405180910390f35b348015610314575f80fd5b5061031d610dbc565b60405161032a9190610dda565b60405180910390f35b61025881565b5f8054906101000a900473ffffffffffffffffffffffffffffffffffffffff1681565b6002544211156103a1576040517f08c379a0000000000000000000000000000000000000000000000000000000008152600401610398906110ed565b60405180910390fd5b5f34116103e3576040517f08c379a00000000000000000000000000000000000000000000000000000000081526004016103da90611155565b60405180910390fd5b5f3460065f3373ffffffffffffffffffffffffffffffffffffffff1673ffffffffffffffffffffffffffffffffffffffff1681526020019081526020015f205461042d91906111a0565b90506064600560045461044091906111d3565b61044a9190611241565b60045461045791906111a0565b811015610499576040517f08c379a0000000000000000000000000000000000000000000000000000000008152600401610490906112bb565b60405180910390fd5b600560405180604001604052803373ffffffffffffffffffffffffffffffffffffffff16815260200183815250908060018154018082558091505060019003905f5260205f2090600202015f909190919091505f820151815f015f6101000a81548173ffffffffffffffffffffffffffffffffffffffff021916908373ffffffffffffffffffffffffffffffffffffffff1602179055506020820151816001015550505f60065f3373ffffffffffffffffffffffffffffffffffffffff1673ffffffffffffffffffffffffffffffffffffffff1681526020019081526020015f2054111561064a575f60065f3373ffffffffffffffffffffffffffffffffffffffff1673ffffffffffffffffffffffffffffffffffffffff1681526020019081526020015f205490505f60065f3373ffffffffffffffffffffffffffffffffffffffff1673ffffffffffffffffffffffffffffffffffffffff1681526020019081526020015f20819055503373ffffffffffffffffffffffffffffffffffffffff166108fc8290811502906040515f60405180830381858888f19350505050158015610647573d5f803e3d5ffd5b50505b3360035f6101000a81548173ffffffffffffffffffffffffffffffffffffffff021916908373ffffffffffffffffffffffffffffffffffffffff160217905550806004819055508060065f3373ffffffffffffffffffffffffffffffffffffffff1673ffffffffffffffffffffffffffffffffffffffff1681526020019081526020015f20819055503373ffffffffffffffffffffffffffffffffffffffff167fc0ee0120c42d2a25d2d9a3d40a59a7570ca25f0fa2f9fd6a8b885a761f0beefa824260405161071b9291906112d9565b60405180910390a26102586002546107339190611300565b421061078d5761025860025f82825461074c91906111a0565b925050819055507fd00df96ab7dbc2500d2727d4e26bfa8f37e005495bb12f2af6ba48952c742c176002546040516107849190610dda565b60405180910390a15b50565b60025481565b5f8054906101000a900473ffffffffffffffffffffffffffffffffffffffff1673ffffffffffffffffffffffffffffffffffffffff163373ffffffffffffffffffffffffffffffffffffffff1614610823576040517f08c379a000000000000000000000000000000000000000000000000000000000815260040161081a906113a3565b60405180910390fd5b6002544211610867576040517f08c379a000000000000000000000000000000000000000000000000000000000815260040161085e9061140b565b60405180910390fd5b5f5b600580549050811015610a6e575f6005828154811061088b5761088a611429565b5b905f5260205f2090600202015f015f9054906101000a900473ffffffffffffffffffffffffffffffffffffffff1690505f60065f8373ffffffffffffffffffffffffffffffffffffffff1673ffffffffffffffffffffffffffffffffffffffff1681526020019081526020015f2054905060035f9054906101000a900473ffffffffffffffffffffffffffffffffffffffff1673ffffffffffffffffffffffffffffffffffffffff168273ffffffffffffffffffffffffffffffffffffffff161415801561095857505f81115b15610a5f575f606460028361096d91906111d3565b6109779190611241565b90505f81836109869190611300565b90505f60065f8673ffffffffffffffffffffffffffffffffffffffff1673ffffffffffffffffffffffffffffffffffffffff1681526020019081526020015f20819055508373ffffffffffffffffffffffffffffffffffffffff166108fc8290811502906040515f60405180830381858888f19350505050158015610a0d573d5f803e3d5ffd5b508373ffffffffffffffffffffffffffffffffffffffff167fc10e1a954b8aadb1bccad4ac0748414b575923ae1fe13aefe1b068c06019d73f82604051610a549190610dda565b60405180910390a250505b50508080600101915050610869565b507fe3a2429a7985fd026b75a901911e3bee729e9f160f1b0e3a09596d891ed7e06f60035f9054906101000a900473ffffffffffffffffffffffffffffffffffffffff16600454604051610ac3929190610f40565b60405180910390a1565b60058181548110610adc575f80fd5b905f5260205f2090600202015f91509050805f015f9054906101000a900473ffffffffffffffffffffffffffffffffffffffff16908060010154905082565b6006602052805f5260405f205f915090505481565b60015481565b5f806002544211610b7c576040517f08c379a0000000000000000000000000000000000000000000000000000000008152600401610b739061140b565b60405180910390fd5b60035f9054906101000a900473ffffffffffffffffffffffffffffffffffffffff16600454915091509091565b600581565b60035f9054906101000a900473ffffffffffffffffffffffffffffffffffffffff1681565b600281565b5f60045460065f3373ffffffffffffffffffffffffffffffffffffffff1673ffffffffffffffffffffffffffffffffffffffff1681526020019081526020015f2054610c249190611300565b90505f8111610c68576040517f08c379a0000000000000000000000000000000000000000000000000000000008152600401610c5f906114a0565b60405180910390fd5b8060065f3373ffffffffffffffffffffffffffffffffffffffff1673ffffffffffffffffffffffffffffffffffffffff1681526020019081526020015f205f828254610cb49190611300565b925050819055503373ffffffffffffffffffffffffffffffffffffffff166108fc8290811502906040515f60405180830381858888f19350505050158015610cfe573d5f803e3d5ffd5b5050565b60606005805480602002602001604051908101604052809291908181526020015f905b82821015610db3578382905f5260205f2090600202016040518060400160405290815f82015f9054906101000a900473ffffffffffffffffffffffffffffffffffffffff1673ffffffffffffffffffffffffffffffffffffffff1673ffffffffffffffffffffffffffffffffffffffff16815260200160018201548152505081526020019060010190610d25565b50505050905090565b60045481565b5f819050919050565b610dd481610dc2565b82525050565b5f602082019050610ded5f830184610dcb565b92915050565b5f73ffffffffffffffffffffffffffffffffffffffff82169050919050565b5f610e1c82610df3565b9050919050565b610e2c81610e12565b82525050565b5f602082019050610e455f830184610e23565b92915050565b5f80fd5b610e5881610dc2565b8114610e62575f80fd5b50565b5f81359050610e7381610e4f565b92915050565b5f60208284031215610e8e57610e8d610e4b565b5b5f610e9b84828501610e65565b91505092915050565b5f604082019050610eb75f830185610e23565b610ec46020830184610dcb565b9392505050565b5f610ed582610df3565b9050919050565b610ee581610ecb565b8114610eef575f80fd5b50565b5f81359050610f0081610edc565b92915050565b5f60208284031215610f1b57610f1a610e4b565b5b5f610f2884828501610ef2565b91505092915050565b610f3a81610ecb565b82525050565b5f604082019050610f535f830185610f31565b610f606020830184610dcb565b9392505050565b5f602082019050610f7a5f830184610f31565b92915050565b5f81519050919050565b5f82825260208201905092915050565b5f819050602082019050919050565b610fb281610e12565b82525050565b610fc181610dc2565b82525050565b604082015f820151610fdb5f850182610fa9565b506020820151610fee6020850182610fb8565b50505050565b5f610fff8383610fc7565b60408301905092915050565b5f602082019050919050565b5f61102182610f80565b61102b8185610f8a565b935061103683610f9a565b805f5b8381101561106657815161104d8882610ff4565b97506110588361100b565b925050600181019050611039565b5085935050505092915050565b5f6020820190508181035f83015261108b8184611017565b905092915050565b5f82825260208201905092915050565b7f4269642068617320656e646564000000000000000000000000000000000000005f82015250565b5f6110d7600d83611093565b91506110e2826110a3565b602082019050919050565b5f6020820190508181035f830152611104816110cb565b9050919050565b7f426964206d7573742062652067726561746572207468616e207a65726f0000005f82015250565b5f61113f601d83611093565b915061114a8261110b565b602082019050919050565b5f6020820190508181035f83015261116c81611133565b9050919050565b7f4e487b71000000000000000000000000000000000000000000000000000000005f52601160045260245ffd5b5f6111aa82610dc2565b91506111b583610dc2565b92508282019050808211156111cd576111cc611173565b5b92915050565b5f6111dd82610dc2565b91506111e883610dc2565b92508282026111f681610dc2565b9150828204841483151761120d5761120c611173565b5b5092915050565b7f4e487b71000000000000000000000000000000000000000000000000000000005f52601260045260245ffd5b5f61124b82610dc2565b915061125683610dc2565b92508261126657611265611214565b5b828204905092915050565b7f4f66666572206d757374206265206174206c65617374203525206869676865725f82015250565b5f6112a5602083611093565b91506112b082611271565b602082019050919050565b5f6020820190508181035f8301526112d281611299565b9050919050565b5f6040820190506112ec5f830185610dcb565b6112f96020830184610dcb565b9392505050565b5f61130a82610dc2565b915061131583610dc2565b925082820390508181111561132d5761132c611173565b5b92915050565b7f54686973206665617475726520697320726573657276656420746f204f776e655f8201527f7200000000000000000000000000000000000000000000000000000000000000602082015250565b5f61138d602183611093565b915061139882611333565b604082019050919050565b5f6020820190508181035f8301526113ba81611381565b9050919050565b7f4c6120737562617374612061756e206573746120656e20637572736f000000005f82015250565b5f6113f5601c83611093565b9150611400826113c1565b602082019050919050565b5f6020820190508181035f830152611422816113e9565b9050919050565b7f4e487b71000000000000000000000000000000000000000000000000000000005f52603260045260245ffd5b7f4e6f207469656e6520737566696369656e74652065786365736f0000000000005f82015250565b5f61148a601a83611093565b915061149582611456565b602082019050919050565b5f6020820190508181035f8301526114b78161147e565b905091905056fea26469706673582212208ffbada28c2131746dd1998b4672bce4d2e3f5fb65b94839aedb694451f8f3cd64736f6c634300081a0033",
					"opcodes": "PUSH1 0x80 PUSH1 0x40 MSTORE CALLVALUE DUP1 ISZERO PUSH2 0xF JUMPI PUSH0 DUP1 REVERT JUMPDEST POP PUSH1 0x40 MLOAD PUSH2 0x165B CODESIZE SUB DUP1 PUSH2 0x165B DUP4 CODECOPY DUP2 DUP2 ADD PUSH1 0x40 MSTORE DUP2 ADD SWAP1 PUSH2 0x31 SWAP2 SWAP1 PUSH2 0xCF JUMP JUMPDEST CALLER PUSH0 DUP1 PUSH2 0x100 EXP DUP2 SLOAD DUP2 PUSH20 0xFFFFFFFFFFFFFFFFFFFFFFFFFFFFFFFFFFFFFFFF MUL NOT AND SWAP1 DUP4 PUSH20 0xFFFFFFFFFFFFFFFFFFFFFFFFFFFFFFFFFFFFFFFF AND MUL OR SWAP1 SSTORE POP TIMESTAMP PUSH1 0x1 DUP2 SWAP1 SSTORE POP DUP1 PUSH1 0x1 SLOAD PUSH2 0x85 SWAP2 SWAP1 PUSH2 0x127 JUMP JUMPDEST PUSH1 0x2 DUP2 SWAP1 SSTORE POP PUSH0 PUSH1 0x4 DUP2 SWAP1 SSTORE POP POP PUSH2 0x15A JUMP JUMPDEST PUSH0 DUP1 REVERT JUMPDEST PUSH0 DUP2 SWAP1 POP SWAP2 SWAP1 POP JUMP JUMPDEST PUSH2 0xAE DUP2 PUSH2 0x9C JUMP JUMPDEST DUP2 EQ PUSH2 0xB8 JUMPI PUSH0 DUP1 REVERT JUMPDEST POP JUMP JUMPDEST PUSH0 DUP2 MLOAD SWAP1 POP PUSH2 0xC9 DUP2 PUSH2 0xA5 JUMP JUMPDEST SWAP3 SWAP2 POP POP JUMP JUMPDEST PUSH0 PUSH1 0x20 DUP3 DUP5 SUB SLT ISZERO PUSH2 0xE4 JUMPI PUSH2 0xE3 PUSH2 0x98 JUMP JUMPDEST JUMPDEST PUSH0 PUSH2 0xF1 DUP5 DUP3 DUP6 ADD PUSH2 0xBB JUMP JUMPDEST SWAP2 POP POP SWAP3 SWAP2 POP POP JUMP JUMPDEST PUSH32 0x4E487B7100000000000000000000000000000000000000000000000000000000 PUSH0 MSTORE PUSH1 0x11 PUSH1 0x4 MSTORE PUSH1 0x24 PUSH0 REVERT JUMPDEST PUSH0 PUSH2 0x131 DUP3 PUSH2 0x9C JUMP JUMPDEST SWAP2 POP PUSH2 0x13C DUP4 PUSH2 0x9C JUMP JUMPDEST SWAP3 POP DUP3 DUP3 ADD SWAP1 POP DUP1 DUP3 GT ISZERO PUSH2 0x154 JUMPI PUSH2 0x153 PUSH2 0xFA JUMP JUMPDEST JUMPDEST SWAP3 SWAP2 POP POP JUMP JUMPDEST PUSH2 0x14F4 DUP1 PUSH2 0x167 PUSH0 CODECOPY PUSH0 RETURN INVALID PUSH1 0x80 PUSH1 0x40 MSTORE PUSH1 0x4 CALLDATASIZE LT PUSH2 0xE7 JUMPI PUSH0 CALLDATALOAD PUSH1 0xE0 SHR DUP1 PUSH4 0x6D4D09D7 GT PUSH2 0x89 JUMPI DUP1 PUSH4 0xB404E001 GT PUSH2 0x58 JUMPI DUP1 PUSH4 0xB404E001 EQ PUSH2 0x29F JUMPI DUP1 PUSH4 0xC1902319 EQ PUSH2 0x2C9 JUMPI DUP1 PUSH4 0xC442A99F EQ PUSH2 0x2DF JUMPI DUP1 PUSH4 0xD57BDE79 EQ PUSH2 0x309 JUMPI PUSH2 0xE7 JUMP JUMPDEST DUP1 PUSH4 0x6D4D09D7 EQ PUSH2 0x1F6 JUMPI DUP1 PUSH4 0x753DCAEB EQ PUSH2 0x220 JUMPI DUP1 PUSH4 0x7BB44B83 EQ PUSH2 0x24B JUMPI DUP1 PUSH4 0x91F90157 EQ PUSH2 0x275 JUMPI PUSH2 0xE7 JUMP JUMPDEST DUP1 PUSH4 0x4BA9A927 GT PUSH2 0xC5 JUMPI DUP1 PUSH4 0x4BA9A927 EQ PUSH2 0x149 JUMPI DUP1 PUSH4 0x5298A3C4 EQ PUSH2 0x173 JUMPI DUP1 PUSH4 0x56AFFF7C EQ PUSH2 0x17D JUMPI DUP1 PUSH4 0x65281D15 EQ PUSH2 0x1BA JUMPI PUSH2 0xE7 JUMP JUMPDEST DUP1 PUSH4 0x2BC22FC EQ PUSH2 0xEB JUMPI DUP1 PUSH4 0x3FE7FAA EQ PUSH2 0x115 JUMPI DUP1 PUSH4 0x3EC059D7 EQ PUSH2 0x13F JUMPI JUMPDEST PUSH0 DUP1 REVERT JUMPDEST CALLVALUE DUP1 ISZERO PUSH2 0xF6 JUMPI PUSH0 DUP1 REVERT JUMPDEST POP PUSH2 0xFF PUSH2 0x333 JUMP JUMPDEST PUSH1 0x40 MLOAD PUSH2 0x10C SWAP2 SWAP1 PUSH2 0xDDA JUMP JUMPDEST PUSH1 0x40 MLOAD DUP1 SWAP2 SUB SWAP1 RETURN JUMPDEST CALLVALUE DUP1 ISZERO PUSH2 0x120 JUMPI PUSH0 DUP1 REVERT JUMPDEST POP PUSH2 0x129 PUSH2 0x339 JUMP JUMPDEST PUSH1 0x40 MLOAD PUSH2 0x136 SWAP2 SWAP1 PUSH2 0xE32 JUMP JUMPDEST PUSH1 0x40 MLOAD DUP1 SWAP2 SUB SWAP1 RETURN JUMPDEST PUSH2 0x147 PUSH2 0x35C JUMP JUMPDEST STOP JUMPDEST CALLVALUE DUP1 ISZERO PUSH2 0x154 JUMPI PUSH0 DUP1 REVERT JUMPDEST POP PUSH2 0x15D PUSH2 0x790 JUMP JUMPDEST PUSH1 0x40 MLOAD PUSH2 0x16A SWAP2 SWAP1 PUSH2 0xDDA JUMP JUMPDEST PUSH1 0x40 MLOAD DUP1 SWAP2 SUB SWAP1 RETURN JUMPDEST PUSH2 0x17B PUSH2 0x796 JUMP JUMPDEST STOP JUMPDEST CALLVALUE DUP1 ISZERO PUSH2 0x188 JUMPI PUSH0 DUP1 REVERT JUMPDEST POP PUSH2 0x1A3 PUSH1 0x4 DUP1 CALLDATASIZE SUB DUP2 ADD SWAP1 PUSH2 0x19E SWAP2 SWAP1 PUSH2 0xE79 JUMP JUMPDEST PUSH2 0xACD JUMP JUMPDEST PUSH1 0x40 MLOAD PUSH2 0x1B1 SWAP3 SWAP2 SWAP1 PUSH2 0xEA4 JUMP JUMPDEST PUSH1 0x40 MLOAD DUP1 SWAP2 SUB SWAP1 RETURN JUMPDEST CALLVALUE DUP1 ISZERO PUSH2 0x1C5 JUMPI PUSH0 DUP1 REVERT JUMPDEST POP PUSH2 0x1E0 PUSH1 0x4 DUP1 CALLDATASIZE SUB DUP2 ADD SWAP1 PUSH2 0x1DB SWAP2 SWAP1 PUSH2 0xF06 JUMP JUMPDEST PUSH2 0xB1B JUMP JUMPDEST PUSH1 0x40 MLOAD PUSH2 0x1ED SWAP2 SWAP1 PUSH2 0xDDA JUMP JUMPDEST PUSH1 0x40 MLOAD DUP1 SWAP2 SUB SWAP1 RETURN JUMPDEST CALLVALUE DUP1 ISZERO PUSH2 0x201 JUMPI PUSH0 DUP1 REVERT JUMPDEST POP PUSH2 0x20A PUSH2 0xB30 JUMP JUMPDEST PUSH1 0x40 MLOAD PUSH2 0x217 SWAP2 SWAP1 PUSH2 0xDDA JUMP JUMPDEST PUSH1 0x40 MLOAD DUP1 SWAP2 SUB SWAP1 RETURN JUMPDEST CALLVALUE DUP1 ISZERO PUSH2 0x22B JUMPI PUSH0 DUP1 REVERT JUMPDEST POP PUSH2 0x234 PUSH2 0xB36 JUMP JUMPDEST PUSH1 0x40 MLOAD PUSH2 0x242 SWAP3 SWAP2 SWAP1 PUSH2 0xF40 JUMP JUMPDEST PUSH1 0x40 MLOAD DUP1 SWAP2 SUB SWAP1 RETURN JUMPDEST CALLVALUE DUP1 ISZERO PUSH2 0x256 JUMPI PUSH0 DUP1 REVERT JUMPDEST POP PUSH2 0x25F PUSH2 0xBA9 JUMP JUMPDEST PUSH1 0x40 MLOAD PUSH2 0x26C SWAP2 SWAP1 PUSH2 0xDDA JUMP JUMPDEST PUSH1 0x40 MLOAD DUP1 SWAP2 SUB SWAP1 RETURN JUMPDEST CALLVALUE DUP1 ISZERO PUSH2 0x280 JUMPI PUSH0 DUP1 REVERT JUMPDEST POP PUSH2 0x289 PUSH2 0xBAE JUMP JUMPDEST PUSH1 0x40 MLOAD PUSH2 0x296 SWAP2 SWAP1 PUSH2 0xF67 JUMP JUMPDEST PUSH1 0x40 MLOAD DUP1 SWAP2 SUB SWAP1 RETURN JUMPDEST CALLVALUE DUP1 ISZERO PUSH2 0x2AA JUMPI PUSH0 DUP1 REVERT JUMPDEST POP PUSH2 0x2B3 PUSH2 0xBD3 JUMP JUMPDEST PUSH1 0x40 MLOAD PUSH2 0x2C0 SWAP2 SWAP1 PUSH2 0xDDA JUMP JUMPDEST PUSH1 0x40 MLOAD DUP1 SWAP2 SUB SWAP1 RETURN JUMPDEST CALLVALUE DUP1 ISZERO PUSH2 0x2D4 JUMPI PUSH0 DUP1 REVERT JUMPDEST POP PUSH2 0x2DD PUSH2 0xBD8 JUMP JUMPDEST STOP JUMPDEST CALLVALUE DUP1 ISZERO PUSH2 0x2EA JUMPI PUSH0 DUP1 REVERT JUMPDEST POP PUSH2 0x2F3 PUSH2 0xD02 JUMP JUMPDEST PUSH1 0x40 MLOAD PUSH2 0x300 SWAP2 SWAP1 PUSH2 0x1073 JUMP JUMPDEST PUSH1 0x40 MLOAD DUP1 SWAP2 SUB SWAP1 RETURN JUMPDEST CALLVALUE DUP1 ISZERO PUSH2 0x314 JUMPI PUSH0 DUP1 REVERT JUMPDEST POP PUSH2 0x31D PUSH2 0xDBC JUMP JUMPDEST PUSH1 0x40 MLOAD PUSH2 0x32A SWAP2 SWAP1 PUSH2 0xDDA JUMP JUMPDEST PUSH1 0x40 MLOAD DUP1 SWAP2 SUB SWAP1 RETURN JUMPDEST PUSH2 0x258 DUP2 JUMP JUMPDEST PUSH0 DUP1 SLOAD SWAP1 PUSH2 0x100 EXP SWAP1 DIV PUSH20 0xFFFFFFFFFFFFFFFFFFFFFFFFFFFFFFFFFFFFFFFF AND DUP2 JUMP JUMPDEST PUSH1 0x2 SLOAD TIMESTAMP GT ISZERO PUSH2 0x3A1 JUMPI PUSH1 0x40 MLOAD PUSH32 0x8C379A000000000000000000000000000000000000000000000000000000000 DUP2 MSTORE PUSH1 0x4 ADD PUSH2 0x398 SWAP1 PUSH2 0x10ED JUMP JUMPDEST PUSH1 0x40 MLOAD DUP1 SWAP2 SUB SWAP1 REVERT JUMPDEST PUSH0 CALLVALUE GT PUSH2 0x3E3 JUMPI PUSH1 0x40 MLOAD PUSH32 0x8C379A000000000000000000000000000000000000000000000000000000000 DUP2 MSTORE PUSH1 0x4 ADD PUSH2 0x3DA SWAP1 PUSH2 0x1155 JUMP JUMPDEST PUSH1 0x40 MLOAD DUP1 SWAP2 SUB SWAP1 REVERT JUMPDEST PUSH0 CALLVALUE PUSH1 0x6 PUSH0 CALLER PUSH20 0xFFFFFFFFFFFFFFFFFFFFFFFFFFFFFFFFFFFFFFFF AND PUSH20 0xFFFFFFFFFFFFFFFFFFFFFFFFFFFFFFFFFFFFFFFF AND DUP2 MSTORE PUSH1 0x20 ADD SWAP1 DUP2 MSTORE PUSH1 0x20 ADD PUSH0 KECCAK256 SLOAD PUSH2 0x42D SWAP2 SWAP1 PUSH2 0x11A0 JUMP JUMPDEST SWAP1 POP PUSH1 0x64 PUSH1 0x5 PUSH1 0x4 SLOAD PUSH2 0x440 SWAP2 SWAP1 PUSH2 0x11D3 JUMP JUMPDEST PUSH2 0x44A SWAP2 SWAP1 PUSH2 0x1241 JUMP JUMPDEST PUSH1 0x4 SLOAD PUSH2 0x457 SWAP2 SWAP1 PUSH2 0x11A0 JUMP JUMPDEST DUP2 LT ISZERO PUSH2 0x499 JUMPI PUSH1 0x40 MLOAD PUSH32 0x8C379A000000000000000000000000000000000000000000000000000000000 DUP2 MSTORE PUSH1 0x4 ADD PUSH2 0x490 SWAP1 PUSH2 0x12BB JUMP JUMPDEST PUSH1 0x40 MLOAD DUP1 SWAP2 SUB SWAP1 REVERT JUMPDEST PUSH1 0x5 PUSH1 0x40 MLOAD DUP1 PUSH1 0x40 ADD PUSH1 0x40 MSTORE DUP1 CALLER PUSH20 0xFFFFFFFFFFFFFFFFFFFFFFFFFFFFFFFFFFFFFFFF AND DUP2 MSTORE PUSH1 0x20 ADD DUP4 DUP2 MSTORE POP SWAP1 DUP1 PUSH1 0x1 DUP2 SLOAD ADD DUP1 DUP3 SSTORE DUP1 SWAP2 POP POP PUSH1 0x1 SWAP1 SUB SWAP1 PUSH0 MSTORE PUSH1 0x20 PUSH0 KECCAK256 SWAP1 PUSH1 0x2 MUL ADD PUSH0 SWAP1 SWAP2 SWAP1 SWAP2 SWAP1 SWAP2 POP PUSH0 DUP3 ADD MLOAD DUP2 PUSH0 ADD PUSH0 PUSH2 0x100 EXP DUP2 SLOAD DUP2 PUSH20 0xFFFFFFFFFFFFFFFFFFFFFFFFFFFFFFFFFFFFFFFF MUL NOT AND SWAP1 DUP4 PUSH20 0xFFFFFFFFFFFFFFFFFFFFFFFFFFFFFFFFFFFFFFFF AND MUL OR SWAP1 SSTORE POP PUSH1 0x20 DUP3 ADD MLOAD DUP2 PUSH1 0x1 ADD SSTORE POP POP PUSH0 PUSH1 0x6 PUSH0 CALLER PUSH20 0xFFFFFFFFFFFFFFFFFFFFFFFFFFFFFFFFFFFFFFFF AND PUSH20 0xFFFFFFFFFFFFFFFFFFFFFFFFFFFFFFFFFFFFFFFF AND DUP2 MSTORE PUSH1 0x20 ADD SWAP1 DUP2 MSTORE PUSH1 0x20 ADD PUSH0 KECCAK256 SLOAD GT ISZERO PUSH2 0x64A JUMPI PUSH0 PUSH1 0x6 PUSH0 CALLER PUSH20 0xFFFFFFFFFFFFFFFFFFFFFFFFFFFFFFFFFFFFFFFF AND PUSH20 0xFFFFFFFFFFFFFFFFFFFFFFFFFFFFFFFFFFFFFFFF AND DUP2 MSTORE PUSH1 0x20 ADD SWAP1 DUP2 MSTORE PUSH1 0x20 ADD PUSH0 KECCAK256 SLOAD SWAP1 POP PUSH0 PUSH1 0x6 PUSH0 CALLER PUSH20 0xFFFFFFFFFFFFFFFFFFFFFFFFFFFFFFFFFFFFFFFF AND PUSH20 0xFFFFFFFFFFFFFFFFFFFFFFFFFFFFFFFFFFFFFFFF AND DUP2 MSTORE PUSH1 0x20 ADD SWAP1 DUP2 MSTORE PUSH1 0x20 ADD PUSH0 KECCAK256 DUP2 SWAP1 SSTORE POP CALLER PUSH20 0xFFFFFFFFFFFFFFFFFFFFFFFFFFFFFFFFFFFFFFFF AND PUSH2 0x8FC DUP3 SWAP1 DUP2 ISZERO MUL SWAP1 PUSH1 0x40 MLOAD PUSH0 PUSH1 0x40 MLOAD DUP1 DUP4 SUB DUP2 DUP6 DUP9 DUP9 CALL SWAP4 POP POP POP POP ISZERO DUP1 ISZERO PUSH2 0x647 JUMPI RETURNDATASIZE PUSH0 DUP1 RETURNDATACOPY RETURNDATASIZE PUSH0 REVERT JUMPDEST POP POP JUMPDEST CALLER PUSH1 0x3 PUSH0 PUSH2 0x100 EXP DUP2 SLOAD DUP2 PUSH20 0xFFFFFFFFFFFFFFFFFFFFFFFFFFFFFFFFFFFFFFFF MUL NOT AND SWAP1 DUP4 PUSH20 0xFFFFFFFFFFFFFFFFFFFFFFFFFFFFFFFFFFFFFFFF AND MUL OR SWAP1 SSTORE POP DUP1 PUSH1 0x4 DUP2 SWAP1 SSTORE POP DUP1 PUSH1 0x6 PUSH0 CALLER PUSH20 0xFFFFFFFFFFFFFFFFFFFFFFFFFFFFFFFFFFFFFFFF AND PUSH20 0xFFFFFFFFFFFFFFFFFFFFFFFFFFFFFFFFFFFFFFFF AND DUP2 MSTORE PUSH1 0x20 ADD SWAP1 DUP2 MSTORE PUSH1 0x20 ADD PUSH0 KECCAK256 DUP2 SWAP1 SSTORE POP CALLER PUSH20 0xFFFFFFFFFFFFFFFFFFFFFFFFFFFFFFFFFFFFFFFF AND PUSH32 0xC0EE0120C42D2A25D2D9A3D40A59A7570CA25F0FA2F9FD6A8B885A761F0BEEFA DUP3 TIMESTAMP PUSH1 0x40 MLOAD PUSH2 0x71B SWAP3 SWAP2 SWAP1 PUSH2 0x12D9 JUMP JUMPDEST PUSH1 0x40 MLOAD DUP1 SWAP2 SUB SWAP1 LOG2 PUSH2 0x258 PUSH1 0x2 SLOAD PUSH2 0x733 SWAP2 SWAP1 PUSH2 0x1300 JUMP JUMPDEST TIMESTAMP LT PUSH2 0x78D JUMPI PUSH2 0x258 PUSH1 0x2 PUSH0 DUP3 DUP3 SLOAD PUSH2 0x74C SWAP2 SWAP1 PUSH2 0x11A0 JUMP JUMPDEST SWAP3 POP POP DUP2 SWAP1 SSTORE POP PUSH32 0xD00DF96AB7DBC2500D2727D4E26BFA8F37E005495BB12F2AF6BA48952C742C17 PUSH1 0x2 SLOAD PUSH1 0x40 MLOAD PUSH2 0x784 SWAP2 SWAP1 PUSH2 0xDDA JUMP JUMPDEST PUSH1 0x40 MLOAD DUP1 SWAP2 SUB SWAP1 LOG1 JUMPDEST POP JUMP JUMPDEST PUSH1 0x2 SLOAD DUP2 JUMP JUMPDEST PUSH0 DUP1 SLOAD SWAP1 PUSH2 0x100 EXP SWAP1 DIV PUSH20 0xFFFFFFFFFFFFFFFFFFFFFFFFFFFFFFFFFFFFFFFF AND PUSH20 0xFFFFFFFFFFFFFFFFFFFFFFFFFFFFFFFFFFFFFFFF AND CALLER PUSH20 0xFFFFFFFFFFFFFFFFFFFFFFFFFFFFFFFFFFFFFFFF AND EQ PUSH2 0x823 JUMPI PUSH1 0x40 MLOAD PUSH32 0x8C379A000000000000000000000000000000000000000000000000000000000 DUP2 MSTORE PUSH1 0x4 ADD PUSH2 0x81A SWAP1 PUSH2 0x13A3 JUMP JUMPDEST PUSH1 0x40 MLOAD DUP1 SWAP2 SUB SWAP1 REVERT JUMPDEST PUSH1 0x2 SLOAD TIMESTAMP GT PUSH2 0x867 JUMPI PUSH1 0x40 MLOAD PUSH32 0x8C379A000000000000000000000000000000000000000000000000000000000 DUP2 MSTORE PUSH1 0x4 ADD PUSH2 0x85E SWAP1 PUSH2 0x140B JUMP JUMPDEST PUSH1 0x40 MLOAD DUP1 SWAP2 SUB SWAP1 REVERT JUMPDEST PUSH0 JUMPDEST PUSH1 0x5 DUP1 SLOAD SWAP1 POP DUP2 LT ISZERO PUSH2 0xA6E JUMPI PUSH0 PUSH1 0x5 DUP3 DUP2 SLOAD DUP2 LT PUSH2 0x88B JUMPI PUSH2 0x88A PUSH2 0x1429 JUMP JUMPDEST JUMPDEST SWAP1 PUSH0 MSTORE PUSH1 0x20 PUSH0 KECCAK256 SWAP1 PUSH1 0x2 MUL ADD PUSH0 ADD PUSH0 SWAP1 SLOAD SWAP1 PUSH2 0x100 EXP SWAP1 DIV PUSH20 0xFFFFFFFFFFFFFFFFFFFFFFFFFFFFFFFFFFFFFFFF AND SWAP1 POP PUSH0 PUSH1 0x6 PUSH0 DUP4 PUSH20 0xFFFFFFFFFFFFFFFFFFFFFFFFFFFFFFFFFFFFFFFF AND PUSH20 0xFFFFFFFFFFFFFFFFFFFFFFFFFFFFFFFFFFFFFFFF AND DUP2 MSTORE PUSH1 0x20 ADD SWAP1 DUP2 MSTORE PUSH1 0x20 ADD PUSH0 KECCAK256 SLOAD SWAP1 POP PUSH1 0x3 PUSH0 SWAP1 SLOAD SWAP1 PUSH2 0x100 EXP SWAP1 DIV PUSH20 0xFFFFFFFFFFFFFFFFFFFFFFFFFFFFFFFFFFFFFFFF AND PUSH20 0xFFFFFFFFFFFFFFFFFFFFFFFFFFFFFFFFFFFFFFFF AND DUP3 PUSH20 0xFFFFFFFFFFFFFFFFFFFFFFFFFFFFFFFFFFFFFFFF AND EQ ISZERO DUP1 ISZERO PUSH2 0x958 JUMPI POP PUSH0 DUP2 GT JUMPDEST ISZERO PUSH2 0xA5F JUMPI PUSH0 PUSH1 0x64 PUSH1 0x2 DUP4 PUSH2 0x96D SWAP2 SWAP1 PUSH2 0x11D3 JUMP JUMPDEST PUSH2 0x977 SWAP2 SWAP1 PUSH2 0x1241 JUMP JUMPDEST SWAP1 POP PUSH0 DUP2 DUP4 PUSH2 0x986 SWAP2 SWAP1 PUSH2 0x1300 JUMP JUMPDEST SWAP1 POP PUSH0 PUSH1 0x6 PUSH0 DUP7 PUSH20 0xFFFFFFFFFFFFFFFFFFFFFFFFFFFFFFFFFFFFFFFF AND PUSH20 0xFFFFFFFFFFFFFFFFFFFFFFFFFFFFFFFFFFFFFFFF AND DUP2 MSTORE PUSH1 0x20 ADD SWAP1 DUP2 MSTORE PUSH1 0x20 ADD PUSH0 KECCAK256 DUP2 SWAP1 SSTORE POP DUP4 PUSH20 0xFFFFFFFFFFFFFFFFFFFFFFFFFFFFFFFFFFFFFFFF AND PUSH2 0x8FC DUP3 SWAP1 DUP2 ISZERO MUL SWAP1 PUSH1 0x40 MLOAD PUSH0 PUSH1 0x40 MLOAD DUP1 DUP4 SUB DUP2 DUP6 DUP9 DUP9 CALL SWAP4 POP POP POP POP ISZERO DUP1 ISZERO PUSH2 0xA0D JUMPI RETURNDATASIZE PUSH0 DUP1 RETURNDATACOPY RETURNDATASIZE PUSH0 REVERT JUMPDEST POP DUP4 PUSH20 0xFFFFFFFFFFFFFFFFFFFFFFFFFFFFFFFFFFFFFFFF AND PUSH32 0xC10E1A954B8AADB1BCCAD4AC0748414B575923AE1FE13AEFE1B068C06019D73F DUP3 PUSH1 0x40 MLOAD PUSH2 0xA54 SWAP2 SWAP1 PUSH2 0xDDA JUMP JUMPDEST PUSH1 0x40 MLOAD DUP1 SWAP2 SUB SWAP1 LOG2 POP POP JUMPDEST POP POP DUP1 DUP1 PUSH1 0x1 ADD SWAP2 POP POP PUSH2 0x869 JUMP JUMPDEST POP PUSH32 0xE3A2429A7985FD026B75A901911E3BEE729E9F160F1B0E3A09596D891ED7E06F PUSH1 0x3 PUSH0 SWAP1 SLOAD SWAP1 PUSH2 0x100 EXP SWAP1 DIV PUSH20 0xFFFFFFFFFFFFFFFFFFFFFFFFFFFFFFFFFFFFFFFF AND PUSH1 0x4 SLOAD PUSH1 0x40 MLOAD PUSH2 0xAC3 SWAP3 SWAP2 SWAP1 PUSH2 0xF40 JUMP JUMPDEST PUSH1 0x40 MLOAD DUP1 SWAP2 SUB SWAP1 LOG1 JUMP JUMPDEST PUSH1 0x5 DUP2 DUP2 SLOAD DUP2 LT PUSH2 0xADC JUMPI PUSH0 DUP1 REVERT JUMPDEST SWAP1 PUSH0 MSTORE PUSH1 0x20 PUSH0 KECCAK256 SWAP1 PUSH1 0x2 MUL ADD PUSH0 SWAP2 POP SWAP1 POP DUP1 PUSH0 ADD PUSH0 SWAP1 SLOAD SWAP1 PUSH2 0x100 EXP SWAP1 DIV PUSH20 0xFFFFFFFFFFFFFFFFFFFFFFFFFFFFFFFFFFFFFFFF AND SWAP1 DUP1 PUSH1 0x1 ADD SLOAD SWAP1 POP DUP3 JUMP JUMPDEST PUSH1 0x6 PUSH1 0x20 MSTORE DUP1 PUSH0 MSTORE PUSH1 0x40 PUSH0 KECCAK256 PUSH0 SWAP2 POP SWAP1 POP SLOAD DUP2 JUMP JUMPDEST PUSH1 0x1 SLOAD DUP2 JUMP JUMPDEST PUSH0 DUP1 PUSH1 0x2 SLOAD TIMESTAMP GT PUSH2 0xB7C JUMPI PUSH1 0x40 MLOAD PUSH32 0x8C379A000000000000000000000000000000000000000000000000000000000 DUP2 MSTORE PUSH1 0x4 ADD PUSH2 0xB73 SWAP1 PUSH2 0x140B JUMP JUMPDEST PUSH1 0x40 MLOAD DUP1 SWAP2 SUB SWAP1 REVERT JUMPDEST PUSH1 0x3 PUSH0 SWAP1 SLOAD SWAP1 PUSH2 0x100 EXP SWAP1 DIV PUSH20 0xFFFFFFFFFFFFFFFFFFFFFFFFFFFFFFFFFFFFFFFF AND PUSH1 0x4 SLOAD SWAP2 POP SWAP2 POP SWAP1 SWAP2 JUMP JUMPDEST PUSH1 0x5 DUP2 JUMP JUMPDEST PUSH1 0x3 PUSH0 SWAP1 SLOAD SWAP1 PUSH2 0x100 EXP SWAP1 DIV PUSH20 0xFFFFFFFFFFFFFFFFFFFFFFFFFFFFFFFFFFFFFFFF AND DUP2 JUMP JUMPDEST PUSH1 0x2 DUP2 JUMP JUMPDEST PUSH0 PUSH1 0x4 SLOAD PUSH1 0x6 PUSH0 CALLER PUSH20 0xFFFFFFFFFFFFFFFFFFFFFFFFFFFFFFFFFFFFFFFF AND PUSH20 0xFFFFFFFFFFFFFFFFFFFFFFFFFFFFFFFFFFFFFFFF AND DUP2 MSTORE PUSH1 0x20 ADD SWAP1 DUP2 MSTORE PUSH1 0x20 ADD PUSH0 KECCAK256 SLOAD PUSH2 0xC24 SWAP2 SWAP1 PUSH2 0x1300 JUMP JUMPDEST SWAP1 POP PUSH0 DUP2 GT PUSH2 0xC68 JUMPI PUSH1 0x40 MLOAD PUSH32 0x8C379A000000000000000000000000000000000000000000000000000000000 DUP2 MSTORE PUSH1 0x4 ADD PUSH2 0xC5F SWAP1 PUSH2 0x14A0 JUMP JUMPDEST PUSH1 0x40 MLOAD DUP1 SWAP2 SUB SWAP1 REVERT JUMPDEST DUP1 PUSH1 0x6 PUSH0 CALLER PUSH20 0xFFFFFFFFFFFFFFFFFFFFFFFFFFFFFFFFFFFFFFFF AND PUSH20 0xFFFFFFFFFFFFFFFFFFFFFFFFFFFFFFFFFFFFFFFF AND DUP2 MSTORE PUSH1 0x20 ADD SWAP1 DUP2 MSTORE PUSH1 0x20 ADD PUSH0 KECCAK256 PUSH0 DUP3 DUP3 SLOAD PUSH2 0xCB4 SWAP2 SWAP1 PUSH2 0x1300 JUMP JUMPDEST SWAP3 POP POP DUP2 SWAP1 SSTORE POP CALLER PUSH20 0xFFFFFFFFFFFFFFFFFFFFFFFFFFFFFFFFFFFFFFFF AND PUSH2 0x8FC DUP3 SWAP1 DUP2 ISZERO MUL SWAP1 PUSH1 0x40 MLOAD PUSH0 PUSH1 0x40 MLOAD DUP1 DUP4 SUB DUP2 DUP6 DUP9 DUP9 CALL SWAP4 POP POP POP POP ISZERO DUP1 ISZERO PUSH2 0xCFE JUMPI RETURNDATASIZE PUSH0 DUP1 RETURNDATACOPY RETURNDATASIZE PUSH0 REVERT JUMPDEST POP POP JUMP JUMPDEST PUSH1 0x60 PUSH1 0x5 DUP1 SLOAD DUP1 PUSH1 0x20 MUL PUSH1 0x20 ADD PUSH1 0x40 MLOAD SWAP1 DUP2 ADD PUSH1 0x40 MSTORE DUP1 SWAP3 SWAP2 SWAP1 DUP2 DUP2 MSTORE PUSH1 0x20 ADD PUSH0 SWAP1 JUMPDEST DUP3 DUP3 LT ISZERO PUSH2 0xDB3 JUMPI DUP4 DUP3 SWAP1 PUSH0 MSTORE PUSH1 0x20 PUSH0 KECCAK256 SWAP1 PUSH1 0x2 MUL ADD PUSH1 0x40 MLOAD DUP1 PUSH1 0x40 ADD PUSH1 0x40 MSTORE SWAP1 DUP2 PUSH0 DUP3 ADD PUSH0 SWAP1 SLOAD SWAP1 PUSH2 0x100 EXP SWAP1 DIV PUSH20 0xFFFFFFFFFFFFFFFFFFFFFFFFFFFFFFFFFFFFFFFF AND PUSH20 0xFFFFFFFFFFFFFFFFFFFFFFFFFFFFFFFFFFFFFFFF AND PUSH20 0xFFFFFFFFFFFFFFFFFFFFFFFFFFFFFFFFFFFFFFFF AND DUP2 MSTORE PUSH1 0x20 ADD PUSH1 0x1 DUP3 ADD SLOAD DUP2 MSTORE POP POP DUP2 MSTORE PUSH1 0x20 ADD SWAP1 PUSH1 0x1 ADD SWAP1 PUSH2 0xD25 JUMP JUMPDEST POP POP POP POP SWAP1 POP SWAP1 JUMP JUMPDEST PUSH1 0x4 SLOAD DUP2 JUMP JUMPDEST PUSH0 DUP2 SWAP1 POP SWAP2 SWAP1 POP JUMP JUMPDEST PUSH2 0xDD4 DUP2 PUSH2 0xDC2 JUMP JUMPDEST DUP3 MSTORE POP POP JUMP JUMPDEST PUSH0 PUSH1 0x20 DUP3 ADD SWAP1 POP PUSH2 0xDED PUSH0 DUP4 ADD DUP5 PUSH2 0xDCB JUMP JUMPDEST SWAP3 SWAP2 POP POP JUMP JUMPDEST PUSH0 PUSH20 0xFFFFFFFFFFFFFFFFFFFFFFFFFFFFFFFFFFFFFFFF DUP3 AND SWAP1 POP SWAP2 SWAP1 POP JUMP JUMPDEST PUSH0 PUSH2 0xE1C DUP3 PUSH2 0xDF3 JUMP JUMPDEST SWAP1 POP SWAP2 SWAP1 POP JUMP JUMPDEST PUSH2 0xE2C DUP2 PUSH2 0xE12 JUMP JUMPDEST DUP3 MSTORE POP POP JUMP JUMPDEST PUSH0 PUSH1 0x20 DUP3 ADD SWAP1 POP PUSH2 0xE45 PUSH0 DUP4 ADD DUP5 PUSH2 0xE23 JUMP JUMPDEST SWAP3 SWAP2 POP POP JUMP JUMPDEST PUSH0 DUP1 REVERT JUMPDEST PUSH2 0xE58 DUP2 PUSH2 0xDC2 JUMP JUMPDEST DUP2 EQ PUSH2 0xE62 JUMPI PUSH0 DUP1 REVERT JUMPDEST POP JUMP JUMPDEST PUSH0 DUP2 CALLDATALOAD SWAP1 POP PUSH2 0xE73 DUP2 PUSH2 0xE4F JUMP JUMPDEST SWAP3 SWAP2 POP POP JUMP JUMPDEST PUSH0 PUSH1 0x20 DUP3 DUP5 SUB SLT ISZERO PUSH2 0xE8E JUMPI PUSH2 0xE8D PUSH2 0xE4B JUMP JUMPDEST JUMPDEST PUSH0 PUSH2 0xE9B DUP5 DUP3 DUP6 ADD PUSH2 0xE65 JUMP JUMPDEST SWAP2 POP POP SWAP3 SWAP2 POP POP JUMP JUMPDEST PUSH0 PUSH1 0x40 DUP3 ADD SWAP1 POP PUSH2 0xEB7 PUSH0 DUP4 ADD DUP6 PUSH2 0xE23 JUMP JUMPDEST PUSH2 0xEC4 PUSH1 0x20 DUP4 ADD DUP5 PUSH2 0xDCB JUMP JUMPDEST SWAP4 SWAP3 POP POP POP JUMP JUMPDEST PUSH0 PUSH2 0xED5 DUP3 PUSH2 0xDF3 JUMP JUMPDEST SWAP1 POP SWAP2 SWAP1 POP JUMP JUMPDEST PUSH2 0xEE5 DUP2 PUSH2 0xECB JUMP JUMPDEST DUP2 EQ PUSH2 0xEEF JUMPI PUSH0 DUP1 REVERT JUMPDEST POP JUMP JUMPDEST PUSH0 DUP2 CALLDATALOAD SWAP1 POP PUSH2 0xF00 DUP2 PUSH2 0xEDC JUMP JUMPDEST SWAP3 SWAP2 POP POP JUMP JUMPDEST PUSH0 PUSH1 0x20 DUP3 DUP5 SUB SLT ISZERO PUSH2 0xF1B JUMPI PUSH2 0xF1A PUSH2 0xE4B JUMP JUMPDEST JUMPDEST PUSH0 PUSH2 0xF28 DUP5 DUP3 DUP6 ADD PUSH2 0xEF2 JUMP JUMPDEST SWAP2 POP POP SWAP3 SWAP2 POP POP JUMP JUMPDEST PUSH2 0xF3A DUP2 PUSH2 0xECB JUMP JUMPDEST DUP3 MSTORE POP POP JUMP JUMPDEST PUSH0 PUSH1 0x40 DUP3 ADD SWAP1 POP PUSH2 0xF53 PUSH0 DUP4 ADD DUP6 PUSH2 0xF31 JUMP JUMPDEST PUSH2 0xF60 PUSH1 0x20 DUP4 ADD DUP5 PUSH2 0xDCB JUMP JUMPDEST SWAP4 SWAP3 POP POP POP JUMP JUMPDEST PUSH0 PUSH1 0x20 DUP3 ADD SWAP1 POP PUSH2 0xF7A PUSH0 DUP4 ADD DUP5 PUSH2 0xF31 JUMP JUMPDEST SWAP3 SWAP2 POP POP JUMP JUMPDEST PUSH0 DUP2 MLOAD SWAP1 POP SWAP2 SWAP1 POP JUMP JUMPDEST PUSH0 DUP3 DUP3 MSTORE PUSH1 0x20 DUP3 ADD SWAP1 POP SWAP3 SWAP2 POP POP JUMP JUMPDEST PUSH0 DUP2 SWAP1 POP PUSH1 0x20 DUP3 ADD SWAP1 POP SWAP2 SWAP1 POP JUMP JUMPDEST PUSH2 0xFB2 DUP2 PUSH2 0xE12 JUMP JUMPDEST DUP3 MSTORE POP POP JUMP JUMPDEST PUSH2 0xFC1 DUP2 PUSH2 0xDC2 JUMP JUMPDEST DUP3 MSTORE POP POP JUMP JUMPDEST PUSH1 0x40 DUP3 ADD PUSH0 DUP3 ADD MLOAD PUSH2 0xFDB PUSH0 DUP6 ADD DUP3 PUSH2 0xFA9 JUMP JUMPDEST POP PUSH1 0x20 DUP3 ADD MLOAD PUSH2 0xFEE PUSH1 0x20 DUP6 ADD DUP3 PUSH2 0xFB8 JUMP JUMPDEST POP POP POP POP JUMP JUMPDEST PUSH0 PUSH2 0xFFF DUP4 DUP4 PUSH2 0xFC7 JUMP JUMPDEST PUSH1 0x40 DUP4 ADD SWAP1 POP SWAP3 SWAP2 POP POP JUMP JUMPDEST PUSH0 PUSH1 0x20 DUP3 ADD SWAP1 POP SWAP2 SWAP1 POP JUMP JUMPDEST PUSH0 PUSH2 0x1021 DUP3 PUSH2 0xF80 JUMP JUMPDEST PUSH2 0x102B DUP2 DUP6 PUSH2 0xF8A JUMP JUMPDEST SWAP4 POP PUSH2 0x1036 DUP4 PUSH2 0xF9A JUMP JUMPDEST DUP1 PUSH0 JUMPDEST DUP4 DUP2 LT ISZERO PUSH2 0x1066 JUMPI DUP2 MLOAD PUSH2 0x104D DUP9 DUP3 PUSH2 0xFF4 JUMP JUMPDEST SWAP8 POP PUSH2 0x1058 DUP4 PUSH2 0x100B JUMP JUMPDEST SWAP3 POP POP PUSH1 0x1 DUP2 ADD SWAP1 POP PUSH2 0x1039 JUMP JUMPDEST POP DUP6 SWAP4 POP POP POP POP SWAP3 SWAP2 POP POP JUMP JUMPDEST PUSH0 PUSH1 0x20 DUP3 ADD SWAP1 POP DUP2 DUP2 SUB PUSH0 DUP4 ADD MSTORE PUSH2 0x108B DUP2 DUP5 PUSH2 0x1017 JUMP JUMPDEST SWAP1 POP SWAP3 SWAP2 POP POP JUMP JUMPDEST PUSH0 DUP3 DUP3 MSTORE PUSH1 0x20 DUP3 ADD SWAP1 POP SWAP3 SWAP2 POP POP JUMP JUMPDEST PUSH32 0x4269642068617320656E64656400000000000000000000000000000000000000 PUSH0 DUP3 ADD MSTORE POP JUMP JUMPDEST PUSH0 PUSH2 0x10D7 PUSH1 0xD DUP4 PUSH2 0x1093 JUMP JUMPDEST SWAP2 POP PUSH2 0x10E2 DUP3 PUSH2 0x10A3 JUMP JUMPDEST PUSH1 0x20 DUP3 ADD SWAP1 POP SWAP2 SWAP1 POP JUMP JUMPDEST PUSH0 PUSH1 0x20 DUP3 ADD SWAP1 POP DUP2 DUP2 SUB PUSH0 DUP4 ADD MSTORE PUSH2 0x1104 DUP2 PUSH2 0x10CB JUMP JUMPDEST SWAP1 POP SWAP2 SWAP1 POP JUMP JUMPDEST PUSH32 0x426964206D7573742062652067726561746572207468616E207A65726F000000 PUSH0 DUP3 ADD MSTORE POP JUMP JUMPDEST PUSH0 PUSH2 0x113F PUSH1 0x1D DUP4 PUSH2 0x1093 JUMP JUMPDEST SWAP2 POP PUSH2 0x114A DUP3 PUSH2 0x110B JUMP JUMPDEST PUSH1 0x20 DUP3 ADD SWAP1 POP SWAP2 SWAP1 POP JUMP JUMPDEST PUSH0 PUSH1 0x20 DUP3 ADD SWAP1 POP DUP2 DUP2 SUB PUSH0 DUP4 ADD MSTORE PUSH2 0x116C DUP2 PUSH2 0x1133 JUMP JUMPDEST SWAP1 POP SWAP2 SWAP1 POP JUMP JUMPDEST PUSH32 0x4E487B7100000000000000000000000000000000000000000000000000000000 PUSH0 MSTORE PUSH1 0x11 PUSH1 0x4 MSTORE PUSH1 0x24 PUSH0 REVERT JUMPDEST PUSH0 PUSH2 0x11AA DUP3 PUSH2 0xDC2 JUMP JUMPDEST SWAP2 POP PUSH2 0x11B5 DUP4 PUSH2 0xDC2 JUMP JUMPDEST SWAP3 POP DUP3 DUP3 ADD SWAP1 POP DUP1 DUP3 GT ISZERO PUSH2 0x11CD JUMPI PUSH2 0x11CC PUSH2 0x1173 JUMP JUMPDEST JUMPDEST SWAP3 SWAP2 POP POP JUMP JUMPDEST PUSH0 PUSH2 0x11DD DUP3 PUSH2 0xDC2 JUMP JUMPDEST SWAP2 POP PUSH2 0x11E8 DUP4 PUSH2 0xDC2 JUMP JUMPDEST SWAP3 POP DUP3 DUP3 MUL PUSH2 0x11F6 DUP2 PUSH2 0xDC2 JUMP JUMPDEST SWAP2 POP DUP3 DUP3 DIV DUP5 EQ DUP4 ISZERO OR PUSH2 0x120D JUMPI PUSH2 0x120C PUSH2 0x1173 JUMP JUMPDEST JUMPDEST POP SWAP3 SWAP2 POP POP JUMP JUMPDEST PUSH32 0x4E487B7100000000000000000000000000000000000000000000000000000000 PUSH0 MSTORE PUSH1 0x12 PUSH1 0x4 MSTORE PUSH1 0x24 PUSH0 REVERT JUMPDEST PUSH0 PUSH2 0x124B DUP3 PUSH2 0xDC2 JUMP JUMPDEST SWAP2 POP PUSH2 0x1256 DUP4 PUSH2 0xDC2 JUMP JUMPDEST SWAP3 POP DUP3 PUSH2 0x1266 JUMPI PUSH2 0x1265 PUSH2 0x1214 JUMP JUMPDEST JUMPDEST DUP3 DUP3 DIV SWAP1 POP SWAP3 SWAP2 POP POP JUMP JUMPDEST PUSH32 0x4F66666572206D757374206265206174206C6561737420352520686967686572 PUSH0 DUP3 ADD MSTORE POP JUMP JUMPDEST PUSH0 PUSH2 0x12A5 PUSH1 0x20 DUP4 PUSH2 0x1093 JUMP JUMPDEST SWAP2 POP PUSH2 0x12B0 DUP3 PUSH2 0x1271 JUMP JUMPDEST PUSH1 0x20 DUP3 ADD SWAP1 POP SWAP2 SWAP1 POP JUMP JUMPDEST PUSH0 PUSH1 0x20 DUP3 ADD SWAP1 POP DUP2 DUP2 SUB PUSH0 DUP4 ADD MSTORE PUSH2 0x12D2 DUP2 PUSH2 0x1299 JUMP JUMPDEST SWAP1 POP SWAP2 SWAP1 POP JUMP JUMPDEST PUSH0 PUSH1 0x40 DUP3 ADD SWAP1 POP PUSH2 0x12EC PUSH0 DUP4 ADD DUP6 PUSH2 0xDCB JUMP JUMPDEST PUSH2 0x12F9 PUSH1 0x20 DUP4 ADD DUP5 PUSH2 0xDCB JUMP JUMPDEST SWAP4 SWAP3 POP POP POP JUMP JUMPDEST PUSH0 PUSH2 0x130A DUP3 PUSH2 0xDC2 JUMP JUMPDEST SWAP2 POP PUSH2 0x1315 DUP4 PUSH2 0xDC2 JUMP JUMPDEST SWAP3 POP DUP3 DUP3 SUB SWAP1 POP DUP2 DUP2 GT ISZERO PUSH2 0x132D JUMPI PUSH2 0x132C PUSH2 0x1173 JUMP JUMPDEST JUMPDEST SWAP3 SWAP2 POP POP JUMP JUMPDEST PUSH32 0x54686973206665617475726520697320726573657276656420746F204F776E65 PUSH0 DUP3 ADD MSTORE PUSH32 0x7200000000000000000000000000000000000000000000000000000000000000 PUSH1 0x20 DUP3 ADD MSTORE POP JUMP JUMPDEST PUSH0 PUSH2 0x138D PUSH1 0x21 DUP4 PUSH2 0x1093 JUMP JUMPDEST SWAP2 POP PUSH2 0x1398 DUP3 PUSH2 0x1333 JUMP JUMPDEST PUSH1 0x40 DUP3 ADD SWAP1 POP SWAP2 SWAP1 POP JUMP JUMPDEST PUSH0 PUSH1 0x20 DUP3 ADD SWAP1 POP DUP2 DUP2 SUB PUSH0 DUP4 ADD MSTORE PUSH2 0x13BA DUP2 PUSH2 0x1381 JUMP JUMPDEST SWAP1 POP SWAP2 SWAP1 POP JUMP JUMPDEST PUSH32 0x4C6120737562617374612061756E206573746120656E20637572736F00000000 PUSH0 DUP3 ADD MSTORE POP JUMP JUMPDEST PUSH0 PUSH2 0x13F5 PUSH1 0x1C DUP4 PUSH2 0x1093 JUMP JUMPDEST SWAP2 POP PUSH2 0x1400 DUP3 PUSH2 0x13C1 JUMP JUMPDEST PUSH1 0x20 DUP3 ADD SWAP1 POP SWAP2 SWAP1 POP JUMP JUMPDEST PUSH0 PUSH1 0x20 DUP3 ADD SWAP1 POP DUP2 DUP2 SUB PUSH0 DUP4 ADD MSTORE PUSH2 0x1422 DUP2 PUSH2 0x13E9 JUMP JUMPDEST SWAP1 POP SWAP2 SWAP1 POP JUMP JUMPDEST PUSH32 0x4E487B7100000000000000000000000000000000000000000000000000000000 PUSH0 MSTORE PUSH1 0x32 PUSH1 0x4 MSTORE PUSH1 0x24 PUSH0 REVERT JUMPDEST PUSH32 0x4E6F207469656E6520737566696369656E74652065786365736F000000000000 PUSH0 DUP3 ADD MSTORE POP JUMP JUMPDEST PUSH0 PUSH2 0x148A PUSH1 0x1A DUP4 PUSH2 0x1093 JUMP JUMPDEST SWAP2 POP PUSH2 0x1495 DUP3 PUSH2 0x1456 JUMP JUMPDEST PUSH1 0x20 DUP3 ADD SWAP1 POP SWAP2 SWAP1 POP JUMP JUMPDEST PUSH0 PUSH1 0x20 DUP3 ADD SWAP1 POP DUP2 DUP2 SUB PUSH0 DUP4 ADD MSTORE PUSH2 0x14B7 DUP2 PUSH2 0x147E JUMP JUMPDEST SWAP1 POP SWAP2 SWAP1 POP JUMP INVALID LOG2 PUSH5 0x6970667358 0x22 SLT KECCAK256 DUP16 0xFB 0xAD LOG2 DUP13 0x21 BALANCE PUSH21 0x6DD1998B4672BCE4D2E3F5FB65B94839AEDB694451 0xF8 RETURN 0xCD PUSH5 0x736F6C6343 STOP ADDMOD BYTE STOP CALLER "
				},
				"gasEstimates": {
					"creation": {
						"codeDepositCost": "1072800",
						"executionCost": "infinite",
						"totalCost": "infinite"
					},
					"external": {
						"BID_INC_PERCENT()": "392",
						"COMMISSION_PERCENT()": "347",
						"EXT_TIME()": "349",
						"bidEndTime()": "2448",
						"bidOwner()": "2551",
						"bidStartTime()": "2448",
						"devolverDepositos()": "infinite",
						"highestBid()": "2513",
						"highestBidder()": "2597",
						"mostrarGanador()": "6895",
						"mostrarOfertas()": "infinite",
						"ofertar()": "infinite",
						"ofertas(uint256)": "infinite",
						"remainingBalance(address)": "2891",
						"retirarExceso()": "infinite"
					}
				},
				"methodIdentifiers": {
					"BID_INC_PERCENT()": "7bb44b83",
					"COMMISSION_PERCENT()": "b404e001",
					"EXT_TIME()": "02bc22fc",
					"bidEndTime()": "4ba9a927",
					"bidOwner()": "03fe7faa",
					"bidStartTime()": "6d4d09d7",
					"devolverDepositos()": "5298a3c4",
					"highestBid()": "d57bde79",
					"highestBidder()": "91f90157",
					"mostrarGanador()": "753dcaeb",
					"mostrarOfertas()": "c442a99f",
					"ofertar()": "3ec059d7",
					"ofertas(uint256)": "56afff7c",
					"remainingBalance(address)": "65281d15",
					"retirarExceso()": "c1902319"
				}
			},
			"storageLayout": {
				"storage": [
					{
						"astId": 3,
						"contract": "contracts/OtroEjemploSubastaMasCompleto.sol:Subasta",
						"label": "bidOwner",
						"offset": 0,
						"slot": "0",
						"type": "t_address_payable"
					},
					{
						"astId": 5,
						"contract": "contracts/OtroEjemploSubastaMasCompleto.sol:Subasta",
						"label": "bidStartTime",
						"offset": 0,
						"slot": "1",
						"type": "t_uint256"
					},
					{
						"astId": 7,
						"contract": "contracts/OtroEjemploSubastaMasCompleto.sol:Subasta",
						"label": "bidEndTime",
						"offset": 0,
						"slot": "2",
						"type": "t_uint256"
					},
					{
						"astId": 9,
						"contract": "contracts/OtroEjemploSubastaMasCompleto.sol:Subasta",
						"label": "highestBidder",
						"offset": 0,
						"slot": "3",
						"type": "t_address"
					},
					{
						"astId": 11,
						"contract": "contracts/OtroEjemploSubastaMasCompleto.sol:Subasta",
						"label": "highestBid",
						"offset": 0,
						"slot": "4",
						"type": "t_uint256"
					},
					{
						"astId": 29,
						"contract": "contracts/OtroEjemploSubastaMasCompleto.sol:Subasta",
						"label": "ofertas",
						"offset": 0,
						"slot": "5",
						"type": "t_array(t_struct(Oferta)25_storage)dyn_storage"
					},
					{
						"astId": 33,
						"contract": "contracts/OtroEjemploSubastaMasCompleto.sol:Subasta",
						"label": "remainingBalance",
						"offset": 0,
						"slot": "6",
						"type": "t_mapping(t_address,t_uint256)"
					}
				],
				"types": {
					"t_address": {
						"encoding": "inplace",
						"label": "address",
						"numberOfBytes": "20"
					},
					"t_address_payable": {
						"encoding": "inplace",
						"label": "address payable",
						"numberOfBytes": "20"
					},
					"t_array(t_struct(Oferta)25_storage)dyn_storage": {
						"base": "t_struct(Oferta)25_storage",
						"encoding": "dynamic_array",
						"label": "struct Subasta.Oferta[]",
						"numberOfBytes": "32"
					},
					"t_mapping(t_address,t_uint256)": {
						"encoding": "mapping",
						"key": "t_address",
						"label": "mapping(address => uint256)",
						"numberOfBytes": "32",
						"value": "t_uint256"
					},
					"t_struct(Oferta)25_storage": {
						"encoding": "inplace",
						"label": "struct Subasta.Oferta",
						"members": [
							{
								"astId": 22,
								"contract": "contracts/OtroEjemploSubastaMasCompleto.sol:Subasta",
								"label": "bidder",
								"offset": 0,
								"slot": "0",
								"type": "t_address_payable"
							},
							{
								"astId": 24,
								"contract": "contracts/OtroEjemploSubastaMasCompleto.sol:Subasta",
								"label": "amount",
								"offset": 0,
								"slot": "1",
								"type": "t_uint256"
							}
						],
						"numberOfBytes": "64"
					},
					"t_uint256": {
						"encoding": "inplace",
						"label": "uint256",
						"numberOfBytes": "32"
					}
				}
			},
			"userdoc": {
				"kind": "user",
				"methods": {},
				"version": 1
			}
		}
	}
}