{
	"contracts/OtroEjemploSubasta.sol": {
		"Auction": {
			"abi": [
				{
					"inputs": [
						{
							"internalType": "uint256",
							"name": "_auctionDurationMinutes",
							"type": "uint256"
						},
						{
							"internalType": "uint256",
							"name": "_minIncrement",
							"type": "uint256"
						},
						{
							"internalType": "uint256",
							"name": "_gasFeePercent",
							"type": "uint256"
						}
					],
					"stateMutability": "nonpayable",
					"type": "constructor"
				},
				{
					"anonymous": false,
					"inputs": [
						{
							"indexed": false,
							"internalType": "address",
							"name": "winner",
							"type": "address"
						},
						{
							"indexed": false,
							"internalType": "uint256",
							"name": "amount",
							"type": "uint256"
						}
					],
					"name": "AuctionEnded",
					"type": "event"
				},
				{
					"anonymous": false,
					"inputs": [
						{
							"indexed": false,
							"internalType": "uint256",
							"name": "newEndTime",
							"type": "uint256"
						}
					],
					"name": "AuctionExtended",
					"type": "event"
				},
				{
					"anonymous": false,
					"inputs": [
						{
							"indexed": true,
							"internalType": "address",
							"name": "bidder",
							"type": "address"
						},
						{
							"indexed": false,
							"internalType": "uint256",
							"name": "amount",
							"type": "uint256"
						}
					],
					"name": "NewBid",
					"type": "event"
				},
				{
					"inputs": [],
					"name": "auctionEnded",
					"outputs": [
						{
							"internalType": "bool",
							"name": "",
							"type": "bool"
						}
					],
					"stateMutability": "view",
					"type": "function"
				},
				{
					"inputs": [],
					"name": "auctioneer",
					"outputs": [
						{
							"internalType": "address payable",
							"name": "",
							"type": "address"
						}
					],
					"stateMutability": "view",
					"type": "function"
				},
				{
					"inputs": [
						{
							"internalType": "uint256",
							"name": "",
							"type": "uint256"
						}
					],
					"name": "bids",
					"outputs": [
						{
							"internalType": "address payable",
							"name": "bidder",
							"type": "address"
						},
						{
							"internalType": "uint256",
							"name": "amount",
							"type": "uint256"
						}
					],
					"stateMutability": "view",
					"type": "function"
				},
				{
					"inputs": [
						{
							"internalType": "address",
							"name": "",
							"type": "address"
						}
					],
					"name": "deposits",
					"outputs": [
						{
							"internalType": "uint256",
							"name": "",
							"type": "uint256"
						}
					],
					"stateMutability": "view",
					"type": "function"
				},
				{
					"inputs": [],
					"name": "endTime",
					"outputs": [
						{
							"internalType": "uint256",
							"name": "",
							"type": "uint256"
						}
					],
					"stateMutability": "view",
					"type": "function"
				},
				{
					"inputs": [],
					"name": "finalizeAuction",
					"outputs": [],
					"stateMutability": "nonpayable",
					"type": "function"
				},
				{
					"inputs": [],
					"name": "gasFeePercent",
					"outputs": [
						{
							"internalType": "uint256",
							"name": "",
							"type": "uint256"
						}
					],
					"stateMutability": "view",
					"type": "function"
				},
				{
					"inputs": [],
					"name": "getBids",
					"outputs": [
						{
							"components": [
								{
									"internalType": "address payable",
									"name": "bidder",
									"type": "address"
								},
								{
									"internalType": "uint256",
									"name": "amount",
									"type": "uint256"
								}
							],
							"internalType": "struct Auction.Bid[]",
							"name": "",
							"type": "tuple[]"
						}
					],
					"stateMutability": "view",
					"type": "function"
				},
				{
					"inputs": [],
					"name": "getWinner",
					"outputs": [
						{
							"internalType": "address",
							"name": "",
							"type": "address"
						},
						{
							"internalType": "uint256",
							"name": "",
							"type": "uint256"
						}
					],
					"stateMutability": "view",
					"type": "function"
				},
				{
					"inputs": [],
					"name": "highestBid",
					"outputs": [
						{
							"internalType": "address payable",
							"name": "bidder",
							"type": "address"
						},
						{
							"internalType": "uint256",
							"name": "amount",
							"type": "uint256"
						}
					],
					"stateMutability": "view",
					"type": "function"
				},
				{
					"inputs": [],
					"name": "minIncrement",
					"outputs": [
						{
							"internalType": "uint256",
							"name": "",
							"type": "uint256"
						}
					],
					"stateMutability": "view",
					"type": "function"
				},
				{
					"inputs": [],
					"name": "placeBid",
					"outputs": [],
					"stateMutability": "payable",
					"type": "function"
				},
				{
					"inputs": [],
					"name": "refundLosingBids",
					"outputs": [],
					"stateMutability": "nonpayable",
					"type": "function"
				},
				{
					"inputs": [],
					"name": "startTime",
					"outputs": [
						{
							"internalType": "uint256",
							"name": "",
							"type": "uint256"
						}
					],
					"stateMutability": "view",
					"type": "function"
				},
				{
					"inputs": [],
					"name": "withdrawPartialDeposit",
					"outputs": [],
					"stateMutability": "nonpayable",
					"type": "function"
				}
			],
			"devdoc": {
				"kind": "dev",
				"methods": {},
				"version": 1
			},
			"evm": {
				"assembly": "    /* \"contracts/OtroEjemploSubasta.sol\":57:3692  contract Auction {... */\n  mstore(0x40, 0x80)\n    /* \"contracts/OtroEjemploSubasta.sol\":1037:1389  constructor(uint _auctionDurationMinutes, uint _minIncrement, uint _gasFeePercent) {... */\n  callvalue\n  dup1\n  iszero\n  tag_1\n  jumpi\n  0x00\n  dup1\n  revert\ntag_1:\n  pop\n  mload(0x40)\n  sub(codesize, bytecodeSize)\n  dup1\n  bytecodeSize\n  dup4\n  codecopy\n  dup2\n  dup2\n  add\n  0x40\n  mstore\n  dup2\n  add\n  swap1\n  tag_2\n  swap2\n  swap1\n  tag_3\n  jump\t// in\ntag_2:\n    /* \"contracts/OtroEjemploSubasta.sol\":1151:1161  msg.sender */\n  caller\n    /* \"contracts/OtroEjemploSubasta.sol\":1130:1140  auctioneer */\n  0x00\n  dup1\n    /* \"contracts/OtroEjemploSubasta.sol\":1130:1162  auctioneer = payable(msg.sender) */\n  0x0100\n  exp\n  dup2\n  sload\n  dup2\n  0xffffffffffffffffffffffffffffffffffffffff\n  mul\n  not\n  and\n  swap1\n  dup4\n  0xffffffffffffffffffffffffffffffffffffffff\n  and\n  mul\n  or\n  swap1\n  sstore\n  pop\n    /* \"contracts/OtroEjemploSubasta.sol\":1184:1199  block.timestamp */\n  timestamp\n    /* \"contracts/OtroEjemploSubasta.sol\":1172:1181  startTime */\n  0x01\n    /* \"contracts/OtroEjemploSubasta.sol\":1172:1199  startTime = block.timestamp */\n  dup2\n  swap1\n  sstore\n  pop\n    /* \"contracts/OtroEjemploSubasta.sol\":1264:1273  1 minutes */\n  0x3c\n    /* \"contracts/OtroEjemploSubasta.sol\":1238:1261  _auctionDurationMinutes */\n  dup4\n    /* \"contracts/OtroEjemploSubasta.sol\":1238:1273  _auctionDurationMinutes * 1 minutes */\n  tag_6\n  swap2\n  swap1\n  tag_7\n  jump\t// in\ntag_6:\n    /* \"contracts/OtroEjemploSubasta.sol\":1219:1234  block.timestamp */\n  timestamp\n    /* \"contracts/OtroEjemploSubasta.sol\":1219:1274  block.timestamp + (_auctionDurationMinutes * 1 minutes) */\n  tag_8\n  swap2\n  swap1\n  tag_9\n  jump\t// in\ntag_8:\n    /* \"contracts/OtroEjemploSubasta.sol\":1209:1216  endTime */\n  0x02\n    /* \"contracts/OtroEjemploSubasta.sol\":1209:1274  endTime = block.timestamp + (_auctionDurationMinutes * 1 minutes) */\n  dup2\n  swap1\n  sstore\n  pop\n    /* \"contracts/OtroEjemploSubasta.sol\":1299:1312  _minIncrement */\n  dup2\n    /* \"contracts/OtroEjemploSubasta.sol\":1284:1296  minIncrement */\n  0x03\n    /* \"contracts/OtroEjemploSubasta.sol\":1284:1312  minIncrement = _minIncrement */\n  dup2\n  swap1\n  sstore\n  pop\n    /* \"contracts/OtroEjemploSubasta.sol\":1338:1352  _gasFeePercent */\n  dup1\n    /* \"contracts/OtroEjemploSubasta.sol\":1322:1335  gasFeePercent */\n  0x04\n    /* \"contracts/OtroEjemploSubasta.sol\":1322:1352  gasFeePercent = _gasFeePercent */\n  dup2\n  swap1\n  sstore\n  pop\n    /* \"contracts/OtroEjemploSubasta.sol\":1377:1382  false */\n  0x00\n    /* \"contracts/OtroEjemploSubasta.sol\":1362:1374  auctionEnded */\n  0x05\n  0x00\n    /* \"contracts/OtroEjemploSubasta.sol\":1362:1382  auctionEnded = false */\n  0x0100\n  exp\n  dup2\n  sload\n  dup2\n  0xff\n  mul\n  not\n  and\n  swap1\n  dup4\n  iszero\n  iszero\n  mul\n  or\n  swap1\n  sstore\n  pop\n    /* \"contracts/OtroEjemploSubasta.sol\":1037:1389  constructor(uint _auctionDurationMinutes, uint _minIncrement, uint _gasFeePercent) {... */\n  pop\n  pop\n  pop\n    /* \"contracts/OtroEjemploSubasta.sol\":57:3692  contract Auction {... */\n  jump(tag_10)\n    /* \"#utility.yul\":88:205   */\ntag_12:\n    /* \"#utility.yul\":197:198   */\n  0x00\n    /* \"#utility.yul\":194:195   */\n  dup1\n    /* \"#utility.yul\":187:199   */\n  revert\n    /* \"#utility.yul\":334:411   */\ntag_14:\n    /* \"#utility.yul\":371:378   */\n  0x00\n    /* \"#utility.yul\":400:405   */\n  dup2\n    /* \"#utility.yul\":389:405   */\n  swap1\n  pop\n    /* \"#utility.yul\":334:411   */\n  swap2\n  swap1\n  pop\n  jump\t// out\n    /* \"#utility.yul\":417:539   */\ntag_15:\n    /* \"#utility.yul\":490:514   */\n  tag_24\n    /* \"#utility.yul\":508:513   */\n  dup2\n    /* \"#utility.yul\":490:514   */\n  tag_14\n  jump\t// in\ntag_24:\n    /* \"#utility.yul\":483:488   */\n  dup2\n    /* \"#utility.yul\":480:515   */\n  eq\n    /* \"#utility.yul\":470:533   */\n  tag_25\n  jumpi\n    /* \"#utility.yul\":529:530   */\n  0x00\n    /* \"#utility.yul\":526:527   */\n  dup1\n    /* \"#utility.yul\":519:531   */\n  revert\n    /* \"#utility.yul\":470:533   */\ntag_25:\n    /* \"#utility.yul\":417:539   */\n  pop\n  jump\t// out\n    /* \"#utility.yul\":545:688   */\ntag_16:\n    /* \"#utility.yul\":602:607   */\n  0x00\n    /* \"#utility.yul\":633:639   */\n  dup2\n    /* \"#utility.yul\":627:640   */\n  mload\n    /* \"#utility.yul\":618:640   */\n  swap1\n  pop\n    /* \"#utility.yul\":649:682   */\n  tag_27\n    /* \"#utility.yul\":676:681   */\n  dup2\n    /* \"#utility.yul\":649:682   */\n  tag_15\n  jump\t// in\ntag_27:\n    /* \"#utility.yul\":545:688   */\n  swap3\n  swap2\n  pop\n  pop\n  jump\t// out\n    /* \"#utility.yul\":694:1357   */\ntag_3:\n    /* \"#utility.yul\":782:788   */\n  0x00\n    /* \"#utility.yul\":790:796   */\n  dup1\n    /* \"#utility.yul\":798:804   */\n  0x00\n    /* \"#utility.yul\":847:849   */\n  0x60\n    /* \"#utility.yul\":835:844   */\n  dup5\n    /* \"#utility.yul\":826:833   */\n  dup7\n    /* \"#utility.yul\":822:845   */\n  sub\n    /* \"#utility.yul\":818:850   */\n  slt\n    /* \"#utility.yul\":815:934   */\n  iszero\n  tag_29\n  jumpi\n    /* \"#utility.yul\":853:932   */\n  tag_30\n  tag_12\n  jump\t// in\ntag_30:\n    /* \"#utility.yul\":815:934   */\ntag_29:\n    /* \"#utility.yul\":973:974   */\n  0x00\n    /* \"#utility.yul\":998:1062   */\n  tag_31\n    /* \"#utility.yul\":1054:1061   */\n  dup7\n    /* \"#utility.yul\":1045:1051   */\n  dup3\n    /* \"#utility.yul\":1034:1043   */\n  dup8\n    /* \"#utility.yul\":1030:1052   */\n  add\n    /* \"#utility.yul\":998:1062   */\n  tag_16\n  jump\t// in\ntag_31:\n    /* \"#utility.yul\":988:1062   */\n  swap4\n  pop\n    /* \"#utility.yul\":944:1072   */\n  pop\n    /* \"#utility.yul\":1111:1113   */\n  0x20\n    /* \"#utility.yul\":1137:1201   */\n  tag_32\n    /* \"#utility.yul\":1193:1200   */\n  dup7\n    /* \"#utility.yul\":1184:1190   */\n  dup3\n    /* \"#utility.yul\":1173:1182   */\n  dup8\n    /* \"#utility.yul\":1169:1191   */\n  add\n    /* \"#utility.yul\":1137:1201   */\n  tag_16\n  jump\t// in\ntag_32:\n    /* \"#utility.yul\":1127:1201   */\n  swap3\n  pop\n    /* \"#utility.yul\":1082:1211   */\n  pop\n    /* \"#utility.yul\":1250:1252   */\n  0x40\n    /* \"#utility.yul\":1276:1340   */\n  tag_33\n    /* \"#utility.yul\":1332:1339   */\n  dup7\n    /* \"#utility.yul\":1323:1329   */\n  dup3\n    /* \"#utility.yul\":1312:1321   */\n  dup8\n    /* \"#utility.yul\":1308:1330   */\n  add\n    /* \"#utility.yul\":1276:1340   */\n  tag_16\n  jump\t// in\ntag_33:\n    /* \"#utility.yul\":1266:1340   */\n  swap2\n  pop\n    /* \"#utility.yul\":1221:1350   */\n  pop\n    /* \"#utility.yul\":694:1357   */\n  swap3\n  pop\n  swap3\n  pop\n  swap3\n  jump\t// out\n    /* \"#utility.yul\":1363:1543   */\ntag_17:\n    /* \"#utility.yul\":1411:1488   */\n  0x4e487b7100000000000000000000000000000000000000000000000000000000\n    /* \"#utility.yul\":1408:1409   */\n  0x00\n    /* \"#utility.yul\":1401:1489   */\n  mstore\n    /* \"#utility.yul\":1508:1512   */\n  0x11\n    /* \"#utility.yul\":1505:1506   */\n  0x04\n    /* \"#utility.yul\":1498:1513   */\n  mstore\n    /* \"#utility.yul\":1532:1536   */\n  0x24\n    /* \"#utility.yul\":1529:1530   */\n  0x00\n    /* \"#utility.yul\":1522:1537   */\n  revert\n    /* \"#utility.yul\":1549:1959   */\ntag_7:\n    /* \"#utility.yul\":1589:1596   */\n  0x00\n    /* \"#utility.yul\":1612:1632   */\n  tag_36\n    /* \"#utility.yul\":1630:1631   */\n  dup3\n    /* \"#utility.yul\":1612:1632   */\n  tag_14\n  jump\t// in\ntag_36:\n    /* \"#utility.yul\":1607:1632   */\n  swap2\n  pop\n    /* \"#utility.yul\":1646:1666   */\n  tag_37\n    /* \"#utility.yul\":1664:1665   */\n  dup4\n    /* \"#utility.yul\":1646:1666   */\n  tag_14\n  jump\t// in\ntag_37:\n    /* \"#utility.yul\":1641:1666   */\n  swap3\n  pop\n    /* \"#utility.yul\":1701:1702   */\n  dup3\n    /* \"#utility.yul\":1698:1699   */\n  dup3\n    /* \"#utility.yul\":1694:1703   */\n  mul\n    /* \"#utility.yul\":1723:1753   */\n  tag_38\n    /* \"#utility.yul\":1741:1752   */\n  dup2\n    /* \"#utility.yul\":1723:1753   */\n  tag_14\n  jump\t// in\ntag_38:\n    /* \"#utility.yul\":1712:1753   */\n  swap2\n  pop\n    /* \"#utility.yul\":1902:1903   */\n  dup3\n    /* \"#utility.yul\":1893:1900   */\n  dup3\n    /* \"#utility.yul\":1889:1904   */\n  div\n    /* \"#utility.yul\":1886:1887   */\n  dup5\n    /* \"#utility.yul\":1883:1905   */\n  eq\n    /* \"#utility.yul\":1863:1864   */\n  dup4\n    /* \"#utility.yul\":1856:1865   */\n  iszero\n    /* \"#utility.yul\":1836:1919   */\n  or\n    /* \"#utility.yul\":1813:1952   */\n  tag_39\n  jumpi\n    /* \"#utility.yul\":1932:1950   */\n  tag_40\n  tag_17\n  jump\t// in\ntag_40:\n    /* \"#utility.yul\":1813:1952   */\ntag_39:\n    /* \"#utility.yul\":1597:1959   */\n  pop\n    /* \"#utility.yul\":1549:1959   */\n  swap3\n  swap2\n  pop\n  pop\n  jump\t// out\n    /* \"#utility.yul\":1965:2156   */\ntag_9:\n    /* \"#utility.yul\":2005:2008   */\n  0x00\n    /* \"#utility.yul\":2024:2044   */\n  tag_42\n    /* \"#utility.yul\":2042:2043   */\n  dup3\n    /* \"#utility.yul\":2024:2044   */\n  tag_14\n  jump\t// in\ntag_42:\n    /* \"#utility.yul\":2019:2044   */\n  swap2\n  pop\n    /* \"#utility.yul\":2058:2078   */\n  tag_43\n    /* \"#utility.yul\":2076:2077   */\n  dup4\n    /* \"#utility.yul\":2058:2078   */\n  tag_14\n  jump\t// in\ntag_43:\n    /* \"#utility.yul\":2053:2078   */\n  swap3\n  pop\n    /* \"#utility.yul\":2101:2102   */\n  dup3\n    /* \"#utility.yul\":2098:2099   */\n  dup3\n    /* \"#utility.yul\":2094:2103   */\n  add\n    /* \"#utility.yul\":2087:2103   */\n  swap1\n  pop\n    /* \"#utility.yul\":2122:2125   */\n  dup1\n    /* \"#utility.yul\":2119:2120   */\n  dup3\n    /* \"#utility.yul\":2116:2126   */\n  gt\n    /* \"#utility.yul\":2113:2149   */\n  iszero\n  tag_44\n  jumpi\n    /* \"#utility.yul\":2129:2147   */\n  tag_45\n  tag_17\n  jump\t// in\ntag_45:\n    /* \"#utility.yul\":2113:2149   */\ntag_44:\n    /* \"#utility.yul\":1965:2156   */\n  swap3\n  swap2\n  pop\n  pop\n  jump\t// out\n    /* \"contracts/OtroEjemploSubasta.sol\":57:3692  contract Auction {... */\ntag_10:\n  dataSize(sub_0)\n  dup1\n  dataOffset(sub_0)\n  0x00\n  codecopy\n  0x00\n  return\nstop\n\nsub_0: assembly {\n        /* \"contracts/OtroEjemploSubasta.sol\":57:3692  contract Auction {... */\n      mstore(0x40, 0x80)\n      jumpi(tag_1, lt(calldatasize, 0x04))\n      shr(0xe0, calldataload(0x00))\n      dup1\n      0x8afcb14d\n      gt\n      tag_17\n      jumpi\n      dup1\n      0xd57bde79\n      gt\n      tag_18\n      jumpi\n      dup1\n      0xd57bde79\n      eq\n      tag_13\n      jumpi\n      dup1\n      0xecfc7ecc\n      eq\n      tag_14\n      jumpi\n      dup1\n      0xf77282ab\n      eq\n      tag_15\n      jumpi\n      dup1\n      0xfc7e286d\n      eq\n      tag_16\n      jumpi\n      jump(tag_1)\n    tag_18:\n      dup1\n      0x8afcb14d\n      eq\n      tag_9\n      jumpi\n      dup1\n      0x8cf0b15c\n      eq\n      tag_10\n      jumpi\n      dup1\n      0x8e7ea5b2\n      eq\n      tag_11\n      jumpi\n      dup1\n      0xb81c78ec\n      eq\n      tag_12\n      jumpi\n      jump(tag_1)\n    tag_17:\n      dup1\n      0x5ec2c7bf\n      gt\n      tag_19\n      jumpi\n      dup1\n      0x5ec2c7bf\n      eq\n      tag_5\n      jumpi\n      dup1\n      0x629e6b24\n      eq\n      tag_6\n      jumpi\n      dup1\n      0x78e97925\n      eq\n      tag_7\n      jumpi\n      dup1\n      0x86433374\n      eq\n      tag_8\n      jumpi\n      jump(tag_1)\n    tag_19:\n      dup1\n      0x3197cbb6\n      eq\n      tag_2\n      jumpi\n      dup1\n      0x4423c5f1\n      eq\n      tag_3\n      jumpi\n      dup1\n      0x5ccf987e\n      eq\n      tag_4\n      jumpi\n    tag_1:\n      0x00\n      dup1\n      revert\n        /* \"contracts/OtroEjemploSubasta.sol\":146:165  uint public endTime */\n    tag_2:\n      callvalue\n      dup1\n      iszero\n      tag_20\n      jumpi\n      0x00\n      dup1\n      revert\n    tag_20:\n      pop\n      tag_21\n      tag_22\n      jump\t// in\n    tag_21:\n      mload(0x40)\n      tag_23\n      swap2\n      swap1\n      tag_24\n      jump\t// in\n    tag_23:\n      mload(0x40)\n      dup1\n      swap2\n      sub\n      swap1\n      return\n        /* \"contracts/OtroEjemploSubasta.sol\":463:480  Bid[] public bids */\n    tag_3:\n      callvalue\n      dup1\n      iszero\n      tag_25\n      jumpi\n      0x00\n      dup1\n      revert\n    tag_25:\n      pop\n      tag_26\n      0x04\n      dup1\n      calldatasize\n      sub\n      dup2\n      add\n      swap1\n      tag_27\n      swap2\n      swap1\n      tag_28\n      jump\t// in\n    tag_27:\n      tag_29\n      jump\t// in\n    tag_26:\n      mload(0x40)\n      tag_30\n      swap3\n      swap2\n      swap1\n      tag_31\n      jump\t// in\n    tag_30:\n      mload(0x40)\n      dup1\n      swap2\n      sub\n      swap1\n      return\n        /* \"contracts/OtroEjemploSubasta.sol\":2962:3242  function withdrawPartialDeposit() public onlyBeforeEnd {... */\n    tag_4:\n      callvalue\n      dup1\n      iszero\n      tag_32\n      jumpi\n      0x00\n      dup1\n      revert\n    tag_32:\n      pop\n      tag_33\n      tag_34\n      jump\t// in\n    tag_33:\n      stop\n        /* \"contracts/OtroEjemploSubasta.sol\":80:113  address payable public auctioneer */\n    tag_5:\n      callvalue\n      dup1\n      iszero\n      tag_35\n      jumpi\n      0x00\n      dup1\n      revert\n    tag_35:\n      pop\n      tag_36\n      tag_37\n      jump\t// in\n    tag_36:\n      mload(0x40)\n      tag_38\n      swap2\n      swap1\n      tag_39\n      jump\t// in\n    tag_38:\n      mload(0x40)\n      dup1\n      swap2\n      sub\n      swap1\n      return\n        /* \"contracts/OtroEjemploSubasta.sol\":3248:3690  function refundLosingBids() public onlyAfterEnd {... */\n    tag_6:\n      callvalue\n      dup1\n      iszero\n      tag_40\n      jumpi\n      0x00\n      dup1\n      revert\n    tag_40:\n      pop\n      tag_41\n      tag_42\n      jump\t// in\n    tag_41:\n      stop\n        /* \"contracts/OtroEjemploSubasta.sol\":119:140  uint public startTime */\n    tag_7:\n      callvalue\n      dup1\n      iszero\n      tag_43\n      jumpi\n      0x00\n      dup1\n      revert\n    tag_43:\n      pop\n      tag_44\n      tag_45\n      jump\t// in\n    tag_44:\n      mload(0x40)\n      tag_46\n      swap2\n      swap1\n      tag_24\n      jump\t// in\n    tag_46:\n      mload(0x40)\n      dup1\n      swap2\n      sub\n      swap1\n      return\n        /* \"contracts/OtroEjemploSubasta.sol\":282:306  bool public auctionEnded */\n    tag_8:\n      callvalue\n      dup1\n      iszero\n      tag_47\n      jumpi\n      0x00\n      dup1\n      revert\n    tag_47:\n      pop\n      tag_48\n      tag_49\n      jump\t// in\n    tag_48:\n      mload(0x40)\n      tag_50\n      swap2\n      swap1\n      tag_51\n      jump\t// in\n    tag_50:\n      mload(0x40)\n      dup1\n      swap2\n      sub\n      swap1\n      return\n        /* \"contracts/OtroEjemploSubasta.sol\":171:195  uint public minIncrement */\n    tag_9:\n      callvalue\n      dup1\n      iszero\n      tag_52\n      jumpi\n      0x00\n      dup1\n      revert\n    tag_52:\n      pop\n      tag_53\n      tag_54\n      jump\t// in\n    tag_53:\n      mload(0x40)\n      tag_55\n      swap2\n      swap1\n      tag_24\n      jump\t// in\n    tag_55:\n      mload(0x40)\n      dup1\n      swap2\n      sub\n      swap1\n      return\n        /* \"contracts/OtroEjemploSubasta.sol\":231:256  uint public gasFeePercent */\n    tag_10:\n      callvalue\n      dup1\n      iszero\n      tag_56\n      jumpi\n      0x00\n      dup1\n      revert\n    tag_56:\n      pop\n      tag_57\n      tag_58\n      jump\t// in\n    tag_57:\n      mload(0x40)\n      tag_59\n      swap2\n      swap1\n      tag_24\n      jump\t// in\n    tag_59:\n      mload(0x40)\n      dup1\n      swap2\n      sub\n      swap1\n      return\n        /* \"contracts/OtroEjemploSubasta.sol\":2281:2488  function getWinner() public view onlyAfterEnd returns (address, uint) {... */\n    tag_11:\n      callvalue\n      dup1\n      iszero\n      tag_60\n      jumpi\n      0x00\n      dup1\n      revert\n    tag_60:\n      pop\n      tag_61\n      tag_62\n      jump\t// in\n    tag_61:\n      mload(0x40)\n      tag_63\n      swap3\n      swap2\n      swap1\n      tag_64\n      jump\t// in\n    tag_63:\n      mload(0x40)\n      dup1\n      swap2\n      sub\n      swap1\n      return\n        /* \"contracts/OtroEjemploSubasta.sol\":2494:2576  function getBids() public view returns (Bid[] memory) {... */\n    tag_12:\n      callvalue\n      dup1\n      iszero\n      tag_65\n      jumpi\n      0x00\n      dup1\n      revert\n    tag_65:\n      pop\n      tag_66\n      tag_67\n      jump\t// in\n    tag_66:\n      mload(0x40)\n      tag_68\n      swap2\n      swap1\n      tag_69\n      jump\t// in\n    tag_68:\n      mload(0x40)\n      dup1\n      swap2\n      sub\n      swap1\n      return\n        /* \"contracts/OtroEjemploSubasta.sol\":390:411  Bid public highestBid */\n    tag_13:\n      callvalue\n      dup1\n      iszero\n      tag_70\n      jumpi\n      0x00\n      dup1\n      revert\n    tag_70:\n      pop\n      tag_71\n      tag_72\n      jump\t// in\n    tag_71:\n      mload(0x40)\n      tag_73\n      swap3\n      swap2\n      swap1\n      tag_31\n      jump\t// in\n    tag_73:\n      mload(0x40)\n      dup1\n      swap2\n      sub\n      swap1\n      return\n        /* \"contracts/OtroEjemploSubasta.sol\":1395:2275  function placeBid() public payable onlyBeforeEnd {... */\n    tag_14:\n      tag_74\n      tag_75\n      jump\t// in\n    tag_74:\n      stop\n        /* \"contracts/OtroEjemploSubasta.sol\":2582:2956  function finalizeAuction() public onlyAuctioneer onlyAfterEnd {... */\n    tag_15:\n      callvalue\n      dup1\n      iszero\n      tag_76\n      jumpi\n      0x00\n      dup1\n      revert\n    tag_76:\n      pop\n      tag_77\n      tag_78\n      jump\t// in\n    tag_77:\n      stop\n        /* \"contracts/OtroEjemploSubasta.sol\":417:457  mapping(address => uint) public deposits */\n    tag_16:\n      callvalue\n      dup1\n      iszero\n      tag_79\n      jumpi\n      0x00\n      dup1\n      revert\n    tag_79:\n      pop\n      tag_80\n      0x04\n      dup1\n      calldatasize\n      sub\n      dup2\n      add\n      swap1\n      tag_81\n      swap2\n      swap1\n      tag_82\n      jump\t// in\n    tag_81:\n      tag_83\n      jump\t// in\n    tag_80:\n      mload(0x40)\n      tag_84\n      swap2\n      swap1\n      tag_24\n      jump\t// in\n    tag_84:\n      mload(0x40)\n      dup1\n      swap2\n      sub\n      swap1\n      return\n        /* \"contracts/OtroEjemploSubasta.sol\":146:165  uint public endTime */\n    tag_22:\n      sload(0x02)\n      dup2\n      jump\t// out\n        /* \"contracts/OtroEjemploSubasta.sol\":463:480  Bid[] public bids */\n    tag_29:\n      0x09\n      dup2\n      dup2\n      sload\n      dup2\n      lt\n      tag_85\n      jumpi\n      0x00\n      dup1\n      revert\n    tag_85:\n      swap1\n      0x00\n      mstore\n      keccak256(0x00, 0x20)\n      swap1\n      0x02\n      mul\n      add\n      0x00\n      swap2\n      pop\n      swap1\n      pop\n      dup1\n      0x00\n      add\n      0x00\n      swap1\n      sload\n      swap1\n      0x0100\n      exp\n      swap1\n      div\n      0xffffffffffffffffffffffffffffffffffffffff\n      and\n      swap1\n      dup1\n      0x01\n      add\n      sload\n      swap1\n      pop\n      dup3\n      jump\t// out\n        /* \"contracts/OtroEjemploSubasta.sol\":2962:3242  function withdrawPartialDeposit() public onlyBeforeEnd {... */\n    tag_34:\n        /* \"contracts/OtroEjemploSubasta.sol\":853:860  endTime */\n      sload(0x02)\n        /* \"contracts/OtroEjemploSubasta.sol\":835:850  block.timestamp */\n      timestamp\n        /* \"contracts/OtroEjemploSubasta.sol\":835:860  block.timestamp < endTime */\n      lt\n        /* \"contracts/OtroEjemploSubasta.sol\":827:891  require(block.timestamp < endTime, \"Auction has already ended.\") */\n      tag_88\n      jumpi\n      mload(0x40)\n      0x08c379a000000000000000000000000000000000000000000000000000000000\n      dup2\n      mstore\n      0x04\n      add\n      tag_89\n      swap1\n      tag_90\n      jump\t// in\n    tag_89:\n      mload(0x40)\n      dup1\n      swap2\n      sub\n      swap1\n      revert\n    tag_88:\n        /* \"contracts/OtroEjemploSubasta.sol\":3027:3048  uint refundableAmount */\n      0x00\n        /* \"contracts/OtroEjemploSubasta.sol\":3051:3059  deposits */\n      0x08\n        /* \"contracts/OtroEjemploSubasta.sol\":3051:3071  deposits[msg.sender] */\n      0x00\n        /* \"contracts/OtroEjemploSubasta.sol\":3060:3070  msg.sender */\n      caller\n        /* \"contracts/OtroEjemploSubasta.sol\":3051:3071  deposits[msg.sender] */\n      0xffffffffffffffffffffffffffffffffffffffff\n      and\n      0xffffffffffffffffffffffffffffffffffffffff\n      and\n      dup2\n      mstore\n      0x20\n      add\n      swap1\n      dup2\n      mstore\n      0x20\n      add\n      0x00\n      keccak256\n      sload\n        /* \"contracts/OtroEjemploSubasta.sol\":3027:3071  uint refundableAmount = deposits[msg.sender] */\n      swap1\n      pop\n        /* \"contracts/OtroEjemploSubasta.sol\":3108:3109  0 */\n      0x00\n        /* \"contracts/OtroEjemploSubasta.sol\":3089:3105  refundableAmount */\n      dup2\n        /* \"contracts/OtroEjemploSubasta.sol\":3089:3109  refundableAmount > 0 */\n      gt\n        /* \"contracts/OtroEjemploSubasta.sol\":3081:3144  require(refundableAmount > 0, \"No funds available for refund.\") */\n      tag_92\n      jumpi\n      mload(0x40)\n      0x08c379a000000000000000000000000000000000000000000000000000000000\n      dup2\n      mstore\n      0x04\n      add\n      tag_93\n      swap1\n      tag_94\n      jump\t// in\n    tag_93:\n      mload(0x40)\n      dup1\n      swap2\n      sub\n      swap1\n      revert\n    tag_92:\n        /* \"contracts/OtroEjemploSubasta.sol\":3178:3179  0 */\n      0x00\n        /* \"contracts/OtroEjemploSubasta.sol\":3155:3163  deposits */\n      0x08\n        /* \"contracts/OtroEjemploSubasta.sol\":3155:3175  deposits[msg.sender] */\n      0x00\n        /* \"contracts/OtroEjemploSubasta.sol\":3164:3174  msg.sender */\n      caller\n        /* \"contracts/OtroEjemploSubasta.sol\":3155:3175  deposits[msg.sender] */\n      0xffffffffffffffffffffffffffffffffffffffff\n      and\n      0xffffffffffffffffffffffffffffffffffffffff\n      and\n      dup2\n      mstore\n      0x20\n      add\n      swap1\n      dup2\n      mstore\n      0x20\n      add\n      0x00\n      keccak256\n        /* \"contracts/OtroEjemploSubasta.sol\":3155:3179  deposits[msg.sender] = 0 */\n      dup2\n      swap1\n      sstore\n      pop\n        /* \"contracts/OtroEjemploSubasta.sol\":3197:3207  msg.sender */\n      caller\n        /* \"contracts/OtroEjemploSubasta.sol\":3189:3217  payable(msg.sender).transfer */\n      0xffffffffffffffffffffffffffffffffffffffff\n      and\n        /* \"contracts/OtroEjemploSubasta.sol\":3189:3235  payable(msg.sender).transfer(refundableAmount) */\n      0x08fc\n        /* \"contracts/OtroEjemploSubasta.sol\":3218:3234  refundableAmount */\n      dup3\n        /* \"contracts/OtroEjemploSubasta.sol\":3189:3235  payable(msg.sender).transfer(refundableAmount) */\n      swap1\n      dup2\n      iszero\n      mul\n      swap1\n      mload(0x40)\n      0x00\n      mload(0x40)\n      dup1\n      dup4\n      sub\n      dup2\n      dup6\n      dup9\n      dup9\n      call\n      swap4\n      pop\n      pop\n      pop\n      pop\n      iszero\n      dup1\n      iszero\n      tag_96\n      jumpi\n      returndatasize\n      0x00\n      dup1\n      returndatacopy\n      revert(0x00, returndatasize)\n    tag_96:\n      pop\n        /* \"contracts/OtroEjemploSubasta.sol\":3017:3242  {... */\n      pop\n        /* \"contracts/OtroEjemploSubasta.sol\":2962:3242  function withdrawPartialDeposit() public onlyBeforeEnd {... */\n      jump\t// out\n        /* \"contracts/OtroEjemploSubasta.sol\":80:113  address payable public auctioneer */\n    tag_37:\n      0x00\n      dup1\n      sload\n      swap1\n      0x0100\n      exp\n      swap1\n      div\n      0xffffffffffffffffffffffffffffffffffffffff\n      and\n      dup2\n      jump\t// out\n        /* \"contracts/OtroEjemploSubasta.sol\":3248:3690  function refundLosingBids() public onlyAfterEnd {... */\n    tag_42:\n        /* \"contracts/OtroEjemploSubasta.sol\":976:983  endTime */\n      sload(0x02)\n        /* \"contracts/OtroEjemploSubasta.sol\":957:972  block.timestamp */\n      timestamp\n        /* \"contracts/OtroEjemploSubasta.sol\":957:983  block.timestamp >= endTime */\n      lt\n      iszero\n        /* \"contracts/OtroEjemploSubasta.sol\":949:1013  require(block.timestamp >= endTime, \"Auction is still ongoing.\") */\n      tag_98\n      jumpi\n      mload(0x40)\n      0x08c379a000000000000000000000000000000000000000000000000000000000\n      dup2\n      mstore\n      0x04\n      add\n      tag_99\n      swap1\n      tag_100\n      jump\t// in\n    tag_99:\n      mload(0x40)\n      dup1\n      swap2\n      sub\n      swap1\n      revert\n    tag_98:\n        /* \"contracts/OtroEjemploSubasta.sol\":3314:3326  auctionEnded */\n      0x05\n      0x00\n      swap1\n      sload\n      swap1\n      0x0100\n      exp\n      swap1\n      div\n      0xff\n      and\n        /* \"contracts/OtroEjemploSubasta.sol\":3306:3357  require(auctionEnded, \"Auction has not ended yet.\") */\n      tag_102\n      jumpi\n      mload(0x40)\n      0x08c379a000000000000000000000000000000000000000000000000000000000\n      dup2\n      mstore\n      0x04\n      add\n      tag_103\n      swap1\n      tag_104\n      jump\t// in\n    tag_103:\n      mload(0x40)\n      dup1\n      swap2\n      sub\n      swap1\n      revert\n    tag_102:\n        /* \"contracts/OtroEjemploSubasta.sol\":3367:3384  uint refundAmount */\n      0x00\n        /* \"contracts/OtroEjemploSubasta.sol\":3387:3395  deposits */\n      0x08\n        /* \"contracts/OtroEjemploSubasta.sol\":3387:3407  deposits[msg.sender] */\n      0x00\n        /* \"contracts/OtroEjemploSubasta.sol\":3396:3406  msg.sender */\n      caller\n        /* \"contracts/OtroEjemploSubasta.sol\":3387:3407  deposits[msg.sender] */\n      0xffffffffffffffffffffffffffffffffffffffff\n      and\n      0xffffffffffffffffffffffffffffffffffffffff\n      and\n      dup2\n      mstore\n      0x20\n      add\n      swap1\n      dup2\n      mstore\n      0x20\n      add\n      0x00\n      keccak256\n      sload\n        /* \"contracts/OtroEjemploSubasta.sol\":3367:3407  uint refundAmount = deposits[msg.sender] */\n      swap1\n      pop\n        /* \"contracts/OtroEjemploSubasta.sol\":3440:3441  0 */\n      0x00\n        /* \"contracts/OtroEjemploSubasta.sol\":3425:3437  refundAmount */\n      dup2\n        /* \"contracts/OtroEjemploSubasta.sol\":3425:3441  refundAmount > 0 */\n      gt\n        /* \"contracts/OtroEjemploSubasta.sol\":3417:3466  require(refundAmount > 0, \"No refund available.\") */\n      tag_105\n      jumpi\n      mload(0x40)\n      0x08c379a000000000000000000000000000000000000000000000000000000000\n      dup2\n      mstore\n      0x04\n      add\n      tag_106\n      swap1\n      tag_107\n      jump\t// in\n    tag_106:\n      mload(0x40)\n      dup1\n      swap2\n      sub\n      swap1\n      revert\n    tag_105:\n        /* \"contracts/OtroEjemploSubasta.sol\":3485:3496  uint gasFee */\n      0x00\n        /* \"contracts/OtroEjemploSubasta.sol\":3532:3535  100 */\n      0x64\n        /* \"contracts/OtroEjemploSubasta.sol\":3515:3528  gasFeePercent */\n      sload(0x04)\n        /* \"contracts/OtroEjemploSubasta.sol\":3500:3512  refundAmount */\n      dup4\n        /* \"contracts/OtroEjemploSubasta.sol\":3500:3528  refundAmount * gasFeePercent */\n      tag_108\n      swap2\n      swap1\n      tag_109\n      jump\t// in\n    tag_108:\n        /* \"contracts/OtroEjemploSubasta.sol\":3499:3535  (refundAmount * gasFeePercent) / 100 */\n      tag_110\n      swap2\n      swap1\n      tag_111\n      jump\t// in\n    tag_110:\n        /* \"contracts/OtroEjemploSubasta.sol\":3485:3535  uint gasFee = (refundAmount * gasFeePercent) / 100 */\n      swap1\n      pop\n        /* \"contracts/OtroEjemploSubasta.sol\":3545:3563  uint refundWithFee */\n      0x00\n        /* \"contracts/OtroEjemploSubasta.sol\":3581:3587  gasFee */\n      dup2\n        /* \"contracts/OtroEjemploSubasta.sol\":3566:3578  refundAmount */\n      dup4\n        /* \"contracts/OtroEjemploSubasta.sol\":3566:3587  refundAmount - gasFee */\n      tag_112\n      swap2\n      swap1\n      tag_113\n      jump\t// in\n    tag_112:\n        /* \"contracts/OtroEjemploSubasta.sol\":3545:3587  uint refundWithFee = refundAmount - gasFee */\n      swap1\n      pop\n        /* \"contracts/OtroEjemploSubasta.sol\":3629:3630  0 */\n      0x00\n        /* \"contracts/OtroEjemploSubasta.sol\":3606:3614  deposits */\n      0x08\n        /* \"contracts/OtroEjemploSubasta.sol\":3606:3626  deposits[msg.sender] */\n      0x00\n        /* \"contracts/OtroEjemploSubasta.sol\":3615:3625  msg.sender */\n      caller\n        /* \"contracts/OtroEjemploSubasta.sol\":3606:3626  deposits[msg.sender] */\n      0xffffffffffffffffffffffffffffffffffffffff\n      and\n      0xffffffffffffffffffffffffffffffffffffffff\n      and\n      dup2\n      mstore\n      0x20\n      add\n      swap1\n      dup2\n      mstore\n      0x20\n      add\n      0x00\n      keccak256\n        /* \"contracts/OtroEjemploSubasta.sol\":3606:3630  deposits[msg.sender] = 0 */\n      dup2\n      swap1\n      sstore\n      pop\n        /* \"contracts/OtroEjemploSubasta.sol\":3648:3658  msg.sender */\n      caller\n        /* \"contracts/OtroEjemploSubasta.sol\":3640:3668  payable(msg.sender).transfer */\n      0xffffffffffffffffffffffffffffffffffffffff\n      and\n        /* \"contracts/OtroEjemploSubasta.sol\":3640:3683  payable(msg.sender).transfer(refundWithFee) */\n      0x08fc\n        /* \"contracts/OtroEjemploSubasta.sol\":3669:3682  refundWithFee */\n      dup3\n        /* \"contracts/OtroEjemploSubasta.sol\":3640:3683  payable(msg.sender).transfer(refundWithFee) */\n      swap1\n      dup2\n      iszero\n      mul\n      swap1\n      mload(0x40)\n      0x00\n      mload(0x40)\n      dup1\n      dup4\n      sub\n      dup2\n      dup6\n      dup9\n      dup9\n      call\n      swap4\n      pop\n      pop\n      pop\n      pop\n      iszero\n      dup1\n      iszero\n      tag_115\n      jumpi\n      returndatasize\n      0x00\n      dup1\n      returndatacopy\n      revert(0x00, returndatasize)\n    tag_115:\n      pop\n        /* \"contracts/OtroEjemploSubasta.sol\":3296:3690  {... */\n      pop\n      pop\n      pop\n        /* \"contracts/OtroEjemploSubasta.sol\":3248:3690  function refundLosingBids() public onlyAfterEnd {... */\n      jump\t// out\n        /* \"contracts/OtroEjemploSubasta.sol\":119:140  uint public startTime */\n    tag_45:\n      sload(0x01)\n      dup2\n      jump\t// out\n        /* \"contracts/OtroEjemploSubasta.sol\":282:306  bool public auctionEnded */\n    tag_49:\n      0x05\n      0x00\n      swap1\n      sload\n      swap1\n      0x0100\n      exp\n      swap1\n      div\n      0xff\n      and\n      dup2\n      jump\t// out\n        /* \"contracts/OtroEjemploSubasta.sol\":171:195  uint public minIncrement */\n    tag_54:\n      sload(0x03)\n      dup2\n      jump\t// out\n        /* \"contracts/OtroEjemploSubasta.sol\":231:256  uint public gasFeePercent */\n    tag_58:\n      sload(0x04)\n      dup2\n      jump\t// out\n        /* \"contracts/OtroEjemploSubasta.sol\":2281:2488  function getWinner() public view onlyAfterEnd returns (address, uint) {... */\n    tag_62:\n        /* \"contracts/OtroEjemploSubasta.sol\":2336:2343  address */\n      0x00\n        /* \"contracts/OtroEjemploSubasta.sol\":2345:2349  uint */\n      dup1\n        /* \"contracts/OtroEjemploSubasta.sol\":976:983  endTime */\n      sload(0x02)\n        /* \"contracts/OtroEjemploSubasta.sol\":957:972  block.timestamp */\n      timestamp\n        /* \"contracts/OtroEjemploSubasta.sol\":957:983  block.timestamp >= endTime */\n      lt\n      iszero\n        /* \"contracts/OtroEjemploSubasta.sol\":949:1013  require(block.timestamp >= endTime, \"Auction is still ongoing.\") */\n      tag_117\n      jumpi\n      mload(0x40)\n      0x08c379a000000000000000000000000000000000000000000000000000000000\n      dup2\n      mstore\n      0x04\n      add\n      tag_118\n      swap1\n      tag_100\n      jump\t// in\n    tag_118:\n      mload(0x40)\n      dup1\n      swap2\n      sub\n      swap1\n      revert\n    tag_117:\n        /* \"contracts/OtroEjemploSubasta.sol\":2369:2381  auctionEnded */\n      0x05\n      0x00\n      swap1\n      sload\n      swap1\n      0x0100\n      exp\n      swap1\n      div\n      0xff\n      and\n        /* \"contracts/OtroEjemploSubasta.sol\":2361:2426  require(auctionEnded, \"Auction must be ended to get the winner.\") */\n      tag_120\n      jumpi\n      mload(0x40)\n      0x08c379a000000000000000000000000000000000000000000000000000000000\n      dup2\n      mstore\n      0x04\n      add\n      tag_121\n      swap1\n      tag_122\n      jump\t// in\n    tag_121:\n      mload(0x40)\n      dup1\n      swap2\n      sub\n      swap1\n      revert\n    tag_120:\n        /* \"contracts/OtroEjemploSubasta.sol\":2444:2454  highestBid */\n      0x06\n        /* \"contracts/OtroEjemploSubasta.sol\":2444:2461  highestBid.bidder */\n      0x00\n      add\n      0x00\n      swap1\n      sload\n      swap1\n      0x0100\n      exp\n      swap1\n      div\n      0xffffffffffffffffffffffffffffffffffffffff\n      and\n        /* \"contracts/OtroEjemploSubasta.sol\":2463:2473  highestBid */\n      0x06\n        /* \"contracts/OtroEjemploSubasta.sol\":2463:2480  highestBid.amount */\n      0x01\n      add\n      sload\n        /* \"contracts/OtroEjemploSubasta.sol\":2436:2481  return (highestBid.bidder, highestBid.amount) */\n      swap2\n      pop\n      swap2\n      pop\n        /* \"contracts/OtroEjemploSubasta.sol\":2281:2488  function getWinner() public view onlyAfterEnd returns (address, uint) {... */\n      swap1\n      swap2\n      jump\t// out\n        /* \"contracts/OtroEjemploSubasta.sol\":2494:2576  function getBids() public view returns (Bid[] memory) {... */\n    tag_67:\n        /* \"contracts/OtroEjemploSubasta.sol\":2534:2546  Bid[] memory */\n      0x60\n        /* \"contracts/OtroEjemploSubasta.sol\":2565:2569  bids */\n      0x09\n        /* \"contracts/OtroEjemploSubasta.sol\":2558:2569  return bids */\n      dup1\n      sload\n      dup1\n      0x20\n      mul\n      0x20\n      add\n      mload(0x40)\n      swap1\n      dup2\n      add\n      0x40\n      mstore\n      dup1\n      swap3\n      swap2\n      swap1\n      dup2\n      dup2\n      mstore\n      0x20\n      add\n      0x00\n      swap1\n    tag_124:\n      dup3\n      dup3\n      lt\n      iszero\n      tag_125\n      jumpi\n      dup4\n      dup3\n      swap1\n      0x00\n      mstore\n      keccak256(0x00, 0x20)\n      swap1\n      0x02\n      mul\n      add\n      mload(0x40)\n      dup1\n      0x40\n      add\n      0x40\n      mstore\n      swap1\n      dup2\n      0x00\n      dup3\n      add\n      0x00\n      swap1\n      sload\n      swap1\n      0x0100\n      exp\n      swap1\n      div\n      0xffffffffffffffffffffffffffffffffffffffff\n      and\n      0xffffffffffffffffffffffffffffffffffffffff\n      and\n      0xffffffffffffffffffffffffffffffffffffffff\n      and\n      dup2\n      mstore\n      0x20\n      add\n      0x01\n      dup3\n      add\n      sload\n      dup2\n      mstore\n      pop\n      pop\n      dup2\n      mstore\n      0x20\n      add\n      swap1\n      0x01\n      add\n      swap1\n      jump(tag_124)\n    tag_125:\n      pop\n      pop\n      pop\n      pop\n      swap1\n      pop\n        /* \"contracts/OtroEjemploSubasta.sol\":2494:2576  function getBids() public view returns (Bid[] memory) {... */\n      swap1\n      jump\t// out\n        /* \"contracts/OtroEjemploSubasta.sol\":390:411  Bid public highestBid */\n    tag_72:\n      0x06\n      dup1\n      0x00\n      add\n      0x00\n      swap1\n      sload\n      swap1\n      0x0100\n      exp\n      swap1\n      div\n      0xffffffffffffffffffffffffffffffffffffffff\n      and\n      swap1\n      dup1\n      0x01\n      add\n      sload\n      swap1\n      pop\n      dup3\n      jump\t// out\n        /* \"contracts/OtroEjemploSubasta.sol\":1395:2275  function placeBid() public payable onlyBeforeEnd {... */\n    tag_75:\n        /* \"contracts/OtroEjemploSubasta.sol\":853:860  endTime */\n      sload(0x02)\n        /* \"contracts/OtroEjemploSubasta.sol\":835:850  block.timestamp */\n      timestamp\n        /* \"contracts/OtroEjemploSubasta.sol\":835:860  block.timestamp < endTime */\n      lt\n        /* \"contracts/OtroEjemploSubasta.sol\":827:891  require(block.timestamp < endTime, \"Auction has already ended.\") */\n      tag_128\n      jumpi\n      mload(0x40)\n      0x08c379a000000000000000000000000000000000000000000000000000000000\n      dup2\n      mstore\n      0x04\n      add\n      tag_129\n      swap1\n      tag_90\n      jump\t// in\n    tag_129:\n      mload(0x40)\n      dup1\n      swap2\n      sub\n      swap1\n      revert\n    tag_128:\n        /* \"contracts/OtroEjemploSubasta.sol\":1474:1475  0 */\n      0x00\n        /* \"contracts/OtroEjemploSubasta.sol\":1462:1471  msg.value */\n      callvalue\n        /* \"contracts/OtroEjemploSubasta.sol\":1462:1475  msg.value > 0 */\n      gt\n        /* \"contracts/OtroEjemploSubasta.sol\":1454:1517  require(msg.value > 0, \"Bid amount must be greater than zero.\") */\n      tag_131\n      jumpi\n      mload(0x40)\n      0x08c379a000000000000000000000000000000000000000000000000000000000\n      dup2\n      mstore\n      0x04\n      add\n      tag_132\n      swap1\n      tag_133\n      jump\t// in\n    tag_132:\n      mload(0x40)\n      dup1\n      swap2\n      sub\n      swap1\n      revert\n    tag_131:\n        /* \"contracts/OtroEjemploSubasta.sol\":1527:1544  uint minBidAmount */\n      0x00\n        /* \"contracts/OtroEjemploSubasta.sol\":1604:1607  100 */\n      0x64\n        /* \"contracts/OtroEjemploSubasta.sol\":1588:1600  minIncrement */\n      sload(0x03)\n        /* \"contracts/OtroEjemploSubasta.sol\":1568:1578  highestBid */\n      0x06\n        /* \"contracts/OtroEjemploSubasta.sol\":1568:1585  highestBid.amount */\n      0x01\n      add\n      sload\n        /* \"contracts/OtroEjemploSubasta.sol\":1568:1600  highestBid.amount * minIncrement */\n      tag_134\n      swap2\n      swap1\n      tag_109\n      jump\t// in\n    tag_134:\n        /* \"contracts/OtroEjemploSubasta.sol\":1567:1607  (highestBid.amount * minIncrement) / 100 */\n      tag_135\n      swap2\n      swap1\n      tag_111\n      jump\t// in\n    tag_135:\n        /* \"contracts/OtroEjemploSubasta.sol\":1547:1557  highestBid */\n      0x06\n        /* \"contracts/OtroEjemploSubasta.sol\":1547:1564  highestBid.amount */\n      0x01\n      add\n      sload\n        /* \"contracts/OtroEjemploSubasta.sol\":1547:1607  highestBid.amount + (highestBid.amount * minIncrement) / 100 */\n      tag_136\n      swap2\n      swap1\n      tag_137\n      jump\t// in\n    tag_136:\n        /* \"contracts/OtroEjemploSubasta.sol\":1527:1607  uint minBidAmount = highestBid.amount + (highestBid.amount * minIncrement) / 100 */\n      swap1\n      pop\n        /* \"contracts/OtroEjemploSubasta.sol\":1638:1650  minBidAmount */\n      dup1\n        /* \"contracts/OtroEjemploSubasta.sol\":1625:1634  msg.value */\n      callvalue\n        /* \"contracts/OtroEjemploSubasta.sol\":1625:1650  msg.value >= minBidAmount */\n      lt\n      iszero\n        /* \"contracts/OtroEjemploSubasta.sol\":1617:1715  require(msg.value >= minBidAmount, \"Bid must be at least 5% higher than the current highest bid.\") */\n      tag_138\n      jumpi\n      mload(0x40)\n      0x08c379a000000000000000000000000000000000000000000000000000000000\n      dup2\n      mstore\n      0x04\n      add\n      tag_139\n      swap1\n      tag_140\n      jump\t// in\n    tag_139:\n      mload(0x40)\n      dup1\n      swap2\n      sub\n      swap1\n      revert\n    tag_138:\n        /* \"contracts/OtroEjemploSubasta.sol\":1822:1823  0 */\n      0x00\n        /* \"contracts/OtroEjemploSubasta.sol\":1793:1824  highestBid.bidder != address(0) */\n      0xffffffffffffffffffffffffffffffffffffffff\n      and\n        /* \"contracts/OtroEjemploSubasta.sol\":1793:1803  highestBid */\n      0x06\n        /* \"contracts/OtroEjemploSubasta.sol\":1793:1810  highestBid.bidder */\n      0x00\n      add\n      0x00\n      swap1\n      sload\n      swap1\n      0x0100\n      exp\n      swap1\n      div\n      0xffffffffffffffffffffffffffffffffffffffff\n      and\n        /* \"contracts/OtroEjemploSubasta.sol\":1793:1824  highestBid.bidder != address(0) */\n      0xffffffffffffffffffffffffffffffffffffffff\n      and\n      eq\n        /* \"contracts/OtroEjemploSubasta.sol\":1789:1899  if (highestBid.bidder != address(0)) {... */\n      tag_141\n      jumpi\n        /* \"contracts/OtroEjemploSubasta.sol\":1871:1881  highestBid */\n      0x06\n        /* \"contracts/OtroEjemploSubasta.sol\":1871:1888  highestBid.amount */\n      0x01\n      add\n      sload\n        /* \"contracts/OtroEjemploSubasta.sol\":1840:1848  deposits */\n      0x08\n        /* \"contracts/OtroEjemploSubasta.sol\":1840:1867  deposits[highestBid.bidder] */\n      0x00\n        /* \"contracts/OtroEjemploSubasta.sol\":1849:1859  highestBid */\n      0x06\n        /* \"contracts/OtroEjemploSubasta.sol\":1849:1866  highestBid.bidder */\n      0x00\n      add\n      0x00\n      swap1\n      sload\n      swap1\n      0x0100\n      exp\n      swap1\n      div\n      0xffffffffffffffffffffffffffffffffffffffff\n      and\n        /* \"contracts/OtroEjemploSubasta.sol\":1840:1867  deposits[highestBid.bidder] */\n      0xffffffffffffffffffffffffffffffffffffffff\n      and\n      0xffffffffffffffffffffffffffffffffffffffff\n      and\n      dup2\n      mstore\n      0x20\n      add\n      swap1\n      dup2\n      mstore\n      0x20\n      add\n      0x00\n      keccak256\n      0x00\n        /* \"contracts/OtroEjemploSubasta.sol\":1840:1888  deposits[highestBid.bidder] += highestBid.amount */\n      dup3\n      dup3\n      sload\n      tag_142\n      swap2\n      swap1\n      tag_137\n      jump\t// in\n    tag_142:\n      swap3\n      pop\n      pop\n      dup2\n      swap1\n      sstore\n      pop\n        /* \"contracts/OtroEjemploSubasta.sol\":1789:1899  if (highestBid.bidder != address(0)) {... */\n    tag_141:\n        /* \"contracts/OtroEjemploSubasta.sol\":1922:1957  Bid(payable(msg.sender), msg.value) */\n      mload(0x40)\n      dup1\n      0x40\n      add\n      0x40\n      mstore\n      dup1\n        /* \"contracts/OtroEjemploSubasta.sol\":1934:1944  msg.sender */\n      caller\n        /* \"contracts/OtroEjemploSubasta.sol\":1922:1957  Bid(payable(msg.sender), msg.value) */\n      0xffffffffffffffffffffffffffffffffffffffff\n      and\n      dup2\n      mstore\n      0x20\n      add\n        /* \"contracts/OtroEjemploSubasta.sol\":1947:1956  msg.value */\n      callvalue\n        /* \"contracts/OtroEjemploSubasta.sol\":1922:1957  Bid(payable(msg.sender), msg.value) */\n      dup2\n      mstore\n      pop\n        /* \"contracts/OtroEjemploSubasta.sol\":1909:1919  highestBid */\n      0x06\n        /* \"contracts/OtroEjemploSubasta.sol\":1909:1957  highestBid = Bid(payable(msg.sender), msg.value) */\n      0x00\n      dup3\n      add\n      mload\n      dup2\n      0x00\n      add\n      exp(0x0100, 0x00)\n      dup2\n      sload\n      dup2\n      0xffffffffffffffffffffffffffffffffffffffff\n      mul\n      not\n      and\n      swap1\n      dup4\n      0xffffffffffffffffffffffffffffffffffffffff\n      and\n      mul\n      or\n      swap1\n      sstore\n      pop\n      0x20\n      dup3\n      add\n      mload\n      dup2\n      0x01\n      add\n      sstore\n      swap1\n      pop\n      pop\n        /* \"contracts/OtroEjemploSubasta.sol\":1967:1971  bids */\n      0x09\n        /* \"contracts/OtroEjemploSubasta.sol\":1977:1987  highestBid */\n      0x06\n        /* \"contracts/OtroEjemploSubasta.sol\":1967:1988  bids.push(highestBid) */\n      swap1\n      dup1\n      0x01\n      dup2\n      sload\n      add\n      dup1\n      dup3\n      sstore\n      dup1\n      swap2\n      pop\n      pop\n      0x01\n      swap1\n      sub\n      swap1\n      0x00\n      mstore\n      keccak256(0x00, 0x20)\n      swap1\n      0x02\n      mul\n      add\n      0x00\n      swap1\n      swap2\n      swap1\n      swap2\n      swap1\n      swap2\n      pop\n      0x00\n      dup3\n      add\n      0x00\n      swap1\n      sload\n      swap1\n      0x0100\n      exp\n      swap1\n      div\n      0xffffffffffffffffffffffffffffffffffffffff\n      and\n      dup2\n      0x00\n      add\n      exp(0x0100, 0x00)\n      dup2\n      sload\n      dup2\n      0xffffffffffffffffffffffffffffffffffffffff\n      mul\n      not\n      and\n      swap1\n      dup4\n      0xffffffffffffffffffffffffffffffffffffffff\n      and\n      mul\n      or\n      swap1\n      sstore\n      pop\n      0x01\n      dup3\n      add\n      sload\n      dup2\n      0x01\n      add\n      sstore\n      pop\n      pop\n        /* \"contracts/OtroEjemploSubasta.sol\":2123:2133  10 minutes */\n      0x0258\n        /* \"contracts/OtroEjemploSubasta.sol\":2113:2120  endTime */\n      sload(0x02)\n        /* \"contracts/OtroEjemploSubasta.sol\":2113:2133  endTime - 10 minutes */\n      tag_144\n      swap2\n      swap1\n      tag_113\n      jump\t// in\n    tag_144:\n        /* \"contracts/OtroEjemploSubasta.sol\":2094:2109  block.timestamp */\n      timestamp\n        /* \"contracts/OtroEjemploSubasta.sol\":2094:2133  block.timestamp >= endTime - 10 minutes */\n      lt\n        /* \"contracts/OtroEjemploSubasta.sol\":2090:2224  if (block.timestamp >= endTime - 10 minutes) {... */\n      tag_145\n      jumpi\n        /* \"contracts/OtroEjemploSubasta.sol\":2160:2170  10 minutes */\n      0x0258\n        /* \"contracts/OtroEjemploSubasta.sol\":2149:2156  endTime */\n      0x02\n      0x00\n        /* \"contracts/OtroEjemploSubasta.sol\":2149:2170  endTime += 10 minutes */\n      dup3\n      dup3\n      sload\n      tag_146\n      swap2\n      swap1\n      tag_137\n      jump\t// in\n    tag_146:\n      swap3\n      pop\n      pop\n      dup2\n      swap1\n      sstore\n      pop\n        /* \"contracts/OtroEjemploSubasta.sol\":2189:2213  AuctionExtended(endTime) */\n      0xc2b459809119087ca9d2bc10dea53a51b7d848b1a11075db037bdca58292c3e8\n        /* \"contracts/OtroEjemploSubasta.sol\":2205:2212  endTime */\n      sload(0x02)\n        /* \"contracts/OtroEjemploSubasta.sol\":2189:2213  AuctionExtended(endTime) */\n      mload(0x40)\n      tag_147\n      swap2\n      swap1\n      tag_24\n      jump\t// in\n    tag_147:\n      mload(0x40)\n      dup1\n      swap2\n      sub\n      swap1\n      log1\n        /* \"contracts/OtroEjemploSubasta.sol\":2090:2224  if (block.timestamp >= endTime - 10 minutes) {... */\n    tag_145:\n        /* \"contracts/OtroEjemploSubasta.sol\":2246:2256  msg.sender */\n      caller\n        /* \"contracts/OtroEjemploSubasta.sol\":2239:2268  NewBid(msg.sender, msg.value) */\n      0xffffffffffffffffffffffffffffffffffffffff\n      and\n      0xdd0b6c6a77960e2066c96171b4d7ac9e8b4c184011f38544afa36a5bb63ec59f\n        /* \"contracts/OtroEjemploSubasta.sol\":2258:2267  msg.value */\n      callvalue\n        /* \"contracts/OtroEjemploSubasta.sol\":2239:2268  NewBid(msg.sender, msg.value) */\n      mload(0x40)\n      tag_148\n      swap2\n      swap1\n      tag_24\n      jump\t// in\n    tag_148:\n      mload(0x40)\n      dup1\n      swap2\n      sub\n      swap1\n      log2\n        /* \"contracts/OtroEjemploSubasta.sol\":1444:2275  {... */\n      pop\n        /* \"contracts/OtroEjemploSubasta.sol\":1395:2275  function placeBid() public payable onlyBeforeEnd {... */\n      jump\t// out\n        /* \"contracts/OtroEjemploSubasta.sol\":2582:2956  function finalizeAuction() public onlyAuctioneer onlyAfterEnd {... */\n    tag_78:\n        /* \"contracts/OtroEjemploSubasta.sol\":713:723  auctioneer */\n      0x00\n      dup1\n      sload\n      swap1\n      0x0100\n      exp\n      swap1\n      div\n      0xffffffffffffffffffffffffffffffffffffffff\n      and\n        /* \"contracts/OtroEjemploSubasta.sol\":699:723  msg.sender == auctioneer */\n      0xffffffffffffffffffffffffffffffffffffffff\n      and\n        /* \"contracts/OtroEjemploSubasta.sol\":699:709  msg.sender */\n      caller\n        /* \"contracts/OtroEjemploSubasta.sol\":699:723  msg.sender == auctioneer */\n      0xffffffffffffffffffffffffffffffffffffffff\n      and\n      eq\n        /* \"contracts/OtroEjemploSubasta.sol\":691:768  require(msg.sender == auctioneer, \"Only auctioneer can perform this action.\") */\n      tag_150\n      jumpi\n      mload(0x40)\n      0x08c379a000000000000000000000000000000000000000000000000000000000\n      dup2\n      mstore\n      0x04\n      add\n      tag_151\n      swap1\n      tag_152\n      jump\t// in\n    tag_151:\n      mload(0x40)\n      dup1\n      swap2\n      sub\n      swap1\n      revert\n    tag_150:\n        /* \"contracts/OtroEjemploSubasta.sol\":976:983  endTime */\n      sload(0x02)\n        /* \"contracts/OtroEjemploSubasta.sol\":957:972  block.timestamp */\n      timestamp\n        /* \"contracts/OtroEjemploSubasta.sol\":957:983  block.timestamp >= endTime */\n      lt\n      iszero\n        /* \"contracts/OtroEjemploSubasta.sol\":949:1013  require(block.timestamp >= endTime, \"Auction is still ongoing.\") */\n      tag_154\n      jumpi\n      mload(0x40)\n      0x08c379a000000000000000000000000000000000000000000000000000000000\n      dup2\n      mstore\n      0x04\n      add\n      tag_155\n      swap1\n      tag_100\n      jump\t// in\n    tag_155:\n      mload(0x40)\n      dup1\n      swap2\n      sub\n      swap1\n      revert\n    tag_154:\n        /* \"contracts/OtroEjemploSubasta.sol\":2663:2675  auctionEnded */\n      0x05\n      0x00\n      swap1\n      sload\n      swap1\n      0x0100\n      exp\n      swap1\n      div\n      0xff\n      and\n        /* \"contracts/OtroEjemploSubasta.sol\":2662:2675  !auctionEnded */\n      iszero\n        /* \"contracts/OtroEjemploSubasta.sol\":2654:2715  require(!auctionEnded, \"Auction has already been finalized.\") */\n      tag_157\n      jumpi\n      mload(0x40)\n      0x08c379a000000000000000000000000000000000000000000000000000000000\n      dup2\n      mstore\n      0x04\n      add\n      tag_158\n      swap1\n      tag_159\n      jump\t// in\n    tag_158:\n      mload(0x40)\n      dup1\n      swap2\n      sub\n      swap1\n      revert\n    tag_157:\n        /* \"contracts/OtroEjemploSubasta.sol\":2740:2744  true */\n      0x01\n        /* \"contracts/OtroEjemploSubasta.sol\":2725:2737  auctionEnded */\n      0x05\n      0x00\n        /* \"contracts/OtroEjemploSubasta.sol\":2725:2744  auctionEnded = true */\n      0x0100\n      exp\n      dup2\n      sload\n      dup2\n      0xff\n      mul\n      not\n      and\n      swap1\n      dup4\n      iszero\n      iszero\n      mul\n      or\n      swap1\n      sstore\n      pop\n        /* \"contracts/OtroEjemploSubasta.sol\":2763:2774  uint gasFee */\n      0x00\n        /* \"contracts/OtroEjemploSubasta.sol\":2815:2818  100 */\n      0x64\n        /* \"contracts/OtroEjemploSubasta.sol\":2798:2811  gasFeePercent */\n      sload(0x04)\n        /* \"contracts/OtroEjemploSubasta.sol\":2778:2788  highestBid */\n      0x06\n        /* \"contracts/OtroEjemploSubasta.sol\":2778:2795  highestBid.amount */\n      0x01\n      add\n      sload\n        /* \"contracts/OtroEjemploSubasta.sol\":2778:2811  highestBid.amount * gasFeePercent */\n      tag_160\n      swap2\n      swap1\n      tag_109\n      jump\t// in\n    tag_160:\n        /* \"contracts/OtroEjemploSubasta.sol\":2777:2818  (highestBid.amount * gasFeePercent) / 100 */\n      tag_161\n      swap2\n      swap1\n      tag_111\n      jump\t// in\n    tag_161:\n        /* \"contracts/OtroEjemploSubasta.sol\":2763:2818  uint gasFee = (highestBid.amount * gasFeePercent) / 100 */\n      swap1\n      pop\n        /* \"contracts/OtroEjemploSubasta.sol\":2828:2838  auctioneer */\n      0x00\n      dup1\n      sload\n      swap1\n      0x0100\n      exp\n      swap1\n      div\n      0xffffffffffffffffffffffffffffffffffffffff\n      and\n        /* \"contracts/OtroEjemploSubasta.sol\":2828:2847  auctioneer.transfer */\n      0xffffffffffffffffffffffffffffffffffffffff\n      and\n        /* \"contracts/OtroEjemploSubasta.sol\":2828:2875  auctioneer.transfer(highestBid.amount - gasFee) */\n      0x08fc\n        /* \"contracts/OtroEjemploSubasta.sol\":2868:2874  gasFee */\n      dup3\n        /* \"contracts/OtroEjemploSubasta.sol\":2848:2858  highestBid */\n      0x06\n        /* \"contracts/OtroEjemploSubasta.sol\":2848:2865  highestBid.amount */\n      0x01\n      add\n      sload\n        /* \"contracts/OtroEjemploSubasta.sol\":2848:2874  highestBid.amount - gasFee */\n      tag_162\n      swap2\n      swap1\n      tag_113\n      jump\t// in\n    tag_162:\n        /* \"contracts/OtroEjemploSubasta.sol\":2828:2875  auctioneer.transfer(highestBid.amount - gasFee) */\n      swap1\n      dup2\n      iszero\n      mul\n      swap1\n      mload(0x40)\n      0x00\n      mload(0x40)\n      dup1\n      dup4\n      sub\n      dup2\n      dup6\n      dup9\n      dup9\n      call\n      swap4\n      pop\n      pop\n      pop\n      pop\n      iszero\n      dup1\n      iszero\n      tag_164\n      jumpi\n      returndatasize\n      0x00\n      dup1\n      returndatacopy\n      revert(0x00, returndatasize)\n    tag_164:\n      pop\n        /* \"contracts/OtroEjemploSubasta.sol\":2899:2949  AuctionEnded(highestBid.bidder, highestBid.amount) */\n      0xdaec4582d5d9595688c8c98545fdd1c696d41c6aeaeb636737e84ed2f5c00eda\n        /* \"contracts/OtroEjemploSubasta.sol\":2912:2922  highestBid */\n      0x06\n        /* \"contracts/OtroEjemploSubasta.sol\":2912:2929  highestBid.bidder */\n      0x00\n      add\n      0x00\n      swap1\n      sload\n      swap1\n      0x0100\n      exp\n      swap1\n      div\n      0xffffffffffffffffffffffffffffffffffffffff\n      and\n        /* \"contracts/OtroEjemploSubasta.sol\":2931:2941  highestBid */\n      0x06\n        /* \"contracts/OtroEjemploSubasta.sol\":2931:2948  highestBid.amount */\n      0x01\n      add\n      sload\n        /* \"contracts/OtroEjemploSubasta.sol\":2899:2949  AuctionEnded(highestBid.bidder, highestBid.amount) */\n      mload(0x40)\n      tag_165\n      swap3\n      swap2\n      swap1\n      tag_166\n      jump\t// in\n    tag_165:\n      mload(0x40)\n      dup1\n      swap2\n      sub\n      swap1\n      log1\n        /* \"contracts/OtroEjemploSubasta.sol\":2644:2956  {... */\n      pop\n        /* \"contracts/OtroEjemploSubasta.sol\":2582:2956  function finalizeAuction() public onlyAuctioneer onlyAfterEnd {... */\n      jump\t// out\n        /* \"contracts/OtroEjemploSubasta.sol\":417:457  mapping(address => uint) public deposits */\n    tag_83:\n      mstore(0x20, 0x08)\n      dup1\n      0x00\n      mstore\n      keccak256(0x00, 0x40)\n      0x00\n      swap2\n      pop\n      swap1\n      pop\n      sload\n      dup2\n      jump\t// out\n        /* \"#utility.yul\":7:84   */\n    tag_167:\n        /* \"#utility.yul\":44:51   */\n      0x00\n        /* \"#utility.yul\":73:78   */\n      dup2\n        /* \"#utility.yul\":62:78   */\n      swap1\n      pop\n        /* \"#utility.yul\":7:84   */\n      swap2\n      swap1\n      pop\n      jump\t// out\n        /* \"#utility.yul\":90:208   */\n    tag_168:\n        /* \"#utility.yul\":177:201   */\n      tag_223\n        /* \"#utility.yul\":195:200   */\n      dup2\n        /* \"#utility.yul\":177:201   */\n      tag_167\n      jump\t// in\n    tag_223:\n        /* \"#utility.yul\":172:175   */\n      dup3\n        /* \"#utility.yul\":165:202   */\n      mstore\n        /* \"#utility.yul\":90:208   */\n      pop\n      pop\n      jump\t// out\n        /* \"#utility.yul\":214:436   */\n    tag_24:\n        /* \"#utility.yul\":307:311   */\n      0x00\n        /* \"#utility.yul\":345:347   */\n      0x20\n        /* \"#utility.yul\":334:343   */\n      dup3\n        /* \"#utility.yul\":330:348   */\n      add\n        /* \"#utility.yul\":322:348   */\n      swap1\n      pop\n        /* \"#utility.yul\":358:429   */\n      tag_225\n        /* \"#utility.yul\":426:427   */\n      0x00\n        /* \"#utility.yul\":415:424   */\n      dup4\n        /* \"#utility.yul\":411:428   */\n      add\n        /* \"#utility.yul\":402:408   */\n      dup5\n        /* \"#utility.yul\":358:429   */\n      tag_168\n      jump\t// in\n    tag_225:\n        /* \"#utility.yul\":214:436   */\n      swap3\n      swap2\n      pop\n      pop\n      jump\t// out\n        /* \"#utility.yul\":523:640   */\n    tag_170:\n        /* \"#utility.yul\":632:633   */\n      0x00\n        /* \"#utility.yul\":629:630   */\n      dup1\n        /* \"#utility.yul\":622:634   */\n      revert\n        /* \"#utility.yul\":769:891   */\n    tag_172:\n        /* \"#utility.yul\":842:866   */\n      tag_230\n        /* \"#utility.yul\":860:865   */\n      dup2\n        /* \"#utility.yul\":842:866   */\n      tag_167\n      jump\t// in\n    tag_230:\n        /* \"#utility.yul\":835:840   */\n      dup2\n        /* \"#utility.yul\":832:867   */\n      eq\n        /* \"#utility.yul\":822:885   */\n      tag_231\n      jumpi\n        /* \"#utility.yul\":881:882   */\n      0x00\n        /* \"#utility.yul\":878:879   */\n      dup1\n        /* \"#utility.yul\":871:883   */\n      revert\n        /* \"#utility.yul\":822:885   */\n    tag_231:\n        /* \"#utility.yul\":769:891   */\n      pop\n      jump\t// out\n        /* \"#utility.yul\":897:1036   */\n    tag_173:\n        /* \"#utility.yul\":943:948   */\n      0x00\n        /* \"#utility.yul\":981:987   */\n      dup2\n        /* \"#utility.yul\":968:988   */\n      calldataload\n        /* \"#utility.yul\":959:988   */\n      swap1\n      pop\n        /* \"#utility.yul\":997:1030   */\n      tag_233\n        /* \"#utility.yul\":1024:1029   */\n      dup2\n        /* \"#utility.yul\":997:1030   */\n      tag_172\n      jump\t// in\n    tag_233:\n        /* \"#utility.yul\":897:1036   */\n      swap3\n      swap2\n      pop\n      pop\n      jump\t// out\n        /* \"#utility.yul\":1042:1371   */\n    tag_28:\n        /* \"#utility.yul\":1101:1107   */\n      0x00\n        /* \"#utility.yul\":1150:1152   */\n      0x20\n        /* \"#utility.yul\":1138:1147   */\n      dup3\n        /* \"#utility.yul\":1129:1136   */\n      dup5\n        /* \"#utility.yul\":1125:1148   */\n      sub\n        /* \"#utility.yul\":1121:1153   */\n      slt\n        /* \"#utility.yul\":1118:1237   */\n      iszero\n      tag_235\n      jumpi\n        /* \"#utility.yul\":1156:1235   */\n      tag_236\n      tag_170\n      jump\t// in\n    tag_236:\n        /* \"#utility.yul\":1118:1237   */\n    tag_235:\n        /* \"#utility.yul\":1276:1277   */\n      0x00\n        /* \"#utility.yul\":1301:1354   */\n      tag_237\n        /* \"#utility.yul\":1346:1353   */\n      dup5\n        /* \"#utility.yul\":1337:1343   */\n      dup3\n        /* \"#utility.yul\":1326:1335   */\n      dup6\n        /* \"#utility.yul\":1322:1344   */\n      add\n        /* \"#utility.yul\":1301:1354   */\n      tag_173\n      jump\t// in\n    tag_237:\n        /* \"#utility.yul\":1291:1354   */\n      swap2\n      pop\n        /* \"#utility.yul\":1247:1364   */\n      pop\n        /* \"#utility.yul\":1042:1371   */\n      swap3\n      swap2\n      pop\n      pop\n      jump\t// out\n        /* \"#utility.yul\":1377:1503   */\n    tag_174:\n        /* \"#utility.yul\":1414:1421   */\n      0x00\n        /* \"#utility.yul\":1454:1496   */\n      0xffffffffffffffffffffffffffffffffffffffff\n        /* \"#utility.yul\":1447:1452   */\n      dup3\n        /* \"#utility.yul\":1443:1497   */\n      and\n        /* \"#utility.yul\":1432:1497   */\n      swap1\n      pop\n        /* \"#utility.yul\":1377:1503   */\n      swap2\n      swap1\n      pop\n      jump\t// out\n        /* \"#utility.yul\":1509:1613   */\n    tag_175:\n        /* \"#utility.yul\":1554:1561   */\n      0x00\n        /* \"#utility.yul\":1583:1607   */\n      tag_240\n        /* \"#utility.yul\":1601:1606   */\n      dup3\n        /* \"#utility.yul\":1583:1607   */\n      tag_174\n      jump\t// in\n    tag_240:\n        /* \"#utility.yul\":1572:1607   */\n      swap1\n      pop\n        /* \"#utility.yul\":1509:1613   */\n      swap2\n      swap1\n      pop\n      jump\t// out\n        /* \"#utility.yul\":1619:1761   */\n    tag_176:\n        /* \"#utility.yul\":1722:1754   */\n      tag_242\n        /* \"#utility.yul\":1748:1753   */\n      dup2\n        /* \"#utility.yul\":1722:1754   */\n      tag_175\n      jump\t// in\n    tag_242:\n        /* \"#utility.yul\":1717:1720   */\n      dup3\n        /* \"#utility.yul\":1710:1755   */\n      mstore\n        /* \"#utility.yul\":1619:1761   */\n      pop\n      pop\n      jump\t// out\n        /* \"#utility.yul\":1767:2131   */\n    tag_31:\n        /* \"#utility.yul\":1904:1908   */\n      0x00\n        /* \"#utility.yul\":1942:1944   */\n      0x40\n        /* \"#utility.yul\":1931:1940   */\n      dup3\n        /* \"#utility.yul\":1927:1945   */\n      add\n        /* \"#utility.yul\":1919:1945   */\n      swap1\n      pop\n        /* \"#utility.yul\":1955:2042   */\n      tag_244\n        /* \"#utility.yul\":2039:2040   */\n      0x00\n        /* \"#utility.yul\":2028:2037   */\n      dup4\n        /* \"#utility.yul\":2024:2041   */\n      add\n        /* \"#utility.yul\":2015:2021   */\n      dup6\n        /* \"#utility.yul\":1955:2042   */\n      tag_176\n      jump\t// in\n    tag_244:\n        /* \"#utility.yul\":2052:2124   */\n      tag_245\n        /* \"#utility.yul\":2120:2122   */\n      0x20\n        /* \"#utility.yul\":2109:2118   */\n      dup4\n        /* \"#utility.yul\":2105:2123   */\n      add\n        /* \"#utility.yul\":2096:2102   */\n      dup5\n        /* \"#utility.yul\":2052:2124   */\n      tag_168\n      jump\t// in\n    tag_245:\n        /* \"#utility.yul\":1767:2131   */\n      swap4\n      swap3\n      pop\n      pop\n      pop\n      jump\t// out\n        /* \"#utility.yul\":2137:2391   */\n    tag_39:\n        /* \"#utility.yul\":2246:2250   */\n      0x00\n        /* \"#utility.yul\":2284:2286   */\n      0x20\n        /* \"#utility.yul\":2273:2282   */\n      dup3\n        /* \"#utility.yul\":2269:2287   */\n      add\n        /* \"#utility.yul\":2261:2287   */\n      swap1\n      pop\n        /* \"#utility.yul\":2297:2384   */\n      tag_247\n        /* \"#utility.yul\":2381:2382   */\n      0x00\n        /* \"#utility.yul\":2370:2379   */\n      dup4\n        /* \"#utility.yul\":2366:2383   */\n      add\n        /* \"#utility.yul\":2357:2363   */\n      dup5\n        /* \"#utility.yul\":2297:2384   */\n      tag_176\n      jump\t// in\n    tag_247:\n        /* \"#utility.yul\":2137:2391   */\n      swap3\n      swap2\n      pop\n      pop\n      jump\t// out\n        /* \"#utility.yul\":2397:2487   */\n    tag_177:\n        /* \"#utility.yul\":2431:2438   */\n      0x00\n        /* \"#utility.yul\":2474:2479   */\n      dup2\n        /* \"#utility.yul\":2467:2480   */\n      iszero\n        /* \"#utility.yul\":2460:2481   */\n      iszero\n        /* \"#utility.yul\":2449:2481   */\n      swap1\n      pop\n        /* \"#utility.yul\":2397:2487   */\n      swap2\n      swap1\n      pop\n      jump\t// out\n        /* \"#utility.yul\":2493:2602   */\n    tag_178:\n        /* \"#utility.yul\":2574:2595   */\n      tag_250\n        /* \"#utility.yul\":2589:2594   */\n      dup2\n        /* \"#utility.yul\":2574:2595   */\n      tag_177\n      jump\t// in\n    tag_250:\n        /* \"#utility.yul\":2569:2572   */\n      dup3\n        /* \"#utility.yul\":2562:2596   */\n      mstore\n        /* \"#utility.yul\":2493:2602   */\n      pop\n      pop\n      jump\t// out\n        /* \"#utility.yul\":2608:2818   */\n    tag_51:\n        /* \"#utility.yul\":2695:2699   */\n      0x00\n        /* \"#utility.yul\":2733:2735   */\n      0x20\n        /* \"#utility.yul\":2722:2731   */\n      dup3\n        /* \"#utility.yul\":2718:2736   */\n      add\n        /* \"#utility.yul\":2710:2736   */\n      swap1\n      pop\n        /* \"#utility.yul\":2746:2811   */\n      tag_252\n        /* \"#utility.yul\":2808:2809   */\n      0x00\n        /* \"#utility.yul\":2797:2806   */\n      dup4\n        /* \"#utility.yul\":2793:2810   */\n      add\n        /* \"#utility.yul\":2784:2790   */\n      dup5\n        /* \"#utility.yul\":2746:2811   */\n      tag_178\n      jump\t// in\n    tag_252:\n        /* \"#utility.yul\":2608:2818   */\n      swap3\n      swap2\n      pop\n      pop\n      jump\t// out\n        /* \"#utility.yul\":2824:2920   */\n    tag_179:\n        /* \"#utility.yul\":2861:2868   */\n      0x00\n        /* \"#utility.yul\":2890:2914   */\n      tag_254\n        /* \"#utility.yul\":2908:2913   */\n      dup3\n        /* \"#utility.yul\":2890:2914   */\n      tag_174\n      jump\t// in\n    tag_254:\n        /* \"#utility.yul\":2879:2914   */\n      swap1\n      pop\n        /* \"#utility.yul\":2824:2920   */\n      swap2\n      swap1\n      pop\n      jump\t// out\n        /* \"#utility.yul\":2926:3044   */\n    tag_180:\n        /* \"#utility.yul\":3013:3037   */\n      tag_256\n        /* \"#utility.yul\":3031:3036   */\n      dup2\n        /* \"#utility.yul\":3013:3037   */\n      tag_179\n      jump\t// in\n    tag_256:\n        /* \"#utility.yul\":3008:3011   */\n      dup3\n        /* \"#utility.yul\":3001:3038   */\n      mstore\n        /* \"#utility.yul\":2926:3044   */\n      pop\n      pop\n      jump\t// out\n        /* \"#utility.yul\":3050:3382   */\n    tag_64:\n        /* \"#utility.yul\":3171:3175   */\n      0x00\n        /* \"#utility.yul\":3209:3211   */\n      0x40\n        /* \"#utility.yul\":3198:3207   */\n      dup3\n        /* \"#utility.yul\":3194:3212   */\n      add\n        /* \"#utility.yul\":3186:3212   */\n      swap1\n      pop\n        /* \"#utility.yul\":3222:3293   */\n      tag_258\n        /* \"#utility.yul\":3290:3291   */\n      0x00\n        /* \"#utility.yul\":3279:3288   */\n      dup4\n        /* \"#utility.yul\":3275:3292   */\n      add\n        /* \"#utility.yul\":3266:3272   */\n      dup6\n        /* \"#utility.yul\":3222:3293   */\n      tag_180\n      jump\t// in\n    tag_258:\n        /* \"#utility.yul\":3303:3375   */\n      tag_259\n        /* \"#utility.yul\":3371:3373   */\n      0x20\n        /* \"#utility.yul\":3360:3369   */\n      dup4\n        /* \"#utility.yul\":3356:3374   */\n      add\n        /* \"#utility.yul\":3347:3353   */\n      dup5\n        /* \"#utility.yul\":3303:3375   */\n      tag_168\n      jump\t// in\n    tag_259:\n        /* \"#utility.yul\":3050:3382   */\n      swap4\n      swap3\n      pop\n      pop\n      pop\n      jump\t// out\n        /* \"#utility.yul\":3388:3521   */\n    tag_181:\n        /* \"#utility.yul\":3474:3480   */\n      0x00\n        /* \"#utility.yul\":3508:3513   */\n      dup2\n        /* \"#utility.yul\":3502:3514   */\n      mload\n        /* \"#utility.yul\":3492:3514   */\n      swap1\n      pop\n        /* \"#utility.yul\":3388:3521   */\n      swap2\n      swap1\n      pop\n      jump\t// out\n        /* \"#utility.yul\":3527:3730   */\n    tag_182:\n        /* \"#utility.yul\":3645:3656   */\n      0x00\n        /* \"#utility.yul\":3679:3685   */\n      dup3\n        /* \"#utility.yul\":3674:3677   */\n      dup3\n        /* \"#utility.yul\":3667:3686   */\n      mstore\n        /* \"#utility.yul\":3719:3723   */\n      0x20\n        /* \"#utility.yul\":3714:3717   */\n      dup3\n        /* \"#utility.yul\":3710:3724   */\n      add\n        /* \"#utility.yul\":3695:3724   */\n      swap1\n      pop\n        /* \"#utility.yul\":3527:3730   */\n      swap3\n      swap2\n      pop\n      pop\n      jump\t// out\n        /* \"#utility.yul\":3736:3887   */\n    tag_183:\n        /* \"#utility.yul\":3822:3826   */\n      0x00\n        /* \"#utility.yul\":3845:3848   */\n      dup2\n        /* \"#utility.yul\":3837:3848   */\n      swap1\n      pop\n        /* \"#utility.yul\":3875:3879   */\n      0x20\n        /* \"#utility.yul\":3870:3873   */\n      dup3\n        /* \"#utility.yul\":3866:3880   */\n      add\n        /* \"#utility.yul\":3858:3880   */\n      swap1\n      pop\n        /* \"#utility.yul\":3736:3887   */\n      swap2\n      swap1\n      pop\n      jump\t// out\n        /* \"#utility.yul\":3893:4025   */\n    tag_184:\n        /* \"#utility.yul\":3986:4018   */\n      tag_264\n        /* \"#utility.yul\":4012:4017   */\n      dup2\n        /* \"#utility.yul\":3986:4018   */\n      tag_175\n      jump\t// in\n    tag_264:\n        /* \"#utility.yul\":3981:3984   */\n      dup3\n        /* \"#utility.yul\":3974:4019   */\n      mstore\n        /* \"#utility.yul\":3893:4025   */\n      pop\n      pop\n      jump\t// out\n        /* \"#utility.yul\":4031:4139   */\n    tag_185:\n        /* \"#utility.yul\":4108:4132   */\n      tag_266\n        /* \"#utility.yul\":4126:4131   */\n      dup2\n        /* \"#utility.yul\":4108:4132   */\n      tag_167\n      jump\t// in\n    tag_266:\n        /* \"#utility.yul\":4103:4106   */\n      dup3\n        /* \"#utility.yul\":4096:4133   */\n      mstore\n        /* \"#utility.yul\":4031:4139   */\n      pop\n      pop\n      jump\t// out\n        /* \"#utility.yul\":4193:4698   */\n    tag_186:\n        /* \"#utility.yul\":4318:4322   */\n      0x40\n        /* \"#utility.yul\":4313:4316   */\n      dup3\n        /* \"#utility.yul\":4309:4323   */\n      add\n        /* \"#utility.yul\":4407:4411   */\n      0x00\n        /* \"#utility.yul\":4400:4405   */\n      dup3\n        /* \"#utility.yul\":4396:4412   */\n      add\n        /* \"#utility.yul\":4390:4413   */\n      mload\n        /* \"#utility.yul\":4426:4505   */\n      tag_268\n        /* \"#utility.yul\":4499:4503   */\n      0x00\n        /* \"#utility.yul\":4494:4497   */\n      dup6\n        /* \"#utility.yul\":4490:4504   */\n      add\n        /* \"#utility.yul\":4476:4488   */\n      dup3\n        /* \"#utility.yul\":4426:4505   */\n      tag_184\n      jump\t// in\n    tag_268:\n        /* \"#utility.yul\":4333:4515   */\n      pop\n        /* \"#utility.yul\":4599:4603   */\n      0x20\n        /* \"#utility.yul\":4592:4597   */\n      dup3\n        /* \"#utility.yul\":4588:4604   */\n      add\n        /* \"#utility.yul\":4582:4605   */\n      mload\n        /* \"#utility.yul\":4618:4681   */\n      tag_269\n        /* \"#utility.yul\":4675:4679   */\n      0x20\n        /* \"#utility.yul\":4670:4673   */\n      dup6\n        /* \"#utility.yul\":4666:4680   */\n      add\n        /* \"#utility.yul\":4652:4664   */\n      dup3\n        /* \"#utility.yul\":4618:4681   */\n      tag_185\n      jump\t// in\n    tag_269:\n        /* \"#utility.yul\":4525:4691   */\n      pop\n        /* \"#utility.yul\":4287:4698   */\n      pop\n        /* \"#utility.yul\":4193:4698   */\n      pop\n      pop\n      jump\t// out\n        /* \"#utility.yul\":4704:4959   */\n    tag_187:\n        /* \"#utility.yul\":4811:4821   */\n      0x00\n        /* \"#utility.yul\":4832:4916   */\n      tag_271\n        /* \"#utility.yul\":4912:4915   */\n      dup4\n        /* \"#utility.yul\":4904:4910   */\n      dup4\n        /* \"#utility.yul\":4832:4916   */\n      tag_186\n      jump\t// in\n    tag_271:\n        /* \"#utility.yul\":4948:4952   */\n      0x40\n        /* \"#utility.yul\":4943:4946   */\n      dup4\n        /* \"#utility.yul\":4939:4953   */\n      add\n        /* \"#utility.yul\":4925:4953   */\n      swap1\n      pop\n        /* \"#utility.yul\":4704:4959   */\n      swap3\n      swap2\n      pop\n      pop\n      jump\t// out\n        /* \"#utility.yul\":4965:5097   */\n    tag_188:\n        /* \"#utility.yul\":5054:5058   */\n      0x00\n        /* \"#utility.yul\":5086:5090   */\n      0x20\n        /* \"#utility.yul\":5081:5084   */\n      dup3\n        /* \"#utility.yul\":5077:5091   */\n      add\n        /* \"#utility.yul\":5069:5091   */\n      swap1\n      pop\n        /* \"#utility.yul\":4965:5097   */\n      swap2\n      swap1\n      pop\n      jump\t// out\n        /* \"#utility.yul\":5155:6039   */\n    tag_189:\n        /* \"#utility.yul\":5312:5315   */\n      0x00\n        /* \"#utility.yul\":5341:5414   */\n      tag_274\n        /* \"#utility.yul\":5408:5413   */\n      dup3\n        /* \"#utility.yul\":5341:5414   */\n      tag_181\n      jump\t// in\n    tag_274:\n        /* \"#utility.yul\":5430:5535   */\n      tag_275\n        /* \"#utility.yul\":5528:5534   */\n      dup2\n        /* \"#utility.yul\":5523:5526   */\n      dup6\n        /* \"#utility.yul\":5430:5535   */\n      tag_182\n      jump\t// in\n    tag_275:\n        /* \"#utility.yul\":5423:5535   */\n      swap4\n      pop\n        /* \"#utility.yul\":5559:5634   */\n      tag_276\n        /* \"#utility.yul\":5628:5633   */\n      dup4\n        /* \"#utility.yul\":5559:5634   */\n      tag_183\n      jump\t// in\n    tag_276:\n        /* \"#utility.yul\":5657:5664   */\n      dup1\n        /* \"#utility.yul\":5688:5689   */\n      0x00\n        /* \"#utility.yul\":5673:6014   */\n    tag_277:\n        /* \"#utility.yul\":5698:5704   */\n      dup4\n        /* \"#utility.yul\":5695:5696   */\n      dup2\n        /* \"#utility.yul\":5692:5705   */\n      lt\n        /* \"#utility.yul\":5673:6014   */\n      iszero\n      tag_279\n      jumpi\n        /* \"#utility.yul\":5774:5780   */\n      dup2\n        /* \"#utility.yul\":5768:5781   */\n      mload\n        /* \"#utility.yul\":5801:5902   */\n      tag_280\n        /* \"#utility.yul\":5898:5901   */\n      dup9\n        /* \"#utility.yul\":5883:5896   */\n      dup3\n        /* \"#utility.yul\":5801:5902   */\n      tag_187\n      jump\t// in\n    tag_280:\n        /* \"#utility.yul\":5794:5902   */\n      swap8\n      pop\n        /* \"#utility.yul\":5925:6004   */\n      tag_281\n        /* \"#utility.yul\":5997:6003   */\n      dup4\n        /* \"#utility.yul\":5925:6004   */\n      tag_188\n      jump\t// in\n    tag_281:\n        /* \"#utility.yul\":5915:6004   */\n      swap3\n      pop\n        /* \"#utility.yul\":5733:6014   */\n      pop\n        /* \"#utility.yul\":5720:5721   */\n      0x01\n        /* \"#utility.yul\":5717:5718   */\n      dup2\n        /* \"#utility.yul\":5713:5722   */\n      add\n        /* \"#utility.yul\":5708:5722   */\n      swap1\n      pop\n        /* \"#utility.yul\":5673:6014   */\n      jump(tag_277)\n    tag_279:\n        /* \"#utility.yul\":5677:5691   */\n      pop\n        /* \"#utility.yul\":6030:6033   */\n      dup6\n        /* \"#utility.yul\":6023:6033   */\n      swap4\n      pop\n        /* \"#utility.yul\":5317:6039   */\n      pop\n      pop\n      pop\n        /* \"#utility.yul\":5155:6039   */\n      swap3\n      swap2\n      pop\n      pop\n      jump\t// out\n        /* \"#utility.yul\":6045:6494   */\n    tag_69:\n        /* \"#utility.yul\":6226:6230   */\n      0x00\n        /* \"#utility.yul\":6264:6266   */\n      0x20\n        /* \"#utility.yul\":6253:6262   */\n      dup3\n        /* \"#utility.yul\":6249:6267   */\n      add\n        /* \"#utility.yul\":6241:6267   */\n      swap1\n      pop\n        /* \"#utility.yul\":6313:6322   */\n      dup2\n        /* \"#utility.yul\":6307:6311   */\n      dup2\n        /* \"#utility.yul\":6303:6323   */\n      sub\n        /* \"#utility.yul\":6299:6300   */\n      0x00\n        /* \"#utility.yul\":6288:6297   */\n      dup4\n        /* \"#utility.yul\":6284:6301   */\n      add\n        /* \"#utility.yul\":6277:6324   */\n      mstore\n        /* \"#utility.yul\":6341:6487   */\n      tag_283\n        /* \"#utility.yul\":6482:6486   */\n      dup2\n        /* \"#utility.yul\":6473:6479   */\n      dup5\n        /* \"#utility.yul\":6341:6487   */\n      tag_189\n      jump\t// in\n    tag_283:\n        /* \"#utility.yul\":6333:6487   */\n      swap1\n      pop\n        /* \"#utility.yul\":6045:6494   */\n      swap3\n      swap2\n      pop\n      pop\n      jump\t// out\n        /* \"#utility.yul\":6500:6622   */\n    tag_190:\n        /* \"#utility.yul\":6573:6597   */\n      tag_285\n        /* \"#utility.yul\":6591:6596   */\n      dup2\n        /* \"#utility.yul\":6573:6597   */\n      tag_179\n      jump\t// in\n    tag_285:\n        /* \"#utility.yul\":6566:6571   */\n      dup2\n        /* \"#utility.yul\":6563:6598   */\n      eq\n        /* \"#utility.yul\":6553:6616   */\n      tag_286\n      jumpi\n        /* \"#utility.yul\":6612:6613   */\n      0x00\n        /* \"#utility.yul\":6609:6610   */\n      dup1\n        /* \"#utility.yul\":6602:6614   */\n      revert\n        /* \"#utility.yul\":6553:6616   */\n    tag_286:\n        /* \"#utility.yul\":6500:6622   */\n      pop\n      jump\t// out\n        /* \"#utility.yul\":6628:6767   */\n    tag_191:\n        /* \"#utility.yul\":6674:6679   */\n      0x00\n        /* \"#utility.yul\":6712:6718   */\n      dup2\n        /* \"#utility.yul\":6699:6719   */\n      calldataload\n        /* \"#utility.yul\":6690:6719   */\n      swap1\n      pop\n        /* \"#utility.yul\":6728:6761   */\n      tag_288\n        /* \"#utility.yul\":6755:6760   */\n      dup2\n        /* \"#utility.yul\":6728:6761   */\n      tag_190\n      jump\t// in\n    tag_288:\n        /* \"#utility.yul\":6628:6767   */\n      swap3\n      swap2\n      pop\n      pop\n      jump\t// out\n        /* \"#utility.yul\":6773:7102   */\n    tag_82:\n        /* \"#utility.yul\":6832:6838   */\n      0x00\n        /* \"#utility.yul\":6881:6883   */\n      0x20\n        /* \"#utility.yul\":6869:6878   */\n      dup3\n        /* \"#utility.yul\":6860:6867   */\n      dup5\n        /* \"#utility.yul\":6856:6879   */\n      sub\n        /* \"#utility.yul\":6852:6884   */\n      slt\n        /* \"#utility.yul\":6849:6968   */\n      iszero\n      tag_290\n      jumpi\n        /* \"#utility.yul\":6887:6966   */\n      tag_291\n      tag_170\n      jump\t// in\n    tag_291:\n        /* \"#utility.yul\":6849:6968   */\n    tag_290:\n        /* \"#utility.yul\":7007:7008   */\n      0x00\n        /* \"#utility.yul\":7032:7085   */\n      tag_292\n        /* \"#utility.yul\":7077:7084   */\n      dup5\n        /* \"#utility.yul\":7068:7074   */\n      dup3\n        /* \"#utility.yul\":7057:7066   */\n      dup6\n        /* \"#utility.yul\":7053:7075   */\n      add\n        /* \"#utility.yul\":7032:7085   */\n      tag_191\n      jump\t// in\n    tag_292:\n        /* \"#utility.yul\":7022:7085   */\n      swap2\n      pop\n        /* \"#utility.yul\":6978:7095   */\n      pop\n        /* \"#utility.yul\":6773:7102   */\n      swap3\n      swap2\n      pop\n      pop\n      jump\t// out\n        /* \"#utility.yul\":7108:7277   */\n    tag_192:\n        /* \"#utility.yul\":7192:7203   */\n      0x00\n        /* \"#utility.yul\":7226:7232   */\n      dup3\n        /* \"#utility.yul\":7221:7224   */\n      dup3\n        /* \"#utility.yul\":7214:7233   */\n      mstore\n        /* \"#utility.yul\":7266:7270   */\n      0x20\n        /* \"#utility.yul\":7261:7264   */\n      dup3\n        /* \"#utility.yul\":7257:7271   */\n      add\n        /* \"#utility.yul\":7242:7271   */\n      swap1\n      pop\n        /* \"#utility.yul\":7108:7277   */\n      swap3\n      swap2\n      pop\n      pop\n      jump\t// out\n        /* \"#utility.yul\":7283:7459   */\n    tag_193:\n        /* \"#utility.yul\":7423:7451   */\n      0x41756374696f6e2068617320616c726561647920656e6465642e000000000000\n        /* \"#utility.yul\":7419:7420   */\n      0x00\n        /* \"#utility.yul\":7411:7417   */\n      dup3\n        /* \"#utility.yul\":7407:7421   */\n      add\n        /* \"#utility.yul\":7400:7452   */\n      mstore\n        /* \"#utility.yul\":7283:7459   */\n      pop\n      jump\t// out\n        /* \"#utility.yul\":7465:7831   */\n    tag_194:\n        /* \"#utility.yul\":7607:7610   */\n      0x00\n        /* \"#utility.yul\":7628:7695   */\n      tag_296\n        /* \"#utility.yul\":7692:7694   */\n      0x1a\n        /* \"#utility.yul\":7687:7690   */\n      dup4\n        /* \"#utility.yul\":7628:7695   */\n      tag_192\n      jump\t// in\n    tag_296:\n        /* \"#utility.yul\":7621:7695   */\n      swap2\n      pop\n        /* \"#utility.yul\":7704:7797   */\n      tag_297\n        /* \"#utility.yul\":7793:7796   */\n      dup3\n        /* \"#utility.yul\":7704:7797   */\n      tag_193\n      jump\t// in\n    tag_297:\n        /* \"#utility.yul\":7822:7824   */\n      0x20\n        /* \"#utility.yul\":7817:7820   */\n      dup3\n        /* \"#utility.yul\":7813:7825   */\n      add\n        /* \"#utility.yul\":7806:7825   */\n      swap1\n      pop\n        /* \"#utility.yul\":7465:7831   */\n      swap2\n      swap1\n      pop\n      jump\t// out\n        /* \"#utility.yul\":7837:8256   */\n    tag_90:\n        /* \"#utility.yul\":8003:8007   */\n      0x00\n        /* \"#utility.yul\":8041:8043   */\n      0x20\n        /* \"#utility.yul\":8030:8039   */\n      dup3\n        /* \"#utility.yul\":8026:8044   */\n      add\n        /* \"#utility.yul\":8018:8044   */\n      swap1\n      pop\n        /* \"#utility.yul\":8090:8099   */\n      dup2\n        /* \"#utility.yul\":8084:8088   */\n      dup2\n        /* \"#utility.yul\":8080:8100   */\n      sub\n        /* \"#utility.yul\":8076:8077   */\n      0x00\n        /* \"#utility.yul\":8065:8074   */\n      dup4\n        /* \"#utility.yul\":8061:8078   */\n      add\n        /* \"#utility.yul\":8054:8101   */\n      mstore\n        /* \"#utility.yul\":8118:8249   */\n      tag_299\n        /* \"#utility.yul\":8244:8248   */\n      dup2\n        /* \"#utility.yul\":8118:8249   */\n      tag_194\n      jump\t// in\n    tag_299:\n        /* \"#utility.yul\":8110:8249   */\n      swap1\n      pop\n        /* \"#utility.yul\":7837:8256   */\n      swap2\n      swap1\n      pop\n      jump\t// out\n        /* \"#utility.yul\":8262:8442   */\n    tag_195:\n        /* \"#utility.yul\":8402:8434   */\n      0x4e6f2066756e647320617661696c61626c6520666f7220726566756e642e0000\n        /* \"#utility.yul\":8398:8399   */\n      0x00\n        /* \"#utility.yul\":8390:8396   */\n      dup3\n        /* \"#utility.yul\":8386:8400   */\n      add\n        /* \"#utility.yul\":8379:8435   */\n      mstore\n        /* \"#utility.yul\":8262:8442   */\n      pop\n      jump\t// out\n        /* \"#utility.yul\":8448:8814   */\n    tag_196:\n        /* \"#utility.yul\":8590:8593   */\n      0x00\n        /* \"#utility.yul\":8611:8678   */\n      tag_302\n        /* \"#utility.yul\":8675:8677   */\n      0x1e\n        /* \"#utility.yul\":8670:8673   */\n      dup4\n        /* \"#utility.yul\":8611:8678   */\n      tag_192\n      jump\t// in\n    tag_302:\n        /* \"#utility.yul\":8604:8678   */\n      swap2\n      pop\n        /* \"#utility.yul\":8687:8780   */\n      tag_303\n        /* \"#utility.yul\":8776:8779   */\n      dup3\n        /* \"#utility.yul\":8687:8780   */\n      tag_195\n      jump\t// in\n    tag_303:\n        /* \"#utility.yul\":8805:8807   */\n      0x20\n        /* \"#utility.yul\":8800:8803   */\n      dup3\n        /* \"#utility.yul\":8796:8808   */\n      add\n        /* \"#utility.yul\":8789:8808   */\n      swap1\n      pop\n        /* \"#utility.yul\":8448:8814   */\n      swap2\n      swap1\n      pop\n      jump\t// out\n        /* \"#utility.yul\":8820:9239   */\n    tag_94:\n        /* \"#utility.yul\":8986:8990   */\n      0x00\n        /* \"#utility.yul\":9024:9026   */\n      0x20\n        /* \"#utility.yul\":9013:9022   */\n      dup3\n        /* \"#utility.yul\":9009:9027   */\n      add\n        /* \"#utility.yul\":9001:9027   */\n      swap1\n      pop\n        /* \"#utility.yul\":9073:9082   */\n      dup2\n        /* \"#utility.yul\":9067:9071   */\n      dup2\n        /* \"#utility.yul\":9063:9083   */\n      sub\n        /* \"#utility.yul\":9059:9060   */\n      0x00\n        /* \"#utility.yul\":9048:9057   */\n      dup4\n        /* \"#utility.yul\":9044:9061   */\n      add\n        /* \"#utility.yul\":9037:9084   */\n      mstore\n        /* \"#utility.yul\":9101:9232   */\n      tag_305\n        /* \"#utility.yul\":9227:9231   */\n      dup2\n        /* \"#utility.yul\":9101:9232   */\n      tag_196\n      jump\t// in\n    tag_305:\n        /* \"#utility.yul\":9093:9232   */\n      swap1\n      pop\n        /* \"#utility.yul\":8820:9239   */\n      swap2\n      swap1\n      pop\n      jump\t// out\n        /* \"#utility.yul\":9245:9420   */\n    tag_197:\n        /* \"#utility.yul\":9385:9412   */\n      0x41756374696f6e206973207374696c6c206f6e676f696e672e00000000000000\n        /* \"#utility.yul\":9381:9382   */\n      0x00\n        /* \"#utility.yul\":9373:9379   */\n      dup3\n        /* \"#utility.yul\":9369:9383   */\n      add\n        /* \"#utility.yul\":9362:9413   */\n      mstore\n        /* \"#utility.yul\":9245:9420   */\n      pop\n      jump\t// out\n        /* \"#utility.yul\":9426:9792   */\n    tag_198:\n        /* \"#utility.yul\":9568:9571   */\n      0x00\n        /* \"#utility.yul\":9589:9656   */\n      tag_308\n        /* \"#utility.yul\":9653:9655   */\n      0x19\n        /* \"#utility.yul\":9648:9651   */\n      dup4\n        /* \"#utility.yul\":9589:9656   */\n      tag_192\n      jump\t// in\n    tag_308:\n        /* \"#utility.yul\":9582:9656   */\n      swap2\n      pop\n        /* \"#utility.yul\":9665:9758   */\n      tag_309\n        /* \"#utility.yul\":9754:9757   */\n      dup3\n        /* \"#utility.yul\":9665:9758   */\n      tag_197\n      jump\t// in\n    tag_309:\n        /* \"#utility.yul\":9783:9785   */\n      0x20\n        /* \"#utility.yul\":9778:9781   */\n      dup3\n        /* \"#utility.yul\":9774:9786   */\n      add\n        /* \"#utility.yul\":9767:9786   */\n      swap1\n      pop\n        /* \"#utility.yul\":9426:9792   */\n      swap2\n      swap1\n      pop\n      jump\t// out\n        /* \"#utility.yul\":9798:10217   */\n    tag_100:\n        /* \"#utility.yul\":9964:9968   */\n      0x00\n        /* \"#utility.yul\":10002:10004   */\n      0x20\n        /* \"#utility.yul\":9991:10000   */\n      dup3\n        /* \"#utility.yul\":9987:10005   */\n      add\n        /* \"#utility.yul\":9979:10005   */\n      swap1\n      pop\n        /* \"#utility.yul\":10051:10060   */\n      dup2\n        /* \"#utility.yul\":10045:10049   */\n      dup2\n        /* \"#utility.yul\":10041:10061   */\n      sub\n        /* \"#utility.yul\":10037:10038   */\n      0x00\n        /* \"#utility.yul\":10026:10035   */\n      dup4\n        /* \"#utility.yul\":10022:10039   */\n      add\n        /* \"#utility.yul\":10015:10062   */\n      mstore\n        /* \"#utility.yul\":10079:10210   */\n      tag_311\n        /* \"#utility.yul\":10205:10209   */\n      dup2\n        /* \"#utility.yul\":10079:10210   */\n      tag_198\n      jump\t// in\n    tag_311:\n        /* \"#utility.yul\":10071:10210   */\n      swap1\n      pop\n        /* \"#utility.yul\":9798:10217   */\n      swap2\n      swap1\n      pop\n      jump\t// out\n        /* \"#utility.yul\":10223:10399   */\n    tag_199:\n        /* \"#utility.yul\":10363:10391   */\n      0x41756374696f6e20686173206e6f7420656e646564207965742e000000000000\n        /* \"#utility.yul\":10359:10360   */\n      0x00\n        /* \"#utility.yul\":10351:10357   */\n      dup3\n        /* \"#utility.yul\":10347:10361   */\n      add\n        /* \"#utility.yul\":10340:10392   */\n      mstore\n        /* \"#utility.yul\":10223:10399   */\n      pop\n      jump\t// out\n        /* \"#utility.yul\":10405:10771   */\n    tag_200:\n        /* \"#utility.yul\":10547:10550   */\n      0x00\n        /* \"#utility.yul\":10568:10635   */\n      tag_314\n        /* \"#utility.yul\":10632:10634   */\n      0x1a\n        /* \"#utility.yul\":10627:10630   */\n      dup4\n        /* \"#utility.yul\":10568:10635   */\n      tag_192\n      jump\t// in\n    tag_314:\n        /* \"#utility.yul\":10561:10635   */\n      swap2\n      pop\n        /* \"#utility.yul\":10644:10737   */\n      tag_315\n        /* \"#utility.yul\":10733:10736   */\n      dup3\n        /* \"#utility.yul\":10644:10737   */\n      tag_199\n      jump\t// in\n    tag_315:\n        /* \"#utility.yul\":10762:10764   */\n      0x20\n        /* \"#utility.yul\":10757:10760   */\n      dup3\n        /* \"#utility.yul\":10753:10765   */\n      add\n        /* \"#utility.yul\":10746:10765   */\n      swap1\n      pop\n        /* \"#utility.yul\":10405:10771   */\n      swap2\n      swap1\n      pop\n      jump\t// out\n        /* \"#utility.yul\":10777:11196   */\n    tag_104:\n        /* \"#utility.yul\":10943:10947   */\n      0x00\n        /* \"#utility.yul\":10981:10983   */\n      0x20\n        /* \"#utility.yul\":10970:10979   */\n      dup3\n        /* \"#utility.yul\":10966:10984   */\n      add\n        /* \"#utility.yul\":10958:10984   */\n      swap1\n      pop\n        /* \"#utility.yul\":11030:11039   */\n      dup2\n        /* \"#utility.yul\":11024:11028   */\n      dup2\n        /* \"#utility.yul\":11020:11040   */\n      sub\n        /* \"#utility.yul\":11016:11017   */\n      0x00\n        /* \"#utility.yul\":11005:11014   */\n      dup4\n        /* \"#utility.yul\":11001:11018   */\n      add\n        /* \"#utility.yul\":10994:11041   */\n      mstore\n        /* \"#utility.yul\":11058:11189   */\n      tag_317\n        /* \"#utility.yul\":11184:11188   */\n      dup2\n        /* \"#utility.yul\":11058:11189   */\n      tag_200\n      jump\t// in\n    tag_317:\n        /* \"#utility.yul\":11050:11189   */\n      swap1\n      pop\n        /* \"#utility.yul\":10777:11196   */\n      swap2\n      swap1\n      pop\n      jump\t// out\n        /* \"#utility.yul\":11202:11372   */\n    tag_201:\n        /* \"#utility.yul\":11342:11364   */\n      0x4e6f20726566756e6420617661696c61626c652e000000000000000000000000\n        /* \"#utility.yul\":11338:11339   */\n      0x00\n        /* \"#utility.yul\":11330:11336   */\n      dup3\n        /* \"#utility.yul\":11326:11340   */\n      add\n        /* \"#utility.yul\":11319:11365   */\n      mstore\n        /* \"#utility.yul\":11202:11372   */\n      pop\n      jump\t// out\n        /* \"#utility.yul\":11378:11744   */\n    tag_202:\n        /* \"#utility.yul\":11520:11523   */\n      0x00\n        /* \"#utility.yul\":11541:11608   */\n      tag_320\n        /* \"#utility.yul\":11605:11607   */\n      0x14\n        /* \"#utility.yul\":11600:11603   */\n      dup4\n        /* \"#utility.yul\":11541:11608   */\n      tag_192\n      jump\t// in\n    tag_320:\n        /* \"#utility.yul\":11534:11608   */\n      swap2\n      pop\n        /* \"#utility.yul\":11617:11710   */\n      tag_321\n        /* \"#utility.yul\":11706:11709   */\n      dup3\n        /* \"#utility.yul\":11617:11710   */\n      tag_201\n      jump\t// in\n    tag_321:\n        /* \"#utility.yul\":11735:11737   */\n      0x20\n        /* \"#utility.yul\":11730:11733   */\n      dup3\n        /* \"#utility.yul\":11726:11738   */\n      add\n        /* \"#utility.yul\":11719:11738   */\n      swap1\n      pop\n        /* \"#utility.yul\":11378:11744   */\n      swap2\n      swap1\n      pop\n      jump\t// out\n        /* \"#utility.yul\":11750:12169   */\n    tag_107:\n        /* \"#utility.yul\":11916:11920   */\n      0x00\n        /* \"#utility.yul\":11954:11956   */\n      0x20\n        /* \"#utility.yul\":11943:11952   */\n      dup3\n        /* \"#utility.yul\":11939:11957   */\n      add\n        /* \"#utility.yul\":11931:11957   */\n      swap1\n      pop\n        /* \"#utility.yul\":12003:12012   */\n      dup2\n        /* \"#utility.yul\":11997:12001   */\n      dup2\n        /* \"#utility.yul\":11993:12013   */\n      sub\n        /* \"#utility.yul\":11989:11990   */\n      0x00\n        /* \"#utility.yul\":11978:11987   */\n      dup4\n        /* \"#utility.yul\":11974:11991   */\n      add\n        /* \"#utility.yul\":11967:12014   */\n      mstore\n        /* \"#utility.yul\":12031:12162   */\n      tag_323\n        /* \"#utility.yul\":12157:12161   */\n      dup2\n        /* \"#utility.yul\":12031:12162   */\n      tag_202\n      jump\t// in\n    tag_323:\n        /* \"#utility.yul\":12023:12162   */\n      swap1\n      pop\n        /* \"#utility.yul\":11750:12169   */\n      swap2\n      swap1\n      pop\n      jump\t// out\n        /* \"#utility.yul\":12175:12355   */\n    tag_203:\n        /* \"#utility.yul\":12223:12300   */\n      0x4e487b7100000000000000000000000000000000000000000000000000000000\n        /* \"#utility.yul\":12220:12221   */\n      0x00\n        /* \"#utility.yul\":12213:12301   */\n      mstore\n        /* \"#utility.yul\":12320:12324   */\n      0x11\n        /* \"#utility.yul\":12317:12318   */\n      0x04\n        /* \"#utility.yul\":12310:12325   */\n      mstore\n        /* \"#utility.yul\":12344:12348   */\n      0x24\n        /* \"#utility.yul\":12341:12342   */\n      0x00\n        /* \"#utility.yul\":12334:12349   */\n      revert\n        /* \"#utility.yul\":12361:12771   */\n    tag_109:\n        /* \"#utility.yul\":12401:12408   */\n      0x00\n        /* \"#utility.yul\":12424:12444   */\n      tag_326\n        /* \"#utility.yul\":12442:12443   */\n      dup3\n        /* \"#utility.yul\":12424:12444   */\n      tag_167\n      jump\t// in\n    tag_326:\n        /* \"#utility.yul\":12419:12444   */\n      swap2\n      pop\n        /* \"#utility.yul\":12458:12478   */\n      tag_327\n        /* \"#utility.yul\":12476:12477   */\n      dup4\n        /* \"#utility.yul\":12458:12478   */\n      tag_167\n      jump\t// in\n    tag_327:\n        /* \"#utility.yul\":12453:12478   */\n      swap3\n      pop\n        /* \"#utility.yul\":12513:12514   */\n      dup3\n        /* \"#utility.yul\":12510:12511   */\n      dup3\n        /* \"#utility.yul\":12506:12515   */\n      mul\n        /* \"#utility.yul\":12535:12565   */\n      tag_328\n        /* \"#utility.yul\":12553:12564   */\n      dup2\n        /* \"#utility.yul\":12535:12565   */\n      tag_167\n      jump\t// in\n    tag_328:\n        /* \"#utility.yul\":12524:12565   */\n      swap2\n      pop\n        /* \"#utility.yul\":12714:12715   */\n      dup3\n        /* \"#utility.yul\":12705:12712   */\n      dup3\n        /* \"#utility.yul\":12701:12716   */\n      div\n        /* \"#utility.yul\":12698:12699   */\n      dup5\n        /* \"#utility.yul\":12695:12717   */\n      eq\n        /* \"#utility.yul\":12675:12676   */\n      dup4\n        /* \"#utility.yul\":12668:12677   */\n      iszero\n        /* \"#utility.yul\":12648:12731   */\n      or\n        /* \"#utility.yul\":12625:12764   */\n      tag_329\n      jumpi\n        /* \"#utility.yul\":12744:12762   */\n      tag_330\n      tag_203\n      jump\t// in\n    tag_330:\n        /* \"#utility.yul\":12625:12764   */\n    tag_329:\n        /* \"#utility.yul\":12409:12771   */\n      pop\n        /* \"#utility.yul\":12361:12771   */\n      swap3\n      swap2\n      pop\n      pop\n      jump\t// out\n        /* \"#utility.yul\":12777:12957   */\n    tag_204:\n        /* \"#utility.yul\":12825:12902   */\n      0x4e487b7100000000000000000000000000000000000000000000000000000000\n        /* \"#utility.yul\":12822:12823   */\n      0x00\n        /* \"#utility.yul\":12815:12903   */\n      mstore\n        /* \"#utility.yul\":12922:12926   */\n      0x12\n        /* \"#utility.yul\":12919:12920   */\n      0x04\n        /* \"#utility.yul\":12912:12927   */\n      mstore\n        /* \"#utility.yul\":12946:12950   */\n      0x24\n        /* \"#utility.yul\":12943:12944   */\n      0x00\n        /* \"#utility.yul\":12936:12951   */\n      revert\n        /* \"#utility.yul\":12963:13148   */\n    tag_111:\n        /* \"#utility.yul\":13003:13004   */\n      0x00\n        /* \"#utility.yul\":13020:13040   */\n      tag_333\n        /* \"#utility.yul\":13038:13039   */\n      dup3\n        /* \"#utility.yul\":13020:13040   */\n      tag_167\n      jump\t// in\n    tag_333:\n        /* \"#utility.yul\":13015:13040   */\n      swap2\n      pop\n        /* \"#utility.yul\":13054:13074   */\n      tag_334\n        /* \"#utility.yul\":13072:13073   */\n      dup4\n        /* \"#utility.yul\":13054:13074   */\n      tag_167\n      jump\t// in\n    tag_334:\n        /* \"#utility.yul\":13049:13074   */\n      swap3\n      pop\n        /* \"#utility.yul\":13093:13094   */\n      dup3\n        /* \"#utility.yul\":13083:13118   */\n      tag_335\n      jumpi\n        /* \"#utility.yul\":13098:13116   */\n      tag_336\n      tag_204\n      jump\t// in\n    tag_336:\n        /* \"#utility.yul\":13083:13118   */\n    tag_335:\n        /* \"#utility.yul\":13140:13141   */\n      dup3\n        /* \"#utility.yul\":13137:13138   */\n      dup3\n        /* \"#utility.yul\":13133:13142   */\n      div\n        /* \"#utility.yul\":13128:13142   */\n      swap1\n      pop\n        /* \"#utility.yul\":12963:13148   */\n      swap3\n      swap2\n      pop\n      pop\n      jump\t// out\n        /* \"#utility.yul\":13154:13348   */\n    tag_113:\n        /* \"#utility.yul\":13194:13198   */\n      0x00\n        /* \"#utility.yul\":13214:13234   */\n      tag_338\n        /* \"#utility.yul\":13232:13233   */\n      dup3\n        /* \"#utility.yul\":13214:13234   */\n      tag_167\n      jump\t// in\n    tag_338:\n        /* \"#utility.yul\":13209:13234   */\n      swap2\n      pop\n        /* \"#utility.yul\":13248:13268   */\n      tag_339\n        /* \"#utility.yul\":13266:13267   */\n      dup4\n        /* \"#utility.yul\":13248:13268   */\n      tag_167\n      jump\t// in\n    tag_339:\n        /* \"#utility.yul\":13243:13268   */\n      swap3\n      pop\n        /* \"#utility.yul\":13292:13293   */\n      dup3\n        /* \"#utility.yul\":13289:13290   */\n      dup3\n        /* \"#utility.yul\":13285:13294   */\n      sub\n        /* \"#utility.yul\":13277:13294   */\n      swap1\n      pop\n        /* \"#utility.yul\":13316:13317   */\n      dup2\n        /* \"#utility.yul\":13310:13314   */\n      dup2\n        /* \"#utility.yul\":13307:13318   */\n      gt\n        /* \"#utility.yul\":13304:13341   */\n      iszero\n      tag_340\n      jumpi\n        /* \"#utility.yul\":13321:13339   */\n      tag_341\n      tag_203\n      jump\t// in\n    tag_341:\n        /* \"#utility.yul\":13304:13341   */\n    tag_340:\n        /* \"#utility.yul\":13154:13348   */\n      swap3\n      swap2\n      pop\n      pop\n      jump\t// out\n        /* \"#utility.yul\":13354:13581   */\n    tag_205:\n        /* \"#utility.yul\":13494:13528   */\n      0x41756374696f6e206d75737420626520656e64656420746f2067657420746865\n        /* \"#utility.yul\":13490:13491   */\n      0x00\n        /* \"#utility.yul\":13482:13488   */\n      dup3\n        /* \"#utility.yul\":13478:13492   */\n      add\n        /* \"#utility.yul\":13471:13529   */\n      mstore\n        /* \"#utility.yul\":13563:13573   */\n      0x2077696e6e65722e000000000000000000000000000000000000000000000000\n        /* \"#utility.yul\":13558:13560   */\n      0x20\n        /* \"#utility.yul\":13550:13556   */\n      dup3\n        /* \"#utility.yul\":13546:13561   */\n      add\n        /* \"#utility.yul\":13539:13574   */\n      mstore\n        /* \"#utility.yul\":13354:13581   */\n      pop\n      jump\t// out\n        /* \"#utility.yul\":13587:13953   */\n    tag_206:\n        /* \"#utility.yul\":13729:13732   */\n      0x00\n        /* \"#utility.yul\":13750:13817   */\n      tag_344\n        /* \"#utility.yul\":13814:13816   */\n      0x28\n        /* \"#utility.yul\":13809:13812   */\n      dup4\n        /* \"#utility.yul\":13750:13817   */\n      tag_192\n      jump\t// in\n    tag_344:\n        /* \"#utility.yul\":13743:13817   */\n      swap2\n      pop\n        /* \"#utility.yul\":13826:13919   */\n      tag_345\n        /* \"#utility.yul\":13915:13918   */\n      dup3\n        /* \"#utility.yul\":13826:13919   */\n      tag_205\n      jump\t// in\n    tag_345:\n        /* \"#utility.yul\":13944:13946   */\n      0x40\n        /* \"#utility.yul\":13939:13942   */\n      dup3\n        /* \"#utility.yul\":13935:13947   */\n      add\n        /* \"#utility.yul\":13928:13947   */\n      swap1\n      pop\n        /* \"#utility.yul\":13587:13953   */\n      swap2\n      swap1\n      pop\n      jump\t// out\n        /* \"#utility.yul\":13959:14378   */\n    tag_122:\n        /* \"#utility.yul\":14125:14129   */\n      0x00\n        /* \"#utility.yul\":14163:14165   */\n      0x20\n        /* \"#utility.yul\":14152:14161   */\n      dup3\n        /* \"#utility.yul\":14148:14166   */\n      add\n        /* \"#utility.yul\":14140:14166   */\n      swap1\n      pop\n        /* \"#utility.yul\":14212:14221   */\n      dup2\n        /* \"#utility.yul\":14206:14210   */\n      dup2\n        /* \"#utility.yul\":14202:14222   */\n      sub\n        /* \"#utility.yul\":14198:14199   */\n      0x00\n        /* \"#utility.yul\":14187:14196   */\n      dup4\n        /* \"#utility.yul\":14183:14200   */\n      add\n        /* \"#utility.yul\":14176:14223   */\n      mstore\n        /* \"#utility.yul\":14240:14371   */\n      tag_347\n        /* \"#utility.yul\":14366:14370   */\n      dup2\n        /* \"#utility.yul\":14240:14371   */\n      tag_206\n      jump\t// in\n    tag_347:\n        /* \"#utility.yul\":14232:14371   */\n      swap1\n      pop\n        /* \"#utility.yul\":13959:14378   */\n      swap2\n      swap1\n      pop\n      jump\t// out\n        /* \"#utility.yul\":14384:14608   */\n    tag_207:\n        /* \"#utility.yul\":14524:14558   */\n      0x42696420616d6f756e74206d7573742062652067726561746572207468616e20\n        /* \"#utility.yul\":14520:14521   */\n      0x00\n        /* \"#utility.yul\":14512:14518   */\n      dup3\n        /* \"#utility.yul\":14508:14522   */\n      add\n        /* \"#utility.yul\":14501:14559   */\n      mstore\n        /* \"#utility.yul\":14593:14600   */\n      0x7a65726f2e000000000000000000000000000000000000000000000000000000\n        /* \"#utility.yul\":14588:14590   */\n      0x20\n        /* \"#utility.yul\":14580:14586   */\n      dup3\n        /* \"#utility.yul\":14576:14591   */\n      add\n        /* \"#utility.yul\":14569:14601   */\n      mstore\n        /* \"#utility.yul\":14384:14608   */\n      pop\n      jump\t// out\n        /* \"#utility.yul\":14614:14980   */\n    tag_208:\n        /* \"#utility.yul\":14756:14759   */\n      0x00\n        /* \"#utility.yul\":14777:14844   */\n      tag_350\n        /* \"#utility.yul\":14841:14843   */\n      0x25\n        /* \"#utility.yul\":14836:14839   */\n      dup4\n        /* \"#utility.yul\":14777:14844   */\n      tag_192\n      jump\t// in\n    tag_350:\n        /* \"#utility.yul\":14770:14844   */\n      swap2\n      pop\n        /* \"#utility.yul\":14853:14946   */\n      tag_351\n        /* \"#utility.yul\":14942:14945   */\n      dup3\n        /* \"#utility.yul\":14853:14946   */\n      tag_207\n      jump\t// in\n    tag_351:\n        /* \"#utility.yul\":14971:14973   */\n      0x40\n        /* \"#utility.yul\":14966:14969   */\n      dup3\n        /* \"#utility.yul\":14962:14974   */\n      add\n        /* \"#utility.yul\":14955:14974   */\n      swap1\n      pop\n        /* \"#utility.yul\":14614:14980   */\n      swap2\n      swap1\n      pop\n      jump\t// out\n        /* \"#utility.yul\":14986:15405   */\n    tag_133:\n        /* \"#utility.yul\":15152:15156   */\n      0x00\n        /* \"#utility.yul\":15190:15192   */\n      0x20\n        /* \"#utility.yul\":15179:15188   */\n      dup3\n        /* \"#utility.yul\":15175:15193   */\n      add\n        /* \"#utility.yul\":15167:15193   */\n      swap1\n      pop\n        /* \"#utility.yul\":15239:15248   */\n      dup2\n        /* \"#utility.yul\":15233:15237   */\n      dup2\n        /* \"#utility.yul\":15229:15249   */\n      sub\n        /* \"#utility.yul\":15225:15226   */\n      0x00\n        /* \"#utility.yul\":15214:15223   */\n      dup4\n        /* \"#utility.yul\":15210:15227   */\n      add\n        /* \"#utility.yul\":15203:15250   */\n      mstore\n        /* \"#utility.yul\":15267:15398   */\n      tag_353\n        /* \"#utility.yul\":15393:15397   */\n      dup2\n        /* \"#utility.yul\":15267:15398   */\n      tag_208\n      jump\t// in\n    tag_353:\n        /* \"#utility.yul\":15259:15398   */\n      swap1\n      pop\n        /* \"#utility.yul\":14986:15405   */\n      swap2\n      swap1\n      pop\n      jump\t// out\n        /* \"#utility.yul\":15411:15602   */\n    tag_137:\n        /* \"#utility.yul\":15451:15454   */\n      0x00\n        /* \"#utility.yul\":15470:15490   */\n      tag_355\n        /* \"#utility.yul\":15488:15489   */\n      dup3\n        /* \"#utility.yul\":15470:15490   */\n      tag_167\n      jump\t// in\n    tag_355:\n        /* \"#utility.yul\":15465:15490   */\n      swap2\n      pop\n        /* \"#utility.yul\":15504:15524   */\n      tag_356\n        /* \"#utility.yul\":15522:15523   */\n      dup4\n        /* \"#utility.yul\":15504:15524   */\n      tag_167\n      jump\t// in\n    tag_356:\n        /* \"#utility.yul\":15499:15524   */\n      swap3\n      pop\n        /* \"#utility.yul\":15547:15548   */\n      dup3\n        /* \"#utility.yul\":15544:15545   */\n      dup3\n        /* \"#utility.yul\":15540:15549   */\n      add\n        /* \"#utility.yul\":15533:15549   */\n      swap1\n      pop\n        /* \"#utility.yul\":15568:15571   */\n      dup1\n        /* \"#utility.yul\":15565:15566   */\n      dup3\n        /* \"#utility.yul\":15562:15572   */\n      gt\n        /* \"#utility.yul\":15559:15595   */\n      iszero\n      tag_357\n      jumpi\n        /* \"#utility.yul\":15575:15593   */\n      tag_358\n      tag_203\n      jump\t// in\n    tag_358:\n        /* \"#utility.yul\":15559:15595   */\n    tag_357:\n        /* \"#utility.yul\":15411:15602   */\n      swap3\n      swap2\n      pop\n      pop\n      jump\t// out\n        /* \"#utility.yul\":15608:15855   */\n    tag_209:\n        /* \"#utility.yul\":15748:15782   */\n      0x426964206d757374206265206174206c65617374203525206869676865722074\n        /* \"#utility.yul\":15744:15745   */\n      0x00\n        /* \"#utility.yul\":15736:15742   */\n      dup3\n        /* \"#utility.yul\":15732:15746   */\n      add\n        /* \"#utility.yul\":15725:15783   */\n      mstore\n        /* \"#utility.yul\":15817:15847   */\n      0x68616e207468652063757272656e742068696768657374206269642e00000000\n        /* \"#utility.yul\":15812:15814   */\n      0x20\n        /* \"#utility.yul\":15804:15810   */\n      dup3\n        /* \"#utility.yul\":15800:15815   */\n      add\n        /* \"#utility.yul\":15793:15848   */\n      mstore\n        /* \"#utility.yul\":15608:15855   */\n      pop\n      jump\t// out\n        /* \"#utility.yul\":15861:16227   */\n    tag_210:\n        /* \"#utility.yul\":16003:16006   */\n      0x00\n        /* \"#utility.yul\":16024:16091   */\n      tag_361\n        /* \"#utility.yul\":16088:16090   */\n      0x3c\n        /* \"#utility.yul\":16083:16086   */\n      dup4\n        /* \"#utility.yul\":16024:16091   */\n      tag_192\n      jump\t// in\n    tag_361:\n        /* \"#utility.yul\":16017:16091   */\n      swap2\n      pop\n        /* \"#utility.yul\":16100:16193   */\n      tag_362\n        /* \"#utility.yul\":16189:16192   */\n      dup3\n        /* \"#utility.yul\":16100:16193   */\n      tag_209\n      jump\t// in\n    tag_362:\n        /* \"#utility.yul\":16218:16220   */\n      0x40\n        /* \"#utility.yul\":16213:16216   */\n      dup3\n        /* \"#utility.yul\":16209:16221   */\n      add\n        /* \"#utility.yul\":16202:16221   */\n      swap1\n      pop\n        /* \"#utility.yul\":15861:16227   */\n      swap2\n      swap1\n      pop\n      jump\t// out\n        /* \"#utility.yul\":16233:16652   */\n    tag_140:\n        /* \"#utility.yul\":16399:16403   */\n      0x00\n        /* \"#utility.yul\":16437:16439   */\n      0x20\n        /* \"#utility.yul\":16426:16435   */\n      dup3\n        /* \"#utility.yul\":16422:16440   */\n      add\n        /* \"#utility.yul\":16414:16440   */\n      swap1\n      pop\n        /* \"#utility.yul\":16486:16495   */\n      dup2\n        /* \"#utility.yul\":16480:16484   */\n      dup2\n        /* \"#utility.yul\":16476:16496   */\n      sub\n        /* \"#utility.yul\":16472:16473   */\n      0x00\n        /* \"#utility.yul\":16461:16470   */\n      dup4\n        /* \"#utility.yul\":16457:16474   */\n      add\n        /* \"#utility.yul\":16450:16497   */\n      mstore\n        /* \"#utility.yul\":16514:16645   */\n      tag_364\n        /* \"#utility.yul\":16640:16644   */\n      dup2\n        /* \"#utility.yul\":16514:16645   */\n      tag_210\n      jump\t// in\n    tag_364:\n        /* \"#utility.yul\":16506:16645   */\n      swap1\n      pop\n        /* \"#utility.yul\":16233:16652   */\n      swap2\n      swap1\n      pop\n      jump\t// out\n        /* \"#utility.yul\":16658:16885   */\n    tag_211:\n        /* \"#utility.yul\":16798:16832   */\n      0x4f6e6c792061756374696f6e6565722063616e20706572666f726d2074686973\n        /* \"#utility.yul\":16794:16795   */\n      0x00\n        /* \"#utility.yul\":16786:16792   */\n      dup3\n        /* \"#utility.yul\":16782:16796   */\n      add\n        /* \"#utility.yul\":16775:16833   */\n      mstore\n        /* \"#utility.yul\":16867:16877   */\n      0x20616374696f6e2e000000000000000000000000000000000000000000000000\n        /* \"#utility.yul\":16862:16864   */\n      0x20\n        /* \"#utility.yul\":16854:16860   */\n      dup3\n        /* \"#utility.yul\":16850:16865   */\n      add\n        /* \"#utility.yul\":16843:16878   */\n      mstore\n        /* \"#utility.yul\":16658:16885   */\n      pop\n      jump\t// out\n        /* \"#utility.yul\":16891:17257   */\n    tag_212:\n        /* \"#utility.yul\":17033:17036   */\n      0x00\n        /* \"#utility.yul\":17054:17121   */\n      tag_367\n        /* \"#utility.yul\":17118:17120   */\n      0x28\n        /* \"#utility.yul\":17113:17116   */\n      dup4\n        /* \"#utility.yul\":17054:17121   */\n      tag_192\n      jump\t// in\n    tag_367:\n        /* \"#utility.yul\":17047:17121   */\n      swap2\n      pop\n        /* \"#utility.yul\":17130:17223   */\n      tag_368\n        /* \"#utility.yul\":17219:17222   */\n      dup3\n        /* \"#utility.yul\":17130:17223   */\n      tag_211\n      jump\t// in\n    tag_368:\n        /* \"#utility.yul\":17248:17250   */\n      0x40\n        /* \"#utility.yul\":17243:17246   */\n      dup3\n        /* \"#utility.yul\":17239:17251   */\n      add\n        /* \"#utility.yul\":17232:17251   */\n      swap1\n      pop\n        /* \"#utility.yul\":16891:17257   */\n      swap2\n      swap1\n      pop\n      jump\t// out\n        /* \"#utility.yul\":17263:17682   */\n    tag_152:\n        /* \"#utility.yul\":17429:17433   */\n      0x00\n        /* \"#utility.yul\":17467:17469   */\n      0x20\n        /* \"#utility.yul\":17456:17465   */\n      dup3\n        /* \"#utility.yul\":17452:17470   */\n      add\n        /* \"#utility.yul\":17444:17470   */\n      swap1\n      pop\n        /* \"#utility.yul\":17516:17525   */\n      dup2\n        /* \"#utility.yul\":17510:17514   */\n      dup2\n        /* \"#utility.yul\":17506:17526   */\n      sub\n        /* \"#utility.yul\":17502:17503   */\n      0x00\n        /* \"#utility.yul\":17491:17500   */\n      dup4\n        /* \"#utility.yul\":17487:17504   */\n      add\n        /* \"#utility.yul\":17480:17527   */\n      mstore\n        /* \"#utility.yul\":17544:17675   */\n      tag_370\n        /* \"#utility.yul\":17670:17674   */\n      dup2\n        /* \"#utility.yul\":17544:17675   */\n      tag_212\n      jump\t// in\n    tag_370:\n        /* \"#utility.yul\":17536:17675   */\n      swap1\n      pop\n        /* \"#utility.yul\":17263:17682   */\n      swap2\n      swap1\n      pop\n      jump\t// out\n        /* \"#utility.yul\":17688:17910   */\n    tag_213:\n        /* \"#utility.yul\":17828:17862   */\n      0x41756374696f6e2068617320616c7265616479206265656e2066696e616c697a\n        /* \"#utility.yul\":17824:17825   */\n      0x00\n        /* \"#utility.yul\":17816:17822   */\n      dup3\n        /* \"#utility.yul\":17812:17826   */\n      add\n        /* \"#utility.yul\":17805:17863   */\n      mstore\n        /* \"#utility.yul\":17897:17902   */\n      0x65642e0000000000000000000000000000000000000000000000000000000000\n        /* \"#utility.yul\":17892:17894   */\n      0x20\n        /* \"#utility.yul\":17884:17890   */\n      dup3\n        /* \"#utility.yul\":17880:17895   */\n      add\n        /* \"#utility.yul\":17873:17903   */\n      mstore\n        /* \"#utility.yul\":17688:17910   */\n      pop\n      jump\t// out\n        /* \"#utility.yul\":17916:18282   */\n    tag_214:\n        /* \"#utility.yul\":18058:18061   */\n      0x00\n        /* \"#utility.yul\":18079:18146   */\n      tag_373\n        /* \"#utility.yul\":18143:18145   */\n      0x23\n        /* \"#utility.yul\":18138:18141   */\n      dup4\n        /* \"#utility.yul\":18079:18146   */\n      tag_192\n      jump\t// in\n    tag_373:\n        /* \"#utility.yul\":18072:18146   */\n      swap2\n      pop\n        /* \"#utility.yul\":18155:18248   */\n      tag_374\n        /* \"#utility.yul\":18244:18247   */\n      dup3\n        /* \"#utility.yul\":18155:18248   */\n      tag_213\n      jump\t// in\n    tag_374:\n        /* \"#utility.yul\":18273:18275   */\n      0x40\n        /* \"#utility.yul\":18268:18271   */\n      dup3\n        /* \"#utility.yul\":18264:18276   */\n      add\n        /* \"#utility.yul\":18257:18276   */\n      swap1\n      pop\n        /* \"#utility.yul\":17916:18282   */\n      swap2\n      swap1\n      pop\n      jump\t// out\n        /* \"#utility.yul\":18288:18707   */\n    tag_159:\n        /* \"#utility.yul\":18454:18458   */\n      0x00\n        /* \"#utility.yul\":18492:18494   */\n      0x20\n        /* \"#utility.yul\":18481:18490   */\n      dup3\n        /* \"#utility.yul\":18477:18495   */\n      add\n        /* \"#utility.yul\":18469:18495   */\n      swap1\n      pop\n        /* \"#utility.yul\":18541:18550   */\n      dup2\n        /* \"#utility.yul\":18535:18539   */\n      dup2\n        /* \"#utility.yul\":18531:18551   */\n      sub\n        /* \"#utility.yul\":18527:18528   */\n      0x00\n        /* \"#utility.yul\":18516:18525   */\n      dup4\n        /* \"#utility.yul\":18512:18529   */\n      add\n        /* \"#utility.yul\":18505:18552   */\n      mstore\n        /* \"#utility.yul\":18569:18700   */\n      tag_376\n        /* \"#utility.yul\":18695:18699   */\n      dup2\n        /* \"#utility.yul\":18569:18700   */\n      tag_214\n      jump\t// in\n    tag_376:\n        /* \"#utility.yul\":18561:18700   */\n      swap1\n      pop\n        /* \"#utility.yul\":18288:18707   */\n      swap2\n      swap1\n      pop\n      jump\t// out\n        /* \"#utility.yul\":18713:18773   */\n    tag_215:\n        /* \"#utility.yul\":18741:18744   */\n      0x00\n        /* \"#utility.yul\":18762:18767   */\n      dup2\n        /* \"#utility.yul\":18755:18767   */\n      swap1\n      pop\n        /* \"#utility.yul\":18713:18773   */\n      swap2\n      swap1\n      pop\n      jump\t// out\n        /* \"#utility.yul\":18779:18921   */\n    tag_216:\n        /* \"#utility.yul\":18829:18838   */\n      0x00\n        /* \"#utility.yul\":18862:18915   */\n      tag_379\n        /* \"#utility.yul\":18880:18914   */\n      tag_380\n        /* \"#utility.yul\":18889:18913   */\n      tag_381\n        /* \"#utility.yul\":18907:18912   */\n      dup5\n        /* \"#utility.yul\":18889:18913   */\n      tag_174\n      jump\t// in\n    tag_381:\n        /* \"#utility.yul\":18880:18914   */\n      tag_215\n      jump\t// in\n    tag_380:\n        /* \"#utility.yul\":18862:18915   */\n      tag_174\n      jump\t// in\n    tag_379:\n        /* \"#utility.yul\":18849:18915   */\n      swap1\n      pop\n        /* \"#utility.yul\":18779:18921   */\n      swap2\n      swap1\n      pop\n      jump\t// out\n        /* \"#utility.yul\":18927:19053   */\n    tag_217:\n        /* \"#utility.yul\":18977:18986   */\n      0x00\n        /* \"#utility.yul\":19010:19047   */\n      tag_383\n        /* \"#utility.yul\":19041:19046   */\n      dup3\n        /* \"#utility.yul\":19010:19047   */\n      tag_216\n      jump\t// in\n    tag_383:\n        /* \"#utility.yul\":18997:19047   */\n      swap1\n      pop\n        /* \"#utility.yul\":18927:19053   */\n      swap2\n      swap1\n      pop\n      jump\t// out\n        /* \"#utility.yul\":19059:19193   */\n    tag_218:\n        /* \"#utility.yul\":19117:19126   */\n      0x00\n        /* \"#utility.yul\":19150:19187   */\n      tag_385\n        /* \"#utility.yul\":19181:19186   */\n      dup3\n        /* \"#utility.yul\":19150:19187   */\n      tag_217\n      jump\t// in\n    tag_385:\n        /* \"#utility.yul\":19137:19187   */\n      swap1\n      pop\n        /* \"#utility.yul\":19059:19193   */\n      swap2\n      swap1\n      pop\n      jump\t// out\n        /* \"#utility.yul\":19199:19346   */\n    tag_219:\n        /* \"#utility.yul\":19294:19339   */\n      tag_387\n        /* \"#utility.yul\":19333:19338   */\n      dup2\n        /* \"#utility.yul\":19294:19339   */\n      tag_218\n      jump\t// in\n    tag_387:\n        /* \"#utility.yul\":19289:19292   */\n      dup3\n        /* \"#utility.yul\":19282:19340   */\n      mstore\n        /* \"#utility.yul\":19199:19346   */\n      pop\n      pop\n      jump\t// out\n        /* \"#utility.yul\":19352:19700   */\n    tag_166:\n        /* \"#utility.yul\":19481:19485   */\n      0x00\n        /* \"#utility.yul\":19519:19521   */\n      0x40\n        /* \"#utility.yul\":19508:19517   */\n      dup3\n        /* \"#utility.yul\":19504:19522   */\n      add\n        /* \"#utility.yul\":19496:19522   */\n      swap1\n      pop\n        /* \"#utility.yul\":19532:19611   */\n      tag_389\n        /* \"#utility.yul\":19608:19609   */\n      0x00\n        /* \"#utility.yul\":19597:19606   */\n      dup4\n        /* \"#utility.yul\":19593:19610   */\n      add\n        /* \"#utility.yul\":19584:19590   */\n      dup6\n        /* \"#utility.yul\":19532:19611   */\n      tag_219\n      jump\t// in\n    tag_389:\n        /* \"#utility.yul\":19621:19693   */\n      tag_390\n        /* \"#utility.yul\":19689:19691   */\n      0x20\n        /* \"#utility.yul\":19678:19687   */\n      dup4\n        /* \"#utility.yul\":19674:19692   */\n      add\n        /* \"#utility.yul\":19665:19671   */\n      dup5\n        /* \"#utility.yul\":19621:19693   */\n      tag_168\n      jump\t// in\n    tag_390:\n        /* \"#utility.yul\":19352:19700   */\n      swap4\n      swap3\n      pop\n      pop\n      pop\n      jump\t// out\n\n    auxdata: 0xa264697066735822122072fcfdafc84094b6a5f35c9e34c5f4dd5d463730f57c661ab17808b0403c811164736f6c634300081a0033\n}\n",
				"bytecode": {
					"linkReferences": {},
					"object": "608060405234801561000f575f80fd5b50604051611a28380380611a28833981810160405281019061003191906100fb565b335f806101000a81548173ffffffffffffffffffffffffffffffffffffffff021916908373ffffffffffffffffffffffffffffffffffffffff16021790555042600181905550603c836100849190610178565b4261008f91906101b9565b60028190555081600381905550806004819055505f60055f6101000a81548160ff0219169083151502179055505050506101ec565b5f80fd5b5f819050919050565b6100da816100c8565b81146100e4575f80fd5b50565b5f815190506100f5816100d1565b92915050565b5f805f60608486031215610112576101116100c4565b5b5f61011f868287016100e7565b9350506020610130868287016100e7565b9250506040610141868287016100e7565b9150509250925092565b7f4e487b71000000000000000000000000000000000000000000000000000000005f52601160045260245ffd5b5f610182826100c8565b915061018d836100c8565b925082820261019b816100c8565b915082820484148315176101b2576101b161014b565b5b5092915050565b5f6101c3826100c8565b91506101ce836100c8565b92508282019050808211156101e6576101e561014b565b5b92915050565b61182f806101f95f395ff3fe6080604052600436106100e7575f3560e01c80638afcb14d11610089578063d57bde7911610058578063d57bde79146102a5578063ecfc7ecc146102d0578063f77282ab146102da578063fc7e286d146102f0576100e7565b80638afcb14d146101fc5780638cf0b15c146102265780638e7ea5b214610250578063b81c78ec1461027b576100e7565b80635ec2c7bf116100c55780635ec2c7bf14610168578063629e6b241461019257806378e97925146101a857806386433374146101d2576100e7565b80633197cbb6146100eb5780634423c5f1146101155780635ccf987e14610152575b5f80fd5b3480156100f6575f80fd5b506100ff61032c565b60405161010c9190610e95565b60405180910390f35b348015610120575f80fd5b5061013b60048036038101906101369190610edc565b610332565b604051610149929190610f46565b60405180910390f35b34801561015d575f80fd5b50610166610380565b005b348015610173575f80fd5b5061017c6104d0565b6040516101899190610f6d565b60405180910390f35b34801561019d575f80fd5b506101a66104f3565b005b3480156101b3575f80fd5b506101bc6106c0565b6040516101c99190610e95565b60405180910390f35b3480156101dd575f80fd5b506101e66106c6565b6040516101f39190610fa0565b60405180910390f35b348015610207575f80fd5b506102106106d8565b60405161021d9190610e95565b60405180910390f35b348015610231575f80fd5b5061023a6106de565b6040516102479190610e95565b60405180910390f35b34801561025b575f80fd5b506102646106e4565b604051610272929190610fd9565b60405180910390f35b348015610286575f80fd5b5061028f6107ab565b60405161029c91906110f3565b60405180910390f35b3480156102b0575f80fd5b506102b9610865565b6040516102c7929190610f46565b60405180910390f35b6102d8610895565b005b3480156102e5575f80fd5b506102ee610c34565b005b3480156102fb575f80fd5b506103166004803603810190610311919061113d565b610e68565b6040516103239190610e95565b60405180910390f35b60025481565b60098181548110610341575f80fd5b905f5260205f2090600202015f91509050805f015f9054906101000a900473ffffffffffffffffffffffffffffffffffffffff16908060010154905082565b60025442106103c4576040517f08c379a00000000000000000000000000000000000000000000000000000000081526004016103bb906111c2565b60405180910390fd5b5f60085f3373ffffffffffffffffffffffffffffffffffffffff1673ffffffffffffffffffffffffffffffffffffffff1681526020019081526020015f205490505f8111610447576040517f08c379a000000000000000000000000000000000000000000000000000000000815260040161043e9061122a565b60405180910390fd5b5f60085f3373ffffffffffffffffffffffffffffffffffffffff1673ffffffffffffffffffffffffffffffffffffffff1681526020019081526020015f20819055503373ffffffffffffffffffffffffffffffffffffffff166108fc8290811502906040515f60405180830381858888f193505050501580156104cc573d5f803e3d5ffd5b5050565b5f8054906101000a900473ffffffffffffffffffffffffffffffffffffffff1681565b600254421015610538576040517f08c379a000000000000000000000000000000000000000000000000000000000815260040161052f90611292565b60405180910390fd5b60055f9054906101000a900460ff16610586576040517f08c379a000000000000000000000000000000000000000000000000000000000815260040161057d906112fa565b60405180910390fd5b5f60085f3373ffffffffffffffffffffffffffffffffffffffff1673ffffffffffffffffffffffffffffffffffffffff1681526020019081526020015f205490505f8111610609576040517f08c379a000000000000000000000000000000000000000000000000000000000815260040161060090611362565b60405180910390fd5b5f60646004548361061a91906113ad565b610624919061141b565b90505f8183610633919061144b565b90505f60085f3373ffffffffffffffffffffffffffffffffffffffff1673ffffffffffffffffffffffffffffffffffffffff1681526020019081526020015f20819055503373ffffffffffffffffffffffffffffffffffffffff166108fc8290811502906040515f60405180830381858888f193505050501580156106ba573d5f803e3d5ffd5b50505050565b60015481565b60055f9054906101000a900460ff1681565b60035481565b60045481565b5f8060025442101561072b576040517f08c379a000000000000000000000000000000000000000000000000000000000815260040161072290611292565b60405180910390fd5b60055f9054906101000a900460ff16610779576040517f08c379a0000000000000000000000000000000000000000000000000000000008152600401610770906114ee565b60405180910390fd5b60065f015f9054906101000a900473ffffffffffffffffffffffffffffffffffffffff16600660010154915091509091565b60606009805480602002602001604051908101604052809291908181526020015f905b8282101561085c578382905f5260205f2090600202016040518060400160405290815f82015f9054906101000a900473ffffffffffffffffffffffffffffffffffffffff1673ffffffffffffffffffffffffffffffffffffffff1673ffffffffffffffffffffffffffffffffffffffff168152602001600182015481525050815260200190600101906107ce565b50505050905090565b6006805f015f9054906101000a900473ffffffffffffffffffffffffffffffffffffffff16908060010154905082565b60025442106108d9576040517f08c379a00000000000000000000000000000000000000000000000000000000081526004016108d0906111c2565b60405180910390fd5b5f341161091b576040517f08c379a00000000000000000000000000000000000000000000000000000000081526004016109129061157c565b60405180910390fd5b5f606460035460066001015461093191906113ad565b61093b919061141b565b60066001015461094b919061159a565b905080341015610990576040517f08c379a00000000000000000000000000000000000000000000000000000000081526004016109879061163d565b60405180910390fd5b5f73ffffffffffffffffffffffffffffffffffffffff1660065f015f9054906101000a900473ffffffffffffffffffffffffffffffffffffffff1673ffffffffffffffffffffffffffffffffffffffff1614610a625760066001015460085f60065f015f9054906101000a900473ffffffffffffffffffffffffffffffffffffffff1673ffffffffffffffffffffffffffffffffffffffff1673ffffffffffffffffffffffffffffffffffffffff1681526020019081526020015f205f828254610a5a919061159a565b925050819055505b60405180604001604052803373ffffffffffffffffffffffffffffffffffffffff1681526020013481525060065f820151815f015f6101000a81548173ffffffffffffffffffffffffffffffffffffffff021916908373ffffffffffffffffffffffffffffffffffffffff1602179055506020820151816001015590505060096006908060018154018082558091505060019003905f5260205f2090600202015f909190919091505f82015f9054906101000a900473ffffffffffffffffffffffffffffffffffffffff16815f015f6101000a81548173ffffffffffffffffffffffffffffffffffffffff021916908373ffffffffffffffffffffffffffffffffffffffff160217905550600182015481600101555050610258600254610b89919061144b565b4210610be35761025860025f828254610ba2919061159a565b925050819055507fc2b459809119087ca9d2bc10dea53a51b7d848b1a11075db037bdca58292c3e8600254604051610bda9190610e95565b60405180910390a15b3373ffffffffffffffffffffffffffffffffffffffff167fdd0b6c6a77960e2066c96171b4d7ac9e8b4c184011f38544afa36a5bb63ec59f34604051610c299190610e95565b60405180910390a250565b5f8054906101000a900473ffffffffffffffffffffffffffffffffffffffff1673ffffffffffffffffffffffffffffffffffffffff163373ffffffffffffffffffffffffffffffffffffffff1614610cc1576040517f08c379a0000000000000000000000000000000000000000000000000000000008152600401610cb8906116cb565b60405180910390fd5b600254421015610d06576040517f08c379a0000000000000000000000000000000000000000000000000000000008152600401610cfd90611292565b60405180910390fd5b60055f9054906101000a900460ff1615610d55576040517f08c379a0000000000000000000000000000000000000000000000000000000008152600401610d4c90611759565b60405180910390fd5b600160055f6101000a81548160ff0219169083151502179055505f6064600454600660010154610d8591906113ad565b610d8f919061141b565b90505f8054906101000a900473ffffffffffffffffffffffffffffffffffffffff1673ffffffffffffffffffffffffffffffffffffffff166108fc82600660010154610ddb919061144b565b90811502906040515f60405180830381858888f19350505050158015610e03573d5f803e3d5ffd5b507fdaec4582d5d9595688c8c98545fdd1c696d41c6aeaeb636737e84ed2f5c00eda60065f015f9054906101000a900473ffffffffffffffffffffffffffffffffffffffff16600660010154604051610e5d9291906117d2565b60405180910390a150565b6008602052805f5260405f205f915090505481565b5f819050919050565b610e8f81610e7d565b82525050565b5f602082019050610ea85f830184610e86565b92915050565b5f80fd5b610ebb81610e7d565b8114610ec5575f80fd5b50565b5f81359050610ed681610eb2565b92915050565b5f60208284031215610ef157610ef0610eae565b5b5f610efe84828501610ec8565b91505092915050565b5f73ffffffffffffffffffffffffffffffffffffffff82169050919050565b5f610f3082610f07565b9050919050565b610f4081610f26565b82525050565b5f604082019050610f595f830185610f37565b610f666020830184610e86565b9392505050565b5f602082019050610f805f830184610f37565b92915050565b5f8115159050919050565b610f9a81610f86565b82525050565b5f602082019050610fb35f830184610f91565b92915050565b5f610fc382610f07565b9050919050565b610fd381610fb9565b82525050565b5f604082019050610fec5f830185610fca565b610ff96020830184610e86565b9392505050565b5f81519050919050565b5f82825260208201905092915050565b5f819050602082019050919050565b61103281610f26565b82525050565b61104181610e7d565b82525050565b604082015f82015161105b5f850182611029565b50602082015161106e6020850182611038565b50505050565b5f61107f8383611047565b60408301905092915050565b5f602082019050919050565b5f6110a182611000565b6110ab818561100a565b93506110b68361101a565b805f5b838110156110e65781516110cd8882611074565b97506110d88361108b565b9250506001810190506110b9565b5085935050505092915050565b5f6020820190508181035f83015261110b8184611097565b905092915050565b61111c81610fb9565b8114611126575f80fd5b50565b5f8135905061113781611113565b92915050565b5f6020828403121561115257611151610eae565b5b5f61115f84828501611129565b91505092915050565b5f82825260208201905092915050565b7f41756374696f6e2068617320616c726561647920656e6465642e0000000000005f82015250565b5f6111ac601a83611168565b91506111b782611178565b602082019050919050565b5f6020820190508181035f8301526111d9816111a0565b9050919050565b7f4e6f2066756e647320617661696c61626c6520666f7220726566756e642e00005f82015250565b5f611214601e83611168565b915061121f826111e0565b602082019050919050565b5f6020820190508181035f83015261124181611208565b9050919050565b7f41756374696f6e206973207374696c6c206f6e676f696e672e000000000000005f82015250565b5f61127c601983611168565b915061128782611248565b602082019050919050565b5f6020820190508181035f8301526112a981611270565b9050919050565b7f41756374696f6e20686173206e6f7420656e646564207965742e0000000000005f82015250565b5f6112e4601a83611168565b91506112ef826112b0565b602082019050919050565b5f6020820190508181035f830152611311816112d8565b9050919050565b7f4e6f20726566756e6420617661696c61626c652e0000000000000000000000005f82015250565b5f61134c601483611168565b915061135782611318565b602082019050919050565b5f6020820190508181035f83015261137981611340565b9050919050565b7f4e487b71000000000000000000000000000000000000000000000000000000005f52601160045260245ffd5b5f6113b782610e7d565b91506113c283610e7d565b92508282026113d081610e7d565b915082820484148315176113e7576113e6611380565b5b5092915050565b7f4e487b71000000000000000000000000000000000000000000000000000000005f52601260045260245ffd5b5f61142582610e7d565b915061143083610e7d565b9250826114405761143f6113ee565b5b828204905092915050565b5f61145582610e7d565b915061146083610e7d565b925082820390508181111561147857611477611380565b5b92915050565b7f41756374696f6e206d75737420626520656e64656420746f20676574207468655f8201527f2077696e6e65722e000000000000000000000000000000000000000000000000602082015250565b5f6114d8602883611168565b91506114e38261147e565b604082019050919050565b5f6020820190508181035f830152611505816114cc565b9050919050565b7f42696420616d6f756e74206d7573742062652067726561746572207468616e205f8201527f7a65726f2e000000000000000000000000000000000000000000000000000000602082015250565b5f611566602583611168565b91506115718261150c565b604082019050919050565b5f6020820190508181035f8301526115938161155a565b9050919050565b5f6115a482610e7d565b91506115af83610e7d565b92508282019050808211156115c7576115c6611380565b5b92915050565b7f426964206d757374206265206174206c656173742035252068696768657220745f8201527f68616e207468652063757272656e742068696768657374206269642e00000000602082015250565b5f611627603c83611168565b9150611632826115cd565b604082019050919050565b5f6020820190508181035f8301526116548161161b565b9050919050565b7f4f6e6c792061756374696f6e6565722063616e20706572666f726d20746869735f8201527f20616374696f6e2e000000000000000000000000000000000000000000000000602082015250565b5f6116b5602883611168565b91506116c08261165b565b604082019050919050565b5f6020820190508181035f8301526116e2816116a9565b9050919050565b7f41756374696f6e2068617320616c7265616479206265656e2066696e616c697a5f8201527f65642e0000000000000000000000000000000000000000000000000000000000602082015250565b5f611743602383611168565b915061174e826116e9565b604082019050919050565b5f6020820190508181035f83015261177081611737565b9050919050565b5f819050919050565b5f61179a61179561179084610f07565b611777565b610f07565b9050919050565b5f6117ab82611780565b9050919050565b5f6117bc826117a1565b9050919050565b6117cc816117b2565b82525050565b5f6040820190506117e55f8301856117c3565b6117f26020830184610e86565b939250505056fea264697066735822122072fcfdafc84094b6a5f35c9e34c5f4dd5d463730f57c661ab17808b0403c811164736f6c634300081a0033",
					"opcodes": "PUSH1 0x80 PUSH1 0x40 MSTORE CALLVALUE DUP1 ISZERO PUSH2 0xF JUMPI PUSH0 DUP1 REVERT JUMPDEST POP PUSH1 0x40 MLOAD PUSH2 0x1A28 CODESIZE SUB DUP1 PUSH2 0x1A28 DUP4 CODECOPY DUP2 DUP2 ADD PUSH1 0x40 MSTORE DUP2 ADD SWAP1 PUSH2 0x31 SWAP2 SWAP1 PUSH2 0xFB JUMP JUMPDEST CALLER PUSH0 DUP1 PUSH2 0x100 EXP DUP2 SLOAD DUP2 PUSH20 0xFFFFFFFFFFFFFFFFFFFFFFFFFFFFFFFFFFFFFFFF MUL NOT AND SWAP1 DUP4 PUSH20 0xFFFFFFFFFFFFFFFFFFFFFFFFFFFFFFFFFFFFFFFF AND MUL OR SWAP1 SSTORE POP TIMESTAMP PUSH1 0x1 DUP2 SWAP1 SSTORE POP PUSH1 0x3C DUP4 PUSH2 0x84 SWAP2 SWAP1 PUSH2 0x178 JUMP JUMPDEST TIMESTAMP PUSH2 0x8F SWAP2 SWAP1 PUSH2 0x1B9 JUMP JUMPDEST PUSH1 0x2 DUP2 SWAP1 SSTORE POP DUP2 PUSH1 0x3 DUP2 SWAP1 SSTORE POP DUP1 PUSH1 0x4 DUP2 SWAP1 SSTORE POP PUSH0 PUSH1 0x5 PUSH0 PUSH2 0x100 EXP DUP2 SLOAD DUP2 PUSH1 0xFF MUL NOT AND SWAP1 DUP4 ISZERO ISZERO MUL OR SWAP1 SSTORE POP POP POP POP PUSH2 0x1EC JUMP JUMPDEST PUSH0 DUP1 REVERT JUMPDEST PUSH0 DUP2 SWAP1 POP SWAP2 SWAP1 POP JUMP JUMPDEST PUSH2 0xDA DUP2 PUSH2 0xC8 JUMP JUMPDEST DUP2 EQ PUSH2 0xE4 JUMPI PUSH0 DUP1 REVERT JUMPDEST POP JUMP JUMPDEST PUSH0 DUP2 MLOAD SWAP1 POP PUSH2 0xF5 DUP2 PUSH2 0xD1 JUMP JUMPDEST SWAP3 SWAP2 POP POP JUMP JUMPDEST PUSH0 DUP1 PUSH0 PUSH1 0x60 DUP5 DUP7 SUB SLT ISZERO PUSH2 0x112 JUMPI PUSH2 0x111 PUSH2 0xC4 JUMP JUMPDEST JUMPDEST PUSH0 PUSH2 0x11F DUP7 DUP3 DUP8 ADD PUSH2 0xE7 JUMP JUMPDEST SWAP4 POP POP PUSH1 0x20 PUSH2 0x130 DUP7 DUP3 DUP8 ADD PUSH2 0xE7 JUMP JUMPDEST SWAP3 POP POP PUSH1 0x40 PUSH2 0x141 DUP7 DUP3 DUP8 ADD PUSH2 0xE7 JUMP JUMPDEST SWAP2 POP POP SWAP3 POP SWAP3 POP SWAP3 JUMP JUMPDEST PUSH32 0x4E487B7100000000000000000000000000000000000000000000000000000000 PUSH0 MSTORE PUSH1 0x11 PUSH1 0x4 MSTORE PUSH1 0x24 PUSH0 REVERT JUMPDEST PUSH0 PUSH2 0x182 DUP3 PUSH2 0xC8 JUMP JUMPDEST SWAP2 POP PUSH2 0x18D DUP4 PUSH2 0xC8 JUMP JUMPDEST SWAP3 POP DUP3 DUP3 MUL PUSH2 0x19B DUP2 PUSH2 0xC8 JUMP JUMPDEST SWAP2 POP DUP3 DUP3 DIV DUP5 EQ DUP4 ISZERO OR PUSH2 0x1B2 JUMPI PUSH2 0x1B1 PUSH2 0x14B JUMP JUMPDEST JUMPDEST POP SWAP3 SWAP2 POP POP JUMP JUMPDEST PUSH0 PUSH2 0x1C3 DUP3 PUSH2 0xC8 JUMP JUMPDEST SWAP2 POP PUSH2 0x1CE DUP4 PUSH2 0xC8 JUMP JUMPDEST SWAP3 POP DUP3 DUP3 ADD SWAP1 POP DUP1 DUP3 GT ISZERO PUSH2 0x1E6 JUMPI PUSH2 0x1E5 PUSH2 0x14B JUMP JUMPDEST JUMPDEST SWAP3 SWAP2 POP POP JUMP JUMPDEST PUSH2 0x182F DUP1 PUSH2 0x1F9 PUSH0 CODECOPY PUSH0 RETURN INVALID PUSH1 0x80 PUSH1 0x40 MSTORE PUSH1 0x4 CALLDATASIZE LT PUSH2 0xE7 JUMPI PUSH0 CALLDATALOAD PUSH1 0xE0 SHR DUP1 PUSH4 0x8AFCB14D GT PUSH2 0x89 JUMPI DUP1 PUSH4 0xD57BDE79 GT PUSH2 0x58 JUMPI DUP1 PUSH4 0xD57BDE79 EQ PUSH2 0x2A5 JUMPI DUP1 PUSH4 0xECFC7ECC EQ PUSH2 0x2D0 JUMPI DUP1 PUSH4 0xF77282AB EQ PUSH2 0x2DA JUMPI DUP1 PUSH4 0xFC7E286D EQ PUSH2 0x2F0 JUMPI PUSH2 0xE7 JUMP JUMPDEST DUP1 PUSH4 0x8AFCB14D EQ PUSH2 0x1FC JUMPI DUP1 PUSH4 0x8CF0B15C EQ PUSH2 0x226 JUMPI DUP1 PUSH4 0x8E7EA5B2 EQ PUSH2 0x250 JUMPI DUP1 PUSH4 0xB81C78EC EQ PUSH2 0x27B JUMPI PUSH2 0xE7 JUMP JUMPDEST DUP1 PUSH4 0x5EC2C7BF GT PUSH2 0xC5 JUMPI DUP1 PUSH4 0x5EC2C7BF EQ PUSH2 0x168 JUMPI DUP1 PUSH4 0x629E6B24 EQ PUSH2 0x192 JUMPI DUP1 PUSH4 0x78E97925 EQ PUSH2 0x1A8 JUMPI DUP1 PUSH4 0x86433374 EQ PUSH2 0x1D2 JUMPI PUSH2 0xE7 JUMP JUMPDEST DUP1 PUSH4 0x3197CBB6 EQ PUSH2 0xEB JUMPI DUP1 PUSH4 0x4423C5F1 EQ PUSH2 0x115 JUMPI DUP1 PUSH4 0x5CCF987E EQ PUSH2 0x152 JUMPI JUMPDEST PUSH0 DUP1 REVERT JUMPDEST CALLVALUE DUP1 ISZERO PUSH2 0xF6 JUMPI PUSH0 DUP1 REVERT JUMPDEST POP PUSH2 0xFF PUSH2 0x32C JUMP JUMPDEST PUSH1 0x40 MLOAD PUSH2 0x10C SWAP2 SWAP1 PUSH2 0xE95 JUMP JUMPDEST PUSH1 0x40 MLOAD DUP1 SWAP2 SUB SWAP1 RETURN JUMPDEST CALLVALUE DUP1 ISZERO PUSH2 0x120 JUMPI PUSH0 DUP1 REVERT JUMPDEST POP PUSH2 0x13B PUSH1 0x4 DUP1 CALLDATASIZE SUB DUP2 ADD SWAP1 PUSH2 0x136 SWAP2 SWAP1 PUSH2 0xEDC JUMP JUMPDEST PUSH2 0x332 JUMP JUMPDEST PUSH1 0x40 MLOAD PUSH2 0x149 SWAP3 SWAP2 SWAP1 PUSH2 0xF46 JUMP JUMPDEST PUSH1 0x40 MLOAD DUP1 SWAP2 SUB SWAP1 RETURN JUMPDEST CALLVALUE DUP1 ISZERO PUSH2 0x15D JUMPI PUSH0 DUP1 REVERT JUMPDEST POP PUSH2 0x166 PUSH2 0x380 JUMP JUMPDEST STOP JUMPDEST CALLVALUE DUP1 ISZERO PUSH2 0x173 JUMPI PUSH0 DUP1 REVERT JUMPDEST POP PUSH2 0x17C PUSH2 0x4D0 JUMP JUMPDEST PUSH1 0x40 MLOAD PUSH2 0x189 SWAP2 SWAP1 PUSH2 0xF6D JUMP JUMPDEST PUSH1 0x40 MLOAD DUP1 SWAP2 SUB SWAP1 RETURN JUMPDEST CALLVALUE DUP1 ISZERO PUSH2 0x19D JUMPI PUSH0 DUP1 REVERT JUMPDEST POP PUSH2 0x1A6 PUSH2 0x4F3 JUMP JUMPDEST STOP JUMPDEST CALLVALUE DUP1 ISZERO PUSH2 0x1B3 JUMPI PUSH0 DUP1 REVERT JUMPDEST POP PUSH2 0x1BC PUSH2 0x6C0 JUMP JUMPDEST PUSH1 0x40 MLOAD PUSH2 0x1C9 SWAP2 SWAP1 PUSH2 0xE95 JUMP JUMPDEST PUSH1 0x40 MLOAD DUP1 SWAP2 SUB SWAP1 RETURN JUMPDEST CALLVALUE DUP1 ISZERO PUSH2 0x1DD JUMPI PUSH0 DUP1 REVERT JUMPDEST POP PUSH2 0x1E6 PUSH2 0x6C6 JUMP JUMPDEST PUSH1 0x40 MLOAD PUSH2 0x1F3 SWAP2 SWAP1 PUSH2 0xFA0 JUMP JUMPDEST PUSH1 0x40 MLOAD DUP1 SWAP2 SUB SWAP1 RETURN JUMPDEST CALLVALUE DUP1 ISZERO PUSH2 0x207 JUMPI PUSH0 DUP1 REVERT JUMPDEST POP PUSH2 0x210 PUSH2 0x6D8 JUMP JUMPDEST PUSH1 0x40 MLOAD PUSH2 0x21D SWAP2 SWAP1 PUSH2 0xE95 JUMP JUMPDEST PUSH1 0x40 MLOAD DUP1 SWAP2 SUB SWAP1 RETURN JUMPDEST CALLVALUE DUP1 ISZERO PUSH2 0x231 JUMPI PUSH0 DUP1 REVERT JUMPDEST POP PUSH2 0x23A PUSH2 0x6DE JUMP JUMPDEST PUSH1 0x40 MLOAD PUSH2 0x247 SWAP2 SWAP1 PUSH2 0xE95 JUMP JUMPDEST PUSH1 0x40 MLOAD DUP1 SWAP2 SUB SWAP1 RETURN JUMPDEST CALLVALUE DUP1 ISZERO PUSH2 0x25B JUMPI PUSH0 DUP1 REVERT JUMPDEST POP PUSH2 0x264 PUSH2 0x6E4 JUMP JUMPDEST PUSH1 0x40 MLOAD PUSH2 0x272 SWAP3 SWAP2 SWAP1 PUSH2 0xFD9 JUMP JUMPDEST PUSH1 0x40 MLOAD DUP1 SWAP2 SUB SWAP1 RETURN JUMPDEST CALLVALUE DUP1 ISZERO PUSH2 0x286 JUMPI PUSH0 DUP1 REVERT JUMPDEST POP PUSH2 0x28F PUSH2 0x7AB JUMP JUMPDEST PUSH1 0x40 MLOAD PUSH2 0x29C SWAP2 SWAP1 PUSH2 0x10F3 JUMP JUMPDEST PUSH1 0x40 MLOAD DUP1 SWAP2 SUB SWAP1 RETURN JUMPDEST CALLVALUE DUP1 ISZERO PUSH2 0x2B0 JUMPI PUSH0 DUP1 REVERT JUMPDEST POP PUSH2 0x2B9 PUSH2 0x865 JUMP JUMPDEST PUSH1 0x40 MLOAD PUSH2 0x2C7 SWAP3 SWAP2 SWAP1 PUSH2 0xF46 JUMP JUMPDEST PUSH1 0x40 MLOAD DUP1 SWAP2 SUB SWAP1 RETURN JUMPDEST PUSH2 0x2D8 PUSH2 0x895 JUMP JUMPDEST STOP JUMPDEST CALLVALUE DUP1 ISZERO PUSH2 0x2E5 JUMPI PUSH0 DUP1 REVERT JUMPDEST POP PUSH2 0x2EE PUSH2 0xC34 JUMP JUMPDEST STOP JUMPDEST CALLVALUE DUP1 ISZERO PUSH2 0x2FB JUMPI PUSH0 DUP1 REVERT JUMPDEST POP PUSH2 0x316 PUSH1 0x4 DUP1 CALLDATASIZE SUB DUP2 ADD SWAP1 PUSH2 0x311 SWAP2 SWAP1 PUSH2 0x113D JUMP JUMPDEST PUSH2 0xE68 JUMP JUMPDEST PUSH1 0x40 MLOAD PUSH2 0x323 SWAP2 SWAP1 PUSH2 0xE95 JUMP JUMPDEST PUSH1 0x40 MLOAD DUP1 SWAP2 SUB SWAP1 RETURN JUMPDEST PUSH1 0x2 SLOAD DUP2 JUMP JUMPDEST PUSH1 0x9 DUP2 DUP2 SLOAD DUP2 LT PUSH2 0x341 JUMPI PUSH0 DUP1 REVERT JUMPDEST SWAP1 PUSH0 MSTORE PUSH1 0x20 PUSH0 KECCAK256 SWAP1 PUSH1 0x2 MUL ADD PUSH0 SWAP2 POP SWAP1 POP DUP1 PUSH0 ADD PUSH0 SWAP1 SLOAD SWAP1 PUSH2 0x100 EXP SWAP1 DIV PUSH20 0xFFFFFFFFFFFFFFFFFFFFFFFFFFFFFFFFFFFFFFFF AND SWAP1 DUP1 PUSH1 0x1 ADD SLOAD SWAP1 POP DUP3 JUMP JUMPDEST PUSH1 0x2 SLOAD TIMESTAMP LT PUSH2 0x3C4 JUMPI PUSH1 0x40 MLOAD PUSH32 0x8C379A000000000000000000000000000000000000000000000000000000000 DUP2 MSTORE PUSH1 0x4 ADD PUSH2 0x3BB SWAP1 PUSH2 0x11C2 JUMP JUMPDEST PUSH1 0x40 MLOAD DUP1 SWAP2 SUB SWAP1 REVERT JUMPDEST PUSH0 PUSH1 0x8 PUSH0 CALLER PUSH20 0xFFFFFFFFFFFFFFFFFFFFFFFFFFFFFFFFFFFFFFFF AND PUSH20 0xFFFFFFFFFFFFFFFFFFFFFFFFFFFFFFFFFFFFFFFF AND DUP2 MSTORE PUSH1 0x20 ADD SWAP1 DUP2 MSTORE PUSH1 0x20 ADD PUSH0 KECCAK256 SLOAD SWAP1 POP PUSH0 DUP2 GT PUSH2 0x447 JUMPI PUSH1 0x40 MLOAD PUSH32 0x8C379A000000000000000000000000000000000000000000000000000000000 DUP2 MSTORE PUSH1 0x4 ADD PUSH2 0x43E SWAP1 PUSH2 0x122A JUMP JUMPDEST PUSH1 0x40 MLOAD DUP1 SWAP2 SUB SWAP1 REVERT JUMPDEST PUSH0 PUSH1 0x8 PUSH0 CALLER PUSH20 0xFFFFFFFFFFFFFFFFFFFFFFFFFFFFFFFFFFFFFFFF AND PUSH20 0xFFFFFFFFFFFFFFFFFFFFFFFFFFFFFFFFFFFFFFFF AND DUP2 MSTORE PUSH1 0x20 ADD SWAP1 DUP2 MSTORE PUSH1 0x20 ADD PUSH0 KECCAK256 DUP2 SWAP1 SSTORE POP CALLER PUSH20 0xFFFFFFFFFFFFFFFFFFFFFFFFFFFFFFFFFFFFFFFF AND PUSH2 0x8FC DUP3 SWAP1 DUP2 ISZERO MUL SWAP1 PUSH1 0x40 MLOAD PUSH0 PUSH1 0x40 MLOAD DUP1 DUP4 SUB DUP2 DUP6 DUP9 DUP9 CALL SWAP4 POP POP POP POP ISZERO DUP1 ISZERO PUSH2 0x4CC JUMPI RETURNDATASIZE PUSH0 DUP1 RETURNDATACOPY RETURNDATASIZE PUSH0 REVERT JUMPDEST POP POP JUMP JUMPDEST PUSH0 DUP1 SLOAD SWAP1 PUSH2 0x100 EXP SWAP1 DIV PUSH20 0xFFFFFFFFFFFFFFFFFFFFFFFFFFFFFFFFFFFFFFFF AND DUP2 JUMP JUMPDEST PUSH1 0x2 SLOAD TIMESTAMP LT ISZERO PUSH2 0x538 JUMPI PUSH1 0x40 MLOAD PUSH32 0x8C379A000000000000000000000000000000000000000000000000000000000 DUP2 MSTORE PUSH1 0x4 ADD PUSH2 0x52F SWAP1 PUSH2 0x1292 JUMP JUMPDEST PUSH1 0x40 MLOAD DUP1 SWAP2 SUB SWAP1 REVERT JUMPDEST PUSH1 0x5 PUSH0 SWAP1 SLOAD SWAP1 PUSH2 0x100 EXP SWAP1 DIV PUSH1 0xFF AND PUSH2 0x586 JUMPI PUSH1 0x40 MLOAD PUSH32 0x8C379A000000000000000000000000000000000000000000000000000000000 DUP2 MSTORE PUSH1 0x4 ADD PUSH2 0x57D SWAP1 PUSH2 0x12FA JUMP JUMPDEST PUSH1 0x40 MLOAD DUP1 SWAP2 SUB SWAP1 REVERT JUMPDEST PUSH0 PUSH1 0x8 PUSH0 CALLER PUSH20 0xFFFFFFFFFFFFFFFFFFFFFFFFFFFFFFFFFFFFFFFF AND PUSH20 0xFFFFFFFFFFFFFFFFFFFFFFFFFFFFFFFFFFFFFFFF AND DUP2 MSTORE PUSH1 0x20 ADD SWAP1 DUP2 MSTORE PUSH1 0x20 ADD PUSH0 KECCAK256 SLOAD SWAP1 POP PUSH0 DUP2 GT PUSH2 0x609 JUMPI PUSH1 0x40 MLOAD PUSH32 0x8C379A000000000000000000000000000000000000000000000000000000000 DUP2 MSTORE PUSH1 0x4 ADD PUSH2 0x600 SWAP1 PUSH2 0x1362 JUMP JUMPDEST PUSH1 0x40 MLOAD DUP1 SWAP2 SUB SWAP1 REVERT JUMPDEST PUSH0 PUSH1 0x64 PUSH1 0x4 SLOAD DUP4 PUSH2 0x61A SWAP2 SWAP1 PUSH2 0x13AD JUMP JUMPDEST PUSH2 0x624 SWAP2 SWAP1 PUSH2 0x141B JUMP JUMPDEST SWAP1 POP PUSH0 DUP2 DUP4 PUSH2 0x633 SWAP2 SWAP1 PUSH2 0x144B JUMP JUMPDEST SWAP1 POP PUSH0 PUSH1 0x8 PUSH0 CALLER PUSH20 0xFFFFFFFFFFFFFFFFFFFFFFFFFFFFFFFFFFFFFFFF AND PUSH20 0xFFFFFFFFFFFFFFFFFFFFFFFFFFFFFFFFFFFFFFFF AND DUP2 MSTORE PUSH1 0x20 ADD SWAP1 DUP2 MSTORE PUSH1 0x20 ADD PUSH0 KECCAK256 DUP2 SWAP1 SSTORE POP CALLER PUSH20 0xFFFFFFFFFFFFFFFFFFFFFFFFFFFFFFFFFFFFFFFF AND PUSH2 0x8FC DUP3 SWAP1 DUP2 ISZERO MUL SWAP1 PUSH1 0x40 MLOAD PUSH0 PUSH1 0x40 MLOAD DUP1 DUP4 SUB DUP2 DUP6 DUP9 DUP9 CALL SWAP4 POP POP POP POP ISZERO DUP1 ISZERO PUSH2 0x6BA JUMPI RETURNDATASIZE PUSH0 DUP1 RETURNDATACOPY RETURNDATASIZE PUSH0 REVERT JUMPDEST POP POP POP POP JUMP JUMPDEST PUSH1 0x1 SLOAD DUP2 JUMP JUMPDEST PUSH1 0x5 PUSH0 SWAP1 SLOAD SWAP1 PUSH2 0x100 EXP SWAP1 DIV PUSH1 0xFF AND DUP2 JUMP JUMPDEST PUSH1 0x3 SLOAD DUP2 JUMP JUMPDEST PUSH1 0x4 SLOAD DUP2 JUMP JUMPDEST PUSH0 DUP1 PUSH1 0x2 SLOAD TIMESTAMP LT ISZERO PUSH2 0x72B JUMPI PUSH1 0x40 MLOAD PUSH32 0x8C379A000000000000000000000000000000000000000000000000000000000 DUP2 MSTORE PUSH1 0x4 ADD PUSH2 0x722 SWAP1 PUSH2 0x1292 JUMP JUMPDEST PUSH1 0x40 MLOAD DUP1 SWAP2 SUB SWAP1 REVERT JUMPDEST PUSH1 0x5 PUSH0 SWAP1 SLOAD SWAP1 PUSH2 0x100 EXP SWAP1 DIV PUSH1 0xFF AND PUSH2 0x779 JUMPI PUSH1 0x40 MLOAD PUSH32 0x8C379A000000000000000000000000000000000000000000000000000000000 DUP2 MSTORE PUSH1 0x4 ADD PUSH2 0x770 SWAP1 PUSH2 0x14EE JUMP JUMPDEST PUSH1 0x40 MLOAD DUP1 SWAP2 SUB SWAP1 REVERT JUMPDEST PUSH1 0x6 PUSH0 ADD PUSH0 SWAP1 SLOAD SWAP1 PUSH2 0x100 EXP SWAP1 DIV PUSH20 0xFFFFFFFFFFFFFFFFFFFFFFFFFFFFFFFFFFFFFFFF AND PUSH1 0x6 PUSH1 0x1 ADD SLOAD SWAP2 POP SWAP2 POP SWAP1 SWAP2 JUMP JUMPDEST PUSH1 0x60 PUSH1 0x9 DUP1 SLOAD DUP1 PUSH1 0x20 MUL PUSH1 0x20 ADD PUSH1 0x40 MLOAD SWAP1 DUP2 ADD PUSH1 0x40 MSTORE DUP1 SWAP3 SWAP2 SWAP1 DUP2 DUP2 MSTORE PUSH1 0x20 ADD PUSH0 SWAP1 JUMPDEST DUP3 DUP3 LT ISZERO PUSH2 0x85C JUMPI DUP4 DUP3 SWAP1 PUSH0 MSTORE PUSH1 0x20 PUSH0 KECCAK256 SWAP1 PUSH1 0x2 MUL ADD PUSH1 0x40 MLOAD DUP1 PUSH1 0x40 ADD PUSH1 0x40 MSTORE SWAP1 DUP2 PUSH0 DUP3 ADD PUSH0 SWAP1 SLOAD SWAP1 PUSH2 0x100 EXP SWAP1 DIV PUSH20 0xFFFFFFFFFFFFFFFFFFFFFFFFFFFFFFFFFFFFFFFF AND PUSH20 0xFFFFFFFFFFFFFFFFFFFFFFFFFFFFFFFFFFFFFFFF AND PUSH20 0xFFFFFFFFFFFFFFFFFFFFFFFFFFFFFFFFFFFFFFFF AND DUP2 MSTORE PUSH1 0x20 ADD PUSH1 0x1 DUP3 ADD SLOAD DUP2 MSTORE POP POP DUP2 MSTORE PUSH1 0x20 ADD SWAP1 PUSH1 0x1 ADD SWAP1 PUSH2 0x7CE JUMP JUMPDEST POP POP POP POP SWAP1 POP SWAP1 JUMP JUMPDEST PUSH1 0x6 DUP1 PUSH0 ADD PUSH0 SWAP1 SLOAD SWAP1 PUSH2 0x100 EXP SWAP1 DIV PUSH20 0xFFFFFFFFFFFFFFFFFFFFFFFFFFFFFFFFFFFFFFFF AND SWAP1 DUP1 PUSH1 0x1 ADD SLOAD SWAP1 POP DUP3 JUMP JUMPDEST PUSH1 0x2 SLOAD TIMESTAMP LT PUSH2 0x8D9 JUMPI PUSH1 0x40 MLOAD PUSH32 0x8C379A000000000000000000000000000000000000000000000000000000000 DUP2 MSTORE PUSH1 0x4 ADD PUSH2 0x8D0 SWAP1 PUSH2 0x11C2 JUMP JUMPDEST PUSH1 0x40 MLOAD DUP1 SWAP2 SUB SWAP1 REVERT JUMPDEST PUSH0 CALLVALUE GT PUSH2 0x91B JUMPI PUSH1 0x40 MLOAD PUSH32 0x8C379A000000000000000000000000000000000000000000000000000000000 DUP2 MSTORE PUSH1 0x4 ADD PUSH2 0x912 SWAP1 PUSH2 0x157C JUMP JUMPDEST PUSH1 0x40 MLOAD DUP1 SWAP2 SUB SWAP1 REVERT JUMPDEST PUSH0 PUSH1 0x64 PUSH1 0x3 SLOAD PUSH1 0x6 PUSH1 0x1 ADD SLOAD PUSH2 0x931 SWAP2 SWAP1 PUSH2 0x13AD JUMP JUMPDEST PUSH2 0x93B SWAP2 SWAP1 PUSH2 0x141B JUMP JUMPDEST PUSH1 0x6 PUSH1 0x1 ADD SLOAD PUSH2 0x94B SWAP2 SWAP1 PUSH2 0x159A JUMP JUMPDEST SWAP1 POP DUP1 CALLVALUE LT ISZERO PUSH2 0x990 JUMPI PUSH1 0x40 MLOAD PUSH32 0x8C379A000000000000000000000000000000000000000000000000000000000 DUP2 MSTORE PUSH1 0x4 ADD PUSH2 0x987 SWAP1 PUSH2 0x163D JUMP JUMPDEST PUSH1 0x40 MLOAD DUP1 SWAP2 SUB SWAP1 REVERT JUMPDEST PUSH0 PUSH20 0xFFFFFFFFFFFFFFFFFFFFFFFFFFFFFFFFFFFFFFFF AND PUSH1 0x6 PUSH0 ADD PUSH0 SWAP1 SLOAD SWAP1 PUSH2 0x100 EXP SWAP1 DIV PUSH20 0xFFFFFFFFFFFFFFFFFFFFFFFFFFFFFFFFFFFFFFFF AND PUSH20 0xFFFFFFFFFFFFFFFFFFFFFFFFFFFFFFFFFFFFFFFF AND EQ PUSH2 0xA62 JUMPI PUSH1 0x6 PUSH1 0x1 ADD SLOAD PUSH1 0x8 PUSH0 PUSH1 0x6 PUSH0 ADD PUSH0 SWAP1 SLOAD SWAP1 PUSH2 0x100 EXP SWAP1 DIV PUSH20 0xFFFFFFFFFFFFFFFFFFFFFFFFFFFFFFFFFFFFFFFF AND PUSH20 0xFFFFFFFFFFFFFFFFFFFFFFFFFFFFFFFFFFFFFFFF AND PUSH20 0xFFFFFFFFFFFFFFFFFFFFFFFFFFFFFFFFFFFFFFFF AND DUP2 MSTORE PUSH1 0x20 ADD SWAP1 DUP2 MSTORE PUSH1 0x20 ADD PUSH0 KECCAK256 PUSH0 DUP3 DUP3 SLOAD PUSH2 0xA5A SWAP2 SWAP1 PUSH2 0x159A JUMP JUMPDEST SWAP3 POP POP DUP2 SWAP1 SSTORE POP JUMPDEST PUSH1 0x40 MLOAD DUP1 PUSH1 0x40 ADD PUSH1 0x40 MSTORE DUP1 CALLER PUSH20 0xFFFFFFFFFFFFFFFFFFFFFFFFFFFFFFFFFFFFFFFF AND DUP2 MSTORE PUSH1 0x20 ADD CALLVALUE DUP2 MSTORE POP PUSH1 0x6 PUSH0 DUP3 ADD MLOAD DUP2 PUSH0 ADD PUSH0 PUSH2 0x100 EXP DUP2 SLOAD DUP2 PUSH20 0xFFFFFFFFFFFFFFFFFFFFFFFFFFFFFFFFFFFFFFFF MUL NOT AND SWAP1 DUP4 PUSH20 0xFFFFFFFFFFFFFFFFFFFFFFFFFFFFFFFFFFFFFFFF AND MUL OR SWAP1 SSTORE POP PUSH1 0x20 DUP3 ADD MLOAD DUP2 PUSH1 0x1 ADD SSTORE SWAP1 POP POP PUSH1 0x9 PUSH1 0x6 SWAP1 DUP1 PUSH1 0x1 DUP2 SLOAD ADD DUP1 DUP3 SSTORE DUP1 SWAP2 POP POP PUSH1 0x1 SWAP1 SUB SWAP1 PUSH0 MSTORE PUSH1 0x20 PUSH0 KECCAK256 SWAP1 PUSH1 0x2 MUL ADD PUSH0 SWAP1 SWAP2 SWAP1 SWAP2 SWAP1 SWAP2 POP PUSH0 DUP3 ADD PUSH0 SWAP1 SLOAD SWAP1 PUSH2 0x100 EXP SWAP1 DIV PUSH20 0xFFFFFFFFFFFFFFFFFFFFFFFFFFFFFFFFFFFFFFFF AND DUP2 PUSH0 ADD PUSH0 PUSH2 0x100 EXP DUP2 SLOAD DUP2 PUSH20 0xFFFFFFFFFFFFFFFFFFFFFFFFFFFFFFFFFFFFFFFF MUL NOT AND SWAP1 DUP4 PUSH20 0xFFFFFFFFFFFFFFFFFFFFFFFFFFFFFFFFFFFFFFFF AND MUL OR SWAP1 SSTORE POP PUSH1 0x1 DUP3 ADD SLOAD DUP2 PUSH1 0x1 ADD SSTORE POP POP PUSH2 0x258 PUSH1 0x2 SLOAD PUSH2 0xB89 SWAP2 SWAP1 PUSH2 0x144B JUMP JUMPDEST TIMESTAMP LT PUSH2 0xBE3 JUMPI PUSH2 0x258 PUSH1 0x2 PUSH0 DUP3 DUP3 SLOAD PUSH2 0xBA2 SWAP2 SWAP1 PUSH2 0x159A JUMP JUMPDEST SWAP3 POP POP DUP2 SWAP1 SSTORE POP PUSH32 0xC2B459809119087CA9D2BC10DEA53A51B7D848B1A11075DB037BDCA58292C3E8 PUSH1 0x2 SLOAD PUSH1 0x40 MLOAD PUSH2 0xBDA SWAP2 SWAP1 PUSH2 0xE95 JUMP JUMPDEST PUSH1 0x40 MLOAD DUP1 SWAP2 SUB SWAP1 LOG1 JUMPDEST CALLER PUSH20 0xFFFFFFFFFFFFFFFFFFFFFFFFFFFFFFFFFFFFFFFF AND PUSH32 0xDD0B6C6A77960E2066C96171B4D7AC9E8B4C184011F38544AFA36A5BB63EC59F CALLVALUE PUSH1 0x40 MLOAD PUSH2 0xC29 SWAP2 SWAP1 PUSH2 0xE95 JUMP JUMPDEST PUSH1 0x40 MLOAD DUP1 SWAP2 SUB SWAP1 LOG2 POP JUMP JUMPDEST PUSH0 DUP1 SLOAD SWAP1 PUSH2 0x100 EXP SWAP1 DIV PUSH20 0xFFFFFFFFFFFFFFFFFFFFFFFFFFFFFFFFFFFFFFFF AND PUSH20 0xFFFFFFFFFFFFFFFFFFFFFFFFFFFFFFFFFFFFFFFF AND CALLER PUSH20 0xFFFFFFFFFFFFFFFFFFFFFFFFFFFFFFFFFFFFFFFF AND EQ PUSH2 0xCC1 JUMPI PUSH1 0x40 MLOAD PUSH32 0x8C379A000000000000000000000000000000000000000000000000000000000 DUP2 MSTORE PUSH1 0x4 ADD PUSH2 0xCB8 SWAP1 PUSH2 0x16CB JUMP JUMPDEST PUSH1 0x40 MLOAD DUP1 SWAP2 SUB SWAP1 REVERT JUMPDEST PUSH1 0x2 SLOAD TIMESTAMP LT ISZERO PUSH2 0xD06 JUMPI PUSH1 0x40 MLOAD PUSH32 0x8C379A000000000000000000000000000000000000000000000000000000000 DUP2 MSTORE PUSH1 0x4 ADD PUSH2 0xCFD SWAP1 PUSH2 0x1292 JUMP JUMPDEST PUSH1 0x40 MLOAD DUP1 SWAP2 SUB SWAP1 REVERT JUMPDEST PUSH1 0x5 PUSH0 SWAP1 SLOAD SWAP1 PUSH2 0x100 EXP SWAP1 DIV PUSH1 0xFF AND ISZERO PUSH2 0xD55 JUMPI PUSH1 0x40 MLOAD PUSH32 0x8C379A000000000000000000000000000000000000000000000000000000000 DUP2 MSTORE PUSH1 0x4 ADD PUSH2 0xD4C SWAP1 PUSH2 0x1759 JUMP JUMPDEST PUSH1 0x40 MLOAD DUP1 SWAP2 SUB SWAP1 REVERT JUMPDEST PUSH1 0x1 PUSH1 0x5 PUSH0 PUSH2 0x100 EXP DUP2 SLOAD DUP2 PUSH1 0xFF MUL NOT AND SWAP1 DUP4 ISZERO ISZERO MUL OR SWAP1 SSTORE POP PUSH0 PUSH1 0x64 PUSH1 0x4 SLOAD PUSH1 0x6 PUSH1 0x1 ADD SLOAD PUSH2 0xD85 SWAP2 SWAP1 PUSH2 0x13AD JUMP JUMPDEST PUSH2 0xD8F SWAP2 SWAP1 PUSH2 0x141B JUMP JUMPDEST SWAP1 POP PUSH0 DUP1 SLOAD SWAP1 PUSH2 0x100 EXP SWAP1 DIV PUSH20 0xFFFFFFFFFFFFFFFFFFFFFFFFFFFFFFFFFFFFFFFF AND PUSH20 0xFFFFFFFFFFFFFFFFFFFFFFFFFFFFFFFFFFFFFFFF AND PUSH2 0x8FC DUP3 PUSH1 0x6 PUSH1 0x1 ADD SLOAD PUSH2 0xDDB SWAP2 SWAP1 PUSH2 0x144B JUMP JUMPDEST SWAP1 DUP2 ISZERO MUL SWAP1 PUSH1 0x40 MLOAD PUSH0 PUSH1 0x40 MLOAD DUP1 DUP4 SUB DUP2 DUP6 DUP9 DUP9 CALL SWAP4 POP POP POP POP ISZERO DUP1 ISZERO PUSH2 0xE03 JUMPI RETURNDATASIZE PUSH0 DUP1 RETURNDATACOPY RETURNDATASIZE PUSH0 REVERT JUMPDEST POP PUSH32 0xDAEC4582D5D9595688C8C98545FDD1C696D41C6AEAEB636737E84ED2F5C00EDA PUSH1 0x6 PUSH0 ADD PUSH0 SWAP1 SLOAD SWAP1 PUSH2 0x100 EXP SWAP1 DIV PUSH20 0xFFFFFFFFFFFFFFFFFFFFFFFFFFFFFFFFFFFFFFFF AND PUSH1 0x6 PUSH1 0x1 ADD SLOAD PUSH1 0x40 MLOAD PUSH2 0xE5D SWAP3 SWAP2 SWAP1 PUSH2 0x17D2 JUMP JUMPDEST PUSH1 0x40 MLOAD DUP1 SWAP2 SUB SWAP1 LOG1 POP JUMP JUMPDEST PUSH1 0x8 PUSH1 0x20 MSTORE DUP1 PUSH0 MSTORE PUSH1 0x40 PUSH0 KECCAK256 PUSH0 SWAP2 POP SWAP1 POP SLOAD DUP2 JUMP JUMPDEST PUSH0 DUP2 SWAP1 POP SWAP2 SWAP1 POP JUMP JUMPDEST PUSH2 0xE8F DUP2 PUSH2 0xE7D JUMP JUMPDEST DUP3 MSTORE POP POP JUMP JUMPDEST PUSH0 PUSH1 0x20 DUP3 ADD SWAP1 POP PUSH2 0xEA8 PUSH0 DUP4 ADD DUP5 PUSH2 0xE86 JUMP JUMPDEST SWAP3 SWAP2 POP POP JUMP JUMPDEST PUSH0 DUP1 REVERT JUMPDEST PUSH2 0xEBB DUP2 PUSH2 0xE7D JUMP JUMPDEST DUP2 EQ PUSH2 0xEC5 JUMPI PUSH0 DUP1 REVERT JUMPDEST POP JUMP JUMPDEST PUSH0 DUP2 CALLDATALOAD SWAP1 POP PUSH2 0xED6 DUP2 PUSH2 0xEB2 JUMP JUMPDEST SWAP3 SWAP2 POP POP JUMP JUMPDEST PUSH0 PUSH1 0x20 DUP3 DUP5 SUB SLT ISZERO PUSH2 0xEF1 JUMPI PUSH2 0xEF0 PUSH2 0xEAE JUMP JUMPDEST JUMPDEST PUSH0 PUSH2 0xEFE DUP5 DUP3 DUP6 ADD PUSH2 0xEC8 JUMP JUMPDEST SWAP2 POP POP SWAP3 SWAP2 POP POP JUMP JUMPDEST PUSH0 PUSH20 0xFFFFFFFFFFFFFFFFFFFFFFFFFFFFFFFFFFFFFFFF DUP3 AND SWAP1 POP SWAP2 SWAP1 POP JUMP JUMPDEST PUSH0 PUSH2 0xF30 DUP3 PUSH2 0xF07 JUMP JUMPDEST SWAP1 POP SWAP2 SWAP1 POP JUMP JUMPDEST PUSH2 0xF40 DUP2 PUSH2 0xF26 JUMP JUMPDEST DUP3 MSTORE POP POP JUMP JUMPDEST PUSH0 PUSH1 0x40 DUP3 ADD SWAP1 POP PUSH2 0xF59 PUSH0 DUP4 ADD DUP6 PUSH2 0xF37 JUMP JUMPDEST PUSH2 0xF66 PUSH1 0x20 DUP4 ADD DUP5 PUSH2 0xE86 JUMP JUMPDEST SWAP4 SWAP3 POP POP POP JUMP JUMPDEST PUSH0 PUSH1 0x20 DUP3 ADD SWAP1 POP PUSH2 0xF80 PUSH0 DUP4 ADD DUP5 PUSH2 0xF37 JUMP JUMPDEST SWAP3 SWAP2 POP POP JUMP JUMPDEST PUSH0 DUP2 ISZERO ISZERO SWAP1 POP SWAP2 SWAP1 POP JUMP JUMPDEST PUSH2 0xF9A DUP2 PUSH2 0xF86 JUMP JUMPDEST DUP3 MSTORE POP POP JUMP JUMPDEST PUSH0 PUSH1 0x20 DUP3 ADD SWAP1 POP PUSH2 0xFB3 PUSH0 DUP4 ADD DUP5 PUSH2 0xF91 JUMP JUMPDEST SWAP3 SWAP2 POP POP JUMP JUMPDEST PUSH0 PUSH2 0xFC3 DUP3 PUSH2 0xF07 JUMP JUMPDEST SWAP1 POP SWAP2 SWAP1 POP JUMP JUMPDEST PUSH2 0xFD3 DUP2 PUSH2 0xFB9 JUMP JUMPDEST DUP3 MSTORE POP POP JUMP JUMPDEST PUSH0 PUSH1 0x40 DUP3 ADD SWAP1 POP PUSH2 0xFEC PUSH0 DUP4 ADD DUP6 PUSH2 0xFCA JUMP JUMPDEST PUSH2 0xFF9 PUSH1 0x20 DUP4 ADD DUP5 PUSH2 0xE86 JUMP JUMPDEST SWAP4 SWAP3 POP POP POP JUMP JUMPDEST PUSH0 DUP2 MLOAD SWAP1 POP SWAP2 SWAP1 POP JUMP JUMPDEST PUSH0 DUP3 DUP3 MSTORE PUSH1 0x20 DUP3 ADD SWAP1 POP SWAP3 SWAP2 POP POP JUMP JUMPDEST PUSH0 DUP2 SWAP1 POP PUSH1 0x20 DUP3 ADD SWAP1 POP SWAP2 SWAP1 POP JUMP JUMPDEST PUSH2 0x1032 DUP2 PUSH2 0xF26 JUMP JUMPDEST DUP3 MSTORE POP POP JUMP JUMPDEST PUSH2 0x1041 DUP2 PUSH2 0xE7D JUMP JUMPDEST DUP3 MSTORE POP POP JUMP JUMPDEST PUSH1 0x40 DUP3 ADD PUSH0 DUP3 ADD MLOAD PUSH2 0x105B PUSH0 DUP6 ADD DUP3 PUSH2 0x1029 JUMP JUMPDEST POP PUSH1 0x20 DUP3 ADD MLOAD PUSH2 0x106E PUSH1 0x20 DUP6 ADD DUP3 PUSH2 0x1038 JUMP JUMPDEST POP POP POP POP JUMP JUMPDEST PUSH0 PUSH2 0x107F DUP4 DUP4 PUSH2 0x1047 JUMP JUMPDEST PUSH1 0x40 DUP4 ADD SWAP1 POP SWAP3 SWAP2 POP POP JUMP JUMPDEST PUSH0 PUSH1 0x20 DUP3 ADD SWAP1 POP SWAP2 SWAP1 POP JUMP JUMPDEST PUSH0 PUSH2 0x10A1 DUP3 PUSH2 0x1000 JUMP JUMPDEST PUSH2 0x10AB DUP2 DUP6 PUSH2 0x100A JUMP JUMPDEST SWAP4 POP PUSH2 0x10B6 DUP4 PUSH2 0x101A JUMP JUMPDEST DUP1 PUSH0 JUMPDEST DUP4 DUP2 LT ISZERO PUSH2 0x10E6 JUMPI DUP2 MLOAD PUSH2 0x10CD DUP9 DUP3 PUSH2 0x1074 JUMP JUMPDEST SWAP8 POP PUSH2 0x10D8 DUP4 PUSH2 0x108B JUMP JUMPDEST SWAP3 POP POP PUSH1 0x1 DUP2 ADD SWAP1 POP PUSH2 0x10B9 JUMP JUMPDEST POP DUP6 SWAP4 POP POP POP POP SWAP3 SWAP2 POP POP JUMP JUMPDEST PUSH0 PUSH1 0x20 DUP3 ADD SWAP1 POP DUP2 DUP2 SUB PUSH0 DUP4 ADD MSTORE PUSH2 0x110B DUP2 DUP5 PUSH2 0x1097 JUMP JUMPDEST SWAP1 POP SWAP3 SWAP2 POP POP JUMP JUMPDEST PUSH2 0x111C DUP2 PUSH2 0xFB9 JUMP JUMPDEST DUP2 EQ PUSH2 0x1126 JUMPI PUSH0 DUP1 REVERT JUMPDEST POP JUMP JUMPDEST PUSH0 DUP2 CALLDATALOAD SWAP1 POP PUSH2 0x1137 DUP2 PUSH2 0x1113 JUMP JUMPDEST SWAP3 SWAP2 POP POP JUMP JUMPDEST PUSH0 PUSH1 0x20 DUP3 DUP5 SUB SLT ISZERO PUSH2 0x1152 JUMPI PUSH2 0x1151 PUSH2 0xEAE JUMP JUMPDEST JUMPDEST PUSH0 PUSH2 0x115F DUP5 DUP3 DUP6 ADD PUSH2 0x1129 JUMP JUMPDEST SWAP2 POP POP SWAP3 SWAP2 POP POP JUMP JUMPDEST PUSH0 DUP3 DUP3 MSTORE PUSH1 0x20 DUP3 ADD SWAP1 POP SWAP3 SWAP2 POP POP JUMP JUMPDEST PUSH32 0x41756374696F6E2068617320616C726561647920656E6465642E000000000000 PUSH0 DUP3 ADD MSTORE POP JUMP JUMPDEST PUSH0 PUSH2 0x11AC PUSH1 0x1A DUP4 PUSH2 0x1168 JUMP JUMPDEST SWAP2 POP PUSH2 0x11B7 DUP3 PUSH2 0x1178 JUMP JUMPDEST PUSH1 0x20 DUP3 ADD SWAP1 POP SWAP2 SWAP1 POP JUMP JUMPDEST PUSH0 PUSH1 0x20 DUP3 ADD SWAP1 POP DUP2 DUP2 SUB PUSH0 DUP4 ADD MSTORE PUSH2 0x11D9 DUP2 PUSH2 0x11A0 JUMP JUMPDEST SWAP1 POP SWAP2 SWAP1 POP JUMP JUMPDEST PUSH32 0x4E6F2066756E647320617661696C61626C6520666F7220726566756E642E0000 PUSH0 DUP3 ADD MSTORE POP JUMP JUMPDEST PUSH0 PUSH2 0x1214 PUSH1 0x1E DUP4 PUSH2 0x1168 JUMP JUMPDEST SWAP2 POP PUSH2 0x121F DUP3 PUSH2 0x11E0 JUMP JUMPDEST PUSH1 0x20 DUP3 ADD SWAP1 POP SWAP2 SWAP1 POP JUMP JUMPDEST PUSH0 PUSH1 0x20 DUP3 ADD SWAP1 POP DUP2 DUP2 SUB PUSH0 DUP4 ADD MSTORE PUSH2 0x1241 DUP2 PUSH2 0x1208 JUMP JUMPDEST SWAP1 POP SWAP2 SWAP1 POP JUMP JUMPDEST PUSH32 0x41756374696F6E206973207374696C6C206F6E676F696E672E00000000000000 PUSH0 DUP3 ADD MSTORE POP JUMP JUMPDEST PUSH0 PUSH2 0x127C PUSH1 0x19 DUP4 PUSH2 0x1168 JUMP JUMPDEST SWAP2 POP PUSH2 0x1287 DUP3 PUSH2 0x1248 JUMP JUMPDEST PUSH1 0x20 DUP3 ADD SWAP1 POP SWAP2 SWAP1 POP JUMP JUMPDEST PUSH0 PUSH1 0x20 DUP3 ADD SWAP1 POP DUP2 DUP2 SUB PUSH0 DUP4 ADD MSTORE PUSH2 0x12A9 DUP2 PUSH2 0x1270 JUMP JUMPDEST SWAP1 POP SWAP2 SWAP1 POP JUMP JUMPDEST PUSH32 0x41756374696F6E20686173206E6F7420656E646564207965742E000000000000 PUSH0 DUP3 ADD MSTORE POP JUMP JUMPDEST PUSH0 PUSH2 0x12E4 PUSH1 0x1A DUP4 PUSH2 0x1168 JUMP JUMPDEST SWAP2 POP PUSH2 0x12EF DUP3 PUSH2 0x12B0 JUMP JUMPDEST PUSH1 0x20 DUP3 ADD SWAP1 POP SWAP2 SWAP1 POP JUMP JUMPDEST PUSH0 PUSH1 0x20 DUP3 ADD SWAP1 POP DUP2 DUP2 SUB PUSH0 DUP4 ADD MSTORE PUSH2 0x1311 DUP2 PUSH2 0x12D8 JUMP JUMPDEST SWAP1 POP SWAP2 SWAP1 POP JUMP JUMPDEST PUSH32 0x4E6F20726566756E6420617661696C61626C652E000000000000000000000000 PUSH0 DUP3 ADD MSTORE POP JUMP JUMPDEST PUSH0 PUSH2 0x134C PUSH1 0x14 DUP4 PUSH2 0x1168 JUMP JUMPDEST SWAP2 POP PUSH2 0x1357 DUP3 PUSH2 0x1318 JUMP JUMPDEST PUSH1 0x20 DUP3 ADD SWAP1 POP SWAP2 SWAP1 POP JUMP JUMPDEST PUSH0 PUSH1 0x20 DUP3 ADD SWAP1 POP DUP2 DUP2 SUB PUSH0 DUP4 ADD MSTORE PUSH2 0x1379 DUP2 PUSH2 0x1340 JUMP JUMPDEST SWAP1 POP SWAP2 SWAP1 POP JUMP JUMPDEST PUSH32 0x4E487B7100000000000000000000000000000000000000000000000000000000 PUSH0 MSTORE PUSH1 0x11 PUSH1 0x4 MSTORE PUSH1 0x24 PUSH0 REVERT JUMPDEST PUSH0 PUSH2 0x13B7 DUP3 PUSH2 0xE7D JUMP JUMPDEST SWAP2 POP PUSH2 0x13C2 DUP4 PUSH2 0xE7D JUMP JUMPDEST SWAP3 POP DUP3 DUP3 MUL PUSH2 0x13D0 DUP2 PUSH2 0xE7D JUMP JUMPDEST SWAP2 POP DUP3 DUP3 DIV DUP5 EQ DUP4 ISZERO OR PUSH2 0x13E7 JUMPI PUSH2 0x13E6 PUSH2 0x1380 JUMP JUMPDEST JUMPDEST POP SWAP3 SWAP2 POP POP JUMP JUMPDEST PUSH32 0x4E487B7100000000000000000000000000000000000000000000000000000000 PUSH0 MSTORE PUSH1 0x12 PUSH1 0x4 MSTORE PUSH1 0x24 PUSH0 REVERT JUMPDEST PUSH0 PUSH2 0x1425 DUP3 PUSH2 0xE7D JUMP JUMPDEST SWAP2 POP PUSH2 0x1430 DUP4 PUSH2 0xE7D JUMP JUMPDEST SWAP3 POP DUP3 PUSH2 0x1440 JUMPI PUSH2 0x143F PUSH2 0x13EE JUMP JUMPDEST JUMPDEST DUP3 DUP3 DIV SWAP1 POP SWAP3 SWAP2 POP POP JUMP JUMPDEST PUSH0 PUSH2 0x1455 DUP3 PUSH2 0xE7D JUMP JUMPDEST SWAP2 POP PUSH2 0x1460 DUP4 PUSH2 0xE7D JUMP JUMPDEST SWAP3 POP DUP3 DUP3 SUB SWAP1 POP DUP2 DUP2 GT ISZERO PUSH2 0x1478 JUMPI PUSH2 0x1477 PUSH2 0x1380 JUMP JUMPDEST JUMPDEST SWAP3 SWAP2 POP POP JUMP JUMPDEST PUSH32 0x41756374696F6E206D75737420626520656E64656420746F2067657420746865 PUSH0 DUP3 ADD MSTORE PUSH32 0x2077696E6E65722E000000000000000000000000000000000000000000000000 PUSH1 0x20 DUP3 ADD MSTORE POP JUMP JUMPDEST PUSH0 PUSH2 0x14D8 PUSH1 0x28 DUP4 PUSH2 0x1168 JUMP JUMPDEST SWAP2 POP PUSH2 0x14E3 DUP3 PUSH2 0x147E JUMP JUMPDEST PUSH1 0x40 DUP3 ADD SWAP1 POP SWAP2 SWAP1 POP JUMP JUMPDEST PUSH0 PUSH1 0x20 DUP3 ADD SWAP1 POP DUP2 DUP2 SUB PUSH0 DUP4 ADD MSTORE PUSH2 0x1505 DUP2 PUSH2 0x14CC JUMP JUMPDEST SWAP1 POP SWAP2 SWAP1 POP JUMP JUMPDEST PUSH32 0x42696420616D6F756E74206D7573742062652067726561746572207468616E20 PUSH0 DUP3 ADD MSTORE PUSH32 0x7A65726F2E000000000000000000000000000000000000000000000000000000 PUSH1 0x20 DUP3 ADD MSTORE POP JUMP JUMPDEST PUSH0 PUSH2 0x1566 PUSH1 0x25 DUP4 PUSH2 0x1168 JUMP JUMPDEST SWAP2 POP PUSH2 0x1571 DUP3 PUSH2 0x150C JUMP JUMPDEST PUSH1 0x40 DUP3 ADD SWAP1 POP SWAP2 SWAP1 POP JUMP JUMPDEST PUSH0 PUSH1 0x20 DUP3 ADD SWAP1 POP DUP2 DUP2 SUB PUSH0 DUP4 ADD MSTORE PUSH2 0x1593 DUP2 PUSH2 0x155A JUMP JUMPDEST SWAP1 POP SWAP2 SWAP1 POP JUMP JUMPDEST PUSH0 PUSH2 0x15A4 DUP3 PUSH2 0xE7D JUMP JUMPDEST SWAP2 POP PUSH2 0x15AF DUP4 PUSH2 0xE7D JUMP JUMPDEST SWAP3 POP DUP3 DUP3 ADD SWAP1 POP DUP1 DUP3 GT ISZERO PUSH2 0x15C7 JUMPI PUSH2 0x15C6 PUSH2 0x1380 JUMP JUMPDEST JUMPDEST SWAP3 SWAP2 POP POP JUMP JUMPDEST PUSH32 0x426964206D757374206265206174206C65617374203525206869676865722074 PUSH0 DUP3 ADD MSTORE PUSH32 0x68616E207468652063757272656E742068696768657374206269642E00000000 PUSH1 0x20 DUP3 ADD MSTORE POP JUMP JUMPDEST PUSH0 PUSH2 0x1627 PUSH1 0x3C DUP4 PUSH2 0x1168 JUMP JUMPDEST SWAP2 POP PUSH2 0x1632 DUP3 PUSH2 0x15CD JUMP JUMPDEST PUSH1 0x40 DUP3 ADD SWAP1 POP SWAP2 SWAP1 POP JUMP JUMPDEST PUSH0 PUSH1 0x20 DUP3 ADD SWAP1 POP DUP2 DUP2 SUB PUSH0 DUP4 ADD MSTORE PUSH2 0x1654 DUP2 PUSH2 0x161B JUMP JUMPDEST SWAP1 POP SWAP2 SWAP1 POP JUMP JUMPDEST PUSH32 0x4F6E6C792061756374696F6E6565722063616E20706572666F726D2074686973 PUSH0 DUP3 ADD MSTORE PUSH32 0x20616374696F6E2E000000000000000000000000000000000000000000000000 PUSH1 0x20 DUP3 ADD MSTORE POP JUMP JUMPDEST PUSH0 PUSH2 0x16B5 PUSH1 0x28 DUP4 PUSH2 0x1168 JUMP JUMPDEST SWAP2 POP PUSH2 0x16C0 DUP3 PUSH2 0x165B JUMP JUMPDEST PUSH1 0x40 DUP3 ADD SWAP1 POP SWAP2 SWAP1 POP JUMP JUMPDEST PUSH0 PUSH1 0x20 DUP3 ADD SWAP1 POP DUP2 DUP2 SUB PUSH0 DUP4 ADD MSTORE PUSH2 0x16E2 DUP2 PUSH2 0x16A9 JUMP JUMPDEST SWAP1 POP SWAP2 SWAP1 POP JUMP JUMPDEST PUSH32 0x41756374696F6E2068617320616C7265616479206265656E2066696E616C697A PUSH0 DUP3 ADD MSTORE PUSH32 0x65642E0000000000000000000000000000000000000000000000000000000000 PUSH1 0x20 DUP3 ADD MSTORE POP JUMP JUMPDEST PUSH0 PUSH2 0x1743 PUSH1 0x23 DUP4 PUSH2 0x1168 JUMP JUMPDEST SWAP2 POP PUSH2 0x174E DUP3 PUSH2 0x16E9 JUMP JUMPDEST PUSH1 0x40 DUP3 ADD SWAP1 POP SWAP2 SWAP1 POP JUMP JUMPDEST PUSH0 PUSH1 0x20 DUP3 ADD SWAP1 POP DUP2 DUP2 SUB PUSH0 DUP4 ADD MSTORE PUSH2 0x1770 DUP2 PUSH2 0x1737 JUMP JUMPDEST SWAP1 POP SWAP2 SWAP1 POP JUMP JUMPDEST PUSH0 DUP2 SWAP1 POP SWAP2 SWAP1 POP JUMP JUMPDEST PUSH0 PUSH2 0x179A PUSH2 0x1795 PUSH2 0x1790 DUP5 PUSH2 0xF07 JUMP JUMPDEST PUSH2 0x1777 JUMP JUMPDEST PUSH2 0xF07 JUMP JUMPDEST SWAP1 POP SWAP2 SWAP1 POP JUMP JUMPDEST PUSH0 PUSH2 0x17AB DUP3 PUSH2 0x1780 JUMP JUMPDEST SWAP1 POP SWAP2 SWAP1 POP JUMP JUMPDEST PUSH0 PUSH2 0x17BC DUP3 PUSH2 0x17A1 JUMP JUMPDEST SWAP1 POP SWAP2 SWAP1 POP JUMP JUMPDEST PUSH2 0x17CC DUP2 PUSH2 0x17B2 JUMP JUMPDEST DUP3 MSTORE POP POP JUMP JUMPDEST PUSH0 PUSH1 0x40 DUP3 ADD SWAP1 POP PUSH2 0x17E5 PUSH0 DUP4 ADD DUP6 PUSH2 0x17C3 JUMP JUMPDEST PUSH2 0x17F2 PUSH1 0x20 DUP4 ADD DUP5 PUSH2 0xE86 JUMP JUMPDEST SWAP4 SWAP3 POP POP POP JUMP INVALID LOG2 PUSH5 0x6970667358 0x22 SLT KECCAK256 PUSH19 0xFCFDAFC84094B6A5F35C9E34C5F4DD5D463730 CREATE2 PUSH29 0x661AB17808B0403C811164736F6C634300081A00330000000000000000 "
				},
				"gasEstimates": {
					"creation": {
						"codeDepositCost": "1238200",
						"executionCost": "infinite",
						"totalCost": "infinite"
					},
					"external": {
						"auctionEnded()": "2555",
						"auctioneer()": "2528",
						"bids(uint256)": "infinite",
						"deposits(address)": "2890",
						"endTime()": "2449",
						"finalizeAuction()": "infinite",
						"gasFeePercent()": "2470",
						"getBids()": "infinite",
						"getWinner()": "9083",
						"highestBid()": "4754",
						"minIncrement()": "2448",
						"placeBid()": "infinite",
						"refundLosingBids()": "infinite",
						"startTime()": "2492",
						"withdrawPartialDeposit()": "infinite"
					}
				},
				"methodIdentifiers": {
					"auctionEnded()": "86433374",
					"auctioneer()": "5ec2c7bf",
					"bids(uint256)": "4423c5f1",
					"deposits(address)": "fc7e286d",
					"endTime()": "3197cbb6",
					"finalizeAuction()": "f77282ab",
					"gasFeePercent()": "8cf0b15c",
					"getBids()": "b81c78ec",
					"getWinner()": "8e7ea5b2",
					"highestBid()": "d57bde79",
					"minIncrement()": "8afcb14d",
					"placeBid()": "ecfc7ecc",
					"refundLosingBids()": "629e6b24",
					"startTime()": "78e97925",
					"withdrawPartialDeposit()": "5ccf987e"
				}
			},
			"storageLayout": {
				"storage": [
					{
						"astId": 3,
						"contract": "contracts/OtroEjemploSubasta.sol:Auction",
						"label": "auctioneer",
						"offset": 0,
						"slot": "0",
						"type": "t_address_payable"
					},
					{
						"astId": 5,
						"contract": "contracts/OtroEjemploSubasta.sol:Auction",
						"label": "startTime",
						"offset": 0,
						"slot": "1",
						"type": "t_uint256"
					},
					{
						"astId": 7,
						"contract": "contracts/OtroEjemploSubasta.sol:Auction",
						"label": "endTime",
						"offset": 0,
						"slot": "2",
						"type": "t_uint256"
					},
					{
						"astId": 9,
						"contract": "contracts/OtroEjemploSubasta.sol:Auction",
						"label": "minIncrement",
						"offset": 0,
						"slot": "3",
						"type": "t_uint256"
					},
					{
						"astId": 11,
						"contract": "contracts/OtroEjemploSubasta.sol:Auction",
						"label": "gasFeePercent",
						"offset": 0,
						"slot": "4",
						"type": "t_uint256"
					},
					{
						"astId": 13,
						"contract": "contracts/OtroEjemploSubasta.sol:Auction",
						"label": "auctionEnded",
						"offset": 0,
						"slot": "5",
						"type": "t_bool"
					},
					{
						"astId": 21,
						"contract": "contracts/OtroEjemploSubasta.sol:Auction",
						"label": "highestBid",
						"offset": 0,
						"slot": "6",
						"type": "t_struct(Bid)18_storage"
					},
					{
						"astId": 25,
						"contract": "contracts/OtroEjemploSubasta.sol:Auction",
						"label": "deposits",
						"offset": 0,
						"slot": "8",
						"type": "t_mapping(t_address,t_uint256)"
					},
					{
						"astId": 29,
						"contract": "contracts/OtroEjemploSubasta.sol:Auction",
						"label": "bids",
						"offset": 0,
						"slot": "9",
						"type": "t_array(t_struct(Bid)18_storage)dyn_storage"
					}
				],
				"types": {
					"t_address": {
						"encoding": "inplace",
						"label": "address",
						"numberOfBytes": "20"
					},
					"t_address_payable": {
						"encoding": "inplace",
						"label": "address payable",
						"numberOfBytes": "20"
					},
					"t_array(t_struct(Bid)18_storage)dyn_storage": {
						"base": "t_struct(Bid)18_storage",
						"encoding": "dynamic_array",
						"label": "struct Auction.Bid[]",
						"numberOfBytes": "32"
					},
					"t_bool": {
						"encoding": "inplace",
						"label": "bool",
						"numberOfBytes": "1"
					},
					"t_mapping(t_address,t_uint256)": {
						"encoding": "mapping",
						"key": "t_address",
						"label": "mapping(address => uint256)",
						"numberOfBytes": "32",
						"value": "t_uint256"
					},
					"t_struct(Bid)18_storage": {
						"encoding": "inplace",
						"label": "struct Auction.Bid",
						"members": [
							{
								"astId": 15,
								"contract": "contracts/OtroEjemploSubasta.sol:Auction",
								"label": "bidder",
								"offset": 0,
								"slot": "0",
								"type": "t_address_payable"
							},
							{
								"astId": 17,
								"contract": "contracts/OtroEjemploSubasta.sol:Auction",
								"label": "amount",
								"offset": 0,
								"slot": "1",
								"type": "t_uint256"
							}
						],
						"numberOfBytes": "64"
					},
					"t_uint256": {
						"encoding": "inplace",
						"label": "uint256",
						"numberOfBytes": "32"
					}
				}
			},
			"userdoc": {
				"kind": "user",
				"methods": {},
				"version": 1
			}
		}
	}
}