{
	"contracts/TPSubasta.sol": {
		"TPSubasta": {
			"abi": [
				{
					"inputs": [
						{
							"internalType": "uint256",
							"name": "_duracionSubasta",
							"type": "uint256"
						}
					],
					"stateMutability": "nonpayable",
					"type": "constructor"
				},
				{
					"anonymous": false,
					"inputs": [
						{
							"indexed": false,
							"internalType": "address",
							"name": "ganador",
							"type": "address"
						},
						{
							"indexed": false,
							"internalType": "uint256",
							"name": "monto",
							"type": "uint256"
						}
					],
					"name": "GanadorDefinido",
					"type": "event"
				},
				{
					"anonymous": false,
					"inputs": [
						{
							"indexed": false,
							"internalType": "address",
							"name": "ofertante",
							"type": "address"
						},
						{
							"indexed": false,
							"internalType": "uint256",
							"name": "monto",
							"type": "uint256"
						}
					],
					"name": "OfertaAceptada",
					"type": "event"
				},
				{
					"anonymous": false,
					"inputs": [
						{
							"indexed": false,
							"internalType": "uint256",
							"name": "nuevoTiempoFinal",
							"type": "uint256"
						}
					],
					"name": "SubastaExtendida",
					"type": "event"
				},
				{
					"inputs": [
						{
							"internalType": "address",
							"name": "",
							"type": "address"
						}
					],
					"name": "depositos",
					"outputs": [
						{
							"internalType": "uint256",
							"name": "",
							"type": "uint256"
						}
					],
					"stateMutability": "view",
					"type": "function"
				},
				{
					"inputs": [],
					"name": "duracionSubasta",
					"outputs": [
						{
							"internalType": "uint256",
							"name": "",
							"type": "uint256"
						}
					],
					"stateMutability": "view",
					"type": "function"
				},
				{
					"inputs": [],
					"name": "finalizarSubasta",
					"outputs": [],
					"stateMutability": "nonpayable",
					"type": "function"
				},
				{
					"inputs": [],
					"name": "ganador",
					"outputs": [
						{
							"internalType": "address",
							"name": "",
							"type": "address"
						}
					],
					"stateMutability": "view",
					"type": "function"
				},
				{
					"inputs": [],
					"name": "mostrarGanador",
					"outputs": [
						{
							"internalType": "address",
							"name": "",
							"type": "address"
						},
						{
							"internalType": "uint256",
							"name": "",
							"type": "uint256"
						}
					],
					"stateMutability": "view",
					"type": "function"
				},
				{
					"inputs": [],
					"name": "mostrarOfertas",
					"outputs": [
						{
							"components": [
								{
									"internalType": "address",
									"name": "ofertante",
									"type": "address"
								},
								{
									"internalType": "uint256",
									"name": "monto",
									"type": "uint256"
								}
							],
							"internalType": "struct TPSubasta.Oferta[]",
							"name": "",
							"type": "tuple[]"
						}
					],
					"stateMutability": "view",
					"type": "function"
				},
				{
					"inputs": [],
					"name": "ofertaGanadora",
					"outputs": [
						{
							"internalType": "uint256",
							"name": "",
							"type": "uint256"
						}
					],
					"stateMutability": "view",
					"type": "function"
				},
				{
					"inputs": [],
					"name": "ofertar",
					"outputs": [],
					"stateMutability": "payable",
					"type": "function"
				},
				{
					"inputs": [
						{
							"internalType": "uint256",
							"name": "",
							"type": "uint256"
						}
					],
					"name": "ofertas",
					"outputs": [
						{
							"internalType": "address",
							"name": "ofertante",
							"type": "address"
						},
						{
							"internalType": "uint256",
							"name": "monto",
							"type": "uint256"
						}
					],
					"stateMutability": "view",
					"type": "function"
				},
				{
					"inputs": [],
					"name": "owner",
					"outputs": [
						{
							"internalType": "address",
							"name": "",
							"type": "address"
						}
					],
					"stateMutability": "view",
					"type": "function"
				},
				{
					"inputs": [],
					"name": "retirarDeposito",
					"outputs": [],
					"stateMutability": "nonpayable",
					"type": "function"
				},
				{
					"inputs": [],
					"name": "retirarExceso",
					"outputs": [],
					"stateMutability": "nonpayable",
					"type": "function"
				},
				{
					"inputs": [],
					"name": "subastaActiva",
					"outputs": [
						{
							"internalType": "bool",
							"name": "",
							"type": "bool"
						}
					],
					"stateMutability": "view",
					"type": "function"
				},
				{
					"inputs": [],
					"name": "tiempoInicio",
					"outputs": [
						{
							"internalType": "uint256",
							"name": "",
							"type": "uint256"
						}
					],
					"stateMutability": "view",
					"type": "function"
				},
				{
					"inputs": [],
					"name": "totalOfertas",
					"outputs": [
						{
							"internalType": "uint256",
							"name": "",
							"type": "uint256"
						}
					],
					"stateMutability": "view",
					"type": "function"
				}
			],
			"devdoc": {
				"kind": "dev",
				"methods": {},
				"version": 1
			},
			"evm": {
				"assembly": "    /* \"contracts/TPSubasta.sol\":1025:5199  contract TPSubasta{... */\n  mstore(0x40, 0x80)\n    /* \"contracts/TPSubasta.sol\":2232:2453  constructor(uint256 _duracionSubasta) {... */\n  callvalue\n  dup1\n  iszero\n  tag_1\n  jumpi\n  0x00\n  dup1\n  revert\ntag_1:\n  pop\n  mload(0x40)\n  sub(codesize, bytecodeSize)\n  dup1\n  bytecodeSize\n  dup4\n  codecopy\n  dup2\n  dup2\n  add\n  0x40\n  mstore\n  dup2\n  add\n  swap1\n  tag_2\n  swap2\n  swap1\n  tag_3\n  jump\t// in\ntag_2:\n    /* \"contracts/TPSubasta.sol\":2289:2299  msg.sender */\n  caller\n    /* \"contracts/TPSubasta.sol\":2281:2286  owner */\n  0x00\n  dup1\n    /* \"contracts/TPSubasta.sol\":2281:2299  owner = msg.sender */\n  0x0100\n  exp\n  dup2\n  sload\n  dup2\n  0xffffffffffffffffffffffffffffffffffffffff\n  mul\n  not\n  and\n  swap1\n  dup4\n  0xffffffffffffffffffffffffffffffffffffffff\n  and\n  mul\n  or\n  swap1\n  sstore\n  pop\n    /* \"contracts/TPSubasta.sol\":2325:2340  block.timestamp */\n  timestamp\n    /* \"contracts/TPSubasta.sol\":2310:2322  tiempoInicio */\n  0x01\n    /* \"contracts/TPSubasta.sol\":2310:2340  tiempoInicio = block.timestamp */\n  dup2\n  swap1\n  sstore\n  pop\n    /* \"contracts/TPSubasta.sol\":2369:2385  _duracionSubasta */\n  dup1\n    /* \"contracts/TPSubasta.sol\":2351:2366  duracionSubasta */\n  0x02\n    /* \"contracts/TPSubasta.sol\":2351:2385  duracionSubasta = _duracionSubasta */\n  dup2\n  swap1\n  sstore\n  pop\n    /* \"contracts/TPSubasta.sol\":2413:2414  0 */\n  0x00\n    /* \"contracts/TPSubasta.sol\":2396:2410  ofertaGanadora */\n  0x04\n    /* \"contracts/TPSubasta.sol\":2396:2414  ofertaGanadora = 0 */\n  dup2\n  swap1\n  sstore\n  pop\n    /* \"contracts/TPSubasta.sol\":2441:2445  true */\n  0x01\n    /* \"contracts/TPSubasta.sol\":2425:2438  subastaActiva */\n  0x05\n  0x00\n    /* \"contracts/TPSubasta.sol\":2425:2445  subastaActiva = true */\n  0x0100\n  exp\n  dup2\n  sload\n  dup2\n  0xff\n  mul\n  not\n  and\n  swap1\n  dup4\n  iszero\n  iszero\n  mul\n  or\n  swap1\n  sstore\n  pop\n    /* \"contracts/TPSubasta.sol\":2232:2453  constructor(uint256 _duracionSubasta) {... */\n  pop\n    /* \"contracts/TPSubasta.sol\":1025:5199  contract TPSubasta{... */\n  jump(tag_6)\n    /* \"#utility.yul\":88:205   */\ntag_8:\n    /* \"#utility.yul\":197:198   */\n  0x00\n    /* \"#utility.yul\":194:195   */\n  dup1\n    /* \"#utility.yul\":187:199   */\n  revert\n    /* \"#utility.yul\":334:411   */\ntag_10:\n    /* \"#utility.yul\":371:378   */\n  0x00\n    /* \"#utility.yul\":400:405   */\n  dup2\n    /* \"#utility.yul\":389:405   */\n  swap1\n  pop\n    /* \"#utility.yul\":334:411   */\n  swap2\n  swap1\n  pop\n  jump\t// out\n    /* \"#utility.yul\":417:539   */\ntag_11:\n    /* \"#utility.yul\":490:514   */\n  tag_19\n    /* \"#utility.yul\":508:513   */\n  dup2\n    /* \"#utility.yul\":490:514   */\n  tag_10\n  jump\t// in\ntag_19:\n    /* \"#utility.yul\":483:488   */\n  dup2\n    /* \"#utility.yul\":480:515   */\n  eq\n    /* \"#utility.yul\":470:533   */\n  tag_20\n  jumpi\n    /* \"#utility.yul\":529:530   */\n  0x00\n    /* \"#utility.yul\":526:527   */\n  dup1\n    /* \"#utility.yul\":519:531   */\n  revert\n    /* \"#utility.yul\":470:533   */\ntag_20:\n    /* \"#utility.yul\":417:539   */\n  pop\n  jump\t// out\n    /* \"#utility.yul\":545:688   */\ntag_12:\n    /* \"#utility.yul\":602:607   */\n  0x00\n    /* \"#utility.yul\":633:639   */\n  dup2\n    /* \"#utility.yul\":627:640   */\n  mload\n    /* \"#utility.yul\":618:640   */\n  swap1\n  pop\n    /* \"#utility.yul\":649:682   */\n  tag_22\n    /* \"#utility.yul\":676:681   */\n  dup2\n    /* \"#utility.yul\":649:682   */\n  tag_11\n  jump\t// in\ntag_22:\n    /* \"#utility.yul\":545:688   */\n  swap3\n  swap2\n  pop\n  pop\n  jump\t// out\n    /* \"#utility.yul\":694:1045   */\ntag_3:\n    /* \"#utility.yul\":764:770   */\n  0x00\n    /* \"#utility.yul\":813:815   */\n  0x20\n    /* \"#utility.yul\":801:810   */\n  dup3\n    /* \"#utility.yul\":792:799   */\n  dup5\n    /* \"#utility.yul\":788:811   */\n  sub\n    /* \"#utility.yul\":784:816   */\n  slt\n    /* \"#utility.yul\":781:900   */\n  iszero\n  tag_24\n  jumpi\n    /* \"#utility.yul\":819:898   */\n  tag_25\n  tag_8\n  jump\t// in\ntag_25:\n    /* \"#utility.yul\":781:900   */\ntag_24:\n    /* \"#utility.yul\":939:940   */\n  0x00\n    /* \"#utility.yul\":964:1028   */\n  tag_26\n    /* \"#utility.yul\":1020:1027   */\n  dup5\n    /* \"#utility.yul\":1011:1017   */\n  dup3\n    /* \"#utility.yul\":1000:1009   */\n  dup6\n    /* \"#utility.yul\":996:1018   */\n  add\n    /* \"#utility.yul\":964:1028   */\n  tag_12\n  jump\t// in\ntag_26:\n    /* \"#utility.yul\":954:1028   */\n  swap2\n  pop\n    /* \"#utility.yul\":910:1038   */\n  pop\n    /* \"#utility.yul\":694:1045   */\n  swap3\n  swap2\n  pop\n  pop\n  jump\t// out\n    /* \"contracts/TPSubasta.sol\":1025:5199  contract TPSubasta{... */\ntag_6:\n  dataSize(sub_0)\n  dup1\n  dataOffset(sub_0)\n  0x00\n  codecopy\n  0x00\n  return\nstop\n\nsub_0: assembly {\n        /* \"contracts/TPSubasta.sol\":1025:5199  contract TPSubasta{... */\n      mstore(0x40, 0x80)\n      jumpi(tag_1, lt(calldatasize, 0x04))\n      shr(0xe0, calldataload(0x00))\n      dup1\n      0x8da5cb5b\n      gt\n      tag_17\n      jumpi\n      dup1\n      0xa791e09b\n      gt\n      tag_18\n      jumpi\n      dup1\n      0xa791e09b\n      eq\n      tag_13\n      jumpi\n      dup1\n      0xc1902319\n      eq\n      tag_14\n      jumpi\n      dup1\n      0xc442a99f\n      eq\n      tag_15\n      jumpi\n      dup1\n      0xd1d7e96c\n      eq\n      tag_16\n      jumpi\n      jump(tag_1)\n    tag_18:\n      dup1\n      0x8da5cb5b\n      eq\n      tag_9\n      jumpi\n      dup1\n      0x9114bde8\n      eq\n      tag_10\n      jumpi\n      dup1\n      0x963cb24a\n      eq\n      tag_11\n      jumpi\n      dup1\n      0xa05d3ddc\n      eq\n      tag_12\n      jumpi\n      jump(tag_1)\n    tag_17:\n      dup1\n      0x56afff7c\n      gt\n      tag_19\n      jumpi\n      dup1\n      0x56afff7c\n      eq\n      tag_5\n      jumpi\n      dup1\n      0x5dfe78f7\n      eq\n      tag_6\n      jumpi\n      dup1\n      0x664e62b9\n      eq\n      tag_7\n      jumpi\n      dup1\n      0x753dcaeb\n      eq\n      tag_8\n      jumpi\n      jump(tag_1)\n    tag_19:\n      dup1\n      0x0851eac2\n      eq\n      tag_2\n      jumpi\n      dup1\n      0x13a83eaf\n      eq\n      tag_3\n      jumpi\n      dup1\n      0x3ec059d7\n      eq\n      tag_4\n      jumpi\n    tag_1:\n      0x00\n      dup1\n      revert\n        /* \"contracts/TPSubasta.sol\":3624:3786  function finalizarSubasta() public soloPropietario subastaEnCurso {... */\n    tag_2:\n      callvalue\n      dup1\n      iszero\n      tag_20\n      jumpi\n      0x00\n      dup1\n      revert\n    tag_20:\n      pop\n      tag_21\n      tag_22\n      jump\t// in\n    tag_21:\n      stop\n        /* \"contracts/TPSubasta.sol\":1206:1235  uint256 public ofertaGanadora */\n    tag_3:\n      callvalue\n      dup1\n      iszero\n      tag_23\n      jumpi\n      0x00\n      dup1\n      revert\n    tag_23:\n      pop\n      tag_24\n      tag_25\n      jump\t// in\n    tag_24:\n      mload(0x40)\n      tag_26\n      swap2\n      swap1\n      tag_27\n      jump\t// in\n    tag_26:\n      mload(0x40)\n      dup1\n      swap2\n      sub\n      swap1\n      return\n        /* \"contracts/TPSubasta.sol\":2503:3534  function ofertar() public payable subastaEnCurso {... */\n    tag_4:\n      tag_28\n      tag_29\n      jump\t// in\n    tag_28:\n      stop\n        /* \"contracts/TPSubasta.sol\":1424:1465  mapping(uint256 => Oferta) public ofertas */\n    tag_5:\n      callvalue\n      dup1\n      iszero\n      tag_30\n      jumpi\n      0x00\n      dup1\n      revert\n    tag_30:\n      pop\n      tag_31\n      0x04\n      dup1\n      calldatasize\n      sub\n      dup2\n      add\n      swap1\n      tag_32\n      swap2\n      swap1\n      tag_33\n      jump\t// in\n    tag_32:\n      tag_34\n      jump\t// in\n    tag_31:\n      mload(0x40)\n      tag_35\n      swap3\n      swap2\n      swap1\n      tag_36\n      jump\t// in\n    tag_35:\n      mload(0x40)\n      dup1\n      swap2\n      sub\n      swap1\n      return\n        /* \"contracts/TPSubasta.sol\":1242:1267  bool public subastaActiva */\n    tag_6:\n      callvalue\n      dup1\n      iszero\n      tag_37\n      jumpi\n      0x00\n      dup1\n      revert\n    tag_37:\n      pop\n      tag_38\n      tag_39\n      jump\t// in\n    tag_38:\n      mload(0x40)\n      tag_40\n      swap2\n      swap1\n      tag_41\n      jump\t// in\n    tag_40:\n      mload(0x40)\n      dup1\n      swap2\n      sub\n      swap1\n      return\n        /* \"contracts/TPSubasta.sol\":1373:1417  mapping(address => uint256) public depositos */\n    tag_7:\n      callvalue\n      dup1\n      iszero\n      tag_42\n      jumpi\n      0x00\n      dup1\n      revert\n    tag_42:\n      pop\n      tag_43\n      0x04\n      dup1\n      calldatasize\n      sub\n      dup2\n      add\n      swap1\n      tag_44\n      swap2\n      swap1\n      tag_45\n      jump\t// in\n    tag_44:\n      tag_46\n      jump\t// in\n    tag_43:\n      mload(0x40)\n      tag_47\n      swap2\n      swap1\n      tag_27\n      jump\t// in\n    tag_47:\n      mload(0x40)\n      dup1\n      swap2\n      sub\n      swap1\n      return\n        /* \"contracts/TPSubasta.sol\":4744:4860  function mostrarGanador() public view returns (address, uint256) {... */\n    tag_8:\n      callvalue\n      dup1\n      iszero\n      tag_48\n      jumpi\n      0x00\n      dup1\n      revert\n    tag_48:\n      pop\n      tag_49\n      tag_50\n      jump\t// in\n    tag_49:\n      mload(0x40)\n      tag_51\n      swap3\n      swap2\n      swap1\n      tag_36\n      jump\t// in\n    tag_51:\n      mload(0x40)\n      dup1\n      swap2\n      sub\n      swap1\n      return\n        /* \"contracts/TPSubasta.sol\":1079:1099  address public owner */\n    tag_9:\n      callvalue\n      dup1\n      iszero\n      tag_52\n      jumpi\n      0x00\n      dup1\n      revert\n    tag_52:\n      pop\n      tag_53\n      tag_54\n      jump\t// in\n    tag_53:\n      mload(0x40)\n      tag_55\n      swap2\n      swap1\n      tag_56\n      jump\t// in\n    tag_55:\n      mload(0x40)\n      dup1\n      swap2\n      sub\n      swap1\n      return\n        /* \"contracts/TPSubasta.sol\":1177:1199  address public ganador */\n    tag_10:\n      callvalue\n      dup1\n      iszero\n      tag_57\n      jumpi\n      0x00\n      dup1\n      revert\n    tag_57:\n      pop\n      tag_58\n      tag_59\n      jump\t// in\n    tag_58:\n      mload(0x40)\n      tag_60\n      swap2\n      swap1\n      tag_56\n      jump\t// in\n    tag_60:\n      mload(0x40)\n      dup1\n      swap2\n      sub\n      swap1\n      return\n        /* \"contracts/TPSubasta.sol\":1472:1499  uint256 public totalOfertas */\n    tag_11:\n      callvalue\n      dup1\n      iszero\n      tag_61\n      jumpi\n      0x00\n      dup1\n      revert\n    tag_61:\n      pop\n      tag_62\n      tag_63\n      jump\t// in\n    tag_62:\n      mload(0x40)\n      tag_64\n      swap2\n      swap1\n      tag_27\n      jump\t// in\n    tag_64:\n      mload(0x40)\n      dup1\n      swap2\n      sub\n      swap1\n      return\n        /* \"contracts/TPSubasta.sol\":3848:4283  function retirarDeposito() public subastaTerminada {... */\n    tag_12:\n      callvalue\n      dup1\n      iszero\n      tag_65\n      jumpi\n      0x00\n      dup1\n      revert\n    tag_65:\n      pop\n      tag_66\n      tag_67\n      jump\t// in\n    tag_66:\n      stop\n        /* \"contracts/TPSubasta.sol\":1106:1133  uint256 public tiempoInicio */\n    tag_13:\n      callvalue\n      dup1\n      iszero\n      tag_68\n      jumpi\n      0x00\n      dup1\n      revert\n    tag_68:\n      pop\n      tag_69\n      tag_70\n      jump\t// in\n    tag_69:\n      mload(0x40)\n      tag_71\n      swap2\n      swap1\n      tag_27\n      jump\t// in\n    tag_71:\n      mload(0x40)\n      dup1\n      swap2\n      sub\n      swap1\n      return\n        /* \"contracts/TPSubasta.sol\":4372:4674  function retirarExceso() public subastaEnCurso {... */\n    tag_14:\n      callvalue\n      dup1\n      iszero\n      tag_72\n      jumpi\n      0x00\n      dup1\n      revert\n    tag_72:\n      pop\n      tag_73\n      tag_74\n      jump\t// in\n    tag_73:\n      stop\n        /* \"contracts/TPSubasta.sol\":4916:5194  function mostrarOfertas() public view returns (Oferta[] memory) {... */\n    tag_15:\n      callvalue\n      dup1\n      iszero\n      tag_75\n      jumpi\n      0x00\n      dup1\n      revert\n    tag_75:\n      pop\n      tag_76\n      tag_77\n      jump\t// in\n    tag_76:\n      mload(0x40)\n      tag_78\n      swap2\n      swap1\n      tag_79\n      jump\t// in\n    tag_78:\n      mload(0x40)\n      dup1\n      swap2\n      sub\n      swap1\n      return\n        /* \"contracts/TPSubasta.sol\":1140:1170  uint256 public duracionSubasta */\n    tag_16:\n      callvalue\n      dup1\n      iszero\n      tag_80\n      jumpi\n      0x00\n      dup1\n      revert\n    tag_80:\n      pop\n      tag_81\n      tag_82\n      jump\t// in\n    tag_81:\n      mload(0x40)\n      tag_83\n      swap2\n      swap1\n      tag_27\n      jump\t// in\n    tag_83:\n      mload(0x40)\n      dup1\n      swap2\n      sub\n      swap1\n      return\n        /* \"contracts/TPSubasta.sol\":3624:3786  function finalizarSubasta() public soloPropietario subastaEnCurso {... */\n    tag_22:\n        /* \"contracts/TPSubasta.sol\":1784:1789  owner */\n      0x00\n      dup1\n      sload\n      swap1\n      0x0100\n      exp\n      swap1\n      div\n      0xffffffffffffffffffffffffffffffffffffffff\n      and\n        /* \"contracts/TPSubasta.sol\":1770:1789  msg.sender == owner */\n      0xffffffffffffffffffffffffffffffffffffffff\n      and\n        /* \"contracts/TPSubasta.sol\":1770:1780  msg.sender */\n      caller\n        /* \"contracts/TPSubasta.sol\":1770:1789  msg.sender == owner */\n      0xffffffffffffffffffffffffffffffffffffffff\n      and\n      eq\n        /* \"contracts/TPSubasta.sol\":1762:1841  require(msg.sender == owner, \"Solo el propietario puede ejecutar esta funcion\") */\n      tag_85\n      jumpi\n      mload(0x40)\n      0x08c379a000000000000000000000000000000000000000000000000000000000\n      dup2\n      mstore\n      0x04\n      add\n      tag_86\n      swap1\n      tag_87\n      jump\t// in\n    tag_86:\n      mload(0x40)\n      dup1\n      swap2\n      sub\n      swap1\n      revert\n    tag_85:\n        /* \"contracts/TPSubasta.sol\":1914:1927  subastaActiva */\n      0x05\n      0x00\n      swap1\n      sload\n      swap1\n      0x0100\n      exp\n      swap1\n      div\n      0xff\n      and\n        /* \"contracts/TPSubasta.sol\":1914:1980  subastaActiva && block.timestamp <= tiempoInicio + duracionSubasta */\n      dup1\n      iszero\n      tag_89\n      jumpi\n      pop\n        /* \"contracts/TPSubasta.sol\":1965:1980  duracionSubasta */\n      sload(0x02)\n        /* \"contracts/TPSubasta.sol\":1950:1962  tiempoInicio */\n      sload(0x01)\n        /* \"contracts/TPSubasta.sol\":1950:1980  tiempoInicio + duracionSubasta */\n      tag_90\n      swap2\n      swap1\n      tag_91\n      jump\t// in\n    tag_90:\n        /* \"contracts/TPSubasta.sol\":1931:1946  block.timestamp */\n      timestamp\n        /* \"contracts/TPSubasta.sol\":1931:1980  block.timestamp <= tiempoInicio + duracionSubasta */\n      gt\n      iszero\n        /* \"contracts/TPSubasta.sol\":1914:1980  subastaActiva && block.timestamp <= tiempoInicio + duracionSubasta */\n    tag_89:\n        /* \"contracts/TPSubasta.sol\":1906:2010  require(subastaActiva && block.timestamp <= tiempoInicio + duracionSubasta, \"La subasta no esta activa\") */\n      tag_92\n      jumpi\n      mload(0x40)\n      0x08c379a000000000000000000000000000000000000000000000000000000000\n      dup2\n      mstore\n      0x04\n      add\n      tag_93\n      swap1\n      tag_94\n      jump\t// in\n    tag_93:\n      mload(0x40)\n      dup1\n      swap2\n      sub\n      swap1\n      revert\n    tag_92:\n        /* \"contracts/TPSubasta.sol\":3717:3722  false */\n      0x00\n        /* \"contracts/TPSubasta.sol\":3701:3714  subastaActiva */\n      0x05\n      0x00\n        /* \"contracts/TPSubasta.sol\":3701:3722  subastaActiva = false */\n      0x0100\n      exp\n      dup2\n      sload\n      dup2\n      0xff\n      mul\n      not\n      and\n      swap1\n      dup4\n      iszero\n      iszero\n      mul\n      or\n      swap1\n      sstore\n      pop\n        /* \"contracts/TPSubasta.sol\":3738:3778  GanadorDefinido(ganador, ofertaGanadora) */\n      0xf9fa653adcb5409d472232519052c01c420a4986a12812758dedf7b097c4709e\n        /* \"contracts/TPSubasta.sol\":3754:3761  ganador */\n      0x03\n      0x00\n      swap1\n      sload\n      swap1\n      0x0100\n      exp\n      swap1\n      div\n      0xffffffffffffffffffffffffffffffffffffffff\n      and\n        /* \"contracts/TPSubasta.sol\":3763:3777  ofertaGanadora */\n      sload(0x04)\n        /* \"contracts/TPSubasta.sol\":3738:3778  GanadorDefinido(ganador, ofertaGanadora) */\n      mload(0x40)\n      tag_96\n      swap3\n      swap2\n      swap1\n      tag_36\n      jump\t// in\n    tag_96:\n      mload(0x40)\n      dup1\n      swap2\n      sub\n      swap1\n      log1\n        /* \"contracts/TPSubasta.sol\":3624:3786  function finalizarSubasta() public soloPropietario subastaEnCurso {... */\n      jump\t// out\n        /* \"contracts/TPSubasta.sol\":1206:1235  uint256 public ofertaGanadora */\n    tag_25:\n      sload(0x04)\n      dup2\n      jump\t// out\n        /* \"contracts/TPSubasta.sol\":2503:3534  function ofertar() public payable subastaEnCurso {... */\n    tag_29:\n        /* \"contracts/TPSubasta.sol\":1914:1927  subastaActiva */\n      0x05\n      0x00\n      swap1\n      sload\n      swap1\n      0x0100\n      exp\n      swap1\n      div\n      0xff\n      and\n        /* \"contracts/TPSubasta.sol\":1914:1980  subastaActiva && block.timestamp <= tiempoInicio + duracionSubasta */\n      dup1\n      iszero\n      tag_98\n      jumpi\n      pop\n        /* \"contracts/TPSubasta.sol\":1965:1980  duracionSubasta */\n      sload(0x02)\n        /* \"contracts/TPSubasta.sol\":1950:1962  tiempoInicio */\n      sload(0x01)\n        /* \"contracts/TPSubasta.sol\":1950:1980  tiempoInicio + duracionSubasta */\n      tag_99\n      swap2\n      swap1\n      tag_91\n      jump\t// in\n    tag_99:\n        /* \"contracts/TPSubasta.sol\":1931:1946  block.timestamp */\n      timestamp\n        /* \"contracts/TPSubasta.sol\":1931:1980  block.timestamp <= tiempoInicio + duracionSubasta */\n      gt\n      iszero\n        /* \"contracts/TPSubasta.sol\":1914:1980  subastaActiva && block.timestamp <= tiempoInicio + duracionSubasta */\n    tag_98:\n        /* \"contracts/TPSubasta.sol\":1906:2010  require(subastaActiva && block.timestamp <= tiempoInicio + duracionSubasta, \"La subasta no esta activa\") */\n      tag_100\n      jumpi\n      mload(0x40)\n      0x08c379a000000000000000000000000000000000000000000000000000000000\n      dup2\n      mstore\n      0x04\n      add\n      tag_101\n      swap1\n      tag_94\n      jump\t// in\n    tag_101:\n      mload(0x40)\n      dup1\n      swap2\n      sub\n      swap1\n      revert\n    tag_100:\n        /* \"contracts/TPSubasta.sol\":2583:2584  0 */\n      0x00\n        /* \"contracts/TPSubasta.sol\":2571:2580  msg.value */\n      callvalue\n        /* \"contracts/TPSubasta.sol\":2571:2584  msg.value > 0 */\n      gt\n        /* \"contracts/TPSubasta.sol\":2563:2620  require(msg.value > 0, \"La oferta debe ser mayor a cero\") */\n      tag_103\n      jumpi\n      mload(0x40)\n      0x08c379a000000000000000000000000000000000000000000000000000000000\n      dup2\n      mstore\n      0x04\n      add\n      tag_104\n      swap1\n      tag_105\n      jump\t// in\n    tag_104:\n      mload(0x40)\n      dup1\n      swap2\n      sub\n      swap1\n      revert\n    tag_103:\n        /* \"contracts/TPSubasta.sol\":2633:2652  uint256 nuevaOferta */\n      0x00\n        /* \"contracts/TPSubasta.sol\":2679:2688  msg.value */\n      callvalue\n        /* \"contracts/TPSubasta.sol\":2655:2664  depositos */\n      0x06\n        /* \"contracts/TPSubasta.sol\":2655:2676  depositos[msg.sender] */\n      0x00\n        /* \"contracts/TPSubasta.sol\":2665:2675  msg.sender */\n      caller\n        /* \"contracts/TPSubasta.sol\":2655:2676  depositos[msg.sender] */\n      0xffffffffffffffffffffffffffffffffffffffff\n      and\n      0xffffffffffffffffffffffffffffffffffffffff\n      and\n      dup2\n      mstore\n      0x20\n      add\n      swap1\n      dup2\n      mstore\n      0x20\n      add\n      0x00\n      keccak256\n      sload\n        /* \"contracts/TPSubasta.sol\":2655:2688  depositos[msg.sender] + msg.value */\n      tag_106\n      swap2\n      swap1\n      tag_91\n      jump\t// in\n    tag_106:\n        /* \"contracts/TPSubasta.sol\":2633:2688  uint256 nuevaOferta = depositos[msg.sender] + msg.value */\n      swap1\n      pop\n        /* \"contracts/TPSubasta.sol\":2745:2748  100 */\n      0x64\n        /* \"contracts/TPSubasta.sol\":2739:2742  105 */\n      0x69\n        /* \"contracts/TPSubasta.sol\":2722:2736  ofertaGanadora */\n      sload(0x04)\n        /* \"contracts/TPSubasta.sol\":2722:2742  ofertaGanadora * 105 */\n      tag_107\n      swap2\n      swap1\n      tag_108\n      jump\t// in\n    tag_107:\n        /* \"contracts/TPSubasta.sol\":2722:2748  ofertaGanadora * 105 / 100 */\n      tag_109\n      swap2\n      swap1\n      tag_110\n      jump\t// in\n    tag_109:\n        /* \"contracts/TPSubasta.sol\":2707:2718  nuevaOferta */\n      dup2\n        /* \"contracts/TPSubasta.sol\":2707:2748  nuevaOferta >= ofertaGanadora * 105 / 100 */\n      lt\n      iszero\n        /* \"contracts/TPSubasta.sol\":2699:2804  require(nuevaOferta >= ofertaGanadora * 105 / 100, \"La oferta debe ser al menos un 5% mayor a la actual\") */\n      tag_111\n      jumpi\n      mload(0x40)\n      0x08c379a000000000000000000000000000000000000000000000000000000000\n      dup2\n      mstore\n      0x04\n      add\n      tag_112\n      swap1\n      tag_113\n      jump\t// in\n    tag_112:\n      mload(0x40)\n      dup1\n      swap2\n      sub\n      swap1\n      revert\n    tag_111:\n        /* \"contracts/TPSubasta.sol\":2899:2910  nuevaOferta */\n      dup1\n        /* \"contracts/TPSubasta.sol\":2875:2884  depositos */\n      0x06\n        /* \"contracts/TPSubasta.sol\":2875:2896  depositos[msg.sender] */\n      0x00\n        /* \"contracts/TPSubasta.sol\":2885:2895  msg.sender */\n      caller\n        /* \"contracts/TPSubasta.sol\":2875:2896  depositos[msg.sender] */\n      0xffffffffffffffffffffffffffffffffffffffff\n      and\n      0xffffffffffffffffffffffffffffffffffffffff\n      and\n      dup2\n      mstore\n      0x20\n      add\n      swap1\n      dup2\n      mstore\n      0x20\n      add\n      0x00\n      keccak256\n        /* \"contracts/TPSubasta.sol\":2875:2910  depositos[msg.sender] = nuevaOferta */\n      dup2\n      swap1\n      sstore\n      pop\n        /* \"contracts/TPSubasta.sol\":2945:2976  Oferta(msg.sender, nuevaOferta) */\n      mload(0x40)\n      dup1\n      0x40\n      add\n      0x40\n      mstore\n      dup1\n        /* \"contracts/TPSubasta.sol\":2952:2962  msg.sender */\n      caller\n        /* \"contracts/TPSubasta.sol\":2945:2976  Oferta(msg.sender, nuevaOferta) */\n      0xffffffffffffffffffffffffffffffffffffffff\n      and\n      dup2\n      mstore\n      0x20\n      add\n        /* \"contracts/TPSubasta.sol\":2964:2975  nuevaOferta */\n      dup3\n        /* \"contracts/TPSubasta.sol\":2945:2976  Oferta(msg.sender, nuevaOferta) */\n      dup2\n      mstore\n      pop\n        /* \"contracts/TPSubasta.sol\":2921:2928  ofertas */\n      0x07\n        /* \"contracts/TPSubasta.sol\":2921:2942  ofertas[totalOfertas] */\n      0x00\n        /* \"contracts/TPSubasta.sol\":2929:2941  totalOfertas */\n      sload(0x08)\n        /* \"contracts/TPSubasta.sol\":2921:2942  ofertas[totalOfertas] */\n      dup2\n      mstore\n      0x20\n      add\n      swap1\n      dup2\n      mstore\n      0x20\n      add\n      0x00\n      keccak256\n        /* \"contracts/TPSubasta.sol\":2921:2976  ofertas[totalOfertas] = Oferta(msg.sender, nuevaOferta) */\n      0x00\n      dup3\n      add\n      mload\n      dup2\n      0x00\n      add\n      exp(0x0100, 0x00)\n      dup2\n      sload\n      dup2\n      0xffffffffffffffffffffffffffffffffffffffff\n      mul\n      not\n      and\n      swap1\n      dup4\n      0xffffffffffffffffffffffffffffffffffffffff\n      and\n      mul\n      or\n      swap1\n      sstore\n      pop\n      0x20\n      dup3\n      add\n      mload\n      dup2\n      0x01\n      add\n      sstore\n      swap1\n      pop\n      pop\n        /* \"contracts/TPSubasta.sol\":2987:2999  totalOfertas */\n      0x08\n      0x00\n        /* \"contracts/TPSubasta.sol\":2987:3001  totalOfertas++ */\n      dup2\n      sload\n      dup1\n      swap3\n      swap2\n      swap1\n      tag_114\n      swap1\n      tag_115\n      jump\t// in\n    tag_114:\n      swap2\n      swap1\n      pop\n      sstore\n      pop\n        /* \"contracts/TPSubasta.sol\":3074:3088  ofertaGanadora */\n      sload(0x04)\n        /* \"contracts/TPSubasta.sol\":3060:3071  nuevaOferta */\n      dup2\n        /* \"contracts/TPSubasta.sol\":3060:3088  nuevaOferta > ofertaGanadora */\n      gt\n        /* \"contracts/TPSubasta.sol\":3056:3239  if (nuevaOferta > ofertaGanadora) {... */\n      iszero\n      tag_116\n      jumpi\n        /* \"contracts/TPSubasta.sol\":3122:3133  nuevaOferta */\n      dup1\n        /* \"contracts/TPSubasta.sol\":3105:3119  ofertaGanadora */\n      0x04\n        /* \"contracts/TPSubasta.sol\":3105:3133  ofertaGanadora = nuevaOferta */\n      dup2\n      swap1\n      sstore\n      pop\n        /* \"contracts/TPSubasta.sol\":3158:3168  msg.sender */\n      caller\n        /* \"contracts/TPSubasta.sol\":3148:3155  ganador */\n      0x03\n      0x00\n        /* \"contracts/TPSubasta.sol\":3148:3168  ganador = msg.sender */\n      0x0100\n      exp\n      dup2\n      sload\n      dup2\n      0xffffffffffffffffffffffffffffffffffffffff\n      mul\n      not\n      and\n      swap1\n      dup4\n      0xffffffffffffffffffffffffffffffffffffffff\n      and\n      mul\n      or\n      swap1\n      sstore\n      pop\n        /* \"contracts/TPSubasta.sol\":3188:3227  OfertaAceptada(msg.sender, nuevaOferta) */\n      0xde66accd6240fde8499e988f5d390a2c61bc04425d3f696ff40b06c9ddf578ab\n        /* \"contracts/TPSubasta.sol\":3203:3213  msg.sender */\n      caller\n        /* \"contracts/TPSubasta.sol\":3215:3226  nuevaOferta */\n      dup3\n        /* \"contracts/TPSubasta.sol\":3188:3227  OfertaAceptada(msg.sender, nuevaOferta) */\n      mload(0x40)\n      tag_117\n      swap3\n      swap2\n      swap1\n      tag_36\n      jump\t// in\n    tag_117:\n      mload(0x40)\n      dup1\n      swap2\n      sub\n      swap1\n      log1\n        /* \"contracts/TPSubasta.sol\":3056:3239  if (nuevaOferta > ofertaGanadora) {... */\n    tag_116:\n        /* \"contracts/TPSubasta.sol\":3386:3401  duracionSubasta */\n      sload(0x02)\n        /* \"contracts/TPSubasta.sol\":3371:3383  tiempoInicio */\n      sload(0x01)\n        /* \"contracts/TPSubasta.sol\":3371:3401  tiempoInicio + duracionSubasta */\n      tag_118\n      swap2\n      swap1\n      tag_91\n      jump\t// in\n    tag_118:\n        /* \"contracts/TPSubasta.sol\":3357:3367  10 minutes */\n      0x0258\n        /* \"contracts/TPSubasta.sol\":3339:3354  block.timestamp */\n      timestamp\n        /* \"contracts/TPSubasta.sol\":3339:3367  block.timestamp + 10 minutes */\n      tag_119\n      swap2\n      swap1\n      tag_91\n      jump\t// in\n    tag_119:\n        /* \"contracts/TPSubasta.sol\":3339:3401  block.timestamp + 10 minutes >= tiempoInicio + duracionSubasta */\n      lt\n        /* \"contracts/TPSubasta.sol\":3335:3527  if (block.timestamp + 10 minutes >= tiempoInicio + duracionSubasta) {... */\n      tag_120\n      jumpi\n        /* \"contracts/TPSubasta.sol\":3437:3447  10 minutes */\n      0x0258\n        /* \"contracts/TPSubasta.sol\":3418:3433  duracionSubasta */\n      0x02\n      0x00\n        /* \"contracts/TPSubasta.sol\":3418:3447  duracionSubasta += 10 minutes */\n      dup3\n      dup3\n      sload\n      tag_121\n      swap2\n      swap1\n      tag_91\n      jump\t// in\n    tag_121:\n      swap3\n      pop\n      pop\n      dup2\n      swap1\n      sstore\n      pop\n        /* \"contracts/TPSubasta.sol\":3467:3515  SubastaExtendida(tiempoInicio + duracionSubasta) */\n      0x4a6cb7f31583c4d0eee65821c3ccb94b57bb97eb618db947f9915d194fe8abc2\n        /* \"contracts/TPSubasta.sol\":3499:3514  duracionSubasta */\n      sload(0x02)\n        /* \"contracts/TPSubasta.sol\":3484:3496  tiempoInicio */\n      sload(0x01)\n        /* \"contracts/TPSubasta.sol\":3484:3514  tiempoInicio + duracionSubasta */\n      tag_122\n      swap2\n      swap1\n      tag_91\n      jump\t// in\n    tag_122:\n        /* \"contracts/TPSubasta.sol\":3467:3515  SubastaExtendida(tiempoInicio + duracionSubasta) */\n      mload(0x40)\n      tag_123\n      swap2\n      swap1\n      tag_27\n      jump\t// in\n    tag_123:\n      mload(0x40)\n      dup1\n      swap2\n      sub\n      swap1\n      log1\n        /* \"contracts/TPSubasta.sol\":3335:3527  if (block.timestamp + 10 minutes >= tiempoInicio + duracionSubasta) {... */\n    tag_120:\n        /* \"contracts/TPSubasta.sol\":2552:3534  {... */\n      pop\n        /* \"contracts/TPSubasta.sol\":2503:3534  function ofertar() public payable subastaEnCurso {... */\n      jump\t// out\n        /* \"contracts/TPSubasta.sol\":1424:1465  mapping(uint256 => Oferta) public ofertas */\n    tag_34:\n      mstore(0x20, 0x07)\n      dup1\n      0x00\n      mstore\n      keccak256(0x00, 0x40)\n      0x00\n      swap2\n      pop\n      swap1\n      pop\n      dup1\n      0x00\n      add\n      0x00\n      swap1\n      sload\n      swap1\n      0x0100\n      exp\n      swap1\n      div\n      0xffffffffffffffffffffffffffffffffffffffff\n      and\n      swap1\n      dup1\n      0x01\n      add\n      sload\n      swap1\n      pop\n      dup3\n      jump\t// out\n        /* \"contracts/TPSubasta.sol\":1242:1267  bool public subastaActiva */\n    tag_39:\n      0x05\n      0x00\n      swap1\n      sload\n      swap1\n      0x0100\n      exp\n      swap1\n      div\n      0xff\n      and\n      dup2\n      jump\t// out\n        /* \"contracts/TPSubasta.sol\":1373:1417  mapping(address => uint256) public depositos */\n    tag_46:\n      mstore(0x20, 0x06)\n      dup1\n      0x00\n      mstore\n      keccak256(0x00, 0x40)\n      0x00\n      swap2\n      pop\n      swap1\n      pop\n      sload\n      dup2\n      jump\t// out\n        /* \"contracts/TPSubasta.sol\":4744:4860  function mostrarGanador() public view returns (address, uint256) {... */\n    tag_50:\n        /* \"contracts/TPSubasta.sol\":4791:4798  address */\n      0x00\n        /* \"contracts/TPSubasta.sol\":4800:4807  uint256 */\n      dup1\n        /* \"contracts/TPSubasta.sol\":4828:4835  ganador */\n      0x03\n      0x00\n      swap1\n      sload\n      swap1\n      0x0100\n      exp\n      swap1\n      div\n      0xffffffffffffffffffffffffffffffffffffffff\n      and\n        /* \"contracts/TPSubasta.sol\":4837:4851  ofertaGanadora */\n      sload(0x04)\n        /* \"contracts/TPSubasta.sol\":4820:4852  return (ganador, ofertaGanadora) */\n      swap2\n      pop\n      swap2\n      pop\n        /* \"contracts/TPSubasta.sol\":4744:4860  function mostrarGanador() public view returns (address, uint256) {... */\n      swap1\n      swap2\n      jump\t// out\n        /* \"contracts/TPSubasta.sol\":1079:1099  address public owner */\n    tag_54:\n      0x00\n      dup1\n      sload\n      swap1\n      0x0100\n      exp\n      swap1\n      div\n      0xffffffffffffffffffffffffffffffffffffffff\n      and\n      dup2\n      jump\t// out\n        /* \"contracts/TPSubasta.sol\":1177:1199  address public ganador */\n    tag_59:\n      0x03\n      0x00\n      swap1\n      sload\n      swap1\n      0x0100\n      exp\n      swap1\n      div\n      0xffffffffffffffffffffffffffffffffffffffff\n      and\n      dup2\n      jump\t// out\n        /* \"contracts/TPSubasta.sol\":1472:1499  uint256 public totalOfertas */\n    tag_63:\n      sload(0x08)\n      dup2\n      jump\t// out\n        /* \"contracts/TPSubasta.sol\":3848:4283  function retirarDeposito() public subastaTerminada {... */\n    tag_67:\n        /* \"contracts/TPSubasta.sol\":2086:2099  subastaActiva */\n      0x05\n      0x00\n      swap1\n      sload\n      swap1\n      0x0100\n      exp\n      swap1\n      div\n      0xff\n      and\n        /* \"contracts/TPSubasta.sol\":2085:2099  !subastaActiva */\n      iszero\n        /* \"contracts/TPSubasta.sol\":2085:2151  !subastaActiva && block.timestamp > tiempoInicio + duracionSubasta */\n      dup1\n      iszero\n      tag_126\n      jumpi\n      pop\n        /* \"contracts/TPSubasta.sol\":2136:2151  duracionSubasta */\n      sload(0x02)\n        /* \"contracts/TPSubasta.sol\":2121:2133  tiempoInicio */\n      sload(0x01)\n        /* \"contracts/TPSubasta.sol\":2121:2151  tiempoInicio + duracionSubasta */\n      tag_127\n      swap2\n      swap1\n      tag_91\n      jump\t// in\n    tag_127:\n        /* \"contracts/TPSubasta.sol\":2103:2118  block.timestamp */\n      timestamp\n        /* \"contracts/TPSubasta.sol\":2103:2151  block.timestamp > tiempoInicio + duracionSubasta */\n      gt\n        /* \"contracts/TPSubasta.sol\":2085:2151  !subastaActiva && block.timestamp > tiempoInicio + duracionSubasta */\n    tag_126:\n        /* \"contracts/TPSubasta.sol\":2077:2184  require(!subastaActiva && block.timestamp > tiempoInicio + duracionSubasta, \"La subasta aun esta en curso\") */\n      tag_128\n      jumpi\n      mload(0x40)\n      0x08c379a000000000000000000000000000000000000000000000000000000000\n      dup2\n      mstore\n      0x04\n      add\n      tag_129\n      swap1\n      tag_130\n      jump\t// in\n    tag_129:\n      mload(0x40)\n      dup1\n      swap2\n      sub\n      swap1\n      revert\n    tag_128:\n        /* \"contracts/TPSubasta.sol\":3932:3939  ganador */\n      0x03\n      0x00\n      swap1\n      sload\n      swap1\n      0x0100\n      exp\n      swap1\n      div\n      0xffffffffffffffffffffffffffffffffffffffff\n      and\n        /* \"contracts/TPSubasta.sol\":3918:3939  msg.sender != ganador */\n      0xffffffffffffffffffffffffffffffffffffffff\n      and\n        /* \"contracts/TPSubasta.sol\":3918:3928  msg.sender */\n      caller\n        /* \"contracts/TPSubasta.sol\":3918:3939  msg.sender != ganador */\n      0xffffffffffffffffffffffffffffffffffffffff\n      and\n      sub\n        /* \"contracts/TPSubasta.sol\":3910:3983  require(msg.sender != ganador, \"El ganador no puede retirar el deposito\") */\n      tag_132\n      jumpi\n      mload(0x40)\n      0x08c379a000000000000000000000000000000000000000000000000000000000\n      dup2\n      mstore\n      0x04\n      add\n      tag_133\n      swap1\n      tag_134\n      jump\t// in\n    tag_133:\n      mload(0x40)\n      dup1\n      swap2\n      sub\n      swap1\n      revert\n    tag_132:\n        /* \"contracts/TPSubasta.sol\":3996:4012  uint256 deposito */\n      0x00\n        /* \"contracts/TPSubasta.sol\":4015:4024  depositos */\n      0x06\n        /* \"contracts/TPSubasta.sol\":4015:4036  depositos[msg.sender] */\n      0x00\n        /* \"contracts/TPSubasta.sol\":4025:4035  msg.sender */\n      caller\n        /* \"contracts/TPSubasta.sol\":4015:4036  depositos[msg.sender] */\n      0xffffffffffffffffffffffffffffffffffffffff\n      and\n      0xffffffffffffffffffffffffffffffffffffffff\n      and\n      dup2\n      mstore\n      0x20\n      add\n      swap1\n      dup2\n      mstore\n      0x20\n      add\n      0x00\n      keccak256\n      sload\n        /* \"contracts/TPSubasta.sol\":3996:4036  uint256 deposito = depositos[msg.sender] */\n      swap1\n      pop\n        /* \"contracts/TPSubasta.sol\":4066:4067  0 */\n      0x00\n        /* \"contracts/TPSubasta.sol\":4055:4063  deposito */\n      dup2\n        /* \"contracts/TPSubasta.sol\":4055:4067  deposito > 0 */\n      gt\n        /* \"contracts/TPSubasta.sol\":4047:4101  require(deposito > 0, \"No tienes fondos para retirar\") */\n      tag_135\n      jumpi\n      mload(0x40)\n      0x08c379a000000000000000000000000000000000000000000000000000000000\n      dup2\n      mstore\n      0x04\n      add\n      tag_136\n      swap1\n      tag_137\n      jump\t// in\n    tag_136:\n      mload(0x40)\n      dup1\n      swap2\n      sub\n      swap1\n      revert\n    tag_135:\n        /* \"contracts/TPSubasta.sol\":4114:4133  uint256 montoRetiro */\n      0x00\n        /* \"contracts/TPSubasta.sol\":4152:4155  100 */\n      0x64\n        /* \"contracts/TPSubasta.sol\":4147:4149  98 */\n      0x62\n        /* \"contracts/TPSubasta.sol\":4136:4144  deposito */\n      dup4\n        /* \"contracts/TPSubasta.sol\":4136:4149  deposito * 98 */\n      tag_138\n      swap2\n      swap1\n      tag_108\n      jump\t// in\n    tag_138:\n        /* \"contracts/TPSubasta.sol\":4136:4155  deposito * 98 / 100 */\n      tag_139\n      swap2\n      swap1\n      tag_110\n      jump\t// in\n    tag_139:\n        /* \"contracts/TPSubasta.sol\":4114:4155  uint256 montoRetiro = deposito * 98 / 100 */\n      swap1\n      pop\n        /* \"contracts/TPSubasta.sol\":4220:4221  0 */\n      0x00\n        /* \"contracts/TPSubasta.sol\":4196:4205  depositos */\n      0x06\n        /* \"contracts/TPSubasta.sol\":4196:4217  depositos[msg.sender] */\n      0x00\n        /* \"contracts/TPSubasta.sol\":4206:4216  msg.sender */\n      caller\n        /* \"contracts/TPSubasta.sol\":4196:4217  depositos[msg.sender] */\n      0xffffffffffffffffffffffffffffffffffffffff\n      and\n      0xffffffffffffffffffffffffffffffffffffffff\n      and\n      dup2\n      mstore\n      0x20\n      add\n      swap1\n      dup2\n      mstore\n      0x20\n      add\n      0x00\n      keccak256\n        /* \"contracts/TPSubasta.sol\":4196:4221  depositos[msg.sender] = 0 */\n      dup2\n      swap1\n      sstore\n      pop\n        /* \"contracts/TPSubasta.sol\":4242:4252  msg.sender */\n      caller\n        /* \"contracts/TPSubasta.sol\":4234:4262  payable(msg.sender).transfer */\n      0xffffffffffffffffffffffffffffffffffffffff\n      and\n        /* \"contracts/TPSubasta.sol\":4234:4275  payable(msg.sender).transfer(montoRetiro) */\n      0x08fc\n        /* \"contracts/TPSubasta.sol\":4263:4274  montoRetiro */\n      dup3\n        /* \"contracts/TPSubasta.sol\":4234:4275  payable(msg.sender).transfer(montoRetiro) */\n      swap1\n      dup2\n      iszero\n      mul\n      swap1\n      mload(0x40)\n      0x00\n      mload(0x40)\n      dup1\n      dup4\n      sub\n      dup2\n      dup6\n      dup9\n      dup9\n      call\n      swap4\n      pop\n      pop\n      pop\n      pop\n      iszero\n      dup1\n      iszero\n      tag_141\n      jumpi\n      returndatasize\n      0x00\n      dup1\n      returndatacopy\n      revert(0x00, returndatasize)\n    tag_141:\n      pop\n        /* \"contracts/TPSubasta.sol\":3899:4283  {... */\n      pop\n      pop\n        /* \"contracts/TPSubasta.sol\":3848:4283  function retirarDeposito() public subastaTerminada {... */\n      jump\t// out\n        /* \"contracts/TPSubasta.sol\":1106:1133  uint256 public tiempoInicio */\n    tag_70:\n      sload(0x01)\n      dup2\n      jump\t// out\n        /* \"contracts/TPSubasta.sol\":4372:4674  function retirarExceso() public subastaEnCurso {... */\n    tag_74:\n        /* \"contracts/TPSubasta.sol\":1914:1927  subastaActiva */\n      0x05\n      0x00\n      swap1\n      sload\n      swap1\n      0x0100\n      exp\n      swap1\n      div\n      0xff\n      and\n        /* \"contracts/TPSubasta.sol\":1914:1980  subastaActiva && block.timestamp <= tiempoInicio + duracionSubasta */\n      dup1\n      iszero\n      tag_143\n      jumpi\n      pop\n        /* \"contracts/TPSubasta.sol\":1965:1980  duracionSubasta */\n      sload(0x02)\n        /* \"contracts/TPSubasta.sol\":1950:1962  tiempoInicio */\n      sload(0x01)\n        /* \"contracts/TPSubasta.sol\":1950:1980  tiempoInicio + duracionSubasta */\n      tag_144\n      swap2\n      swap1\n      tag_91\n      jump\t// in\n    tag_144:\n        /* \"contracts/TPSubasta.sol\":1931:1946  block.timestamp */\n      timestamp\n        /* \"contracts/TPSubasta.sol\":1931:1980  block.timestamp <= tiempoInicio + duracionSubasta */\n      gt\n      iszero\n        /* \"contracts/TPSubasta.sol\":1914:1980  subastaActiva && block.timestamp <= tiempoInicio + duracionSubasta */\n    tag_143:\n        /* \"contracts/TPSubasta.sol\":1906:2010  require(subastaActiva && block.timestamp <= tiempoInicio + duracionSubasta, \"La subasta no esta activa\") */\n      tag_145\n      jumpi\n      mload(0x40)\n      0x08c379a000000000000000000000000000000000000000000000000000000000\n      dup2\n      mstore\n      0x04\n      add\n      tag_146\n      swap1\n      tag_94\n      jump\t// in\n    tag_146:\n      mload(0x40)\n      dup1\n      swap2\n      sub\n      swap1\n      revert\n    tag_145:\n        /* \"contracts/TPSubasta.sol\":4462:4476  ofertaGanadora */\n      sload(0x04)\n        /* \"contracts/TPSubasta.sol\":4438:4447  depositos */\n      0x06\n        /* \"contracts/TPSubasta.sol\":4438:4459  depositos[msg.sender] */\n      0x00\n        /* \"contracts/TPSubasta.sol\":4448:4458  msg.sender */\n      caller\n        /* \"contracts/TPSubasta.sol\":4438:4459  depositos[msg.sender] */\n      0xffffffffffffffffffffffffffffffffffffffff\n      and\n      0xffffffffffffffffffffffffffffffffffffffff\n      and\n      dup2\n      mstore\n      0x20\n      add\n      swap1\n      dup2\n      mstore\n      0x20\n      add\n      0x00\n      keccak256\n      sload\n        /* \"contracts/TPSubasta.sol\":4438:4476  depositos[msg.sender] > ofertaGanadora */\n      gt\n        /* \"contracts/TPSubasta.sol\":4430:4507  require(depositos[msg.sender] > ofertaGanadora, \"No tienes exceso de oferta\") */\n      tag_148\n      jumpi\n      mload(0x40)\n      0x08c379a000000000000000000000000000000000000000000000000000000000\n      dup2\n      mstore\n      0x04\n      add\n      tag_149\n      swap1\n      tag_150\n      jump\t// in\n    tag_149:\n      mload(0x40)\n      dup1\n      swap2\n      sub\n      swap1\n      revert\n    tag_148:\n        /* \"contracts/TPSubasta.sol\":4520:4534  uint256 exceso */\n      0x00\n        /* \"contracts/TPSubasta.sol\":4561:4575  ofertaGanadora */\n      sload(0x04)\n        /* \"contracts/TPSubasta.sol\":4537:4546  depositos */\n      0x06\n        /* \"contracts/TPSubasta.sol\":4537:4558  depositos[msg.sender] */\n      0x00\n        /* \"contracts/TPSubasta.sol\":4547:4557  msg.sender */\n      caller\n        /* \"contracts/TPSubasta.sol\":4537:4558  depositos[msg.sender] */\n      0xffffffffffffffffffffffffffffffffffffffff\n      and\n      0xffffffffffffffffffffffffffffffffffffffff\n      and\n      dup2\n      mstore\n      0x20\n      add\n      swap1\n      dup2\n      mstore\n      0x20\n      add\n      0x00\n      keccak256\n      sload\n        /* \"contracts/TPSubasta.sol\":4537:4575  depositos[msg.sender] - ofertaGanadora */\n      tag_151\n      swap2\n      swap1\n      tag_152\n      jump\t// in\n    tag_151:\n        /* \"contracts/TPSubasta.sol\":4520:4575  uint256 exceso = depositos[msg.sender] - ofertaGanadora */\n      swap1\n      pop\n        /* \"contracts/TPSubasta.sol\":4611:4617  exceso */\n      dup1\n        /* \"contracts/TPSubasta.sol\":4586:4595  depositos */\n      0x06\n        /* \"contracts/TPSubasta.sol\":4586:4607  depositos[msg.sender] */\n      0x00\n        /* \"contracts/TPSubasta.sol\":4596:4606  msg.sender */\n      caller\n        /* \"contracts/TPSubasta.sol\":4586:4607  depositos[msg.sender] */\n      0xffffffffffffffffffffffffffffffffffffffff\n      and\n      0xffffffffffffffffffffffffffffffffffffffff\n      and\n      dup2\n      mstore\n      0x20\n      add\n      swap1\n      dup2\n      mstore\n      0x20\n      add\n      0x00\n      keccak256\n      0x00\n        /* \"contracts/TPSubasta.sol\":4586:4617  depositos[msg.sender] -= exceso */\n      dup3\n      dup3\n      sload\n      tag_153\n      swap2\n      swap1\n      tag_152\n      jump\t// in\n    tag_153:\n      swap3\n      pop\n      pop\n      dup2\n      swap1\n      sstore\n      pop\n        /* \"contracts/TPSubasta.sol\":4638:4648  msg.sender */\n      caller\n        /* \"contracts/TPSubasta.sol\":4630:4658  payable(msg.sender).transfer */\n      0xffffffffffffffffffffffffffffffffffffffff\n      and\n        /* \"contracts/TPSubasta.sol\":4630:4666  payable(msg.sender).transfer(exceso) */\n      0x08fc\n        /* \"contracts/TPSubasta.sol\":4659:4665  exceso */\n      dup3\n        /* \"contracts/TPSubasta.sol\":4630:4666  payable(msg.sender).transfer(exceso) */\n      swap1\n      dup2\n      iszero\n      mul\n      swap1\n      mload(0x40)\n      0x00\n      mload(0x40)\n      dup1\n      dup4\n      sub\n      dup2\n      dup6\n      dup9\n      dup9\n      call\n      swap4\n      pop\n      pop\n      pop\n      pop\n      iszero\n      dup1\n      iszero\n      tag_155\n      jumpi\n      returndatasize\n      0x00\n      dup1\n      returndatacopy\n      revert(0x00, returndatasize)\n    tag_155:\n      pop\n        /* \"contracts/TPSubasta.sol\":4419:4674  {... */\n      pop\n        /* \"contracts/TPSubasta.sol\":4372:4674  function retirarExceso() public subastaEnCurso {... */\n      jump\t// out\n        /* \"contracts/TPSubasta.sol\":4916:5194  function mostrarOfertas() public view returns (Oferta[] memory) {... */\n    tag_77:\n        /* \"contracts/TPSubasta.sol\":4963:4978  Oferta[] memory */\n      0x60\n        /* \"contracts/TPSubasta.sol\":4991:5019  Oferta[] memory listaOfertas */\n      0x00\n        /* \"contracts/TPSubasta.sol\":5035:5047  totalOfertas */\n      sload(0x08)\n        /* \"contracts/TPSubasta.sol\":5022:5048  new Oferta[](totalOfertas) */\n      0xffffffffffffffff\n      dup2\n      gt\n      iszero\n      tag_157\n      jumpi\n      tag_158\n      tag_159\n      jump\t// in\n    tag_158:\n    tag_157:\n      mload(0x40)\n      swap1\n      dup1\n      dup3\n      mstore\n      dup1\n      0x20\n      mul\n      0x20\n      add\n      dup3\n      add\n      0x40\n      mstore\n      dup1\n      iszero\n      tag_160\n      jumpi\n      dup2\n      0x20\n      add\n    tag_161:\n      tag_162\n      tag_163\n      jump\t// in\n    tag_162:\n      dup2\n      mstore\n      0x20\n      add\n      swap1\n      0x01\n      swap1\n      sub\n      swap1\n      dup2\n      tag_161\n      jumpi\n      swap1\n      pop\n    tag_160:\n      pop\n        /* \"contracts/TPSubasta.sol\":4991:5048  Oferta[] memory listaOfertas = new Oferta[](totalOfertas) */\n      swap1\n      pop\n        /* \"contracts/TPSubasta.sol\":5064:5073  uint256 i */\n      0x00\n        /* \"contracts/TPSubasta.sol\":5059:5157  for (uint256 i = 0; i < totalOfertas; i++) {... */\n    tag_164:\n        /* \"contracts/TPSubasta.sol\":5083:5095  totalOfertas */\n      sload(0x08)\n        /* \"contracts/TPSubasta.sol\":5079:5080  i */\n      dup2\n        /* \"contracts/TPSubasta.sol\":5079:5095  i < totalOfertas */\n      lt\n        /* \"contracts/TPSubasta.sol\":5059:5157  for (uint256 i = 0; i < totalOfertas; i++) {... */\n      iszero\n      tag_165\n      jumpi\n        /* \"contracts/TPSubasta.sol\":5135:5142  ofertas */\n      0x07\n        /* \"contracts/TPSubasta.sol\":5135:5145  ofertas[i] */\n      0x00\n        /* \"contracts/TPSubasta.sol\":5143:5144  i */\n      dup3\n        /* \"contracts/TPSubasta.sol\":5135:5145  ofertas[i] */\n      dup2\n      mstore\n      0x20\n      add\n      swap1\n      dup2\n      mstore\n      0x20\n      add\n      0x00\n      keccak256\n        /* \"contracts/TPSubasta.sol\":5117:5145  listaOfertas[i] = ofertas[i] */\n      mload(0x40)\n      dup1\n      0x40\n      add\n      0x40\n      mstore\n      swap1\n      dup2\n      0x00\n      dup3\n      add\n      0x00\n      swap1\n      sload\n      swap1\n      0x0100\n      exp\n      swap1\n      div\n      0xffffffffffffffffffffffffffffffffffffffff\n      and\n      0xffffffffffffffffffffffffffffffffffffffff\n      and\n      0xffffffffffffffffffffffffffffffffffffffff\n      and\n      dup2\n      mstore\n      0x20\n      add\n      0x01\n      dup3\n      add\n      sload\n      dup2\n      mstore\n      pop\n      pop\n        /* \"contracts/TPSubasta.sol\":5117:5129  listaOfertas */\n      dup3\n        /* \"contracts/TPSubasta.sol\":5130:5131  i */\n      dup3\n        /* \"contracts/TPSubasta.sol\":5117:5132  listaOfertas[i] */\n      dup2\n      mload\n      dup2\n      lt\n      tag_167\n      jumpi\n      tag_168\n      tag_169\n      jump\t// in\n    tag_168:\n    tag_167:\n      0x20\n      mul\n      0x20\n      add\n      add\n        /* \"contracts/TPSubasta.sol\":5117:5145  listaOfertas[i] = ofertas[i] */\n      dup2\n      swap1\n      mstore\n      pop\n        /* \"contracts/TPSubasta.sol\":5097:5100  i++ */\n      dup1\n      dup1\n      0x01\n      add\n      swap2\n      pop\n      pop\n        /* \"contracts/TPSubasta.sol\":5059:5157  for (uint256 i = 0; i < totalOfertas; i++) {... */\n      jump(tag_164)\n    tag_165:\n      pop\n        /* \"contracts/TPSubasta.sol\":5174:5186  listaOfertas */\n      dup1\n        /* \"contracts/TPSubasta.sol\":5167:5186  return listaOfertas */\n      swap2\n      pop\n      pop\n        /* \"contracts/TPSubasta.sol\":4916:5194  function mostrarOfertas() public view returns (Oferta[] memory) {... */\n      swap1\n      jump\t// out\n        /* \"contracts/TPSubasta.sol\":1140:1170  uint256 public duracionSubasta */\n    tag_82:\n      sload(0x02)\n      dup2\n      jump\t// out\n    tag_163:\n      mload(0x40)\n      dup1\n      0x40\n      add\n      0x40\n      mstore\n      dup1\n      and(0xffffffffffffffffffffffffffffffffffffffff, 0x00)\n      dup2\n      mstore\n      0x20\n      add\n      0x00\n      dup2\n      mstore\n      pop\n      swap1\n      jump\t// out\n        /* \"#utility.yul\":7:84   */\n    tag_170:\n        /* \"#utility.yul\":44:51   */\n      0x00\n        /* \"#utility.yul\":73:78   */\n      dup2\n        /* \"#utility.yul\":62:78   */\n      swap1\n      pop\n        /* \"#utility.yul\":7:84   */\n      swap2\n      swap1\n      pop\n      jump\t// out\n        /* \"#utility.yul\":90:208   */\n    tag_171:\n        /* \"#utility.yul\":177:201   */\n      tag_215\n        /* \"#utility.yul\":195:200   */\n      dup2\n        /* \"#utility.yul\":177:201   */\n      tag_170\n      jump\t// in\n    tag_215:\n        /* \"#utility.yul\":172:175   */\n      dup3\n        /* \"#utility.yul\":165:202   */\n      mstore\n        /* \"#utility.yul\":90:208   */\n      pop\n      pop\n      jump\t// out\n        /* \"#utility.yul\":214:436   */\n    tag_27:\n        /* \"#utility.yul\":307:311   */\n      0x00\n        /* \"#utility.yul\":345:347   */\n      0x20\n        /* \"#utility.yul\":334:343   */\n      dup3\n        /* \"#utility.yul\":330:348   */\n      add\n        /* \"#utility.yul\":322:348   */\n      swap1\n      pop\n        /* \"#utility.yul\":358:429   */\n      tag_217\n        /* \"#utility.yul\":426:427   */\n      0x00\n        /* \"#utility.yul\":415:424   */\n      dup4\n        /* \"#utility.yul\":411:428   */\n      add\n        /* \"#utility.yul\":402:408   */\n      dup5\n        /* \"#utility.yul\":358:429   */\n      tag_171\n      jump\t// in\n    tag_217:\n        /* \"#utility.yul\":214:436   */\n      swap3\n      swap2\n      pop\n      pop\n      jump\t// out\n        /* \"#utility.yul\":523:640   */\n    tag_173:\n        /* \"#utility.yul\":632:633   */\n      0x00\n        /* \"#utility.yul\":629:630   */\n      dup1\n        /* \"#utility.yul\":622:634   */\n      revert\n        /* \"#utility.yul\":769:891   */\n    tag_175:\n        /* \"#utility.yul\":842:866   */\n      tag_222\n        /* \"#utility.yul\":860:865   */\n      dup2\n        /* \"#utility.yul\":842:866   */\n      tag_170\n      jump\t// in\n    tag_222:\n        /* \"#utility.yul\":835:840   */\n      dup2\n        /* \"#utility.yul\":832:867   */\n      eq\n        /* \"#utility.yul\":822:885   */\n      tag_223\n      jumpi\n        /* \"#utility.yul\":881:882   */\n      0x00\n        /* \"#utility.yul\":878:879   */\n      dup1\n        /* \"#utility.yul\":871:883   */\n      revert\n        /* \"#utility.yul\":822:885   */\n    tag_223:\n        /* \"#utility.yul\":769:891   */\n      pop\n      jump\t// out\n        /* \"#utility.yul\":897:1036   */\n    tag_176:\n        /* \"#utility.yul\":943:948   */\n      0x00\n        /* \"#utility.yul\":981:987   */\n      dup2\n        /* \"#utility.yul\":968:988   */\n      calldataload\n        /* \"#utility.yul\":959:988   */\n      swap1\n      pop\n        /* \"#utility.yul\":997:1030   */\n      tag_225\n        /* \"#utility.yul\":1024:1029   */\n      dup2\n        /* \"#utility.yul\":997:1030   */\n      tag_175\n      jump\t// in\n    tag_225:\n        /* \"#utility.yul\":897:1036   */\n      swap3\n      swap2\n      pop\n      pop\n      jump\t// out\n        /* \"#utility.yul\":1042:1371   */\n    tag_33:\n        /* \"#utility.yul\":1101:1107   */\n      0x00\n        /* \"#utility.yul\":1150:1152   */\n      0x20\n        /* \"#utility.yul\":1138:1147   */\n      dup3\n        /* \"#utility.yul\":1129:1136   */\n      dup5\n        /* \"#utility.yul\":1125:1148   */\n      sub\n        /* \"#utility.yul\":1121:1153   */\n      slt\n        /* \"#utility.yul\":1118:1237   */\n      iszero\n      tag_227\n      jumpi\n        /* \"#utility.yul\":1156:1235   */\n      tag_228\n      tag_173\n      jump\t// in\n    tag_228:\n        /* \"#utility.yul\":1118:1237   */\n    tag_227:\n        /* \"#utility.yul\":1276:1277   */\n      0x00\n        /* \"#utility.yul\":1301:1354   */\n      tag_229\n        /* \"#utility.yul\":1346:1353   */\n      dup5\n        /* \"#utility.yul\":1337:1343   */\n      dup3\n        /* \"#utility.yul\":1326:1335   */\n      dup6\n        /* \"#utility.yul\":1322:1344   */\n      add\n        /* \"#utility.yul\":1301:1354   */\n      tag_176\n      jump\t// in\n    tag_229:\n        /* \"#utility.yul\":1291:1354   */\n      swap2\n      pop\n        /* \"#utility.yul\":1247:1364   */\n      pop\n        /* \"#utility.yul\":1042:1371   */\n      swap3\n      swap2\n      pop\n      pop\n      jump\t// out\n        /* \"#utility.yul\":1377:1503   */\n    tag_177:\n        /* \"#utility.yul\":1414:1421   */\n      0x00\n        /* \"#utility.yul\":1454:1496   */\n      0xffffffffffffffffffffffffffffffffffffffff\n        /* \"#utility.yul\":1447:1452   */\n      dup3\n        /* \"#utility.yul\":1443:1497   */\n      and\n        /* \"#utility.yul\":1432:1497   */\n      swap1\n      pop\n        /* \"#utility.yul\":1377:1503   */\n      swap2\n      swap1\n      pop\n      jump\t// out\n        /* \"#utility.yul\":1509:1605   */\n    tag_178:\n        /* \"#utility.yul\":1546:1553   */\n      0x00\n        /* \"#utility.yul\":1575:1599   */\n      tag_232\n        /* \"#utility.yul\":1593:1598   */\n      dup3\n        /* \"#utility.yul\":1575:1599   */\n      tag_177\n      jump\t// in\n    tag_232:\n        /* \"#utility.yul\":1564:1599   */\n      swap1\n      pop\n        /* \"#utility.yul\":1509:1605   */\n      swap2\n      swap1\n      pop\n      jump\t// out\n        /* \"#utility.yul\":1611:1729   */\n    tag_179:\n        /* \"#utility.yul\":1698:1722   */\n      tag_234\n        /* \"#utility.yul\":1716:1721   */\n      dup2\n        /* \"#utility.yul\":1698:1722   */\n      tag_178\n      jump\t// in\n    tag_234:\n        /* \"#utility.yul\":1693:1696   */\n      dup3\n        /* \"#utility.yul\":1686:1723   */\n      mstore\n        /* \"#utility.yul\":1611:1729   */\n      pop\n      pop\n      jump\t// out\n        /* \"#utility.yul\":1735:2067   */\n    tag_36:\n        /* \"#utility.yul\":1856:1860   */\n      0x00\n        /* \"#utility.yul\":1894:1896   */\n      0x40\n        /* \"#utility.yul\":1883:1892   */\n      dup3\n        /* \"#utility.yul\":1879:1897   */\n      add\n        /* \"#utility.yul\":1871:1897   */\n      swap1\n      pop\n        /* \"#utility.yul\":1907:1978   */\n      tag_236\n        /* \"#utility.yul\":1975:1976   */\n      0x00\n        /* \"#utility.yul\":1964:1973   */\n      dup4\n        /* \"#utility.yul\":1960:1977   */\n      add\n        /* \"#utility.yul\":1951:1957   */\n      dup6\n        /* \"#utility.yul\":1907:1978   */\n      tag_179\n      jump\t// in\n    tag_236:\n        /* \"#utility.yul\":1988:2060   */\n      tag_237\n        /* \"#utility.yul\":2056:2058   */\n      0x20\n        /* \"#utility.yul\":2045:2054   */\n      dup4\n        /* \"#utility.yul\":2041:2059   */\n      add\n        /* \"#utility.yul\":2032:2038   */\n      dup5\n        /* \"#utility.yul\":1988:2060   */\n      tag_171\n      jump\t// in\n    tag_237:\n        /* \"#utility.yul\":1735:2067   */\n      swap4\n      swap3\n      pop\n      pop\n      pop\n      jump\t// out\n        /* \"#utility.yul\":2073:2163   */\n    tag_180:\n        /* \"#utility.yul\":2107:2114   */\n      0x00\n        /* \"#utility.yul\":2150:2155   */\n      dup2\n        /* \"#utility.yul\":2143:2156   */\n      iszero\n        /* \"#utility.yul\":2136:2157   */\n      iszero\n        /* \"#utility.yul\":2125:2157   */\n      swap1\n      pop\n        /* \"#utility.yul\":2073:2163   */\n      swap2\n      swap1\n      pop\n      jump\t// out\n        /* \"#utility.yul\":2169:2278   */\n    tag_181:\n        /* \"#utility.yul\":2250:2271   */\n      tag_240\n        /* \"#utility.yul\":2265:2270   */\n      dup2\n        /* \"#utility.yul\":2250:2271   */\n      tag_180\n      jump\t// in\n    tag_240:\n        /* \"#utility.yul\":2245:2248   */\n      dup3\n        /* \"#utility.yul\":2238:2272   */\n      mstore\n        /* \"#utility.yul\":2169:2278   */\n      pop\n      pop\n      jump\t// out\n        /* \"#utility.yul\":2284:2494   */\n    tag_41:\n        /* \"#utility.yul\":2371:2375   */\n      0x00\n        /* \"#utility.yul\":2409:2411   */\n      0x20\n        /* \"#utility.yul\":2398:2407   */\n      dup3\n        /* \"#utility.yul\":2394:2412   */\n      add\n        /* \"#utility.yul\":2386:2412   */\n      swap1\n      pop\n        /* \"#utility.yul\":2422:2487   */\n      tag_242\n        /* \"#utility.yul\":2484:2485   */\n      0x00\n        /* \"#utility.yul\":2473:2482   */\n      dup4\n        /* \"#utility.yul\":2469:2486   */\n      add\n        /* \"#utility.yul\":2460:2466   */\n      dup5\n        /* \"#utility.yul\":2422:2487   */\n      tag_181\n      jump\t// in\n    tag_242:\n        /* \"#utility.yul\":2284:2494   */\n      swap3\n      swap2\n      pop\n      pop\n      jump\t// out\n        /* \"#utility.yul\":2500:2622   */\n    tag_182:\n        /* \"#utility.yul\":2573:2597   */\n      tag_244\n        /* \"#utility.yul\":2591:2596   */\n      dup2\n        /* \"#utility.yul\":2573:2597   */\n      tag_178\n      jump\t// in\n    tag_244:\n        /* \"#utility.yul\":2566:2571   */\n      dup2\n        /* \"#utility.yul\":2563:2598   */\n      eq\n        /* \"#utility.yul\":2553:2616   */\n      tag_245\n      jumpi\n        /* \"#utility.yul\":2612:2613   */\n      0x00\n        /* \"#utility.yul\":2609:2610   */\n      dup1\n        /* \"#utility.yul\":2602:2614   */\n      revert\n        /* \"#utility.yul\":2553:2616   */\n    tag_245:\n        /* \"#utility.yul\":2500:2622   */\n      pop\n      jump\t// out\n        /* \"#utility.yul\":2628:2767   */\n    tag_183:\n        /* \"#utility.yul\":2674:2679   */\n      0x00\n        /* \"#utility.yul\":2712:2718   */\n      dup2\n        /* \"#utility.yul\":2699:2719   */\n      calldataload\n        /* \"#utility.yul\":2690:2719   */\n      swap1\n      pop\n        /* \"#utility.yul\":2728:2761   */\n      tag_247\n        /* \"#utility.yul\":2755:2760   */\n      dup2\n        /* \"#utility.yul\":2728:2761   */\n      tag_182\n      jump\t// in\n    tag_247:\n        /* \"#utility.yul\":2628:2767   */\n      swap3\n      swap2\n      pop\n      pop\n      jump\t// out\n        /* \"#utility.yul\":2773:3102   */\n    tag_45:\n        /* \"#utility.yul\":2832:2838   */\n      0x00\n        /* \"#utility.yul\":2881:2883   */\n      0x20\n        /* \"#utility.yul\":2869:2878   */\n      dup3\n        /* \"#utility.yul\":2860:2867   */\n      dup5\n        /* \"#utility.yul\":2856:2879   */\n      sub\n        /* \"#utility.yul\":2852:2884   */\n      slt\n        /* \"#utility.yul\":2849:2968   */\n      iszero\n      tag_249\n      jumpi\n        /* \"#utility.yul\":2887:2966   */\n      tag_250\n      tag_173\n      jump\t// in\n    tag_250:\n        /* \"#utility.yul\":2849:2968   */\n    tag_249:\n        /* \"#utility.yul\":3007:3008   */\n      0x00\n        /* \"#utility.yul\":3032:3085   */\n      tag_251\n        /* \"#utility.yul\":3077:3084   */\n      dup5\n        /* \"#utility.yul\":3068:3074   */\n      dup3\n        /* \"#utility.yul\":3057:3066   */\n      dup6\n        /* \"#utility.yul\":3053:3075   */\n      add\n        /* \"#utility.yul\":3032:3085   */\n      tag_183\n      jump\t// in\n    tag_251:\n        /* \"#utility.yul\":3022:3085   */\n      swap2\n      pop\n        /* \"#utility.yul\":2978:3095   */\n      pop\n        /* \"#utility.yul\":2773:3102   */\n      swap3\n      swap2\n      pop\n      pop\n      jump\t// out\n        /* \"#utility.yul\":3108:3330   */\n    tag_56:\n        /* \"#utility.yul\":3201:3205   */\n      0x00\n        /* \"#utility.yul\":3239:3241   */\n      0x20\n        /* \"#utility.yul\":3228:3237   */\n      dup3\n        /* \"#utility.yul\":3224:3242   */\n      add\n        /* \"#utility.yul\":3216:3242   */\n      swap1\n      pop\n        /* \"#utility.yul\":3252:3323   */\n      tag_253\n        /* \"#utility.yul\":3320:3321   */\n      0x00\n        /* \"#utility.yul\":3309:3318   */\n      dup4\n        /* \"#utility.yul\":3305:3322   */\n      add\n        /* \"#utility.yul\":3296:3302   */\n      dup5\n        /* \"#utility.yul\":3252:3323   */\n      tag_179\n      jump\t// in\n    tag_253:\n        /* \"#utility.yul\":3108:3330   */\n      swap3\n      swap2\n      pop\n      pop\n      jump\t// out\n        /* \"#utility.yul\":3336:3472   */\n    tag_184:\n        /* \"#utility.yul\":3425:3431   */\n      0x00\n        /* \"#utility.yul\":3459:3464   */\n      dup2\n        /* \"#utility.yul\":3453:3465   */\n      mload\n        /* \"#utility.yul\":3443:3465   */\n      swap1\n      pop\n        /* \"#utility.yul\":3336:3472   */\n      swap2\n      swap1\n      pop\n      jump\t// out\n        /* \"#utility.yul\":3478:3684   */\n    tag_185:\n        /* \"#utility.yul\":3599:3610   */\n      0x00\n        /* \"#utility.yul\":3633:3639   */\n      dup3\n        /* \"#utility.yul\":3628:3631   */\n      dup3\n        /* \"#utility.yul\":3621:3640   */\n      mstore\n        /* \"#utility.yul\":3673:3677   */\n      0x20\n        /* \"#utility.yul\":3668:3671   */\n      dup3\n        /* \"#utility.yul\":3664:3678   */\n      add\n        /* \"#utility.yul\":3649:3678   */\n      swap1\n      pop\n        /* \"#utility.yul\":3478:3684   */\n      swap3\n      swap2\n      pop\n      pop\n      jump\t// out\n        /* \"#utility.yul\":3690:3844   */\n    tag_186:\n        /* \"#utility.yul\":3779:3783   */\n      0x00\n        /* \"#utility.yul\":3802:3805   */\n      dup2\n        /* \"#utility.yul\":3794:3805   */\n      swap1\n      pop\n        /* \"#utility.yul\":3832:3836   */\n      0x20\n        /* \"#utility.yul\":3827:3830   */\n      dup3\n        /* \"#utility.yul\":3823:3837   */\n      add\n        /* \"#utility.yul\":3815:3837   */\n      swap1\n      pop\n        /* \"#utility.yul\":3690:3844   */\n      swap2\n      swap1\n      pop\n      jump\t// out\n        /* \"#utility.yul\":3850:3958   */\n    tag_187:\n        /* \"#utility.yul\":3927:3951   */\n      tag_258\n        /* \"#utility.yul\":3945:3950   */\n      dup2\n        /* \"#utility.yul\":3927:3951   */\n      tag_178\n      jump\t// in\n    tag_258:\n        /* \"#utility.yul\":3922:3925   */\n      dup3\n        /* \"#utility.yul\":3915:3952   */\n      mstore\n        /* \"#utility.yul\":3850:3958   */\n      pop\n      pop\n      jump\t// out\n        /* \"#utility.yul\":3964:4072   */\n    tag_188:\n        /* \"#utility.yul\":4041:4065   */\n      tag_260\n        /* \"#utility.yul\":4059:4064   */\n      dup2\n        /* \"#utility.yul\":4041:4065   */\n      tag_170\n      jump\t// in\n    tag_260:\n        /* \"#utility.yul\":4036:4039   */\n      dup3\n        /* \"#utility.yul\":4029:4066   */\n      mstore\n        /* \"#utility.yul\":3964:4072   */\n      pop\n      pop\n      jump\t// out\n        /* \"#utility.yul\":4136:4633   */\n    tag_189:\n        /* \"#utility.yul\":4267:4271   */\n      0x40\n        /* \"#utility.yul\":4262:4265   */\n      dup3\n        /* \"#utility.yul\":4258:4272   */\n      add\n        /* \"#utility.yul\":4359:4363   */\n      0x00\n        /* \"#utility.yul\":4352:4357   */\n      dup3\n        /* \"#utility.yul\":4348:4364   */\n      add\n        /* \"#utility.yul\":4342:4365   */\n      mload\n        /* \"#utility.yul\":4378:4441   */\n      tag_262\n        /* \"#utility.yul\":4435:4439   */\n      0x00\n        /* \"#utility.yul\":4430:4433   */\n      dup6\n        /* \"#utility.yul\":4426:4440   */\n      add\n        /* \"#utility.yul\":4412:4424   */\n      dup3\n        /* \"#utility.yul\":4378:4441   */\n      tag_187\n      jump\t// in\n    tag_262:\n        /* \"#utility.yul\":4282:4451   */\n      pop\n        /* \"#utility.yul\":4534:4538   */\n      0x20\n        /* \"#utility.yul\":4527:4532   */\n      dup3\n        /* \"#utility.yul\":4523:4539   */\n      add\n        /* \"#utility.yul\":4517:4540   */\n      mload\n        /* \"#utility.yul\":4553:4616   */\n      tag_263\n        /* \"#utility.yul\":4610:4614   */\n      0x20\n        /* \"#utility.yul\":4605:4608   */\n      dup6\n        /* \"#utility.yul\":4601:4615   */\n      add\n        /* \"#utility.yul\":4587:4599   */\n      dup3\n        /* \"#utility.yul\":4553:4616   */\n      tag_188\n      jump\t// in\n    tag_263:\n        /* \"#utility.yul\":4461:4626   */\n      pop\n        /* \"#utility.yul\":4236:4633   */\n      pop\n        /* \"#utility.yul\":4136:4633   */\n      pop\n      pop\n      jump\t// out\n        /* \"#utility.yul\":4639:4906   */\n    tag_190:\n        /* \"#utility.yul\":4752:4762   */\n      0x00\n        /* \"#utility.yul\":4773:4863   */\n      tag_265\n        /* \"#utility.yul\":4859:4862   */\n      dup4\n        /* \"#utility.yul\":4851:4857   */\n      dup4\n        /* \"#utility.yul\":4773:4863   */\n      tag_189\n      jump\t// in\n    tag_265:\n        /* \"#utility.yul\":4895:4899   */\n      0x40\n        /* \"#utility.yul\":4890:4893   */\n      dup4\n        /* \"#utility.yul\":4886:4900   */\n      add\n        /* \"#utility.yul\":4872:4900   */\n      swap1\n      pop\n        /* \"#utility.yul\":4639:4906   */\n      swap3\n      swap2\n      pop\n      pop\n      jump\t// out\n        /* \"#utility.yul\":4912:5047   */\n    tag_191:\n        /* \"#utility.yul\":5004:5008   */\n      0x00\n        /* \"#utility.yul\":5036:5040   */\n      0x20\n        /* \"#utility.yul\":5031:5034   */\n      dup3\n        /* \"#utility.yul\":5027:5041   */\n      add\n        /* \"#utility.yul\":5019:5041   */\n      swap1\n      pop\n        /* \"#utility.yul\":4912:5047   */\n      swap2\n      swap1\n      pop\n      jump\t// out\n        /* \"#utility.yul\":5115:6023   */\n    tag_192:\n        /* \"#utility.yul\":5278:5281   */\n      0x00\n        /* \"#utility.yul\":5307:5383   */\n      tag_268\n        /* \"#utility.yul\":5377:5382   */\n      dup3\n        /* \"#utility.yul\":5307:5383   */\n      tag_184\n      jump\t// in\n    tag_268:\n        /* \"#utility.yul\":5399:5507   */\n      tag_269\n        /* \"#utility.yul\":5500:5506   */\n      dup2\n        /* \"#utility.yul\":5495:5498   */\n      dup6\n        /* \"#utility.yul\":5399:5507   */\n      tag_185\n      jump\t// in\n    tag_269:\n        /* \"#utility.yul\":5392:5507   */\n      swap4\n      pop\n        /* \"#utility.yul\":5531:5609   */\n      tag_270\n        /* \"#utility.yul\":5603:5608   */\n      dup4\n        /* \"#utility.yul\":5531:5609   */\n      tag_186\n      jump\t// in\n    tag_270:\n        /* \"#utility.yul\":5632:5639   */\n      dup1\n        /* \"#utility.yul\":5663:5664   */\n      0x00\n        /* \"#utility.yul\":5648:5998   */\n    tag_271:\n        /* \"#utility.yul\":5673:5679   */\n      dup4\n        /* \"#utility.yul\":5670:5671   */\n      dup2\n        /* \"#utility.yul\":5667:5680   */\n      lt\n        /* \"#utility.yul\":5648:5998   */\n      iszero\n      tag_273\n      jumpi\n        /* \"#utility.yul\":5749:5755   */\n      dup2\n        /* \"#utility.yul\":5743:5756   */\n      mload\n        /* \"#utility.yul\":5776:5883   */\n      tag_274\n        /* \"#utility.yul\":5879:5882   */\n      dup9\n        /* \"#utility.yul\":5864:5877   */\n      dup3\n        /* \"#utility.yul\":5776:5883   */\n      tag_190\n      jump\t// in\n    tag_274:\n        /* \"#utility.yul\":5769:5883   */\n      swap8\n      pop\n        /* \"#utility.yul\":5906:5988   */\n      tag_275\n        /* \"#utility.yul\":5981:5987   */\n      dup4\n        /* \"#utility.yul\":5906:5988   */\n      tag_191\n      jump\t// in\n    tag_275:\n        /* \"#utility.yul\":5896:5988   */\n      swap3\n      pop\n        /* \"#utility.yul\":5708:5998   */\n      pop\n        /* \"#utility.yul\":5695:5696   */\n      0x01\n        /* \"#utility.yul\":5692:5693   */\n      dup2\n        /* \"#utility.yul\":5688:5697   */\n      add\n        /* \"#utility.yul\":5683:5697   */\n      swap1\n      pop\n        /* \"#utility.yul\":5648:5998   */\n      jump(tag_271)\n    tag_273:\n        /* \"#utility.yul\":5652:5666   */\n      pop\n        /* \"#utility.yul\":6014:6017   */\n      dup6\n        /* \"#utility.yul\":6007:6017   */\n      swap4\n      pop\n        /* \"#utility.yul\":5283:6023   */\n      pop\n      pop\n      pop\n        /* \"#utility.yul\":5115:6023   */\n      swap3\n      swap2\n      pop\n      pop\n      jump\t// out\n        /* \"#utility.yul\":6029:6490   */\n    tag_79:\n        /* \"#utility.yul\":6216:6220   */\n      0x00\n        /* \"#utility.yul\":6254:6256   */\n      0x20\n        /* \"#utility.yul\":6243:6252   */\n      dup3\n        /* \"#utility.yul\":6239:6257   */\n      add\n        /* \"#utility.yul\":6231:6257   */\n      swap1\n      pop\n        /* \"#utility.yul\":6303:6312   */\n      dup2\n        /* \"#utility.yul\":6297:6301   */\n      dup2\n        /* \"#utility.yul\":6293:6313   */\n      sub\n        /* \"#utility.yul\":6289:6290   */\n      0x00\n        /* \"#utility.yul\":6278:6287   */\n      dup4\n        /* \"#utility.yul\":6274:6291   */\n      add\n        /* \"#utility.yul\":6267:6314   */\n      mstore\n        /* \"#utility.yul\":6331:6483   */\n      tag_277\n        /* \"#utility.yul\":6478:6482   */\n      dup2\n        /* \"#utility.yul\":6469:6475   */\n      dup5\n        /* \"#utility.yul\":6331:6483   */\n      tag_192\n      jump\t// in\n    tag_277:\n        /* \"#utility.yul\":6323:6483   */\n      swap1\n      pop\n        /* \"#utility.yul\":6029:6490   */\n      swap3\n      swap2\n      pop\n      pop\n      jump\t// out\n        /* \"#utility.yul\":6496:6665   */\n    tag_193:\n        /* \"#utility.yul\":6580:6591   */\n      0x00\n        /* \"#utility.yul\":6614:6620   */\n      dup3\n        /* \"#utility.yul\":6609:6612   */\n      dup3\n        /* \"#utility.yul\":6602:6621   */\n      mstore\n        /* \"#utility.yul\":6654:6658   */\n      0x20\n        /* \"#utility.yul\":6649:6652   */\n      dup3\n        /* \"#utility.yul\":6645:6659   */\n      add\n        /* \"#utility.yul\":6630:6659   */\n      swap1\n      pop\n        /* \"#utility.yul\":6496:6665   */\n      swap3\n      swap2\n      pop\n      pop\n      jump\t// out\n        /* \"#utility.yul\":6671:6905   */\n    tag_194:\n        /* \"#utility.yul\":6811:6845   */\n      0x536f6c6f20656c2070726f706965746172696f20707565646520656a65637574\n        /* \"#utility.yul\":6807:6808   */\n      0x00\n        /* \"#utility.yul\":6799:6805   */\n      dup3\n        /* \"#utility.yul\":6795:6809   */\n      add\n        /* \"#utility.yul\":6788:6846   */\n      mstore\n        /* \"#utility.yul\":6880:6897   */\n      0x617220657374612066756e63696f6e0000000000000000000000000000000000\n        /* \"#utility.yul\":6875:6877   */\n      0x20\n        /* \"#utility.yul\":6867:6873   */\n      dup3\n        /* \"#utility.yul\":6863:6878   */\n      add\n        /* \"#utility.yul\":6856:6898   */\n      mstore\n        /* \"#utility.yul\":6671:6905   */\n      pop\n      jump\t// out\n        /* \"#utility.yul\":6911:7277   */\n    tag_195:\n        /* \"#utility.yul\":7053:7056   */\n      0x00\n        /* \"#utility.yul\":7074:7141   */\n      tag_281\n        /* \"#utility.yul\":7138:7140   */\n      0x2f\n        /* \"#utility.yul\":7133:7136   */\n      dup4\n        /* \"#utility.yul\":7074:7141   */\n      tag_193\n      jump\t// in\n    tag_281:\n        /* \"#utility.yul\":7067:7141   */\n      swap2\n      pop\n        /* \"#utility.yul\":7150:7243   */\n      tag_282\n        /* \"#utility.yul\":7239:7242   */\n      dup3\n        /* \"#utility.yul\":7150:7243   */\n      tag_194\n      jump\t// in\n    tag_282:\n        /* \"#utility.yul\":7268:7270   */\n      0x40\n        /* \"#utility.yul\":7263:7266   */\n      dup3\n        /* \"#utility.yul\":7259:7271   */\n      add\n        /* \"#utility.yul\":7252:7271   */\n      swap1\n      pop\n        /* \"#utility.yul\":6911:7277   */\n      swap2\n      swap1\n      pop\n      jump\t// out\n        /* \"#utility.yul\":7283:7702   */\n    tag_87:\n        /* \"#utility.yul\":7449:7453   */\n      0x00\n        /* \"#utility.yul\":7487:7489   */\n      0x20\n        /* \"#utility.yul\":7476:7485   */\n      dup3\n        /* \"#utility.yul\":7472:7490   */\n      add\n        /* \"#utility.yul\":7464:7490   */\n      swap1\n      pop\n        /* \"#utility.yul\":7536:7545   */\n      dup2\n        /* \"#utility.yul\":7530:7534   */\n      dup2\n        /* \"#utility.yul\":7526:7546   */\n      sub\n        /* \"#utility.yul\":7522:7523   */\n      0x00\n        /* \"#utility.yul\":7511:7520   */\n      dup4\n        /* \"#utility.yul\":7507:7524   */\n      add\n        /* \"#utility.yul\":7500:7547   */\n      mstore\n        /* \"#utility.yul\":7564:7695   */\n      tag_284\n        /* \"#utility.yul\":7690:7694   */\n      dup2\n        /* \"#utility.yul\":7564:7695   */\n      tag_195\n      jump\t// in\n    tag_284:\n        /* \"#utility.yul\":7556:7695   */\n      swap1\n      pop\n        /* \"#utility.yul\":7283:7702   */\n      swap2\n      swap1\n      pop\n      jump\t// out\n        /* \"#utility.yul\":7708:7888   */\n    tag_196:\n        /* \"#utility.yul\":7756:7833   */\n      0x4e487b7100000000000000000000000000000000000000000000000000000000\n        /* \"#utility.yul\":7753:7754   */\n      0x00\n        /* \"#utility.yul\":7746:7834   */\n      mstore\n        /* \"#utility.yul\":7853:7857   */\n      0x11\n        /* \"#utility.yul\":7850:7851   */\n      0x04\n        /* \"#utility.yul\":7843:7858   */\n      mstore\n        /* \"#utility.yul\":7877:7881   */\n      0x24\n        /* \"#utility.yul\":7874:7875   */\n      0x00\n        /* \"#utility.yul\":7867:7882   */\n      revert\n        /* \"#utility.yul\":7894:8085   */\n    tag_91:\n        /* \"#utility.yul\":7934:7937   */\n      0x00\n        /* \"#utility.yul\":7953:7973   */\n      tag_287\n        /* \"#utility.yul\":7971:7972   */\n      dup3\n        /* \"#utility.yul\":7953:7973   */\n      tag_170\n      jump\t// in\n    tag_287:\n        /* \"#utility.yul\":7948:7973   */\n      swap2\n      pop\n        /* \"#utility.yul\":7987:8007   */\n      tag_288\n        /* \"#utility.yul\":8005:8006   */\n      dup4\n        /* \"#utility.yul\":7987:8007   */\n      tag_170\n      jump\t// in\n    tag_288:\n        /* \"#utility.yul\":7982:8007   */\n      swap3\n      pop\n        /* \"#utility.yul\":8030:8031   */\n      dup3\n        /* \"#utility.yul\":8027:8028   */\n      dup3\n        /* \"#utility.yul\":8023:8032   */\n      add\n        /* \"#utility.yul\":8016:8032   */\n      swap1\n      pop\n        /* \"#utility.yul\":8051:8054   */\n      dup1\n        /* \"#utility.yul\":8048:8049   */\n      dup3\n        /* \"#utility.yul\":8045:8055   */\n      gt\n        /* \"#utility.yul\":8042:8078   */\n      iszero\n      tag_289\n      jumpi\n        /* \"#utility.yul\":8058:8076   */\n      tag_290\n      tag_196\n      jump\t// in\n    tag_290:\n        /* \"#utility.yul\":8042:8078   */\n    tag_289:\n        /* \"#utility.yul\":7894:8085   */\n      swap3\n      swap2\n      pop\n      pop\n      jump\t// out\n        /* \"#utility.yul\":8091:8266   */\n    tag_197:\n        /* \"#utility.yul\":8231:8258   */\n      0x4c612073756261737461206e6f20657374612061637469766100000000000000\n        /* \"#utility.yul\":8227:8228   */\n      0x00\n        /* \"#utility.yul\":8219:8225   */\n      dup3\n        /* \"#utility.yul\":8215:8229   */\n      add\n        /* \"#utility.yul\":8208:8259   */\n      mstore\n        /* \"#utility.yul\":8091:8266   */\n      pop\n      jump\t// out\n        /* \"#utility.yul\":8272:8638   */\n    tag_198:\n        /* \"#utility.yul\":8414:8417   */\n      0x00\n        /* \"#utility.yul\":8435:8502   */\n      tag_293\n        /* \"#utility.yul\":8499:8501   */\n      0x19\n        /* \"#utility.yul\":8494:8497   */\n      dup4\n        /* \"#utility.yul\":8435:8502   */\n      tag_193\n      jump\t// in\n    tag_293:\n        /* \"#utility.yul\":8428:8502   */\n      swap2\n      pop\n        /* \"#utility.yul\":8511:8604   */\n      tag_294\n        /* \"#utility.yul\":8600:8603   */\n      dup3\n        /* \"#utility.yul\":8511:8604   */\n      tag_197\n      jump\t// in\n    tag_294:\n        /* \"#utility.yul\":8629:8631   */\n      0x20\n        /* \"#utility.yul\":8624:8627   */\n      dup3\n        /* \"#utility.yul\":8620:8632   */\n      add\n        /* \"#utility.yul\":8613:8632   */\n      swap1\n      pop\n        /* \"#utility.yul\":8272:8638   */\n      swap2\n      swap1\n      pop\n      jump\t// out\n        /* \"#utility.yul\":8644:9063   */\n    tag_94:\n        /* \"#utility.yul\":8810:8814   */\n      0x00\n        /* \"#utility.yul\":8848:8850   */\n      0x20\n        /* \"#utility.yul\":8837:8846   */\n      dup3\n        /* \"#utility.yul\":8833:8851   */\n      add\n        /* \"#utility.yul\":8825:8851   */\n      swap1\n      pop\n        /* \"#utility.yul\":8897:8906   */\n      dup2\n        /* \"#utility.yul\":8891:8895   */\n      dup2\n        /* \"#utility.yul\":8887:8907   */\n      sub\n        /* \"#utility.yul\":8883:8884   */\n      0x00\n        /* \"#utility.yul\":8872:8881   */\n      dup4\n        /* \"#utility.yul\":8868:8885   */\n      add\n        /* \"#utility.yul\":8861:8908   */\n      mstore\n        /* \"#utility.yul\":8925:9056   */\n      tag_296\n        /* \"#utility.yul\":9051:9055   */\n      dup2\n        /* \"#utility.yul\":8925:9056   */\n      tag_198\n      jump\t// in\n    tag_296:\n        /* \"#utility.yul\":8917:9056   */\n      swap1\n      pop\n        /* \"#utility.yul\":8644:9063   */\n      swap2\n      swap1\n      pop\n      jump\t// out\n        /* \"#utility.yul\":9069:9250   */\n    tag_199:\n        /* \"#utility.yul\":9209:9242   */\n      0x4c61206f6665727461206465626520736572206d61796f722061206365726f00\n        /* \"#utility.yul\":9205:9206   */\n      0x00\n        /* \"#utility.yul\":9197:9203   */\n      dup3\n        /* \"#utility.yul\":9193:9207   */\n      add\n        /* \"#utility.yul\":9186:9243   */\n      mstore\n        /* \"#utility.yul\":9069:9250   */\n      pop\n      jump\t// out\n        /* \"#utility.yul\":9256:9622   */\n    tag_200:\n        /* \"#utility.yul\":9398:9401   */\n      0x00\n        /* \"#utility.yul\":9419:9486   */\n      tag_299\n        /* \"#utility.yul\":9483:9485   */\n      0x1f\n        /* \"#utility.yul\":9478:9481   */\n      dup4\n        /* \"#utility.yul\":9419:9486   */\n      tag_193\n      jump\t// in\n    tag_299:\n        /* \"#utility.yul\":9412:9486   */\n      swap2\n      pop\n        /* \"#utility.yul\":9495:9588   */\n      tag_300\n        /* \"#utility.yul\":9584:9587   */\n      dup3\n        /* \"#utility.yul\":9495:9588   */\n      tag_199\n      jump\t// in\n    tag_300:\n        /* \"#utility.yul\":9613:9615   */\n      0x20\n        /* \"#utility.yul\":9608:9611   */\n      dup3\n        /* \"#utility.yul\":9604:9616   */\n      add\n        /* \"#utility.yul\":9597:9616   */\n      swap1\n      pop\n        /* \"#utility.yul\":9256:9622   */\n      swap2\n      swap1\n      pop\n      jump\t// out\n        /* \"#utility.yul\":9628:10047   */\n    tag_105:\n        /* \"#utility.yul\":9794:9798   */\n      0x00\n        /* \"#utility.yul\":9832:9834   */\n      0x20\n        /* \"#utility.yul\":9821:9830   */\n      dup3\n        /* \"#utility.yul\":9817:9835   */\n      add\n        /* \"#utility.yul\":9809:9835   */\n      swap1\n      pop\n        /* \"#utility.yul\":9881:9890   */\n      dup2\n        /* \"#utility.yul\":9875:9879   */\n      dup2\n        /* \"#utility.yul\":9871:9891   */\n      sub\n        /* \"#utility.yul\":9867:9868   */\n      0x00\n        /* \"#utility.yul\":9856:9865   */\n      dup4\n        /* \"#utility.yul\":9852:9869   */\n      add\n        /* \"#utility.yul\":9845:9892   */\n      mstore\n        /* \"#utility.yul\":9909:10040   */\n      tag_302\n        /* \"#utility.yul\":10035:10039   */\n      dup2\n        /* \"#utility.yul\":9909:10040   */\n      tag_200\n      jump\t// in\n    tag_302:\n        /* \"#utility.yul\":9901:10040   */\n      swap1\n      pop\n        /* \"#utility.yul\":9628:10047   */\n      swap2\n      swap1\n      pop\n      jump\t// out\n        /* \"#utility.yul\":10053:10463   */\n    tag_108:\n        /* \"#utility.yul\":10093:10100   */\n      0x00\n        /* \"#utility.yul\":10116:10136   */\n      tag_304\n        /* \"#utility.yul\":10134:10135   */\n      dup3\n        /* \"#utility.yul\":10116:10136   */\n      tag_170\n      jump\t// in\n    tag_304:\n        /* \"#utility.yul\":10111:10136   */\n      swap2\n      pop\n        /* \"#utility.yul\":10150:10170   */\n      tag_305\n        /* \"#utility.yul\":10168:10169   */\n      dup4\n        /* \"#utility.yul\":10150:10170   */\n      tag_170\n      jump\t// in\n    tag_305:\n        /* \"#utility.yul\":10145:10170   */\n      swap3\n      pop\n        /* \"#utility.yul\":10205:10206   */\n      dup3\n        /* \"#utility.yul\":10202:10203   */\n      dup3\n        /* \"#utility.yul\":10198:10207   */\n      mul\n        /* \"#utility.yul\":10227:10257   */\n      tag_306\n        /* \"#utility.yul\":10245:10256   */\n      dup2\n        /* \"#utility.yul\":10227:10257   */\n      tag_170\n      jump\t// in\n    tag_306:\n        /* \"#utility.yul\":10216:10257   */\n      swap2\n      pop\n        /* \"#utility.yul\":10406:10407   */\n      dup3\n        /* \"#utility.yul\":10397:10404   */\n      dup3\n        /* \"#utility.yul\":10393:10408   */\n      div\n        /* \"#utility.yul\":10390:10391   */\n      dup5\n        /* \"#utility.yul\":10387:10409   */\n      eq\n        /* \"#utility.yul\":10367:10368   */\n      dup4\n        /* \"#utility.yul\":10360:10369   */\n      iszero\n        /* \"#utility.yul\":10340:10423   */\n      or\n        /* \"#utility.yul\":10317:10456   */\n      tag_307\n      jumpi\n        /* \"#utility.yul\":10436:10454   */\n      tag_308\n      tag_196\n      jump\t// in\n    tag_308:\n        /* \"#utility.yul\":10317:10456   */\n    tag_307:\n        /* \"#utility.yul\":10101:10463   */\n      pop\n        /* \"#utility.yul\":10053:10463   */\n      swap3\n      swap2\n      pop\n      pop\n      jump\t// out\n        /* \"#utility.yul\":10469:10649   */\n    tag_201:\n        /* \"#utility.yul\":10517:10594   */\n      0x4e487b7100000000000000000000000000000000000000000000000000000000\n        /* \"#utility.yul\":10514:10515   */\n      0x00\n        /* \"#utility.yul\":10507:10595   */\n      mstore\n        /* \"#utility.yul\":10614:10618   */\n      0x12\n        /* \"#utility.yul\":10611:10612   */\n      0x04\n        /* \"#utility.yul\":10604:10619   */\n      mstore\n        /* \"#utility.yul\":10638:10642   */\n      0x24\n        /* \"#utility.yul\":10635:10636   */\n      0x00\n        /* \"#utility.yul\":10628:10643   */\n      revert\n        /* \"#utility.yul\":10655:10840   */\n    tag_110:\n        /* \"#utility.yul\":10695:10696   */\n      0x00\n        /* \"#utility.yul\":10712:10732   */\n      tag_311\n        /* \"#utility.yul\":10730:10731   */\n      dup3\n        /* \"#utility.yul\":10712:10732   */\n      tag_170\n      jump\t// in\n    tag_311:\n        /* \"#utility.yul\":10707:10732   */\n      swap2\n      pop\n        /* \"#utility.yul\":10746:10766   */\n      tag_312\n        /* \"#utility.yul\":10764:10765   */\n      dup4\n        /* \"#utility.yul\":10746:10766   */\n      tag_170\n      jump\t// in\n    tag_312:\n        /* \"#utility.yul\":10741:10766   */\n      swap3\n      pop\n        /* \"#utility.yul\":10785:10786   */\n      dup3\n        /* \"#utility.yul\":10775:10810   */\n      tag_313\n      jumpi\n        /* \"#utility.yul\":10790:10808   */\n      tag_314\n      tag_201\n      jump\t// in\n    tag_314:\n        /* \"#utility.yul\":10775:10810   */\n    tag_313:\n        /* \"#utility.yul\":10832:10833   */\n      dup3\n        /* \"#utility.yul\":10829:10830   */\n      dup3\n        /* \"#utility.yul\":10825:10834   */\n      div\n        /* \"#utility.yul\":10820:10834   */\n      swap1\n      pop\n        /* \"#utility.yul\":10655:10840   */\n      swap3\n      swap2\n      pop\n      pop\n      jump\t// out\n        /* \"#utility.yul\":10846:11084   */\n    tag_202:\n        /* \"#utility.yul\":10986:11020   */\n      0x4c61206f666572746120646562652073657220616c206d656e6f7320756e2035\n        /* \"#utility.yul\":10982:10983   */\n      0x00\n        /* \"#utility.yul\":10974:10980   */\n      dup3\n        /* \"#utility.yul\":10970:10984   */\n      add\n        /* \"#utility.yul\":10963:11021   */\n      mstore\n        /* \"#utility.yul\":11055:11076   */\n      0x25206d61796f722061206c612061637475616c00000000000000000000000000\n        /* \"#utility.yul\":11050:11052   */\n      0x20\n        /* \"#utility.yul\":11042:11048   */\n      dup3\n        /* \"#utility.yul\":11038:11053   */\n      add\n        /* \"#utility.yul\":11031:11077   */\n      mstore\n        /* \"#utility.yul\":10846:11084   */\n      pop\n      jump\t// out\n        /* \"#utility.yul\":11090:11456   */\n    tag_203:\n        /* \"#utility.yul\":11232:11235   */\n      0x00\n        /* \"#utility.yul\":11253:11320   */\n      tag_317\n        /* \"#utility.yul\":11317:11319   */\n      0x33\n        /* \"#utility.yul\":11312:11315   */\n      dup4\n        /* \"#utility.yul\":11253:11320   */\n      tag_193\n      jump\t// in\n    tag_317:\n        /* \"#utility.yul\":11246:11320   */\n      swap2\n      pop\n        /* \"#utility.yul\":11329:11422   */\n      tag_318\n        /* \"#utility.yul\":11418:11421   */\n      dup3\n        /* \"#utility.yul\":11329:11422   */\n      tag_202\n      jump\t// in\n    tag_318:\n        /* \"#utility.yul\":11447:11449   */\n      0x40\n        /* \"#utility.yul\":11442:11445   */\n      dup3\n        /* \"#utility.yul\":11438:11450   */\n      add\n        /* \"#utility.yul\":11431:11450   */\n      swap1\n      pop\n        /* \"#utility.yul\":11090:11456   */\n      swap2\n      swap1\n      pop\n      jump\t// out\n        /* \"#utility.yul\":11462:11881   */\n    tag_113:\n        /* \"#utility.yul\":11628:11632   */\n      0x00\n        /* \"#utility.yul\":11666:11668   */\n      0x20\n        /* \"#utility.yul\":11655:11664   */\n      dup3\n        /* \"#utility.yul\":11651:11669   */\n      add\n        /* \"#utility.yul\":11643:11669   */\n      swap1\n      pop\n        /* \"#utility.yul\":11715:11724   */\n      dup2\n        /* \"#utility.yul\":11709:11713   */\n      dup2\n        /* \"#utility.yul\":11705:11725   */\n      sub\n        /* \"#utility.yul\":11701:11702   */\n      0x00\n        /* \"#utility.yul\":11690:11699   */\n      dup4\n        /* \"#utility.yul\":11686:11703   */\n      add\n        /* \"#utility.yul\":11679:11726   */\n      mstore\n        /* \"#utility.yul\":11743:11874   */\n      tag_320\n        /* \"#utility.yul\":11869:11873   */\n      dup2\n        /* \"#utility.yul\":11743:11874   */\n      tag_203\n      jump\t// in\n    tag_320:\n        /* \"#utility.yul\":11735:11874   */\n      swap1\n      pop\n        /* \"#utility.yul\":11462:11881   */\n      swap2\n      swap1\n      pop\n      jump\t// out\n        /* \"#utility.yul\":11887:12120   */\n    tag_115:\n        /* \"#utility.yul\":11926:11929   */\n      0x00\n        /* \"#utility.yul\":11949:11973   */\n      tag_322\n        /* \"#utility.yul\":11967:11972   */\n      dup3\n        /* \"#utility.yul\":11949:11973   */\n      tag_170\n      jump\t// in\n    tag_322:\n        /* \"#utility.yul\":11940:11973   */\n      swap2\n      pop\n        /* \"#utility.yul\":11995:12061   */\n      0xffffffffffffffffffffffffffffffffffffffffffffffffffffffffffffffff\n        /* \"#utility.yul\":11988:11993   */\n      dup3\n        /* \"#utility.yul\":11985:12062   */\n      sub\n        /* \"#utility.yul\":11982:12085   */\n      tag_323\n      jumpi\n        /* \"#utility.yul\":12065:12083   */\n      tag_324\n      tag_196\n      jump\t// in\n    tag_324:\n        /* \"#utility.yul\":11982:12085   */\n    tag_323:\n        /* \"#utility.yul\":12112:12113   */\n      0x01\n        /* \"#utility.yul\":12105:12110   */\n      dup3\n        /* \"#utility.yul\":12101:12114   */\n      add\n        /* \"#utility.yul\":12094:12114   */\n      swap1\n      pop\n        /* \"#utility.yul\":11887:12120   */\n      swap2\n      swap1\n      pop\n      jump\t// out\n        /* \"#utility.yul\":12126:12304   */\n    tag_204:\n        /* \"#utility.yul\":12266:12296   */\n      0x4c6120737562617374612061756e206573746120656e20637572736f00000000\n        /* \"#utility.yul\":12262:12263   */\n      0x00\n        /* \"#utility.yul\":12254:12260   */\n      dup3\n        /* \"#utility.yul\":12250:12264   */\n      add\n        /* \"#utility.yul\":12243:12297   */\n      mstore\n        /* \"#utility.yul\":12126:12304   */\n      pop\n      jump\t// out\n        /* \"#utility.yul\":12310:12676   */\n    tag_205:\n        /* \"#utility.yul\":12452:12455   */\n      0x00\n        /* \"#utility.yul\":12473:12540   */\n      tag_327\n        /* \"#utility.yul\":12537:12539   */\n      0x1c\n        /* \"#utility.yul\":12532:12535   */\n      dup4\n        /* \"#utility.yul\":12473:12540   */\n      tag_193\n      jump\t// in\n    tag_327:\n        /* \"#utility.yul\":12466:12540   */\n      swap2\n      pop\n        /* \"#utility.yul\":12549:12642   */\n      tag_328\n        /* \"#utility.yul\":12638:12641   */\n      dup3\n        /* \"#utility.yul\":12549:12642   */\n      tag_204\n      jump\t// in\n    tag_328:\n        /* \"#utility.yul\":12667:12669   */\n      0x20\n        /* \"#utility.yul\":12662:12665   */\n      dup3\n        /* \"#utility.yul\":12658:12670   */\n      add\n        /* \"#utility.yul\":12651:12670   */\n      swap1\n      pop\n        /* \"#utility.yul\":12310:12676   */\n      swap2\n      swap1\n      pop\n      jump\t// out\n        /* \"#utility.yul\":12682:13101   */\n    tag_130:\n        /* \"#utility.yul\":12848:12852   */\n      0x00\n        /* \"#utility.yul\":12886:12888   */\n      0x20\n        /* \"#utility.yul\":12875:12884   */\n      dup3\n        /* \"#utility.yul\":12871:12889   */\n      add\n        /* \"#utility.yul\":12863:12889   */\n      swap1\n      pop\n        /* \"#utility.yul\":12935:12944   */\n      dup2\n        /* \"#utility.yul\":12929:12933   */\n      dup2\n        /* \"#utility.yul\":12925:12945   */\n      sub\n        /* \"#utility.yul\":12921:12922   */\n      0x00\n        /* \"#utility.yul\":12910:12919   */\n      dup4\n        /* \"#utility.yul\":12906:12923   */\n      add\n        /* \"#utility.yul\":12899:12946   */\n      mstore\n        /* \"#utility.yul\":12963:13094   */\n      tag_330\n        /* \"#utility.yul\":13089:13093   */\n      dup2\n        /* \"#utility.yul\":12963:13094   */\n      tag_205\n      jump\t// in\n    tag_330:\n        /* \"#utility.yul\":12955:13094   */\n      swap1\n      pop\n        /* \"#utility.yul\":12682:13101   */\n      swap2\n      swap1\n      pop\n      jump\t// out\n        /* \"#utility.yul\":13107:13333   */\n    tag_206:\n        /* \"#utility.yul\":13247:13281   */\n      0x456c2067616e61646f72206e6f207075656465207265746972617220656c2064\n        /* \"#utility.yul\":13243:13244   */\n      0x00\n        /* \"#utility.yul\":13235:13241   */\n      dup3\n        /* \"#utility.yul\":13231:13245   */\n      add\n        /* \"#utility.yul\":13224:13282   */\n      mstore\n        /* \"#utility.yul\":13316:13325   */\n      0x65706f7369746f00000000000000000000000000000000000000000000000000\n        /* \"#utility.yul\":13311:13313   */\n      0x20\n        /* \"#utility.yul\":13303:13309   */\n      dup3\n        /* \"#utility.yul\":13299:13314   */\n      add\n        /* \"#utility.yul\":13292:13326   */\n      mstore\n        /* \"#utility.yul\":13107:13333   */\n      pop\n      jump\t// out\n        /* \"#utility.yul\":13339:13705   */\n    tag_207:\n        /* \"#utility.yul\":13481:13484   */\n      0x00\n        /* \"#utility.yul\":13502:13569   */\n      tag_333\n        /* \"#utility.yul\":13566:13568   */\n      0x27\n        /* \"#utility.yul\":13561:13564   */\n      dup4\n        /* \"#utility.yul\":13502:13569   */\n      tag_193\n      jump\t// in\n    tag_333:\n        /* \"#utility.yul\":13495:13569   */\n      swap2\n      pop\n        /* \"#utility.yul\":13578:13671   */\n      tag_334\n        /* \"#utility.yul\":13667:13670   */\n      dup3\n        /* \"#utility.yul\":13578:13671   */\n      tag_206\n      jump\t// in\n    tag_334:\n        /* \"#utility.yul\":13696:13698   */\n      0x40\n        /* \"#utility.yul\":13691:13694   */\n      dup3\n        /* \"#utility.yul\":13687:13699   */\n      add\n        /* \"#utility.yul\":13680:13699   */\n      swap1\n      pop\n        /* \"#utility.yul\":13339:13705   */\n      swap2\n      swap1\n      pop\n      jump\t// out\n        /* \"#utility.yul\":13711:14130   */\n    tag_134:\n        /* \"#utility.yul\":13877:13881   */\n      0x00\n        /* \"#utility.yul\":13915:13917   */\n      0x20\n        /* \"#utility.yul\":13904:13913   */\n      dup3\n        /* \"#utility.yul\":13900:13918   */\n      add\n        /* \"#utility.yul\":13892:13918   */\n      swap1\n      pop\n        /* \"#utility.yul\":13964:13973   */\n      dup2\n        /* \"#utility.yul\":13958:13962   */\n      dup2\n        /* \"#utility.yul\":13954:13974   */\n      sub\n        /* \"#utility.yul\":13950:13951   */\n      0x00\n        /* \"#utility.yul\":13939:13948   */\n      dup4\n        /* \"#utility.yul\":13935:13952   */\n      add\n        /* \"#utility.yul\":13928:13975   */\n      mstore\n        /* \"#utility.yul\":13992:14123   */\n      tag_336\n        /* \"#utility.yul\":14118:14122   */\n      dup2\n        /* \"#utility.yul\":13992:14123   */\n      tag_207\n      jump\t// in\n    tag_336:\n        /* \"#utility.yul\":13984:14123   */\n      swap1\n      pop\n        /* \"#utility.yul\":13711:14130   */\n      swap2\n      swap1\n      pop\n      jump\t// out\n        /* \"#utility.yul\":14136:14315   */\n    tag_208:\n        /* \"#utility.yul\":14276:14307   */\n      0x4e6f207469656e657320666f6e646f7320706172612072657469726172000000\n        /* \"#utility.yul\":14272:14273   */\n      0x00\n        /* \"#utility.yul\":14264:14270   */\n      dup3\n        /* \"#utility.yul\":14260:14274   */\n      add\n        /* \"#utility.yul\":14253:14308   */\n      mstore\n        /* \"#utility.yul\":14136:14315   */\n      pop\n      jump\t// out\n        /* \"#utility.yul\":14321:14687   */\n    tag_209:\n        /* \"#utility.yul\":14463:14466   */\n      0x00\n        /* \"#utility.yul\":14484:14551   */\n      tag_339\n        /* \"#utility.yul\":14548:14550   */\n      0x1d\n        /* \"#utility.yul\":14543:14546   */\n      dup4\n        /* \"#utility.yul\":14484:14551   */\n      tag_193\n      jump\t// in\n    tag_339:\n        /* \"#utility.yul\":14477:14551   */\n      swap2\n      pop\n        /* \"#utility.yul\":14560:14653   */\n      tag_340\n        /* \"#utility.yul\":14649:14652   */\n      dup3\n        /* \"#utility.yul\":14560:14653   */\n      tag_208\n      jump\t// in\n    tag_340:\n        /* \"#utility.yul\":14678:14680   */\n      0x20\n        /* \"#utility.yul\":14673:14676   */\n      dup3\n        /* \"#utility.yul\":14669:14681   */\n      add\n        /* \"#utility.yul\":14662:14681   */\n      swap1\n      pop\n        /* \"#utility.yul\":14321:14687   */\n      swap2\n      swap1\n      pop\n      jump\t// out\n        /* \"#utility.yul\":14693:15112   */\n    tag_137:\n        /* \"#utility.yul\":14859:14863   */\n      0x00\n        /* \"#utility.yul\":14897:14899   */\n      0x20\n        /* \"#utility.yul\":14886:14895   */\n      dup3\n        /* \"#utility.yul\":14882:14900   */\n      add\n        /* \"#utility.yul\":14874:14900   */\n      swap1\n      pop\n        /* \"#utility.yul\":14946:14955   */\n      dup2\n        /* \"#utility.yul\":14940:14944   */\n      dup2\n        /* \"#utility.yul\":14936:14956   */\n      sub\n        /* \"#utility.yul\":14932:14933   */\n      0x00\n        /* \"#utility.yul\":14921:14930   */\n      dup4\n        /* \"#utility.yul\":14917:14934   */\n      add\n        /* \"#utility.yul\":14910:14957   */\n      mstore\n        /* \"#utility.yul\":14974:15105   */\n      tag_342\n        /* \"#utility.yul\":15100:15104   */\n      dup2\n        /* \"#utility.yul\":14974:15105   */\n      tag_209\n      jump\t// in\n    tag_342:\n        /* \"#utility.yul\":14966:15105   */\n      swap1\n      pop\n        /* \"#utility.yul\":14693:15112   */\n      swap2\n      swap1\n      pop\n      jump\t// out\n        /* \"#utility.yul\":15118:15294   */\n    tag_210:\n        /* \"#utility.yul\":15258:15286   */\n      0x4e6f207469656e65732065786365736f206465206f6665727461000000000000\n        /* \"#utility.yul\":15254:15255   */\n      0x00\n        /* \"#utility.yul\":15246:15252   */\n      dup3\n        /* \"#utility.yul\":15242:15256   */\n      add\n        /* \"#utility.yul\":15235:15287   */\n      mstore\n        /* \"#utility.yul\":15118:15294   */\n      pop\n      jump\t// out\n        /* \"#utility.yul\":15300:15666   */\n    tag_211:\n        /* \"#utility.yul\":15442:15445   */\n      0x00\n        /* \"#utility.yul\":15463:15530   */\n      tag_345\n        /* \"#utility.yul\":15527:15529   */\n      0x1a\n        /* \"#utility.yul\":15522:15525   */\n      dup4\n        /* \"#utility.yul\":15463:15530   */\n      tag_193\n      jump\t// in\n    tag_345:\n        /* \"#utility.yul\":15456:15530   */\n      swap2\n      pop\n        /* \"#utility.yul\":15539:15632   */\n      tag_346\n        /* \"#utility.yul\":15628:15631   */\n      dup3\n        /* \"#utility.yul\":15539:15632   */\n      tag_210\n      jump\t// in\n    tag_346:\n        /* \"#utility.yul\":15657:15659   */\n      0x20\n        /* \"#utility.yul\":15652:15655   */\n      dup3\n        /* \"#utility.yul\":15648:15660   */\n      add\n        /* \"#utility.yul\":15641:15660   */\n      swap1\n      pop\n        /* \"#utility.yul\":15300:15666   */\n      swap2\n      swap1\n      pop\n      jump\t// out\n        /* \"#utility.yul\":15672:16091   */\n    tag_150:\n        /* \"#utility.yul\":15838:15842   */\n      0x00\n        /* \"#utility.yul\":15876:15878   */\n      0x20\n        /* \"#utility.yul\":15865:15874   */\n      dup3\n        /* \"#utility.yul\":15861:15879   */\n      add\n        /* \"#utility.yul\":15853:15879   */\n      swap1\n      pop\n        /* \"#utility.yul\":15925:15934   */\n      dup2\n        /* \"#utility.yul\":15919:15923   */\n      dup2\n        /* \"#utility.yul\":15915:15935   */\n      sub\n        /* \"#utility.yul\":15911:15912   */\n      0x00\n        /* \"#utility.yul\":15900:15909   */\n      dup4\n        /* \"#utility.yul\":15896:15913   */\n      add\n        /* \"#utility.yul\":15889:15936   */\n      mstore\n        /* \"#utility.yul\":15953:16084   */\n      tag_348\n        /* \"#utility.yul\":16079:16083   */\n      dup2\n        /* \"#utility.yul\":15953:16084   */\n      tag_211\n      jump\t// in\n    tag_348:\n        /* \"#utility.yul\":15945:16084   */\n      swap1\n      pop\n        /* \"#utility.yul\":15672:16091   */\n      swap2\n      swap1\n      pop\n      jump\t// out\n        /* \"#utility.yul\":16097:16291   */\n    tag_152:\n        /* \"#utility.yul\":16137:16141   */\n      0x00\n        /* \"#utility.yul\":16157:16177   */\n      tag_350\n        /* \"#utility.yul\":16175:16176   */\n      dup3\n        /* \"#utility.yul\":16157:16177   */\n      tag_170\n      jump\t// in\n    tag_350:\n        /* \"#utility.yul\":16152:16177   */\n      swap2\n      pop\n        /* \"#utility.yul\":16191:16211   */\n      tag_351\n        /* \"#utility.yul\":16209:16210   */\n      dup4\n        /* \"#utility.yul\":16191:16211   */\n      tag_170\n      jump\t// in\n    tag_351:\n        /* \"#utility.yul\":16186:16211   */\n      swap3\n      pop\n        /* \"#utility.yul\":16235:16236   */\n      dup3\n        /* \"#utility.yul\":16232:16233   */\n      dup3\n        /* \"#utility.yul\":16228:16237   */\n      sub\n        /* \"#utility.yul\":16220:16237   */\n      swap1\n      pop\n        /* \"#utility.yul\":16259:16260   */\n      dup2\n        /* \"#utility.yul\":16253:16257   */\n      dup2\n        /* \"#utility.yul\":16250:16261   */\n      gt\n        /* \"#utility.yul\":16247:16284   */\n      iszero\n      tag_352\n      jumpi\n        /* \"#utility.yul\":16264:16282   */\n      tag_353\n      tag_196\n      jump\t// in\n    tag_353:\n        /* \"#utility.yul\":16247:16284   */\n    tag_352:\n        /* \"#utility.yul\":16097:16291   */\n      swap3\n      swap2\n      pop\n      pop\n      jump\t// out\n        /* \"#utility.yul\":16297:16477   */\n    tag_159:\n        /* \"#utility.yul\":16345:16422   */\n      0x4e487b7100000000000000000000000000000000000000000000000000000000\n        /* \"#utility.yul\":16342:16343   */\n      0x00\n        /* \"#utility.yul\":16335:16423   */\n      mstore\n        /* \"#utility.yul\":16442:16446   */\n      0x41\n        /* \"#utility.yul\":16439:16440   */\n      0x04\n        /* \"#utility.yul\":16432:16447   */\n      mstore\n        /* \"#utility.yul\":16466:16470   */\n      0x24\n        /* \"#utility.yul\":16463:16464   */\n      0x00\n        /* \"#utility.yul\":16456:16471   */\n      revert\n        /* \"#utility.yul\":16483:16663   */\n    tag_169:\n        /* \"#utility.yul\":16531:16608   */\n      0x4e487b7100000000000000000000000000000000000000000000000000000000\n        /* \"#utility.yul\":16528:16529   */\n      0x00\n        /* \"#utility.yul\":16521:16609   */\n      mstore\n        /* \"#utility.yul\":16628:16632   */\n      0x32\n        /* \"#utility.yul\":16625:16626   */\n      0x04\n        /* \"#utility.yul\":16618:16633   */\n      mstore\n        /* \"#utility.yul\":16652:16656   */\n      0x24\n        /* \"#utility.yul\":16649:16650   */\n      0x00\n        /* \"#utility.yul\":16642:16657   */\n      revert\n\n    auxdata: 0xa2646970667358221220507a5a5d0480377abb34f6450f2c168d95bd86ddfef151105b9b24ec5ed3a30764736f6c634300081a0033\n}\n",
				"bytecode": {
					"linkReferences": {},
					"object": "608060405234801561000f575f80fd5b50604051611792380380611792833981810160405281019061003191906100dc565b335f806101000a81548173ffffffffffffffffffffffffffffffffffffffff021916908373ffffffffffffffffffffffffffffffffffffffff16021790555042600181905550806002819055505f600481905550600160055f6101000a81548160ff02191690831515021790555050610107565b5f80fd5b5f819050919050565b6100bb816100a9565b81146100c5575f80fd5b50565b5f815190506100d6816100b2565b92915050565b5f602082840312156100f1576100f06100a5565b5b5f6100fe848285016100c8565b91505092915050565b61167e806101145f395ff3fe6080604052600436106100e7575f3560e01c80638da5cb5b11610089578063a791e09b11610058578063a791e09b14610297578063c1902319146102c1578063c442a99f146102d7578063d1d7e96c14610301576100e7565b80638da5cb5b146102035780639114bde81461022d578063963cb24a14610257578063a05d3ddc14610281576100e7565b806356afff7c116100c557806356afff7c146101355780635dfe78f714610172578063664e62b91461019c578063753dcaeb146101d8576100e7565b80630851eac2146100eb57806313a83eaf146101015780633ec059d71461012b575b5f80fd5b3480156100f6575f80fd5b506100ff61032b565b005b34801561010c575f80fd5b50610115610498565b6040516101229190610e28565b60405180910390f35b61013361049e565b005b348015610140575f80fd5b5061015b60048036038101906101569190610e6f565b6107ec565b604051610169929190610ed9565b60405180910390f35b34801561017d575f80fd5b5061018661082b565b6040516101939190610f1a565b60405180910390f35b3480156101a7575f80fd5b506101c260048036038101906101bd9190610f5d565b61083d565b6040516101cf9190610e28565b60405180910390f35b3480156101e3575f80fd5b506101ec610852565b6040516101fa929190610ed9565b60405180910390f35b34801561020e575f80fd5b50610217610881565b6040516102249190610f88565b60405180910390f35b348015610238575f80fd5b506102416108a4565b60405161024e9190610f88565b60405180910390f35b348015610262575f80fd5b5061026b6108c9565b6040516102789190610e28565b60405180910390f35b34801561028c575f80fd5b506102956108cf565b005b3480156102a2575f80fd5b506102ab610af0565b6040516102b89190610e28565b60405180910390f35b3480156102cc575f80fd5b506102d5610af6565b005b3480156102e2575f80fd5b506102eb610cc8565b6040516102f89190611094565b60405180910390f35b34801561030c575f80fd5b50610315610ddc565b6040516103229190610e28565b60405180910390f35b5f8054906101000a900473ffffffffffffffffffffffffffffffffffffffff1673ffffffffffffffffffffffffffffffffffffffff163373ffffffffffffffffffffffffffffffffffffffff16146103b8576040517f08c379a00000000000000000000000000000000000000000000000000000000081526004016103af90611134565b60405180910390fd5b60055f9054906101000a900460ff1680156103e257506002546001546103de919061117f565b4211155b610421576040517f08c379a0000000000000000000000000000000000000000000000000000000008152600401610418906111fc565b60405180910390fd5b5f60055f6101000a81548160ff0219169083151502179055507ff9fa653adcb5409d472232519052c01c420a4986a12812758dedf7b097c4709e60035f9054906101000a900473ffffffffffffffffffffffffffffffffffffffff1660045460405161048e929190610ed9565b60405180910390a1565b60045481565b60055f9054906101000a900460ff1680156104c857506002546001546104c4919061117f565b4211155b610507576040517f08c379a00000000000000000000000000000000000000000000000000000000081526004016104fe906111fc565b60405180910390fd5b5f3411610549576040517f08c379a000000000000000000000000000000000000000000000000000000000815260040161054090611264565b60405180910390fd5b5f3460065f3373ffffffffffffffffffffffffffffffffffffffff1673ffffffffffffffffffffffffffffffffffffffff1681526020019081526020015f2054610593919061117f565b9050606460696004546105a69190611282565b6105b091906112f0565b8110156105f2576040517f08c379a00000000000000000000000000000000000000000000000000000000081526004016105e990611390565b60405180910390fd5b8060065f3373ffffffffffffffffffffffffffffffffffffffff1673ffffffffffffffffffffffffffffffffffffffff1681526020019081526020015f208190555060405180604001604052803373ffffffffffffffffffffffffffffffffffffffff1681526020018281525060075f60085481526020019081526020015f205f820151815f015f6101000a81548173ffffffffffffffffffffffffffffffffffffffff021916908373ffffffffffffffffffffffffffffffffffffffff1602179055506020820151816001015590505060085f8154809291906106d5906113ae565b919050555060045481111561076557806004819055503360035f6101000a81548173ffffffffffffffffffffffffffffffffffffffff021916908373ffffffffffffffffffffffffffffffffffffffff1602179055507fde66accd6240fde8499e988f5d390a2c61bc04425d3f696ff40b06c9ddf578ab338260405161075c929190610ed9565b60405180910390a15b600254600154610775919061117f565b61025842610783919061117f565b106107e95761025860025f82825461079b919061117f565b925050819055507f4a6cb7f31583c4d0eee65821c3ccb94b57bb97eb618db947f9915d194fe8abc26002546001546107d3919061117f565b6040516107e09190610e28565b60405180910390a15b50565b6007602052805f5260405f205f91509050805f015f9054906101000a900473ffffffffffffffffffffffffffffffffffffffff16908060010154905082565b60055f9054906101000a900460ff1681565b6006602052805f5260405f205f915090505481565b5f8060035f9054906101000a900473ffffffffffffffffffffffffffffffffffffffff16600454915091509091565b5f8054906101000a900473ffffffffffffffffffffffffffffffffffffffff1681565b60035f9054906101000a900473ffffffffffffffffffffffffffffffffffffffff1681565b60085481565b60055f9054906101000a900460ff161580156108f957506002546001546108f6919061117f565b42115b610938576040517f08c379a000000000000000000000000000000000000000000000000000000000815260040161092f9061143f565b60405180910390fd5b60035f9054906101000a900473ffffffffffffffffffffffffffffffffffffffff1673ffffffffffffffffffffffffffffffffffffffff163373ffffffffffffffffffffffffffffffffffffffff16036109c7576040517f08c379a00000000000000000000000000000000000000000000000000000000081526004016109be906114cd565b60405180910390fd5b5f60065f3373ffffffffffffffffffffffffffffffffffffffff1673ffffffffffffffffffffffffffffffffffffffff1681526020019081526020015f205490505f8111610a4a576040517f08c379a0000000000000000000000000000000000000000000000000000000008152600401610a4190611535565b60405180910390fd5b5f6064606283610a5a9190611282565b610a6491906112f0565b90505f60065f3373ffffffffffffffffffffffffffffffffffffffff1673ffffffffffffffffffffffffffffffffffffffff1681526020019081526020015f20819055503373ffffffffffffffffffffffffffffffffffffffff166108fc8290811502906040515f60405180830381858888f19350505050158015610aeb573d5f803e3d5ffd5b505050565b60015481565b60055f9054906101000a900460ff168015610b205750600254600154610b1c919061117f565b4211155b610b5f576040517f08c379a0000000000000000000000000000000000000000000000000000000008152600401610b56906111fc565b60405180910390fd5b60045460065f3373ffffffffffffffffffffffffffffffffffffffff1673ffffffffffffffffffffffffffffffffffffffff1681526020019081526020015f205411610be0576040517f08c379a0000000000000000000000000000000000000000000000000000000008152600401610bd79061159d565b60405180910390fd5b5f60045460065f3373ffffffffffffffffffffffffffffffffffffffff1673ffffffffffffffffffffffffffffffffffffffff1681526020019081526020015f2054610c2c91906115bb565b90508060065f3373ffffffffffffffffffffffffffffffffffffffff1673ffffffffffffffffffffffffffffffffffffffff1681526020019081526020015f205f828254610c7a91906115bb565b925050819055503373ffffffffffffffffffffffffffffffffffffffff166108fc8290811502906040515f60405180830381858888f19350505050158015610cc4573d5f803e3d5ffd5b5050565b60605f60085467ffffffffffffffff811115610ce757610ce66115ee565b5b604051908082528060200260200182016040528015610d2057816020015b610d0d610de2565b815260200190600190039081610d055790505b5090505f5b600854811015610dd45760075f8281526020019081526020015f206040518060400160405290815f82015f9054906101000a900473ffffffffffffffffffffffffffffffffffffffff1673ffffffffffffffffffffffffffffffffffffffff1673ffffffffffffffffffffffffffffffffffffffff168152602001600182015481525050828281518110610dbc57610dbb61161b565b5b60200260200101819052508080600101915050610d25565b508091505090565b60025481565b60405180604001604052805f73ffffffffffffffffffffffffffffffffffffffff1681526020015f81525090565b5f819050919050565b610e2281610e10565b82525050565b5f602082019050610e3b5f830184610e19565b92915050565b5f80fd5b610e4e81610e10565b8114610e58575f80fd5b50565b5f81359050610e6981610e45565b92915050565b5f60208284031215610e8457610e83610e41565b5b5f610e9184828501610e5b565b91505092915050565b5f73ffffffffffffffffffffffffffffffffffffffff82169050919050565b5f610ec382610e9a565b9050919050565b610ed381610eb9565b82525050565b5f604082019050610eec5f830185610eca565b610ef96020830184610e19565b9392505050565b5f8115159050919050565b610f1481610f00565b82525050565b5f602082019050610f2d5f830184610f0b565b92915050565b610f3c81610eb9565b8114610f46575f80fd5b50565b5f81359050610f5781610f33565b92915050565b5f60208284031215610f7257610f71610e41565b5b5f610f7f84828501610f49565b91505092915050565b5f602082019050610f9b5f830184610eca565b92915050565b5f81519050919050565b5f82825260208201905092915050565b5f819050602082019050919050565b610fd381610eb9565b82525050565b610fe281610e10565b82525050565b604082015f820151610ffc5f850182610fca565b50602082015161100f6020850182610fd9565b50505050565b5f6110208383610fe8565b60408301905092915050565b5f602082019050919050565b5f61104282610fa1565b61104c8185610fab565b935061105783610fbb565b805f5b8381101561108757815161106e8882611015565b97506110798361102c565b92505060018101905061105a565b5085935050505092915050565b5f6020820190508181035f8301526110ac8184611038565b905092915050565b5f82825260208201905092915050565b7f536f6c6f20656c2070726f706965746172696f20707565646520656a656375745f8201527f617220657374612066756e63696f6e0000000000000000000000000000000000602082015250565b5f61111e602f836110b4565b9150611129826110c4565b604082019050919050565b5f6020820190508181035f83015261114b81611112565b9050919050565b7f4e487b71000000000000000000000000000000000000000000000000000000005f52601160045260245ffd5b5f61118982610e10565b915061119483610e10565b92508282019050808211156111ac576111ab611152565b5b92915050565b7f4c612073756261737461206e6f206573746120616374697661000000000000005f82015250565b5f6111e66019836110b4565b91506111f1826111b2565b602082019050919050565b5f6020820190508181035f830152611213816111da565b9050919050565b7f4c61206f6665727461206465626520736572206d61796f722061206365726f005f82015250565b5f61124e601f836110b4565b91506112598261121a565b602082019050919050565b5f6020820190508181035f83015261127b81611242565b9050919050565b5f61128c82610e10565b915061129783610e10565b92508282026112a581610e10565b915082820484148315176112bc576112bb611152565b5b5092915050565b7f4e487b71000000000000000000000000000000000000000000000000000000005f52601260045260245ffd5b5f6112fa82610e10565b915061130583610e10565b925082611315576113146112c3565b5b828204905092915050565b7f4c61206f666572746120646562652073657220616c206d656e6f7320756e20355f8201527f25206d61796f722061206c612061637475616c00000000000000000000000000602082015250565b5f61137a6033836110b4565b915061138582611320565b604082019050919050565b5f6020820190508181035f8301526113a78161136e565b9050919050565b5f6113b882610e10565b91507fffffffffffffffffffffffffffffffffffffffffffffffffffffffffffffffff82036113ea576113e9611152565b5b600182019050919050565b7f4c6120737562617374612061756e206573746120656e20637572736f000000005f82015250565b5f611429601c836110b4565b9150611434826113f5565b602082019050919050565b5f6020820190508181035f8301526114568161141d565b9050919050565b7f456c2067616e61646f72206e6f207075656465207265746972617220656c20645f8201527f65706f7369746f00000000000000000000000000000000000000000000000000602082015250565b5f6114b76027836110b4565b91506114c28261145d565b604082019050919050565b5f6020820190508181035f8301526114e4816114ab565b9050919050565b7f4e6f207469656e657320666f6e646f73207061726120726574697261720000005f82015250565b5f61151f601d836110b4565b915061152a826114eb565b602082019050919050565b5f6020820190508181035f83015261154c81611513565b9050919050565b7f4e6f207469656e65732065786365736f206465206f66657274610000000000005f82015250565b5f611587601a836110b4565b915061159282611553565b602082019050919050565b5f6020820190508181035f8301526115b48161157b565b9050919050565b5f6115c582610e10565b91506115d083610e10565b92508282039050818111156115e8576115e7611152565b5b92915050565b7f4e487b71000000000000000000000000000000000000000000000000000000005f52604160045260245ffd5b7f4e487b71000000000000000000000000000000000000000000000000000000005f52603260045260245ffdfea2646970667358221220507a5a5d0480377abb34f6450f2c168d95bd86ddfef151105b9b24ec5ed3a30764736f6c634300081a0033",
					"opcodes": "PUSH1 0x80 PUSH1 0x40 MSTORE CALLVALUE DUP1 ISZERO PUSH2 0xF JUMPI PUSH0 DUP1 REVERT JUMPDEST POP PUSH1 0x40 MLOAD PUSH2 0x1792 CODESIZE SUB DUP1 PUSH2 0x1792 DUP4 CODECOPY DUP2 DUP2 ADD PUSH1 0x40 MSTORE DUP2 ADD SWAP1 PUSH2 0x31 SWAP2 SWAP1 PUSH2 0xDC JUMP JUMPDEST CALLER PUSH0 DUP1 PUSH2 0x100 EXP DUP2 SLOAD DUP2 PUSH20 0xFFFFFFFFFFFFFFFFFFFFFFFFFFFFFFFFFFFFFFFF MUL NOT AND SWAP1 DUP4 PUSH20 0xFFFFFFFFFFFFFFFFFFFFFFFFFFFFFFFFFFFFFFFF AND MUL OR SWAP1 SSTORE POP TIMESTAMP PUSH1 0x1 DUP2 SWAP1 SSTORE POP DUP1 PUSH1 0x2 DUP2 SWAP1 SSTORE POP PUSH0 PUSH1 0x4 DUP2 SWAP1 SSTORE POP PUSH1 0x1 PUSH1 0x5 PUSH0 PUSH2 0x100 EXP DUP2 SLOAD DUP2 PUSH1 0xFF MUL NOT AND SWAP1 DUP4 ISZERO ISZERO MUL OR SWAP1 SSTORE POP POP PUSH2 0x107 JUMP JUMPDEST PUSH0 DUP1 REVERT JUMPDEST PUSH0 DUP2 SWAP1 POP SWAP2 SWAP1 POP JUMP JUMPDEST PUSH2 0xBB DUP2 PUSH2 0xA9 JUMP JUMPDEST DUP2 EQ PUSH2 0xC5 JUMPI PUSH0 DUP1 REVERT JUMPDEST POP JUMP JUMPDEST PUSH0 DUP2 MLOAD SWAP1 POP PUSH2 0xD6 DUP2 PUSH2 0xB2 JUMP JUMPDEST SWAP3 SWAP2 POP POP JUMP JUMPDEST PUSH0 PUSH1 0x20 DUP3 DUP5 SUB SLT ISZERO PUSH2 0xF1 JUMPI PUSH2 0xF0 PUSH2 0xA5 JUMP JUMPDEST JUMPDEST PUSH0 PUSH2 0xFE DUP5 DUP3 DUP6 ADD PUSH2 0xC8 JUMP JUMPDEST SWAP2 POP POP SWAP3 SWAP2 POP POP JUMP JUMPDEST PUSH2 0x167E DUP1 PUSH2 0x114 PUSH0 CODECOPY PUSH0 RETURN INVALID PUSH1 0x80 PUSH1 0x40 MSTORE PUSH1 0x4 CALLDATASIZE LT PUSH2 0xE7 JUMPI PUSH0 CALLDATALOAD PUSH1 0xE0 SHR DUP1 PUSH4 0x8DA5CB5B GT PUSH2 0x89 JUMPI DUP1 PUSH4 0xA791E09B GT PUSH2 0x58 JUMPI DUP1 PUSH4 0xA791E09B EQ PUSH2 0x297 JUMPI DUP1 PUSH4 0xC1902319 EQ PUSH2 0x2C1 JUMPI DUP1 PUSH4 0xC442A99F EQ PUSH2 0x2D7 JUMPI DUP1 PUSH4 0xD1D7E96C EQ PUSH2 0x301 JUMPI PUSH2 0xE7 JUMP JUMPDEST DUP1 PUSH4 0x8DA5CB5B EQ PUSH2 0x203 JUMPI DUP1 PUSH4 0x9114BDE8 EQ PUSH2 0x22D JUMPI DUP1 PUSH4 0x963CB24A EQ PUSH2 0x257 JUMPI DUP1 PUSH4 0xA05D3DDC EQ PUSH2 0x281 JUMPI PUSH2 0xE7 JUMP JUMPDEST DUP1 PUSH4 0x56AFFF7C GT PUSH2 0xC5 JUMPI DUP1 PUSH4 0x56AFFF7C EQ PUSH2 0x135 JUMPI DUP1 PUSH4 0x5DFE78F7 EQ PUSH2 0x172 JUMPI DUP1 PUSH4 0x664E62B9 EQ PUSH2 0x19C JUMPI DUP1 PUSH4 0x753DCAEB EQ PUSH2 0x1D8 JUMPI PUSH2 0xE7 JUMP JUMPDEST DUP1 PUSH4 0x851EAC2 EQ PUSH2 0xEB JUMPI DUP1 PUSH4 0x13A83EAF EQ PUSH2 0x101 JUMPI DUP1 PUSH4 0x3EC059D7 EQ PUSH2 0x12B JUMPI JUMPDEST PUSH0 DUP1 REVERT JUMPDEST CALLVALUE DUP1 ISZERO PUSH2 0xF6 JUMPI PUSH0 DUP1 REVERT JUMPDEST POP PUSH2 0xFF PUSH2 0x32B JUMP JUMPDEST STOP JUMPDEST CALLVALUE DUP1 ISZERO PUSH2 0x10C JUMPI PUSH0 DUP1 REVERT JUMPDEST POP PUSH2 0x115 PUSH2 0x498 JUMP JUMPDEST PUSH1 0x40 MLOAD PUSH2 0x122 SWAP2 SWAP1 PUSH2 0xE28 JUMP JUMPDEST PUSH1 0x40 MLOAD DUP1 SWAP2 SUB SWAP1 RETURN JUMPDEST PUSH2 0x133 PUSH2 0x49E JUMP JUMPDEST STOP JUMPDEST CALLVALUE DUP1 ISZERO PUSH2 0x140 JUMPI PUSH0 DUP1 REVERT JUMPDEST POP PUSH2 0x15B PUSH1 0x4 DUP1 CALLDATASIZE SUB DUP2 ADD SWAP1 PUSH2 0x156 SWAP2 SWAP1 PUSH2 0xE6F JUMP JUMPDEST PUSH2 0x7EC JUMP JUMPDEST PUSH1 0x40 MLOAD PUSH2 0x169 SWAP3 SWAP2 SWAP1 PUSH2 0xED9 JUMP JUMPDEST PUSH1 0x40 MLOAD DUP1 SWAP2 SUB SWAP1 RETURN JUMPDEST CALLVALUE DUP1 ISZERO PUSH2 0x17D JUMPI PUSH0 DUP1 REVERT JUMPDEST POP PUSH2 0x186 PUSH2 0x82B JUMP JUMPDEST PUSH1 0x40 MLOAD PUSH2 0x193 SWAP2 SWAP1 PUSH2 0xF1A JUMP JUMPDEST PUSH1 0x40 MLOAD DUP1 SWAP2 SUB SWAP1 RETURN JUMPDEST CALLVALUE DUP1 ISZERO PUSH2 0x1A7 JUMPI PUSH0 DUP1 REVERT JUMPDEST POP PUSH2 0x1C2 PUSH1 0x4 DUP1 CALLDATASIZE SUB DUP2 ADD SWAP1 PUSH2 0x1BD SWAP2 SWAP1 PUSH2 0xF5D JUMP JUMPDEST PUSH2 0x83D JUMP JUMPDEST PUSH1 0x40 MLOAD PUSH2 0x1CF SWAP2 SWAP1 PUSH2 0xE28 JUMP JUMPDEST PUSH1 0x40 MLOAD DUP1 SWAP2 SUB SWAP1 RETURN JUMPDEST CALLVALUE DUP1 ISZERO PUSH2 0x1E3 JUMPI PUSH0 DUP1 REVERT JUMPDEST POP PUSH2 0x1EC PUSH2 0x852 JUMP JUMPDEST PUSH1 0x40 MLOAD PUSH2 0x1FA SWAP3 SWAP2 SWAP1 PUSH2 0xED9 JUMP JUMPDEST PUSH1 0x40 MLOAD DUP1 SWAP2 SUB SWAP1 RETURN JUMPDEST CALLVALUE DUP1 ISZERO PUSH2 0x20E JUMPI PUSH0 DUP1 REVERT JUMPDEST POP PUSH2 0x217 PUSH2 0x881 JUMP JUMPDEST PUSH1 0x40 MLOAD PUSH2 0x224 SWAP2 SWAP1 PUSH2 0xF88 JUMP JUMPDEST PUSH1 0x40 MLOAD DUP1 SWAP2 SUB SWAP1 RETURN JUMPDEST CALLVALUE DUP1 ISZERO PUSH2 0x238 JUMPI PUSH0 DUP1 REVERT JUMPDEST POP PUSH2 0x241 PUSH2 0x8A4 JUMP JUMPDEST PUSH1 0x40 MLOAD PUSH2 0x24E SWAP2 SWAP1 PUSH2 0xF88 JUMP JUMPDEST PUSH1 0x40 MLOAD DUP1 SWAP2 SUB SWAP1 RETURN JUMPDEST CALLVALUE DUP1 ISZERO PUSH2 0x262 JUMPI PUSH0 DUP1 REVERT JUMPDEST POP PUSH2 0x26B PUSH2 0x8C9 JUMP JUMPDEST PUSH1 0x40 MLOAD PUSH2 0x278 SWAP2 SWAP1 PUSH2 0xE28 JUMP JUMPDEST PUSH1 0x40 MLOAD DUP1 SWAP2 SUB SWAP1 RETURN JUMPDEST CALLVALUE DUP1 ISZERO PUSH2 0x28C JUMPI PUSH0 DUP1 REVERT JUMPDEST POP PUSH2 0x295 PUSH2 0x8CF JUMP JUMPDEST STOP JUMPDEST CALLVALUE DUP1 ISZERO PUSH2 0x2A2 JUMPI PUSH0 DUP1 REVERT JUMPDEST POP PUSH2 0x2AB PUSH2 0xAF0 JUMP JUMPDEST PUSH1 0x40 MLOAD PUSH2 0x2B8 SWAP2 SWAP1 PUSH2 0xE28 JUMP JUMPDEST PUSH1 0x40 MLOAD DUP1 SWAP2 SUB SWAP1 RETURN JUMPDEST CALLVALUE DUP1 ISZERO PUSH2 0x2CC JUMPI PUSH0 DUP1 REVERT JUMPDEST POP PUSH2 0x2D5 PUSH2 0xAF6 JUMP JUMPDEST STOP JUMPDEST CALLVALUE DUP1 ISZERO PUSH2 0x2E2 JUMPI PUSH0 DUP1 REVERT JUMPDEST POP PUSH2 0x2EB PUSH2 0xCC8 JUMP JUMPDEST PUSH1 0x40 MLOAD PUSH2 0x2F8 SWAP2 SWAP1 PUSH2 0x1094 JUMP JUMPDEST PUSH1 0x40 MLOAD DUP1 SWAP2 SUB SWAP1 RETURN JUMPDEST CALLVALUE DUP1 ISZERO PUSH2 0x30C JUMPI PUSH0 DUP1 REVERT JUMPDEST POP PUSH2 0x315 PUSH2 0xDDC JUMP JUMPDEST PUSH1 0x40 MLOAD PUSH2 0x322 SWAP2 SWAP1 PUSH2 0xE28 JUMP JUMPDEST PUSH1 0x40 MLOAD DUP1 SWAP2 SUB SWAP1 RETURN JUMPDEST PUSH0 DUP1 SLOAD SWAP1 PUSH2 0x100 EXP SWAP1 DIV PUSH20 0xFFFFFFFFFFFFFFFFFFFFFFFFFFFFFFFFFFFFFFFF AND PUSH20 0xFFFFFFFFFFFFFFFFFFFFFFFFFFFFFFFFFFFFFFFF AND CALLER PUSH20 0xFFFFFFFFFFFFFFFFFFFFFFFFFFFFFFFFFFFFFFFF AND EQ PUSH2 0x3B8 JUMPI PUSH1 0x40 MLOAD PUSH32 0x8C379A000000000000000000000000000000000000000000000000000000000 DUP2 MSTORE PUSH1 0x4 ADD PUSH2 0x3AF SWAP1 PUSH2 0x1134 JUMP JUMPDEST PUSH1 0x40 MLOAD DUP1 SWAP2 SUB SWAP1 REVERT JUMPDEST PUSH1 0x5 PUSH0 SWAP1 SLOAD SWAP1 PUSH2 0x100 EXP SWAP1 DIV PUSH1 0xFF AND DUP1 ISZERO PUSH2 0x3E2 JUMPI POP PUSH1 0x2 SLOAD PUSH1 0x1 SLOAD PUSH2 0x3DE SWAP2 SWAP1 PUSH2 0x117F JUMP JUMPDEST TIMESTAMP GT ISZERO JUMPDEST PUSH2 0x421 JUMPI PUSH1 0x40 MLOAD PUSH32 0x8C379A000000000000000000000000000000000000000000000000000000000 DUP2 MSTORE PUSH1 0x4 ADD PUSH2 0x418 SWAP1 PUSH2 0x11FC JUMP JUMPDEST PUSH1 0x40 MLOAD DUP1 SWAP2 SUB SWAP1 REVERT JUMPDEST PUSH0 PUSH1 0x5 PUSH0 PUSH2 0x100 EXP DUP2 SLOAD DUP2 PUSH1 0xFF MUL NOT AND SWAP1 DUP4 ISZERO ISZERO MUL OR SWAP1 SSTORE POP PUSH32 0xF9FA653ADCB5409D472232519052C01C420A4986A12812758DEDF7B097C4709E PUSH1 0x3 PUSH0 SWAP1 SLOAD SWAP1 PUSH2 0x100 EXP SWAP1 DIV PUSH20 0xFFFFFFFFFFFFFFFFFFFFFFFFFFFFFFFFFFFFFFFF AND PUSH1 0x4 SLOAD PUSH1 0x40 MLOAD PUSH2 0x48E SWAP3 SWAP2 SWAP1 PUSH2 0xED9 JUMP JUMPDEST PUSH1 0x40 MLOAD DUP1 SWAP2 SUB SWAP1 LOG1 JUMP JUMPDEST PUSH1 0x4 SLOAD DUP2 JUMP JUMPDEST PUSH1 0x5 PUSH0 SWAP1 SLOAD SWAP1 PUSH2 0x100 EXP SWAP1 DIV PUSH1 0xFF AND DUP1 ISZERO PUSH2 0x4C8 JUMPI POP PUSH1 0x2 SLOAD PUSH1 0x1 SLOAD PUSH2 0x4C4 SWAP2 SWAP1 PUSH2 0x117F JUMP JUMPDEST TIMESTAMP GT ISZERO JUMPDEST PUSH2 0x507 JUMPI PUSH1 0x40 MLOAD PUSH32 0x8C379A000000000000000000000000000000000000000000000000000000000 DUP2 MSTORE PUSH1 0x4 ADD PUSH2 0x4FE SWAP1 PUSH2 0x11FC JUMP JUMPDEST PUSH1 0x40 MLOAD DUP1 SWAP2 SUB SWAP1 REVERT JUMPDEST PUSH0 CALLVALUE GT PUSH2 0x549 JUMPI PUSH1 0x40 MLOAD PUSH32 0x8C379A000000000000000000000000000000000000000000000000000000000 DUP2 MSTORE PUSH1 0x4 ADD PUSH2 0x540 SWAP1 PUSH2 0x1264 JUMP JUMPDEST PUSH1 0x40 MLOAD DUP1 SWAP2 SUB SWAP1 REVERT JUMPDEST PUSH0 CALLVALUE PUSH1 0x6 PUSH0 CALLER PUSH20 0xFFFFFFFFFFFFFFFFFFFFFFFFFFFFFFFFFFFFFFFF AND PUSH20 0xFFFFFFFFFFFFFFFFFFFFFFFFFFFFFFFFFFFFFFFF AND DUP2 MSTORE PUSH1 0x20 ADD SWAP1 DUP2 MSTORE PUSH1 0x20 ADD PUSH0 KECCAK256 SLOAD PUSH2 0x593 SWAP2 SWAP1 PUSH2 0x117F JUMP JUMPDEST SWAP1 POP PUSH1 0x64 PUSH1 0x69 PUSH1 0x4 SLOAD PUSH2 0x5A6 SWAP2 SWAP1 PUSH2 0x1282 JUMP JUMPDEST PUSH2 0x5B0 SWAP2 SWAP1 PUSH2 0x12F0 JUMP JUMPDEST DUP2 LT ISZERO PUSH2 0x5F2 JUMPI PUSH1 0x40 MLOAD PUSH32 0x8C379A000000000000000000000000000000000000000000000000000000000 DUP2 MSTORE PUSH1 0x4 ADD PUSH2 0x5E9 SWAP1 PUSH2 0x1390 JUMP JUMPDEST PUSH1 0x40 MLOAD DUP1 SWAP2 SUB SWAP1 REVERT JUMPDEST DUP1 PUSH1 0x6 PUSH0 CALLER PUSH20 0xFFFFFFFFFFFFFFFFFFFFFFFFFFFFFFFFFFFFFFFF AND PUSH20 0xFFFFFFFFFFFFFFFFFFFFFFFFFFFFFFFFFFFFFFFF AND DUP2 MSTORE PUSH1 0x20 ADD SWAP1 DUP2 MSTORE PUSH1 0x20 ADD PUSH0 KECCAK256 DUP2 SWAP1 SSTORE POP PUSH1 0x40 MLOAD DUP1 PUSH1 0x40 ADD PUSH1 0x40 MSTORE DUP1 CALLER PUSH20 0xFFFFFFFFFFFFFFFFFFFFFFFFFFFFFFFFFFFFFFFF AND DUP2 MSTORE PUSH1 0x20 ADD DUP3 DUP2 MSTORE POP PUSH1 0x7 PUSH0 PUSH1 0x8 SLOAD DUP2 MSTORE PUSH1 0x20 ADD SWAP1 DUP2 MSTORE PUSH1 0x20 ADD PUSH0 KECCAK256 PUSH0 DUP3 ADD MLOAD DUP2 PUSH0 ADD PUSH0 PUSH2 0x100 EXP DUP2 SLOAD DUP2 PUSH20 0xFFFFFFFFFFFFFFFFFFFFFFFFFFFFFFFFFFFFFFFF MUL NOT AND SWAP1 DUP4 PUSH20 0xFFFFFFFFFFFFFFFFFFFFFFFFFFFFFFFFFFFFFFFF AND MUL OR SWAP1 SSTORE POP PUSH1 0x20 DUP3 ADD MLOAD DUP2 PUSH1 0x1 ADD SSTORE SWAP1 POP POP PUSH1 0x8 PUSH0 DUP2 SLOAD DUP1 SWAP3 SWAP2 SWAP1 PUSH2 0x6D5 SWAP1 PUSH2 0x13AE JUMP JUMPDEST SWAP2 SWAP1 POP SSTORE POP PUSH1 0x4 SLOAD DUP2 GT ISZERO PUSH2 0x765 JUMPI DUP1 PUSH1 0x4 DUP2 SWAP1 SSTORE POP CALLER PUSH1 0x3 PUSH0 PUSH2 0x100 EXP DUP2 SLOAD DUP2 PUSH20 0xFFFFFFFFFFFFFFFFFFFFFFFFFFFFFFFFFFFFFFFF MUL NOT AND SWAP1 DUP4 PUSH20 0xFFFFFFFFFFFFFFFFFFFFFFFFFFFFFFFFFFFFFFFF AND MUL OR SWAP1 SSTORE POP PUSH32 0xDE66ACCD6240FDE8499E988F5D390A2C61BC04425D3F696FF40B06C9DDF578AB CALLER DUP3 PUSH1 0x40 MLOAD PUSH2 0x75C SWAP3 SWAP2 SWAP1 PUSH2 0xED9 JUMP JUMPDEST PUSH1 0x40 MLOAD DUP1 SWAP2 SUB SWAP1 LOG1 JUMPDEST PUSH1 0x2 SLOAD PUSH1 0x1 SLOAD PUSH2 0x775 SWAP2 SWAP1 PUSH2 0x117F JUMP JUMPDEST PUSH2 0x258 TIMESTAMP PUSH2 0x783 SWAP2 SWAP1 PUSH2 0x117F JUMP JUMPDEST LT PUSH2 0x7E9 JUMPI PUSH2 0x258 PUSH1 0x2 PUSH0 DUP3 DUP3 SLOAD PUSH2 0x79B SWAP2 SWAP1 PUSH2 0x117F JUMP JUMPDEST SWAP3 POP POP DUP2 SWAP1 SSTORE POP PUSH32 0x4A6CB7F31583C4D0EEE65821C3CCB94B57BB97EB618DB947F9915D194FE8ABC2 PUSH1 0x2 SLOAD PUSH1 0x1 SLOAD PUSH2 0x7D3 SWAP2 SWAP1 PUSH2 0x117F JUMP JUMPDEST PUSH1 0x40 MLOAD PUSH2 0x7E0 SWAP2 SWAP1 PUSH2 0xE28 JUMP JUMPDEST PUSH1 0x40 MLOAD DUP1 SWAP2 SUB SWAP1 LOG1 JUMPDEST POP JUMP JUMPDEST PUSH1 0x7 PUSH1 0x20 MSTORE DUP1 PUSH0 MSTORE PUSH1 0x40 PUSH0 KECCAK256 PUSH0 SWAP2 POP SWAP1 POP DUP1 PUSH0 ADD PUSH0 SWAP1 SLOAD SWAP1 PUSH2 0x100 EXP SWAP1 DIV PUSH20 0xFFFFFFFFFFFFFFFFFFFFFFFFFFFFFFFFFFFFFFFF AND SWAP1 DUP1 PUSH1 0x1 ADD SLOAD SWAP1 POP DUP3 JUMP JUMPDEST PUSH1 0x5 PUSH0 SWAP1 SLOAD SWAP1 PUSH2 0x100 EXP SWAP1 DIV PUSH1 0xFF AND DUP2 JUMP JUMPDEST PUSH1 0x6 PUSH1 0x20 MSTORE DUP1 PUSH0 MSTORE PUSH1 0x40 PUSH0 KECCAK256 PUSH0 SWAP2 POP SWAP1 POP SLOAD DUP2 JUMP JUMPDEST PUSH0 DUP1 PUSH1 0x3 PUSH0 SWAP1 SLOAD SWAP1 PUSH2 0x100 EXP SWAP1 DIV PUSH20 0xFFFFFFFFFFFFFFFFFFFFFFFFFFFFFFFFFFFFFFFF AND PUSH1 0x4 SLOAD SWAP2 POP SWAP2 POP SWAP1 SWAP2 JUMP JUMPDEST PUSH0 DUP1 SLOAD SWAP1 PUSH2 0x100 EXP SWAP1 DIV PUSH20 0xFFFFFFFFFFFFFFFFFFFFFFFFFFFFFFFFFFFFFFFF AND DUP2 JUMP JUMPDEST PUSH1 0x3 PUSH0 SWAP1 SLOAD SWAP1 PUSH2 0x100 EXP SWAP1 DIV PUSH20 0xFFFFFFFFFFFFFFFFFFFFFFFFFFFFFFFFFFFFFFFF AND DUP2 JUMP JUMPDEST PUSH1 0x8 SLOAD DUP2 JUMP JUMPDEST PUSH1 0x5 PUSH0 SWAP1 SLOAD SWAP1 PUSH2 0x100 EXP SWAP1 DIV PUSH1 0xFF AND ISZERO DUP1 ISZERO PUSH2 0x8F9 JUMPI POP PUSH1 0x2 SLOAD PUSH1 0x1 SLOAD PUSH2 0x8F6 SWAP2 SWAP1 PUSH2 0x117F JUMP JUMPDEST TIMESTAMP GT JUMPDEST PUSH2 0x938 JUMPI PUSH1 0x40 MLOAD PUSH32 0x8C379A000000000000000000000000000000000000000000000000000000000 DUP2 MSTORE PUSH1 0x4 ADD PUSH2 0x92F SWAP1 PUSH2 0x143F JUMP JUMPDEST PUSH1 0x40 MLOAD DUP1 SWAP2 SUB SWAP1 REVERT JUMPDEST PUSH1 0x3 PUSH0 SWAP1 SLOAD SWAP1 PUSH2 0x100 EXP SWAP1 DIV PUSH20 0xFFFFFFFFFFFFFFFFFFFFFFFFFFFFFFFFFFFFFFFF AND PUSH20 0xFFFFFFFFFFFFFFFFFFFFFFFFFFFFFFFFFFFFFFFF AND CALLER PUSH20 0xFFFFFFFFFFFFFFFFFFFFFFFFFFFFFFFFFFFFFFFF AND SUB PUSH2 0x9C7 JUMPI PUSH1 0x40 MLOAD PUSH32 0x8C379A000000000000000000000000000000000000000000000000000000000 DUP2 MSTORE PUSH1 0x4 ADD PUSH2 0x9BE SWAP1 PUSH2 0x14CD JUMP JUMPDEST PUSH1 0x40 MLOAD DUP1 SWAP2 SUB SWAP1 REVERT JUMPDEST PUSH0 PUSH1 0x6 PUSH0 CALLER PUSH20 0xFFFFFFFFFFFFFFFFFFFFFFFFFFFFFFFFFFFFFFFF AND PUSH20 0xFFFFFFFFFFFFFFFFFFFFFFFFFFFFFFFFFFFFFFFF AND DUP2 MSTORE PUSH1 0x20 ADD SWAP1 DUP2 MSTORE PUSH1 0x20 ADD PUSH0 KECCAK256 SLOAD SWAP1 POP PUSH0 DUP2 GT PUSH2 0xA4A JUMPI PUSH1 0x40 MLOAD PUSH32 0x8C379A000000000000000000000000000000000000000000000000000000000 DUP2 MSTORE PUSH1 0x4 ADD PUSH2 0xA41 SWAP1 PUSH2 0x1535 JUMP JUMPDEST PUSH1 0x40 MLOAD DUP1 SWAP2 SUB SWAP1 REVERT JUMPDEST PUSH0 PUSH1 0x64 PUSH1 0x62 DUP4 PUSH2 0xA5A SWAP2 SWAP1 PUSH2 0x1282 JUMP JUMPDEST PUSH2 0xA64 SWAP2 SWAP1 PUSH2 0x12F0 JUMP JUMPDEST SWAP1 POP PUSH0 PUSH1 0x6 PUSH0 CALLER PUSH20 0xFFFFFFFFFFFFFFFFFFFFFFFFFFFFFFFFFFFFFFFF AND PUSH20 0xFFFFFFFFFFFFFFFFFFFFFFFFFFFFFFFFFFFFFFFF AND DUP2 MSTORE PUSH1 0x20 ADD SWAP1 DUP2 MSTORE PUSH1 0x20 ADD PUSH0 KECCAK256 DUP2 SWAP1 SSTORE POP CALLER PUSH20 0xFFFFFFFFFFFFFFFFFFFFFFFFFFFFFFFFFFFFFFFF AND PUSH2 0x8FC DUP3 SWAP1 DUP2 ISZERO MUL SWAP1 PUSH1 0x40 MLOAD PUSH0 PUSH1 0x40 MLOAD DUP1 DUP4 SUB DUP2 DUP6 DUP9 DUP9 CALL SWAP4 POP POP POP POP ISZERO DUP1 ISZERO PUSH2 0xAEB JUMPI RETURNDATASIZE PUSH0 DUP1 RETURNDATACOPY RETURNDATASIZE PUSH0 REVERT JUMPDEST POP POP POP JUMP JUMPDEST PUSH1 0x1 SLOAD DUP2 JUMP JUMPDEST PUSH1 0x5 PUSH0 SWAP1 SLOAD SWAP1 PUSH2 0x100 EXP SWAP1 DIV PUSH1 0xFF AND DUP1 ISZERO PUSH2 0xB20 JUMPI POP PUSH1 0x2 SLOAD PUSH1 0x1 SLOAD PUSH2 0xB1C SWAP2 SWAP1 PUSH2 0x117F JUMP JUMPDEST TIMESTAMP GT ISZERO JUMPDEST PUSH2 0xB5F JUMPI PUSH1 0x40 MLOAD PUSH32 0x8C379A000000000000000000000000000000000000000000000000000000000 DUP2 MSTORE PUSH1 0x4 ADD PUSH2 0xB56 SWAP1 PUSH2 0x11FC JUMP JUMPDEST PUSH1 0x40 MLOAD DUP1 SWAP2 SUB SWAP1 REVERT JUMPDEST PUSH1 0x4 SLOAD PUSH1 0x6 PUSH0 CALLER PUSH20 0xFFFFFFFFFFFFFFFFFFFFFFFFFFFFFFFFFFFFFFFF AND PUSH20 0xFFFFFFFFFFFFFFFFFFFFFFFFFFFFFFFFFFFFFFFF AND DUP2 MSTORE PUSH1 0x20 ADD SWAP1 DUP2 MSTORE PUSH1 0x20 ADD PUSH0 KECCAK256 SLOAD GT PUSH2 0xBE0 JUMPI PUSH1 0x40 MLOAD PUSH32 0x8C379A000000000000000000000000000000000000000000000000000000000 DUP2 MSTORE PUSH1 0x4 ADD PUSH2 0xBD7 SWAP1 PUSH2 0x159D JUMP JUMPDEST PUSH1 0x40 MLOAD DUP1 SWAP2 SUB SWAP1 REVERT JUMPDEST PUSH0 PUSH1 0x4 SLOAD PUSH1 0x6 PUSH0 CALLER PUSH20 0xFFFFFFFFFFFFFFFFFFFFFFFFFFFFFFFFFFFFFFFF AND PUSH20 0xFFFFFFFFFFFFFFFFFFFFFFFFFFFFFFFFFFFFFFFF AND DUP2 MSTORE PUSH1 0x20 ADD SWAP1 DUP2 MSTORE PUSH1 0x20 ADD PUSH0 KECCAK256 SLOAD PUSH2 0xC2C SWAP2 SWAP1 PUSH2 0x15BB JUMP JUMPDEST SWAP1 POP DUP1 PUSH1 0x6 PUSH0 CALLER PUSH20 0xFFFFFFFFFFFFFFFFFFFFFFFFFFFFFFFFFFFFFFFF AND PUSH20 0xFFFFFFFFFFFFFFFFFFFFFFFFFFFFFFFFFFFFFFFF AND DUP2 MSTORE PUSH1 0x20 ADD SWAP1 DUP2 MSTORE PUSH1 0x20 ADD PUSH0 KECCAK256 PUSH0 DUP3 DUP3 SLOAD PUSH2 0xC7A SWAP2 SWAP1 PUSH2 0x15BB JUMP JUMPDEST SWAP3 POP POP DUP2 SWAP1 SSTORE POP CALLER PUSH20 0xFFFFFFFFFFFFFFFFFFFFFFFFFFFFFFFFFFFFFFFF AND PUSH2 0x8FC DUP3 SWAP1 DUP2 ISZERO MUL SWAP1 PUSH1 0x40 MLOAD PUSH0 PUSH1 0x40 MLOAD DUP1 DUP4 SUB DUP2 DUP6 DUP9 DUP9 CALL SWAP4 POP POP POP POP ISZERO DUP1 ISZERO PUSH2 0xCC4 JUMPI RETURNDATASIZE PUSH0 DUP1 RETURNDATACOPY RETURNDATASIZE PUSH0 REVERT JUMPDEST POP POP JUMP JUMPDEST PUSH1 0x60 PUSH0 PUSH1 0x8 SLOAD PUSH8 0xFFFFFFFFFFFFFFFF DUP2 GT ISZERO PUSH2 0xCE7 JUMPI PUSH2 0xCE6 PUSH2 0x15EE JUMP JUMPDEST JUMPDEST PUSH1 0x40 MLOAD SWAP1 DUP1 DUP3 MSTORE DUP1 PUSH1 0x20 MUL PUSH1 0x20 ADD DUP3 ADD PUSH1 0x40 MSTORE DUP1 ISZERO PUSH2 0xD20 JUMPI DUP2 PUSH1 0x20 ADD JUMPDEST PUSH2 0xD0D PUSH2 0xDE2 JUMP JUMPDEST DUP2 MSTORE PUSH1 0x20 ADD SWAP1 PUSH1 0x1 SWAP1 SUB SWAP1 DUP2 PUSH2 0xD05 JUMPI SWAP1 POP JUMPDEST POP SWAP1 POP PUSH0 JUMPDEST PUSH1 0x8 SLOAD DUP2 LT ISZERO PUSH2 0xDD4 JUMPI PUSH1 0x7 PUSH0 DUP3 DUP2 MSTORE PUSH1 0x20 ADD SWAP1 DUP2 MSTORE PUSH1 0x20 ADD PUSH0 KECCAK256 PUSH1 0x40 MLOAD DUP1 PUSH1 0x40 ADD PUSH1 0x40 MSTORE SWAP1 DUP2 PUSH0 DUP3 ADD PUSH0 SWAP1 SLOAD SWAP1 PUSH2 0x100 EXP SWAP1 DIV PUSH20 0xFFFFFFFFFFFFFFFFFFFFFFFFFFFFFFFFFFFFFFFF AND PUSH20 0xFFFFFFFFFFFFFFFFFFFFFFFFFFFFFFFFFFFFFFFF AND PUSH20 0xFFFFFFFFFFFFFFFFFFFFFFFFFFFFFFFFFFFFFFFF AND DUP2 MSTORE PUSH1 0x20 ADD PUSH1 0x1 DUP3 ADD SLOAD DUP2 MSTORE POP POP DUP3 DUP3 DUP2 MLOAD DUP2 LT PUSH2 0xDBC JUMPI PUSH2 0xDBB PUSH2 0x161B JUMP JUMPDEST JUMPDEST PUSH1 0x20 MUL PUSH1 0x20 ADD ADD DUP2 SWAP1 MSTORE POP DUP1 DUP1 PUSH1 0x1 ADD SWAP2 POP POP PUSH2 0xD25 JUMP JUMPDEST POP DUP1 SWAP2 POP POP SWAP1 JUMP JUMPDEST PUSH1 0x2 SLOAD DUP2 JUMP JUMPDEST PUSH1 0x40 MLOAD DUP1 PUSH1 0x40 ADD PUSH1 0x40 MSTORE DUP1 PUSH0 PUSH20 0xFFFFFFFFFFFFFFFFFFFFFFFFFFFFFFFFFFFFFFFF AND DUP2 MSTORE PUSH1 0x20 ADD PUSH0 DUP2 MSTORE POP SWAP1 JUMP JUMPDEST PUSH0 DUP2 SWAP1 POP SWAP2 SWAP1 POP JUMP JUMPDEST PUSH2 0xE22 DUP2 PUSH2 0xE10 JUMP JUMPDEST DUP3 MSTORE POP POP JUMP JUMPDEST PUSH0 PUSH1 0x20 DUP3 ADD SWAP1 POP PUSH2 0xE3B PUSH0 DUP4 ADD DUP5 PUSH2 0xE19 JUMP JUMPDEST SWAP3 SWAP2 POP POP JUMP JUMPDEST PUSH0 DUP1 REVERT JUMPDEST PUSH2 0xE4E DUP2 PUSH2 0xE10 JUMP JUMPDEST DUP2 EQ PUSH2 0xE58 JUMPI PUSH0 DUP1 REVERT JUMPDEST POP JUMP JUMPDEST PUSH0 DUP2 CALLDATALOAD SWAP1 POP PUSH2 0xE69 DUP2 PUSH2 0xE45 JUMP JUMPDEST SWAP3 SWAP2 POP POP JUMP JUMPDEST PUSH0 PUSH1 0x20 DUP3 DUP5 SUB SLT ISZERO PUSH2 0xE84 JUMPI PUSH2 0xE83 PUSH2 0xE41 JUMP JUMPDEST JUMPDEST PUSH0 PUSH2 0xE91 DUP5 DUP3 DUP6 ADD PUSH2 0xE5B JUMP JUMPDEST SWAP2 POP POP SWAP3 SWAP2 POP POP JUMP JUMPDEST PUSH0 PUSH20 0xFFFFFFFFFFFFFFFFFFFFFFFFFFFFFFFFFFFFFFFF DUP3 AND SWAP1 POP SWAP2 SWAP1 POP JUMP JUMPDEST PUSH0 PUSH2 0xEC3 DUP3 PUSH2 0xE9A JUMP JUMPDEST SWAP1 POP SWAP2 SWAP1 POP JUMP JUMPDEST PUSH2 0xED3 DUP2 PUSH2 0xEB9 JUMP JUMPDEST DUP3 MSTORE POP POP JUMP JUMPDEST PUSH0 PUSH1 0x40 DUP3 ADD SWAP1 POP PUSH2 0xEEC PUSH0 DUP4 ADD DUP6 PUSH2 0xECA JUMP JUMPDEST PUSH2 0xEF9 PUSH1 0x20 DUP4 ADD DUP5 PUSH2 0xE19 JUMP JUMPDEST SWAP4 SWAP3 POP POP POP JUMP JUMPDEST PUSH0 DUP2 ISZERO ISZERO SWAP1 POP SWAP2 SWAP1 POP JUMP JUMPDEST PUSH2 0xF14 DUP2 PUSH2 0xF00 JUMP JUMPDEST DUP3 MSTORE POP POP JUMP JUMPDEST PUSH0 PUSH1 0x20 DUP3 ADD SWAP1 POP PUSH2 0xF2D PUSH0 DUP4 ADD DUP5 PUSH2 0xF0B JUMP JUMPDEST SWAP3 SWAP2 POP POP JUMP JUMPDEST PUSH2 0xF3C DUP2 PUSH2 0xEB9 JUMP JUMPDEST DUP2 EQ PUSH2 0xF46 JUMPI PUSH0 DUP1 REVERT JUMPDEST POP JUMP JUMPDEST PUSH0 DUP2 CALLDATALOAD SWAP1 POP PUSH2 0xF57 DUP2 PUSH2 0xF33 JUMP JUMPDEST SWAP3 SWAP2 POP POP JUMP JUMPDEST PUSH0 PUSH1 0x20 DUP3 DUP5 SUB SLT ISZERO PUSH2 0xF72 JUMPI PUSH2 0xF71 PUSH2 0xE41 JUMP JUMPDEST JUMPDEST PUSH0 PUSH2 0xF7F DUP5 DUP3 DUP6 ADD PUSH2 0xF49 JUMP JUMPDEST SWAP2 POP POP SWAP3 SWAP2 POP POP JUMP JUMPDEST PUSH0 PUSH1 0x20 DUP3 ADD SWAP1 POP PUSH2 0xF9B PUSH0 DUP4 ADD DUP5 PUSH2 0xECA JUMP JUMPDEST SWAP3 SWAP2 POP POP JUMP JUMPDEST PUSH0 DUP2 MLOAD SWAP1 POP SWAP2 SWAP1 POP JUMP JUMPDEST PUSH0 DUP3 DUP3 MSTORE PUSH1 0x20 DUP3 ADD SWAP1 POP SWAP3 SWAP2 POP POP JUMP JUMPDEST PUSH0 DUP2 SWAP1 POP PUSH1 0x20 DUP3 ADD SWAP1 POP SWAP2 SWAP1 POP JUMP JUMPDEST PUSH2 0xFD3 DUP2 PUSH2 0xEB9 JUMP JUMPDEST DUP3 MSTORE POP POP JUMP JUMPDEST PUSH2 0xFE2 DUP2 PUSH2 0xE10 JUMP JUMPDEST DUP3 MSTORE POP POP JUMP JUMPDEST PUSH1 0x40 DUP3 ADD PUSH0 DUP3 ADD MLOAD PUSH2 0xFFC PUSH0 DUP6 ADD DUP3 PUSH2 0xFCA JUMP JUMPDEST POP PUSH1 0x20 DUP3 ADD MLOAD PUSH2 0x100F PUSH1 0x20 DUP6 ADD DUP3 PUSH2 0xFD9 JUMP JUMPDEST POP POP POP POP JUMP JUMPDEST PUSH0 PUSH2 0x1020 DUP4 DUP4 PUSH2 0xFE8 JUMP JUMPDEST PUSH1 0x40 DUP4 ADD SWAP1 POP SWAP3 SWAP2 POP POP JUMP JUMPDEST PUSH0 PUSH1 0x20 DUP3 ADD SWAP1 POP SWAP2 SWAP1 POP JUMP JUMPDEST PUSH0 PUSH2 0x1042 DUP3 PUSH2 0xFA1 JUMP JUMPDEST PUSH2 0x104C DUP2 DUP6 PUSH2 0xFAB JUMP JUMPDEST SWAP4 POP PUSH2 0x1057 DUP4 PUSH2 0xFBB JUMP JUMPDEST DUP1 PUSH0 JUMPDEST DUP4 DUP2 LT ISZERO PUSH2 0x1087 JUMPI DUP2 MLOAD PUSH2 0x106E DUP9 DUP3 PUSH2 0x1015 JUMP JUMPDEST SWAP8 POP PUSH2 0x1079 DUP4 PUSH2 0x102C JUMP JUMPDEST SWAP3 POP POP PUSH1 0x1 DUP2 ADD SWAP1 POP PUSH2 0x105A JUMP JUMPDEST POP DUP6 SWAP4 POP POP POP POP SWAP3 SWAP2 POP POP JUMP JUMPDEST PUSH0 PUSH1 0x20 DUP3 ADD SWAP1 POP DUP2 DUP2 SUB PUSH0 DUP4 ADD MSTORE PUSH2 0x10AC DUP2 DUP5 PUSH2 0x1038 JUMP JUMPDEST SWAP1 POP SWAP3 SWAP2 POP POP JUMP JUMPDEST PUSH0 DUP3 DUP3 MSTORE PUSH1 0x20 DUP3 ADD SWAP1 POP SWAP3 SWAP2 POP POP JUMP JUMPDEST PUSH32 0x536F6C6F20656C2070726F706965746172696F20707565646520656A65637574 PUSH0 DUP3 ADD MSTORE PUSH32 0x617220657374612066756E63696F6E0000000000000000000000000000000000 PUSH1 0x20 DUP3 ADD MSTORE POP JUMP JUMPDEST PUSH0 PUSH2 0x111E PUSH1 0x2F DUP4 PUSH2 0x10B4 JUMP JUMPDEST SWAP2 POP PUSH2 0x1129 DUP3 PUSH2 0x10C4 JUMP JUMPDEST PUSH1 0x40 DUP3 ADD SWAP1 POP SWAP2 SWAP1 POP JUMP JUMPDEST PUSH0 PUSH1 0x20 DUP3 ADD SWAP1 POP DUP2 DUP2 SUB PUSH0 DUP4 ADD MSTORE PUSH2 0x114B DUP2 PUSH2 0x1112 JUMP JUMPDEST SWAP1 POP SWAP2 SWAP1 POP JUMP JUMPDEST PUSH32 0x4E487B7100000000000000000000000000000000000000000000000000000000 PUSH0 MSTORE PUSH1 0x11 PUSH1 0x4 MSTORE PUSH1 0x24 PUSH0 REVERT JUMPDEST PUSH0 PUSH2 0x1189 DUP3 PUSH2 0xE10 JUMP JUMPDEST SWAP2 POP PUSH2 0x1194 DUP4 PUSH2 0xE10 JUMP JUMPDEST SWAP3 POP DUP3 DUP3 ADD SWAP1 POP DUP1 DUP3 GT ISZERO PUSH2 0x11AC JUMPI PUSH2 0x11AB PUSH2 0x1152 JUMP JUMPDEST JUMPDEST SWAP3 SWAP2 POP POP JUMP JUMPDEST PUSH32 0x4C612073756261737461206E6F20657374612061637469766100000000000000 PUSH0 DUP3 ADD MSTORE POP JUMP JUMPDEST PUSH0 PUSH2 0x11E6 PUSH1 0x19 DUP4 PUSH2 0x10B4 JUMP JUMPDEST SWAP2 POP PUSH2 0x11F1 DUP3 PUSH2 0x11B2 JUMP JUMPDEST PUSH1 0x20 DUP3 ADD SWAP1 POP SWAP2 SWAP1 POP JUMP JUMPDEST PUSH0 PUSH1 0x20 DUP3 ADD SWAP1 POP DUP2 DUP2 SUB PUSH0 DUP4 ADD MSTORE PUSH2 0x1213 DUP2 PUSH2 0x11DA JUMP JUMPDEST SWAP1 POP SWAP2 SWAP1 POP JUMP JUMPDEST PUSH32 0x4C61206F6665727461206465626520736572206D61796F722061206365726F00 PUSH0 DUP3 ADD MSTORE POP JUMP JUMPDEST PUSH0 PUSH2 0x124E PUSH1 0x1F DUP4 PUSH2 0x10B4 JUMP JUMPDEST SWAP2 POP PUSH2 0x1259 DUP3 PUSH2 0x121A JUMP JUMPDEST PUSH1 0x20 DUP3 ADD SWAP1 POP SWAP2 SWAP1 POP JUMP JUMPDEST PUSH0 PUSH1 0x20 DUP3 ADD SWAP1 POP DUP2 DUP2 SUB PUSH0 DUP4 ADD MSTORE PUSH2 0x127B DUP2 PUSH2 0x1242 JUMP JUMPDEST SWAP1 POP SWAP2 SWAP1 POP JUMP JUMPDEST PUSH0 PUSH2 0x128C DUP3 PUSH2 0xE10 JUMP JUMPDEST SWAP2 POP PUSH2 0x1297 DUP4 PUSH2 0xE10 JUMP JUMPDEST SWAP3 POP DUP3 DUP3 MUL PUSH2 0x12A5 DUP2 PUSH2 0xE10 JUMP JUMPDEST SWAP2 POP DUP3 DUP3 DIV DUP5 EQ DUP4 ISZERO OR PUSH2 0x12BC JUMPI PUSH2 0x12BB PUSH2 0x1152 JUMP JUMPDEST JUMPDEST POP SWAP3 SWAP2 POP POP JUMP JUMPDEST PUSH32 0x4E487B7100000000000000000000000000000000000000000000000000000000 PUSH0 MSTORE PUSH1 0x12 PUSH1 0x4 MSTORE PUSH1 0x24 PUSH0 REVERT JUMPDEST PUSH0 PUSH2 0x12FA DUP3 PUSH2 0xE10 JUMP JUMPDEST SWAP2 POP PUSH2 0x1305 DUP4 PUSH2 0xE10 JUMP JUMPDEST SWAP3 POP DUP3 PUSH2 0x1315 JUMPI PUSH2 0x1314 PUSH2 0x12C3 JUMP JUMPDEST JUMPDEST DUP3 DUP3 DIV SWAP1 POP SWAP3 SWAP2 POP POP JUMP JUMPDEST PUSH32 0x4C61206F666572746120646562652073657220616C206D656E6F7320756E2035 PUSH0 DUP3 ADD MSTORE PUSH32 0x25206D61796F722061206C612061637475616C00000000000000000000000000 PUSH1 0x20 DUP3 ADD MSTORE POP JUMP JUMPDEST PUSH0 PUSH2 0x137A PUSH1 0x33 DUP4 PUSH2 0x10B4 JUMP JUMPDEST SWAP2 POP PUSH2 0x1385 DUP3 PUSH2 0x1320 JUMP JUMPDEST PUSH1 0x40 DUP3 ADD SWAP1 POP SWAP2 SWAP1 POP JUMP JUMPDEST PUSH0 PUSH1 0x20 DUP3 ADD SWAP1 POP DUP2 DUP2 SUB PUSH0 DUP4 ADD MSTORE PUSH2 0x13A7 DUP2 PUSH2 0x136E JUMP JUMPDEST SWAP1 POP SWAP2 SWAP1 POP JUMP JUMPDEST PUSH0 PUSH2 0x13B8 DUP3 PUSH2 0xE10 JUMP JUMPDEST SWAP2 POP PUSH32 0xFFFFFFFFFFFFFFFFFFFFFFFFFFFFFFFFFFFFFFFFFFFFFFFFFFFFFFFFFFFFFFFF DUP3 SUB PUSH2 0x13EA JUMPI PUSH2 0x13E9 PUSH2 0x1152 JUMP JUMPDEST JUMPDEST PUSH1 0x1 DUP3 ADD SWAP1 POP SWAP2 SWAP1 POP JUMP JUMPDEST PUSH32 0x4C6120737562617374612061756E206573746120656E20637572736F00000000 PUSH0 DUP3 ADD MSTORE POP JUMP JUMPDEST PUSH0 PUSH2 0x1429 PUSH1 0x1C DUP4 PUSH2 0x10B4 JUMP JUMPDEST SWAP2 POP PUSH2 0x1434 DUP3 PUSH2 0x13F5 JUMP JUMPDEST PUSH1 0x20 DUP3 ADD SWAP1 POP SWAP2 SWAP1 POP JUMP JUMPDEST PUSH0 PUSH1 0x20 DUP3 ADD SWAP1 POP DUP2 DUP2 SUB PUSH0 DUP4 ADD MSTORE PUSH2 0x1456 DUP2 PUSH2 0x141D JUMP JUMPDEST SWAP1 POP SWAP2 SWAP1 POP JUMP JUMPDEST PUSH32 0x456C2067616E61646F72206E6F207075656465207265746972617220656C2064 PUSH0 DUP3 ADD MSTORE PUSH32 0x65706F7369746F00000000000000000000000000000000000000000000000000 PUSH1 0x20 DUP3 ADD MSTORE POP JUMP JUMPDEST PUSH0 PUSH2 0x14B7 PUSH1 0x27 DUP4 PUSH2 0x10B4 JUMP JUMPDEST SWAP2 POP PUSH2 0x14C2 DUP3 PUSH2 0x145D JUMP JUMPDEST PUSH1 0x40 DUP3 ADD SWAP1 POP SWAP2 SWAP1 POP JUMP JUMPDEST PUSH0 PUSH1 0x20 DUP3 ADD SWAP1 POP DUP2 DUP2 SUB PUSH0 DUP4 ADD MSTORE PUSH2 0x14E4 DUP2 PUSH2 0x14AB JUMP JUMPDEST SWAP1 POP SWAP2 SWAP1 POP JUMP JUMPDEST PUSH32 0x4E6F207469656E657320666F6E646F7320706172612072657469726172000000 PUSH0 DUP3 ADD MSTORE POP JUMP JUMPDEST PUSH0 PUSH2 0x151F PUSH1 0x1D DUP4 PUSH2 0x10B4 JUMP JUMPDEST SWAP2 POP PUSH2 0x152A DUP3 PUSH2 0x14EB JUMP JUMPDEST PUSH1 0x20 DUP3 ADD SWAP1 POP SWAP2 SWAP1 POP JUMP JUMPDEST PUSH0 PUSH1 0x20 DUP3 ADD SWAP1 POP DUP2 DUP2 SUB PUSH0 DUP4 ADD MSTORE PUSH2 0x154C DUP2 PUSH2 0x1513 JUMP JUMPDEST SWAP1 POP SWAP2 SWAP1 POP JUMP JUMPDEST PUSH32 0x4E6F207469656E65732065786365736F206465206F6665727461000000000000 PUSH0 DUP3 ADD MSTORE POP JUMP JUMPDEST PUSH0 PUSH2 0x1587 PUSH1 0x1A DUP4 PUSH2 0x10B4 JUMP JUMPDEST SWAP2 POP PUSH2 0x1592 DUP3 PUSH2 0x1553 JUMP JUMPDEST PUSH1 0x20 DUP3 ADD SWAP1 POP SWAP2 SWAP1 POP JUMP JUMPDEST PUSH0 PUSH1 0x20 DUP3 ADD SWAP1 POP DUP2 DUP2 SUB PUSH0 DUP4 ADD MSTORE PUSH2 0x15B4 DUP2 PUSH2 0x157B JUMP JUMPDEST SWAP1 POP SWAP2 SWAP1 POP JUMP JUMPDEST PUSH0 PUSH2 0x15C5 DUP3 PUSH2 0xE10 JUMP JUMPDEST SWAP2 POP PUSH2 0x15D0 DUP4 PUSH2 0xE10 JUMP JUMPDEST SWAP3 POP DUP3 DUP3 SUB SWAP1 POP DUP2 DUP2 GT ISZERO PUSH2 0x15E8 JUMPI PUSH2 0x15E7 PUSH2 0x1152 JUMP JUMPDEST JUMPDEST SWAP3 SWAP2 POP POP JUMP JUMPDEST PUSH32 0x4E487B7100000000000000000000000000000000000000000000000000000000 PUSH0 MSTORE PUSH1 0x41 PUSH1 0x4 MSTORE PUSH1 0x24 PUSH0 REVERT JUMPDEST PUSH32 0x4E487B7100000000000000000000000000000000000000000000000000000000 PUSH0 MSTORE PUSH1 0x32 PUSH1 0x4 MSTORE PUSH1 0x24 PUSH0 REVERT INVALID LOG2 PUSH5 0x6970667358 0x22 SLT KECCAK256 POP PUSH27 0x5A5D0480377ABB34F6450F2C168D95BD86DDFEF151105B9B24EC5E 0xD3 LOG3 SMOD PUSH5 0x736F6C6343 STOP ADDMOD BYTE STOP CALLER "
				},
				"gasEstimates": {
					"creation": {
						"codeDepositCost": "1151600",
						"executionCost": "infinite",
						"totalCost": "infinite"
					},
					"external": {
						"depositos(address)": "2869",
						"duracionSubasta()": "2513",
						"finalizarSubasta()": "infinite",
						"ganador()": "2553",
						"mostrarGanador()": "4817",
						"mostrarOfertas()": "infinite",
						"ofertaGanadora()": "2471",
						"ofertar()": "infinite",
						"ofertas(uint256)": "infinite",
						"owner()": "2528",
						"retirarDeposito()": "infinite",
						"retirarExceso()": "infinite",
						"subastaActiva()": "2511",
						"tiempoInicio()": "2447",
						"totalOfertas()": "2492"
					}
				},
				"methodIdentifiers": {
					"depositos(address)": "664e62b9",
					"duracionSubasta()": "d1d7e96c",
					"finalizarSubasta()": "0851eac2",
					"ganador()": "9114bde8",
					"mostrarGanador()": "753dcaeb",
					"mostrarOfertas()": "c442a99f",
					"ofertaGanadora()": "13a83eaf",
					"ofertar()": "3ec059d7",
					"ofertas(uint256)": "56afff7c",
					"owner()": "8da5cb5b",
					"retirarDeposito()": "a05d3ddc",
					"retirarExceso()": "c1902319",
					"subastaActiva()": "5dfe78f7",
					"tiempoInicio()": "a791e09b",
					"totalOfertas()": "963cb24a"
				}
			},
			"storageLayout": {
				"storage": [
					{
						"astId": 3,
						"contract": "contracts/TPSubasta.sol:TPSubasta",
						"label": "owner",
						"offset": 0,
						"slot": "0",
						"type": "t_address"
					},
					{
						"astId": 5,
						"contract": "contracts/TPSubasta.sol:TPSubasta",
						"label": "tiempoInicio",
						"offset": 0,
						"slot": "1",
						"type": "t_uint256"
					},
					{
						"astId": 7,
						"contract": "contracts/TPSubasta.sol:TPSubasta",
						"label": "duracionSubasta",
						"offset": 0,
						"slot": "2",
						"type": "t_uint256"
					},
					{
						"astId": 9,
						"contract": "contracts/TPSubasta.sol:TPSubasta",
						"label": "ganador",
						"offset": 0,
						"slot": "3",
						"type": "t_address"
					},
					{
						"astId": 11,
						"contract": "contracts/TPSubasta.sol:TPSubasta",
						"label": "ofertaGanadora",
						"offset": 0,
						"slot": "4",
						"type": "t_uint256"
					},
					{
						"astId": 13,
						"contract": "contracts/TPSubasta.sol:TPSubasta",
						"label": "subastaActiva",
						"offset": 0,
						"slot": "5",
						"type": "t_bool"
					},
					{
						"astId": 22,
						"contract": "contracts/TPSubasta.sol:TPSubasta",
						"label": "depositos",
						"offset": 0,
						"slot": "6",
						"type": "t_mapping(t_address,t_uint256)"
					},
					{
						"astId": 27,
						"contract": "contracts/TPSubasta.sol:TPSubasta",
						"label": "ofertas",
						"offset": 0,
						"slot": "7",
						"type": "t_mapping(t_uint256,t_struct(Oferta)18_storage)"
					},
					{
						"astId": 29,
						"contract": "contracts/TPSubasta.sol:TPSubasta",
						"label": "totalOfertas",
						"offset": 0,
						"slot": "8",
						"type": "t_uint256"
					}
				],
				"types": {
					"t_address": {
						"encoding": "inplace",
						"label": "address",
						"numberOfBytes": "20"
					},
					"t_bool": {
						"encoding": "inplace",
						"label": "bool",
						"numberOfBytes": "1"
					},
					"t_mapping(t_address,t_uint256)": {
						"encoding": "mapping",
						"key": "t_address",
						"label": "mapping(address => uint256)",
						"numberOfBytes": "32",
						"value": "t_uint256"
					},
					"t_mapping(t_uint256,t_struct(Oferta)18_storage)": {
						"encoding": "mapping",
						"key": "t_uint256",
						"label": "mapping(uint256 => struct TPSubasta.Oferta)",
						"numberOfBytes": "32",
						"value": "t_struct(Oferta)18_storage"
					},
					"t_struct(Oferta)18_storage": {
						"encoding": "inplace",
						"label": "struct TPSubasta.Oferta",
						"members": [
							{
								"astId": 15,
								"contract": "contracts/TPSubasta.sol:TPSubasta",
								"label": "ofertante",
								"offset": 0,
								"slot": "0",
								"type": "t_address"
							},
							{
								"astId": 17,
								"contract": "contracts/TPSubasta.sol:TPSubasta",
								"label": "monto",
								"offset": 0,
								"slot": "1",
								"type": "t_uint256"
							}
						],
						"numberOfBytes": "64"
					},
					"t_uint256": {
						"encoding": "inplace",
						"label": "uint256",
						"numberOfBytes": "32"
					}
				}
			},
			"userdoc": {
				"kind": "user",
				"methods": {},
				"version": 1
			}
		}
	}
}