{
	"contracts/EjemploSubastaClase.sol": {
		"Subasta": {
			"abi": [
				{
					"inputs": [],
					"stateMutability": "nonpayable",
					"type": "constructor"
				},
				{
					"inputs": [],
					"name": "FializarSubasta",
					"outputs": [],
					"stateMutability": "nonpayable",
					"type": "function"
				},
				{
					"inputs": [],
					"name": "fechaInicio",
					"outputs": [
						{
							"internalType": "uint256",
							"name": "",
							"type": "uint256"
						}
					],
					"stateMutability": "view",
					"type": "function"
				},
				{
					"inputs": [],
					"name": "getMayorOferta",
					"outputs": [
						{
							"internalType": "uint256",
							"name": "",
							"type": "uint256"
						}
					],
					"stateMutability": "view",
					"type": "function"
				},
				{
					"inputs": [],
					"name": "getOferenteGanador",
					"outputs": [
						{
							"internalType": "address",
							"name": "",
							"type": "address"
						}
					],
					"stateMutability": "view",
					"type": "function"
				},
				{
					"inputs": [],
					"name": "owner",
					"outputs": [
						{
							"internalType": "address",
							"name": "",
							"type": "address"
						}
					],
					"stateMutability": "view",
					"type": "function"
				},
				{
					"inputs": [],
					"name": "semaforo",
					"outputs": [
						{
							"internalType": "uint8",
							"name": "",
							"type": "uint8"
						}
					],
					"stateMutability": "view",
					"type": "function"
				},
				{
					"inputs": [],
					"name": "setOferta",
					"outputs": [],
					"stateMutability": "payable",
					"type": "function"
				},
				{
					"inputs": [],
					"name": "tiempoDuracion",
					"outputs": [
						{
							"internalType": "uint256",
							"name": "",
							"type": "uint256"
						}
					],
					"stateMutability": "view",
					"type": "function"
				},
				{
					"inputs": [],
					"name": "valorInicial",
					"outputs": [
						{
							"internalType": "uint256",
							"name": "",
							"type": "uint256"
						}
					],
					"stateMutability": "view",
					"type": "function"
				},
				{
					"inputs": [
						{
							"internalType": "address",
							"name": "",
							"type": "address"
						}
					],
					"name": "valorMetido",
					"outputs": [
						{
							"internalType": "uint256",
							"name": "",
							"type": "uint256"
						}
					],
					"stateMutability": "view",
					"type": "function"
				}
			],
			"devdoc": {
				"kind": "dev",
				"methods": {},
				"version": 1
			},
			"evm": {
				"assembly": "    /* \"contracts/EjemploSubastaClase.sol\":58:1515  contract Subasta {... */\n  mstore(0x40, 0x80)\n    /* \"contracts/EjemploSubastaClase.sol\":431:597  constructor() {... */\n  callvalue\n  dup1\n  iszero\n  tag_1\n  jumpi\n  0x00\n  dup1\n  revert\ntag_1:\n  pop\n    /* \"contracts/EjemploSubastaClase.sol\":463:473  msg.sender */\n  caller\n    /* \"contracts/EjemploSubastaClase.sol\":455:460  owner */\n  0x05\n  0x00\n    /* \"contracts/EjemploSubastaClase.sol\":455:473  owner = msg.sender */\n  0x0100\n  exp\n  dup2\n  sload\n  dup2\n  0xffffffffffffffffffffffffffffffffffffffff\n  mul\n  not\n  and\n  swap1\n  dup4\n  0xffffffffffffffffffffffffffffffffffffffff\n  and\n  mul\n  or\n  swap1\n  sstore\n  pop\n    /* \"contracts/EjemploSubastaClase.sol\":498:504  1 gwei */\n  0x3b9aca00\n    /* \"contracts/EjemploSubastaClase.sol\":483:495  valorInicial */\n  0x00\n    /* \"contracts/EjemploSubastaClase.sol\":483:504  valorInicial = 1 gwei */\n  dup2\n  swap1\n  sstore\n  pop\n    /* \"contracts/EjemploSubastaClase.sol\":528:543  block.timestamp */\n  timestamp\n    /* \"contracts/EjemploSubastaClase.sol\":514:525  fechaInicio */\n  0x01\n    /* \"contracts/EjemploSubastaClase.sol\":514:543  fechaInicio = block.timestamp */\n  dup2\n  swap1\n  sstore\n  pop\n    /* \"contracts/EjemploSubastaClase.sol\":584:590  7 days */\n  0x093a80\n    /* \"contracts/EjemploSubastaClase.sol\":570:581  fechaInicio */\n  sload(0x01)\n    /* \"contracts/EjemploSubastaClase.sol\":570:590  fechaInicio + 7 days */\n  tag_4\n  swap2\n  swap1\n  tag_5\n  jump\t// in\ntag_4:\n    /* \"contracts/EjemploSubastaClase.sol\":553:567  tiempoDuracion */\n  0x02\n    /* \"contracts/EjemploSubastaClase.sol\":553:590  tiempoDuracion = fechaInicio + 7 days */\n  dup2\n  swap1\n  sstore\n  pop\n    /* \"contracts/EjemploSubastaClase.sol\":58:1515  contract Subasta {... */\n  jump(tag_6)\n    /* \"#utility.yul\":7:84   */\ntag_7:\n    /* \"#utility.yul\":44:51   */\n  0x00\n    /* \"#utility.yul\":73:78   */\n  dup2\n    /* \"#utility.yul\":62:78   */\n  swap1\n  pop\n    /* \"#utility.yul\":7:84   */\n  swap2\n  swap1\n  pop\n  jump\t// out\n    /* \"#utility.yul\":90:270   */\ntag_8:\n    /* \"#utility.yul\":138:215   */\n  0x4e487b7100000000000000000000000000000000000000000000000000000000\n    /* \"#utility.yul\":135:136   */\n  0x00\n    /* \"#utility.yul\":128:216   */\n  mstore\n    /* \"#utility.yul\":235:239   */\n  0x11\n    /* \"#utility.yul\":232:233   */\n  0x04\n    /* \"#utility.yul\":225:240   */\n  mstore\n    /* \"#utility.yul\":259:263   */\n  0x24\n    /* \"#utility.yul\":256:257   */\n  0x00\n    /* \"#utility.yul\":249:264   */\n  revert\n    /* \"#utility.yul\":276:467   */\ntag_5:\n    /* \"#utility.yul\":316:319   */\n  0x00\n    /* \"#utility.yul\":335:355   */\n  tag_13\n    /* \"#utility.yul\":353:354   */\n  dup3\n    /* \"#utility.yul\":335:355   */\n  tag_7\n  jump\t// in\ntag_13:\n    /* \"#utility.yul\":330:355   */\n  swap2\n  pop\n    /* \"#utility.yul\":369:389   */\n  tag_14\n    /* \"#utility.yul\":387:388   */\n  dup4\n    /* \"#utility.yul\":369:389   */\n  tag_7\n  jump\t// in\ntag_14:\n    /* \"#utility.yul\":364:389   */\n  swap3\n  pop\n    /* \"#utility.yul\":412:413   */\n  dup3\n    /* \"#utility.yul\":409:410   */\n  dup3\n    /* \"#utility.yul\":405:414   */\n  add\n    /* \"#utility.yul\":398:414   */\n  swap1\n  pop\n    /* \"#utility.yul\":433:436   */\n  dup1\n    /* \"#utility.yul\":430:431   */\n  dup3\n    /* \"#utility.yul\":427:437   */\n  gt\n    /* \"#utility.yul\":424:460   */\n  iszero\n  tag_15\n  jumpi\n    /* \"#utility.yul\":440:458   */\n  tag_16\n  tag_8\n  jump\t// in\ntag_16:\n    /* \"#utility.yul\":424:460   */\ntag_15:\n    /* \"#utility.yul\":276:467   */\n  swap3\n  swap2\n  pop\n  pop\n  jump\t// out\n    /* \"contracts/EjemploSubastaClase.sol\":58:1515  contract Subasta {... */\ntag_6:\n  dataSize(sub_0)\n  dup1\n  dataOffset(sub_0)\n  0x00\n  codecopy\n  0x00\n  return\nstop\n\nsub_0: assembly {\n        /* \"contracts/EjemploSubastaClase.sol\":58:1515  contract Subasta {... */\n      mstore(0x40, 0x80)\n      jumpi(tag_1, lt(calldatasize, 0x04))\n      shr(0xe0, calldataload(0x00))\n      dup1\n      0x83f28094\n      gt\n      tag_12\n      jumpi\n      dup1\n      0x83f28094\n      eq\n      tag_7\n      jumpi\n      dup1\n      0x86549369\n      eq\n      tag_8\n      jumpi\n      dup1\n      0x8da5cb5b\n      eq\n      tag_9\n      jumpi\n      dup1\n      0xcb4ee133\n      eq\n      tag_10\n      jumpi\n      dup1\n      0xfc373179\n      eq\n      tag_11\n      jumpi\n      jump(tag_1)\n    tag_12:\n      dup1\n      0x209e1d46\n      eq\n      tag_2\n      jumpi\n      dup1\n      0x3483b353\n      eq\n      tag_3\n      jumpi\n      dup1\n      0x35e55041\n      eq\n      tag_4\n      jumpi\n      dup1\n      0x3f0cc5e8\n      eq\n      tag_5\n      jumpi\n      dup1\n      0x4567bf0c\n      eq\n      tag_6\n      jumpi\n    tag_1:\n      0x00\n      dup1\n      revert\n        /* \"contracts/EjemploSubastaClase.sol\":663:764  function getOferenteGanador() external view returns(address) {... */\n    tag_2:\n      callvalue\n      dup1\n      iszero\n      tag_13\n      jumpi\n      0x00\n      dup1\n      revert\n    tag_13:\n      pop\n      tag_14\n      tag_15\n      jump\t// in\n    tag_14:\n      mload(0x40)\n      tag_16\n      swap2\n      swap1\n      tag_17\n      jump\t// in\n    tag_16:\n      mload(0x40)\n      dup1\n      swap2\n      sub\n      swap1\n      return\n        /* \"contracts/EjemploSubastaClase.sol\":377:424  mapping (address => uint256) public valorMetido */\n    tag_3:\n      callvalue\n      dup1\n      iszero\n      tag_18\n      jumpi\n      0x00\n      dup1\n      revert\n    tag_18:\n      pop\n      tag_19\n      0x04\n      dup1\n      calldatasize\n      sub\n      dup2\n      add\n      swap1\n      tag_20\n      swap2\n      swap1\n      tag_21\n      jump\t// in\n    tag_20:\n      tag_22\n      jump\t// in\n    tag_19:\n      mload(0x40)\n      tag_23\n      swap2\n      swap1\n      tag_24\n      jump\t// in\n    tag_23:\n      mload(0x40)\n      dup1\n      swap2\n      sub\n      swap1\n      return\n        /* \"contracts/EjemploSubastaClase.sol\":770:862  function getMayorOferta() external view returns(uint256) {... */\n    tag_4:\n      callvalue\n      dup1\n      iszero\n      tag_25\n      jumpi\n      0x00\n      dup1\n      revert\n    tag_25:\n      pop\n      tag_26\n      tag_27\n      jump\t// in\n    tag_26:\n      mload(0x40)\n      tag_28\n      swap2\n      swap1\n      tag_24\n      jump\t// in\n    tag_28:\n      mload(0x40)\n      dup1\n      swap2\n      sub\n      swap1\n      return\n        /* \"contracts/EjemploSubastaClase.sol\":868:1379  function setOferta() external payable {... */\n    tag_5:\n      tag_29\n      tag_30\n      jump\t// in\n    tag_29:\n      stop\n        /* \"contracts/EjemploSubastaClase.sol\":1385:1513  function FializarSubasta( ) external {... */\n    tag_6:\n      callvalue\n      dup1\n      iszero\n      tag_31\n      jumpi\n      0x00\n      dup1\n      revert\n    tag_31:\n      pop\n      tag_32\n      tag_33\n      jump\t// in\n    tag_32:\n      stop\n        /* \"contracts/EjemploSubastaClase.sol\":153:180  uint256 public valorInicial */\n    tag_7:\n      callvalue\n      dup1\n      iszero\n      tag_34\n      jumpi\n      0x00\n      dup1\n      revert\n    tag_34:\n      pop\n      tag_35\n      tag_36\n      jump\t// in\n    tag_35:\n      mload(0x40)\n      tag_37\n      swap2\n      swap1\n      tag_24\n      jump\t// in\n    tag_37:\n      mload(0x40)\n      dup1\n      swap2\n      sub\n      swap1\n      return\n        /* \"contracts/EjemploSubastaClase.sol\":218:247  uint256 public tiempoDuracion */\n    tag_8:\n      callvalue\n      dup1\n      iszero\n      tag_38\n      jumpi\n      0x00\n      dup1\n      revert\n    tag_38:\n      pop\n      tag_39\n      tag_40\n      jump\t// in\n    tag_39:\n      mload(0x40)\n      tag_41\n      swap2\n      swap1\n      tag_24\n      jump\t// in\n    tag_41:\n      mload(0x40)\n      dup1\n      swap2\n      sub\n      swap1\n      return\n        /* \"contracts/EjemploSubastaClase.sol\":351:371  address public owner */\n    tag_9:\n      callvalue\n      dup1\n      iszero\n      tag_42\n      jumpi\n      0x00\n      dup1\n      revert\n    tag_42:\n      pop\n      tag_43\n      tag_44\n      jump\t// in\n    tag_43:\n      mload(0x40)\n      tag_45\n      swap2\n      swap1\n      tag_17\n      jump\t// in\n    tag_45:\n      mload(0x40)\n      dup1\n      swap2\n      sub\n      swap1\n      return\n        /* \"contracts/EjemploSubastaClase.sol\":324:345  uint8 public semaforo */\n    tag_10:\n      callvalue\n      dup1\n      iszero\n      tag_46\n      jumpi\n      0x00\n      dup1\n      revert\n    tag_46:\n      pop\n      tag_47\n      tag_48\n      jump\t// in\n    tag_47:\n      mload(0x40)\n      tag_49\n      swap2\n      swap1\n      tag_50\n      jump\t// in\n    tag_49:\n      mload(0x40)\n      dup1\n      swap2\n      sub\n      swap1\n      return\n        /* \"contracts/EjemploSubastaClase.sol\":186:212  uint256 public fechaInicio */\n    tag_11:\n      callvalue\n      dup1\n      iszero\n      tag_51\n      jumpi\n      0x00\n      dup1\n      revert\n    tag_51:\n      pop\n      tag_52\n      tag_53\n      jump\t// in\n    tag_52:\n      mload(0x40)\n      tag_54\n      swap2\n      swap1\n      tag_24\n      jump\t// in\n    tag_54:\n      mload(0x40)\n      dup1\n      swap2\n      sub\n      swap1\n      return\n        /* \"contracts/EjemploSubastaClase.sol\":663:764  function getOferenteGanador() external view returns(address) {... */\n    tag_15:\n        /* \"contracts/EjemploSubastaClase.sol\":715:722  address */\n      0x00\n        /* \"contracts/EjemploSubastaClase.sol\":741:757  ofertanteGanador */\n      0x04\n      0x00\n      swap1\n      sload\n      swap1\n      0x0100\n      exp\n      swap1\n      div\n      0xffffffffffffffffffffffffffffffffffffffff\n      and\n        /* \"contracts/EjemploSubastaClase.sol\":734:757  return ofertanteGanador */\n      swap1\n      pop\n        /* \"contracts/EjemploSubastaClase.sol\":663:764  function getOferenteGanador() external view returns(address) {... */\n      swap1\n      jump\t// out\n        /* \"contracts/EjemploSubastaClase.sol\":377:424  mapping (address => uint256) public valorMetido */\n    tag_22:\n      mstore(0x20, 0x06)\n      dup1\n      0x00\n      mstore\n      keccak256(0x00, 0x40)\n      0x00\n      swap2\n      pop\n      swap1\n      pop\n      sload\n      dup2\n      jump\t// out\n        /* \"contracts/EjemploSubastaClase.sol\":770:862  function getMayorOferta() external view returns(uint256) {... */\n    tag_27:\n        /* \"contracts/EjemploSubastaClase.sol\":818:825  uint256 */\n      0x00\n        /* \"contracts/EjemploSubastaClase.sol\":844:855  mayorOferta */\n      sload(0x03)\n        /* \"contracts/EjemploSubastaClase.sol\":837:855  return mayorOferta */\n      swap1\n      pop\n        /* \"contracts/EjemploSubastaClase.sol\":770:862  function getMayorOferta() external view returns(uint256) {... */\n      swap1\n      jump\t// out\n        /* \"contracts/EjemploSubastaClase.sol\":868:1379  function setOferta() external payable {... */\n    tag_30:\n        /* \"contracts/EjemploSubastaClase.sol\":934:935  0 */\n      0x00\n        /* \"contracts/EjemploSubastaClase.sol\":924:932  semaforo */\n      0x04\n      0x14\n      swap1\n      sload\n      swap1\n      0x0100\n      exp\n      swap1\n      div\n      0xff\n      and\n        /* \"contracts/EjemploSubastaClase.sol\":924:935  semaforo==0 */\n      0xff\n      and\n      eq\n        /* \"contracts/EjemploSubastaClase.sol\":916:957  require(semaforo==0,\"La subasta termino\") */\n      tag_58\n      jumpi\n      mload(0x40)\n      0x08c379a000000000000000000000000000000000000000000000000000000000\n      dup2\n      mstore\n      0x04\n      add\n      tag_59\n      swap1\n      tag_60\n      jump\t// in\n    tag_59:\n      mload(0x40)\n      dup1\n      swap2\n      sub\n      swap1\n      revert\n    tag_58:\n        /* \"contracts/EjemploSubastaClase.sol\":967:989  uint256 _valorOfertado */\n      0x00\n        /* \"contracts/EjemploSubastaClase.sol\":992:1001  msg.value */\n      callvalue\n        /* \"contracts/EjemploSubastaClase.sol\":967:1001  uint256 _valorOfertado = msg.value */\n      swap1\n      pop\n        /* \"contracts/EjemploSubastaClase.sol\":1034:1046  valorInicial */\n      sload(0x00)\n        /* \"contracts/EjemploSubastaClase.sol\":1019:1033  _valorOfertado */\n      dup2\n        /* \"contracts/EjemploSubastaClase.sol\":1019:1046  _valorOfertado>valorInicial */\n      gt\n        /* \"contracts/EjemploSubastaClase.sol\":1011:1072  require(_valorOfertado>valorInicial,\"valor menor al inicial\") */\n      tag_61\n      jumpi\n      mload(0x40)\n      0x08c379a000000000000000000000000000000000000000000000000000000000\n      dup2\n      mstore\n      0x04\n      add\n      tag_62\n      swap1\n      tag_63\n      jump\t// in\n    tag_62:\n      mload(0x40)\n      dup1\n      swap2\n      sub\n      swap1\n      revert\n    tag_61:\n        /* \"contracts/EjemploSubastaClase.sol\":1102:1113  mayorOferta */\n      sload(0x03)\n        /* \"contracts/EjemploSubastaClase.sol\":1085:1099  _valorOfertado */\n      dup2\n        /* \"contracts/EjemploSubastaClase.sol\":1085:1113  _valorOfertado > mayorOferta */\n      gt\n        /* \"contracts/EjemploSubastaClase.sol\":1082:1373  if(_valorOfertado > mayorOferta) {... */\n      iszero\n      tag_64\n      jumpi\n        /* \"contracts/EjemploSubastaClase.sol\":1129:1150  address _addrOferente */\n      0x00\n        /* \"contracts/EjemploSubastaClase.sol\":1153:1163  msg.sender */\n      caller\n        /* \"contracts/EjemploSubastaClase.sol\":1129:1163  address _addrOferente = msg.sender */\n      swap1\n      pop\n        /* \"contracts/EjemploSubastaClase.sol\":1191:1205  _valorOfertado */\n      dup2\n        /* \"contracts/EjemploSubastaClase.sol\":1177:1188  mayorOferta */\n      0x03\n        /* \"contracts/EjemploSubastaClase.sol\":1177:1205  mayorOferta = _valorOfertado */\n      dup2\n      swap1\n      sstore\n      pop\n        /* \"contracts/EjemploSubastaClase.sol\":1238:1251  _addrOferente */\n      dup1\n        /* \"contracts/EjemploSubastaClase.sol\":1219:1235  ofertanteGanador */\n      0x04\n      0x00\n        /* \"contracts/EjemploSubastaClase.sol\":1219:1251  ofertanteGanador = _addrOferente */\n      0x0100\n      exp\n      dup2\n      sload\n      dup2\n      0xffffffffffffffffffffffffffffffffffffffff\n      mul\n      not\n      and\n      swap1\n      dup4\n      0xffffffffffffffffffffffffffffffffffffffff\n      and\n      mul\n      or\n      swap1\n      sstore\n      pop\n        /* \"contracts/EjemploSubastaClase.sol\":1295:1309  _valorOfertado */\n      dup2\n        /* \"contracts/EjemploSubastaClase.sol\":1265:1276  valorMetido */\n      0x06\n        /* \"contracts/EjemploSubastaClase.sol\":1265:1291  valorMetido[_addrOferente] */\n      0x00\n        /* \"contracts/EjemploSubastaClase.sol\":1277:1290  _addrOferente */\n      dup4\n        /* \"contracts/EjemploSubastaClase.sol\":1265:1291  valorMetido[_addrOferente] */\n      0xffffffffffffffffffffffffffffffffffffffff\n      and\n      0xffffffffffffffffffffffffffffffffffffffff\n      and\n      dup2\n      mstore\n      0x20\n      add\n      swap1\n      dup2\n      mstore\n      0x20\n      add\n      0x00\n      keccak256\n      0x00\n        /* \"contracts/EjemploSubastaClase.sol\":1265:1309  valorMetido[_addrOferente] += _valorOfertado */\n      dup3\n      dup3\n      sload\n      tag_65\n      swap2\n      swap1\n      tag_66\n      jump\t// in\n    tag_65:\n      swap3\n      pop\n      pop\n      dup2\n      swap1\n      sstore\n      pop\n        /* \"contracts/EjemploSubastaClase.sol\":1115:1320  {... */\n      pop\n        /* \"contracts/EjemploSubastaClase.sol\":1082:1373  if(_valorOfertado > mayorOferta) {... */\n      jump(tag_67)\n    tag_64:\n        /* \"contracts/EjemploSubastaClase.sol\":1340:1362  revert(\"no superaste\") */\n      mload(0x40)\n      0x08c379a000000000000000000000000000000000000000000000000000000000\n      dup2\n      mstore\n      0x04\n      add\n      tag_68\n      swap1\n      tag_69\n      jump\t// in\n    tag_68:\n      mload(0x40)\n      dup1\n      swap2\n      sub\n      swap1\n      revert\n        /* \"contracts/EjemploSubastaClase.sol\":1082:1373  if(_valorOfertado > mayorOferta) {... */\n    tag_67:\n        /* \"contracts/EjemploSubastaClase.sol\":906:1379  {... */\n      pop\n        /* \"contracts/EjemploSubastaClase.sol\":868:1379  function setOferta() external payable {... */\n      jump\t// out\n        /* \"contracts/EjemploSubastaClase.sol\":1385:1513  function FializarSubasta( ) external {... */\n    tag_33:\n        /* \"contracts/EjemploSubastaClase.sol\":1447:1457  msg.sender */\n      caller\n        /* \"contracts/EjemploSubastaClase.sol\":1440:1457  owner==msg.sender */\n      0xffffffffffffffffffffffffffffffffffffffff\n      and\n        /* \"contracts/EjemploSubastaClase.sol\":1440:1445  owner */\n      0x05\n      0x00\n      swap1\n      sload\n      swap1\n      0x0100\n      exp\n      swap1\n      div\n      0xffffffffffffffffffffffffffffffffffffffff\n      and\n        /* \"contracts/EjemploSubastaClase.sol\":1440:1457  owner==msg.sender */\n      0xffffffffffffffffffffffffffffffffffffffff\n      and\n      eq\n        /* \"contracts/EjemploSubastaClase.sol\":1432:1484  require(owner==msg.sender,\"usted no tiene permisos\") */\n      tag_71\n      jumpi\n      mload(0x40)\n      0x08c379a000000000000000000000000000000000000000000000000000000000\n      dup2\n      mstore\n      0x04\n      add\n      tag_72\n      swap1\n      tag_73\n      jump\t// in\n    tag_72:\n      mload(0x40)\n      dup1\n      swap2\n      sub\n      swap1\n      revert\n    tag_71:\n        /* \"contracts/EjemploSubastaClase.sol\":1505:1506  1 */\n      0x01\n        /* \"contracts/EjemploSubastaClase.sol\":1494:1502  semaforo */\n      0x04\n      0x14\n        /* \"contracts/EjemploSubastaClase.sol\":1494:1506  semaforo = 1 */\n      0x0100\n      exp\n      dup2\n      sload\n      dup2\n      0xff\n      mul\n      not\n      and\n      swap1\n      dup4\n      0xff\n      and\n      mul\n      or\n      swap1\n      sstore\n      pop\n        /* \"contracts/EjemploSubastaClase.sol\":1385:1513  function FializarSubasta( ) external {... */\n      jump\t// out\n        /* \"contracts/EjemploSubastaClase.sol\":153:180  uint256 public valorInicial */\n    tag_36:\n      sload(0x00)\n      dup2\n      jump\t// out\n        /* \"contracts/EjemploSubastaClase.sol\":218:247  uint256 public tiempoDuracion */\n    tag_40:\n      sload(0x02)\n      dup2\n      jump\t// out\n        /* \"contracts/EjemploSubastaClase.sol\":351:371  address public owner */\n    tag_44:\n      0x05\n      0x00\n      swap1\n      sload\n      swap1\n      0x0100\n      exp\n      swap1\n      div\n      0xffffffffffffffffffffffffffffffffffffffff\n      and\n      dup2\n      jump\t// out\n        /* \"contracts/EjemploSubastaClase.sol\":324:345  uint8 public semaforo */\n    tag_48:\n      0x04\n      0x14\n      swap1\n      sload\n      swap1\n      0x0100\n      exp\n      swap1\n      div\n      0xff\n      and\n      dup2\n      jump\t// out\n        /* \"contracts/EjemploSubastaClase.sol\":186:212  uint256 public fechaInicio */\n    tag_53:\n      sload(0x01)\n      dup2\n      jump\t// out\n        /* \"#utility.yul\":7:133   */\n    tag_74:\n        /* \"#utility.yul\":44:51   */\n      0x00\n        /* \"#utility.yul\":84:126   */\n      0xffffffffffffffffffffffffffffffffffffffff\n        /* \"#utility.yul\":77:82   */\n      dup3\n        /* \"#utility.yul\":73:127   */\n      and\n        /* \"#utility.yul\":62:127   */\n      swap1\n      pop\n        /* \"#utility.yul\":7:133   */\n      swap2\n      swap1\n      pop\n      jump\t// out\n        /* \"#utility.yul\":139:235   */\n    tag_75:\n        /* \"#utility.yul\":176:183   */\n      0x00\n        /* \"#utility.yul\":205:229   */\n      tag_99\n        /* \"#utility.yul\":223:228   */\n      dup3\n        /* \"#utility.yul\":205:229   */\n      tag_74\n      jump\t// in\n    tag_99:\n        /* \"#utility.yul\":194:229   */\n      swap1\n      pop\n        /* \"#utility.yul\":139:235   */\n      swap2\n      swap1\n      pop\n      jump\t// out\n        /* \"#utility.yul\":241:359   */\n    tag_76:\n        /* \"#utility.yul\":328:352   */\n      tag_101\n        /* \"#utility.yul\":346:351   */\n      dup2\n        /* \"#utility.yul\":328:352   */\n      tag_75\n      jump\t// in\n    tag_101:\n        /* \"#utility.yul\":323:326   */\n      dup3\n        /* \"#utility.yul\":316:353   */\n      mstore\n        /* \"#utility.yul\":241:359   */\n      pop\n      pop\n      jump\t// out\n        /* \"#utility.yul\":365:587   */\n    tag_17:\n        /* \"#utility.yul\":458:462   */\n      0x00\n        /* \"#utility.yul\":496:498   */\n      0x20\n        /* \"#utility.yul\":485:494   */\n      dup3\n        /* \"#utility.yul\":481:499   */\n      add\n        /* \"#utility.yul\":473:499   */\n      swap1\n      pop\n        /* \"#utility.yul\":509:580   */\n      tag_103\n        /* \"#utility.yul\":577:578   */\n      0x00\n        /* \"#utility.yul\":566:575   */\n      dup4\n        /* \"#utility.yul\":562:579   */\n      add\n        /* \"#utility.yul\":553:559   */\n      dup5\n        /* \"#utility.yul\":509:580   */\n      tag_76\n      jump\t// in\n    tag_103:\n        /* \"#utility.yul\":365:587   */\n      swap3\n      swap2\n      pop\n      pop\n      jump\t// out\n        /* \"#utility.yul\":674:791   */\n    tag_78:\n        /* \"#utility.yul\":783:784   */\n      0x00\n        /* \"#utility.yul\":780:781   */\n      dup1\n        /* \"#utility.yul\":773:785   */\n      revert\n        /* \"#utility.yul\":920:1042   */\n    tag_80:\n        /* \"#utility.yul\":993:1017   */\n      tag_108\n        /* \"#utility.yul\":1011:1016   */\n      dup2\n        /* \"#utility.yul\":993:1017   */\n      tag_75\n      jump\t// in\n    tag_108:\n        /* \"#utility.yul\":986:991   */\n      dup2\n        /* \"#utility.yul\":983:1018   */\n      eq\n        /* \"#utility.yul\":973:1036   */\n      tag_109\n      jumpi\n        /* \"#utility.yul\":1032:1033   */\n      0x00\n        /* \"#utility.yul\":1029:1030   */\n      dup1\n        /* \"#utility.yul\":1022:1034   */\n      revert\n        /* \"#utility.yul\":973:1036   */\n    tag_109:\n        /* \"#utility.yul\":920:1042   */\n      pop\n      jump\t// out\n        /* \"#utility.yul\":1048:1187   */\n    tag_81:\n        /* \"#utility.yul\":1094:1099   */\n      0x00\n        /* \"#utility.yul\":1132:1138   */\n      dup2\n        /* \"#utility.yul\":1119:1139   */\n      calldataload\n        /* \"#utility.yul\":1110:1139   */\n      swap1\n      pop\n        /* \"#utility.yul\":1148:1181   */\n      tag_111\n        /* \"#utility.yul\":1175:1180   */\n      dup2\n        /* \"#utility.yul\":1148:1181   */\n      tag_80\n      jump\t// in\n    tag_111:\n        /* \"#utility.yul\":1048:1187   */\n      swap3\n      swap2\n      pop\n      pop\n      jump\t// out\n        /* \"#utility.yul\":1193:1522   */\n    tag_21:\n        /* \"#utility.yul\":1252:1258   */\n      0x00\n        /* \"#utility.yul\":1301:1303   */\n      0x20\n        /* \"#utility.yul\":1289:1298   */\n      dup3\n        /* \"#utility.yul\":1280:1287   */\n      dup5\n        /* \"#utility.yul\":1276:1299   */\n      sub\n        /* \"#utility.yul\":1272:1304   */\n      slt\n        /* \"#utility.yul\":1269:1388   */\n      iszero\n      tag_113\n      jumpi\n        /* \"#utility.yul\":1307:1386   */\n      tag_114\n      tag_78\n      jump\t// in\n    tag_114:\n        /* \"#utility.yul\":1269:1388   */\n    tag_113:\n        /* \"#utility.yul\":1427:1428   */\n      0x00\n        /* \"#utility.yul\":1452:1505   */\n      tag_115\n        /* \"#utility.yul\":1497:1504   */\n      dup5\n        /* \"#utility.yul\":1488:1494   */\n      dup3\n        /* \"#utility.yul\":1477:1486   */\n      dup6\n        /* \"#utility.yul\":1473:1495   */\n      add\n        /* \"#utility.yul\":1452:1505   */\n      tag_81\n      jump\t// in\n    tag_115:\n        /* \"#utility.yul\":1442:1505   */\n      swap2\n      pop\n        /* \"#utility.yul\":1398:1515   */\n      pop\n        /* \"#utility.yul\":1193:1522   */\n      swap3\n      swap2\n      pop\n      pop\n      jump\t// out\n        /* \"#utility.yul\":1528:1605   */\n    tag_82:\n        /* \"#utility.yul\":1565:1572   */\n      0x00\n        /* \"#utility.yul\":1594:1599   */\n      dup2\n        /* \"#utility.yul\":1583:1599   */\n      swap1\n      pop\n        /* \"#utility.yul\":1528:1605   */\n      swap2\n      swap1\n      pop\n      jump\t// out\n        /* \"#utility.yul\":1611:1729   */\n    tag_83:\n        /* \"#utility.yul\":1698:1722   */\n      tag_118\n        /* \"#utility.yul\":1716:1721   */\n      dup2\n        /* \"#utility.yul\":1698:1722   */\n      tag_82\n      jump\t// in\n    tag_118:\n        /* \"#utility.yul\":1693:1696   */\n      dup3\n        /* \"#utility.yul\":1686:1723   */\n      mstore\n        /* \"#utility.yul\":1611:1729   */\n      pop\n      pop\n      jump\t// out\n        /* \"#utility.yul\":1735:1957   */\n    tag_24:\n        /* \"#utility.yul\":1828:1832   */\n      0x00\n        /* \"#utility.yul\":1866:1868   */\n      0x20\n        /* \"#utility.yul\":1855:1864   */\n      dup3\n        /* \"#utility.yul\":1851:1869   */\n      add\n        /* \"#utility.yul\":1843:1869   */\n      swap1\n      pop\n        /* \"#utility.yul\":1879:1950   */\n      tag_120\n        /* \"#utility.yul\":1947:1948   */\n      0x00\n        /* \"#utility.yul\":1936:1945   */\n      dup4\n        /* \"#utility.yul\":1932:1949   */\n      add\n        /* \"#utility.yul\":1923:1929   */\n      dup5\n        /* \"#utility.yul\":1879:1950   */\n      tag_83\n      jump\t// in\n    tag_120:\n        /* \"#utility.yul\":1735:1957   */\n      swap3\n      swap2\n      pop\n      pop\n      jump\t// out\n        /* \"#utility.yul\":1963:2049   */\n    tag_84:\n        /* \"#utility.yul\":1998:2005   */\n      0x00\n        /* \"#utility.yul\":2038:2042   */\n      0xff\n        /* \"#utility.yul\":2031:2036   */\n      dup3\n        /* \"#utility.yul\":2027:2043   */\n      and\n        /* \"#utility.yul\":2016:2043   */\n      swap1\n      pop\n        /* \"#utility.yul\":1963:2049   */\n      swap2\n      swap1\n      pop\n      jump\t// out\n        /* \"#utility.yul\":2055:2167   */\n    tag_85:\n        /* \"#utility.yul\":2138:2160   */\n      tag_123\n        /* \"#utility.yul\":2154:2159   */\n      dup2\n        /* \"#utility.yul\":2138:2160   */\n      tag_84\n      jump\t// in\n    tag_123:\n        /* \"#utility.yul\":2133:2136   */\n      dup3\n        /* \"#utility.yul\":2126:2161   */\n      mstore\n        /* \"#utility.yul\":2055:2167   */\n      pop\n      pop\n      jump\t// out\n        /* \"#utility.yul\":2173:2387   */\n    tag_50:\n        /* \"#utility.yul\":2262:2266   */\n      0x00\n        /* \"#utility.yul\":2300:2302   */\n      0x20\n        /* \"#utility.yul\":2289:2298   */\n      dup3\n        /* \"#utility.yul\":2285:2303   */\n      add\n        /* \"#utility.yul\":2277:2303   */\n      swap1\n      pop\n        /* \"#utility.yul\":2313:2380   */\n      tag_125\n        /* \"#utility.yul\":2377:2378   */\n      0x00\n        /* \"#utility.yul\":2366:2375   */\n      dup4\n        /* \"#utility.yul\":2362:2379   */\n      add\n        /* \"#utility.yul\":2353:2359   */\n      dup5\n        /* \"#utility.yul\":2313:2380   */\n      tag_85\n      jump\t// in\n    tag_125:\n        /* \"#utility.yul\":2173:2387   */\n      swap3\n      swap2\n      pop\n      pop\n      jump\t// out\n        /* \"#utility.yul\":2393:2562   */\n    tag_86:\n        /* \"#utility.yul\":2477:2488   */\n      0x00\n        /* \"#utility.yul\":2511:2517   */\n      dup3\n        /* \"#utility.yul\":2506:2509   */\n      dup3\n        /* \"#utility.yul\":2499:2518   */\n      mstore\n        /* \"#utility.yul\":2551:2555   */\n      0x20\n        /* \"#utility.yul\":2546:2549   */\n      dup3\n        /* \"#utility.yul\":2542:2556   */\n      add\n        /* \"#utility.yul\":2527:2556   */\n      swap1\n      pop\n        /* \"#utility.yul\":2393:2562   */\n      swap3\n      swap2\n      pop\n      pop\n      jump\t// out\n        /* \"#utility.yul\":2568:2736   */\n    tag_87:\n        /* \"#utility.yul\":2708:2728   */\n      0x4c612073756261737461207465726d696e6f0000000000000000000000000000\n        /* \"#utility.yul\":2704:2705   */\n      0x00\n        /* \"#utility.yul\":2696:2702   */\n      dup3\n        /* \"#utility.yul\":2692:2706   */\n      add\n        /* \"#utility.yul\":2685:2729   */\n      mstore\n        /* \"#utility.yul\":2568:2736   */\n      pop\n      jump\t// out\n        /* \"#utility.yul\":2742:3108   */\n    tag_88:\n        /* \"#utility.yul\":2884:2887   */\n      0x00\n        /* \"#utility.yul\":2905:2972   */\n      tag_129\n        /* \"#utility.yul\":2969:2971   */\n      0x12\n        /* \"#utility.yul\":2964:2967   */\n      dup4\n        /* \"#utility.yul\":2905:2972   */\n      tag_86\n      jump\t// in\n    tag_129:\n        /* \"#utility.yul\":2898:2972   */\n      swap2\n      pop\n        /* \"#utility.yul\":2981:3074   */\n      tag_130\n        /* \"#utility.yul\":3070:3073   */\n      dup3\n        /* \"#utility.yul\":2981:3074   */\n      tag_87\n      jump\t// in\n    tag_130:\n        /* \"#utility.yul\":3099:3101   */\n      0x20\n        /* \"#utility.yul\":3094:3097   */\n      dup3\n        /* \"#utility.yul\":3090:3102   */\n      add\n        /* \"#utility.yul\":3083:3102   */\n      swap1\n      pop\n        /* \"#utility.yul\":2742:3108   */\n      swap2\n      swap1\n      pop\n      jump\t// out\n        /* \"#utility.yul\":3114:3533   */\n    tag_60:\n        /* \"#utility.yul\":3280:3284   */\n      0x00\n        /* \"#utility.yul\":3318:3320   */\n      0x20\n        /* \"#utility.yul\":3307:3316   */\n      dup3\n        /* \"#utility.yul\":3303:3321   */\n      add\n        /* \"#utility.yul\":3295:3321   */\n      swap1\n      pop\n        /* \"#utility.yul\":3367:3376   */\n      dup2\n        /* \"#utility.yul\":3361:3365   */\n      dup2\n        /* \"#utility.yul\":3357:3377   */\n      sub\n        /* \"#utility.yul\":3353:3354   */\n      0x00\n        /* \"#utility.yul\":3342:3351   */\n      dup4\n        /* \"#utility.yul\":3338:3355   */\n      add\n        /* \"#utility.yul\":3331:3378   */\n      mstore\n        /* \"#utility.yul\":3395:3526   */\n      tag_132\n        /* \"#utility.yul\":3521:3525   */\n      dup2\n        /* \"#utility.yul\":3395:3526   */\n      tag_88\n      jump\t// in\n    tag_132:\n        /* \"#utility.yul\":3387:3526   */\n      swap1\n      pop\n        /* \"#utility.yul\":3114:3533   */\n      swap2\n      swap1\n      pop\n      jump\t// out\n        /* \"#utility.yul\":3539:3711   */\n    tag_89:\n        /* \"#utility.yul\":3679:3703   */\n      0x76616c6f72206d656e6f7220616c20696e696369616c00000000000000000000\n        /* \"#utility.yul\":3675:3676   */\n      0x00\n        /* \"#utility.yul\":3667:3673   */\n      dup3\n        /* \"#utility.yul\":3663:3677   */\n      add\n        /* \"#utility.yul\":3656:3704   */\n      mstore\n        /* \"#utility.yul\":3539:3711   */\n      pop\n      jump\t// out\n        /* \"#utility.yul\":3717:4083   */\n    tag_90:\n        /* \"#utility.yul\":3859:3862   */\n      0x00\n        /* \"#utility.yul\":3880:3947   */\n      tag_135\n        /* \"#utility.yul\":3944:3946   */\n      0x16\n        /* \"#utility.yul\":3939:3942   */\n      dup4\n        /* \"#utility.yul\":3880:3947   */\n      tag_86\n      jump\t// in\n    tag_135:\n        /* \"#utility.yul\":3873:3947   */\n      swap2\n      pop\n        /* \"#utility.yul\":3956:4049   */\n      tag_136\n        /* \"#utility.yul\":4045:4048   */\n      dup3\n        /* \"#utility.yul\":3956:4049   */\n      tag_89\n      jump\t// in\n    tag_136:\n        /* \"#utility.yul\":4074:4076   */\n      0x20\n        /* \"#utility.yul\":4069:4072   */\n      dup3\n        /* \"#utility.yul\":4065:4077   */\n      add\n        /* \"#utility.yul\":4058:4077   */\n      swap1\n      pop\n        /* \"#utility.yul\":3717:4083   */\n      swap2\n      swap1\n      pop\n      jump\t// out\n        /* \"#utility.yul\":4089:4508   */\n    tag_63:\n        /* \"#utility.yul\":4255:4259   */\n      0x00\n        /* \"#utility.yul\":4293:4295   */\n      0x20\n        /* \"#utility.yul\":4282:4291   */\n      dup3\n        /* \"#utility.yul\":4278:4296   */\n      add\n        /* \"#utility.yul\":4270:4296   */\n      swap1\n      pop\n        /* \"#utility.yul\":4342:4351   */\n      dup2\n        /* \"#utility.yul\":4336:4340   */\n      dup2\n        /* \"#utility.yul\":4332:4352   */\n      sub\n        /* \"#utility.yul\":4328:4329   */\n      0x00\n        /* \"#utility.yul\":4317:4326   */\n      dup4\n        /* \"#utility.yul\":4313:4330   */\n      add\n        /* \"#utility.yul\":4306:4353   */\n      mstore\n        /* \"#utility.yul\":4370:4501   */\n      tag_138\n        /* \"#utility.yul\":4496:4500   */\n      dup2\n        /* \"#utility.yul\":4370:4501   */\n      tag_90\n      jump\t// in\n    tag_138:\n        /* \"#utility.yul\":4362:4501   */\n      swap1\n      pop\n        /* \"#utility.yul\":4089:4508   */\n      swap2\n      swap1\n      pop\n      jump\t// out\n        /* \"#utility.yul\":4514:4694   */\n    tag_91:\n        /* \"#utility.yul\":4562:4639   */\n      0x4e487b7100000000000000000000000000000000000000000000000000000000\n        /* \"#utility.yul\":4559:4560   */\n      0x00\n        /* \"#utility.yul\":4552:4640   */\n      mstore\n        /* \"#utility.yul\":4659:4663   */\n      0x11\n        /* \"#utility.yul\":4656:4657   */\n      0x04\n        /* \"#utility.yul\":4649:4664   */\n      mstore\n        /* \"#utility.yul\":4683:4687   */\n      0x24\n        /* \"#utility.yul\":4680:4681   */\n      0x00\n        /* \"#utility.yul\":4673:4688   */\n      revert\n        /* \"#utility.yul\":4700:4891   */\n    tag_66:\n        /* \"#utility.yul\":4740:4743   */\n      0x00\n        /* \"#utility.yul\":4759:4779   */\n      tag_141\n        /* \"#utility.yul\":4777:4778   */\n      dup3\n        /* \"#utility.yul\":4759:4779   */\n      tag_82\n      jump\t// in\n    tag_141:\n        /* \"#utility.yul\":4754:4779   */\n      swap2\n      pop\n        /* \"#utility.yul\":4793:4813   */\n      tag_142\n        /* \"#utility.yul\":4811:4812   */\n      dup4\n        /* \"#utility.yul\":4793:4813   */\n      tag_82\n      jump\t// in\n    tag_142:\n        /* \"#utility.yul\":4788:4813   */\n      swap3\n      pop\n        /* \"#utility.yul\":4836:4837   */\n      dup3\n        /* \"#utility.yul\":4833:4834   */\n      dup3\n        /* \"#utility.yul\":4829:4838   */\n      add\n        /* \"#utility.yul\":4822:4838   */\n      swap1\n      pop\n        /* \"#utility.yul\":4857:4860   */\n      dup1\n        /* \"#utility.yul\":4854:4855   */\n      dup3\n        /* \"#utility.yul\":4851:4861   */\n      gt\n        /* \"#utility.yul\":4848:4884   */\n      iszero\n      tag_143\n      jumpi\n        /* \"#utility.yul\":4864:4882   */\n      tag_144\n      tag_91\n      jump\t// in\n    tag_144:\n        /* \"#utility.yul\":4848:4884   */\n    tag_143:\n        /* \"#utility.yul\":4700:4891   */\n      swap3\n      swap2\n      pop\n      pop\n      jump\t// out\n        /* \"#utility.yul\":4897:5059   */\n    tag_92:\n        /* \"#utility.yul\":5037:5051   */\n      0x6e6f207375706572617374650000000000000000000000000000000000000000\n        /* \"#utility.yul\":5033:5034   */\n      0x00\n        /* \"#utility.yul\":5025:5031   */\n      dup3\n        /* \"#utility.yul\":5021:5035   */\n      add\n        /* \"#utility.yul\":5014:5052   */\n      mstore\n        /* \"#utility.yul\":4897:5059   */\n      pop\n      jump\t// out\n        /* \"#utility.yul\":5065:5431   */\n    tag_93:\n        /* \"#utility.yul\":5207:5210   */\n      0x00\n        /* \"#utility.yul\":5228:5295   */\n      tag_147\n        /* \"#utility.yul\":5292:5294   */\n      0x0c\n        /* \"#utility.yul\":5287:5290   */\n      dup4\n        /* \"#utility.yul\":5228:5295   */\n      tag_86\n      jump\t// in\n    tag_147:\n        /* \"#utility.yul\":5221:5295   */\n      swap2\n      pop\n        /* \"#utility.yul\":5304:5397   */\n      tag_148\n        /* \"#utility.yul\":5393:5396   */\n      dup3\n        /* \"#utility.yul\":5304:5397   */\n      tag_92\n      jump\t// in\n    tag_148:\n        /* \"#utility.yul\":5422:5424   */\n      0x20\n        /* \"#utility.yul\":5417:5420   */\n      dup3\n        /* \"#utility.yul\":5413:5425   */\n      add\n        /* \"#utility.yul\":5406:5425   */\n      swap1\n      pop\n        /* \"#utility.yul\":5065:5431   */\n      swap2\n      swap1\n      pop\n      jump\t// out\n        /* \"#utility.yul\":5437:5856   */\n    tag_69:\n        /* \"#utility.yul\":5603:5607   */\n      0x00\n        /* \"#utility.yul\":5641:5643   */\n      0x20\n        /* \"#utility.yul\":5630:5639   */\n      dup3\n        /* \"#utility.yul\":5626:5644   */\n      add\n        /* \"#utility.yul\":5618:5644   */\n      swap1\n      pop\n        /* \"#utility.yul\":5690:5699   */\n      dup2\n        /* \"#utility.yul\":5684:5688   */\n      dup2\n        /* \"#utility.yul\":5680:5700   */\n      sub\n        /* \"#utility.yul\":5676:5677   */\n      0x00\n        /* \"#utility.yul\":5665:5674   */\n      dup4\n        /* \"#utility.yul\":5661:5678   */\n      add\n        /* \"#utility.yul\":5654:5701   */\n      mstore\n        /* \"#utility.yul\":5718:5849   */\n      tag_150\n        /* \"#utility.yul\":5844:5848   */\n      dup2\n        /* \"#utility.yul\":5718:5849   */\n      tag_93\n      jump\t// in\n    tag_150:\n        /* \"#utility.yul\":5710:5849   */\n      swap1\n      pop\n        /* \"#utility.yul\":5437:5856   */\n      swap2\n      swap1\n      pop\n      jump\t// out\n        /* \"#utility.yul\":5862:6035   */\n    tag_94:\n        /* \"#utility.yul\":6002:6027   */\n      0x7573746564206e6f207469656e65207065726d69736f73000000000000000000\n        /* \"#utility.yul\":5998:5999   */\n      0x00\n        /* \"#utility.yul\":5990:5996   */\n      dup3\n        /* \"#utility.yul\":5986:6000   */\n      add\n        /* \"#utility.yul\":5979:6028   */\n      mstore\n        /* \"#utility.yul\":5862:6035   */\n      pop\n      jump\t// out\n        /* \"#utility.yul\":6041:6407   */\n    tag_95:\n        /* \"#utility.yul\":6183:6186   */\n      0x00\n        /* \"#utility.yul\":6204:6271   */\n      tag_153\n        /* \"#utility.yul\":6268:6270   */\n      0x17\n        /* \"#utility.yul\":6263:6266   */\n      dup4\n        /* \"#utility.yul\":6204:6271   */\n      tag_86\n      jump\t// in\n    tag_153:\n        /* \"#utility.yul\":6197:6271   */\n      swap2\n      pop\n        /* \"#utility.yul\":6280:6373   */\n      tag_154\n        /* \"#utility.yul\":6369:6372   */\n      dup3\n        /* \"#utility.yul\":6280:6373   */\n      tag_94\n      jump\t// in\n    tag_154:\n        /* \"#utility.yul\":6398:6400   */\n      0x20\n        /* \"#utility.yul\":6393:6396   */\n      dup3\n        /* \"#utility.yul\":6389:6401   */\n      add\n        /* \"#utility.yul\":6382:6401   */\n      swap1\n      pop\n        /* \"#utility.yul\":6041:6407   */\n      swap2\n      swap1\n      pop\n      jump\t// out\n        /* \"#utility.yul\":6413:6832   */\n    tag_73:\n        /* \"#utility.yul\":6579:6583   */\n      0x00\n        /* \"#utility.yul\":6617:6619   */\n      0x20\n        /* \"#utility.yul\":6606:6615   */\n      dup3\n        /* \"#utility.yul\":6602:6620   */\n      add\n        /* \"#utility.yul\":6594:6620   */\n      swap1\n      pop\n        /* \"#utility.yul\":6666:6675   */\n      dup2\n        /* \"#utility.yul\":6660:6664   */\n      dup2\n        /* \"#utility.yul\":6656:6676   */\n      sub\n        /* \"#utility.yul\":6652:6653   */\n      0x00\n        /* \"#utility.yul\":6641:6650   */\n      dup4\n        /* \"#utility.yul\":6637:6654   */\n      add\n        /* \"#utility.yul\":6630:6677   */\n      mstore\n        /* \"#utility.yul\":6694:6825   */\n      tag_156\n        /* \"#utility.yul\":6820:6824   */\n      dup2\n        /* \"#utility.yul\":6694:6825   */\n      tag_95\n      jump\t// in\n    tag_156:\n        /* \"#utility.yul\":6686:6825   */\n      swap1\n      pop\n        /* \"#utility.yul\":6413:6832   */\n      swap2\n      swap1\n      pop\n      jump\t// out\n\n    auxdata: 0xa2646970667358221220933db171c0b94c9748f14080302c3300207398e6f8f48f3aed3670f8624f0c9364736f6c634300081a0033\n}\n",
				"bytecode": {
					"linkReferences": {},
					"object": "6080604052348015600e575f80fd5b503360055f6101000a81548173ffffffffffffffffffffffffffffffffffffffff021916908373ffffffffffffffffffffffffffffffffffffffff160217905550633b9aca005f819055504260018190555062093a80600154606f919060af565b60028190555060db565b5f819050919050565b7f4e487b71000000000000000000000000000000000000000000000000000000005f52601160045260245ffd5b5f60b7826079565b915060c0836079565b925082820190508082111560d55760d46082565b5b92915050565b610835806100e85f395ff3fe608060405260043610610090575f3560e01c806383f280941161005857806383f2809414610144578063865493691461016e5780638da5cb5b14610198578063cb4ee133146101c2578063fc373179146101ec57610090565b8063209e1d46146100945780633483b353146100be57806335e55041146100fa5780633f0cc5e8146101245780634567bf0c1461012e575b5f80fd5b34801561009f575f80fd5b506100a8610216565b6040516100b59190610518565b60405180910390f35b3480156100c9575f80fd5b506100e460048036038101906100df919061055f565b61023e565b6040516100f191906105a2565b60405180910390f35b348015610105575f80fd5b5061010e610253565b60405161011b91906105a2565b60405180910390f35b61012c61025c565b005b348015610139575f80fd5b506101426103e3565b005b34801561014f575f80fd5b50610158610490565b60405161016591906105a2565b60405180910390f35b348015610179575f80fd5b50610182610495565b60405161018f91906105a2565b60405180910390f35b3480156101a3575f80fd5b506101ac61049b565b6040516101b99190610518565b60405180910390f35b3480156101cd575f80fd5b506101d66104c0565b6040516101e391906105d6565b60405180910390f35b3480156101f7575f80fd5b506102006104d3565b60405161020d91906105a2565b60405180910390f35b5f60045f9054906101000a900473ffffffffffffffffffffffffffffffffffffffff16905090565b6006602052805f5260405f205f915090505481565b5f600354905090565b5f600460149054906101000a900460ff1660ff16146102b0576040517f08c379a00000000000000000000000000000000000000000000000000000000081526004016102a790610649565b60405180910390fd5b5f3490505f5481116102f7576040517f08c379a00000000000000000000000000000000000000000000000000000000081526004016102ee906106b1565b60405180910390fd5b6003548111156103a5575f339050816003819055508060045f6101000a81548173ffffffffffffffffffffffffffffffffffffffff021916908373ffffffffffffffffffffffffffffffffffffffff1602179055508160065f8373ffffffffffffffffffffffffffffffffffffffff1673ffffffffffffffffffffffffffffffffffffffff1681526020019081526020015f205f82825461039891906106fc565b92505081905550506103e0565b6040517f08c379a00000000000000000000000000000000000000000000000000000000081526004016103d790610779565b60405180910390fd5b50565b3373ffffffffffffffffffffffffffffffffffffffff1660055f9054906101000a900473ffffffffffffffffffffffffffffffffffffffff1673ffffffffffffffffffffffffffffffffffffffff1614610472576040517f08c379a0000000000000000000000000000000000000000000000000000000008152600401610469906107e1565b60405180910390fd5b6001600460146101000a81548160ff021916908360ff160217905550565b5f5481565b60025481565b60055f9054906101000a900473ffffffffffffffffffffffffffffffffffffffff1681565b600460149054906101000a900460ff1681565b60015481565b5f73ffffffffffffffffffffffffffffffffffffffff82169050919050565b5f610502826104d9565b9050919050565b610512816104f8565b82525050565b5f60208201905061052b5f830184610509565b92915050565b5f80fd5b61053e816104f8565b8114610548575f80fd5b50565b5f8135905061055981610535565b92915050565b5f6020828403121561057457610573610531565b5b5f6105818482850161054b565b91505092915050565b5f819050919050565b61059c8161058a565b82525050565b5f6020820190506105b55f830184610593565b92915050565b5f60ff82169050919050565b6105d0816105bb565b82525050565b5f6020820190506105e95f8301846105c7565b92915050565b5f82825260208201905092915050565b7f4c612073756261737461207465726d696e6f00000000000000000000000000005f82015250565b5f6106336012836105ef565b915061063e826105ff565b602082019050919050565b5f6020820190508181035f83015261066081610627565b9050919050565b7f76616c6f72206d656e6f7220616c20696e696369616c000000000000000000005f82015250565b5f61069b6016836105ef565b91506106a682610667565b602082019050919050565b5f6020820190508181035f8301526106c88161068f565b9050919050565b7f4e487b71000000000000000000000000000000000000000000000000000000005f52601160045260245ffd5b5f6107068261058a565b91506107118361058a565b9250828201905080821115610729576107286106cf565b5b92915050565b7f6e6f2073757065726173746500000000000000000000000000000000000000005f82015250565b5f610763600c836105ef565b915061076e8261072f565b602082019050919050565b5f6020820190508181035f83015261079081610757565b9050919050565b7f7573746564206e6f207469656e65207065726d69736f730000000000000000005f82015250565b5f6107cb6017836105ef565b91506107d682610797565b602082019050919050565b5f6020820190508181035f8301526107f8816107bf565b905091905056fea2646970667358221220933db171c0b94c9748f14080302c3300207398e6f8f48f3aed3670f8624f0c9364736f6c634300081a0033",
					"opcodes": "PUSH1 0x80 PUSH1 0x40 MSTORE CALLVALUE DUP1 ISZERO PUSH1 0xE JUMPI PUSH0 DUP1 REVERT JUMPDEST POP CALLER PUSH1 0x5 PUSH0 PUSH2 0x100 EXP DUP2 SLOAD DUP2 PUSH20 0xFFFFFFFFFFFFFFFFFFFFFFFFFFFFFFFFFFFFFFFF MUL NOT AND SWAP1 DUP4 PUSH20 0xFFFFFFFFFFFFFFFFFFFFFFFFFFFFFFFFFFFFFFFF AND MUL OR SWAP1 SSTORE POP PUSH4 0x3B9ACA00 PUSH0 DUP2 SWAP1 SSTORE POP TIMESTAMP PUSH1 0x1 DUP2 SWAP1 SSTORE POP PUSH3 0x93A80 PUSH1 0x1 SLOAD PUSH1 0x6F SWAP2 SWAP1 PUSH1 0xAF JUMP JUMPDEST PUSH1 0x2 DUP2 SWAP1 SSTORE POP PUSH1 0xDB JUMP JUMPDEST PUSH0 DUP2 SWAP1 POP SWAP2 SWAP1 POP JUMP JUMPDEST PUSH32 0x4E487B7100000000000000000000000000000000000000000000000000000000 PUSH0 MSTORE PUSH1 0x11 PUSH1 0x4 MSTORE PUSH1 0x24 PUSH0 REVERT JUMPDEST PUSH0 PUSH1 0xB7 DUP3 PUSH1 0x79 JUMP JUMPDEST SWAP2 POP PUSH1 0xC0 DUP4 PUSH1 0x79 JUMP JUMPDEST SWAP3 POP DUP3 DUP3 ADD SWAP1 POP DUP1 DUP3 GT ISZERO PUSH1 0xD5 JUMPI PUSH1 0xD4 PUSH1 0x82 JUMP JUMPDEST JUMPDEST SWAP3 SWAP2 POP POP JUMP JUMPDEST PUSH2 0x835 DUP1 PUSH2 0xE8 PUSH0 CODECOPY PUSH0 RETURN INVALID PUSH1 0x80 PUSH1 0x40 MSTORE PUSH1 0x4 CALLDATASIZE LT PUSH2 0x90 JUMPI PUSH0 CALLDATALOAD PUSH1 0xE0 SHR DUP1 PUSH4 0x83F28094 GT PUSH2 0x58 JUMPI DUP1 PUSH4 0x83F28094 EQ PUSH2 0x144 JUMPI DUP1 PUSH4 0x86549369 EQ PUSH2 0x16E JUMPI DUP1 PUSH4 0x8DA5CB5B EQ PUSH2 0x198 JUMPI DUP1 PUSH4 0xCB4EE133 EQ PUSH2 0x1C2 JUMPI DUP1 PUSH4 0xFC373179 EQ PUSH2 0x1EC JUMPI PUSH2 0x90 JUMP JUMPDEST DUP1 PUSH4 0x209E1D46 EQ PUSH2 0x94 JUMPI DUP1 PUSH4 0x3483B353 EQ PUSH2 0xBE JUMPI DUP1 PUSH4 0x35E55041 EQ PUSH2 0xFA JUMPI DUP1 PUSH4 0x3F0CC5E8 EQ PUSH2 0x124 JUMPI DUP1 PUSH4 0x4567BF0C EQ PUSH2 0x12E JUMPI JUMPDEST PUSH0 DUP1 REVERT JUMPDEST CALLVALUE DUP1 ISZERO PUSH2 0x9F JUMPI PUSH0 DUP1 REVERT JUMPDEST POP PUSH2 0xA8 PUSH2 0x216 JUMP JUMPDEST PUSH1 0x40 MLOAD PUSH2 0xB5 SWAP2 SWAP1 PUSH2 0x518 JUMP JUMPDEST PUSH1 0x40 MLOAD DUP1 SWAP2 SUB SWAP1 RETURN JUMPDEST CALLVALUE DUP1 ISZERO PUSH2 0xC9 JUMPI PUSH0 DUP1 REVERT JUMPDEST POP PUSH2 0xE4 PUSH1 0x4 DUP1 CALLDATASIZE SUB DUP2 ADD SWAP1 PUSH2 0xDF SWAP2 SWAP1 PUSH2 0x55F JUMP JUMPDEST PUSH2 0x23E JUMP JUMPDEST PUSH1 0x40 MLOAD PUSH2 0xF1 SWAP2 SWAP1 PUSH2 0x5A2 JUMP JUMPDEST PUSH1 0x40 MLOAD DUP1 SWAP2 SUB SWAP1 RETURN JUMPDEST CALLVALUE DUP1 ISZERO PUSH2 0x105 JUMPI PUSH0 DUP1 REVERT JUMPDEST POP PUSH2 0x10E PUSH2 0x253 JUMP JUMPDEST PUSH1 0x40 MLOAD PUSH2 0x11B SWAP2 SWAP1 PUSH2 0x5A2 JUMP JUMPDEST PUSH1 0x40 MLOAD DUP1 SWAP2 SUB SWAP1 RETURN JUMPDEST PUSH2 0x12C PUSH2 0x25C JUMP JUMPDEST STOP JUMPDEST CALLVALUE DUP1 ISZERO PUSH2 0x139 JUMPI PUSH0 DUP1 REVERT JUMPDEST POP PUSH2 0x142 PUSH2 0x3E3 JUMP JUMPDEST STOP JUMPDEST CALLVALUE DUP1 ISZERO PUSH2 0x14F JUMPI PUSH0 DUP1 REVERT JUMPDEST POP PUSH2 0x158 PUSH2 0x490 JUMP JUMPDEST PUSH1 0x40 MLOAD PUSH2 0x165 SWAP2 SWAP1 PUSH2 0x5A2 JUMP JUMPDEST PUSH1 0x40 MLOAD DUP1 SWAP2 SUB SWAP1 RETURN JUMPDEST CALLVALUE DUP1 ISZERO PUSH2 0x179 JUMPI PUSH0 DUP1 REVERT JUMPDEST POP PUSH2 0x182 PUSH2 0x495 JUMP JUMPDEST PUSH1 0x40 MLOAD PUSH2 0x18F SWAP2 SWAP1 PUSH2 0x5A2 JUMP JUMPDEST PUSH1 0x40 MLOAD DUP1 SWAP2 SUB SWAP1 RETURN JUMPDEST CALLVALUE DUP1 ISZERO PUSH2 0x1A3 JUMPI PUSH0 DUP1 REVERT JUMPDEST POP PUSH2 0x1AC PUSH2 0x49B JUMP JUMPDEST PUSH1 0x40 MLOAD PUSH2 0x1B9 SWAP2 SWAP1 PUSH2 0x518 JUMP JUMPDEST PUSH1 0x40 MLOAD DUP1 SWAP2 SUB SWAP1 RETURN JUMPDEST CALLVALUE DUP1 ISZERO PUSH2 0x1CD JUMPI PUSH0 DUP1 REVERT JUMPDEST POP PUSH2 0x1D6 PUSH2 0x4C0 JUMP JUMPDEST PUSH1 0x40 MLOAD PUSH2 0x1E3 SWAP2 SWAP1 PUSH2 0x5D6 JUMP JUMPDEST PUSH1 0x40 MLOAD DUP1 SWAP2 SUB SWAP1 RETURN JUMPDEST CALLVALUE DUP1 ISZERO PUSH2 0x1F7 JUMPI PUSH0 DUP1 REVERT JUMPDEST POP PUSH2 0x200 PUSH2 0x4D3 JUMP JUMPDEST PUSH1 0x40 MLOAD PUSH2 0x20D SWAP2 SWAP1 PUSH2 0x5A2 JUMP JUMPDEST PUSH1 0x40 MLOAD DUP1 SWAP2 SUB SWAP1 RETURN JUMPDEST PUSH0 PUSH1 0x4 PUSH0 SWAP1 SLOAD SWAP1 PUSH2 0x100 EXP SWAP1 DIV PUSH20 0xFFFFFFFFFFFFFFFFFFFFFFFFFFFFFFFFFFFFFFFF AND SWAP1 POP SWAP1 JUMP JUMPDEST PUSH1 0x6 PUSH1 0x20 MSTORE DUP1 PUSH0 MSTORE PUSH1 0x40 PUSH0 KECCAK256 PUSH0 SWAP2 POP SWAP1 POP SLOAD DUP2 JUMP JUMPDEST PUSH0 PUSH1 0x3 SLOAD SWAP1 POP SWAP1 JUMP JUMPDEST PUSH0 PUSH1 0x4 PUSH1 0x14 SWAP1 SLOAD SWAP1 PUSH2 0x100 EXP SWAP1 DIV PUSH1 0xFF AND PUSH1 0xFF AND EQ PUSH2 0x2B0 JUMPI PUSH1 0x40 MLOAD PUSH32 0x8C379A000000000000000000000000000000000000000000000000000000000 DUP2 MSTORE PUSH1 0x4 ADD PUSH2 0x2A7 SWAP1 PUSH2 0x649 JUMP JUMPDEST PUSH1 0x40 MLOAD DUP1 SWAP2 SUB SWAP1 REVERT JUMPDEST PUSH0 CALLVALUE SWAP1 POP PUSH0 SLOAD DUP2 GT PUSH2 0x2F7 JUMPI PUSH1 0x40 MLOAD PUSH32 0x8C379A000000000000000000000000000000000000000000000000000000000 DUP2 MSTORE PUSH1 0x4 ADD PUSH2 0x2EE SWAP1 PUSH2 0x6B1 JUMP JUMPDEST PUSH1 0x40 MLOAD DUP1 SWAP2 SUB SWAP1 REVERT JUMPDEST PUSH1 0x3 SLOAD DUP2 GT ISZERO PUSH2 0x3A5 JUMPI PUSH0 CALLER SWAP1 POP DUP2 PUSH1 0x3 DUP2 SWAP1 SSTORE POP DUP1 PUSH1 0x4 PUSH0 PUSH2 0x100 EXP DUP2 SLOAD DUP2 PUSH20 0xFFFFFFFFFFFFFFFFFFFFFFFFFFFFFFFFFFFFFFFF MUL NOT AND SWAP1 DUP4 PUSH20 0xFFFFFFFFFFFFFFFFFFFFFFFFFFFFFFFFFFFFFFFF AND MUL OR SWAP1 SSTORE POP DUP2 PUSH1 0x6 PUSH0 DUP4 PUSH20 0xFFFFFFFFFFFFFFFFFFFFFFFFFFFFFFFFFFFFFFFF AND PUSH20 0xFFFFFFFFFFFFFFFFFFFFFFFFFFFFFFFFFFFFFFFF AND DUP2 MSTORE PUSH1 0x20 ADD SWAP1 DUP2 MSTORE PUSH1 0x20 ADD PUSH0 KECCAK256 PUSH0 DUP3 DUP3 SLOAD PUSH2 0x398 SWAP2 SWAP1 PUSH2 0x6FC JUMP JUMPDEST SWAP3 POP POP DUP2 SWAP1 SSTORE POP POP PUSH2 0x3E0 JUMP JUMPDEST PUSH1 0x40 MLOAD PUSH32 0x8C379A000000000000000000000000000000000000000000000000000000000 DUP2 MSTORE PUSH1 0x4 ADD PUSH2 0x3D7 SWAP1 PUSH2 0x779 JUMP JUMPDEST PUSH1 0x40 MLOAD DUP1 SWAP2 SUB SWAP1 REVERT JUMPDEST POP JUMP JUMPDEST CALLER PUSH20 0xFFFFFFFFFFFFFFFFFFFFFFFFFFFFFFFFFFFFFFFF AND PUSH1 0x5 PUSH0 SWAP1 SLOAD SWAP1 PUSH2 0x100 EXP SWAP1 DIV PUSH20 0xFFFFFFFFFFFFFFFFFFFFFFFFFFFFFFFFFFFFFFFF AND PUSH20 0xFFFFFFFFFFFFFFFFFFFFFFFFFFFFFFFFFFFFFFFF AND EQ PUSH2 0x472 JUMPI PUSH1 0x40 MLOAD PUSH32 0x8C379A000000000000000000000000000000000000000000000000000000000 DUP2 MSTORE PUSH1 0x4 ADD PUSH2 0x469 SWAP1 PUSH2 0x7E1 JUMP JUMPDEST PUSH1 0x40 MLOAD DUP1 SWAP2 SUB SWAP1 REVERT JUMPDEST PUSH1 0x1 PUSH1 0x4 PUSH1 0x14 PUSH2 0x100 EXP DUP2 SLOAD DUP2 PUSH1 0xFF MUL NOT AND SWAP1 DUP4 PUSH1 0xFF AND MUL OR SWAP1 SSTORE POP JUMP JUMPDEST PUSH0 SLOAD DUP2 JUMP JUMPDEST PUSH1 0x2 SLOAD DUP2 JUMP JUMPDEST PUSH1 0x5 PUSH0 SWAP1 SLOAD SWAP1 PUSH2 0x100 EXP SWAP1 DIV PUSH20 0xFFFFFFFFFFFFFFFFFFFFFFFFFFFFFFFFFFFFFFFF AND DUP2 JUMP JUMPDEST PUSH1 0x4 PUSH1 0x14 SWAP1 SLOAD SWAP1 PUSH2 0x100 EXP SWAP1 DIV PUSH1 0xFF AND DUP2 JUMP JUMPDEST PUSH1 0x1 SLOAD DUP2 JUMP JUMPDEST PUSH0 PUSH20 0xFFFFFFFFFFFFFFFFFFFFFFFFFFFFFFFFFFFFFFFF DUP3 AND SWAP1 POP SWAP2 SWAP1 POP JUMP JUMPDEST PUSH0 PUSH2 0x502 DUP3 PUSH2 0x4D9 JUMP JUMPDEST SWAP1 POP SWAP2 SWAP1 POP JUMP JUMPDEST PUSH2 0x512 DUP2 PUSH2 0x4F8 JUMP JUMPDEST DUP3 MSTORE POP POP JUMP JUMPDEST PUSH0 PUSH1 0x20 DUP3 ADD SWAP1 POP PUSH2 0x52B PUSH0 DUP4 ADD DUP5 PUSH2 0x509 JUMP JUMPDEST SWAP3 SWAP2 POP POP JUMP JUMPDEST PUSH0 DUP1 REVERT JUMPDEST PUSH2 0x53E DUP2 PUSH2 0x4F8 JUMP JUMPDEST DUP2 EQ PUSH2 0x548 JUMPI PUSH0 DUP1 REVERT JUMPDEST POP JUMP JUMPDEST PUSH0 DUP2 CALLDATALOAD SWAP1 POP PUSH2 0x559 DUP2 PUSH2 0x535 JUMP JUMPDEST SWAP3 SWAP2 POP POP JUMP JUMPDEST PUSH0 PUSH1 0x20 DUP3 DUP5 SUB SLT ISZERO PUSH2 0x574 JUMPI PUSH2 0x573 PUSH2 0x531 JUMP JUMPDEST JUMPDEST PUSH0 PUSH2 0x581 DUP5 DUP3 DUP6 ADD PUSH2 0x54B JUMP JUMPDEST SWAP2 POP POP SWAP3 SWAP2 POP POP JUMP JUMPDEST PUSH0 DUP2 SWAP1 POP SWAP2 SWAP1 POP JUMP JUMPDEST PUSH2 0x59C DUP2 PUSH2 0x58A JUMP JUMPDEST DUP3 MSTORE POP POP JUMP JUMPDEST PUSH0 PUSH1 0x20 DUP3 ADD SWAP1 POP PUSH2 0x5B5 PUSH0 DUP4 ADD DUP5 PUSH2 0x593 JUMP JUMPDEST SWAP3 SWAP2 POP POP JUMP JUMPDEST PUSH0 PUSH1 0xFF DUP3 AND SWAP1 POP SWAP2 SWAP1 POP JUMP JUMPDEST PUSH2 0x5D0 DUP2 PUSH2 0x5BB JUMP JUMPDEST DUP3 MSTORE POP POP JUMP JUMPDEST PUSH0 PUSH1 0x20 DUP3 ADD SWAP1 POP PUSH2 0x5E9 PUSH0 DUP4 ADD DUP5 PUSH2 0x5C7 JUMP JUMPDEST SWAP3 SWAP2 POP POP JUMP JUMPDEST PUSH0 DUP3 DUP3 MSTORE PUSH1 0x20 DUP3 ADD SWAP1 POP SWAP3 SWAP2 POP POP JUMP JUMPDEST PUSH32 0x4C612073756261737461207465726D696E6F0000000000000000000000000000 PUSH0 DUP3 ADD MSTORE POP JUMP JUMPDEST PUSH0 PUSH2 0x633 PUSH1 0x12 DUP4 PUSH2 0x5EF JUMP JUMPDEST SWAP2 POP PUSH2 0x63E DUP3 PUSH2 0x5FF JUMP JUMPDEST PUSH1 0x20 DUP3 ADD SWAP1 POP SWAP2 SWAP1 POP JUMP JUMPDEST PUSH0 PUSH1 0x20 DUP3 ADD SWAP1 POP DUP2 DUP2 SUB PUSH0 DUP4 ADD MSTORE PUSH2 0x660 DUP2 PUSH2 0x627 JUMP JUMPDEST SWAP1 POP SWAP2 SWAP1 POP JUMP JUMPDEST PUSH32 0x76616C6F72206D656E6F7220616C20696E696369616C00000000000000000000 PUSH0 DUP3 ADD MSTORE POP JUMP JUMPDEST PUSH0 PUSH2 0x69B PUSH1 0x16 DUP4 PUSH2 0x5EF JUMP JUMPDEST SWAP2 POP PUSH2 0x6A6 DUP3 PUSH2 0x667 JUMP JUMPDEST PUSH1 0x20 DUP3 ADD SWAP1 POP SWAP2 SWAP1 POP JUMP JUMPDEST PUSH0 PUSH1 0x20 DUP3 ADD SWAP1 POP DUP2 DUP2 SUB PUSH0 DUP4 ADD MSTORE PUSH2 0x6C8 DUP2 PUSH2 0x68F JUMP JUMPDEST SWAP1 POP SWAP2 SWAP1 POP JUMP JUMPDEST PUSH32 0x4E487B7100000000000000000000000000000000000000000000000000000000 PUSH0 MSTORE PUSH1 0x11 PUSH1 0x4 MSTORE PUSH1 0x24 PUSH0 REVERT JUMPDEST PUSH0 PUSH2 0x706 DUP3 PUSH2 0x58A JUMP JUMPDEST SWAP2 POP PUSH2 0x711 DUP4 PUSH2 0x58A JUMP JUMPDEST SWAP3 POP DUP3 DUP3 ADD SWAP1 POP DUP1 DUP3 GT ISZERO PUSH2 0x729 JUMPI PUSH2 0x728 PUSH2 0x6CF JUMP JUMPDEST JUMPDEST SWAP3 SWAP2 POP POP JUMP JUMPDEST PUSH32 0x6E6F207375706572617374650000000000000000000000000000000000000000 PUSH0 DUP3 ADD MSTORE POP JUMP JUMPDEST PUSH0 PUSH2 0x763 PUSH1 0xC DUP4 PUSH2 0x5EF JUMP JUMPDEST SWAP2 POP PUSH2 0x76E DUP3 PUSH2 0x72F JUMP JUMPDEST PUSH1 0x20 DUP3 ADD SWAP1 POP SWAP2 SWAP1 POP JUMP JUMPDEST PUSH0 PUSH1 0x20 DUP3 ADD SWAP1 POP DUP2 DUP2 SUB PUSH0 DUP4 ADD MSTORE PUSH2 0x790 DUP2 PUSH2 0x757 JUMP JUMPDEST SWAP1 POP SWAP2 SWAP1 POP JUMP JUMPDEST PUSH32 0x7573746564206E6F207469656E65207065726D69736F73000000000000000000 PUSH0 DUP3 ADD MSTORE POP JUMP JUMPDEST PUSH0 PUSH2 0x7CB PUSH1 0x17 DUP4 PUSH2 0x5EF JUMP JUMPDEST SWAP2 POP PUSH2 0x7D6 DUP3 PUSH2 0x797 JUMP JUMPDEST PUSH1 0x20 DUP3 ADD SWAP1 POP SWAP2 SWAP1 POP JUMP JUMPDEST PUSH0 PUSH1 0x20 DUP3 ADD SWAP1 POP DUP2 DUP2 SUB PUSH0 DUP4 ADD MSTORE PUSH2 0x7F8 DUP2 PUSH2 0x7BF JUMP JUMPDEST SWAP1 POP SWAP2 SWAP1 POP JUMP INVALID LOG2 PUSH5 0x6970667358 0x22 SLT KECCAK256 SWAP4 RETURNDATASIZE 0xB1 PUSH18 0xC0B94C9748F14080302C3300207398E6F8F4 DUP16 GASPRICE 0xED CALLDATASIZE PUSH17 0xF8624F0C9364736F6C634300081A003300 "
				},
				"gasEstimates": {
					"creation": {
						"codeDepositCost": "420200",
						"executionCost": "infinite",
						"totalCost": "infinite"
					},
					"external": {
						"FializarSubasta()": "26718",
						"fechaInicio()": "2513",
						"getMayorOferta()": "2477",
						"getOferenteGanador()": "2516",
						"owner()": "2552",
						"semaforo()": "2583",
						"setOferta()": "infinite",
						"tiempoDuracion()": "2447",
						"valorInicial()": "2424",
						"valorMetido(address)": "2825"
					}
				},
				"methodIdentifiers": {
					"FializarSubasta()": "4567bf0c",
					"fechaInicio()": "fc373179",
					"getMayorOferta()": "35e55041",
					"getOferenteGanador()": "209e1d46",
					"owner()": "8da5cb5b",
					"semaforo()": "cb4ee133",
					"setOferta()": "3f0cc5e8",
					"tiempoDuracion()": "86549369",
					"valorInicial()": "83f28094",
					"valorMetido(address)": "3483b353"
				}
			},
			"storageLayout": {
				"storage": [
					{
						"astId": 3,
						"contract": "contracts/EjemploSubastaClase.sol:Subasta",
						"label": "valorInicial",
						"offset": 0,
						"slot": "0",
						"type": "t_uint256"
					},
					{
						"astId": 5,
						"contract": "contracts/EjemploSubastaClase.sol:Subasta",
						"label": "fechaInicio",
						"offset": 0,
						"slot": "1",
						"type": "t_uint256"
					},
					{
						"astId": 7,
						"contract": "contracts/EjemploSubastaClase.sol:Subasta",
						"label": "tiempoDuracion",
						"offset": 0,
						"slot": "2",
						"type": "t_uint256"
					},
					{
						"astId": 9,
						"contract": "contracts/EjemploSubastaClase.sol:Subasta",
						"label": "mayorOferta",
						"offset": 0,
						"slot": "3",
						"type": "t_uint256"
					},
					{
						"astId": 11,
						"contract": "contracts/EjemploSubastaClase.sol:Subasta",
						"label": "ofertanteGanador",
						"offset": 0,
						"slot": "4",
						"type": "t_address"
					},
					{
						"astId": 13,
						"contract": "contracts/EjemploSubastaClase.sol:Subasta",
						"label": "semaforo",
						"offset": 20,
						"slot": "4",
						"type": "t_uint8"
					},
					{
						"astId": 15,
						"contract": "contracts/EjemploSubastaClase.sol:Subasta",
						"label": "owner",
						"offset": 0,
						"slot": "5",
						"type": "t_address"
					},
					{
						"astId": 19,
						"contract": "contracts/EjemploSubastaClase.sol:Subasta",
						"label": "valorMetido",
						"offset": 0,
						"slot": "6",
						"type": "t_mapping(t_address,t_uint256)"
					}
				],
				"types": {
					"t_address": {
						"encoding": "inplace",
						"label": "address",
						"numberOfBytes": "20"
					},
					"t_mapping(t_address,t_uint256)": {
						"encoding": "mapping",
						"key": "t_address",
						"label": "mapping(address => uint256)",
						"numberOfBytes": "32",
						"value": "t_uint256"
					},
					"t_uint256": {
						"encoding": "inplace",
						"label": "uint256",
						"numberOfBytes": "32"
					},
					"t_uint8": {
						"encoding": "inplace",
						"label": "uint8",
						"numberOfBytes": "1"
					}
				}
			},
			"userdoc": {
				"kind": "user",
				"methods": {},
				"version": 1
			}
		}
	}
}