{
	"contracts/TPSubastaW-v1.sol": {
		"Subasta": {
			"abi": [
				{
					"inputs": [
						{
							"internalType": "uint256",
							"name": "_auctionDurationMinutes",
							"type": "uint256"
						}
					],
					"stateMutability": "nonpayable",
					"type": "constructor"
				},
				{
					"anonymous": false,
					"inputs": [
						{
							"indexed": false,
							"internalType": "address",
							"name": "winner",
							"type": "address"
						},
						{
							"indexed": false,
							"internalType": "uint256",
							"name": "amount",
							"type": "uint256"
						}
					],
					"name": "AuctionEnded",
					"type": "event"
				},
				{
					"anonymous": false,
					"inputs": [
						{
							"indexed": false,
							"internalType": "uint256",
							"name": "newBidEndTime",
							"type": "uint256"
						}
					],
					"name": "AuctionExtended",
					"type": "event"
				},
				{
					"anonymous": false,
					"inputs": [
						{
							"indexed": true,
							"internalType": "address",
							"name": "bidder",
							"type": "address"
						},
						{
							"indexed": false,
							"internalType": "uint256",
							"name": "amount",
							"type": "uint256"
						},
						{
							"indexed": false,
							"internalType": "uint256",
							"name": "timestamp",
							"type": "uint256"
						}
					],
					"name": "NewBid",
					"type": "event"
				},
				{
					"anonymous": false,
					"inputs": [
						{
							"indexed": true,
							"internalType": "address",
							"name": "bidder",
							"type": "address"
						},
						{
							"indexed": false,
							"internalType": "uint256",
							"name": "amount",
							"type": "uint256"
						}
					],
					"name": "Refund",
					"type": "event"
				},
				{
					"inputs": [],
					"name": "BID_INC_PERCENT",
					"outputs": [
						{
							"internalType": "uint256",
							"name": "",
							"type": "uint256"
						}
					],
					"stateMutability": "view",
					"type": "function"
				},
				{
					"inputs": [],
					"name": "EXTENSION_TIME",
					"outputs": [
						{
							"internalType": "uint256",
							"name": "",
							"type": "uint256"
						}
					],
					"stateMutability": "view",
					"type": "function"
				},
				{
					"inputs": [],
					"name": "GAS_FEE_PERCENT",
					"outputs": [
						{
							"internalType": "uint256",
							"name": "",
							"type": "uint256"
						}
					],
					"stateMutability": "view",
					"type": "function"
				},
				{
					"inputs": [],
					"name": "auctionEnded",
					"outputs": [
						{
							"internalType": "bool",
							"name": "",
							"type": "bool"
						}
					],
					"stateMutability": "view",
					"type": "function"
				},
				{
					"inputs": [],
					"name": "auctioneer",
					"outputs": [
						{
							"internalType": "address payable",
							"name": "",
							"type": "address"
						}
					],
					"stateMutability": "view",
					"type": "function"
				},
				{
					"inputs": [],
					"name": "bidEndTime",
					"outputs": [
						{
							"internalType": "uint256",
							"name": "",
							"type": "uint256"
						}
					],
					"stateMutability": "view",
					"type": "function"
				},
				{
					"inputs": [],
					"name": "bidStartTime",
					"outputs": [
						{
							"internalType": "uint256",
							"name": "",
							"type": "uint256"
						}
					],
					"stateMutability": "view",
					"type": "function"
				},
				{
					"inputs": [
						{
							"internalType": "uint256",
							"name": "",
							"type": "uint256"
						}
					],
					"name": "bids",
					"outputs": [
						{
							"internalType": "address payable",
							"name": "bidder",
							"type": "address"
						},
						{
							"internalType": "uint256",
							"name": "amount",
							"type": "uint256"
						}
					],
					"stateMutability": "view",
					"type": "function"
				},
				{
					"inputs": [
						{
							"internalType": "address",
							"name": "",
							"type": "address"
						}
					],
					"name": "deposits",
					"outputs": [
						{
							"internalType": "uint256",
							"name": "",
							"type": "uint256"
						}
					],
					"stateMutability": "view",
					"type": "function"
				},
				{
					"inputs": [],
					"name": "finalizeAuction",
					"outputs": [],
					"stateMutability": "nonpayable",
					"type": "function"
				},
				{
					"inputs": [],
					"name": "getWinner",
					"outputs": [
						{
							"internalType": "address",
							"name": "",
							"type": "address"
						},
						{
							"internalType": "uint256",
							"name": "",
							"type": "uint256"
						}
					],
					"stateMutability": "view",
					"type": "function"
				},
				{
					"inputs": [],
					"name": "highestBid",
					"outputs": [
						{
							"internalType": "address payable",
							"name": "bidder",
							"type": "address"
						},
						{
							"internalType": "uint256",
							"name": "amount",
							"type": "uint256"
						}
					],
					"stateMutability": "view",
					"type": "function"
				},
				{
					"inputs": [
						{
							"internalType": "uint256",
							"name": "bidAmount",
							"type": "uint256"
						}
					],
					"name": "placeBid",
					"outputs": [],
					"stateMutability": "payable",
					"type": "function"
				},
				{
					"inputs": [],
					"name": "refundLosingBids",
					"outputs": [],
					"stateMutability": "nonpayable",
					"type": "function"
				}
			],
			"devdoc": {
				"kind": "dev",
				"methods": {},
				"version": 1
			},
			"evm": {
				"assembly": "    /* \"contracts/TPSubastaW-v1.sol\":60:3408  contract Subasta {... */\n  mstore(0x40, 0x80)\n    /* \"contracts/TPSubastaW-v1.sol\":571:818  constructor(uint256 _auctionDurationMinutes) {... */\n  callvalue\n  dup1\n  iszero\n  tag_1\n  jumpi\n  0x00\n  dup1\n  revert\ntag_1:\n  pop\n  mload(0x40)\n  sub(codesize, bytecodeSize)\n  dup1\n  bytecodeSize\n  dup4\n  codecopy\n  dup2\n  dup2\n  add\n  0x40\n  mstore\n  dup2\n  add\n  swap1\n  tag_2\n  swap2\n  swap1\n  tag_3\n  jump\t// in\ntag_2:\n    /* \"contracts/TPSubastaW-v1.sol\":648:658  msg.sender */\n  caller\n    /* \"contracts/TPSubastaW-v1.sol\":627:637  auctioneer */\n  0x00\n  dup1\n    /* \"contracts/TPSubastaW-v1.sol\":627:659  auctioneer = payable(msg.sender) */\n  0x0100\n  exp\n  dup2\n  sload\n  dup2\n  0xffffffffffffffffffffffffffffffffffffffff\n  mul\n  not\n  and\n  swap1\n  dup4\n  0xffffffffffffffffffffffffffffffffffffffff\n  and\n  mul\n  or\n  swap1\n  sstore\n  pop\n    /* \"contracts/TPSubastaW-v1.sol\":685:700  block.timestamp */\n  timestamp\n    /* \"contracts/TPSubastaW-v1.sol\":670:682  bidStartTime */\n  0x01\n    /* \"contracts/TPSubastaW-v1.sol\":670:700  bidStartTime = block.timestamp */\n  dup2\n  swap1\n  sstore\n  pop\n    /* \"contracts/TPSubastaW-v1.sol\":769:778  1 minutes */\n  0x3c\n    /* \"contracts/TPSubastaW-v1.sol\":743:766  _auctionDurationMinutes */\n  dup2\n    /* \"contracts/TPSubastaW-v1.sol\":743:778  _auctionDurationMinutes * 1 minutes */\n  tag_6\n  swap2\n  swap1\n  tag_7\n  jump\t// in\ntag_6:\n    /* \"contracts/TPSubastaW-v1.sol\":724:739  block.timestamp */\n  timestamp\n    /* \"contracts/TPSubastaW-v1.sol\":724:779  block.timestamp + (_auctionDurationMinutes * 1 minutes) */\n  tag_8\n  swap2\n  swap1\n  tag_9\n  jump\t// in\ntag_8:\n    /* \"contracts/TPSubastaW-v1.sol\":711:721  bidEndTime */\n  0x02\n    /* \"contracts/TPSubastaW-v1.sol\":711:779  bidEndTime = block.timestamp + (_auctionDurationMinutes * 1 minutes) */\n  dup2\n  swap1\n  sstore\n  pop\n    /* \"contracts/TPSubastaW-v1.sol\":805:810  false */\n  0x00\n    /* \"contracts/TPSubastaW-v1.sol\":790:802  auctionEnded */\n  0x03\n  0x00\n    /* \"contracts/TPSubastaW-v1.sol\":790:810  auctionEnded = false */\n  0x0100\n  exp\n  dup2\n  sload\n  dup2\n  0xff\n  mul\n  not\n  and\n  swap1\n  dup4\n  iszero\n  iszero\n  mul\n  or\n  swap1\n  sstore\n  pop\n    /* \"contracts/TPSubastaW-v1.sol\":571:818  constructor(uint256 _auctionDurationMinutes) {... */\n  pop\n    /* \"contracts/TPSubastaW-v1.sol\":60:3408  contract Subasta {... */\n  jump(tag_10)\n    /* \"#utility.yul\":88:205   */\ntag_12:\n    /* \"#utility.yul\":197:198   */\n  0x00\n    /* \"#utility.yul\":194:195   */\n  dup1\n    /* \"#utility.yul\":187:199   */\n  revert\n    /* \"#utility.yul\":334:411   */\ntag_14:\n    /* \"#utility.yul\":371:378   */\n  0x00\n    /* \"#utility.yul\":400:405   */\n  dup2\n    /* \"#utility.yul\":389:405   */\n  swap1\n  pop\n    /* \"#utility.yul\":334:411   */\n  swap2\n  swap1\n  pop\n  jump\t// out\n    /* \"#utility.yul\":417:539   */\ntag_15:\n    /* \"#utility.yul\":490:514   */\n  tag_24\n    /* \"#utility.yul\":508:513   */\n  dup2\n    /* \"#utility.yul\":490:514   */\n  tag_14\n  jump\t// in\ntag_24:\n    /* \"#utility.yul\":483:488   */\n  dup2\n    /* \"#utility.yul\":480:515   */\n  eq\n    /* \"#utility.yul\":470:533   */\n  tag_25\n  jumpi\n    /* \"#utility.yul\":529:530   */\n  0x00\n    /* \"#utility.yul\":526:527   */\n  dup1\n    /* \"#utility.yul\":519:531   */\n  revert\n    /* \"#utility.yul\":470:533   */\ntag_25:\n    /* \"#utility.yul\":417:539   */\n  pop\n  jump\t// out\n    /* \"#utility.yul\":545:688   */\ntag_16:\n    /* \"#utility.yul\":602:607   */\n  0x00\n    /* \"#utility.yul\":633:639   */\n  dup2\n    /* \"#utility.yul\":627:640   */\n  mload\n    /* \"#utility.yul\":618:640   */\n  swap1\n  pop\n    /* \"#utility.yul\":649:682   */\n  tag_27\n    /* \"#utility.yul\":676:681   */\n  dup2\n    /* \"#utility.yul\":649:682   */\n  tag_15\n  jump\t// in\ntag_27:\n    /* \"#utility.yul\":545:688   */\n  swap3\n  swap2\n  pop\n  pop\n  jump\t// out\n    /* \"#utility.yul\":694:1045   */\ntag_3:\n    /* \"#utility.yul\":764:770   */\n  0x00\n    /* \"#utility.yul\":813:815   */\n  0x20\n    /* \"#utility.yul\":801:810   */\n  dup3\n    /* \"#utility.yul\":792:799   */\n  dup5\n    /* \"#utility.yul\":788:811   */\n  sub\n    /* \"#utility.yul\":784:816   */\n  slt\n    /* \"#utility.yul\":781:900   */\n  iszero\n  tag_29\n  jumpi\n    /* \"#utility.yul\":819:898   */\n  tag_30\n  tag_12\n  jump\t// in\ntag_30:\n    /* \"#utility.yul\":781:900   */\ntag_29:\n    /* \"#utility.yul\":939:940   */\n  0x00\n    /* \"#utility.yul\":964:1028   */\n  tag_31\n    /* \"#utility.yul\":1020:1027   */\n  dup5\n    /* \"#utility.yul\":1011:1017   */\n  dup3\n    /* \"#utility.yul\":1000:1009   */\n  dup6\n    /* \"#utility.yul\":996:1018   */\n  add\n    /* \"#utility.yul\":964:1028   */\n  tag_16\n  jump\t// in\ntag_31:\n    /* \"#utility.yul\":954:1028   */\n  swap2\n  pop\n    /* \"#utility.yul\":910:1038   */\n  pop\n    /* \"#utility.yul\":694:1045   */\n  swap3\n  swap2\n  pop\n  pop\n  jump\t// out\n    /* \"#utility.yul\":1051:1231   */\ntag_17:\n    /* \"#utility.yul\":1099:1176   */\n  0x4e487b7100000000000000000000000000000000000000000000000000000000\n    /* \"#utility.yul\":1096:1097   */\n  0x00\n    /* \"#utility.yul\":1089:1177   */\n  mstore\n    /* \"#utility.yul\":1196:1200   */\n  0x11\n    /* \"#utility.yul\":1193:1194   */\n  0x04\n    /* \"#utility.yul\":1186:1201   */\n  mstore\n    /* \"#utility.yul\":1220:1224   */\n  0x24\n    /* \"#utility.yul\":1217:1218   */\n  0x00\n    /* \"#utility.yul\":1210:1225   */\n  revert\n    /* \"#utility.yul\":1237:1647   */\ntag_7:\n    /* \"#utility.yul\":1277:1284   */\n  0x00\n    /* \"#utility.yul\":1300:1320   */\n  tag_34\n    /* \"#utility.yul\":1318:1319   */\n  dup3\n    /* \"#utility.yul\":1300:1320   */\n  tag_14\n  jump\t// in\ntag_34:\n    /* \"#utility.yul\":1295:1320   */\n  swap2\n  pop\n    /* \"#utility.yul\":1334:1354   */\n  tag_35\n    /* \"#utility.yul\":1352:1353   */\n  dup4\n    /* \"#utility.yul\":1334:1354   */\n  tag_14\n  jump\t// in\ntag_35:\n    /* \"#utility.yul\":1329:1354   */\n  swap3\n  pop\n    /* \"#utility.yul\":1389:1390   */\n  dup3\n    /* \"#utility.yul\":1386:1387   */\n  dup3\n    /* \"#utility.yul\":1382:1391   */\n  mul\n    /* \"#utility.yul\":1411:1441   */\n  tag_36\n    /* \"#utility.yul\":1429:1440   */\n  dup2\n    /* \"#utility.yul\":1411:1441   */\n  tag_14\n  jump\t// in\ntag_36:\n    /* \"#utility.yul\":1400:1441   */\n  swap2\n  pop\n    /* \"#utility.yul\":1590:1591   */\n  dup3\n    /* \"#utility.yul\":1581:1588   */\n  dup3\n    /* \"#utility.yul\":1577:1592   */\n  div\n    /* \"#utility.yul\":1574:1575   */\n  dup5\n    /* \"#utility.yul\":1571:1593   */\n  eq\n    /* \"#utility.yul\":1551:1552   */\n  dup4\n    /* \"#utility.yul\":1544:1553   */\n  iszero\n    /* \"#utility.yul\":1524:1607   */\n  or\n    /* \"#utility.yul\":1501:1640   */\n  tag_37\n  jumpi\n    /* \"#utility.yul\":1620:1638   */\n  tag_38\n  tag_17\n  jump\t// in\ntag_38:\n    /* \"#utility.yul\":1501:1640   */\ntag_37:\n    /* \"#utility.yul\":1285:1647   */\n  pop\n    /* \"#utility.yul\":1237:1647   */\n  swap3\n  swap2\n  pop\n  pop\n  jump\t// out\n    /* \"#utility.yul\":1653:1844   */\ntag_9:\n    /* \"#utility.yul\":1693:1696   */\n  0x00\n    /* \"#utility.yul\":1712:1732   */\n  tag_40\n    /* \"#utility.yul\":1730:1731   */\n  dup3\n    /* \"#utility.yul\":1712:1732   */\n  tag_14\n  jump\t// in\ntag_40:\n    /* \"#utility.yul\":1707:1732   */\n  swap2\n  pop\n    /* \"#utility.yul\":1746:1766   */\n  tag_41\n    /* \"#utility.yul\":1764:1765   */\n  dup4\n    /* \"#utility.yul\":1746:1766   */\n  tag_14\n  jump\t// in\ntag_41:\n    /* \"#utility.yul\":1741:1766   */\n  swap3\n  pop\n    /* \"#utility.yul\":1789:1790   */\n  dup3\n    /* \"#utility.yul\":1786:1787   */\n  dup3\n    /* \"#utility.yul\":1782:1791   */\n  add\n    /* \"#utility.yul\":1775:1791   */\n  swap1\n  pop\n    /* \"#utility.yul\":1810:1813   */\n  dup1\n    /* \"#utility.yul\":1807:1808   */\n  dup3\n    /* \"#utility.yul\":1804:1814   */\n  gt\n    /* \"#utility.yul\":1801:1837   */\n  iszero\n  tag_42\n  jumpi\n    /* \"#utility.yul\":1817:1835   */\n  tag_43\n  tag_17\n  jump\t// in\ntag_43:\n    /* \"#utility.yul\":1801:1837   */\ntag_42:\n    /* \"#utility.yul\":1653:1844   */\n  swap3\n  swap2\n  pop\n  pop\n  jump\t// out\n    /* \"contracts/TPSubastaW-v1.sol\":60:3408  contract Subasta {... */\ntag_10:\n  dataSize(sub_0)\n  dup1\n  dataOffset(sub_0)\n  0x00\n  codecopy\n  0x00\n  return\nstop\n\nsub_0: assembly {\n        /* \"contracts/TPSubastaW-v1.sol\":60:3408  contract Subasta {... */\n      mstore(0x40, 0x80)\n      jumpi(tag_1, lt(calldatasize, 0x04))\n      shr(0xe0, calldataload(0x00))\n      dup1\n      0x7bb44b83\n      gt\n      tag_16\n      jumpi\n      dup1\n      0x9979ef45\n      gt\n      tag_17\n      jumpi\n      dup1\n      0x9979ef45\n      eq\n      tag_12\n      jumpi\n      dup1\n      0xd57bde79\n      eq\n      tag_13\n      jumpi\n      dup1\n      0xf77282ab\n      eq\n      tag_14\n      jumpi\n      dup1\n      0xfc7e286d\n      eq\n      tag_15\n      jumpi\n      jump(tag_1)\n    tag_17:\n      dup1\n      0x7bb44b83\n      eq\n      tag_9\n      jumpi\n      dup1\n      0x86433374\n      eq\n      tag_10\n      jumpi\n      dup1\n      0x8e7ea5b2\n      eq\n      tag_11\n      jumpi\n      jump(tag_1)\n    tag_16:\n      dup1\n      0x5681104a\n      gt\n      tag_18\n      jumpi\n      dup1\n      0x5681104a\n      eq\n      tag_5\n      jumpi\n      dup1\n      0x5ec2c7bf\n      eq\n      tag_6\n      jumpi\n      dup1\n      0x629e6b24\n      eq\n      tag_7\n      jumpi\n      dup1\n      0x6d4d09d7\n      eq\n      tag_8\n      jumpi\n      jump(tag_1)\n    tag_18:\n      dup1\n      0x2f6f81d9\n      eq\n      tag_2\n      jumpi\n      dup1\n      0x4423c5f1\n      eq\n      tag_3\n      jumpi\n      dup1\n      0x4ba9a927\n      eq\n      tag_4\n      jumpi\n    tag_1:\n      0x00\n      dup1\n      revert\n        /* \"contracts/TPSubastaW-v1.sol\":191:234  uint256 public constant GAS_FEE_PERCENT = 2 */\n    tag_2:\n      callvalue\n      dup1\n      iszero\n      tag_19\n      jumpi\n      0x00\n      dup1\n      revert\n    tag_19:\n      pop\n      tag_20\n      tag_21\n      jump\t// in\n    tag_20:\n      mload(0x40)\n      tag_22\n      swap2\n      swap1\n      tag_23\n      jump\t// in\n    tag_22:\n      mload(0x40)\n      dup1\n      swap2\n      sub\n      swap1\n      return\n        /* \"contracts/TPSubastaW-v1.sol\":545:562  Bid[] public bids */\n    tag_3:\n      callvalue\n      dup1\n      iszero\n      tag_24\n      jumpi\n      0x00\n      dup1\n      revert\n    tag_24:\n      pop\n      tag_25\n      0x04\n      dup1\n      calldatasize\n      sub\n      dup2\n      add\n      swap1\n      tag_26\n      swap2\n      swap1\n      tag_27\n      jump\t// in\n    tag_26:\n      tag_28\n      jump\t// in\n    tag_25:\n      mload(0x40)\n      tag_29\n      swap3\n      swap2\n      swap1\n      tag_30\n      jump\t// in\n    tag_29:\n      mload(0x40)\n      dup1\n      swap2\n      sub\n      swap1\n      return\n        /* \"contracts/TPSubastaW-v1.sol\":159:184  uint256 public bidEndTime */\n    tag_4:\n      callvalue\n      dup1\n      iszero\n      tag_31\n      jumpi\n      0x00\n      dup1\n      revert\n    tag_31:\n      pop\n      tag_32\n      tag_33\n      jump\t// in\n    tag_32:\n      mload(0x40)\n      tag_34\n      swap2\n      swap1\n      tag_23\n      jump\t// in\n    tag_34:\n      mload(0x40)\n      dup1\n      swap2\n      sub\n      swap1\n      return\n        /* \"contracts/TPSubastaW-v1.sol\":241:292  uint256 public constant EXTENSION_TIME = 10 minutes */\n    tag_5:\n      callvalue\n      dup1\n      iszero\n      tag_35\n      jumpi\n      0x00\n      dup1\n      revert\n    tag_35:\n      pop\n      tag_36\n      tag_37\n      jump\t// in\n    tag_36:\n      mload(0x40)\n      tag_38\n      swap2\n      swap1\n      tag_23\n      jump\t// in\n    tag_38:\n      mload(0x40)\n      dup1\n      swap2\n      sub\n      swap1\n      return\n        /* \"contracts/TPSubastaW-v1.sol\":84:117  address payable public auctioneer */\n    tag_6:\n      callvalue\n      dup1\n      iszero\n      tag_39\n      jumpi\n      0x00\n      dup1\n      revert\n    tag_39:\n      pop\n      tag_40\n      tag_41\n      jump\t// in\n    tag_40:\n      mload(0x40)\n      tag_42\n      swap2\n      swap1\n      tag_43\n      jump\t// in\n    tag_42:\n      mload(0x40)\n      dup1\n      swap2\n      sub\n      swap1\n      return\n        /* \"contracts/TPSubastaW-v1.sol\":2901:3405  function refundLosingBids() public onlyAfterEnd {... */\n    tag_7:\n      callvalue\n      dup1\n      iszero\n      tag_44\n      jumpi\n      0x00\n      dup1\n      revert\n    tag_44:\n      pop\n      tag_45\n      tag_46\n      jump\t// in\n    tag_45:\n      stop\n        /* \"contracts/TPSubastaW-v1.sol\":124:151  uint256 public bidStartTime */\n    tag_8:\n      callvalue\n      dup1\n      iszero\n      tag_47\n      jumpi\n      0x00\n      dup1\n      revert\n    tag_47:\n      pop\n      tag_48\n      tag_49\n      jump\t// in\n    tag_48:\n      mload(0x40)\n      tag_50\n      swap2\n      swap1\n      tag_23\n      jump\t// in\n    tag_50:\n      mload(0x40)\n      dup1\n      swap2\n      sub\n      swap1\n      return\n        /* \"contracts/TPSubastaW-v1.sol\":299:342  uint256 public constant BID_INC_PERCENT = 5 */\n    tag_9:\n      callvalue\n      dup1\n      iszero\n      tag_51\n      jumpi\n      0x00\n      dup1\n      revert\n    tag_51:\n      pop\n      tag_52\n      tag_53\n      jump\t// in\n    tag_52:\n      mload(0x40)\n      tag_54\n      swap2\n      swap1\n      tag_23\n      jump\t// in\n    tag_54:\n      mload(0x40)\n      dup1\n      swap2\n      sub\n      swap1\n      return\n        /* \"contracts/TPSubastaW-v1.sol\":349:373  bool public auctionEnded */\n    tag_10:\n      callvalue\n      dup1\n      iszero\n      tag_55\n      jumpi\n      0x00\n      dup1\n      revert\n    tag_55:\n      pop\n      tag_56\n      tag_57\n      jump\t// in\n    tag_56:\n      mload(0x40)\n      tag_58\n      swap2\n      swap1\n      tag_59\n      jump\t// in\n    tag_58:\n      mload(0x40)\n      dup1\n      swap2\n      sub\n      swap1\n      return\n        /* \"contracts/TPSubastaW-v1.sol\":2324:2523  function getWinner() public view onlyAfterEnd returns (address, uint256) {... */\n    tag_11:\n      callvalue\n      dup1\n      iszero\n      tag_60\n      jumpi\n      0x00\n      dup1\n      revert\n    tag_60:\n      pop\n      tag_61\n      tag_62\n      jump\t// in\n    tag_61:\n      mload(0x40)\n      tag_63\n      swap3\n      swap2\n      swap1\n      tag_64\n      jump\t// in\n    tag_63:\n      mload(0x40)\n      dup1\n      swap2\n      sub\n      swap1\n      return\n        /* \"contracts/TPSubastaW-v1.sol\":1458:2316  function placeBid(uint256 bidAmount) public payable onlyBeforeEnd {... */\n    tag_12:\n      tag_65\n      0x04\n      dup1\n      calldatasize\n      sub\n      dup2\n      add\n      swap1\n      tag_66\n      swap2\n      swap1\n      tag_27\n      jump\t// in\n    tag_66:\n      tag_67\n      jump\t// in\n    tag_65:\n      stop\n        /* \"contracts/TPSubastaW-v1.sol\":467:488  Bid public highestBid */\n    tag_13:\n      callvalue\n      dup1\n      iszero\n      tag_68\n      jumpi\n      0x00\n      dup1\n      revert\n    tag_68:\n      pop\n      tag_69\n      tag_70\n      jump\t// in\n    tag_69:\n      mload(0x40)\n      tag_71\n      swap3\n      swap2\n      swap1\n      tag_30\n      jump\t// in\n    tag_71:\n      mload(0x40)\n      dup1\n      swap2\n      sub\n      swap1\n      return\n        /* \"contracts/TPSubastaW-v1.sol\":2531:2893  function finalizeAuction() public onlyAuctioneer onlyAfterEnd {... */\n    tag_14:\n      callvalue\n      dup1\n      iszero\n      tag_72\n      jumpi\n      0x00\n      dup1\n      revert\n    tag_72:\n      pop\n      tag_73\n      tag_74\n      jump\t// in\n    tag_73:\n      stop\n        /* \"contracts/TPSubastaW-v1.sol\":495:538  mapping(address => uint256) public deposits */\n    tag_15:\n      callvalue\n      dup1\n      iszero\n      tag_75\n      jumpi\n      0x00\n      dup1\n      revert\n    tag_75:\n      pop\n      tag_76\n      0x04\n      dup1\n      calldatasize\n      sub\n      dup2\n      add\n      swap1\n      tag_77\n      swap2\n      swap1\n      tag_78\n      jump\t// in\n    tag_77:\n      tag_79\n      jump\t// in\n    tag_76:\n      mload(0x40)\n      tag_80\n      swap2\n      swap1\n      tag_23\n      jump\t// in\n    tag_80:\n      mload(0x40)\n      dup1\n      swap2\n      sub\n      swap1\n      return\n        /* \"contracts/TPSubastaW-v1.sol\":191:234  uint256 public constant GAS_FEE_PERCENT = 2 */\n    tag_21:\n        /* \"contracts/TPSubastaW-v1.sol\":233:234  2 */\n      0x02\n        /* \"contracts/TPSubastaW-v1.sol\":191:234  uint256 public constant GAS_FEE_PERCENT = 2 */\n      dup2\n      jump\t// out\n        /* \"contracts/TPSubastaW-v1.sol\":545:562  Bid[] public bids */\n    tag_28:\n      0x07\n      dup2\n      dup2\n      sload\n      dup2\n      lt\n      tag_81\n      jumpi\n      0x00\n      dup1\n      revert\n    tag_81:\n      swap1\n      0x00\n      mstore\n      keccak256(0x00, 0x20)\n      swap1\n      0x02\n      mul\n      add\n      0x00\n      swap2\n      pop\n      swap1\n      pop\n      dup1\n      0x00\n      add\n      0x00\n      swap1\n      sload\n      swap1\n      0x0100\n      exp\n      swap1\n      div\n      0xffffffffffffffffffffffffffffffffffffffff\n      and\n      swap1\n      dup1\n      0x01\n      add\n      sload\n      swap1\n      pop\n      dup3\n      jump\t// out\n        /* \"contracts/TPSubastaW-v1.sol\":159:184  uint256 public bidEndTime */\n    tag_33:\n      sload(0x02)\n      dup2\n      jump\t// out\n        /* \"contracts/TPSubastaW-v1.sol\":241:292  uint256 public constant EXTENSION_TIME = 10 minutes */\n    tag_37:\n        /* \"contracts/TPSubastaW-v1.sol\":282:292  10 minutes */\n      0x0258\n        /* \"contracts/TPSubastaW-v1.sol\":241:292  uint256 public constant EXTENSION_TIME = 10 minutes */\n      dup2\n      jump\t// out\n        /* \"contracts/TPSubastaW-v1.sol\":84:117  address payable public auctioneer */\n    tag_41:\n      0x00\n      dup1\n      sload\n      swap1\n      0x0100\n      exp\n      swap1\n      div\n      0xffffffffffffffffffffffffffffffffffffffff\n      and\n      dup2\n      jump\t// out\n        /* \"contracts/TPSubastaW-v1.sol\":2901:3405  function refundLosingBids() public onlyAfterEnd {... */\n    tag_46:\n        /* \"contracts/TPSubastaW-v1.sol\":1389:1399  bidEndTime */\n      sload(0x02)\n        /* \"contracts/TPSubastaW-v1.sol\":1370:1385  block.timestamp */\n      timestamp\n        /* \"contracts/TPSubastaW-v1.sol\":1370:1399  block.timestamp >= bidEndTime */\n      lt\n      iszero\n        /* \"contracts/TPSubastaW-v1.sol\":1362:1430  require(block.timestamp >= bidEndTime, \"Auction still in progress.\") */\n      tag_84\n      jumpi\n      mload(0x40)\n      0x08c379a000000000000000000000000000000000000000000000000000000000\n      dup2\n      mstore\n      0x04\n      add\n      tag_85\n      swap1\n      tag_86\n      jump\t// in\n    tag_85:\n      mload(0x40)\n      dup1\n      swap2\n      sub\n      swap1\n      revert\n    tag_84:\n        /* \"contracts/TPSubastaW-v1.sol\":2968:2980  auctionEnded */\n      0x03\n      0x00\n      swap1\n      sload\n      swap1\n      0x0100\n      exp\n      swap1\n      div\n      0xff\n      and\n        /* \"contracts/TPSubastaW-v1.sol\":2960:3017  require(auctionEnded, \"Auction must be finalized first.\") */\n      tag_88\n      jumpi\n      mload(0x40)\n      0x08c379a000000000000000000000000000000000000000000000000000000000\n      dup2\n      mstore\n      0x04\n      add\n      tag_89\n      swap1\n      tag_90\n      jump\t// in\n    tag_89:\n      mload(0x40)\n      dup1\n      swap2\n      sub\n      swap1\n      revert\n    tag_88:\n        /* \"contracts/TPSubastaW-v1.sol\":3028:3048  uint256 refundAmount */\n      0x00\n        /* \"contracts/TPSubastaW-v1.sol\":3051:3059  deposits */\n      0x06\n        /* \"contracts/TPSubastaW-v1.sol\":3051:3071  deposits[msg.sender] */\n      0x00\n        /* \"contracts/TPSubastaW-v1.sol\":3060:3070  msg.sender */\n      caller\n        /* \"contracts/TPSubastaW-v1.sol\":3051:3071  deposits[msg.sender] */\n      0xffffffffffffffffffffffffffffffffffffffff\n      and\n      0xffffffffffffffffffffffffffffffffffffffff\n      and\n      dup2\n      mstore\n      0x20\n      add\n      swap1\n      dup2\n      mstore\n      0x20\n      add\n      0x00\n      keccak256\n      sload\n        /* \"contracts/TPSubastaW-v1.sol\":3028:3071  uint256 refundAmount = deposits[msg.sender] */\n      swap1\n      pop\n        /* \"contracts/TPSubastaW-v1.sol\":3105:3106  0 */\n      0x00\n        /* \"contracts/TPSubastaW-v1.sol\":3090:3102  refundAmount */\n      dup2\n        /* \"contracts/TPSubastaW-v1.sol\":3090:3106  refundAmount > 0 */\n      gt\n        /* \"contracts/TPSubastaW-v1.sol\":3082:3131  require(refundAmount > 0, \"No refund available.\") */\n      tag_91\n      jumpi\n      mload(0x40)\n      0x08c379a000000000000000000000000000000000000000000000000000000000\n      dup2\n      mstore\n      0x04\n      add\n      tag_92\n      swap1\n      tag_93\n      jump\t// in\n    tag_92:\n      mload(0x40)\n      dup1\n      swap2\n      sub\n      swap1\n      revert\n    tag_91:\n        /* \"contracts/TPSubastaW-v1.sol\":3144:3158  uint256 gasFee */\n      0x00\n        /* \"contracts/TPSubastaW-v1.sol\":3196:3199  100 */\n      0x64\n        /* \"contracts/TPSubastaW-v1.sol\":233:234  2 */\n      0x02\n        /* \"contracts/TPSubastaW-v1.sol\":3162:3174  refundAmount */\n      dup4\n        /* \"contracts/TPSubastaW-v1.sol\":3162:3192  refundAmount * GAS_FEE_PERCENT */\n      tag_94\n      swap2\n      swap1\n      tag_95\n      jump\t// in\n    tag_94:\n        /* \"contracts/TPSubastaW-v1.sol\":3161:3199  (refundAmount * GAS_FEE_PERCENT) / 100 */\n      tag_96\n      swap2\n      swap1\n      tag_97\n      jump\t// in\n    tag_96:\n        /* \"contracts/TPSubastaW-v1.sol\":3144:3199  uint256 gasFee = (refundAmount * GAS_FEE_PERCENT) / 100 */\n      swap1\n      pop\n        /* \"contracts/TPSubastaW-v1.sol\":3210:3231  uint256 refundWithFee */\n      0x00\n        /* \"contracts/TPSubastaW-v1.sol\":3249:3255  gasFee */\n      dup2\n        /* \"contracts/TPSubastaW-v1.sol\":3234:3246  refundAmount */\n      dup4\n        /* \"contracts/TPSubastaW-v1.sol\":3234:3255  refundAmount - gasFee */\n      tag_98\n      swap2\n      swap1\n      tag_99\n      jump\t// in\n    tag_98:\n        /* \"contracts/TPSubastaW-v1.sol\":3210:3255  uint256 refundWithFee = refundAmount - gasFee */\n      swap1\n      pop\n        /* \"contracts/TPSubastaW-v1.sol\":3291:3292  0 */\n      0x00\n        /* \"contracts/TPSubastaW-v1.sol\":3268:3276  deposits */\n      0x06\n        /* \"contracts/TPSubastaW-v1.sol\":3268:3288  deposits[msg.sender] */\n      0x00\n        /* \"contracts/TPSubastaW-v1.sol\":3277:3287  msg.sender */\n      caller\n        /* \"contracts/TPSubastaW-v1.sol\":3268:3288  deposits[msg.sender] */\n      0xffffffffffffffffffffffffffffffffffffffff\n      and\n      0xffffffffffffffffffffffffffffffffffffffff\n      and\n      dup2\n      mstore\n      0x20\n      add\n      swap1\n      dup2\n      mstore\n      0x20\n      add\n      0x00\n      keccak256\n        /* \"contracts/TPSubastaW-v1.sol\":3268:3292  deposits[msg.sender] = 0 */\n      dup2\n      swap1\n      sstore\n      pop\n        /* \"contracts/TPSubastaW-v1.sol\":3311:3321  msg.sender */\n      caller\n        /* \"contracts/TPSubastaW-v1.sol\":3303:3331  payable(msg.sender).transfer */\n      0xffffffffffffffffffffffffffffffffffffffff\n      and\n        /* \"contracts/TPSubastaW-v1.sol\":3303:3346  payable(msg.sender).transfer(refundWithFee) */\n      0x08fc\n        /* \"contracts/TPSubastaW-v1.sol\":3332:3345  refundWithFee */\n      dup3\n        /* \"contracts/TPSubastaW-v1.sol\":3303:3346  payable(msg.sender).transfer(refundWithFee) */\n      swap1\n      dup2\n      iszero\n      mul\n      swap1\n      mload(0x40)\n      0x00\n      mload(0x40)\n      dup1\n      dup4\n      sub\n      dup2\n      dup6\n      dup9\n      dup9\n      call\n      swap4\n      pop\n      pop\n      pop\n      pop\n      iszero\n      dup1\n      iszero\n      tag_101\n      jumpi\n      returndatasize\n      0x00\n      dup1\n      returndatacopy\n      revert(0x00, returndatasize)\n    tag_101:\n      pop\n        /* \"contracts/TPSubastaW-v1.sol\":3371:3381  msg.sender */\n      caller\n        /* \"contracts/TPSubastaW-v1.sol\":3364:3397  Refund(msg.sender, refundWithFee) */\n      0xffffffffffffffffffffffffffffffffffffffff\n      and\n      0xbb28353e4598c3b9199101a66e0989549b659a59a54d2c27fbb183f1932c8e6d\n        /* \"contracts/TPSubastaW-v1.sol\":3383:3396  refundWithFee */\n      dup3\n        /* \"contracts/TPSubastaW-v1.sol\":3364:3397  Refund(msg.sender, refundWithFee) */\n      mload(0x40)\n      tag_102\n      swap2\n      swap1\n      tag_23\n      jump\t// in\n    tag_102:\n      mload(0x40)\n      dup1\n      swap2\n      sub\n      swap1\n      log2\n        /* \"contracts/TPSubastaW-v1.sol\":2949:3405  {... */\n      pop\n      pop\n      pop\n        /* \"contracts/TPSubastaW-v1.sol\":2901:3405  function refundLosingBids() public onlyAfterEnd {... */\n      jump\t// out\n        /* \"contracts/TPSubastaW-v1.sol\":124:151  uint256 public bidStartTime */\n    tag_49:\n      sload(0x01)\n      dup2\n      jump\t// out\n        /* \"contracts/TPSubastaW-v1.sol\":299:342  uint256 public constant BID_INC_PERCENT = 5 */\n    tag_53:\n        /* \"contracts/TPSubastaW-v1.sol\":341:342  5 */\n      0x05\n        /* \"contracts/TPSubastaW-v1.sol\":299:342  uint256 public constant BID_INC_PERCENT = 5 */\n      dup2\n      jump\t// out\n        /* \"contracts/TPSubastaW-v1.sol\":349:373  bool public auctionEnded */\n    tag_57:\n      0x03\n      0x00\n      swap1\n      sload\n      swap1\n      0x0100\n      exp\n      swap1\n      div\n      0xff\n      and\n      dup2\n      jump\t// out\n        /* \"contracts/TPSubastaW-v1.sol\":2324:2523  function getWinner() public view onlyAfterEnd returns (address, uint256) {... */\n    tag_62:\n        /* \"contracts/TPSubastaW-v1.sol\":2379:2386  address */\n      0x00\n        /* \"contracts/TPSubastaW-v1.sol\":2388:2395  uint256 */\n      dup1\n        /* \"contracts/TPSubastaW-v1.sol\":1389:1399  bidEndTime */\n      sload(0x02)\n        /* \"contracts/TPSubastaW-v1.sol\":1370:1385  block.timestamp */\n      timestamp\n        /* \"contracts/TPSubastaW-v1.sol\":1370:1399  block.timestamp >= bidEndTime */\n      lt\n      iszero\n        /* \"contracts/TPSubastaW-v1.sol\":1362:1430  require(block.timestamp >= bidEndTime, \"Auction still in progress.\") */\n      tag_104\n      jumpi\n      mload(0x40)\n      0x08c379a000000000000000000000000000000000000000000000000000000000\n      dup2\n      mstore\n      0x04\n      add\n      tag_105\n      swap1\n      tag_86\n      jump\t// in\n    tag_105:\n      mload(0x40)\n      dup1\n      swap2\n      sub\n      swap1\n      revert\n    tag_104:\n        /* \"contracts/TPSubastaW-v1.sol\":2416:2428  auctionEnded */\n      0x03\n      0x00\n      swap1\n      sload\n      swap1\n      0x0100\n      exp\n      swap1\n      div\n      0xff\n      and\n        /* \"contracts/TPSubastaW-v1.sol\":2408:2459  require(auctionEnded, \"Auction not finalized yet.\") */\n      tag_107\n      jumpi\n      mload(0x40)\n      0x08c379a000000000000000000000000000000000000000000000000000000000\n      dup2\n      mstore\n      0x04\n      add\n      tag_108\n      swap1\n      tag_109\n      jump\t// in\n    tag_108:\n      mload(0x40)\n      dup1\n      swap2\n      sub\n      swap1\n      revert\n    tag_107:\n        /* \"contracts/TPSubastaW-v1.sol\":2478:2488  highestBid */\n      0x04\n        /* \"contracts/TPSubastaW-v1.sol\":2478:2495  highestBid.bidder */\n      0x00\n      add\n      0x00\n      swap1\n      sload\n      swap1\n      0x0100\n      exp\n      swap1\n      div\n      0xffffffffffffffffffffffffffffffffffffffff\n      and\n        /* \"contracts/TPSubastaW-v1.sol\":2497:2507  highestBid */\n      0x04\n        /* \"contracts/TPSubastaW-v1.sol\":2497:2514  highestBid.amount */\n      0x01\n      add\n      sload\n        /* \"contracts/TPSubastaW-v1.sol\":2470:2515  return (highestBid.bidder, highestBid.amount) */\n      swap2\n      pop\n      swap2\n      pop\n        /* \"contracts/TPSubastaW-v1.sol\":2324:2523  function getWinner() public view onlyAfterEnd returns (address, uint256) {... */\n      swap1\n      swap2\n      jump\t// out\n        /* \"contracts/TPSubastaW-v1.sol\":1458:2316  function placeBid(uint256 bidAmount) public payable onlyBeforeEnd {... */\n    tag_67:\n        /* \"contracts/TPSubastaW-v1.sol\":1266:1276  bidEndTime */\n      sload(0x02)\n        /* \"contracts/TPSubastaW-v1.sol\":1248:1263  block.timestamp */\n      timestamp\n        /* \"contracts/TPSubastaW-v1.sol\":1248:1276  block.timestamp < bidEndTime */\n      lt\n        /* \"contracts/TPSubastaW-v1.sol\":1240:1299  require(block.timestamp < bidEndTime, \"Auction has ended.\") */\n      tag_111\n      jumpi\n      mload(0x40)\n      0x08c379a000000000000000000000000000000000000000000000000000000000\n      dup2\n      mstore\n      0x04\n      add\n      tag_112\n      swap1\n      tag_113\n      jump\t// in\n    tag_112:\n      mload(0x40)\n      dup1\n      swap2\n      sub\n      swap1\n      revert\n    tag_111:\n        /* \"contracts/TPSubastaW-v1.sol\":1555:1556  0 */\n      0x00\n        /* \"contracts/TPSubastaW-v1.sol\":1543:1552  bidAmount */\n      dup2\n        /* \"contracts/TPSubastaW-v1.sol\":1543:1556  bidAmount > 0 */\n      gt\n        /* \"contracts/TPSubastaW-v1.sol\":1535:1591  require(bidAmount > 0, \"Bid must be greater than zero.\") */\n      tag_115\n      jumpi\n      mload(0x40)\n      0x08c379a000000000000000000000000000000000000000000000000000000000\n      dup2\n      mstore\n      0x04\n      add\n      tag_116\n      swap1\n      tag_117\n      jump\t// in\n    tag_116:\n      mload(0x40)\n      dup1\n      swap2\n      sub\n      swap1\n      revert\n    tag_115:\n        /* \"contracts/TPSubastaW-v1.sol\":1602:1622  uint256 minBidAmount */\n      0x00\n        /* \"contracts/TPSubastaW-v1.sol\":1685:1688  100 */\n      0x64\n        /* \"contracts/TPSubastaW-v1.sol\":341:342  5 */\n      0x05\n        /* \"contracts/TPSubastaW-v1.sol\":1646:1656  highestBid */\n      0x04\n        /* \"contracts/TPSubastaW-v1.sol\":1646:1663  highestBid.amount */\n      0x01\n      add\n      sload\n        /* \"contracts/TPSubastaW-v1.sol\":1646:1681  highestBid.amount * BID_INC_PERCENT */\n      tag_118\n      swap2\n      swap1\n      tag_95\n      jump\t// in\n    tag_118:\n        /* \"contracts/TPSubastaW-v1.sol\":1645:1688  (highestBid.amount * BID_INC_PERCENT) / 100 */\n      tag_119\n      swap2\n      swap1\n      tag_97\n      jump\t// in\n    tag_119:\n        /* \"contracts/TPSubastaW-v1.sol\":1625:1635  highestBid */\n      0x04\n        /* \"contracts/TPSubastaW-v1.sol\":1625:1642  highestBid.amount */\n      0x01\n      add\n      sload\n        /* \"contracts/TPSubastaW-v1.sol\":1625:1688  highestBid.amount + (highestBid.amount * BID_INC_PERCENT) / 100 */\n      tag_120\n      swap2\n      swap1\n      tag_121\n      jump\t// in\n    tag_120:\n        /* \"contracts/TPSubastaW-v1.sol\":1602:1688  uint256 minBidAmount = highestBid.amount + (highestBid.amount * BID_INC_PERCENT) / 100 */\n      swap1\n      pop\n        /* \"contracts/TPSubastaW-v1.sol\":1720:1732  minBidAmount */\n      dup1\n        /* \"contracts/TPSubastaW-v1.sol\":1707:1716  msg.value */\n      callvalue\n        /* \"contracts/TPSubastaW-v1.sol\":1707:1732  msg.value >= minBidAmount */\n      lt\n      iszero\n        /* \"contracts/TPSubastaW-v1.sol\":1699:1768  require(msg.value >= minBidAmount, \"Bid must be at least 5% higher.\") */\n      tag_122\n      jumpi\n      mload(0x40)\n      0x08c379a000000000000000000000000000000000000000000000000000000000\n      dup2\n      mstore\n      0x04\n      add\n      tag_123\n      swap1\n      tag_124\n      jump\t// in\n    tag_123:\n      mload(0x40)\n      dup1\n      swap2\n      sub\n      swap1\n      revert\n    tag_122:\n        /* \"contracts/TPSubastaW-v1.sol\":1814:1815  0 */\n      0x00\n        /* \"contracts/TPSubastaW-v1.sol\":1785:1816  highestBid.bidder != address(0) */\n      0xffffffffffffffffffffffffffffffffffffffff\n      and\n        /* \"contracts/TPSubastaW-v1.sol\":1785:1795  highestBid */\n      0x04\n        /* \"contracts/TPSubastaW-v1.sol\":1785:1802  highestBid.bidder */\n      0x00\n      add\n      0x00\n      swap1\n      sload\n      swap1\n      0x0100\n      exp\n      swap1\n      div\n      0xffffffffffffffffffffffffffffffffffffffff\n      and\n        /* \"contracts/TPSubastaW-v1.sol\":1785:1816  highestBid.bidder != address(0) */\n      0xffffffffffffffffffffffffffffffffffffffff\n      and\n      eq\n        /* \"contracts/TPSubastaW-v1.sol\":1781:1893  if (highestBid.bidder != address(0)) {... */\n      tag_125\n      jumpi\n        /* \"contracts/TPSubastaW-v1.sol\":1864:1874  highestBid */\n      0x04\n        /* \"contracts/TPSubastaW-v1.sol\":1864:1881  highestBid.amount */\n      0x01\n      add\n      sload\n        /* \"contracts/TPSubastaW-v1.sol\":1833:1841  deposits */\n      0x06\n        /* \"contracts/TPSubastaW-v1.sol\":1833:1860  deposits[highestBid.bidder] */\n      0x00\n        /* \"contracts/TPSubastaW-v1.sol\":1842:1852  highestBid */\n      0x04\n        /* \"contracts/TPSubastaW-v1.sol\":1842:1859  highestBid.bidder */\n      0x00\n      add\n      0x00\n      swap1\n      sload\n      swap1\n      0x0100\n      exp\n      swap1\n      div\n      0xffffffffffffffffffffffffffffffffffffffff\n      and\n        /* \"contracts/TPSubastaW-v1.sol\":1833:1860  deposits[highestBid.bidder] */\n      0xffffffffffffffffffffffffffffffffffffffff\n      and\n      0xffffffffffffffffffffffffffffffffffffffff\n      and\n      dup2\n      mstore\n      0x20\n      add\n      swap1\n      dup2\n      mstore\n      0x20\n      add\n      0x00\n      keccak256\n      0x00\n        /* \"contracts/TPSubastaW-v1.sol\":1833:1881  deposits[highestBid.bidder] += highestBid.amount */\n      dup3\n      dup3\n      sload\n      tag_126\n      swap2\n      swap1\n      tag_121\n      jump\t// in\n    tag_126:\n      swap3\n      pop\n      pop\n      dup2\n      swap1\n      sstore\n      pop\n        /* \"contracts/TPSubastaW-v1.sol\":1781:1893  if (highestBid.bidder != address(0)) {... */\n    tag_125:\n        /* \"contracts/TPSubastaW-v1.sol\":1918:1953  Bid(payable(msg.sender), msg.value) */\n      mload(0x40)\n      dup1\n      0x40\n      add\n      0x40\n      mstore\n      dup1\n        /* \"contracts/TPSubastaW-v1.sol\":1930:1940  msg.sender */\n      caller\n        /* \"contracts/TPSubastaW-v1.sol\":1918:1953  Bid(payable(msg.sender), msg.value) */\n      0xffffffffffffffffffffffffffffffffffffffff\n      and\n      dup2\n      mstore\n      0x20\n      add\n        /* \"contracts/TPSubastaW-v1.sol\":1943:1952  msg.value */\n      callvalue\n        /* \"contracts/TPSubastaW-v1.sol\":1918:1953  Bid(payable(msg.sender), msg.value) */\n      dup2\n      mstore\n      pop\n        /* \"contracts/TPSubastaW-v1.sol\":1905:1915  highestBid */\n      0x04\n        /* \"contracts/TPSubastaW-v1.sol\":1905:1953  highestBid = Bid(payable(msg.sender), msg.value) */\n      0x00\n      dup3\n      add\n      mload\n      dup2\n      0x00\n      add\n      exp(0x0100, 0x00)\n      dup2\n      sload\n      dup2\n      0xffffffffffffffffffffffffffffffffffffffff\n      mul\n      not\n      and\n      swap1\n      dup4\n      0xffffffffffffffffffffffffffffffffffffffff\n      and\n      mul\n      or\n      swap1\n      sstore\n      pop\n      0x20\n      dup3\n      add\n      mload\n      dup2\n      0x01\n      add\n      sstore\n      swap1\n      pop\n      pop\n        /* \"contracts/TPSubastaW-v1.sol\":1964:1968  bids */\n      0x07\n        /* \"contracts/TPSubastaW-v1.sol\":1974:1984  highestBid */\n      0x04\n        /* \"contracts/TPSubastaW-v1.sol\":1964:1985  bids.push(highestBid) */\n      swap1\n      dup1\n      0x01\n      dup2\n      sload\n      add\n      dup1\n      dup3\n      sstore\n      dup1\n      swap2\n      pop\n      pop\n      0x01\n      swap1\n      sub\n      swap1\n      0x00\n      mstore\n      keccak256(0x00, 0x20)\n      swap1\n      0x02\n      mul\n      add\n      0x00\n      swap1\n      swap2\n      swap1\n      swap2\n      swap1\n      swap2\n      pop\n      0x00\n      dup3\n      add\n      0x00\n      swap1\n      sload\n      swap1\n      0x0100\n      exp\n      swap1\n      div\n      0xffffffffffffffffffffffffffffffffffffffff\n      and\n      dup2\n      0x00\n      add\n      exp(0x0100, 0x00)\n      dup2\n      sload\n      dup2\n      0xffffffffffffffffffffffffffffffffffffffff\n      mul\n      not\n      and\n      swap1\n      dup4\n      0xffffffffffffffffffffffffffffffffffffffff\n      and\n      mul\n      or\n      swap1\n      sstore\n      pop\n      0x01\n      dup3\n      add\n      sload\n      dup2\n      0x01\n      add\n      sstore\n      pop\n      pop\n        /* \"contracts/TPSubastaW-v1.sol\":282:292  10 minutes */\n      0x0258\n        /* \"contracts/TPSubastaW-v1.sol\":2114:2124  bidEndTime */\n      sload(0x02)\n        /* \"contracts/TPSubastaW-v1.sol\":2114:2141  bidEndTime - EXTENSION_TIME */\n      tag_128\n      swap2\n      swap1\n      tag_99\n      jump\t// in\n    tag_128:\n        /* \"contracts/TPSubastaW-v1.sol\":2095:2110  block.timestamp */\n      timestamp\n        /* \"contracts/TPSubastaW-v1.sol\":2095:2141  block.timestamp >= bidEndTime - EXTENSION_TIME */\n      lt\n        /* \"contracts/TPSubastaW-v1.sol\":2091:2245  if (block.timestamp >= bidEndTime - EXTENSION_TIME) {... */\n      tag_129\n      jumpi\n        /* \"contracts/TPSubastaW-v1.sol\":282:292  10 minutes */\n      0x0258\n        /* \"contracts/TPSubastaW-v1.sol\":2158:2168  bidEndTime */\n      0x02\n      0x00\n        /* \"contracts/TPSubastaW-v1.sol\":2158:2186  bidEndTime += EXTENSION_TIME */\n      dup3\n      dup3\n      sload\n      tag_130\n      swap2\n      swap1\n      tag_121\n      jump\t// in\n    tag_130:\n      swap3\n      pop\n      pop\n      dup2\n      swap1\n      sstore\n      pop\n        /* \"contracts/TPSubastaW-v1.sol\":2206:2233  AuctionExtended(bidEndTime) */\n      0xc2b459809119087ca9d2bc10dea53a51b7d848b1a11075db037bdca58292c3e8\n        /* \"contracts/TPSubastaW-v1.sol\":2222:2232  bidEndTime */\n      sload(0x02)\n        /* \"contracts/TPSubastaW-v1.sol\":2206:2233  AuctionExtended(bidEndTime) */\n      mload(0x40)\n      tag_131\n      swap2\n      swap1\n      tag_23\n      jump\t// in\n    tag_131:\n      mload(0x40)\n      dup1\n      swap2\n      sub\n      swap1\n      log1\n        /* \"contracts/TPSubastaW-v1.sol\":2091:2245  if (block.timestamp >= bidEndTime - EXTENSION_TIME) {... */\n    tag_129:\n        /* \"contracts/TPSubastaW-v1.sol\":2269:2279  msg.sender */\n      caller\n        /* \"contracts/TPSubastaW-v1.sol\":2262:2308  NewBid(msg.sender, msg.value, block.timestamp) */\n      0xffffffffffffffffffffffffffffffffffffffff\n      and\n      0x87f5b2fe112bf269d30fb8ca9dc0bde0afd0cc39258e13fafd75fe794795bf0e\n        /* \"contracts/TPSubastaW-v1.sol\":2281:2290  msg.value */\n      callvalue\n        /* \"contracts/TPSubastaW-v1.sol\":2292:2307  block.timestamp */\n      timestamp\n        /* \"contracts/TPSubastaW-v1.sol\":2262:2308  NewBid(msg.sender, msg.value, block.timestamp) */\n      mload(0x40)\n      tag_132\n      swap3\n      swap2\n      swap1\n      tag_133\n      jump\t// in\n    tag_132:\n      mload(0x40)\n      dup1\n      swap2\n      sub\n      swap1\n      log2\n        /* \"contracts/TPSubastaW-v1.sol\":1524:2316  {... */\n      pop\n        /* \"contracts/TPSubastaW-v1.sol\":1458:2316  function placeBid(uint256 bidAmount) public payable onlyBeforeEnd {... */\n      pop\n      jump\t// out\n        /* \"contracts/TPSubastaW-v1.sol\":467:488  Bid public highestBid */\n    tag_70:\n      0x04\n      dup1\n      0x00\n      add\n      0x00\n      swap1\n      sload\n      swap1\n      0x0100\n      exp\n      swap1\n      div\n      0xffffffffffffffffffffffffffffffffffffffff\n      and\n      swap1\n      dup1\n      0x01\n      add\n      sload\n      swap1\n      pop\n      dup3\n      jump\t// out\n        /* \"contracts/TPSubastaW-v1.sol\":2531:2893  function finalizeAuction() public onlyAuctioneer onlyAfterEnd {... */\n    tag_74:\n        /* \"contracts/TPSubastaW-v1.sol\":1132:1142  auctioneer */\n      0x00\n      dup1\n      sload\n      swap1\n      0x0100\n      exp\n      swap1\n      div\n      0xffffffffffffffffffffffffffffffffffffffff\n      and\n        /* \"contracts/TPSubastaW-v1.sol\":1118:1142  msg.sender == auctioneer */\n      0xffffffffffffffffffffffffffffffffffffffff\n      and\n        /* \"contracts/TPSubastaW-v1.sol\":1118:1128  msg.sender */\n      caller\n        /* \"contracts/TPSubastaW-v1.sol\":1118:1142  msg.sender == auctioneer */\n      0xffffffffffffffffffffffffffffffffffffffff\n      and\n      eq\n        /* \"contracts/TPSubastaW-v1.sol\":1110:1176  require(msg.sender == auctioneer, \"Only auctioneer can finalize.\") */\n      tag_135\n      jumpi\n      mload(0x40)\n      0x08c379a000000000000000000000000000000000000000000000000000000000\n      dup2\n      mstore\n      0x04\n      add\n      tag_136\n      swap1\n      tag_137\n      jump\t// in\n    tag_136:\n      mload(0x40)\n      dup1\n      swap2\n      sub\n      swap1\n      revert\n    tag_135:\n        /* \"contracts/TPSubastaW-v1.sol\":1389:1399  bidEndTime */\n      sload(0x02)\n        /* \"contracts/TPSubastaW-v1.sol\":1370:1385  block.timestamp */\n      timestamp\n        /* \"contracts/TPSubastaW-v1.sol\":1370:1399  block.timestamp >= bidEndTime */\n      lt\n      iszero\n        /* \"contracts/TPSubastaW-v1.sol\":1362:1430  require(block.timestamp >= bidEndTime, \"Auction still in progress.\") */\n      tag_139\n      jumpi\n      mload(0x40)\n      0x08c379a000000000000000000000000000000000000000000000000000000000\n      dup2\n      mstore\n      0x04\n      add\n      tag_140\n      swap1\n      tag_86\n      jump\t// in\n    tag_140:\n      mload(0x40)\n      dup1\n      swap2\n      sub\n      swap1\n      revert\n    tag_139:\n        /* \"contracts/TPSubastaW-v1.sol\":2613:2625  auctionEnded */\n      0x03\n      0x00\n      swap1\n      sload\n      swap1\n      0x0100\n      exp\n      swap1\n      div\n      0xff\n      and\n        /* \"contracts/TPSubastaW-v1.sol\":2612:2625  !auctionEnded */\n      iszero\n        /* \"contracts/TPSubastaW-v1.sol\":2604:2656  require(!auctionEnded, \"Auction already finalized.\") */\n      tag_142\n      jumpi\n      mload(0x40)\n      0x08c379a000000000000000000000000000000000000000000000000000000000\n      dup2\n      mstore\n      0x04\n      add\n      tag_143\n      swap1\n      tag_144\n      jump\t// in\n    tag_143:\n      mload(0x40)\n      dup1\n      swap2\n      sub\n      swap1\n      revert\n    tag_142:\n        /* \"contracts/TPSubastaW-v1.sol\":2682:2686  true */\n      0x01\n        /* \"contracts/TPSubastaW-v1.sol\":2667:2679  auctionEnded */\n      0x03\n      0x00\n        /* \"contracts/TPSubastaW-v1.sol\":2667:2686  auctionEnded = true */\n      0x0100\n      exp\n      dup2\n      sload\n      dup2\n      0xff\n      mul\n      not\n      and\n      swap1\n      dup4\n      iszero\n      iszero\n      mul\n      or\n      swap1\n      sstore\n      pop\n        /* \"contracts/TPSubastaW-v1.sol\":2699:2713  uint256 gasFee */\n      0x00\n        /* \"contracts/TPSubastaW-v1.sol\":2756:2759  100 */\n      0x64\n        /* \"contracts/TPSubastaW-v1.sol\":233:234  2 */\n      0x02\n        /* \"contracts/TPSubastaW-v1.sol\":2717:2727  highestBid */\n      0x04\n        /* \"contracts/TPSubastaW-v1.sol\":2717:2734  highestBid.amount */\n      0x01\n      add\n      sload\n        /* \"contracts/TPSubastaW-v1.sol\":2717:2752  highestBid.amount * GAS_FEE_PERCENT */\n      tag_145\n      swap2\n      swap1\n      tag_95\n      jump\t// in\n    tag_145:\n        /* \"contracts/TPSubastaW-v1.sol\":2716:2759  (highestBid.amount * GAS_FEE_PERCENT) / 100 */\n      tag_146\n      swap2\n      swap1\n      tag_97\n      jump\t// in\n    tag_146:\n        /* \"contracts/TPSubastaW-v1.sol\":2699:2759  uint256 gasFee = (highestBid.amount * GAS_FEE_PERCENT) / 100 */\n      swap1\n      pop\n        /* \"contracts/TPSubastaW-v1.sol\":2770:2780  auctioneer */\n      0x00\n      dup1\n      sload\n      swap1\n      0x0100\n      exp\n      swap1\n      div\n      0xffffffffffffffffffffffffffffffffffffffff\n      and\n        /* \"contracts/TPSubastaW-v1.sol\":2770:2789  auctioneer.transfer */\n      0xffffffffffffffffffffffffffffffffffffffff\n      and\n        /* \"contracts/TPSubastaW-v1.sol\":2770:2817  auctioneer.transfer(highestBid.amount - gasFee) */\n      0x08fc\n        /* \"contracts/TPSubastaW-v1.sol\":2810:2816  gasFee */\n      dup3\n        /* \"contracts/TPSubastaW-v1.sol\":2790:2800  highestBid */\n      0x04\n        /* \"contracts/TPSubastaW-v1.sol\":2790:2807  highestBid.amount */\n      0x01\n      add\n      sload\n        /* \"contracts/TPSubastaW-v1.sol\":2790:2816  highestBid.amount - gasFee */\n      tag_147\n      swap2\n      swap1\n      tag_99\n      jump\t// in\n    tag_147:\n        /* \"contracts/TPSubastaW-v1.sol\":2770:2817  auctioneer.transfer(highestBid.amount - gasFee) */\n      swap1\n      dup2\n      iszero\n      mul\n      swap1\n      mload(0x40)\n      0x00\n      mload(0x40)\n      dup1\n      dup4\n      sub\n      dup2\n      dup6\n      dup9\n      dup9\n      call\n      swap4\n      pop\n      pop\n      pop\n      pop\n      iszero\n      dup1\n      iszero\n      tag_149\n      jumpi\n      returndatasize\n      0x00\n      dup1\n      returndatacopy\n      revert(0x00, returndatasize)\n    tag_149:\n      pop\n        /* \"contracts/TPSubastaW-v1.sol\":2835:2885  AuctionEnded(highestBid.bidder, highestBid.amount) */\n      0xdaec4582d5d9595688c8c98545fdd1c696d41c6aeaeb636737e84ed2f5c00eda\n        /* \"contracts/TPSubastaW-v1.sol\":2848:2858  highestBid */\n      0x04\n        /* \"contracts/TPSubastaW-v1.sol\":2848:2865  highestBid.bidder */\n      0x00\n      add\n      0x00\n      swap1\n      sload\n      swap1\n      0x0100\n      exp\n      swap1\n      div\n      0xffffffffffffffffffffffffffffffffffffffff\n      and\n        /* \"contracts/TPSubastaW-v1.sol\":2867:2877  highestBid */\n      0x04\n        /* \"contracts/TPSubastaW-v1.sol\":2867:2884  highestBid.amount */\n      0x01\n      add\n      sload\n        /* \"contracts/TPSubastaW-v1.sol\":2835:2885  AuctionEnded(highestBid.bidder, highestBid.amount) */\n      mload(0x40)\n      tag_150\n      swap3\n      swap2\n      swap1\n      tag_151\n      jump\t// in\n    tag_150:\n      mload(0x40)\n      dup1\n      swap2\n      sub\n      swap1\n      log1\n        /* \"contracts/TPSubastaW-v1.sol\":2593:2893  {... */\n      pop\n        /* \"contracts/TPSubastaW-v1.sol\":2531:2893  function finalizeAuction() public onlyAuctioneer onlyAfterEnd {... */\n      jump\t// out\n        /* \"contracts/TPSubastaW-v1.sol\":495:538  mapping(address => uint256) public deposits */\n    tag_79:\n      mstore(0x20, 0x06)\n      dup1\n      0x00\n      mstore\n      keccak256(0x00, 0x40)\n      0x00\n      swap2\n      pop\n      swap1\n      pop\n      sload\n      dup2\n      jump\t// out\n        /* \"#utility.yul\":7:84   */\n    tag_152:\n        /* \"#utility.yul\":44:51   */\n      0x00\n        /* \"#utility.yul\":73:78   */\n      dup2\n        /* \"#utility.yul\":62:78   */\n      swap1\n      pop\n        /* \"#utility.yul\":7:84   */\n      swap2\n      swap1\n      pop\n      jump\t// out\n        /* \"#utility.yul\":90:208   */\n    tag_153:\n        /* \"#utility.yul\":177:201   */\n      tag_197\n        /* \"#utility.yul\":195:200   */\n      dup2\n        /* \"#utility.yul\":177:201   */\n      tag_152\n      jump\t// in\n    tag_197:\n        /* \"#utility.yul\":172:175   */\n      dup3\n        /* \"#utility.yul\":165:202   */\n      mstore\n        /* \"#utility.yul\":90:208   */\n      pop\n      pop\n      jump\t// out\n        /* \"#utility.yul\":214:436   */\n    tag_23:\n        /* \"#utility.yul\":307:311   */\n      0x00\n        /* \"#utility.yul\":345:347   */\n      0x20\n        /* \"#utility.yul\":334:343   */\n      dup3\n        /* \"#utility.yul\":330:348   */\n      add\n        /* \"#utility.yul\":322:348   */\n      swap1\n      pop\n        /* \"#utility.yul\":358:429   */\n      tag_199\n        /* \"#utility.yul\":426:427   */\n      0x00\n        /* \"#utility.yul\":415:424   */\n      dup4\n        /* \"#utility.yul\":411:428   */\n      add\n        /* \"#utility.yul\":402:408   */\n      dup5\n        /* \"#utility.yul\":358:429   */\n      tag_153\n      jump\t// in\n    tag_199:\n        /* \"#utility.yul\":214:436   */\n      swap3\n      swap2\n      pop\n      pop\n      jump\t// out\n        /* \"#utility.yul\":523:640   */\n    tag_155:\n        /* \"#utility.yul\":632:633   */\n      0x00\n        /* \"#utility.yul\":629:630   */\n      dup1\n        /* \"#utility.yul\":622:634   */\n      revert\n        /* \"#utility.yul\":769:891   */\n    tag_157:\n        /* \"#utility.yul\":842:866   */\n      tag_204\n        /* \"#utility.yul\":860:865   */\n      dup2\n        /* \"#utility.yul\":842:866   */\n      tag_152\n      jump\t// in\n    tag_204:\n        /* \"#utility.yul\":835:840   */\n      dup2\n        /* \"#utility.yul\":832:867   */\n      eq\n        /* \"#utility.yul\":822:885   */\n      tag_205\n      jumpi\n        /* \"#utility.yul\":881:882   */\n      0x00\n        /* \"#utility.yul\":878:879   */\n      dup1\n        /* \"#utility.yul\":871:883   */\n      revert\n        /* \"#utility.yul\":822:885   */\n    tag_205:\n        /* \"#utility.yul\":769:891   */\n      pop\n      jump\t// out\n        /* \"#utility.yul\":897:1036   */\n    tag_158:\n        /* \"#utility.yul\":943:948   */\n      0x00\n        /* \"#utility.yul\":981:987   */\n      dup2\n        /* \"#utility.yul\":968:988   */\n      calldataload\n        /* \"#utility.yul\":959:988   */\n      swap1\n      pop\n        /* \"#utility.yul\":997:1030   */\n      tag_207\n        /* \"#utility.yul\":1024:1029   */\n      dup2\n        /* \"#utility.yul\":997:1030   */\n      tag_157\n      jump\t// in\n    tag_207:\n        /* \"#utility.yul\":897:1036   */\n      swap3\n      swap2\n      pop\n      pop\n      jump\t// out\n        /* \"#utility.yul\":1042:1371   */\n    tag_27:\n        /* \"#utility.yul\":1101:1107   */\n      0x00\n        /* \"#utility.yul\":1150:1152   */\n      0x20\n        /* \"#utility.yul\":1138:1147   */\n      dup3\n        /* \"#utility.yul\":1129:1136   */\n      dup5\n        /* \"#utility.yul\":1125:1148   */\n      sub\n        /* \"#utility.yul\":1121:1153   */\n      slt\n        /* \"#utility.yul\":1118:1237   */\n      iszero\n      tag_209\n      jumpi\n        /* \"#utility.yul\":1156:1235   */\n      tag_210\n      tag_155\n      jump\t// in\n    tag_210:\n        /* \"#utility.yul\":1118:1237   */\n    tag_209:\n        /* \"#utility.yul\":1276:1277   */\n      0x00\n        /* \"#utility.yul\":1301:1354   */\n      tag_211\n        /* \"#utility.yul\":1346:1353   */\n      dup5\n        /* \"#utility.yul\":1337:1343   */\n      dup3\n        /* \"#utility.yul\":1326:1335   */\n      dup6\n        /* \"#utility.yul\":1322:1344   */\n      add\n        /* \"#utility.yul\":1301:1354   */\n      tag_158\n      jump\t// in\n    tag_211:\n        /* \"#utility.yul\":1291:1354   */\n      swap2\n      pop\n        /* \"#utility.yul\":1247:1364   */\n      pop\n        /* \"#utility.yul\":1042:1371   */\n      swap3\n      swap2\n      pop\n      pop\n      jump\t// out\n        /* \"#utility.yul\":1377:1503   */\n    tag_159:\n        /* \"#utility.yul\":1414:1421   */\n      0x00\n        /* \"#utility.yul\":1454:1496   */\n      0xffffffffffffffffffffffffffffffffffffffff\n        /* \"#utility.yul\":1447:1452   */\n      dup3\n        /* \"#utility.yul\":1443:1497   */\n      and\n        /* \"#utility.yul\":1432:1497   */\n      swap1\n      pop\n        /* \"#utility.yul\":1377:1503   */\n      swap2\n      swap1\n      pop\n      jump\t// out\n        /* \"#utility.yul\":1509:1613   */\n    tag_160:\n        /* \"#utility.yul\":1554:1561   */\n      0x00\n        /* \"#utility.yul\":1583:1607   */\n      tag_214\n        /* \"#utility.yul\":1601:1606   */\n      dup3\n        /* \"#utility.yul\":1583:1607   */\n      tag_159\n      jump\t// in\n    tag_214:\n        /* \"#utility.yul\":1572:1607   */\n      swap1\n      pop\n        /* \"#utility.yul\":1509:1613   */\n      swap2\n      swap1\n      pop\n      jump\t// out\n        /* \"#utility.yul\":1619:1761   */\n    tag_161:\n        /* \"#utility.yul\":1722:1754   */\n      tag_216\n        /* \"#utility.yul\":1748:1753   */\n      dup2\n        /* \"#utility.yul\":1722:1754   */\n      tag_160\n      jump\t// in\n    tag_216:\n        /* \"#utility.yul\":1717:1720   */\n      dup3\n        /* \"#utility.yul\":1710:1755   */\n      mstore\n        /* \"#utility.yul\":1619:1761   */\n      pop\n      pop\n      jump\t// out\n        /* \"#utility.yul\":1767:2131   */\n    tag_30:\n        /* \"#utility.yul\":1904:1908   */\n      0x00\n        /* \"#utility.yul\":1942:1944   */\n      0x40\n        /* \"#utility.yul\":1931:1940   */\n      dup3\n        /* \"#utility.yul\":1927:1945   */\n      add\n        /* \"#utility.yul\":1919:1945   */\n      swap1\n      pop\n        /* \"#utility.yul\":1955:2042   */\n      tag_218\n        /* \"#utility.yul\":2039:2040   */\n      0x00\n        /* \"#utility.yul\":2028:2037   */\n      dup4\n        /* \"#utility.yul\":2024:2041   */\n      add\n        /* \"#utility.yul\":2015:2021   */\n      dup6\n        /* \"#utility.yul\":1955:2042   */\n      tag_161\n      jump\t// in\n    tag_218:\n        /* \"#utility.yul\":2052:2124   */\n      tag_219\n        /* \"#utility.yul\":2120:2122   */\n      0x20\n        /* \"#utility.yul\":2109:2118   */\n      dup4\n        /* \"#utility.yul\":2105:2123   */\n      add\n        /* \"#utility.yul\":2096:2102   */\n      dup5\n        /* \"#utility.yul\":2052:2124   */\n      tag_153\n      jump\t// in\n    tag_219:\n        /* \"#utility.yul\":1767:2131   */\n      swap4\n      swap3\n      pop\n      pop\n      pop\n      jump\t// out\n        /* \"#utility.yul\":2137:2391   */\n    tag_43:\n        /* \"#utility.yul\":2246:2250   */\n      0x00\n        /* \"#utility.yul\":2284:2286   */\n      0x20\n        /* \"#utility.yul\":2273:2282   */\n      dup3\n        /* \"#utility.yul\":2269:2287   */\n      add\n        /* \"#utility.yul\":2261:2287   */\n      swap1\n      pop\n        /* \"#utility.yul\":2297:2384   */\n      tag_221\n        /* \"#utility.yul\":2381:2382   */\n      0x00\n        /* \"#utility.yul\":2370:2379   */\n      dup4\n        /* \"#utility.yul\":2366:2383   */\n      add\n        /* \"#utility.yul\":2357:2363   */\n      dup5\n        /* \"#utility.yul\":2297:2384   */\n      tag_161\n      jump\t// in\n    tag_221:\n        /* \"#utility.yul\":2137:2391   */\n      swap3\n      swap2\n      pop\n      pop\n      jump\t// out\n        /* \"#utility.yul\":2397:2487   */\n    tag_162:\n        /* \"#utility.yul\":2431:2438   */\n      0x00\n        /* \"#utility.yul\":2474:2479   */\n      dup2\n        /* \"#utility.yul\":2467:2480   */\n      iszero\n        /* \"#utility.yul\":2460:2481   */\n      iszero\n        /* \"#utility.yul\":2449:2481   */\n      swap1\n      pop\n        /* \"#utility.yul\":2397:2487   */\n      swap2\n      swap1\n      pop\n      jump\t// out\n        /* \"#utility.yul\":2493:2602   */\n    tag_163:\n        /* \"#utility.yul\":2574:2595   */\n      tag_224\n        /* \"#utility.yul\":2589:2594   */\n      dup2\n        /* \"#utility.yul\":2574:2595   */\n      tag_162\n      jump\t// in\n    tag_224:\n        /* \"#utility.yul\":2569:2572   */\n      dup3\n        /* \"#utility.yul\":2562:2596   */\n      mstore\n        /* \"#utility.yul\":2493:2602   */\n      pop\n      pop\n      jump\t// out\n        /* \"#utility.yul\":2608:2818   */\n    tag_59:\n        /* \"#utility.yul\":2695:2699   */\n      0x00\n        /* \"#utility.yul\":2733:2735   */\n      0x20\n        /* \"#utility.yul\":2722:2731   */\n      dup3\n        /* \"#utility.yul\":2718:2736   */\n      add\n        /* \"#utility.yul\":2710:2736   */\n      swap1\n      pop\n        /* \"#utility.yul\":2746:2811   */\n      tag_226\n        /* \"#utility.yul\":2808:2809   */\n      0x00\n        /* \"#utility.yul\":2797:2806   */\n      dup4\n        /* \"#utility.yul\":2793:2810   */\n      add\n        /* \"#utility.yul\":2784:2790   */\n      dup5\n        /* \"#utility.yul\":2746:2811   */\n      tag_163\n      jump\t// in\n    tag_226:\n        /* \"#utility.yul\":2608:2818   */\n      swap3\n      swap2\n      pop\n      pop\n      jump\t// out\n        /* \"#utility.yul\":2824:2920   */\n    tag_164:\n        /* \"#utility.yul\":2861:2868   */\n      0x00\n        /* \"#utility.yul\":2890:2914   */\n      tag_228\n        /* \"#utility.yul\":2908:2913   */\n      dup3\n        /* \"#utility.yul\":2890:2914   */\n      tag_159\n      jump\t// in\n    tag_228:\n        /* \"#utility.yul\":2879:2914   */\n      swap1\n      pop\n        /* \"#utility.yul\":2824:2920   */\n      swap2\n      swap1\n      pop\n      jump\t// out\n        /* \"#utility.yul\":2926:3044   */\n    tag_165:\n        /* \"#utility.yul\":3013:3037   */\n      tag_230\n        /* \"#utility.yul\":3031:3036   */\n      dup2\n        /* \"#utility.yul\":3013:3037   */\n      tag_164\n      jump\t// in\n    tag_230:\n        /* \"#utility.yul\":3008:3011   */\n      dup3\n        /* \"#utility.yul\":3001:3038   */\n      mstore\n        /* \"#utility.yul\":2926:3044   */\n      pop\n      pop\n      jump\t// out\n        /* \"#utility.yul\":3050:3382   */\n    tag_64:\n        /* \"#utility.yul\":3171:3175   */\n      0x00\n        /* \"#utility.yul\":3209:3211   */\n      0x40\n        /* \"#utility.yul\":3198:3207   */\n      dup3\n        /* \"#utility.yul\":3194:3212   */\n      add\n        /* \"#utility.yul\":3186:3212   */\n      swap1\n      pop\n        /* \"#utility.yul\":3222:3293   */\n      tag_232\n        /* \"#utility.yul\":3290:3291   */\n      0x00\n        /* \"#utility.yul\":3279:3288   */\n      dup4\n        /* \"#utility.yul\":3275:3292   */\n      add\n        /* \"#utility.yul\":3266:3272   */\n      dup6\n        /* \"#utility.yul\":3222:3293   */\n      tag_165\n      jump\t// in\n    tag_232:\n        /* \"#utility.yul\":3303:3375   */\n      tag_233\n        /* \"#utility.yul\":3371:3373   */\n      0x20\n        /* \"#utility.yul\":3360:3369   */\n      dup4\n        /* \"#utility.yul\":3356:3374   */\n      add\n        /* \"#utility.yul\":3347:3353   */\n      dup5\n        /* \"#utility.yul\":3303:3375   */\n      tag_153\n      jump\t// in\n    tag_233:\n        /* \"#utility.yul\":3050:3382   */\n      swap4\n      swap3\n      pop\n      pop\n      pop\n      jump\t// out\n        /* \"#utility.yul\":3388:3510   */\n    tag_166:\n        /* \"#utility.yul\":3461:3485   */\n      tag_235\n        /* \"#utility.yul\":3479:3484   */\n      dup2\n        /* \"#utility.yul\":3461:3485   */\n      tag_164\n      jump\t// in\n    tag_235:\n        /* \"#utility.yul\":3454:3459   */\n      dup2\n        /* \"#utility.yul\":3451:3486   */\n      eq\n        /* \"#utility.yul\":3441:3504   */\n      tag_236\n      jumpi\n        /* \"#utility.yul\":3500:3501   */\n      0x00\n        /* \"#utility.yul\":3497:3498   */\n      dup1\n        /* \"#utility.yul\":3490:3502   */\n      revert\n        /* \"#utility.yul\":3441:3504   */\n    tag_236:\n        /* \"#utility.yul\":3388:3510   */\n      pop\n      jump\t// out\n        /* \"#utility.yul\":3516:3655   */\n    tag_167:\n        /* \"#utility.yul\":3562:3567   */\n      0x00\n        /* \"#utility.yul\":3600:3606   */\n      dup2\n        /* \"#utility.yul\":3587:3607   */\n      calldataload\n        /* \"#utility.yul\":3578:3607   */\n      swap1\n      pop\n        /* \"#utility.yul\":3616:3649   */\n      tag_238\n        /* \"#utility.yul\":3643:3648   */\n      dup2\n        /* \"#utility.yul\":3616:3649   */\n      tag_166\n      jump\t// in\n    tag_238:\n        /* \"#utility.yul\":3516:3655   */\n      swap3\n      swap2\n      pop\n      pop\n      jump\t// out\n        /* \"#utility.yul\":3661:3990   */\n    tag_78:\n        /* \"#utility.yul\":3720:3726   */\n      0x00\n        /* \"#utility.yul\":3769:3771   */\n      0x20\n        /* \"#utility.yul\":3757:3766   */\n      dup3\n        /* \"#utility.yul\":3748:3755   */\n      dup5\n        /* \"#utility.yul\":3744:3767   */\n      sub\n        /* \"#utility.yul\":3740:3772   */\n      slt\n        /* \"#utility.yul\":3737:3856   */\n      iszero\n      tag_240\n      jumpi\n        /* \"#utility.yul\":3775:3854   */\n      tag_241\n      tag_155\n      jump\t// in\n    tag_241:\n        /* \"#utility.yul\":3737:3856   */\n    tag_240:\n        /* \"#utility.yul\":3895:3896   */\n      0x00\n        /* \"#utility.yul\":3920:3973   */\n      tag_242\n        /* \"#utility.yul\":3965:3972   */\n      dup5\n        /* \"#utility.yul\":3956:3962   */\n      dup3\n        /* \"#utility.yul\":3945:3954   */\n      dup6\n        /* \"#utility.yul\":3941:3963   */\n      add\n        /* \"#utility.yul\":3920:3973   */\n      tag_167\n      jump\t// in\n    tag_242:\n        /* \"#utility.yul\":3910:3973   */\n      swap2\n      pop\n        /* \"#utility.yul\":3866:3983   */\n      pop\n        /* \"#utility.yul\":3661:3990   */\n      swap3\n      swap2\n      pop\n      pop\n      jump\t// out\n        /* \"#utility.yul\":3996:4165   */\n    tag_168:\n        /* \"#utility.yul\":4080:4091   */\n      0x00\n        /* \"#utility.yul\":4114:4120   */\n      dup3\n        /* \"#utility.yul\":4109:4112   */\n      dup3\n        /* \"#utility.yul\":4102:4121   */\n      mstore\n        /* \"#utility.yul\":4154:4158   */\n      0x20\n        /* \"#utility.yul\":4149:4152   */\n      dup3\n        /* \"#utility.yul\":4145:4159   */\n      add\n        /* \"#utility.yul\":4130:4159   */\n      swap1\n      pop\n        /* \"#utility.yul\":3996:4165   */\n      swap3\n      swap2\n      pop\n      pop\n      jump\t// out\n        /* \"#utility.yul\":4171:4347   */\n    tag_169:\n        /* \"#utility.yul\":4311:4339   */\n      0x41756374696f6e207374696c6c20696e2070726f67726573732e000000000000\n        /* \"#utility.yul\":4307:4308   */\n      0x00\n        /* \"#utility.yul\":4299:4305   */\n      dup3\n        /* \"#utility.yul\":4295:4309   */\n      add\n        /* \"#utility.yul\":4288:4340   */\n      mstore\n        /* \"#utility.yul\":4171:4347   */\n      pop\n      jump\t// out\n        /* \"#utility.yul\":4353:4719   */\n    tag_170:\n        /* \"#utility.yul\":4495:4498   */\n      0x00\n        /* \"#utility.yul\":4516:4583   */\n      tag_246\n        /* \"#utility.yul\":4580:4582   */\n      0x1a\n        /* \"#utility.yul\":4575:4578   */\n      dup4\n        /* \"#utility.yul\":4516:4583   */\n      tag_168\n      jump\t// in\n    tag_246:\n        /* \"#utility.yul\":4509:4583   */\n      swap2\n      pop\n        /* \"#utility.yul\":4592:4685   */\n      tag_247\n        /* \"#utility.yul\":4681:4684   */\n      dup3\n        /* \"#utility.yul\":4592:4685   */\n      tag_169\n      jump\t// in\n    tag_247:\n        /* \"#utility.yul\":4710:4712   */\n      0x20\n        /* \"#utility.yul\":4705:4708   */\n      dup3\n        /* \"#utility.yul\":4701:4713   */\n      add\n        /* \"#utility.yul\":4694:4713   */\n      swap1\n      pop\n        /* \"#utility.yul\":4353:4719   */\n      swap2\n      swap1\n      pop\n      jump\t// out\n        /* \"#utility.yul\":4725:5144   */\n    tag_86:\n        /* \"#utility.yul\":4891:4895   */\n      0x00\n        /* \"#utility.yul\":4929:4931   */\n      0x20\n        /* \"#utility.yul\":4918:4927   */\n      dup3\n        /* \"#utility.yul\":4914:4932   */\n      add\n        /* \"#utility.yul\":4906:4932   */\n      swap1\n      pop\n        /* \"#utility.yul\":4978:4987   */\n      dup2\n        /* \"#utility.yul\":4972:4976   */\n      dup2\n        /* \"#utility.yul\":4968:4988   */\n      sub\n        /* \"#utility.yul\":4964:4965   */\n      0x00\n        /* \"#utility.yul\":4953:4962   */\n      dup4\n        /* \"#utility.yul\":4949:4966   */\n      add\n        /* \"#utility.yul\":4942:4989   */\n      mstore\n        /* \"#utility.yul\":5006:5137   */\n      tag_249\n        /* \"#utility.yul\":5132:5136   */\n      dup2\n        /* \"#utility.yul\":5006:5137   */\n      tag_170\n      jump\t// in\n    tag_249:\n        /* \"#utility.yul\":4998:5137   */\n      swap1\n      pop\n        /* \"#utility.yul\":4725:5144   */\n      swap2\n      swap1\n      pop\n      jump\t// out\n        /* \"#utility.yul\":5150:5332   */\n    tag_171:\n        /* \"#utility.yul\":5290:5324   */\n      0x41756374696f6e206d7573742062652066696e616c697a65642066697273742e\n        /* \"#utility.yul\":5286:5287   */\n      0x00\n        /* \"#utility.yul\":5278:5284   */\n      dup3\n        /* \"#utility.yul\":5274:5288   */\n      add\n        /* \"#utility.yul\":5267:5325   */\n      mstore\n        /* \"#utility.yul\":5150:5332   */\n      pop\n      jump\t// out\n        /* \"#utility.yul\":5338:5704   */\n    tag_172:\n        /* \"#utility.yul\":5480:5483   */\n      0x00\n        /* \"#utility.yul\":5501:5568   */\n      tag_252\n        /* \"#utility.yul\":5565:5567   */\n      0x20\n        /* \"#utility.yul\":5560:5563   */\n      dup4\n        /* \"#utility.yul\":5501:5568   */\n      tag_168\n      jump\t// in\n    tag_252:\n        /* \"#utility.yul\":5494:5568   */\n      swap2\n      pop\n        /* \"#utility.yul\":5577:5670   */\n      tag_253\n        /* \"#utility.yul\":5666:5669   */\n      dup3\n        /* \"#utility.yul\":5577:5670   */\n      tag_171\n      jump\t// in\n    tag_253:\n        /* \"#utility.yul\":5695:5697   */\n      0x20\n        /* \"#utility.yul\":5690:5693   */\n      dup3\n        /* \"#utility.yul\":5686:5698   */\n      add\n        /* \"#utility.yul\":5679:5698   */\n      swap1\n      pop\n        /* \"#utility.yul\":5338:5704   */\n      swap2\n      swap1\n      pop\n      jump\t// out\n        /* \"#utility.yul\":5710:6129   */\n    tag_90:\n        /* \"#utility.yul\":5876:5880   */\n      0x00\n        /* \"#utility.yul\":5914:5916   */\n      0x20\n        /* \"#utility.yul\":5903:5912   */\n      dup3\n        /* \"#utility.yul\":5899:5917   */\n      add\n        /* \"#utility.yul\":5891:5917   */\n      swap1\n      pop\n        /* \"#utility.yul\":5963:5972   */\n      dup2\n        /* \"#utility.yul\":5957:5961   */\n      dup2\n        /* \"#utility.yul\":5953:5973   */\n      sub\n        /* \"#utility.yul\":5949:5950   */\n      0x00\n        /* \"#utility.yul\":5938:5947   */\n      dup4\n        /* \"#utility.yul\":5934:5951   */\n      add\n        /* \"#utility.yul\":5927:5974   */\n      mstore\n        /* \"#utility.yul\":5991:6122   */\n      tag_255\n        /* \"#utility.yul\":6117:6121   */\n      dup2\n        /* \"#utility.yul\":5991:6122   */\n      tag_172\n      jump\t// in\n    tag_255:\n        /* \"#utility.yul\":5983:6122   */\n      swap1\n      pop\n        /* \"#utility.yul\":5710:6129   */\n      swap2\n      swap1\n      pop\n      jump\t// out\n        /* \"#utility.yul\":6135:6305   */\n    tag_173:\n        /* \"#utility.yul\":6275:6297   */\n      0x4e6f20726566756e6420617661696c61626c652e000000000000000000000000\n        /* \"#utility.yul\":6271:6272   */\n      0x00\n        /* \"#utility.yul\":6263:6269   */\n      dup3\n        /* \"#utility.yul\":6259:6273   */\n      add\n        /* \"#utility.yul\":6252:6298   */\n      mstore\n        /* \"#utility.yul\":6135:6305   */\n      pop\n      jump\t// out\n        /* \"#utility.yul\":6311:6677   */\n    tag_174:\n        /* \"#utility.yul\":6453:6456   */\n      0x00\n        /* \"#utility.yul\":6474:6541   */\n      tag_258\n        /* \"#utility.yul\":6538:6540   */\n      0x14\n        /* \"#utility.yul\":6533:6536   */\n      dup4\n        /* \"#utility.yul\":6474:6541   */\n      tag_168\n      jump\t// in\n    tag_258:\n        /* \"#utility.yul\":6467:6541   */\n      swap2\n      pop\n        /* \"#utility.yul\":6550:6643   */\n      tag_259\n        /* \"#utility.yul\":6639:6642   */\n      dup3\n        /* \"#utility.yul\":6550:6643   */\n      tag_173\n      jump\t// in\n    tag_259:\n        /* \"#utility.yul\":6668:6670   */\n      0x20\n        /* \"#utility.yul\":6663:6666   */\n      dup3\n        /* \"#utility.yul\":6659:6671   */\n      add\n        /* \"#utility.yul\":6652:6671   */\n      swap1\n      pop\n        /* \"#utility.yul\":6311:6677   */\n      swap2\n      swap1\n      pop\n      jump\t// out\n        /* \"#utility.yul\":6683:7102   */\n    tag_93:\n        /* \"#utility.yul\":6849:6853   */\n      0x00\n        /* \"#utility.yul\":6887:6889   */\n      0x20\n        /* \"#utility.yul\":6876:6885   */\n      dup3\n        /* \"#utility.yul\":6872:6890   */\n      add\n        /* \"#utility.yul\":6864:6890   */\n      swap1\n      pop\n        /* \"#utility.yul\":6936:6945   */\n      dup2\n        /* \"#utility.yul\":6930:6934   */\n      dup2\n        /* \"#utility.yul\":6926:6946   */\n      sub\n        /* \"#utility.yul\":6922:6923   */\n      0x00\n        /* \"#utility.yul\":6911:6920   */\n      dup4\n        /* \"#utility.yul\":6907:6924   */\n      add\n        /* \"#utility.yul\":6900:6947   */\n      mstore\n        /* \"#utility.yul\":6964:7095   */\n      tag_261\n        /* \"#utility.yul\":7090:7094   */\n      dup2\n        /* \"#utility.yul\":6964:7095   */\n      tag_174\n      jump\t// in\n    tag_261:\n        /* \"#utility.yul\":6956:7095   */\n      swap1\n      pop\n        /* \"#utility.yul\":6683:7102   */\n      swap2\n      swap1\n      pop\n      jump\t// out\n        /* \"#utility.yul\":7108:7288   */\n    tag_175:\n        /* \"#utility.yul\":7156:7233   */\n      0x4e487b7100000000000000000000000000000000000000000000000000000000\n        /* \"#utility.yul\":7153:7154   */\n      0x00\n        /* \"#utility.yul\":7146:7234   */\n      mstore\n        /* \"#utility.yul\":7253:7257   */\n      0x11\n        /* \"#utility.yul\":7250:7251   */\n      0x04\n        /* \"#utility.yul\":7243:7258   */\n      mstore\n        /* \"#utility.yul\":7277:7281   */\n      0x24\n        /* \"#utility.yul\":7274:7275   */\n      0x00\n        /* \"#utility.yul\":7267:7282   */\n      revert\n        /* \"#utility.yul\":7294:7704   */\n    tag_95:\n        /* \"#utility.yul\":7334:7341   */\n      0x00\n        /* \"#utility.yul\":7357:7377   */\n      tag_264\n        /* \"#utility.yul\":7375:7376   */\n      dup3\n        /* \"#utility.yul\":7357:7377   */\n      tag_152\n      jump\t// in\n    tag_264:\n        /* \"#utility.yul\":7352:7377   */\n      swap2\n      pop\n        /* \"#utility.yul\":7391:7411   */\n      tag_265\n        /* \"#utility.yul\":7409:7410   */\n      dup4\n        /* \"#utility.yul\":7391:7411   */\n      tag_152\n      jump\t// in\n    tag_265:\n        /* \"#utility.yul\":7386:7411   */\n      swap3\n      pop\n        /* \"#utility.yul\":7446:7447   */\n      dup3\n        /* \"#utility.yul\":7443:7444   */\n      dup3\n        /* \"#utility.yul\":7439:7448   */\n      mul\n        /* \"#utility.yul\":7468:7498   */\n      tag_266\n        /* \"#utility.yul\":7486:7497   */\n      dup2\n        /* \"#utility.yul\":7468:7498   */\n      tag_152\n      jump\t// in\n    tag_266:\n        /* \"#utility.yul\":7457:7498   */\n      swap2\n      pop\n        /* \"#utility.yul\":7647:7648   */\n      dup3\n        /* \"#utility.yul\":7638:7645   */\n      dup3\n        /* \"#utility.yul\":7634:7649   */\n      div\n        /* \"#utility.yul\":7631:7632   */\n      dup5\n        /* \"#utility.yul\":7628:7650   */\n      eq\n        /* \"#utility.yul\":7608:7609   */\n      dup4\n        /* \"#utility.yul\":7601:7610   */\n      iszero\n        /* \"#utility.yul\":7581:7664   */\n      or\n        /* \"#utility.yul\":7558:7697   */\n      tag_267\n      jumpi\n        /* \"#utility.yul\":7677:7695   */\n      tag_268\n      tag_175\n      jump\t// in\n    tag_268:\n        /* \"#utility.yul\":7558:7697   */\n    tag_267:\n        /* \"#utility.yul\":7342:7704   */\n      pop\n        /* \"#utility.yul\":7294:7704   */\n      swap3\n      swap2\n      pop\n      pop\n      jump\t// out\n        /* \"#utility.yul\":7710:7890   */\n    tag_176:\n        /* \"#utility.yul\":7758:7835   */\n      0x4e487b7100000000000000000000000000000000000000000000000000000000\n        /* \"#utility.yul\":7755:7756   */\n      0x00\n        /* \"#utility.yul\":7748:7836   */\n      mstore\n        /* \"#utility.yul\":7855:7859   */\n      0x12\n        /* \"#utility.yul\":7852:7853   */\n      0x04\n        /* \"#utility.yul\":7845:7860   */\n      mstore\n        /* \"#utility.yul\":7879:7883   */\n      0x24\n        /* \"#utility.yul\":7876:7877   */\n      0x00\n        /* \"#utility.yul\":7869:7884   */\n      revert\n        /* \"#utility.yul\":7896:8081   */\n    tag_97:\n        /* \"#utility.yul\":7936:7937   */\n      0x00\n        /* \"#utility.yul\":7953:7973   */\n      tag_271\n        /* \"#utility.yul\":7971:7972   */\n      dup3\n        /* \"#utility.yul\":7953:7973   */\n      tag_152\n      jump\t// in\n    tag_271:\n        /* \"#utility.yul\":7948:7973   */\n      swap2\n      pop\n        /* \"#utility.yul\":7987:8007   */\n      tag_272\n        /* \"#utility.yul\":8005:8006   */\n      dup4\n        /* \"#utility.yul\":7987:8007   */\n      tag_152\n      jump\t// in\n    tag_272:\n        /* \"#utility.yul\":7982:8007   */\n      swap3\n      pop\n        /* \"#utility.yul\":8026:8027   */\n      dup3\n        /* \"#utility.yul\":8016:8051   */\n      tag_273\n      jumpi\n        /* \"#utility.yul\":8031:8049   */\n      tag_274\n      tag_176\n      jump\t// in\n    tag_274:\n        /* \"#utility.yul\":8016:8051   */\n    tag_273:\n        /* \"#utility.yul\":8073:8074   */\n      dup3\n        /* \"#utility.yul\":8070:8071   */\n      dup3\n        /* \"#utility.yul\":8066:8075   */\n      div\n        /* \"#utility.yul\":8061:8075   */\n      swap1\n      pop\n        /* \"#utility.yul\":7896:8081   */\n      swap3\n      swap2\n      pop\n      pop\n      jump\t// out\n        /* \"#utility.yul\":8087:8281   */\n    tag_99:\n        /* \"#utility.yul\":8127:8131   */\n      0x00\n        /* \"#utility.yul\":8147:8167   */\n      tag_276\n        /* \"#utility.yul\":8165:8166   */\n      dup3\n        /* \"#utility.yul\":8147:8167   */\n      tag_152\n      jump\t// in\n    tag_276:\n        /* \"#utility.yul\":8142:8167   */\n      swap2\n      pop\n        /* \"#utility.yul\":8181:8201   */\n      tag_277\n        /* \"#utility.yul\":8199:8200   */\n      dup4\n        /* \"#utility.yul\":8181:8201   */\n      tag_152\n      jump\t// in\n    tag_277:\n        /* \"#utility.yul\":8176:8201   */\n      swap3\n      pop\n        /* \"#utility.yul\":8225:8226   */\n      dup3\n        /* \"#utility.yul\":8222:8223   */\n      dup3\n        /* \"#utility.yul\":8218:8227   */\n      sub\n        /* \"#utility.yul\":8210:8227   */\n      swap1\n      pop\n        /* \"#utility.yul\":8249:8250   */\n      dup2\n        /* \"#utility.yul\":8243:8247   */\n      dup2\n        /* \"#utility.yul\":8240:8251   */\n      gt\n        /* \"#utility.yul\":8237:8274   */\n      iszero\n      tag_278\n      jumpi\n        /* \"#utility.yul\":8254:8272   */\n      tag_279\n      tag_175\n      jump\t// in\n    tag_279:\n        /* \"#utility.yul\":8237:8274   */\n    tag_278:\n        /* \"#utility.yul\":8087:8281   */\n      swap3\n      swap2\n      pop\n      pop\n      jump\t// out\n        /* \"#utility.yul\":8287:8463   */\n    tag_177:\n        /* \"#utility.yul\":8427:8455   */\n      0x41756374696f6e206e6f742066696e616c697a6564207965742e000000000000\n        /* \"#utility.yul\":8423:8424   */\n      0x00\n        /* \"#utility.yul\":8415:8421   */\n      dup3\n        /* \"#utility.yul\":8411:8425   */\n      add\n        /* \"#utility.yul\":8404:8456   */\n      mstore\n        /* \"#utility.yul\":8287:8463   */\n      pop\n      jump\t// out\n        /* \"#utility.yul\":8469:8835   */\n    tag_178:\n        /* \"#utility.yul\":8611:8614   */\n      0x00\n        /* \"#utility.yul\":8632:8699   */\n      tag_282\n        /* \"#utility.yul\":8696:8698   */\n      0x1a\n        /* \"#utility.yul\":8691:8694   */\n      dup4\n        /* \"#utility.yul\":8632:8699   */\n      tag_168\n      jump\t// in\n    tag_282:\n        /* \"#utility.yul\":8625:8699   */\n      swap2\n      pop\n        /* \"#utility.yul\":8708:8801   */\n      tag_283\n        /* \"#utility.yul\":8797:8800   */\n      dup3\n        /* \"#utility.yul\":8708:8801   */\n      tag_177\n      jump\t// in\n    tag_283:\n        /* \"#utility.yul\":8826:8828   */\n      0x20\n        /* \"#utility.yul\":8821:8824   */\n      dup3\n        /* \"#utility.yul\":8817:8829   */\n      add\n        /* \"#utility.yul\":8810:8829   */\n      swap1\n      pop\n        /* \"#utility.yul\":8469:8835   */\n      swap2\n      swap1\n      pop\n      jump\t// out\n        /* \"#utility.yul\":8841:9260   */\n    tag_109:\n        /* \"#utility.yul\":9007:9011   */\n      0x00\n        /* \"#utility.yul\":9045:9047   */\n      0x20\n        /* \"#utility.yul\":9034:9043   */\n      dup3\n        /* \"#utility.yul\":9030:9048   */\n      add\n        /* \"#utility.yul\":9022:9048   */\n      swap1\n      pop\n        /* \"#utility.yul\":9094:9103   */\n      dup2\n        /* \"#utility.yul\":9088:9092   */\n      dup2\n        /* \"#utility.yul\":9084:9104   */\n      sub\n        /* \"#utility.yul\":9080:9081   */\n      0x00\n        /* \"#utility.yul\":9069:9078   */\n      dup4\n        /* \"#utility.yul\":9065:9082   */\n      add\n        /* \"#utility.yul\":9058:9105   */\n      mstore\n        /* \"#utility.yul\":9122:9253   */\n      tag_285\n        /* \"#utility.yul\":9248:9252   */\n      dup2\n        /* \"#utility.yul\":9122:9253   */\n      tag_178\n      jump\t// in\n    tag_285:\n        /* \"#utility.yul\":9114:9253   */\n      swap1\n      pop\n        /* \"#utility.yul\":8841:9260   */\n      swap2\n      swap1\n      pop\n      jump\t// out\n        /* \"#utility.yul\":9266:9434   */\n    tag_179:\n        /* \"#utility.yul\":9406:9426   */\n      0x41756374696f6e2068617320656e6465642e0000000000000000000000000000\n        /* \"#utility.yul\":9402:9403   */\n      0x00\n        /* \"#utility.yul\":9394:9400   */\n      dup3\n        /* \"#utility.yul\":9390:9404   */\n      add\n        /* \"#utility.yul\":9383:9427   */\n      mstore\n        /* \"#utility.yul\":9266:9434   */\n      pop\n      jump\t// out\n        /* \"#utility.yul\":9440:9806   */\n    tag_180:\n        /* \"#utility.yul\":9582:9585   */\n      0x00\n        /* \"#utility.yul\":9603:9670   */\n      tag_288\n        /* \"#utility.yul\":9667:9669   */\n      0x12\n        /* \"#utility.yul\":9662:9665   */\n      dup4\n        /* \"#utility.yul\":9603:9670   */\n      tag_168\n      jump\t// in\n    tag_288:\n        /* \"#utility.yul\":9596:9670   */\n      swap2\n      pop\n        /* \"#utility.yul\":9679:9772   */\n      tag_289\n        /* \"#utility.yul\":9768:9771   */\n      dup3\n        /* \"#utility.yul\":9679:9772   */\n      tag_179\n      jump\t// in\n    tag_289:\n        /* \"#utility.yul\":9797:9799   */\n      0x20\n        /* \"#utility.yul\":9792:9795   */\n      dup3\n        /* \"#utility.yul\":9788:9800   */\n      add\n        /* \"#utility.yul\":9781:9800   */\n      swap1\n      pop\n        /* \"#utility.yul\":9440:9806   */\n      swap2\n      swap1\n      pop\n      jump\t// out\n        /* \"#utility.yul\":9812:10231   */\n    tag_113:\n        /* \"#utility.yul\":9978:9982   */\n      0x00\n        /* \"#utility.yul\":10016:10018   */\n      0x20\n        /* \"#utility.yul\":10005:10014   */\n      dup3\n        /* \"#utility.yul\":10001:10019   */\n      add\n        /* \"#utility.yul\":9993:10019   */\n      swap1\n      pop\n        /* \"#utility.yul\":10065:10074   */\n      dup2\n        /* \"#utility.yul\":10059:10063   */\n      dup2\n        /* \"#utility.yul\":10055:10075   */\n      sub\n        /* \"#utility.yul\":10051:10052   */\n      0x00\n        /* \"#utility.yul\":10040:10049   */\n      dup4\n        /* \"#utility.yul\":10036:10053   */\n      add\n        /* \"#utility.yul\":10029:10076   */\n      mstore\n        /* \"#utility.yul\":10093:10224   */\n      tag_291\n        /* \"#utility.yul\":10219:10223   */\n      dup2\n        /* \"#utility.yul\":10093:10224   */\n      tag_180\n      jump\t// in\n    tag_291:\n        /* \"#utility.yul\":10085:10224   */\n      swap1\n      pop\n        /* \"#utility.yul\":9812:10231   */\n      swap2\n      swap1\n      pop\n      jump\t// out\n        /* \"#utility.yul\":10237:10417   */\n    tag_181:\n        /* \"#utility.yul\":10377:10409   */\n      0x426964206d7573742062652067726561746572207468616e207a65726f2e0000\n        /* \"#utility.yul\":10373:10374   */\n      0x00\n        /* \"#utility.yul\":10365:10371   */\n      dup3\n        /* \"#utility.yul\":10361:10375   */\n      add\n        /* \"#utility.yul\":10354:10410   */\n      mstore\n        /* \"#utility.yul\":10237:10417   */\n      pop\n      jump\t// out\n        /* \"#utility.yul\":10423:10789   */\n    tag_182:\n        /* \"#utility.yul\":10565:10568   */\n      0x00\n        /* \"#utility.yul\":10586:10653   */\n      tag_294\n        /* \"#utility.yul\":10650:10652   */\n      0x1e\n        /* \"#utility.yul\":10645:10648   */\n      dup4\n        /* \"#utility.yul\":10586:10653   */\n      tag_168\n      jump\t// in\n    tag_294:\n        /* \"#utility.yul\":10579:10653   */\n      swap2\n      pop\n        /* \"#utility.yul\":10662:10755   */\n      tag_295\n        /* \"#utility.yul\":10751:10754   */\n      dup3\n        /* \"#utility.yul\":10662:10755   */\n      tag_181\n      jump\t// in\n    tag_295:\n        /* \"#utility.yul\":10780:10782   */\n      0x20\n        /* \"#utility.yul\":10775:10778   */\n      dup3\n        /* \"#utility.yul\":10771:10783   */\n      add\n        /* \"#utility.yul\":10764:10783   */\n      swap1\n      pop\n        /* \"#utility.yul\":10423:10789   */\n      swap2\n      swap1\n      pop\n      jump\t// out\n        /* \"#utility.yul\":10795:11214   */\n    tag_117:\n        /* \"#utility.yul\":10961:10965   */\n      0x00\n        /* \"#utility.yul\":10999:11001   */\n      0x20\n        /* \"#utility.yul\":10988:10997   */\n      dup3\n        /* \"#utility.yul\":10984:11002   */\n      add\n        /* \"#utility.yul\":10976:11002   */\n      swap1\n      pop\n        /* \"#utility.yul\":11048:11057   */\n      dup2\n        /* \"#utility.yul\":11042:11046   */\n      dup2\n        /* \"#utility.yul\":11038:11058   */\n      sub\n        /* \"#utility.yul\":11034:11035   */\n      0x00\n        /* \"#utility.yul\":11023:11032   */\n      dup4\n        /* \"#utility.yul\":11019:11036   */\n      add\n        /* \"#utility.yul\":11012:11059   */\n      mstore\n        /* \"#utility.yul\":11076:11207   */\n      tag_297\n        /* \"#utility.yul\":11202:11206   */\n      dup2\n        /* \"#utility.yul\":11076:11207   */\n      tag_182\n      jump\t// in\n    tag_297:\n        /* \"#utility.yul\":11068:11207   */\n      swap1\n      pop\n        /* \"#utility.yul\":10795:11214   */\n      swap2\n      swap1\n      pop\n      jump\t// out\n        /* \"#utility.yul\":11220:11411   */\n    tag_121:\n        /* \"#utility.yul\":11260:11263   */\n      0x00\n        /* \"#utility.yul\":11279:11299   */\n      tag_299\n        /* \"#utility.yul\":11297:11298   */\n      dup3\n        /* \"#utility.yul\":11279:11299   */\n      tag_152\n      jump\t// in\n    tag_299:\n        /* \"#utility.yul\":11274:11299   */\n      swap2\n      pop\n        /* \"#utility.yul\":11313:11333   */\n      tag_300\n        /* \"#utility.yul\":11331:11332   */\n      dup4\n        /* \"#utility.yul\":11313:11333   */\n      tag_152\n      jump\t// in\n    tag_300:\n        /* \"#utility.yul\":11308:11333   */\n      swap3\n      pop\n        /* \"#utility.yul\":11356:11357   */\n      dup3\n        /* \"#utility.yul\":11353:11354   */\n      dup3\n        /* \"#utility.yul\":11349:11358   */\n      add\n        /* \"#utility.yul\":11342:11358   */\n      swap1\n      pop\n        /* \"#utility.yul\":11377:11380   */\n      dup1\n        /* \"#utility.yul\":11374:11375   */\n      dup3\n        /* \"#utility.yul\":11371:11381   */\n      gt\n        /* \"#utility.yul\":11368:11404   */\n      iszero\n      tag_301\n      jumpi\n        /* \"#utility.yul\":11384:11402   */\n      tag_302\n      tag_175\n      jump\t// in\n    tag_302:\n        /* \"#utility.yul\":11368:11404   */\n    tag_301:\n        /* \"#utility.yul\":11220:11411   */\n      swap3\n      swap2\n      pop\n      pop\n      jump\t// out\n        /* \"#utility.yul\":11417:11598   */\n    tag_183:\n        /* \"#utility.yul\":11557:11590   */\n      0x426964206d757374206265206174206c65617374203525206869676865722e00\n        /* \"#utility.yul\":11553:11554   */\n      0x00\n        /* \"#utility.yul\":11545:11551   */\n      dup3\n        /* \"#utility.yul\":11541:11555   */\n      add\n        /* \"#utility.yul\":11534:11591   */\n      mstore\n        /* \"#utility.yul\":11417:11598   */\n      pop\n      jump\t// out\n        /* \"#utility.yul\":11604:11970   */\n    tag_184:\n        /* \"#utility.yul\":11746:11749   */\n      0x00\n        /* \"#utility.yul\":11767:11834   */\n      tag_305\n        /* \"#utility.yul\":11831:11833   */\n      0x1f\n        /* \"#utility.yul\":11826:11829   */\n      dup4\n        /* \"#utility.yul\":11767:11834   */\n      tag_168\n      jump\t// in\n    tag_305:\n        /* \"#utility.yul\":11760:11834   */\n      swap2\n      pop\n        /* \"#utility.yul\":11843:11936   */\n      tag_306\n        /* \"#utility.yul\":11932:11935   */\n      dup3\n        /* \"#utility.yul\":11843:11936   */\n      tag_183\n      jump\t// in\n    tag_306:\n        /* \"#utility.yul\":11961:11963   */\n      0x20\n        /* \"#utility.yul\":11956:11959   */\n      dup3\n        /* \"#utility.yul\":11952:11964   */\n      add\n        /* \"#utility.yul\":11945:11964   */\n      swap1\n      pop\n        /* \"#utility.yul\":11604:11970   */\n      swap2\n      swap1\n      pop\n      jump\t// out\n        /* \"#utility.yul\":11976:12395   */\n    tag_124:\n        /* \"#utility.yul\":12142:12146   */\n      0x00\n        /* \"#utility.yul\":12180:12182   */\n      0x20\n        /* \"#utility.yul\":12169:12178   */\n      dup3\n        /* \"#utility.yul\":12165:12183   */\n      add\n        /* \"#utility.yul\":12157:12183   */\n      swap1\n      pop\n        /* \"#utility.yul\":12229:12238   */\n      dup2\n        /* \"#utility.yul\":12223:12227   */\n      dup2\n        /* \"#utility.yul\":12219:12239   */\n      sub\n        /* \"#utility.yul\":12215:12216   */\n      0x00\n        /* \"#utility.yul\":12204:12213   */\n      dup4\n        /* \"#utility.yul\":12200:12217   */\n      add\n        /* \"#utility.yul\":12193:12240   */\n      mstore\n        /* \"#utility.yul\":12257:12388   */\n      tag_308\n        /* \"#utility.yul\":12383:12387   */\n      dup2\n        /* \"#utility.yul\":12257:12388   */\n      tag_184\n      jump\t// in\n    tag_308:\n        /* \"#utility.yul\":12249:12388   */\n      swap1\n      pop\n        /* \"#utility.yul\":11976:12395   */\n      swap2\n      swap1\n      pop\n      jump\t// out\n        /* \"#utility.yul\":12401:12733   */\n    tag_133:\n        /* \"#utility.yul\":12522:12526   */\n      0x00\n        /* \"#utility.yul\":12560:12562   */\n      0x40\n        /* \"#utility.yul\":12549:12558   */\n      dup3\n        /* \"#utility.yul\":12545:12563   */\n      add\n        /* \"#utility.yul\":12537:12563   */\n      swap1\n      pop\n        /* \"#utility.yul\":12573:12644   */\n      tag_310\n        /* \"#utility.yul\":12641:12642   */\n      0x00\n        /* \"#utility.yul\":12630:12639   */\n      dup4\n        /* \"#utility.yul\":12626:12643   */\n      add\n        /* \"#utility.yul\":12617:12623   */\n      dup6\n        /* \"#utility.yul\":12573:12644   */\n      tag_153\n      jump\t// in\n    tag_310:\n        /* \"#utility.yul\":12654:12726   */\n      tag_311\n        /* \"#utility.yul\":12722:12724   */\n      0x20\n        /* \"#utility.yul\":12711:12720   */\n      dup4\n        /* \"#utility.yul\":12707:12725   */\n      add\n        /* \"#utility.yul\":12698:12704   */\n      dup5\n        /* \"#utility.yul\":12654:12726   */\n      tag_153\n      jump\t// in\n    tag_311:\n        /* \"#utility.yul\":12401:12733   */\n      swap4\n      swap3\n      pop\n      pop\n      pop\n      jump\t// out\n        /* \"#utility.yul\":12739:12918   */\n    tag_185:\n        /* \"#utility.yul\":12879:12910   */\n      0x4f6e6c792061756374696f6e6565722063616e2066696e616c697a652e000000\n        /* \"#utility.yul\":12875:12876   */\n      0x00\n        /* \"#utility.yul\":12867:12873   */\n      dup3\n        /* \"#utility.yul\":12863:12877   */\n      add\n        /* \"#utility.yul\":12856:12911   */\n      mstore\n        /* \"#utility.yul\":12739:12918   */\n      pop\n      jump\t// out\n        /* \"#utility.yul\":12924:13290   */\n    tag_186:\n        /* \"#utility.yul\":13066:13069   */\n      0x00\n        /* \"#utility.yul\":13087:13154   */\n      tag_314\n        /* \"#utility.yul\":13151:13153   */\n      0x1d\n        /* \"#utility.yul\":13146:13149   */\n      dup4\n        /* \"#utility.yul\":13087:13154   */\n      tag_168\n      jump\t// in\n    tag_314:\n        /* \"#utility.yul\":13080:13154   */\n      swap2\n      pop\n        /* \"#utility.yul\":13163:13256   */\n      tag_315\n        /* \"#utility.yul\":13252:13255   */\n      dup3\n        /* \"#utility.yul\":13163:13256   */\n      tag_185\n      jump\t// in\n    tag_315:\n        /* \"#utility.yul\":13281:13283   */\n      0x20\n        /* \"#utility.yul\":13276:13279   */\n      dup3\n        /* \"#utility.yul\":13272:13284   */\n      add\n        /* \"#utility.yul\":13265:13284   */\n      swap1\n      pop\n        /* \"#utility.yul\":12924:13290   */\n      swap2\n      swap1\n      pop\n      jump\t// out\n        /* \"#utility.yul\":13296:13715   */\n    tag_137:\n        /* \"#utility.yul\":13462:13466   */\n      0x00\n        /* \"#utility.yul\":13500:13502   */\n      0x20\n        /* \"#utility.yul\":13489:13498   */\n      dup3\n        /* \"#utility.yul\":13485:13503   */\n      add\n        /* \"#utility.yul\":13477:13503   */\n      swap1\n      pop\n        /* \"#utility.yul\":13549:13558   */\n      dup2\n        /* \"#utility.yul\":13543:13547   */\n      dup2\n        /* \"#utility.yul\":13539:13559   */\n      sub\n        /* \"#utility.yul\":13535:13536   */\n      0x00\n        /* \"#utility.yul\":13524:13533   */\n      dup4\n        /* \"#utility.yul\":13520:13537   */\n      add\n        /* \"#utility.yul\":13513:13560   */\n      mstore\n        /* \"#utility.yul\":13577:13708   */\n      tag_317\n        /* \"#utility.yul\":13703:13707   */\n      dup2\n        /* \"#utility.yul\":13577:13708   */\n      tag_186\n      jump\t// in\n    tag_317:\n        /* \"#utility.yul\":13569:13708   */\n      swap1\n      pop\n        /* \"#utility.yul\":13296:13715   */\n      swap2\n      swap1\n      pop\n      jump\t// out\n        /* \"#utility.yul\":13721:13897   */\n    tag_187:\n        /* \"#utility.yul\":13861:13889   */\n      0x41756374696f6e20616c72656164792066696e616c697a65642e000000000000\n        /* \"#utility.yul\":13857:13858   */\n      0x00\n        /* \"#utility.yul\":13849:13855   */\n      dup3\n        /* \"#utility.yul\":13845:13859   */\n      add\n        /* \"#utility.yul\":13838:13890   */\n      mstore\n        /* \"#utility.yul\":13721:13897   */\n      pop\n      jump\t// out\n        /* \"#utility.yul\":13903:14269   */\n    tag_188:\n        /* \"#utility.yul\":14045:14048   */\n      0x00\n        /* \"#utility.yul\":14066:14133   */\n      tag_320\n        /* \"#utility.yul\":14130:14132   */\n      0x1a\n        /* \"#utility.yul\":14125:14128   */\n      dup4\n        /* \"#utility.yul\":14066:14133   */\n      tag_168\n      jump\t// in\n    tag_320:\n        /* \"#utility.yul\":14059:14133   */\n      swap2\n      pop\n        /* \"#utility.yul\":14142:14235   */\n      tag_321\n        /* \"#utility.yul\":14231:14234   */\n      dup3\n        /* \"#utility.yul\":14142:14235   */\n      tag_187\n      jump\t// in\n    tag_321:\n        /* \"#utility.yul\":14260:14262   */\n      0x20\n        /* \"#utility.yul\":14255:14258   */\n      dup3\n        /* \"#utility.yul\":14251:14263   */\n      add\n        /* \"#utility.yul\":14244:14263   */\n      swap1\n      pop\n        /* \"#utility.yul\":13903:14269   */\n      swap2\n      swap1\n      pop\n      jump\t// out\n        /* \"#utility.yul\":14275:14694   */\n    tag_144:\n        /* \"#utility.yul\":14441:14445   */\n      0x00\n        /* \"#utility.yul\":14479:14481   */\n      0x20\n        /* \"#utility.yul\":14468:14477   */\n      dup3\n        /* \"#utility.yul\":14464:14482   */\n      add\n        /* \"#utility.yul\":14456:14482   */\n      swap1\n      pop\n        /* \"#utility.yul\":14528:14537   */\n      dup2\n        /* \"#utility.yul\":14522:14526   */\n      dup2\n        /* \"#utility.yul\":14518:14538   */\n      sub\n        /* \"#utility.yul\":14514:14515   */\n      0x00\n        /* \"#utility.yul\":14503:14512   */\n      dup4\n        /* \"#utility.yul\":14499:14516   */\n      add\n        /* \"#utility.yul\":14492:14539   */\n      mstore\n        /* \"#utility.yul\":14556:14687   */\n      tag_323\n        /* \"#utility.yul\":14682:14686   */\n      dup2\n        /* \"#utility.yul\":14556:14687   */\n      tag_188\n      jump\t// in\n    tag_323:\n        /* \"#utility.yul\":14548:14687   */\n      swap1\n      pop\n        /* \"#utility.yul\":14275:14694   */\n      swap2\n      swap1\n      pop\n      jump\t// out\n        /* \"#utility.yul\":14700:14760   */\n    tag_189:\n        /* \"#utility.yul\":14728:14731   */\n      0x00\n        /* \"#utility.yul\":14749:14754   */\n      dup2\n        /* \"#utility.yul\":14742:14754   */\n      swap1\n      pop\n        /* \"#utility.yul\":14700:14760   */\n      swap2\n      swap1\n      pop\n      jump\t// out\n        /* \"#utility.yul\":14766:14908   */\n    tag_190:\n        /* \"#utility.yul\":14816:14825   */\n      0x00\n        /* \"#utility.yul\":14849:14902   */\n      tag_326\n        /* \"#utility.yul\":14867:14901   */\n      tag_327\n        /* \"#utility.yul\":14876:14900   */\n      tag_328\n        /* \"#utility.yul\":14894:14899   */\n      dup5\n        /* \"#utility.yul\":14876:14900   */\n      tag_159\n      jump\t// in\n    tag_328:\n        /* \"#utility.yul\":14867:14901   */\n      tag_189\n      jump\t// in\n    tag_327:\n        /* \"#utility.yul\":14849:14902   */\n      tag_159\n      jump\t// in\n    tag_326:\n        /* \"#utility.yul\":14836:14902   */\n      swap1\n      pop\n        /* \"#utility.yul\":14766:14908   */\n      swap2\n      swap1\n      pop\n      jump\t// out\n        /* \"#utility.yul\":14914:15040   */\n    tag_191:\n        /* \"#utility.yul\":14964:14973   */\n      0x00\n        /* \"#utility.yul\":14997:15034   */\n      tag_330\n        /* \"#utility.yul\":15028:15033   */\n      dup3\n        /* \"#utility.yul\":14997:15034   */\n      tag_190\n      jump\t// in\n    tag_330:\n        /* \"#utility.yul\":14984:15034   */\n      swap1\n      pop\n        /* \"#utility.yul\":14914:15040   */\n      swap2\n      swap1\n      pop\n      jump\t// out\n        /* \"#utility.yul\":15046:15180   */\n    tag_192:\n        /* \"#utility.yul\":15104:15113   */\n      0x00\n        /* \"#utility.yul\":15137:15174   */\n      tag_332\n        /* \"#utility.yul\":15168:15173   */\n      dup3\n        /* \"#utility.yul\":15137:15174   */\n      tag_191\n      jump\t// in\n    tag_332:\n        /* \"#utility.yul\":15124:15174   */\n      swap1\n      pop\n        /* \"#utility.yul\":15046:15180   */\n      swap2\n      swap1\n      pop\n      jump\t// out\n        /* \"#utility.yul\":15186:15333   */\n    tag_193:\n        /* \"#utility.yul\":15281:15326   */\n      tag_334\n        /* \"#utility.yul\":15320:15325   */\n      dup2\n        /* \"#utility.yul\":15281:15326   */\n      tag_192\n      jump\t// in\n    tag_334:\n        /* \"#utility.yul\":15276:15279   */\n      dup3\n        /* \"#utility.yul\":15269:15327   */\n      mstore\n        /* \"#utility.yul\":15186:15333   */\n      pop\n      pop\n      jump\t// out\n        /* \"#utility.yul\":15339:15687   */\n    tag_151:\n        /* \"#utility.yul\":15468:15472   */\n      0x00\n        /* \"#utility.yul\":15506:15508   */\n      0x40\n        /* \"#utility.yul\":15495:15504   */\n      dup3\n        /* \"#utility.yul\":15491:15509   */\n      add\n        /* \"#utility.yul\":15483:15509   */\n      swap1\n      pop\n        /* \"#utility.yul\":15519:15598   */\n      tag_336\n        /* \"#utility.yul\":15595:15596   */\n      0x00\n        /* \"#utility.yul\":15584:15593   */\n      dup4\n        /* \"#utility.yul\":15580:15597   */\n      add\n        /* \"#utility.yul\":15571:15577   */\n      dup6\n        /* \"#utility.yul\":15519:15598   */\n      tag_193\n      jump\t// in\n    tag_336:\n        /* \"#utility.yul\":15608:15680   */\n      tag_337\n        /* \"#utility.yul\":15676:15678   */\n      0x20\n        /* \"#utility.yul\":15665:15674   */\n      dup4\n        /* \"#utility.yul\":15661:15679   */\n      add\n        /* \"#utility.yul\":15652:15658   */\n      dup5\n        /* \"#utility.yul\":15608:15680   */\n      tag_153\n      jump\t// in\n    tag_337:\n        /* \"#utility.yul\":15339:15687   */\n      swap4\n      swap3\n      pop\n      pop\n      pop\n      jump\t// out\n\n    auxdata: 0xa26469706673582212208ef76f50ae13fdd833b79a3000b68652518bf17a985b6fb52d9c084b37cf37ca64736f6c634300081a0033\n}\n",
				"bytecode": {
					"linkReferences": {},
					"object": "608060405234801561000f575f80fd5b5060405161161a38038061161a833981810160405281019061003191906100eb565b335f806101000a81548173ffffffffffffffffffffffffffffffffffffffff021916908373ffffffffffffffffffffffffffffffffffffffff16021790555042600181905550603c816100849190610143565b4261008f9190610184565b6002819055505f60035f6101000a81548160ff021916908315150217905550506101b7565b5f80fd5b5f819050919050565b6100ca816100b8565b81146100d4575f80fd5b50565b5f815190506100e5816100c1565b92915050565b5f60208284031215610100576100ff6100b4565b5b5f61010d848285016100d7565b91505092915050565b7f4e487b71000000000000000000000000000000000000000000000000000000005f52601160045260245ffd5b5f61014d826100b8565b9150610158836100b8565b9250828202610166816100b8565b9150828204841483151761017d5761017c610116565b5b5092915050565b5f61018e826100b8565b9150610199836100b8565b92508282019050808211156101b1576101b0610116565b5b92915050565b611456806101c45f395ff3fe6080604052600436106100dc575f3560e01c80637bb44b831161007e5780639979ef45116100585780639979ef4514610284578063d57bde79146102a0578063f77282ab146102cb578063fc7e286d146102e1576100dc565b80637bb44b8314610205578063864333741461022f5780638e7ea5b214610259576100dc565b80635681104a116100ba5780635681104a146101715780635ec2c7bf1461019b578063629e6b24146101c55780636d4d09d7146101db576100dc565b80632f6f81d9146100e05780634423c5f11461010a5780634ba9a92714610147575b5f80fd5b3480156100eb575f80fd5b506100f461031d565b6040516101019190610cce565b60405180910390f35b348015610115575f80fd5b50610130600480360381019061012b9190610d15565b610322565b60405161013e929190610d7f565b60405180910390f35b348015610152575f80fd5b5061015b610370565b6040516101689190610cce565b60405180910390f35b34801561017c575f80fd5b50610185610376565b6040516101929190610cce565b60405180910390f35b3480156101a6575f80fd5b506101af61037c565b6040516101bc9190610da6565b60405180910390f35b3480156101d0575f80fd5b506101d961039f565b005b3480156101e6575f80fd5b506101ef6105b9565b6040516101fc9190610cce565b60405180910390f35b348015610210575f80fd5b506102196105bf565b6040516102269190610cce565b60405180910390f35b34801561023a575f80fd5b506102436105c4565b6040516102509190610dd9565b60405180910390f35b348015610264575f80fd5b5061026d6105d6565b60405161027b929190610e12565b60405180910390f35b61029e60048036038101906102999190610d15565b61069d565b005b3480156102ab575f80fd5b506102b4610a3e565b6040516102c2929190610d7f565b60405180910390f35b3480156102d6575f80fd5b506102df610a6e565b005b3480156102ec575f80fd5b5061030760048036038101906103029190610e63565b610ca1565b6040516103149190610cce565b60405180910390f35b600281565b60078181548110610331575f80fd5b905f5260205f2090600202015f91509050805f015f9054906101000a900473ffffffffffffffffffffffffffffffffffffffff16908060010154905082565b60025481565b61025881565b5f8054906101000a900473ffffffffffffffffffffffffffffffffffffffff1681565b6002544210156103e4576040517f08c379a00000000000000000000000000000000000000000000000000000000081526004016103db90610ee8565b60405180910390fd5b60035f9054906101000a900460ff16610432576040517f08c379a000000000000000000000000000000000000000000000000000000000815260040161042990610f50565b60405180910390fd5b5f60065f3373ffffffffffffffffffffffffffffffffffffffff1673ffffffffffffffffffffffffffffffffffffffff1681526020019081526020015f205490505f81116104b5576040517f08c379a00000000000000000000000000000000000000000000000000000000081526004016104ac90610fb8565b60405180910390fd5b5f60646002836104c59190611003565b6104cf9190611071565b90505f81836104de91906110a1565b90505f60065f3373ffffffffffffffffffffffffffffffffffffffff1673ffffffffffffffffffffffffffffffffffffffff1681526020019081526020015f20819055503373ffffffffffffffffffffffffffffffffffffffff166108fc8290811502906040515f60405180830381858888f19350505050158015610565573d5f803e3d5ffd5b503373ffffffffffffffffffffffffffffffffffffffff167fbb28353e4598c3b9199101a66e0989549b659a59a54d2c27fbb183f1932c8e6d826040516105ac9190610cce565b60405180910390a2505050565b60015481565b600581565b60035f9054906101000a900460ff1681565b5f8060025442101561061d576040517f08c379a000000000000000000000000000000000000000000000000000000000815260040161061490610ee8565b60405180910390fd5b60035f9054906101000a900460ff1661066b576040517f08c379a00000000000000000000000000000000000000000000000000000000081526004016106629061111e565b60405180910390fd5b60045f015f9054906101000a900473ffffffffffffffffffffffffffffffffffffffff16600460010154915091509091565b60025442106106e1576040517f08c379a00000000000000000000000000000000000000000000000000000000081526004016106d890611186565b60405180910390fd5b5f8111610723576040517f08c379a000000000000000000000000000000000000000000000000000000000815260040161071a906111ee565b60405180910390fd5b5f606460056004600101546107389190611003565b6107429190611071565b600460010154610752919061120c565b905080341015610797576040517f08c379a000000000000000000000000000000000000000000000000000000000815260040161078e90611289565b60405180910390fd5b5f73ffffffffffffffffffffffffffffffffffffffff1660045f015f9054906101000a900473ffffffffffffffffffffffffffffffffffffffff1673ffffffffffffffffffffffffffffffffffffffff16146108695760046001015460065f60045f015f9054906101000a900473ffffffffffffffffffffffffffffffffffffffff1673ffffffffffffffffffffffffffffffffffffffff1673ffffffffffffffffffffffffffffffffffffffff1681526020019081526020015f205f828254610861919061120c565b925050819055505b60405180604001604052803373ffffffffffffffffffffffffffffffffffffffff1681526020013481525060045f820151815f015f6101000a81548173ffffffffffffffffffffffffffffffffffffffff021916908373ffffffffffffffffffffffffffffffffffffffff1602179055506020820151816001015590505060076004908060018154018082558091505060019003905f5260205f2090600202015f909190919091505f82015f9054906101000a900473ffffffffffffffffffffffffffffffffffffffff16815f015f6101000a81548173ffffffffffffffffffffffffffffffffffffffff021916908373ffffffffffffffffffffffffffffffffffffffff16021790555060018201548160010155505061025860025461099091906110a1565b42106109ea5761025860025f8282546109a9919061120c565b925050819055507fc2b459809119087ca9d2bc10dea53a51b7d848b1a11075db037bdca58292c3e86002546040516109e19190610cce565b60405180910390a15b3373ffffffffffffffffffffffffffffffffffffffff167f87f5b2fe112bf269d30fb8ca9dc0bde0afd0cc39258e13fafd75fe794795bf0e3442604051610a329291906112a7565b60405180910390a25050565b6004805f015f9054906101000a900473ffffffffffffffffffffffffffffffffffffffff16908060010154905082565b5f8054906101000a900473ffffffffffffffffffffffffffffffffffffffff1673ffffffffffffffffffffffffffffffffffffffff163373ffffffffffffffffffffffffffffffffffffffff1614610afb576040517f08c379a0000000000000000000000000000000000000000000000000000000008152600401610af290611318565b60405180910390fd5b600254421015610b40576040517f08c379a0000000000000000000000000000000000000000000000000000000008152600401610b3790610ee8565b60405180910390fd5b60035f9054906101000a900460ff1615610b8f576040517f08c379a0000000000000000000000000000000000000000000000000000000008152600401610b8690611380565b60405180910390fd5b600160035f6101000a81548160ff0219169083151502179055505f60646002600460010154610bbe9190611003565b610bc89190611071565b90505f8054906101000a900473ffffffffffffffffffffffffffffffffffffffff1673ffffffffffffffffffffffffffffffffffffffff166108fc82600460010154610c1491906110a1565b90811502906040515f60405180830381858888f19350505050158015610c3c573d5f803e3d5ffd5b507fdaec4582d5d9595688c8c98545fdd1c696d41c6aeaeb636737e84ed2f5c00eda60045f015f9054906101000a900473ffffffffffffffffffffffffffffffffffffffff16600460010154604051610c969291906113f9565b60405180910390a150565b6006602052805f5260405f205f915090505481565b5f819050919050565b610cc881610cb6565b82525050565b5f602082019050610ce15f830184610cbf565b92915050565b5f80fd5b610cf481610cb6565b8114610cfe575f80fd5b50565b5f81359050610d0f81610ceb565b92915050565b5f60208284031215610d2a57610d29610ce7565b5b5f610d3784828501610d01565b91505092915050565b5f73ffffffffffffffffffffffffffffffffffffffff82169050919050565b5f610d6982610d40565b9050919050565b610d7981610d5f565b82525050565b5f604082019050610d925f830185610d70565b610d9f6020830184610cbf565b9392505050565b5f602082019050610db95f830184610d70565b92915050565b5f8115159050919050565b610dd381610dbf565b82525050565b5f602082019050610dec5f830184610dca565b92915050565b5f610dfc82610d40565b9050919050565b610e0c81610df2565b82525050565b5f604082019050610e255f830185610e03565b610e326020830184610cbf565b9392505050565b610e4281610df2565b8114610e4c575f80fd5b50565b5f81359050610e5d81610e39565b92915050565b5f60208284031215610e7857610e77610ce7565b5b5f610e8584828501610e4f565b91505092915050565b5f82825260208201905092915050565b7f41756374696f6e207374696c6c20696e2070726f67726573732e0000000000005f82015250565b5f610ed2601a83610e8e565b9150610edd82610e9e565b602082019050919050565b5f6020820190508181035f830152610eff81610ec6565b9050919050565b7f41756374696f6e206d7573742062652066696e616c697a65642066697273742e5f82015250565b5f610f3a602083610e8e565b9150610f4582610f06565b602082019050919050565b5f6020820190508181035f830152610f6781610f2e565b9050919050565b7f4e6f20726566756e6420617661696c61626c652e0000000000000000000000005f82015250565b5f610fa2601483610e8e565b9150610fad82610f6e565b602082019050919050565b5f6020820190508181035f830152610fcf81610f96565b9050919050565b7f4e487b71000000000000000000000000000000000000000000000000000000005f52601160045260245ffd5b5f61100d82610cb6565b915061101883610cb6565b925082820261102681610cb6565b9150828204841483151761103d5761103c610fd6565b5b5092915050565b7f4e487b71000000000000000000000000000000000000000000000000000000005f52601260045260245ffd5b5f61107b82610cb6565b915061108683610cb6565b92508261109657611095611044565b5b828204905092915050565b5f6110ab82610cb6565b91506110b683610cb6565b92508282039050818111156110ce576110cd610fd6565b5b92915050565b7f41756374696f6e206e6f742066696e616c697a6564207965742e0000000000005f82015250565b5f611108601a83610e8e565b9150611113826110d4565b602082019050919050565b5f6020820190508181035f830152611135816110fc565b9050919050565b7f41756374696f6e2068617320656e6465642e00000000000000000000000000005f82015250565b5f611170601283610e8e565b915061117b8261113c565b602082019050919050565b5f6020820190508181035f83015261119d81611164565b9050919050565b7f426964206d7573742062652067726561746572207468616e207a65726f2e00005f82015250565b5f6111d8601e83610e8e565b91506111e3826111a4565b602082019050919050565b5f6020820190508181035f830152611205816111cc565b9050919050565b5f61121682610cb6565b915061122183610cb6565b925082820190508082111561123957611238610fd6565b5b92915050565b7f426964206d757374206265206174206c65617374203525206869676865722e005f82015250565b5f611273601f83610e8e565b915061127e8261123f565b602082019050919050565b5f6020820190508181035f8301526112a081611267565b9050919050565b5f6040820190506112ba5f830185610cbf565b6112c76020830184610cbf565b9392505050565b7f4f6e6c792061756374696f6e6565722063616e2066696e616c697a652e0000005f82015250565b5f611302601d83610e8e565b915061130d826112ce565b602082019050919050565b5f6020820190508181035f83015261132f816112f6565b9050919050565b7f41756374696f6e20616c72656164792066696e616c697a65642e0000000000005f82015250565b5f61136a601a83610e8e565b915061137582611336565b602082019050919050565b5f6020820190508181035f8301526113978161135e565b9050919050565b5f819050919050565b5f6113c16113bc6113b784610d40565b61139e565b610d40565b9050919050565b5f6113d2826113a7565b9050919050565b5f6113e3826113c8565b9050919050565b6113f3816113d9565b82525050565b5f60408201905061140c5f8301856113ea565b6114196020830184610cbf565b939250505056fea26469706673582212208ef76f50ae13fdd833b79a3000b68652518bf17a985b6fb52d9c084b37cf37ca64736f6c634300081a0033",
					"opcodes": "PUSH1 0x80 PUSH1 0x40 MSTORE CALLVALUE DUP1 ISZERO PUSH2 0xF JUMPI PUSH0 DUP1 REVERT JUMPDEST POP PUSH1 0x40 MLOAD PUSH2 0x161A CODESIZE SUB DUP1 PUSH2 0x161A DUP4 CODECOPY DUP2 DUP2 ADD PUSH1 0x40 MSTORE DUP2 ADD SWAP1 PUSH2 0x31 SWAP2 SWAP1 PUSH2 0xEB JUMP JUMPDEST CALLER PUSH0 DUP1 PUSH2 0x100 EXP DUP2 SLOAD DUP2 PUSH20 0xFFFFFFFFFFFFFFFFFFFFFFFFFFFFFFFFFFFFFFFF MUL NOT AND SWAP1 DUP4 PUSH20 0xFFFFFFFFFFFFFFFFFFFFFFFFFFFFFFFFFFFFFFFF AND MUL OR SWAP1 SSTORE POP TIMESTAMP PUSH1 0x1 DUP2 SWAP1 SSTORE POP PUSH1 0x3C DUP2 PUSH2 0x84 SWAP2 SWAP1 PUSH2 0x143 JUMP JUMPDEST TIMESTAMP PUSH2 0x8F SWAP2 SWAP1 PUSH2 0x184 JUMP JUMPDEST PUSH1 0x2 DUP2 SWAP1 SSTORE POP PUSH0 PUSH1 0x3 PUSH0 PUSH2 0x100 EXP DUP2 SLOAD DUP2 PUSH1 0xFF MUL NOT AND SWAP1 DUP4 ISZERO ISZERO MUL OR SWAP1 SSTORE POP POP PUSH2 0x1B7 JUMP JUMPDEST PUSH0 DUP1 REVERT JUMPDEST PUSH0 DUP2 SWAP1 POP SWAP2 SWAP1 POP JUMP JUMPDEST PUSH2 0xCA DUP2 PUSH2 0xB8 JUMP JUMPDEST DUP2 EQ PUSH2 0xD4 JUMPI PUSH0 DUP1 REVERT JUMPDEST POP JUMP JUMPDEST PUSH0 DUP2 MLOAD SWAP1 POP PUSH2 0xE5 DUP2 PUSH2 0xC1 JUMP JUMPDEST SWAP3 SWAP2 POP POP JUMP JUMPDEST PUSH0 PUSH1 0x20 DUP3 DUP5 SUB SLT ISZERO PUSH2 0x100 JUMPI PUSH2 0xFF PUSH2 0xB4 JUMP JUMPDEST JUMPDEST PUSH0 PUSH2 0x10D DUP5 DUP3 DUP6 ADD PUSH2 0xD7 JUMP JUMPDEST SWAP2 POP POP SWAP3 SWAP2 POP POP JUMP JUMPDEST PUSH32 0x4E487B7100000000000000000000000000000000000000000000000000000000 PUSH0 MSTORE PUSH1 0x11 PUSH1 0x4 MSTORE PUSH1 0x24 PUSH0 REVERT JUMPDEST PUSH0 PUSH2 0x14D DUP3 PUSH2 0xB8 JUMP JUMPDEST SWAP2 POP PUSH2 0x158 DUP4 PUSH2 0xB8 JUMP JUMPDEST SWAP3 POP DUP3 DUP3 MUL PUSH2 0x166 DUP2 PUSH2 0xB8 JUMP JUMPDEST SWAP2 POP DUP3 DUP3 DIV DUP5 EQ DUP4 ISZERO OR PUSH2 0x17D JUMPI PUSH2 0x17C PUSH2 0x116 JUMP JUMPDEST JUMPDEST POP SWAP3 SWAP2 POP POP JUMP JUMPDEST PUSH0 PUSH2 0x18E DUP3 PUSH2 0xB8 JUMP JUMPDEST SWAP2 POP PUSH2 0x199 DUP4 PUSH2 0xB8 JUMP JUMPDEST SWAP3 POP DUP3 DUP3 ADD SWAP1 POP DUP1 DUP3 GT ISZERO PUSH2 0x1B1 JUMPI PUSH2 0x1B0 PUSH2 0x116 JUMP JUMPDEST JUMPDEST SWAP3 SWAP2 POP POP JUMP JUMPDEST PUSH2 0x1456 DUP1 PUSH2 0x1C4 PUSH0 CODECOPY PUSH0 RETURN INVALID PUSH1 0x80 PUSH1 0x40 MSTORE PUSH1 0x4 CALLDATASIZE LT PUSH2 0xDC JUMPI PUSH0 CALLDATALOAD PUSH1 0xE0 SHR DUP1 PUSH4 0x7BB44B83 GT PUSH2 0x7E JUMPI DUP1 PUSH4 0x9979EF45 GT PUSH2 0x58 JUMPI DUP1 PUSH4 0x9979EF45 EQ PUSH2 0x284 JUMPI DUP1 PUSH4 0xD57BDE79 EQ PUSH2 0x2A0 JUMPI DUP1 PUSH4 0xF77282AB EQ PUSH2 0x2CB JUMPI DUP1 PUSH4 0xFC7E286D EQ PUSH2 0x2E1 JUMPI PUSH2 0xDC JUMP JUMPDEST DUP1 PUSH4 0x7BB44B83 EQ PUSH2 0x205 JUMPI DUP1 PUSH4 0x86433374 EQ PUSH2 0x22F JUMPI DUP1 PUSH4 0x8E7EA5B2 EQ PUSH2 0x259 JUMPI PUSH2 0xDC JUMP JUMPDEST DUP1 PUSH4 0x5681104A GT PUSH2 0xBA JUMPI DUP1 PUSH4 0x5681104A EQ PUSH2 0x171 JUMPI DUP1 PUSH4 0x5EC2C7BF EQ PUSH2 0x19B JUMPI DUP1 PUSH4 0x629E6B24 EQ PUSH2 0x1C5 JUMPI DUP1 PUSH4 0x6D4D09D7 EQ PUSH2 0x1DB JUMPI PUSH2 0xDC JUMP JUMPDEST DUP1 PUSH4 0x2F6F81D9 EQ PUSH2 0xE0 JUMPI DUP1 PUSH4 0x4423C5F1 EQ PUSH2 0x10A JUMPI DUP1 PUSH4 0x4BA9A927 EQ PUSH2 0x147 JUMPI JUMPDEST PUSH0 DUP1 REVERT JUMPDEST CALLVALUE DUP1 ISZERO PUSH2 0xEB JUMPI PUSH0 DUP1 REVERT JUMPDEST POP PUSH2 0xF4 PUSH2 0x31D JUMP JUMPDEST PUSH1 0x40 MLOAD PUSH2 0x101 SWAP2 SWAP1 PUSH2 0xCCE JUMP JUMPDEST PUSH1 0x40 MLOAD DUP1 SWAP2 SUB SWAP1 RETURN JUMPDEST CALLVALUE DUP1 ISZERO PUSH2 0x115 JUMPI PUSH0 DUP1 REVERT JUMPDEST POP PUSH2 0x130 PUSH1 0x4 DUP1 CALLDATASIZE SUB DUP2 ADD SWAP1 PUSH2 0x12B SWAP2 SWAP1 PUSH2 0xD15 JUMP JUMPDEST PUSH2 0x322 JUMP JUMPDEST PUSH1 0x40 MLOAD PUSH2 0x13E SWAP3 SWAP2 SWAP1 PUSH2 0xD7F JUMP JUMPDEST PUSH1 0x40 MLOAD DUP1 SWAP2 SUB SWAP1 RETURN JUMPDEST CALLVALUE DUP1 ISZERO PUSH2 0x152 JUMPI PUSH0 DUP1 REVERT JUMPDEST POP PUSH2 0x15B PUSH2 0x370 JUMP JUMPDEST PUSH1 0x40 MLOAD PUSH2 0x168 SWAP2 SWAP1 PUSH2 0xCCE JUMP JUMPDEST PUSH1 0x40 MLOAD DUP1 SWAP2 SUB SWAP1 RETURN JUMPDEST CALLVALUE DUP1 ISZERO PUSH2 0x17C JUMPI PUSH0 DUP1 REVERT JUMPDEST POP PUSH2 0x185 PUSH2 0x376 JUMP JUMPDEST PUSH1 0x40 MLOAD PUSH2 0x192 SWAP2 SWAP1 PUSH2 0xCCE JUMP JUMPDEST PUSH1 0x40 MLOAD DUP1 SWAP2 SUB SWAP1 RETURN JUMPDEST CALLVALUE DUP1 ISZERO PUSH2 0x1A6 JUMPI PUSH0 DUP1 REVERT JUMPDEST POP PUSH2 0x1AF PUSH2 0x37C JUMP JUMPDEST PUSH1 0x40 MLOAD PUSH2 0x1BC SWAP2 SWAP1 PUSH2 0xDA6 JUMP JUMPDEST PUSH1 0x40 MLOAD DUP1 SWAP2 SUB SWAP1 RETURN JUMPDEST CALLVALUE DUP1 ISZERO PUSH2 0x1D0 JUMPI PUSH0 DUP1 REVERT JUMPDEST POP PUSH2 0x1D9 PUSH2 0x39F JUMP JUMPDEST STOP JUMPDEST CALLVALUE DUP1 ISZERO PUSH2 0x1E6 JUMPI PUSH0 DUP1 REVERT JUMPDEST POP PUSH2 0x1EF PUSH2 0x5B9 JUMP JUMPDEST PUSH1 0x40 MLOAD PUSH2 0x1FC SWAP2 SWAP1 PUSH2 0xCCE JUMP JUMPDEST PUSH1 0x40 MLOAD DUP1 SWAP2 SUB SWAP1 RETURN JUMPDEST CALLVALUE DUP1 ISZERO PUSH2 0x210 JUMPI PUSH0 DUP1 REVERT JUMPDEST POP PUSH2 0x219 PUSH2 0x5BF JUMP JUMPDEST PUSH1 0x40 MLOAD PUSH2 0x226 SWAP2 SWAP1 PUSH2 0xCCE JUMP JUMPDEST PUSH1 0x40 MLOAD DUP1 SWAP2 SUB SWAP1 RETURN JUMPDEST CALLVALUE DUP1 ISZERO PUSH2 0x23A JUMPI PUSH0 DUP1 REVERT JUMPDEST POP PUSH2 0x243 PUSH2 0x5C4 JUMP JUMPDEST PUSH1 0x40 MLOAD PUSH2 0x250 SWAP2 SWAP1 PUSH2 0xDD9 JUMP JUMPDEST PUSH1 0x40 MLOAD DUP1 SWAP2 SUB SWAP1 RETURN JUMPDEST CALLVALUE DUP1 ISZERO PUSH2 0x264 JUMPI PUSH0 DUP1 REVERT JUMPDEST POP PUSH2 0x26D PUSH2 0x5D6 JUMP JUMPDEST PUSH1 0x40 MLOAD PUSH2 0x27B SWAP3 SWAP2 SWAP1 PUSH2 0xE12 JUMP JUMPDEST PUSH1 0x40 MLOAD DUP1 SWAP2 SUB SWAP1 RETURN JUMPDEST PUSH2 0x29E PUSH1 0x4 DUP1 CALLDATASIZE SUB DUP2 ADD SWAP1 PUSH2 0x299 SWAP2 SWAP1 PUSH2 0xD15 JUMP JUMPDEST PUSH2 0x69D JUMP JUMPDEST STOP JUMPDEST CALLVALUE DUP1 ISZERO PUSH2 0x2AB JUMPI PUSH0 DUP1 REVERT JUMPDEST POP PUSH2 0x2B4 PUSH2 0xA3E JUMP JUMPDEST PUSH1 0x40 MLOAD PUSH2 0x2C2 SWAP3 SWAP2 SWAP1 PUSH2 0xD7F JUMP JUMPDEST PUSH1 0x40 MLOAD DUP1 SWAP2 SUB SWAP1 RETURN JUMPDEST CALLVALUE DUP1 ISZERO PUSH2 0x2D6 JUMPI PUSH0 DUP1 REVERT JUMPDEST POP PUSH2 0x2DF PUSH2 0xA6E JUMP JUMPDEST STOP JUMPDEST CALLVALUE DUP1 ISZERO PUSH2 0x2EC JUMPI PUSH0 DUP1 REVERT JUMPDEST POP PUSH2 0x307 PUSH1 0x4 DUP1 CALLDATASIZE SUB DUP2 ADD SWAP1 PUSH2 0x302 SWAP2 SWAP1 PUSH2 0xE63 JUMP JUMPDEST PUSH2 0xCA1 JUMP JUMPDEST PUSH1 0x40 MLOAD PUSH2 0x314 SWAP2 SWAP1 PUSH2 0xCCE JUMP JUMPDEST PUSH1 0x40 MLOAD DUP1 SWAP2 SUB SWAP1 RETURN JUMPDEST PUSH1 0x2 DUP2 JUMP JUMPDEST PUSH1 0x7 DUP2 DUP2 SLOAD DUP2 LT PUSH2 0x331 JUMPI PUSH0 DUP1 REVERT JUMPDEST SWAP1 PUSH0 MSTORE PUSH1 0x20 PUSH0 KECCAK256 SWAP1 PUSH1 0x2 MUL ADD PUSH0 SWAP2 POP SWAP1 POP DUP1 PUSH0 ADD PUSH0 SWAP1 SLOAD SWAP1 PUSH2 0x100 EXP SWAP1 DIV PUSH20 0xFFFFFFFFFFFFFFFFFFFFFFFFFFFFFFFFFFFFFFFF AND SWAP1 DUP1 PUSH1 0x1 ADD SLOAD SWAP1 POP DUP3 JUMP JUMPDEST PUSH1 0x2 SLOAD DUP2 JUMP JUMPDEST PUSH2 0x258 DUP2 JUMP JUMPDEST PUSH0 DUP1 SLOAD SWAP1 PUSH2 0x100 EXP SWAP1 DIV PUSH20 0xFFFFFFFFFFFFFFFFFFFFFFFFFFFFFFFFFFFFFFFF AND DUP2 JUMP JUMPDEST PUSH1 0x2 SLOAD TIMESTAMP LT ISZERO PUSH2 0x3E4 JUMPI PUSH1 0x40 MLOAD PUSH32 0x8C379A000000000000000000000000000000000000000000000000000000000 DUP2 MSTORE PUSH1 0x4 ADD PUSH2 0x3DB SWAP1 PUSH2 0xEE8 JUMP JUMPDEST PUSH1 0x40 MLOAD DUP1 SWAP2 SUB SWAP1 REVERT JUMPDEST PUSH1 0x3 PUSH0 SWAP1 SLOAD SWAP1 PUSH2 0x100 EXP SWAP1 DIV PUSH1 0xFF AND PUSH2 0x432 JUMPI PUSH1 0x40 MLOAD PUSH32 0x8C379A000000000000000000000000000000000000000000000000000000000 DUP2 MSTORE PUSH1 0x4 ADD PUSH2 0x429 SWAP1 PUSH2 0xF50 JUMP JUMPDEST PUSH1 0x40 MLOAD DUP1 SWAP2 SUB SWAP1 REVERT JUMPDEST PUSH0 PUSH1 0x6 PUSH0 CALLER PUSH20 0xFFFFFFFFFFFFFFFFFFFFFFFFFFFFFFFFFFFFFFFF AND PUSH20 0xFFFFFFFFFFFFFFFFFFFFFFFFFFFFFFFFFFFFFFFF AND DUP2 MSTORE PUSH1 0x20 ADD SWAP1 DUP2 MSTORE PUSH1 0x20 ADD PUSH0 KECCAK256 SLOAD SWAP1 POP PUSH0 DUP2 GT PUSH2 0x4B5 JUMPI PUSH1 0x40 MLOAD PUSH32 0x8C379A000000000000000000000000000000000000000000000000000000000 DUP2 MSTORE PUSH1 0x4 ADD PUSH2 0x4AC SWAP1 PUSH2 0xFB8 JUMP JUMPDEST PUSH1 0x40 MLOAD DUP1 SWAP2 SUB SWAP1 REVERT JUMPDEST PUSH0 PUSH1 0x64 PUSH1 0x2 DUP4 PUSH2 0x4C5 SWAP2 SWAP1 PUSH2 0x1003 JUMP JUMPDEST PUSH2 0x4CF SWAP2 SWAP1 PUSH2 0x1071 JUMP JUMPDEST SWAP1 POP PUSH0 DUP2 DUP4 PUSH2 0x4DE SWAP2 SWAP1 PUSH2 0x10A1 JUMP JUMPDEST SWAP1 POP PUSH0 PUSH1 0x6 PUSH0 CALLER PUSH20 0xFFFFFFFFFFFFFFFFFFFFFFFFFFFFFFFFFFFFFFFF AND PUSH20 0xFFFFFFFFFFFFFFFFFFFFFFFFFFFFFFFFFFFFFFFF AND DUP2 MSTORE PUSH1 0x20 ADD SWAP1 DUP2 MSTORE PUSH1 0x20 ADD PUSH0 KECCAK256 DUP2 SWAP1 SSTORE POP CALLER PUSH20 0xFFFFFFFFFFFFFFFFFFFFFFFFFFFFFFFFFFFFFFFF AND PUSH2 0x8FC DUP3 SWAP1 DUP2 ISZERO MUL SWAP1 PUSH1 0x40 MLOAD PUSH0 PUSH1 0x40 MLOAD DUP1 DUP4 SUB DUP2 DUP6 DUP9 DUP9 CALL SWAP4 POP POP POP POP ISZERO DUP1 ISZERO PUSH2 0x565 JUMPI RETURNDATASIZE PUSH0 DUP1 RETURNDATACOPY RETURNDATASIZE PUSH0 REVERT JUMPDEST POP CALLER PUSH20 0xFFFFFFFFFFFFFFFFFFFFFFFFFFFFFFFFFFFFFFFF AND PUSH32 0xBB28353E4598C3B9199101A66E0989549B659A59A54D2C27FBB183F1932C8E6D DUP3 PUSH1 0x40 MLOAD PUSH2 0x5AC SWAP2 SWAP1 PUSH2 0xCCE JUMP JUMPDEST PUSH1 0x40 MLOAD DUP1 SWAP2 SUB SWAP1 LOG2 POP POP POP JUMP JUMPDEST PUSH1 0x1 SLOAD DUP2 JUMP JUMPDEST PUSH1 0x5 DUP2 JUMP JUMPDEST PUSH1 0x3 PUSH0 SWAP1 SLOAD SWAP1 PUSH2 0x100 EXP SWAP1 DIV PUSH1 0xFF AND DUP2 JUMP JUMPDEST PUSH0 DUP1 PUSH1 0x2 SLOAD TIMESTAMP LT ISZERO PUSH2 0x61D JUMPI PUSH1 0x40 MLOAD PUSH32 0x8C379A000000000000000000000000000000000000000000000000000000000 DUP2 MSTORE PUSH1 0x4 ADD PUSH2 0x614 SWAP1 PUSH2 0xEE8 JUMP JUMPDEST PUSH1 0x40 MLOAD DUP1 SWAP2 SUB SWAP1 REVERT JUMPDEST PUSH1 0x3 PUSH0 SWAP1 SLOAD SWAP1 PUSH2 0x100 EXP SWAP1 DIV PUSH1 0xFF AND PUSH2 0x66B JUMPI PUSH1 0x40 MLOAD PUSH32 0x8C379A000000000000000000000000000000000000000000000000000000000 DUP2 MSTORE PUSH1 0x4 ADD PUSH2 0x662 SWAP1 PUSH2 0x111E JUMP JUMPDEST PUSH1 0x40 MLOAD DUP1 SWAP2 SUB SWAP1 REVERT JUMPDEST PUSH1 0x4 PUSH0 ADD PUSH0 SWAP1 SLOAD SWAP1 PUSH2 0x100 EXP SWAP1 DIV PUSH20 0xFFFFFFFFFFFFFFFFFFFFFFFFFFFFFFFFFFFFFFFF AND PUSH1 0x4 PUSH1 0x1 ADD SLOAD SWAP2 POP SWAP2 POP SWAP1 SWAP2 JUMP JUMPDEST PUSH1 0x2 SLOAD TIMESTAMP LT PUSH2 0x6E1 JUMPI PUSH1 0x40 MLOAD PUSH32 0x8C379A000000000000000000000000000000000000000000000000000000000 DUP2 MSTORE PUSH1 0x4 ADD PUSH2 0x6D8 SWAP1 PUSH2 0x1186 JUMP JUMPDEST PUSH1 0x40 MLOAD DUP1 SWAP2 SUB SWAP1 REVERT JUMPDEST PUSH0 DUP2 GT PUSH2 0x723 JUMPI PUSH1 0x40 MLOAD PUSH32 0x8C379A000000000000000000000000000000000000000000000000000000000 DUP2 MSTORE PUSH1 0x4 ADD PUSH2 0x71A SWAP1 PUSH2 0x11EE JUMP JUMPDEST PUSH1 0x40 MLOAD DUP1 SWAP2 SUB SWAP1 REVERT JUMPDEST PUSH0 PUSH1 0x64 PUSH1 0x5 PUSH1 0x4 PUSH1 0x1 ADD SLOAD PUSH2 0x738 SWAP2 SWAP1 PUSH2 0x1003 JUMP JUMPDEST PUSH2 0x742 SWAP2 SWAP1 PUSH2 0x1071 JUMP JUMPDEST PUSH1 0x4 PUSH1 0x1 ADD SLOAD PUSH2 0x752 SWAP2 SWAP1 PUSH2 0x120C JUMP JUMPDEST SWAP1 POP DUP1 CALLVALUE LT ISZERO PUSH2 0x797 JUMPI PUSH1 0x40 MLOAD PUSH32 0x8C379A000000000000000000000000000000000000000000000000000000000 DUP2 MSTORE PUSH1 0x4 ADD PUSH2 0x78E SWAP1 PUSH2 0x1289 JUMP JUMPDEST PUSH1 0x40 MLOAD DUP1 SWAP2 SUB SWAP1 REVERT JUMPDEST PUSH0 PUSH20 0xFFFFFFFFFFFFFFFFFFFFFFFFFFFFFFFFFFFFFFFF AND PUSH1 0x4 PUSH0 ADD PUSH0 SWAP1 SLOAD SWAP1 PUSH2 0x100 EXP SWAP1 DIV PUSH20 0xFFFFFFFFFFFFFFFFFFFFFFFFFFFFFFFFFFFFFFFF AND PUSH20 0xFFFFFFFFFFFFFFFFFFFFFFFFFFFFFFFFFFFFFFFF AND EQ PUSH2 0x869 JUMPI PUSH1 0x4 PUSH1 0x1 ADD SLOAD PUSH1 0x6 PUSH0 PUSH1 0x4 PUSH0 ADD PUSH0 SWAP1 SLOAD SWAP1 PUSH2 0x100 EXP SWAP1 DIV PUSH20 0xFFFFFFFFFFFFFFFFFFFFFFFFFFFFFFFFFFFFFFFF AND PUSH20 0xFFFFFFFFFFFFFFFFFFFFFFFFFFFFFFFFFFFFFFFF AND PUSH20 0xFFFFFFFFFFFFFFFFFFFFFFFFFFFFFFFFFFFFFFFF AND DUP2 MSTORE PUSH1 0x20 ADD SWAP1 DUP2 MSTORE PUSH1 0x20 ADD PUSH0 KECCAK256 PUSH0 DUP3 DUP3 SLOAD PUSH2 0x861 SWAP2 SWAP1 PUSH2 0x120C JUMP JUMPDEST SWAP3 POP POP DUP2 SWAP1 SSTORE POP JUMPDEST PUSH1 0x40 MLOAD DUP1 PUSH1 0x40 ADD PUSH1 0x40 MSTORE DUP1 CALLER PUSH20 0xFFFFFFFFFFFFFFFFFFFFFFFFFFFFFFFFFFFFFFFF AND DUP2 MSTORE PUSH1 0x20 ADD CALLVALUE DUP2 MSTORE POP PUSH1 0x4 PUSH0 DUP3 ADD MLOAD DUP2 PUSH0 ADD PUSH0 PUSH2 0x100 EXP DUP2 SLOAD DUP2 PUSH20 0xFFFFFFFFFFFFFFFFFFFFFFFFFFFFFFFFFFFFFFFF MUL NOT AND SWAP1 DUP4 PUSH20 0xFFFFFFFFFFFFFFFFFFFFFFFFFFFFFFFFFFFFFFFF AND MUL OR SWAP1 SSTORE POP PUSH1 0x20 DUP3 ADD MLOAD DUP2 PUSH1 0x1 ADD SSTORE SWAP1 POP POP PUSH1 0x7 PUSH1 0x4 SWAP1 DUP1 PUSH1 0x1 DUP2 SLOAD ADD DUP1 DUP3 SSTORE DUP1 SWAP2 POP POP PUSH1 0x1 SWAP1 SUB SWAP1 PUSH0 MSTORE PUSH1 0x20 PUSH0 KECCAK256 SWAP1 PUSH1 0x2 MUL ADD PUSH0 SWAP1 SWAP2 SWAP1 SWAP2 SWAP1 SWAP2 POP PUSH0 DUP3 ADD PUSH0 SWAP1 SLOAD SWAP1 PUSH2 0x100 EXP SWAP1 DIV PUSH20 0xFFFFFFFFFFFFFFFFFFFFFFFFFFFFFFFFFFFFFFFF AND DUP2 PUSH0 ADD PUSH0 PUSH2 0x100 EXP DUP2 SLOAD DUP2 PUSH20 0xFFFFFFFFFFFFFFFFFFFFFFFFFFFFFFFFFFFFFFFF MUL NOT AND SWAP1 DUP4 PUSH20 0xFFFFFFFFFFFFFFFFFFFFFFFFFFFFFFFFFFFFFFFF AND MUL OR SWAP1 SSTORE POP PUSH1 0x1 DUP3 ADD SLOAD DUP2 PUSH1 0x1 ADD SSTORE POP POP PUSH2 0x258 PUSH1 0x2 SLOAD PUSH2 0x990 SWAP2 SWAP1 PUSH2 0x10A1 JUMP JUMPDEST TIMESTAMP LT PUSH2 0x9EA JUMPI PUSH2 0x258 PUSH1 0x2 PUSH0 DUP3 DUP3 SLOAD PUSH2 0x9A9 SWAP2 SWAP1 PUSH2 0x120C JUMP JUMPDEST SWAP3 POP POP DUP2 SWAP1 SSTORE POP PUSH32 0xC2B459809119087CA9D2BC10DEA53A51B7D848B1A11075DB037BDCA58292C3E8 PUSH1 0x2 SLOAD PUSH1 0x40 MLOAD PUSH2 0x9E1 SWAP2 SWAP1 PUSH2 0xCCE JUMP JUMPDEST PUSH1 0x40 MLOAD DUP1 SWAP2 SUB SWAP1 LOG1 JUMPDEST CALLER PUSH20 0xFFFFFFFFFFFFFFFFFFFFFFFFFFFFFFFFFFFFFFFF AND PUSH32 0x87F5B2FE112BF269D30FB8CA9DC0BDE0AFD0CC39258E13FAFD75FE794795BF0E CALLVALUE TIMESTAMP PUSH1 0x40 MLOAD PUSH2 0xA32 SWAP3 SWAP2 SWAP1 PUSH2 0x12A7 JUMP JUMPDEST PUSH1 0x40 MLOAD DUP1 SWAP2 SUB SWAP1 LOG2 POP POP JUMP JUMPDEST PUSH1 0x4 DUP1 PUSH0 ADD PUSH0 SWAP1 SLOAD SWAP1 PUSH2 0x100 EXP SWAP1 DIV PUSH20 0xFFFFFFFFFFFFFFFFFFFFFFFFFFFFFFFFFFFFFFFF AND SWAP1 DUP1 PUSH1 0x1 ADD SLOAD SWAP1 POP DUP3 JUMP JUMPDEST PUSH0 DUP1 SLOAD SWAP1 PUSH2 0x100 EXP SWAP1 DIV PUSH20 0xFFFFFFFFFFFFFFFFFFFFFFFFFFFFFFFFFFFFFFFF AND PUSH20 0xFFFFFFFFFFFFFFFFFFFFFFFFFFFFFFFFFFFFFFFF AND CALLER PUSH20 0xFFFFFFFFFFFFFFFFFFFFFFFFFFFFFFFFFFFFFFFF AND EQ PUSH2 0xAFB JUMPI PUSH1 0x40 MLOAD PUSH32 0x8C379A000000000000000000000000000000000000000000000000000000000 DUP2 MSTORE PUSH1 0x4 ADD PUSH2 0xAF2 SWAP1 PUSH2 0x1318 JUMP JUMPDEST PUSH1 0x40 MLOAD DUP1 SWAP2 SUB SWAP1 REVERT JUMPDEST PUSH1 0x2 SLOAD TIMESTAMP LT ISZERO PUSH2 0xB40 JUMPI PUSH1 0x40 MLOAD PUSH32 0x8C379A000000000000000000000000000000000000000000000000000000000 DUP2 MSTORE PUSH1 0x4 ADD PUSH2 0xB37 SWAP1 PUSH2 0xEE8 JUMP JUMPDEST PUSH1 0x40 MLOAD DUP1 SWAP2 SUB SWAP1 REVERT JUMPDEST PUSH1 0x3 PUSH0 SWAP1 SLOAD SWAP1 PUSH2 0x100 EXP SWAP1 DIV PUSH1 0xFF AND ISZERO PUSH2 0xB8F JUMPI PUSH1 0x40 MLOAD PUSH32 0x8C379A000000000000000000000000000000000000000000000000000000000 DUP2 MSTORE PUSH1 0x4 ADD PUSH2 0xB86 SWAP1 PUSH2 0x1380 JUMP JUMPDEST PUSH1 0x40 MLOAD DUP1 SWAP2 SUB SWAP1 REVERT JUMPDEST PUSH1 0x1 PUSH1 0x3 PUSH0 PUSH2 0x100 EXP DUP2 SLOAD DUP2 PUSH1 0xFF MUL NOT AND SWAP1 DUP4 ISZERO ISZERO MUL OR SWAP1 SSTORE POP PUSH0 PUSH1 0x64 PUSH1 0x2 PUSH1 0x4 PUSH1 0x1 ADD SLOAD PUSH2 0xBBE SWAP2 SWAP1 PUSH2 0x1003 JUMP JUMPDEST PUSH2 0xBC8 SWAP2 SWAP1 PUSH2 0x1071 JUMP JUMPDEST SWAP1 POP PUSH0 DUP1 SLOAD SWAP1 PUSH2 0x100 EXP SWAP1 DIV PUSH20 0xFFFFFFFFFFFFFFFFFFFFFFFFFFFFFFFFFFFFFFFF AND PUSH20 0xFFFFFFFFFFFFFFFFFFFFFFFFFFFFFFFFFFFFFFFF AND PUSH2 0x8FC DUP3 PUSH1 0x4 PUSH1 0x1 ADD SLOAD PUSH2 0xC14 SWAP2 SWAP1 PUSH2 0x10A1 JUMP JUMPDEST SWAP1 DUP2 ISZERO MUL SWAP1 PUSH1 0x40 MLOAD PUSH0 PUSH1 0x40 MLOAD DUP1 DUP4 SUB DUP2 DUP6 DUP9 DUP9 CALL SWAP4 POP POP POP POP ISZERO DUP1 ISZERO PUSH2 0xC3C JUMPI RETURNDATASIZE PUSH0 DUP1 RETURNDATACOPY RETURNDATASIZE PUSH0 REVERT JUMPDEST POP PUSH32 0xDAEC4582D5D9595688C8C98545FDD1C696D41C6AEAEB636737E84ED2F5C00EDA PUSH1 0x4 PUSH0 ADD PUSH0 SWAP1 SLOAD SWAP1 PUSH2 0x100 EXP SWAP1 DIV PUSH20 0xFFFFFFFFFFFFFFFFFFFFFFFFFFFFFFFFFFFFFFFF AND PUSH1 0x4 PUSH1 0x1 ADD SLOAD PUSH1 0x40 MLOAD PUSH2 0xC96 SWAP3 SWAP2 SWAP1 PUSH2 0x13F9 JUMP JUMPDEST PUSH1 0x40 MLOAD DUP1 SWAP2 SUB SWAP1 LOG1 POP JUMP JUMPDEST PUSH1 0x6 PUSH1 0x20 MSTORE DUP1 PUSH0 MSTORE PUSH1 0x40 PUSH0 KECCAK256 PUSH0 SWAP2 POP SWAP1 POP SLOAD DUP2 JUMP JUMPDEST PUSH0 DUP2 SWAP1 POP SWAP2 SWAP1 POP JUMP JUMPDEST PUSH2 0xCC8 DUP2 PUSH2 0xCB6 JUMP JUMPDEST DUP3 MSTORE POP POP JUMP JUMPDEST PUSH0 PUSH1 0x20 DUP3 ADD SWAP1 POP PUSH2 0xCE1 PUSH0 DUP4 ADD DUP5 PUSH2 0xCBF JUMP JUMPDEST SWAP3 SWAP2 POP POP JUMP JUMPDEST PUSH0 DUP1 REVERT JUMPDEST PUSH2 0xCF4 DUP2 PUSH2 0xCB6 JUMP JUMPDEST DUP2 EQ PUSH2 0xCFE JUMPI PUSH0 DUP1 REVERT JUMPDEST POP JUMP JUMPDEST PUSH0 DUP2 CALLDATALOAD SWAP1 POP PUSH2 0xD0F DUP2 PUSH2 0xCEB JUMP JUMPDEST SWAP3 SWAP2 POP POP JUMP JUMPDEST PUSH0 PUSH1 0x20 DUP3 DUP5 SUB SLT ISZERO PUSH2 0xD2A JUMPI PUSH2 0xD29 PUSH2 0xCE7 JUMP JUMPDEST JUMPDEST PUSH0 PUSH2 0xD37 DUP5 DUP3 DUP6 ADD PUSH2 0xD01 JUMP JUMPDEST SWAP2 POP POP SWAP3 SWAP2 POP POP JUMP JUMPDEST PUSH0 PUSH20 0xFFFFFFFFFFFFFFFFFFFFFFFFFFFFFFFFFFFFFFFF DUP3 AND SWAP1 POP SWAP2 SWAP1 POP JUMP JUMPDEST PUSH0 PUSH2 0xD69 DUP3 PUSH2 0xD40 JUMP JUMPDEST SWAP1 POP SWAP2 SWAP1 POP JUMP JUMPDEST PUSH2 0xD79 DUP2 PUSH2 0xD5F JUMP JUMPDEST DUP3 MSTORE POP POP JUMP JUMPDEST PUSH0 PUSH1 0x40 DUP3 ADD SWAP1 POP PUSH2 0xD92 PUSH0 DUP4 ADD DUP6 PUSH2 0xD70 JUMP JUMPDEST PUSH2 0xD9F PUSH1 0x20 DUP4 ADD DUP5 PUSH2 0xCBF JUMP JUMPDEST SWAP4 SWAP3 POP POP POP JUMP JUMPDEST PUSH0 PUSH1 0x20 DUP3 ADD SWAP1 POP PUSH2 0xDB9 PUSH0 DUP4 ADD DUP5 PUSH2 0xD70 JUMP JUMPDEST SWAP3 SWAP2 POP POP JUMP JUMPDEST PUSH0 DUP2 ISZERO ISZERO SWAP1 POP SWAP2 SWAP1 POP JUMP JUMPDEST PUSH2 0xDD3 DUP2 PUSH2 0xDBF JUMP JUMPDEST DUP3 MSTORE POP POP JUMP JUMPDEST PUSH0 PUSH1 0x20 DUP3 ADD SWAP1 POP PUSH2 0xDEC PUSH0 DUP4 ADD DUP5 PUSH2 0xDCA JUMP JUMPDEST SWAP3 SWAP2 POP POP JUMP JUMPDEST PUSH0 PUSH2 0xDFC DUP3 PUSH2 0xD40 JUMP JUMPDEST SWAP1 POP SWAP2 SWAP1 POP JUMP JUMPDEST PUSH2 0xE0C DUP2 PUSH2 0xDF2 JUMP JUMPDEST DUP3 MSTORE POP POP JUMP JUMPDEST PUSH0 PUSH1 0x40 DUP3 ADD SWAP1 POP PUSH2 0xE25 PUSH0 DUP4 ADD DUP6 PUSH2 0xE03 JUMP JUMPDEST PUSH2 0xE32 PUSH1 0x20 DUP4 ADD DUP5 PUSH2 0xCBF JUMP JUMPDEST SWAP4 SWAP3 POP POP POP JUMP JUMPDEST PUSH2 0xE42 DUP2 PUSH2 0xDF2 JUMP JUMPDEST DUP2 EQ PUSH2 0xE4C JUMPI PUSH0 DUP1 REVERT JUMPDEST POP JUMP JUMPDEST PUSH0 DUP2 CALLDATALOAD SWAP1 POP PUSH2 0xE5D DUP2 PUSH2 0xE39 JUMP JUMPDEST SWAP3 SWAP2 POP POP JUMP JUMPDEST PUSH0 PUSH1 0x20 DUP3 DUP5 SUB SLT ISZERO PUSH2 0xE78 JUMPI PUSH2 0xE77 PUSH2 0xCE7 JUMP JUMPDEST JUMPDEST PUSH0 PUSH2 0xE85 DUP5 DUP3 DUP6 ADD PUSH2 0xE4F JUMP JUMPDEST SWAP2 POP POP SWAP3 SWAP2 POP POP JUMP JUMPDEST PUSH0 DUP3 DUP3 MSTORE PUSH1 0x20 DUP3 ADD SWAP1 POP SWAP3 SWAP2 POP POP JUMP JUMPDEST PUSH32 0x41756374696F6E207374696C6C20696E2070726F67726573732E000000000000 PUSH0 DUP3 ADD MSTORE POP JUMP JUMPDEST PUSH0 PUSH2 0xED2 PUSH1 0x1A DUP4 PUSH2 0xE8E JUMP JUMPDEST SWAP2 POP PUSH2 0xEDD DUP3 PUSH2 0xE9E JUMP JUMPDEST PUSH1 0x20 DUP3 ADD SWAP1 POP SWAP2 SWAP1 POP JUMP JUMPDEST PUSH0 PUSH1 0x20 DUP3 ADD SWAP1 POP DUP2 DUP2 SUB PUSH0 DUP4 ADD MSTORE PUSH2 0xEFF DUP2 PUSH2 0xEC6 JUMP JUMPDEST SWAP1 POP SWAP2 SWAP1 POP JUMP JUMPDEST PUSH32 0x41756374696F6E206D7573742062652066696E616C697A65642066697273742E PUSH0 DUP3 ADD MSTORE POP JUMP JUMPDEST PUSH0 PUSH2 0xF3A PUSH1 0x20 DUP4 PUSH2 0xE8E JUMP JUMPDEST SWAP2 POP PUSH2 0xF45 DUP3 PUSH2 0xF06 JUMP JUMPDEST PUSH1 0x20 DUP3 ADD SWAP1 POP SWAP2 SWAP1 POP JUMP JUMPDEST PUSH0 PUSH1 0x20 DUP3 ADD SWAP1 POP DUP2 DUP2 SUB PUSH0 DUP4 ADD MSTORE PUSH2 0xF67 DUP2 PUSH2 0xF2E JUMP JUMPDEST SWAP1 POP SWAP2 SWAP1 POP JUMP JUMPDEST PUSH32 0x4E6F20726566756E6420617661696C61626C652E000000000000000000000000 PUSH0 DUP3 ADD MSTORE POP JUMP JUMPDEST PUSH0 PUSH2 0xFA2 PUSH1 0x14 DUP4 PUSH2 0xE8E JUMP JUMPDEST SWAP2 POP PUSH2 0xFAD DUP3 PUSH2 0xF6E JUMP JUMPDEST PUSH1 0x20 DUP3 ADD SWAP1 POP SWAP2 SWAP1 POP JUMP JUMPDEST PUSH0 PUSH1 0x20 DUP3 ADD SWAP1 POP DUP2 DUP2 SUB PUSH0 DUP4 ADD MSTORE PUSH2 0xFCF DUP2 PUSH2 0xF96 JUMP JUMPDEST SWAP1 POP SWAP2 SWAP1 POP JUMP JUMPDEST PUSH32 0x4E487B7100000000000000000000000000000000000000000000000000000000 PUSH0 MSTORE PUSH1 0x11 PUSH1 0x4 MSTORE PUSH1 0x24 PUSH0 REVERT JUMPDEST PUSH0 PUSH2 0x100D DUP3 PUSH2 0xCB6 JUMP JUMPDEST SWAP2 POP PUSH2 0x1018 DUP4 PUSH2 0xCB6 JUMP JUMPDEST SWAP3 POP DUP3 DUP3 MUL PUSH2 0x1026 DUP2 PUSH2 0xCB6 JUMP JUMPDEST SWAP2 POP DUP3 DUP3 DIV DUP5 EQ DUP4 ISZERO OR PUSH2 0x103D JUMPI PUSH2 0x103C PUSH2 0xFD6 JUMP JUMPDEST JUMPDEST POP SWAP3 SWAP2 POP POP JUMP JUMPDEST PUSH32 0x4E487B7100000000000000000000000000000000000000000000000000000000 PUSH0 MSTORE PUSH1 0x12 PUSH1 0x4 MSTORE PUSH1 0x24 PUSH0 REVERT JUMPDEST PUSH0 PUSH2 0x107B DUP3 PUSH2 0xCB6 JUMP JUMPDEST SWAP2 POP PUSH2 0x1086 DUP4 PUSH2 0xCB6 JUMP JUMPDEST SWAP3 POP DUP3 PUSH2 0x1096 JUMPI PUSH2 0x1095 PUSH2 0x1044 JUMP JUMPDEST JUMPDEST DUP3 DUP3 DIV SWAP1 POP SWAP3 SWAP2 POP POP JUMP JUMPDEST PUSH0 PUSH2 0x10AB DUP3 PUSH2 0xCB6 JUMP JUMPDEST SWAP2 POP PUSH2 0x10B6 DUP4 PUSH2 0xCB6 JUMP JUMPDEST SWAP3 POP DUP3 DUP3 SUB SWAP1 POP DUP2 DUP2 GT ISZERO PUSH2 0x10CE JUMPI PUSH2 0x10CD PUSH2 0xFD6 JUMP JUMPDEST JUMPDEST SWAP3 SWAP2 POP POP JUMP JUMPDEST PUSH32 0x41756374696F6E206E6F742066696E616C697A6564207965742E000000000000 PUSH0 DUP3 ADD MSTORE POP JUMP JUMPDEST PUSH0 PUSH2 0x1108 PUSH1 0x1A DUP4 PUSH2 0xE8E JUMP JUMPDEST SWAP2 POP PUSH2 0x1113 DUP3 PUSH2 0x10D4 JUMP JUMPDEST PUSH1 0x20 DUP3 ADD SWAP1 POP SWAP2 SWAP1 POP JUMP JUMPDEST PUSH0 PUSH1 0x20 DUP3 ADD SWAP1 POP DUP2 DUP2 SUB PUSH0 DUP4 ADD MSTORE PUSH2 0x1135 DUP2 PUSH2 0x10FC JUMP JUMPDEST SWAP1 POP SWAP2 SWAP1 POP JUMP JUMPDEST PUSH32 0x41756374696F6E2068617320656E6465642E0000000000000000000000000000 PUSH0 DUP3 ADD MSTORE POP JUMP JUMPDEST PUSH0 PUSH2 0x1170 PUSH1 0x12 DUP4 PUSH2 0xE8E JUMP JUMPDEST SWAP2 POP PUSH2 0x117B DUP3 PUSH2 0x113C JUMP JUMPDEST PUSH1 0x20 DUP3 ADD SWAP1 POP SWAP2 SWAP1 POP JUMP JUMPDEST PUSH0 PUSH1 0x20 DUP3 ADD SWAP1 POP DUP2 DUP2 SUB PUSH0 DUP4 ADD MSTORE PUSH2 0x119D DUP2 PUSH2 0x1164 JUMP JUMPDEST SWAP1 POP SWAP2 SWAP1 POP JUMP JUMPDEST PUSH32 0x426964206D7573742062652067726561746572207468616E207A65726F2E0000 PUSH0 DUP3 ADD MSTORE POP JUMP JUMPDEST PUSH0 PUSH2 0x11D8 PUSH1 0x1E DUP4 PUSH2 0xE8E JUMP JUMPDEST SWAP2 POP PUSH2 0x11E3 DUP3 PUSH2 0x11A4 JUMP JUMPDEST PUSH1 0x20 DUP3 ADD SWAP1 POP SWAP2 SWAP1 POP JUMP JUMPDEST PUSH0 PUSH1 0x20 DUP3 ADD SWAP1 POP DUP2 DUP2 SUB PUSH0 DUP4 ADD MSTORE PUSH2 0x1205 DUP2 PUSH2 0x11CC JUMP JUMPDEST SWAP1 POP SWAP2 SWAP1 POP JUMP JUMPDEST PUSH0 PUSH2 0x1216 DUP3 PUSH2 0xCB6 JUMP JUMPDEST SWAP2 POP PUSH2 0x1221 DUP4 PUSH2 0xCB6 JUMP JUMPDEST SWAP3 POP DUP3 DUP3 ADD SWAP1 POP DUP1 DUP3 GT ISZERO PUSH2 0x1239 JUMPI PUSH2 0x1238 PUSH2 0xFD6 JUMP JUMPDEST JUMPDEST SWAP3 SWAP2 POP POP JUMP JUMPDEST PUSH32 0x426964206D757374206265206174206C65617374203525206869676865722E00 PUSH0 DUP3 ADD MSTORE POP JUMP JUMPDEST PUSH0 PUSH2 0x1273 PUSH1 0x1F DUP4 PUSH2 0xE8E JUMP JUMPDEST SWAP2 POP PUSH2 0x127E DUP3 PUSH2 0x123F JUMP JUMPDEST PUSH1 0x20 DUP3 ADD SWAP1 POP SWAP2 SWAP1 POP JUMP JUMPDEST PUSH0 PUSH1 0x20 DUP3 ADD SWAP1 POP DUP2 DUP2 SUB PUSH0 DUP4 ADD MSTORE PUSH2 0x12A0 DUP2 PUSH2 0x1267 JUMP JUMPDEST SWAP1 POP SWAP2 SWAP1 POP JUMP JUMPDEST PUSH0 PUSH1 0x40 DUP3 ADD SWAP1 POP PUSH2 0x12BA PUSH0 DUP4 ADD DUP6 PUSH2 0xCBF JUMP JUMPDEST PUSH2 0x12C7 PUSH1 0x20 DUP4 ADD DUP5 PUSH2 0xCBF JUMP JUMPDEST SWAP4 SWAP3 POP POP POP JUMP JUMPDEST PUSH32 0x4F6E6C792061756374696F6E6565722063616E2066696E616C697A652E000000 PUSH0 DUP3 ADD MSTORE POP JUMP JUMPDEST PUSH0 PUSH2 0x1302 PUSH1 0x1D DUP4 PUSH2 0xE8E JUMP JUMPDEST SWAP2 POP PUSH2 0x130D DUP3 PUSH2 0x12CE JUMP JUMPDEST PUSH1 0x20 DUP3 ADD SWAP1 POP SWAP2 SWAP1 POP JUMP JUMPDEST PUSH0 PUSH1 0x20 DUP3 ADD SWAP1 POP DUP2 DUP2 SUB PUSH0 DUP4 ADD MSTORE PUSH2 0x132F DUP2 PUSH2 0x12F6 JUMP JUMPDEST SWAP1 POP SWAP2 SWAP1 POP JUMP JUMPDEST PUSH32 0x41756374696F6E20616C72656164792066696E616C697A65642E000000000000 PUSH0 DUP3 ADD MSTORE POP JUMP JUMPDEST PUSH0 PUSH2 0x136A PUSH1 0x1A DUP4 PUSH2 0xE8E JUMP JUMPDEST SWAP2 POP PUSH2 0x1375 DUP3 PUSH2 0x1336 JUMP JUMPDEST PUSH1 0x20 DUP3 ADD SWAP1 POP SWAP2 SWAP1 POP JUMP JUMPDEST PUSH0 PUSH1 0x20 DUP3 ADD SWAP1 POP DUP2 DUP2 SUB PUSH0 DUP4 ADD MSTORE PUSH2 0x1397 DUP2 PUSH2 0x135E JUMP JUMPDEST SWAP1 POP SWAP2 SWAP1 POP JUMP JUMPDEST PUSH0 DUP2 SWAP1 POP SWAP2 SWAP1 POP JUMP JUMPDEST PUSH0 PUSH2 0x13C1 PUSH2 0x13BC PUSH2 0x13B7 DUP5 PUSH2 0xD40 JUMP JUMPDEST PUSH2 0x139E JUMP JUMPDEST PUSH2 0xD40 JUMP JUMPDEST SWAP1 POP SWAP2 SWAP1 POP JUMP JUMPDEST PUSH0 PUSH2 0x13D2 DUP3 PUSH2 0x13A7 JUMP JUMPDEST SWAP1 POP SWAP2 SWAP1 POP JUMP JUMPDEST PUSH0 PUSH2 0x13E3 DUP3 PUSH2 0x13C8 JUMP JUMPDEST SWAP1 POP SWAP2 SWAP1 POP JUMP JUMPDEST PUSH2 0x13F3 DUP2 PUSH2 0x13D9 JUMP JUMPDEST DUP3 MSTORE POP POP JUMP JUMPDEST PUSH0 PUSH1 0x40 DUP3 ADD SWAP1 POP PUSH2 0x140C PUSH0 DUP4 ADD DUP6 PUSH2 0x13EA JUMP JUMPDEST PUSH2 0x1419 PUSH1 0x20 DUP4 ADD DUP5 PUSH2 0xCBF JUMP JUMPDEST SWAP4 SWAP3 POP POP POP JUMP INVALID LOG2 PUSH5 0x6970667358 0x22 SLT KECCAK256 DUP15 0xF7 PUSH16 0x50AE13FDD833B79A3000B68652518BF1 PUSH27 0x985B6FB52D9C084B37CF37CA64736F6C634300081A003300000000 "
				},
				"gasEstimates": {
					"creation": {
						"codeDepositCost": "1041200",
						"executionCost": "infinite",
						"totalCost": "infinite"
					},
					"external": {
						"BID_INC_PERCENT()": "348",
						"EXTENSION_TIME()": "348",
						"GAS_FEE_PERCENT()": "349",
						"auctionEnded()": "2511",
						"auctioneer()": "2550",
						"bidEndTime()": "2493",
						"bidStartTime()": "2514",
						"bids(uint256)": "infinite",
						"deposits(address)": "2890",
						"finalizeAuction()": "infinite",
						"getWinner()": "9083",
						"highestBid()": "4776",
						"placeBid(uint256)": "infinite",
						"refundLosingBids()": "infinite"
					}
				},
				"methodIdentifiers": {
					"BID_INC_PERCENT()": "7bb44b83",
					"EXTENSION_TIME()": "5681104a",
					"GAS_FEE_PERCENT()": "2f6f81d9",
					"auctionEnded()": "86433374",
					"auctioneer()": "5ec2c7bf",
					"bidEndTime()": "4ba9a927",
					"bidStartTime()": "6d4d09d7",
					"bids(uint256)": "4423c5f1",
					"deposits(address)": "fc7e286d",
					"finalizeAuction()": "f77282ab",
					"getWinner()": "8e7ea5b2",
					"highestBid()": "d57bde79",
					"placeBid(uint256)": "9979ef45",
					"refundLosingBids()": "629e6b24"
				}
			},
			"storageLayout": {
				"storage": [
					{
						"astId": 3,
						"contract": "contracts/TPSubastaW-v1.sol:Subasta",
						"label": "auctioneer",
						"offset": 0,
						"slot": "0",
						"type": "t_address_payable"
					},
					{
						"astId": 5,
						"contract": "contracts/TPSubastaW-v1.sol:Subasta",
						"label": "bidStartTime",
						"offset": 0,
						"slot": "1",
						"type": "t_uint256"
					},
					{
						"astId": 7,
						"contract": "contracts/TPSubastaW-v1.sol:Subasta",
						"label": "bidEndTime",
						"offset": 0,
						"slot": "2",
						"type": "t_uint256"
					},
					{
						"astId": 18,
						"contract": "contracts/TPSubastaW-v1.sol:Subasta",
						"label": "auctionEnded",
						"offset": 0,
						"slot": "3",
						"type": "t_bool"
					},
					{
						"astId": 26,
						"contract": "contracts/TPSubastaW-v1.sol:Subasta",
						"label": "highestBid",
						"offset": 0,
						"slot": "4",
						"type": "t_struct(Bid)23_storage"
					},
					{
						"astId": 30,
						"contract": "contracts/TPSubastaW-v1.sol:Subasta",
						"label": "deposits",
						"offset": 0,
						"slot": "6",
						"type": "t_mapping(t_address,t_uint256)"
					},
					{
						"astId": 34,
						"contract": "contracts/TPSubastaW-v1.sol:Subasta",
						"label": "bids",
						"offset": 0,
						"slot": "7",
						"type": "t_array(t_struct(Bid)23_storage)dyn_storage"
					}
				],
				"types": {
					"t_address": {
						"encoding": "inplace",
						"label": "address",
						"numberOfBytes": "20"
					},
					"t_address_payable": {
						"encoding": "inplace",
						"label": "address payable",
						"numberOfBytes": "20"
					},
					"t_array(t_struct(Bid)23_storage)dyn_storage": {
						"base": "t_struct(Bid)23_storage",
						"encoding": "dynamic_array",
						"label": "struct Subasta.Bid[]",
						"numberOfBytes": "32"
					},
					"t_bool": {
						"encoding": "inplace",
						"label": "bool",
						"numberOfBytes": "1"
					},
					"t_mapping(t_address,t_uint256)": {
						"encoding": "mapping",
						"key": "t_address",
						"label": "mapping(address => uint256)",
						"numberOfBytes": "32",
						"value": "t_uint256"
					},
					"t_struct(Bid)23_storage": {
						"encoding": "inplace",
						"label": "struct Subasta.Bid",
						"members": [
							{
								"astId": 20,
								"contract": "contracts/TPSubastaW-v1.sol:Subasta",
								"label": "bidder",
								"offset": 0,
								"slot": "0",
								"type": "t_address_payable"
							},
							{
								"astId": 22,
								"contract": "contracts/TPSubastaW-v1.sol:Subasta",
								"label": "amount",
								"offset": 0,
								"slot": "1",
								"type": "t_uint256"
							}
						],
						"numberOfBytes": "64"
					},
					"t_uint256": {
						"encoding": "inplace",
						"label": "uint256",
						"numberOfBytes": "32"
					}
				}
			},
			"userdoc": {
				"kind": "user",
				"methods": {},
				"version": 1
			}
		}
	}
}