{
	"contracts/TPMod04/SimpleDexV2_flattened.sol": {
		"SimpleDEX": {
			"abi": [
				{
					"inputs": [
						{
							"internalType": "address",
							"name": "initialOwner",
							"type": "address"
						},
						{
							"internalType": "address",
							"name": "_tokenA",
							"type": "address"
						},
						{
							"internalType": "address",
							"name": "_tokenB",
							"type": "address"
						}
					],
					"stateMutability": "nonpayable",
					"type": "constructor"
				},
				{
					"inputs": [
						{
							"internalType": "address",
							"name": "owner",
							"type": "address"
						}
					],
					"name": "OwnableInvalidOwner",
					"type": "error"
				},
				{
					"inputs": [
						{
							"internalType": "address",
							"name": "account",
							"type": "address"
						}
					],
					"name": "OwnableUnauthorizedAccount",
					"type": "error"
				},
				{
					"anonymous": false,
					"inputs": [
						{
							"indexed": true,
							"internalType": "address",
							"name": "provider",
							"type": "address"
						},
						{
							"indexed": false,
							"internalType": "uint256",
							"name": "amountA",
							"type": "uint256"
						},
						{
							"indexed": false,
							"internalType": "uint256",
							"name": "amountB",
							"type": "uint256"
						}
					],
					"name": "LiquidityAdded",
					"type": "event"
				},
				{
					"anonymous": false,
					"inputs": [
						{
							"indexed": true,
							"internalType": "address",
							"name": "provider",
							"type": "address"
						},
						{
							"indexed": false,
							"internalType": "uint256",
							"name": "amountA",
							"type": "uint256"
						},
						{
							"indexed": false,
							"internalType": "uint256",
							"name": "amountB",
							"type": "uint256"
						}
					],
					"name": "LiquidityRemoved",
					"type": "event"
				},
				{
					"anonymous": false,
					"inputs": [
						{
							"indexed": true,
							"internalType": "address",
							"name": "previousOwner",
							"type": "address"
						},
						{
							"indexed": true,
							"internalType": "address",
							"name": "newOwner",
							"type": "address"
						}
					],
					"name": "OwnershipTransferred",
					"type": "event"
				},
				{
					"anonymous": false,
					"inputs": [
						{
							"indexed": true,
							"internalType": "address",
							"name": "user",
							"type": "address"
						},
						{
							"indexed": false,
							"internalType": "address",
							"name": "fromToken",
							"type": "address"
						},
						{
							"indexed": false,
							"internalType": "uint256",
							"name": "inputAmount",
							"type": "uint256"
						},
						{
							"indexed": false,
							"internalType": "uint256",
							"name": "outputAmount",
							"type": "uint256"
						}
					],
					"name": "Swap",
					"type": "event"
				},
				{
					"inputs": [
						{
							"internalType": "uint256",
							"name": "amountA",
							"type": "uint256"
						},
						{
							"internalType": "uint256",
							"name": "amountB",
							"type": "uint256"
						}
					],
					"name": "addLiquidity",
					"outputs": [],
					"stateMutability": "payable",
					"type": "function"
				},
				{
					"inputs": [
						{
							"internalType": "address",
							"name": "_token",
							"type": "address"
						}
					],
					"name": "getPrice",
					"outputs": [
						{
							"internalType": "uint256",
							"name": "price",
							"type": "uint256"
						}
					],
					"stateMutability": "view",
					"type": "function"
				},
				{
					"inputs": [],
					"name": "owner",
					"outputs": [
						{
							"internalType": "address",
							"name": "",
							"type": "address"
						}
					],
					"stateMutability": "view",
					"type": "function"
				},
				{
					"inputs": [
						{
							"internalType": "uint256",
							"name": "amountA",
							"type": "uint256"
						},
						{
							"internalType": "uint256",
							"name": "amountB",
							"type": "uint256"
						}
					],
					"name": "removeLiquidity",
					"outputs": [],
					"stateMutability": "nonpayable",
					"type": "function"
				},
				{
					"inputs": [],
					"name": "renounceOwnership",
					"outputs": [],
					"stateMutability": "nonpayable",
					"type": "function"
				},
				{
					"inputs": [],
					"name": "reserveA",
					"outputs": [
						{
							"internalType": "uint256",
							"name": "",
							"type": "uint256"
						}
					],
					"stateMutability": "view",
					"type": "function"
				},
				{
					"inputs": [],
					"name": "reserveB",
					"outputs": [
						{
							"internalType": "uint256",
							"name": "",
							"type": "uint256"
						}
					],
					"stateMutability": "view",
					"type": "function"
				},
				{
					"inputs": [
						{
							"internalType": "uint256",
							"name": "amountAIn",
							"type": "uint256"
						}
					],
					"name": "swapAforB",
					"outputs": [],
					"stateMutability": "nonpayable",
					"type": "function"
				},
				{
					"inputs": [
						{
							"internalType": "uint256",
							"name": "amountBIn",
							"type": "uint256"
						}
					],
					"name": "swapBforA",
					"outputs": [],
					"stateMutability": "nonpayable",
					"type": "function"
				},
				{
					"inputs": [],
					"name": "tokenA",
					"outputs": [
						{
							"internalType": "address",
							"name": "",
							"type": "address"
						}
					],
					"stateMutability": "view",
					"type": "function"
				},
				{
					"inputs": [],
					"name": "tokenB",
					"outputs": [
						{
							"internalType": "address",
							"name": "",
							"type": "address"
						}
					],
					"stateMutability": "view",
					"type": "function"
				},
				{
					"inputs": [
						{
							"internalType": "address",
							"name": "newOwner",
							"type": "address"
						}
					],
					"name": "transferOwnership",
					"outputs": [],
					"stateMutability": "nonpayable",
					"type": "function"
				}
			],
			"devdoc": {
				"errors": {
					"OwnableInvalidOwner(address)": [
						{
							"details": "The owner is not a valid owner account. (eg. `address(0)`)"
						}
					],
					"OwnableUnauthorizedAccount(address)": [
						{
							"details": "The caller account is not authorized to perform an operation."
						}
					]
				},
				"kind": "dev",
				"methods": {
					"addLiquidity(uint256,uint256)": {
						"details": "Add liquidity to the pool. Only the owner can call this function.",
						"params": {
							"amountA": "Amount of TokenA to add.",
							"amountB": "Amount of TokenB to add."
						}
					},
					"getPrice(address)": {
						"details": "Get the price of a token relative to the other.",
						"params": {
							"_token": "Address of the token to get the price for."
						},
						"returns": {
							"price": "The relative price of the token."
						}
					},
					"owner()": {
						"details": "Returns the address of the current owner."
					},
					"removeLiquidity(uint256,uint256)": {
						"details": "Remove liquidity from the pool. Only the owner can call this function.",
						"params": {
							"amountA": "Amount of TokenA to withdraw.",
							"amountB": "Amount of TokenB to withdraw."
						}
					},
					"renounceOwnership()": {
						"details": "Leaves the contract without owner. It will not be possible to call `onlyOwner` functions. Can only be called by the current owner. NOTE: Renouncing ownership will leave the contract without an owner, thereby disabling any functionality that is only available to the owner."
					},
					"swapAforB(uint256)": {
						"details": "Swap TokenA for TokenB.",
						"params": {
							"amountAIn": "Amount of TokenA to swap."
						}
					},
					"swapBforA(uint256)": {
						"details": "Swap TokenB for TokenA.",
						"params": {
							"amountBIn": "Amount of TokenB to swap."
						}
					},
					"transferOwnership(address)": {
						"details": "Transfers ownership of the contract to a new account (`newOwner`). Can only be called by the current owner."
					}
				},
				"version": 1
			},
			"evm": {
				"assembly": "    /* \"contracts/TPMod04/SimpleDexV2_flattened.sol\":6899:11567  contract SimpleDEX is Ownable {... */\n  mstore(0x40, 0x80)\n    /* \"contracts/TPMod04/SimpleDexV2_flattened.sol\":7323:7472  constructor(address initialOwner, address _tokenA, address _tokenB) Ownable(initialOwner) {... */\n  callvalue\n  dup1\n  iszero\n  tag_1\n  jumpi\n  0x00\n  dup1\n  revert\ntag_1:\n  pop\n  mload(0x40)\n  sub(codesize, bytecodeSize)\n  dup1\n  bytecodeSize\n  dup4\n  codecopy\n  dup2\n  dup2\n  add\n  0x40\n  mstore\n  dup2\n  add\n  swap1\n  tag_2\n  swap2\n  swap1\n  tag_3\n  jump\t// in\ntag_2:\n    /* \"contracts/TPMod04/SimpleDexV2_flattened.sol\":7399:7411  initialOwner */\n  dup3\n    /* \"contracts/TPMod04/SimpleDexV2_flattened.sol\":2266:2267  0 */\n  0x00\n    /* \"contracts/TPMod04/SimpleDexV2_flattened.sol\":2242:2268  initialOwner == address(0) */\n  0xffffffffffffffffffffffffffffffffffffffff\n  and\n    /* \"contracts/TPMod04/SimpleDexV2_flattened.sol\":2242:2254  initialOwner */\n  dup2\n    /* \"contracts/TPMod04/SimpleDexV2_flattened.sol\":2242:2268  initialOwner == address(0) */\n  0xffffffffffffffffffffffffffffffffffffffff\n  and\n  sub\n    /* \"contracts/TPMod04/SimpleDexV2_flattened.sol\":2238:2333  if (initialOwner == address(0)) {... */\n  tag_7\n  jumpi\n    /* \"contracts/TPMod04/SimpleDexV2_flattened.sol\":2319:2320  0 */\n  0x00\n    /* \"contracts/TPMod04/SimpleDexV2_flattened.sol\":2291:2322  OwnableInvalidOwner(address(0)) */\n  mload(0x40)\n  0x1e4fbdf700000000000000000000000000000000000000000000000000000000\n  dup2\n  mstore\n  0x04\n  add\n  tag_8\n  swap2\n  swap1\n  tag_9\n  jump\t// in\ntag_8:\n  mload(0x40)\n  dup1\n  swap2\n  sub\n  swap1\n  revert\n    /* \"contracts/TPMod04/SimpleDexV2_flattened.sol\":2238:2333  if (initialOwner == address(0)) {... */\ntag_7:\n    /* \"contracts/TPMod04/SimpleDexV2_flattened.sol\":2342:2374  _transferOwnership(initialOwner) */\n  tag_10\n    /* \"contracts/TPMod04/SimpleDexV2_flattened.sol\":2361:2373  initialOwner */\n  dup2\n    /* \"contracts/TPMod04/SimpleDexV2_flattened.sol\":2342:2360  _transferOwnership */\n  shl(0x20, tag_11)\n    /* \"contracts/TPMod04/SimpleDexV2_flattened.sol\":2342:2374  _transferOwnership(initialOwner) */\n  0x20\n  shr\n  jump\t// in\ntag_10:\n    /* \"contracts/TPMod04/SimpleDexV2_flattened.sol\":2194:2381  constructor(address initialOwner) {... */\n  pop\n    /* \"contracts/TPMod04/SimpleDexV2_flattened.sol\":7432:7439  _tokenA */\n  dup2\n    /* \"contracts/TPMod04/SimpleDexV2_flattened.sol\":7423:7429  tokenA */\n  0x01\n  0x00\n    /* \"contracts/TPMod04/SimpleDexV2_flattened.sol\":7423:7439  tokenA = _tokenA */\n  0x0100\n  exp\n  dup2\n  sload\n  dup2\n  0xffffffffffffffffffffffffffffffffffffffff\n  mul\n  not\n  and\n  swap1\n  dup4\n  0xffffffffffffffffffffffffffffffffffffffff\n  and\n  mul\n  or\n  swap1\n  sstore\n  pop\n    /* \"contracts/TPMod04/SimpleDexV2_flattened.sol\":7458:7465  _tokenB */\n  dup1\n    /* \"contracts/TPMod04/SimpleDexV2_flattened.sol\":7449:7455  tokenB */\n  0x02\n  0x00\n    /* \"contracts/TPMod04/SimpleDexV2_flattened.sol\":7449:7465  tokenB = _tokenB */\n  0x0100\n  exp\n  dup2\n  sload\n  dup2\n  0xffffffffffffffffffffffffffffffffffffffff\n  mul\n  not\n  and\n  swap1\n  dup4\n  0xffffffffffffffffffffffffffffffffffffffff\n  and\n  mul\n  or\n  swap1\n  sstore\n  pop\n    /* \"contracts/TPMod04/SimpleDexV2_flattened.sol\":7323:7472  constructor(address initialOwner, address _tokenA, address _tokenB) Ownable(initialOwner) {... */\n  pop\n  pop\n  pop\n    /* \"contracts/TPMod04/SimpleDexV2_flattened.sol\":6899:11567  contract SimpleDEX is Ownable {... */\n  jump(tag_13)\n    /* \"contracts/TPMod04/SimpleDexV2_flattened.sol\":3881:4068  function _transferOwnership(address newOwner) internal virtual {... */\ntag_11:\n    /* \"contracts/TPMod04/SimpleDexV2_flattened.sol\":3954:3970  address oldOwner */\n  0x00\n    /* \"contracts/TPMod04/SimpleDexV2_flattened.sol\":3973:3979  _owner */\n  dup1\n  0x00\n  swap1\n  sload\n  swap1\n  0x0100\n  exp\n  swap1\n  div\n  0xffffffffffffffffffffffffffffffffffffffff\n  and\n    /* \"contracts/TPMod04/SimpleDexV2_flattened.sol\":3954:3979  address oldOwner = _owner */\n  swap1\n  pop\n    /* \"contracts/TPMod04/SimpleDexV2_flattened.sol\":3998:4006  newOwner */\n  dup2\n    /* \"contracts/TPMod04/SimpleDexV2_flattened.sol\":3989:3995  _owner */\n  0x00\n  dup1\n    /* \"contracts/TPMod04/SimpleDexV2_flattened.sol\":3989:4006  _owner = newOwner */\n  0x0100\n  exp\n  dup2\n  sload\n  dup2\n  0xffffffffffffffffffffffffffffffffffffffff\n  mul\n  not\n  and\n  swap1\n  dup4\n  0xffffffffffffffffffffffffffffffffffffffff\n  and\n  mul\n  or\n  swap1\n  sstore\n  pop\n    /* \"contracts/TPMod04/SimpleDexV2_flattened.sol\":4052:4060  newOwner */\n  dup2\n    /* \"contracts/TPMod04/SimpleDexV2_flattened.sol\":4021:4061  OwnershipTransferred(oldOwner, newOwner) */\n  0xffffffffffffffffffffffffffffffffffffffff\n  and\n    /* \"contracts/TPMod04/SimpleDexV2_flattened.sol\":4042:4050  oldOwner */\n  dup2\n    /* \"contracts/TPMod04/SimpleDexV2_flattened.sol\":4021:4061  OwnershipTransferred(oldOwner, newOwner) */\n  0xffffffffffffffffffffffffffffffffffffffff\n  and\n  0x8be0079c531659141344cd1fd0a4f28419497f9722a3daafe3b4186f6b6457e0\n  mload(0x40)\n  mload(0x40)\n  dup1\n  swap2\n  sub\n  swap1\n  log3\n    /* \"contracts/TPMod04/SimpleDexV2_flattened.sol\":3944:4068  {... */\n  pop\n    /* \"contracts/TPMod04/SimpleDexV2_flattened.sol\":3881:4068  function _transferOwnership(address newOwner) internal virtual {... */\n  pop\n  jump\t// out\n    /* \"#utility.yul\":88:205   */\ntag_16:\n    /* \"#utility.yul\":197:198   */\n  0x00\n    /* \"#utility.yul\":194:195   */\n  dup1\n    /* \"#utility.yul\":187:199   */\n  revert\n    /* \"#utility.yul\":334:460   */\ntag_18:\n    /* \"#utility.yul\":371:378   */\n  0x00\n    /* \"#utility.yul\":411:453   */\n  0xffffffffffffffffffffffffffffffffffffffff\n    /* \"#utility.yul\":404:409   */\n  dup3\n    /* \"#utility.yul\":400:454   */\n  and\n    /* \"#utility.yul\":389:454   */\n  swap1\n  pop\n    /* \"#utility.yul\":334:460   */\n  swap2\n  swap1\n  pop\n  jump\t// out\n    /* \"#utility.yul\":466:562   */\ntag_19:\n    /* \"#utility.yul\":503:510   */\n  0x00\n    /* \"#utility.yul\":532:556   */\n  tag_29\n    /* \"#utility.yul\":550:555   */\n  dup3\n    /* \"#utility.yul\":532:556   */\n  tag_18\n  jump\t// in\ntag_29:\n    /* \"#utility.yul\":521:556   */\n  swap1\n  pop\n    /* \"#utility.yul\":466:562   */\n  swap2\n  swap1\n  pop\n  jump\t// out\n    /* \"#utility.yul\":568:690   */\ntag_20:\n    /* \"#utility.yul\":641:665   */\n  tag_31\n    /* \"#utility.yul\":659:664   */\n  dup2\n    /* \"#utility.yul\":641:665   */\n  tag_19\n  jump\t// in\ntag_31:\n    /* \"#utility.yul\":634:639   */\n  dup2\n    /* \"#utility.yul\":631:666   */\n  eq\n    /* \"#utility.yul\":621:684   */\n  tag_32\n  jumpi\n    /* \"#utility.yul\":680:681   */\n  0x00\n    /* \"#utility.yul\":677:678   */\n  dup1\n    /* \"#utility.yul\":670:682   */\n  revert\n    /* \"#utility.yul\":621:684   */\ntag_32:\n    /* \"#utility.yul\":568:690   */\n  pop\n  jump\t// out\n    /* \"#utility.yul\":696:839   */\ntag_21:\n    /* \"#utility.yul\":753:758   */\n  0x00\n    /* \"#utility.yul\":784:790   */\n  dup2\n    /* \"#utility.yul\":778:791   */\n  mload\n    /* \"#utility.yul\":769:791   */\n  swap1\n  pop\n    /* \"#utility.yul\":800:833   */\n  tag_34\n    /* \"#utility.yul\":827:832   */\n  dup2\n    /* \"#utility.yul\":800:833   */\n  tag_20\n  jump\t// in\ntag_34:\n    /* \"#utility.yul\":696:839   */\n  swap3\n  swap2\n  pop\n  pop\n  jump\t// out\n    /* \"#utility.yul\":845:1508   */\ntag_3:\n    /* \"#utility.yul\":933:939   */\n  0x00\n    /* \"#utility.yul\":941:947   */\n  dup1\n    /* \"#utility.yul\":949:955   */\n  0x00\n    /* \"#utility.yul\":998:1000   */\n  0x60\n    /* \"#utility.yul\":986:995   */\n  dup5\n    /* \"#utility.yul\":977:984   */\n  dup7\n    /* \"#utility.yul\":973:996   */\n  sub\n    /* \"#utility.yul\":969:1001   */\n  slt\n    /* \"#utility.yul\":966:1085   */\n  iszero\n  tag_36\n  jumpi\n    /* \"#utility.yul\":1004:1083   */\n  tag_37\n  tag_16\n  jump\t// in\ntag_37:\n    /* \"#utility.yul\":966:1085   */\ntag_36:\n    /* \"#utility.yul\":1124:1125   */\n  0x00\n    /* \"#utility.yul\":1149:1213   */\n  tag_38\n    /* \"#utility.yul\":1205:1212   */\n  dup7\n    /* \"#utility.yul\":1196:1202   */\n  dup3\n    /* \"#utility.yul\":1185:1194   */\n  dup8\n    /* \"#utility.yul\":1181:1203   */\n  add\n    /* \"#utility.yul\":1149:1213   */\n  tag_21\n  jump\t// in\ntag_38:\n    /* \"#utility.yul\":1139:1213   */\n  swap4\n  pop\n    /* \"#utility.yul\":1095:1223   */\n  pop\n    /* \"#utility.yul\":1262:1264   */\n  0x20\n    /* \"#utility.yul\":1288:1352   */\n  tag_39\n    /* \"#utility.yul\":1344:1351   */\n  dup7\n    /* \"#utility.yul\":1335:1341   */\n  dup3\n    /* \"#utility.yul\":1324:1333   */\n  dup8\n    /* \"#utility.yul\":1320:1342   */\n  add\n    /* \"#utility.yul\":1288:1352   */\n  tag_21\n  jump\t// in\ntag_39:\n    /* \"#utility.yul\":1278:1352   */\n  swap3\n  pop\n    /* \"#utility.yul\":1233:1362   */\n  pop\n    /* \"#utility.yul\":1401:1403   */\n  0x40\n    /* \"#utility.yul\":1427:1491   */\n  tag_40\n    /* \"#utility.yul\":1483:1490   */\n  dup7\n    /* \"#utility.yul\":1474:1480   */\n  dup3\n    /* \"#utility.yul\":1463:1472   */\n  dup8\n    /* \"#utility.yul\":1459:1481   */\n  add\n    /* \"#utility.yul\":1427:1491   */\n  tag_21\n  jump\t// in\ntag_40:\n    /* \"#utility.yul\":1417:1491   */\n  swap2\n  pop\n    /* \"#utility.yul\":1372:1501   */\n  pop\n    /* \"#utility.yul\":845:1508   */\n  swap3\n  pop\n  swap3\n  pop\n  swap3\n  jump\t// out\n    /* \"#utility.yul\":1514:1632   */\ntag_22:\n    /* \"#utility.yul\":1601:1625   */\n  tag_42\n    /* \"#utility.yul\":1619:1624   */\n  dup2\n    /* \"#utility.yul\":1601:1625   */\n  tag_19\n  jump\t// in\ntag_42:\n    /* \"#utility.yul\":1596:1599   */\n  dup3\n    /* \"#utility.yul\":1589:1626   */\n  mstore\n    /* \"#utility.yul\":1514:1632   */\n  pop\n  pop\n  jump\t// out\n    /* \"#utility.yul\":1638:1860   */\ntag_9:\n    /* \"#utility.yul\":1731:1735   */\n  0x00\n    /* \"#utility.yul\":1769:1771   */\n  0x20\n    /* \"#utility.yul\":1758:1767   */\n  dup3\n    /* \"#utility.yul\":1754:1772   */\n  add\n    /* \"#utility.yul\":1746:1772   */\n  swap1\n  pop\n    /* \"#utility.yul\":1782:1853   */\n  tag_44\n    /* \"#utility.yul\":1850:1851   */\n  0x00\n    /* \"#utility.yul\":1839:1848   */\n  dup4\n    /* \"#utility.yul\":1835:1852   */\n  add\n    /* \"#utility.yul\":1826:1832   */\n  dup5\n    /* \"#utility.yul\":1782:1853   */\n  tag_22\n  jump\t// in\ntag_44:\n    /* \"#utility.yul\":1638:1860   */\n  swap3\n  swap2\n  pop\n  pop\n  jump\t// out\n    /* \"contracts/TPMod04/SimpleDexV2_flattened.sol\":6899:11567  contract SimpleDEX is Ownable {... */\ntag_13:\n  dataSize(sub_0)\n  dup1\n  dataOffset(sub_0)\n  0x00\n  codecopy\n  0x00\n  return\nstop\n\nsub_0: assembly {\n        /* \"contracts/TPMod04/SimpleDexV2_flattened.sol\":6899:11567  contract SimpleDEX is Ownable {... */\n      mstore(0x40, 0x80)\n      jumpi(tag_1, lt(calldatasize, 0x04))\n      shr(0xe0, calldataload(0x00))\n      dup1\n      0x8da5cb5b\n      gt\n      tag_14\n      jumpi\n      dup1\n      0x8da5cb5b\n      eq\n      tag_8\n      jumpi\n      dup1\n      0x9cd441da\n      eq\n      tag_9\n      jumpi\n      dup1\n      0x9d7de6b3\n      eq\n      tag_10\n      jumpi\n      dup1\n      0xdc5fa6c5\n      eq\n      tag_11\n      jumpi\n      dup1\n      0xe4f1f70a\n      eq\n      tag_12\n      jumpi\n      dup1\n      0xf2fde38b\n      eq\n      tag_13\n      jumpi\n      jump(tag_1)\n    tag_14:\n      dup1\n      0x0fc63d10\n      eq\n      tag_2\n      jumpi\n      dup1\n      0x19e36f3b\n      eq\n      tag_3\n      jumpi\n      dup1\n      0x41976e09\n      eq\n      tag_4\n      jumpi\n      dup1\n      0x5f64b55b\n      eq\n      tag_5\n      jumpi\n      dup1\n      0x715018a6\n      eq\n      tag_6\n      jumpi\n      dup1\n      0x8014a7aa\n      eq\n      tag_7\n      jumpi\n    tag_1:\n      0x00\n      dup1\n      revert\n        /* \"contracts/TPMod04/SimpleDexV2_flattened.sol\":6935:6956  address public tokenA */\n    tag_2:\n      callvalue\n      dup1\n      iszero\n      tag_15\n      jumpi\n      0x00\n      dup1\n      revert\n    tag_15:\n      pop\n      tag_16\n      tag_17\n      jump\t// in\n    tag_16:\n      mload(0x40)\n      tag_18\n      swap2\n      swap1\n      tag_19\n      jump\t// in\n    tag_18:\n      mload(0x40)\n      dup1\n      swap2\n      sub\n      swap1\n      return\n        /* \"contracts/TPMod04/SimpleDexV2_flattened.sol\":7018:7041  uint256 public reserveB */\n    tag_3:\n      callvalue\n      dup1\n      iszero\n      tag_20\n      jumpi\n      0x00\n      dup1\n      revert\n    tag_20:\n      pop\n      tag_21\n      tag_22\n      jump\t// in\n    tag_21:\n      mload(0x40)\n      tag_23\n      swap2\n      swap1\n      tag_24\n      jump\t// in\n    tag_23:\n      mload(0x40)\n      dup1\n      swap2\n      sub\n      swap1\n      return\n        /* \"contracts/TPMod04/SimpleDexV2_flattened.sol\":11051:11565  function getPrice(address _token) external view returns (uint256 price) {... */\n    tag_4:\n      callvalue\n      dup1\n      iszero\n      tag_25\n      jumpi\n      0x00\n      dup1\n      revert\n    tag_25:\n      pop\n      tag_26\n      0x04\n      dup1\n      calldatasize\n      sub\n      dup2\n      add\n      swap1\n      tag_27\n      swap2\n      swap1\n      tag_28\n      jump\t// in\n    tag_27:\n      tag_29\n      jump\t// in\n    tag_26:\n      mload(0x40)\n      tag_30\n      swap2\n      swap1\n      tag_24\n      jump\t// in\n    tag_30:\n      mload(0x40)\n      dup1\n      swap2\n      sub\n      swap1\n      return\n        /* \"contracts/TPMod04/SimpleDexV2_flattened.sol\":6962:6983  address public tokenB */\n    tag_5:\n      callvalue\n      dup1\n      iszero\n      tag_31\n      jumpi\n      0x00\n      dup1\n      revert\n    tag_31:\n      pop\n      tag_32\n      tag_33\n      jump\t// in\n    tag_32:\n      mload(0x40)\n      tag_34\n      swap2\n      swap1\n      tag_19\n      jump\t// in\n    tag_34:\n      mload(0x40)\n      dup1\n      swap2\n      sub\n      swap1\n      return\n        /* \"contracts/TPMod04/SimpleDexV2_flattened.sol\":3262:3363  function renounceOwnership() public virtual onlyOwner {... */\n    tag_6:\n      callvalue\n      dup1\n      iszero\n      tag_35\n      jumpi\n      0x00\n      dup1\n      revert\n    tag_35:\n      pop\n      tag_36\n      tag_37\n      jump\t// in\n    tag_36:\n      stop\n        /* \"contracts/TPMod04/SimpleDexV2_flattened.sol\":9261:10041  function swapBforA(uint256 amountBIn) external {... */\n    tag_7:\n      callvalue\n      dup1\n      iszero\n      tag_38\n      jumpi\n      0x00\n      dup1\n      revert\n    tag_38:\n      pop\n      tag_39\n      0x04\n      dup1\n      calldatasize\n      sub\n      dup2\n      add\n      swap1\n      tag_40\n      swap2\n      swap1\n      tag_41\n      jump\t// in\n    tag_40:\n      tag_42\n      jump\t// in\n    tag_39:\n      stop\n        /* \"contracts/TPMod04/SimpleDexV2_flattened.sol\":2607:2692  function owner() public view virtual returns (address) {... */\n    tag_8:\n      callvalue\n      dup1\n      iszero\n      tag_43\n      jumpi\n      0x00\n      dup1\n      revert\n    tag_43:\n      pop\n      tag_44\n      tag_45\n      jump\t// in\n    tag_44:\n      mload(0x40)\n      tag_46\n      swap2\n      swap1\n      tag_19\n      jump\t// in\n    tag_46:\n      mload(0x40)\n      dup1\n      swap2\n      sub\n      swap1\n      return\n        /* \"contracts/TPMod04/SimpleDexV2_flattened.sol\":7666:8265  function addLiquidity(uint256 amountA, uint256 amountB) payable external onlyOwner {... */\n    tag_9:\n      tag_47\n      0x04\n      dup1\n      calldatasize\n      sub\n      dup2\n      add\n      swap1\n      tag_48\n      swap2\n      swap1\n      tag_49\n      jump\t// in\n    tag_48:\n      tag_50\n      jump\t// in\n    tag_47:\n      stop\n        /* \"contracts/TPMod04/SimpleDexV2_flattened.sol\":10250:10851  function removeLiquidity(uint256 amountA, uint256 amountB) external onlyOwner {... */\n    tag_10:\n      callvalue\n      dup1\n      iszero\n      tag_51\n      jumpi\n      0x00\n      dup1\n      revert\n    tag_51:\n      pop\n      tag_52\n      0x04\n      dup1\n      calldatasize\n      sub\n      dup2\n      add\n      swap1\n      tag_53\n      swap2\n      swap1\n      tag_49\n      jump\t// in\n    tag_53:\n      tag_54\n      jump\t// in\n    tag_52:\n      stop\n        /* \"contracts/TPMod04/SimpleDexV2_flattened.sol\":6989:7012  uint256 public reserveA */\n    tag_11:\n      callvalue\n      dup1\n      iszero\n      tag_55\n      jumpi\n      0x00\n      dup1\n      revert\n    tag_55:\n      pop\n      tag_56\n      tag_57\n      jump\t// in\n    tag_56:\n      mload(0x40)\n      tag_58\n      swap2\n      swap1\n      tag_24\n      jump\t// in\n    tag_58:\n      mload(0x40)\n      dup1\n      swap2\n      sub\n      swap1\n      return\n        /* \"contracts/TPMod04/SimpleDexV2_flattened.sol\":8373:9153  function swapAforB(uint256 amountAIn) external {... */\n    tag_12:\n      callvalue\n      dup1\n      iszero\n      tag_59\n      jumpi\n      0x00\n      dup1\n      revert\n    tag_59:\n      pop\n      tag_60\n      0x04\n      dup1\n      calldatasize\n      sub\n      dup2\n      add\n      swap1\n      tag_61\n      swap2\n      swap1\n      tag_41\n      jump\t// in\n    tag_61:\n      tag_62\n      jump\t// in\n    tag_60:\n      stop\n        /* \"contracts/TPMod04/SimpleDexV2_flattened.sol\":3512:3727  function transferOwnership(address newOwner) public virtual onlyOwner {... */\n    tag_13:\n      callvalue\n      dup1\n      iszero\n      tag_63\n      jumpi\n      0x00\n      dup1\n      revert\n    tag_63:\n      pop\n      tag_64\n      0x04\n      dup1\n      calldatasize\n      sub\n      dup2\n      add\n      swap1\n      tag_65\n      swap2\n      swap1\n      tag_28\n      jump\t// in\n    tag_65:\n      tag_66\n      jump\t// in\n    tag_64:\n      stop\n        /* \"contracts/TPMod04/SimpleDexV2_flattened.sol\":6935:6956  address public tokenA */\n    tag_17:\n      0x01\n      0x00\n      swap1\n      sload\n      swap1\n      0x0100\n      exp\n      swap1\n      div\n      0xffffffffffffffffffffffffffffffffffffffff\n      and\n      dup2\n      jump\t// out\n        /* \"contracts/TPMod04/SimpleDexV2_flattened.sol\":7018:7041  uint256 public reserveB */\n    tag_22:\n      sload(0x04)\n      dup2\n      jump\t// out\n        /* \"contracts/TPMod04/SimpleDexV2_flattened.sol\":11051:11565  function getPrice(address _token) external view returns (uint256 price) {... */\n    tag_29:\n        /* \"contracts/TPMod04/SimpleDexV2_flattened.sol\":11108:11121  uint256 price */\n      0x00\n        /* \"contracts/TPMod04/SimpleDexV2_flattened.sol\":11147:11153  tokenA */\n      0x01\n      0x00\n      swap1\n      sload\n      swap1\n      0x0100\n      exp\n      swap1\n      div\n      0xffffffffffffffffffffffffffffffffffffffff\n      and\n        /* \"contracts/TPMod04/SimpleDexV2_flattened.sol\":11137:11153  _token == tokenA */\n      0xffffffffffffffffffffffffffffffffffffffff\n      and\n        /* \"contracts/TPMod04/SimpleDexV2_flattened.sol\":11137:11143  _token */\n      dup3\n        /* \"contracts/TPMod04/SimpleDexV2_flattened.sol\":11137:11153  _token == tokenA */\n      0xffffffffffffffffffffffffffffffffffffffff\n      and\n      sub\n        /* \"contracts/TPMod04/SimpleDexV2_flattened.sol\":11133:11559  if (_token == tokenA) {... */\n      tag_68\n      jumpi\n        /* \"contracts/TPMod04/SimpleDexV2_flattened.sol\":11188:11189  0 */\n      0x00\n        /* \"contracts/TPMod04/SimpleDexV2_flattened.sol\":11177:11185  reserveB */\n      sload(0x04)\n        /* \"contracts/TPMod04/SimpleDexV2_flattened.sol\":11177:11189  reserveB > 0 */\n      gt\n        /* \"contracts/TPMod04/SimpleDexV2_flattened.sol\":11169:11217  require(reserveB > 0, \"No liquidity for TokenB\") */\n      tag_69\n      jumpi\n      mload(0x40)\n      0x08c379a000000000000000000000000000000000000000000000000000000000\n      dup2\n      mstore\n      0x04\n      add\n      tag_70\n      swap1\n      tag_71\n      jump\t// in\n    tag_70:\n      mload(0x40)\n      dup1\n      swap2\n      sub\n      swap1\n      revert\n    tag_69:\n        /* \"contracts/TPMod04/SimpleDexV2_flattened.sol\":11259:11267  reserveB */\n      sload(0x04)\n        /* \"contracts/TPMod04/SimpleDexV2_flattened.sol\":11251:11255  1e18 */\n      0x0de0b6b3a7640000\n        /* \"contracts/TPMod04/SimpleDexV2_flattened.sol\":11240:11248  reserveA */\n      sload(0x03)\n        /* \"contracts/TPMod04/SimpleDexV2_flattened.sol\":11240:11255  reserveA * 1e18 */\n      tag_72\n      swap2\n      swap1\n      tag_73\n      jump\t// in\n    tag_72:\n        /* \"contracts/TPMod04/SimpleDexV2_flattened.sol\":11239:11267  (reserveA * 1e18) / reserveB */\n      tag_74\n      swap2\n      swap1\n      tag_75\n      jump\t// in\n    tag_74:\n        /* \"contracts/TPMod04/SimpleDexV2_flattened.sol\":11231:11267  price = (reserveA * 1e18) / reserveB */\n      swap1\n      pop\n        /* \"contracts/TPMod04/SimpleDexV2_flattened.sol\":11133:11559  if (_token == tokenA) {... */\n      jump(tag_76)\n    tag_68:\n        /* \"contracts/TPMod04/SimpleDexV2_flattened.sol\":11333:11339  tokenB */\n      0x02\n      0x00\n      swap1\n      sload\n      swap1\n      0x0100\n      exp\n      swap1\n      div\n      0xffffffffffffffffffffffffffffffffffffffff\n      and\n        /* \"contracts/TPMod04/SimpleDexV2_flattened.sol\":11323:11339  _token == tokenB */\n      0xffffffffffffffffffffffffffffffffffffffff\n      and\n        /* \"contracts/TPMod04/SimpleDexV2_flattened.sol\":11323:11329  _token */\n      dup3\n        /* \"contracts/TPMod04/SimpleDexV2_flattened.sol\":11323:11339  _token == tokenB */\n      0xffffffffffffffffffffffffffffffffffffffff\n      and\n      sub\n        /* \"contracts/TPMod04/SimpleDexV2_flattened.sol\":11319:11559  if (_token == tokenB) {... */\n      tag_77\n      jumpi\n        /* \"contracts/TPMod04/SimpleDexV2_flattened.sol\":11374:11375  0 */\n      0x00\n        /* \"contracts/TPMod04/SimpleDexV2_flattened.sol\":11363:11371  reserveA */\n      sload(0x03)\n        /* \"contracts/TPMod04/SimpleDexV2_flattened.sol\":11363:11375  reserveA > 0 */\n      gt\n        /* \"contracts/TPMod04/SimpleDexV2_flattened.sol\":11355:11403  require(reserveA > 0, \"No liquidity for TokenA\") */\n      tag_78\n      jumpi\n      mload(0x40)\n      0x08c379a000000000000000000000000000000000000000000000000000000000\n      dup2\n      mstore\n      0x04\n      add\n      tag_79\n      swap1\n      tag_80\n      jump\t// in\n    tag_79:\n      mload(0x40)\n      dup1\n      swap2\n      sub\n      swap1\n      revert\n    tag_78:\n        /* \"contracts/TPMod04/SimpleDexV2_flattened.sol\":11445:11453  reserveA */\n      sload(0x03)\n        /* \"contracts/TPMod04/SimpleDexV2_flattened.sol\":11437:11441  1e18 */\n      0x0de0b6b3a7640000\n        /* \"contracts/TPMod04/SimpleDexV2_flattened.sol\":11426:11434  reserveB */\n      sload(0x04)\n        /* \"contracts/TPMod04/SimpleDexV2_flattened.sol\":11426:11441  reserveB * 1e18 */\n      tag_81\n      swap2\n      swap1\n      tag_73\n      jump\t// in\n    tag_81:\n        /* \"contracts/TPMod04/SimpleDexV2_flattened.sol\":11425:11453  (reserveB * 1e18) / reserveA */\n      tag_82\n      swap2\n      swap1\n      tag_75\n      jump\t// in\n    tag_82:\n        /* \"contracts/TPMod04/SimpleDexV2_flattened.sol\":11417:11453  price = (reserveB * 1e18) / reserveA */\n      swap1\n      pop\n        /* \"contracts/TPMod04/SimpleDexV2_flattened.sol\":11319:11559  if (_token == tokenB) {... */\n      jump(tag_83)\n    tag_77:\n        /* \"contracts/TPMod04/SimpleDexV2_flattened.sol\":11519:11548  revert(\"Token not supported\") */\n      mload(0x40)\n      0x08c379a000000000000000000000000000000000000000000000000000000000\n      dup2\n      mstore\n      0x04\n      add\n      tag_84\n      swap1\n      tag_85\n      jump\t// in\n    tag_84:\n      mload(0x40)\n      dup1\n      swap2\n      sub\n      swap1\n      revert\n        /* \"contracts/TPMod04/SimpleDexV2_flattened.sol\":11319:11559  if (_token == tokenB) {... */\n    tag_83:\n        /* \"contracts/TPMod04/SimpleDexV2_flattened.sol\":11133:11559  if (_token == tokenA) {... */\n    tag_76:\n        /* \"contracts/TPMod04/SimpleDexV2_flattened.sol\":11051:11565  function getPrice(address _token) external view returns (uint256 price) {... */\n      swap2\n      swap1\n      pop\n      jump\t// out\n        /* \"contracts/TPMod04/SimpleDexV2_flattened.sol\":6962:6983  address public tokenB */\n    tag_33:\n      0x02\n      0x00\n      swap1\n      sload\n      swap1\n      0x0100\n      exp\n      swap1\n      div\n      0xffffffffffffffffffffffffffffffffffffffff\n      and\n      dup2\n      jump\t// out\n        /* \"contracts/TPMod04/SimpleDexV2_flattened.sol\":3262:3363  function renounceOwnership() public virtual onlyOwner {... */\n    tag_37:\n        /* \"contracts/TPMod04/SimpleDexV2_flattened.sol\":2500:2513  _checkOwner() */\n      tag_87\n        /* \"contracts/TPMod04/SimpleDexV2_flattened.sol\":2500:2511  _checkOwner */\n      tag_88\n        /* \"contracts/TPMod04/SimpleDexV2_flattened.sol\":2500:2513  _checkOwner() */\n      jump\t// in\n    tag_87:\n        /* \"contracts/TPMod04/SimpleDexV2_flattened.sol\":3326:3356  _transferOwnership(address(0)) */\n      tag_90\n        /* \"contracts/TPMod04/SimpleDexV2_flattened.sol\":3353:3354  0 */\n      0x00\n        /* \"contracts/TPMod04/SimpleDexV2_flattened.sol\":3326:3344  _transferOwnership */\n      tag_91\n        /* \"contracts/TPMod04/SimpleDexV2_flattened.sol\":3326:3356  _transferOwnership(address(0)) */\n      jump\t// in\n    tag_90:\n        /* \"contracts/TPMod04/SimpleDexV2_flattened.sol\":3262:3363  function renounceOwnership() public virtual onlyOwner {... */\n      jump\t// out\n        /* \"contracts/TPMod04/SimpleDexV2_flattened.sol\":9261:10041  function swapBforA(uint256 amountBIn) external {... */\n    tag_42:\n        /* \"contracts/TPMod04/SimpleDexV2_flattened.sol\":9338:9339  0 */\n      0x00\n        /* \"contracts/TPMod04/SimpleDexV2_flattened.sol\":9326:9335  amountBIn */\n      dup2\n        /* \"contracts/TPMod04/SimpleDexV2_flattened.sol\":9326:9339  amountBIn > 0 */\n      gt\n        /* \"contracts/TPMod04/SimpleDexV2_flattened.sol\":9318:9376  require(amountBIn > 0, \"Amount must be greater than zero\") */\n      tag_93\n      jumpi\n      mload(0x40)\n      0x08c379a000000000000000000000000000000000000000000000000000000000\n      dup2\n      mstore\n      0x04\n      add\n      tag_94\n      swap1\n      tag_95\n      jump\t// in\n    tag_94:\n      mload(0x40)\n      dup1\n      swap2\n      sub\n      swap1\n      revert\n    tag_93:\n        /* \"contracts/TPMod04/SimpleDexV2_flattened.sol\":9472:9490  uint256 amountAOut */\n      0x00\n        /* \"contracts/TPMod04/SimpleDexV2_flattened.sol\":9530:9539  amountBIn */\n      dup2\n        /* \"contracts/TPMod04/SimpleDexV2_flattened.sol\":9519:9527  reserveB */\n      sload(0x04)\n        /* \"contracts/TPMod04/SimpleDexV2_flattened.sol\":9519:9539  reserveB + amountBIn */\n      tag_96\n      swap2\n      swap1\n      tag_97\n      jump\t// in\n    tag_96:\n        /* \"contracts/TPMod04/SimpleDexV2_flattened.sol\":9506:9514  reserveA */\n      sload(0x03)\n        /* \"contracts/TPMod04/SimpleDexV2_flattened.sol\":9494:9503  amountBIn */\n      dup4\n        /* \"contracts/TPMod04/SimpleDexV2_flattened.sol\":9494:9514  amountBIn * reserveA */\n      tag_98\n      swap2\n      swap1\n      tag_73\n      jump\t// in\n    tag_98:\n        /* \"contracts/TPMod04/SimpleDexV2_flattened.sol\":9493:9540  (amountBIn * reserveA) / (reserveB + amountBIn) */\n      tag_99\n      swap2\n      swap1\n      tag_75\n      jump\t// in\n    tag_99:\n        /* \"contracts/TPMod04/SimpleDexV2_flattened.sol\":9472:9540  uint256 amountAOut = (amountBIn * reserveA) / (reserveB + amountBIn) */\n      swap1\n      pop\n        /* \"contracts/TPMod04/SimpleDexV2_flattened.sol\":9571:9572  0 */\n      0x00\n        /* \"contracts/TPMod04/SimpleDexV2_flattened.sol\":9558:9568  amountAOut */\n      dup2\n        /* \"contracts/TPMod04/SimpleDexV2_flattened.sol\":9558:9572  amountAOut > 0 */\n      gt\n        /* \"contracts/TPMod04/SimpleDexV2_flattened.sol\":9550:9603  require(amountAOut > 0, \"Insufficient output amount\") */\n      tag_100\n      jumpi\n      mload(0x40)\n      0x08c379a000000000000000000000000000000000000000000000000000000000\n      dup2\n      mstore\n      0x04\n      add\n      tag_101\n      swap1\n      tag_102\n      jump\t// in\n    tag_101:\n      mload(0x40)\n      dup1\n      swap2\n      sub\n      swap1\n      revert\n    tag_100:\n        /* \"contracts/TPMod04/SimpleDexV2_flattened.sol\":9697:9703  tokenB */\n      0x02\n      0x00\n      swap1\n      sload\n      swap1\n      0x0100\n      exp\n      swap1\n      div\n      0xffffffffffffffffffffffffffffffffffffffff\n      and\n        /* \"contracts/TPMod04/SimpleDexV2_flattened.sol\":9690:9717  IERC20(tokenB).transferFrom */\n      0xffffffffffffffffffffffffffffffffffffffff\n      and\n      0x23b872dd\n        /* \"contracts/TPMod04/SimpleDexV2_flattened.sol\":9718:9728  msg.sender */\n      caller\n        /* \"contracts/TPMod04/SimpleDexV2_flattened.sol\":9738:9742  this */\n      address\n        /* \"contracts/TPMod04/SimpleDexV2_flattened.sol\":9745:9754  amountBIn */\n      dup6\n        /* \"contracts/TPMod04/SimpleDexV2_flattened.sol\":9690:9755  IERC20(tokenB).transferFrom(msg.sender, address(this), amountBIn) */\n      mload(0x40)\n      dup5\n      0xffffffff\n      and\n      0xe0\n      shl\n      dup2\n      mstore\n      0x04\n      add\n      tag_103\n      swap4\n      swap3\n      swap2\n      swap1\n      tag_104\n      jump\t// in\n    tag_103:\n      0x20\n      mload(0x40)\n      dup1\n      dup4\n      sub\n      dup2\n      0x00\n      dup8\n      gas\n      call\n      iszero\n      dup1\n      iszero\n      tag_106\n      jumpi\n      returndatasize\n      0x00\n      dup1\n      returndatacopy\n      revert(0x00, returndatasize)\n    tag_106:\n      pop\n      pop\n      pop\n      pop\n      mload(0x40)\n      returndatasize\n      not(0x1f)\n      0x1f\n      dup3\n      add\n      and\n      dup3\n      add\n      dup1\n      0x40\n      mstore\n      pop\n      dup2\n      add\n      swap1\n      tag_107\n      swap2\n      swap1\n      tag_108\n      jump\t// in\n    tag_107:\n        /* \"contracts/TPMod04/SimpleDexV2_flattened.sol\":9682:9785  require(IERC20(tokenB).transferFrom(msg.sender, address(this), amountBIn), \"Transfer of TokenB failed\") */\n      tag_109\n      jumpi\n      mload(0x40)\n      0x08c379a000000000000000000000000000000000000000000000000000000000\n      dup2\n      mstore\n      0x04\n      add\n      tag_110\n      swap1\n      tag_111\n      jump\t// in\n    tag_110:\n      mload(0x40)\n      dup1\n      swap2\n      sub\n      swap1\n      revert\n    tag_109:\n        /* \"contracts/TPMod04/SimpleDexV2_flattened.sol\":9810:9816  tokenA */\n      0x01\n      0x00\n      swap1\n      sload\n      swap1\n      0x0100\n      exp\n      swap1\n      div\n      0xffffffffffffffffffffffffffffffffffffffff\n      and\n        /* \"contracts/TPMod04/SimpleDexV2_flattened.sol\":9803:9826  IERC20(tokenA).transfer */\n      0xffffffffffffffffffffffffffffffffffffffff\n      and\n      0xa9059cbb\n        /* \"contracts/TPMod04/SimpleDexV2_flattened.sol\":9827:9837  msg.sender */\n      caller\n        /* \"contracts/TPMod04/SimpleDexV2_flattened.sol\":9839:9849  amountAOut */\n      dup4\n        /* \"contracts/TPMod04/SimpleDexV2_flattened.sol\":9803:9850  IERC20(tokenA).transfer(msg.sender, amountAOut) */\n      mload(0x40)\n      dup4\n      0xffffffff\n      and\n      0xe0\n      shl\n      dup2\n      mstore\n      0x04\n      add\n      tag_112\n      swap3\n      swap2\n      swap1\n      tag_113\n      jump\t// in\n    tag_112:\n      0x20\n      mload(0x40)\n      dup1\n      dup4\n      sub\n      dup2\n      0x00\n      dup8\n      gas\n      call\n      iszero\n      dup1\n      iszero\n      tag_115\n      jumpi\n      returndatasize\n      0x00\n      dup1\n      returndatacopy\n      revert(0x00, returndatasize)\n    tag_115:\n      pop\n      pop\n      pop\n      pop\n      mload(0x40)\n      returndatasize\n      not(0x1f)\n      0x1f\n      dup3\n      add\n      and\n      dup3\n      add\n      dup1\n      0x40\n      mstore\n      pop\n      dup2\n      add\n      swap1\n      tag_116\n      swap2\n      swap1\n      tag_108\n      jump\t// in\n    tag_116:\n        /* \"contracts/TPMod04/SimpleDexV2_flattened.sol\":9795:9880  require(IERC20(tokenA).transfer(msg.sender, amountAOut), \"Transfer of TokenA failed\") */\n      tag_117\n      jumpi\n      mload(0x40)\n      0x08c379a000000000000000000000000000000000000000000000000000000000\n      dup2\n      mstore\n      0x04\n      add\n      tag_118\n      swap1\n      tag_119\n      jump\t// in\n    tag_118:\n      mload(0x40)\n      dup1\n      swap2\n      sub\n      swap1\n      revert\n    tag_117:\n        /* \"contracts/TPMod04/SimpleDexV2_flattened.sol\":9930:9939  amountBIn */\n      dup2\n        /* \"contracts/TPMod04/SimpleDexV2_flattened.sol\":9918:9926  reserveB */\n      0x04\n      0x00\n        /* \"contracts/TPMod04/SimpleDexV2_flattened.sol\":9918:9939  reserveB += amountBIn */\n      dup3\n      dup3\n      sload\n      tag_120\n      swap2\n      swap1\n      tag_97\n      jump\t// in\n    tag_120:\n      swap3\n      pop\n      pop\n      dup2\n      swap1\n      sstore\n      pop\n        /* \"contracts/TPMod04/SimpleDexV2_flattened.sol\":9961:9971  amountAOut */\n      dup1\n        /* \"contracts/TPMod04/SimpleDexV2_flattened.sol\":9949:9957  reserveA */\n      0x03\n      0x00\n        /* \"contracts/TPMod04/SimpleDexV2_flattened.sol\":9949:9971  reserveA -= amountAOut */\n      dup3\n      dup3\n      sload\n      tag_121\n      swap2\n      swap1\n      tag_122\n      jump\t// in\n    tag_121:\n      swap3\n      pop\n      pop\n      dup2\n      swap1\n      sstore\n      pop\n        /* \"contracts/TPMod04/SimpleDexV2_flattened.sol\":9992:10002  msg.sender */\n      caller\n        /* \"contracts/TPMod04/SimpleDexV2_flattened.sol\":9987:10034  Swap(msg.sender, tokenB, amountBIn, amountAOut) */\n      0xffffffffffffffffffffffffffffffffffffffff\n      and\n      0xfa2dda1cc1b86e41239702756b13effbc1a092b5c57e3ad320fbe4f3b13fe235\n        /* \"contracts/TPMod04/SimpleDexV2_flattened.sol\":10004:10010  tokenB */\n      0x02\n      0x00\n      swap1\n      sload\n      swap1\n      0x0100\n      exp\n      swap1\n      div\n      0xffffffffffffffffffffffffffffffffffffffff\n      and\n        /* \"contracts/TPMod04/SimpleDexV2_flattened.sol\":10012:10021  amountBIn */\n      dup5\n        /* \"contracts/TPMod04/SimpleDexV2_flattened.sol\":10023:10033  amountAOut */\n      dup5\n        /* \"contracts/TPMod04/SimpleDexV2_flattened.sol\":9987:10034  Swap(msg.sender, tokenB, amountBIn, amountAOut) */\n      mload(0x40)\n      tag_123\n      swap4\n      swap3\n      swap2\n      swap1\n      tag_124\n      jump\t// in\n    tag_123:\n      mload(0x40)\n      dup1\n      swap2\n      sub\n      swap1\n      log2\n        /* \"contracts/TPMod04/SimpleDexV2_flattened.sol\":9308:10041  {... */\n      pop\n        /* \"contracts/TPMod04/SimpleDexV2_flattened.sol\":9261:10041  function swapBforA(uint256 amountBIn) external {... */\n      pop\n      jump\t// out\n        /* \"contracts/TPMod04/SimpleDexV2_flattened.sol\":2607:2692  function owner() public view virtual returns (address) {... */\n    tag_45:\n        /* \"contracts/TPMod04/SimpleDexV2_flattened.sol\":2653:2660  address */\n      0x00\n        /* \"contracts/TPMod04/SimpleDexV2_flattened.sol\":2679:2685  _owner */\n      dup1\n      0x00\n      swap1\n      sload\n      swap1\n      0x0100\n      exp\n      swap1\n      div\n      0xffffffffffffffffffffffffffffffffffffffff\n      and\n        /* \"contracts/TPMod04/SimpleDexV2_flattened.sol\":2672:2685  return _owner */\n      swap1\n      pop\n        /* \"contracts/TPMod04/SimpleDexV2_flattened.sol\":2607:2692  function owner() public view virtual returns (address) {... */\n      swap1\n      jump\t// out\n        /* \"contracts/TPMod04/SimpleDexV2_flattened.sol\":7666:8265  function addLiquidity(uint256 amountA, uint256 amountB) payable external onlyOwner {... */\n    tag_50:\n        /* \"contracts/TPMod04/SimpleDexV2_flattened.sol\":2500:2513  _checkOwner() */\n      tag_127\n        /* \"contracts/TPMod04/SimpleDexV2_flattened.sol\":2500:2511  _checkOwner */\n      tag_88\n        /* \"contracts/TPMod04/SimpleDexV2_flattened.sol\":2500:2513  _checkOwner() */\n      jump\t// in\n    tag_127:\n        /* \"contracts/TPMod04/SimpleDexV2_flattened.sol\":7777:7778  0 */\n      0x00\n        /* \"contracts/TPMod04/SimpleDexV2_flattened.sol\":7767:7774  amountA */\n      dup3\n        /* \"contracts/TPMod04/SimpleDexV2_flattened.sol\":7767:7778  amountA > 0 */\n      gt\n        /* \"contracts/TPMod04/SimpleDexV2_flattened.sol\":7767:7793  amountA > 0 && amountB > 0 */\n      dup1\n      iszero\n      tag_129\n      jumpi\n      pop\n        /* \"contracts/TPMod04/SimpleDexV2_flattened.sol\":7792:7793  0 */\n      0x00\n        /* \"contracts/TPMod04/SimpleDexV2_flattened.sol\":7782:7789  amountB */\n      dup2\n        /* \"contracts/TPMod04/SimpleDexV2_flattened.sol\":7782:7793  amountB > 0 */\n      gt\n        /* \"contracts/TPMod04/SimpleDexV2_flattened.sol\":7767:7793  amountA > 0 && amountB > 0 */\n    tag_129:\n        /* \"contracts/TPMod04/SimpleDexV2_flattened.sol\":7759:7831  require(amountA > 0 && amountB > 0, \"Amounts must be greater than zero\") */\n      tag_130\n      jumpi\n      mload(0x40)\n      0x08c379a000000000000000000000000000000000000000000000000000000000\n      dup2\n      mstore\n      0x04\n      add\n      tag_131\n      swap1\n      tag_132\n      jump\t// in\n    tag_131:\n      mload(0x40)\n      dup1\n      swap2\n      sub\n      swap1\n      revert\n    tag_130:\n        /* \"contracts/TPMod04/SimpleDexV2_flattened.sol\":7915:7921  tokenA */\n      0x01\n      0x00\n      swap1\n      sload\n      swap1\n      0x0100\n      exp\n      swap1\n      div\n      0xffffffffffffffffffffffffffffffffffffffff\n      and\n        /* \"contracts/TPMod04/SimpleDexV2_flattened.sol\":7908:7935  IERC20(tokenA).transferFrom */\n      0xffffffffffffffffffffffffffffffffffffffff\n      and\n      0x23b872dd\n        /* \"contracts/TPMod04/SimpleDexV2_flattened.sol\":7936:7946  msg.sender */\n      caller\n        /* \"contracts/TPMod04/SimpleDexV2_flattened.sol\":7956:7960  this */\n      address\n        /* \"contracts/TPMod04/SimpleDexV2_flattened.sol\":7963:7970  amountA */\n      dup6\n        /* \"contracts/TPMod04/SimpleDexV2_flattened.sol\":7908:7971  IERC20(tokenA).transferFrom(msg.sender, address(this), amountA) */\n      mload(0x40)\n      dup5\n      0xffffffff\n      and\n      0xe0\n      shl\n      dup2\n      mstore\n      0x04\n      add\n      tag_133\n      swap4\n      swap3\n      swap2\n      swap1\n      tag_104\n      jump\t// in\n    tag_133:\n      0x20\n      mload(0x40)\n      dup1\n      dup4\n      sub\n      dup2\n      0x00\n      dup8\n      gas\n      call\n      iszero\n      dup1\n      iszero\n      tag_135\n      jumpi\n      returndatasize\n      0x00\n      dup1\n      returndatacopy\n      revert(0x00, returndatasize)\n    tag_135:\n      pop\n      pop\n      pop\n      pop\n      mload(0x40)\n      returndatasize\n      not(0x1f)\n      0x1f\n      dup3\n      add\n      and\n      dup3\n      add\n      dup1\n      0x40\n      mstore\n      pop\n      dup2\n      add\n      swap1\n      tag_136\n      swap2\n      swap1\n      tag_108\n      jump\t// in\n    tag_136:\n        /* \"contracts/TPMod04/SimpleDexV2_flattened.sol\":7900:8001  require(IERC20(tokenA).transferFrom(msg.sender, address(this), amountA), \"Transfer of TokenA failed\") */\n      tag_137\n      jumpi\n      mload(0x40)\n      0x08c379a000000000000000000000000000000000000000000000000000000000\n      dup2\n      mstore\n      0x04\n      add\n      tag_138\n      swap1\n      tag_119\n      jump\t// in\n    tag_138:\n      mload(0x40)\n      dup1\n      swap2\n      sub\n      swap1\n      revert\n    tag_137:\n        /* \"contracts/TPMod04/SimpleDexV2_flattened.sol\":8026:8032  tokenB */\n      0x02\n      0x00\n      swap1\n      sload\n      swap1\n      0x0100\n      exp\n      swap1\n      div\n      0xffffffffffffffffffffffffffffffffffffffff\n      and\n        /* \"contracts/TPMod04/SimpleDexV2_flattened.sol\":8019:8046  IERC20(tokenB).transferFrom */\n      0xffffffffffffffffffffffffffffffffffffffff\n      and\n      0x23b872dd\n        /* \"contracts/TPMod04/SimpleDexV2_flattened.sol\":8047:8057  msg.sender */\n      caller\n        /* \"contracts/TPMod04/SimpleDexV2_flattened.sol\":8067:8071  this */\n      address\n        /* \"contracts/TPMod04/SimpleDexV2_flattened.sol\":8074:8081  amountB */\n      dup5\n        /* \"contracts/TPMod04/SimpleDexV2_flattened.sol\":8019:8082  IERC20(tokenB).transferFrom(msg.sender, address(this), amountB) */\n      mload(0x40)\n      dup5\n      0xffffffff\n      and\n      0xe0\n      shl\n      dup2\n      mstore\n      0x04\n      add\n      tag_139\n      swap4\n      swap3\n      swap2\n      swap1\n      tag_104\n      jump\t// in\n    tag_139:\n      0x20\n      mload(0x40)\n      dup1\n      dup4\n      sub\n      dup2\n      0x00\n      dup8\n      gas\n      call\n      iszero\n      dup1\n      iszero\n      tag_141\n      jumpi\n      returndatasize\n      0x00\n      dup1\n      returndatacopy\n      revert(0x00, returndatasize)\n    tag_141:\n      pop\n      pop\n      pop\n      pop\n      mload(0x40)\n      returndatasize\n      not(0x1f)\n      0x1f\n      dup3\n      add\n      and\n      dup3\n      add\n      dup1\n      0x40\n      mstore\n      pop\n      dup2\n      add\n      swap1\n      tag_142\n      swap2\n      swap1\n      tag_108\n      jump\t// in\n    tag_142:\n        /* \"contracts/TPMod04/SimpleDexV2_flattened.sol\":8011:8112  require(IERC20(tokenB).transferFrom(msg.sender, address(this), amountB), \"Transfer of TokenB failed\") */\n      tag_143\n      jumpi\n      mload(0x40)\n      0x08c379a000000000000000000000000000000000000000000000000000000000\n      dup2\n      mstore\n      0x04\n      add\n      tag_144\n      swap1\n      tag_111\n      jump\t// in\n    tag_144:\n      mload(0x40)\n      dup1\n      swap2\n      sub\n      swap1\n      revert\n    tag_143:\n        /* \"contracts/TPMod04/SimpleDexV2_flattened.sol\":8162:8169  amountA */\n      dup2\n        /* \"contracts/TPMod04/SimpleDexV2_flattened.sol\":8150:8158  reserveA */\n      0x03\n      0x00\n        /* \"contracts/TPMod04/SimpleDexV2_flattened.sol\":8150:8169  reserveA += amountA */\n      dup3\n      dup3\n      sload\n      tag_145\n      swap2\n      swap1\n      tag_97\n      jump\t// in\n    tag_145:\n      swap3\n      pop\n      pop\n      dup2\n      swap1\n      sstore\n      pop\n        /* \"contracts/TPMod04/SimpleDexV2_flattened.sol\":8191:8198  amountB */\n      dup1\n        /* \"contracts/TPMod04/SimpleDexV2_flattened.sol\":8179:8187  reserveB */\n      0x04\n      0x00\n        /* \"contracts/TPMod04/SimpleDexV2_flattened.sol\":8179:8198  reserveB += amountB */\n      dup3\n      dup3\n      sload\n      tag_146\n      swap2\n      swap1\n      tag_97\n      jump\t// in\n    tag_146:\n      swap3\n      pop\n      pop\n      dup2\n      swap1\n      sstore\n      pop\n        /* \"contracts/TPMod04/SimpleDexV2_flattened.sol\":8229:8239  msg.sender */\n      caller\n        /* \"contracts/TPMod04/SimpleDexV2_flattened.sol\":8214:8258  LiquidityAdded(msg.sender, amountA, amountB) */\n      0xffffffffffffffffffffffffffffffffffffffff\n      and\n      0xac1d76749e5447b7b16f5ab61447e1bd502f3bb4807af3b28e620d1700a6ee45\n        /* \"contracts/TPMod04/SimpleDexV2_flattened.sol\":8241:8248  amountA */\n      dup4\n        /* \"contracts/TPMod04/SimpleDexV2_flattened.sol\":8250:8257  amountB */\n      dup4\n        /* \"contracts/TPMod04/SimpleDexV2_flattened.sol\":8214:8258  LiquidityAdded(msg.sender, amountA, amountB) */\n      mload(0x40)\n      tag_147\n      swap3\n      swap2\n      swap1\n      tag_148\n      jump\t// in\n    tag_147:\n      mload(0x40)\n      dup1\n      swap2\n      sub\n      swap1\n      log2\n        /* \"contracts/TPMod04/SimpleDexV2_flattened.sol\":7666:8265  function addLiquidity(uint256 amountA, uint256 amountB) payable external onlyOwner {... */\n      pop\n      pop\n      jump\t// out\n        /* \"contracts/TPMod04/SimpleDexV2_flattened.sol\":10250:10851  function removeLiquidity(uint256 amountA, uint256 amountB) external onlyOwner {... */\n    tag_54:\n        /* \"contracts/TPMod04/SimpleDexV2_flattened.sol\":2500:2513  _checkOwner() */\n      tag_150\n        /* \"contracts/TPMod04/SimpleDexV2_flattened.sol\":2500:2511  _checkOwner */\n      tag_88\n        /* \"contracts/TPMod04/SimpleDexV2_flattened.sol\":2500:2513  _checkOwner() */\n      jump\t// in\n    tag_150:\n        /* \"contracts/TPMod04/SimpleDexV2_flattened.sol\":10357:10365  reserveA */\n      sload(0x03)\n        /* \"contracts/TPMod04/SimpleDexV2_flattened.sol\":10346:10353  amountA */\n      dup3\n        /* \"contracts/TPMod04/SimpleDexV2_flattened.sol\":10346:10365  amountA <= reserveA */\n      gt\n      iszero\n        /* \"contracts/TPMod04/SimpleDexV2_flattened.sol\":10338:10397  require(amountA <= reserveA, \"Insufficient TokenA reserve\") */\n      tag_152\n      jumpi\n      mload(0x40)\n      0x08c379a000000000000000000000000000000000000000000000000000000000\n      dup2\n      mstore\n      0x04\n      add\n      tag_153\n      swap1\n      tag_154\n      jump\t// in\n    tag_153:\n      mload(0x40)\n      dup1\n      swap2\n      sub\n      swap1\n      revert\n    tag_152:\n        /* \"contracts/TPMod04/SimpleDexV2_flattened.sol\":10426:10434  reserveB */\n      sload(0x04)\n        /* \"contracts/TPMod04/SimpleDexV2_flattened.sol\":10415:10422  amountB */\n      dup2\n        /* \"contracts/TPMod04/SimpleDexV2_flattened.sol\":10415:10434  amountB <= reserveB */\n      gt\n      iszero\n        /* \"contracts/TPMod04/SimpleDexV2_flattened.sol\":10407:10466  require(amountB <= reserveB, \"Insufficient TokenB reserve\") */\n      tag_155\n      jumpi\n      mload(0x40)\n      0x08c379a000000000000000000000000000000000000000000000000000000000\n      dup2\n      mstore\n      0x04\n      add\n      tag_156\n      swap1\n      tag_157\n      jump\t// in\n    tag_156:\n      mload(0x40)\n      dup1\n      swap2\n      sub\n      swap1\n      revert\n    tag_155:\n        /* \"contracts/TPMod04/SimpleDexV2_flattened.sol\":10516:10523  amountA */\n      dup2\n        /* \"contracts/TPMod04/SimpleDexV2_flattened.sol\":10504:10512  reserveA */\n      0x03\n      0x00\n        /* \"contracts/TPMod04/SimpleDexV2_flattened.sol\":10504:10523  reserveA -= amountA */\n      dup3\n      dup3\n      sload\n      tag_158\n      swap2\n      swap1\n      tag_122\n      jump\t// in\n    tag_158:\n      swap3\n      pop\n      pop\n      dup2\n      swap1\n      sstore\n      pop\n        /* \"contracts/TPMod04/SimpleDexV2_flattened.sol\":10545:10552  amountB */\n      dup1\n        /* \"contracts/TPMod04/SimpleDexV2_flattened.sol\":10533:10541  reserveB */\n      0x04\n      0x00\n        /* \"contracts/TPMod04/SimpleDexV2_flattened.sol\":10533:10552  reserveB -= amountB */\n      dup3\n      dup3\n      sload\n      tag_159\n      swap2\n      swap1\n      tag_122\n      jump\t// in\n    tag_159:\n      swap3\n      pop\n      pop\n      dup2\n      swap1\n      sstore\n      pop\n        /* \"contracts/TPMod04/SimpleDexV2_flattened.sol\":10623:10629  tokenA */\n      0x01\n      0x00\n      swap1\n      sload\n      swap1\n      0x0100\n      exp\n      swap1\n      div\n      0xffffffffffffffffffffffffffffffffffffffff\n      and\n        /* \"contracts/TPMod04/SimpleDexV2_flattened.sol\":10616:10639  IERC20(tokenA).transfer */\n      0xffffffffffffffffffffffffffffffffffffffff\n      and\n      0xa9059cbb\n        /* \"contracts/TPMod04/SimpleDexV2_flattened.sol\":10640:10650  msg.sender */\n      caller\n        /* \"contracts/TPMod04/SimpleDexV2_flattened.sol\":10652:10659  amountA */\n      dup5\n        /* \"contracts/TPMod04/SimpleDexV2_flattened.sol\":10616:10660  IERC20(tokenA).transfer(msg.sender, amountA) */\n      mload(0x40)\n      dup4\n      0xffffffff\n      and\n      0xe0\n      shl\n      dup2\n      mstore\n      0x04\n      add\n      tag_160\n      swap3\n      swap2\n      swap1\n      tag_113\n      jump\t// in\n    tag_160:\n      0x20\n      mload(0x40)\n      dup1\n      dup4\n      sub\n      dup2\n      0x00\n      dup8\n      gas\n      call\n      iszero\n      dup1\n      iszero\n      tag_162\n      jumpi\n      returndatasize\n      0x00\n      dup1\n      returndatacopy\n      revert(0x00, returndatasize)\n    tag_162:\n      pop\n      pop\n      pop\n      pop\n      mload(0x40)\n      returndatasize\n      not(0x1f)\n      0x1f\n      dup3\n      add\n      and\n      dup3\n      add\n      dup1\n      0x40\n      mstore\n      pop\n      dup2\n      add\n      swap1\n      tag_163\n      swap2\n      swap1\n      tag_108\n      jump\t// in\n    tag_163:\n        /* \"contracts/TPMod04/SimpleDexV2_flattened.sol\":10608:10690  require(IERC20(tokenA).transfer(msg.sender, amountA), \"Transfer of TokenA failed\") */\n      tag_164\n      jumpi\n      mload(0x40)\n      0x08c379a000000000000000000000000000000000000000000000000000000000\n      dup2\n      mstore\n      0x04\n      add\n      tag_165\n      swap1\n      tag_119\n      jump\t// in\n    tag_165:\n      mload(0x40)\n      dup1\n      swap2\n      sub\n      swap1\n      revert\n    tag_164:\n        /* \"contracts/TPMod04/SimpleDexV2_flattened.sol\":10715:10721  tokenB */\n      0x02\n      0x00\n      swap1\n      sload\n      swap1\n      0x0100\n      exp\n      swap1\n      div\n      0xffffffffffffffffffffffffffffffffffffffff\n      and\n        /* \"contracts/TPMod04/SimpleDexV2_flattened.sol\":10708:10731  IERC20(tokenB).transfer */\n      0xffffffffffffffffffffffffffffffffffffffff\n      and\n      0xa9059cbb\n        /* \"contracts/TPMod04/SimpleDexV2_flattened.sol\":10732:10742  msg.sender */\n      caller\n        /* \"contracts/TPMod04/SimpleDexV2_flattened.sol\":10744:10751  amountB */\n      dup4\n        /* \"contracts/TPMod04/SimpleDexV2_flattened.sol\":10708:10752  IERC20(tokenB).transfer(msg.sender, amountB) */\n      mload(0x40)\n      dup4\n      0xffffffff\n      and\n      0xe0\n      shl\n      dup2\n      mstore\n      0x04\n      add\n      tag_166\n      swap3\n      swap2\n      swap1\n      tag_113\n      jump\t// in\n    tag_166:\n      0x20\n      mload(0x40)\n      dup1\n      dup4\n      sub\n      dup2\n      0x00\n      dup8\n      gas\n      call\n      iszero\n      dup1\n      iszero\n      tag_168\n      jumpi\n      returndatasize\n      0x00\n      dup1\n      returndatacopy\n      revert(0x00, returndatasize)\n    tag_168:\n      pop\n      pop\n      pop\n      pop\n      mload(0x40)\n      returndatasize\n      not(0x1f)\n      0x1f\n      dup3\n      add\n      and\n      dup3\n      add\n      dup1\n      0x40\n      mstore\n      pop\n      dup2\n      add\n      swap1\n      tag_169\n      swap2\n      swap1\n      tag_108\n      jump\t// in\n    tag_169:\n        /* \"contracts/TPMod04/SimpleDexV2_flattened.sol\":10700:10782  require(IERC20(tokenB).transfer(msg.sender, amountB), \"Transfer of TokenB failed\") */\n      tag_170\n      jumpi\n      mload(0x40)\n      0x08c379a000000000000000000000000000000000000000000000000000000000\n      dup2\n      mstore\n      0x04\n      add\n      tag_171\n      swap1\n      tag_111\n      jump\t// in\n    tag_171:\n      mload(0x40)\n      dup1\n      swap2\n      sub\n      swap1\n      revert\n    tag_170:\n        /* \"contracts/TPMod04/SimpleDexV2_flattened.sol\":10815:10825  msg.sender */\n      caller\n        /* \"contracts/TPMod04/SimpleDexV2_flattened.sol\":10798:10844  LiquidityRemoved(msg.sender, amountA, amountB) */\n      0xffffffffffffffffffffffffffffffffffffffff\n      and\n      0x96cd817c6329656790ef8fba7675405193677d39619571282f5e21f3a98cd059\n        /* \"contracts/TPMod04/SimpleDexV2_flattened.sol\":10827:10834  amountA */\n      dup4\n        /* \"contracts/TPMod04/SimpleDexV2_flattened.sol\":10836:10843  amountB */\n      dup4\n        /* \"contracts/TPMod04/SimpleDexV2_flattened.sol\":10798:10844  LiquidityRemoved(msg.sender, amountA, amountB) */\n      mload(0x40)\n      tag_172\n      swap3\n      swap2\n      swap1\n      tag_148\n      jump\t// in\n    tag_172:\n      mload(0x40)\n      dup1\n      swap2\n      sub\n      swap1\n      log2\n        /* \"contracts/TPMod04/SimpleDexV2_flattened.sol\":10250:10851  function removeLiquidity(uint256 amountA, uint256 amountB) external onlyOwner {... */\n      pop\n      pop\n      jump\t// out\n        /* \"contracts/TPMod04/SimpleDexV2_flattened.sol\":6989:7012  uint256 public reserveA */\n    tag_57:\n      sload(0x03)\n      dup2\n      jump\t// out\n        /* \"contracts/TPMod04/SimpleDexV2_flattened.sol\":8373:9153  function swapAforB(uint256 amountAIn) external {... */\n    tag_62:\n        /* \"contracts/TPMod04/SimpleDexV2_flattened.sol\":8450:8451  0 */\n      0x00\n        /* \"contracts/TPMod04/SimpleDexV2_flattened.sol\":8438:8447  amountAIn */\n      dup2\n        /* \"contracts/TPMod04/SimpleDexV2_flattened.sol\":8438:8451  amountAIn > 0 */\n      gt\n        /* \"contracts/TPMod04/SimpleDexV2_flattened.sol\":8430:8488  require(amountAIn > 0, \"Amount must be greater than zero\") */\n      tag_174\n      jumpi\n      mload(0x40)\n      0x08c379a000000000000000000000000000000000000000000000000000000000\n      dup2\n      mstore\n      0x04\n      add\n      tag_175\n      swap1\n      tag_95\n      jump\t// in\n    tag_175:\n      mload(0x40)\n      dup1\n      swap2\n      sub\n      swap1\n      revert\n    tag_174:\n        /* \"contracts/TPMod04/SimpleDexV2_flattened.sol\":8584:8602  uint256 amountBOut */\n      0x00\n        /* \"contracts/TPMod04/SimpleDexV2_flattened.sol\":8642:8651  amountAIn */\n      dup2\n        /* \"contracts/TPMod04/SimpleDexV2_flattened.sol\":8631:8639  reserveA */\n      sload(0x03)\n        /* \"contracts/TPMod04/SimpleDexV2_flattened.sol\":8631:8651  reserveA + amountAIn */\n      tag_176\n      swap2\n      swap1\n      tag_97\n      jump\t// in\n    tag_176:\n        /* \"contracts/TPMod04/SimpleDexV2_flattened.sol\":8618:8626  reserveB */\n      sload(0x04)\n        /* \"contracts/TPMod04/SimpleDexV2_flattened.sol\":8606:8615  amountAIn */\n      dup4\n        /* \"contracts/TPMod04/SimpleDexV2_flattened.sol\":8606:8626  amountAIn * reserveB */\n      tag_177\n      swap2\n      swap1\n      tag_73\n      jump\t// in\n    tag_177:\n        /* \"contracts/TPMod04/SimpleDexV2_flattened.sol\":8605:8652  (amountAIn * reserveB) / (reserveA + amountAIn) */\n      tag_178\n      swap2\n      swap1\n      tag_75\n      jump\t// in\n    tag_178:\n        /* \"contracts/TPMod04/SimpleDexV2_flattened.sol\":8584:8652  uint256 amountBOut = (amountAIn * reserveB) / (reserveA + amountAIn) */\n      swap1\n      pop\n        /* \"contracts/TPMod04/SimpleDexV2_flattened.sol\":8683:8684  0 */\n      0x00\n        /* \"contracts/TPMod04/SimpleDexV2_flattened.sol\":8670:8680  amountBOut */\n      dup2\n        /* \"contracts/TPMod04/SimpleDexV2_flattened.sol\":8670:8684  amountBOut > 0 */\n      gt\n        /* \"contracts/TPMod04/SimpleDexV2_flattened.sol\":8662:8715  require(amountBOut > 0, \"Insufficient output amount\") */\n      tag_179\n      jumpi\n      mload(0x40)\n      0x08c379a000000000000000000000000000000000000000000000000000000000\n      dup2\n      mstore\n      0x04\n      add\n      tag_180\n      swap1\n      tag_102\n      jump\t// in\n    tag_180:\n      mload(0x40)\n      dup1\n      swap2\n      sub\n      swap1\n      revert\n    tag_179:\n        /* \"contracts/TPMod04/SimpleDexV2_flattened.sol\":8809:8815  tokenA */\n      0x01\n      0x00\n      swap1\n      sload\n      swap1\n      0x0100\n      exp\n      swap1\n      div\n      0xffffffffffffffffffffffffffffffffffffffff\n      and\n        /* \"contracts/TPMod04/SimpleDexV2_flattened.sol\":8802:8829  IERC20(tokenA).transferFrom */\n      0xffffffffffffffffffffffffffffffffffffffff\n      and\n      0x23b872dd\n        /* \"contracts/TPMod04/SimpleDexV2_flattened.sol\":8830:8840  msg.sender */\n      caller\n        /* \"contracts/TPMod04/SimpleDexV2_flattened.sol\":8850:8854  this */\n      address\n        /* \"contracts/TPMod04/SimpleDexV2_flattened.sol\":8857:8866  amountAIn */\n      dup6\n        /* \"contracts/TPMod04/SimpleDexV2_flattened.sol\":8802:8867  IERC20(tokenA).transferFrom(msg.sender, address(this), amountAIn) */\n      mload(0x40)\n      dup5\n      0xffffffff\n      and\n      0xe0\n      shl\n      dup2\n      mstore\n      0x04\n      add\n      tag_181\n      swap4\n      swap3\n      swap2\n      swap1\n      tag_104\n      jump\t// in\n    tag_181:\n      0x20\n      mload(0x40)\n      dup1\n      dup4\n      sub\n      dup2\n      0x00\n      dup8\n      gas\n      call\n      iszero\n      dup1\n      iszero\n      tag_183\n      jumpi\n      returndatasize\n      0x00\n      dup1\n      returndatacopy\n      revert(0x00, returndatasize)\n    tag_183:\n      pop\n      pop\n      pop\n      pop\n      mload(0x40)\n      returndatasize\n      not(0x1f)\n      0x1f\n      dup3\n      add\n      and\n      dup3\n      add\n      dup1\n      0x40\n      mstore\n      pop\n      dup2\n      add\n      swap1\n      tag_184\n      swap2\n      swap1\n      tag_108\n      jump\t// in\n    tag_184:\n        /* \"contracts/TPMod04/SimpleDexV2_flattened.sol\":8794:8897  require(IERC20(tokenA).transferFrom(msg.sender, address(this), amountAIn), \"Transfer of TokenA failed\") */\n      tag_185\n      jumpi\n      mload(0x40)\n      0x08c379a000000000000000000000000000000000000000000000000000000000\n      dup2\n      mstore\n      0x04\n      add\n      tag_186\n      swap1\n      tag_119\n      jump\t// in\n    tag_186:\n      mload(0x40)\n      dup1\n      swap2\n      sub\n      swap1\n      revert\n    tag_185:\n        /* \"contracts/TPMod04/SimpleDexV2_flattened.sol\":8922:8928  tokenB */\n      0x02\n      0x00\n      swap1\n      sload\n      swap1\n      0x0100\n      exp\n      swap1\n      div\n      0xffffffffffffffffffffffffffffffffffffffff\n      and\n        /* \"contracts/TPMod04/SimpleDexV2_flattened.sol\":8915:8938  IERC20(tokenB).transfer */\n      0xffffffffffffffffffffffffffffffffffffffff\n      and\n      0xa9059cbb\n        /* \"contracts/TPMod04/SimpleDexV2_flattened.sol\":8939:8949  msg.sender */\n      caller\n        /* \"contracts/TPMod04/SimpleDexV2_flattened.sol\":8951:8961  amountBOut */\n      dup4\n        /* \"contracts/TPMod04/SimpleDexV2_flattened.sol\":8915:8962  IERC20(tokenB).transfer(msg.sender, amountBOut) */\n      mload(0x40)\n      dup4\n      0xffffffff\n      and\n      0xe0\n      shl\n      dup2\n      mstore\n      0x04\n      add\n      tag_187\n      swap3\n      swap2\n      swap1\n      tag_113\n      jump\t// in\n    tag_187:\n      0x20\n      mload(0x40)\n      dup1\n      dup4\n      sub\n      dup2\n      0x00\n      dup8\n      gas\n      call\n      iszero\n      dup1\n      iszero\n      tag_189\n      jumpi\n      returndatasize\n      0x00\n      dup1\n      returndatacopy\n      revert(0x00, returndatasize)\n    tag_189:\n      pop\n      pop\n      pop\n      pop\n      mload(0x40)\n      returndatasize\n      not(0x1f)\n      0x1f\n      dup3\n      add\n      and\n      dup3\n      add\n      dup1\n      0x40\n      mstore\n      pop\n      dup2\n      add\n      swap1\n      tag_190\n      swap2\n      swap1\n      tag_108\n      jump\t// in\n    tag_190:\n        /* \"contracts/TPMod04/SimpleDexV2_flattened.sol\":8907:8992  require(IERC20(tokenB).transfer(msg.sender, amountBOut), \"Transfer of TokenB failed\") */\n      tag_191\n      jumpi\n      mload(0x40)\n      0x08c379a000000000000000000000000000000000000000000000000000000000\n      dup2\n      mstore\n      0x04\n      add\n      tag_192\n      swap1\n      tag_111\n      jump\t// in\n    tag_192:\n      mload(0x40)\n      dup1\n      swap2\n      sub\n      swap1\n      revert\n    tag_191:\n        /* \"contracts/TPMod04/SimpleDexV2_flattened.sol\":9042:9051  amountAIn */\n      dup2\n        /* \"contracts/TPMod04/SimpleDexV2_flattened.sol\":9030:9038  reserveA */\n      0x03\n      0x00\n        /* \"contracts/TPMod04/SimpleDexV2_flattened.sol\":9030:9051  reserveA += amountAIn */\n      dup3\n      dup3\n      sload\n      tag_193\n      swap2\n      swap1\n      tag_97\n      jump\t// in\n    tag_193:\n      swap3\n      pop\n      pop\n      dup2\n      swap1\n      sstore\n      pop\n        /* \"contracts/TPMod04/SimpleDexV2_flattened.sol\":9073:9083  amountBOut */\n      dup1\n        /* \"contracts/TPMod04/SimpleDexV2_flattened.sol\":9061:9069  reserveB */\n      0x04\n      0x00\n        /* \"contracts/TPMod04/SimpleDexV2_flattened.sol\":9061:9083  reserveB -= amountBOut */\n      dup3\n      dup3\n      sload\n      tag_194\n      swap2\n      swap1\n      tag_122\n      jump\t// in\n    tag_194:\n      swap3\n      pop\n      pop\n      dup2\n      swap1\n      sstore\n      pop\n        /* \"contracts/TPMod04/SimpleDexV2_flattened.sol\":9104:9114  msg.sender */\n      caller\n        /* \"contracts/TPMod04/SimpleDexV2_flattened.sol\":9099:9146  Swap(msg.sender, tokenA, amountAIn, amountBOut) */\n      0xffffffffffffffffffffffffffffffffffffffff\n      and\n      0xfa2dda1cc1b86e41239702756b13effbc1a092b5c57e3ad320fbe4f3b13fe235\n        /* \"contracts/TPMod04/SimpleDexV2_flattened.sol\":9116:9122  tokenA */\n      0x01\n      0x00\n      swap1\n      sload\n      swap1\n      0x0100\n      exp\n      swap1\n      div\n      0xffffffffffffffffffffffffffffffffffffffff\n      and\n        /* \"contracts/TPMod04/SimpleDexV2_flattened.sol\":9124:9133  amountAIn */\n      dup5\n        /* \"contracts/TPMod04/SimpleDexV2_flattened.sol\":9135:9145  amountBOut */\n      dup5\n        /* \"contracts/TPMod04/SimpleDexV2_flattened.sol\":9099:9146  Swap(msg.sender, tokenA, amountAIn, amountBOut) */\n      mload(0x40)\n      tag_195\n      swap4\n      swap3\n      swap2\n      swap1\n      tag_124\n      jump\t// in\n    tag_195:\n      mload(0x40)\n      dup1\n      swap2\n      sub\n      swap1\n      log2\n        /* \"contracts/TPMod04/SimpleDexV2_flattened.sol\":8420:9153  {... */\n      pop\n        /* \"contracts/TPMod04/SimpleDexV2_flattened.sol\":8373:9153  function swapAforB(uint256 amountAIn) external {... */\n      pop\n      jump\t// out\n        /* \"contracts/TPMod04/SimpleDexV2_flattened.sol\":3512:3727  function transferOwnership(address newOwner) public virtual onlyOwner {... */\n    tag_66:\n        /* \"contracts/TPMod04/SimpleDexV2_flattened.sol\":2500:2513  _checkOwner() */\n      tag_197\n        /* \"contracts/TPMod04/SimpleDexV2_flattened.sol\":2500:2511  _checkOwner */\n      tag_88\n        /* \"contracts/TPMod04/SimpleDexV2_flattened.sol\":2500:2513  _checkOwner() */\n      jump\t// in\n    tag_197:\n        /* \"contracts/TPMod04/SimpleDexV2_flattened.sol\":3616:3617  0 */\n      0x00\n        /* \"contracts/TPMod04/SimpleDexV2_flattened.sol\":3596:3618  newOwner == address(0) */\n      0xffffffffffffffffffffffffffffffffffffffff\n      and\n        /* \"contracts/TPMod04/SimpleDexV2_flattened.sol\":3596:3604  newOwner */\n      dup2\n        /* \"contracts/TPMod04/SimpleDexV2_flattened.sol\":3596:3618  newOwner == address(0) */\n      0xffffffffffffffffffffffffffffffffffffffff\n      and\n      sub\n        /* \"contracts/TPMod04/SimpleDexV2_flattened.sol\":3592:3683  if (newOwner == address(0)) {... */\n      tag_199\n      jumpi\n        /* \"contracts/TPMod04/SimpleDexV2_flattened.sol\":3669:3670  0 */\n      0x00\n        /* \"contracts/TPMod04/SimpleDexV2_flattened.sol\":3641:3672  OwnableInvalidOwner(address(0)) */\n      mload(0x40)\n      0x1e4fbdf700000000000000000000000000000000000000000000000000000000\n      dup2\n      mstore\n      0x04\n      add\n      tag_200\n      swap2\n      swap1\n      tag_19\n      jump\t// in\n    tag_200:\n      mload(0x40)\n      dup1\n      swap2\n      sub\n      swap1\n      revert\n        /* \"contracts/TPMod04/SimpleDexV2_flattened.sol\":3592:3683  if (newOwner == address(0)) {... */\n    tag_199:\n        /* \"contracts/TPMod04/SimpleDexV2_flattened.sol\":3692:3720  _transferOwnership(newOwner) */\n      tag_201\n        /* \"contracts/TPMod04/SimpleDexV2_flattened.sol\":3711:3719  newOwner */\n      dup2\n        /* \"contracts/TPMod04/SimpleDexV2_flattened.sol\":3692:3710  _transferOwnership */\n      tag_91\n        /* \"contracts/TPMod04/SimpleDexV2_flattened.sol\":3692:3720  _transferOwnership(newOwner) */\n      jump\t// in\n    tag_201:\n        /* \"contracts/TPMod04/SimpleDexV2_flattened.sol\":3512:3727  function transferOwnership(address newOwner) public virtual onlyOwner {... */\n      pop\n      jump\t// out\n        /* \"contracts/TPMod04/SimpleDexV2_flattened.sol\":2765:2927  function _checkOwner() internal view virtual {... */\n    tag_88:\n        /* \"contracts/TPMod04/SimpleDexV2_flattened.sol\":2835:2847  _msgSender() */\n      tag_203\n        /* \"contracts/TPMod04/SimpleDexV2_flattened.sol\":2835:2845  _msgSender */\n      tag_204\n        /* \"contracts/TPMod04/SimpleDexV2_flattened.sol\":2835:2847  _msgSender() */\n      jump\t// in\n    tag_203:\n        /* \"contracts/TPMod04/SimpleDexV2_flattened.sol\":2824:2847  owner() != _msgSender() */\n      0xffffffffffffffffffffffffffffffffffffffff\n      and\n        /* \"contracts/TPMod04/SimpleDexV2_flattened.sol\":2824:2831  owner() */\n      tag_205\n        /* \"contracts/TPMod04/SimpleDexV2_flattened.sol\":2824:2829  owner */\n      tag_45\n        /* \"contracts/TPMod04/SimpleDexV2_flattened.sol\":2824:2831  owner() */\n      jump\t// in\n    tag_205:\n        /* \"contracts/TPMod04/SimpleDexV2_flattened.sol\":2824:2847  owner() != _msgSender() */\n      0xffffffffffffffffffffffffffffffffffffffff\n      and\n      eq\n        /* \"contracts/TPMod04/SimpleDexV2_flattened.sol\":2820:2921  if (owner() != _msgSender()) {... */\n      tag_206\n      jumpi\n        /* \"contracts/TPMod04/SimpleDexV2_flattened.sol\":2897:2909  _msgSender() */\n      tag_207\n        /* \"contracts/TPMod04/SimpleDexV2_flattened.sol\":2897:2907  _msgSender */\n      tag_204\n        /* \"contracts/TPMod04/SimpleDexV2_flattened.sol\":2897:2909  _msgSender() */\n      jump\t// in\n    tag_207:\n        /* \"contracts/TPMod04/SimpleDexV2_flattened.sol\":2870:2910  OwnableUnauthorizedAccount(_msgSender()) */\n      mload(0x40)\n      0x118cdaa700000000000000000000000000000000000000000000000000000000\n      dup2\n      mstore\n      0x04\n      add\n      tag_208\n      swap2\n      swap1\n      tag_19\n      jump\t// in\n    tag_208:\n      mload(0x40)\n      dup1\n      swap2\n      sub\n      swap1\n      revert\n        /* \"contracts/TPMod04/SimpleDexV2_flattened.sol\":2820:2921  if (owner() != _msgSender()) {... */\n    tag_206:\n        /* \"contracts/TPMod04/SimpleDexV2_flattened.sol\":2765:2927  function _checkOwner() internal view virtual {... */\n      jump\t// out\n        /* \"contracts/TPMod04/SimpleDexV2_flattened.sol\":3881:4068  function _transferOwnership(address newOwner) internal virtual {... */\n    tag_91:\n        /* \"contracts/TPMod04/SimpleDexV2_flattened.sol\":3954:3970  address oldOwner */\n      0x00\n        /* \"contracts/TPMod04/SimpleDexV2_flattened.sol\":3973:3979  _owner */\n      dup1\n      0x00\n      swap1\n      sload\n      swap1\n      0x0100\n      exp\n      swap1\n      div\n      0xffffffffffffffffffffffffffffffffffffffff\n      and\n        /* \"contracts/TPMod04/SimpleDexV2_flattened.sol\":3954:3979  address oldOwner = _owner */\n      swap1\n      pop\n        /* \"contracts/TPMod04/SimpleDexV2_flattened.sol\":3998:4006  newOwner */\n      dup2\n        /* \"contracts/TPMod04/SimpleDexV2_flattened.sol\":3989:3995  _owner */\n      0x00\n      dup1\n        /* \"contracts/TPMod04/SimpleDexV2_flattened.sol\":3989:4006  _owner = newOwner */\n      0x0100\n      exp\n      dup2\n      sload\n      dup2\n      0xffffffffffffffffffffffffffffffffffffffff\n      mul\n      not\n      and\n      swap1\n      dup4\n      0xffffffffffffffffffffffffffffffffffffffff\n      and\n      mul\n      or\n      swap1\n      sstore\n      pop\n        /* \"contracts/TPMod04/SimpleDexV2_flattened.sol\":4052:4060  newOwner */\n      dup2\n        /* \"contracts/TPMod04/SimpleDexV2_flattened.sol\":4021:4061  OwnershipTransferred(oldOwner, newOwner) */\n      0xffffffffffffffffffffffffffffffffffffffff\n      and\n        /* \"contracts/TPMod04/SimpleDexV2_flattened.sol\":4042:4050  oldOwner */\n      dup2\n        /* \"contracts/TPMod04/SimpleDexV2_flattened.sol\":4021:4061  OwnershipTransferred(oldOwner, newOwner) */\n      0xffffffffffffffffffffffffffffffffffffffff\n      and\n      0x8be0079c531659141344cd1fd0a4f28419497f9722a3daafe3b4186f6b6457e0\n      mload(0x40)\n      mload(0x40)\n      dup1\n      swap2\n      sub\n      swap1\n      log3\n        /* \"contracts/TPMod04/SimpleDexV2_flattened.sol\":3944:4068  {... */\n      pop\n        /* \"contracts/TPMod04/SimpleDexV2_flattened.sol\":3881:4068  function _transferOwnership(address newOwner) internal virtual {... */\n      pop\n      jump\t// out\n        /* \"contracts/TPMod04/SimpleDexV2_flattened.sol\":709:805  function _msgSender() internal view virtual returns (address) {... */\n    tag_204:\n        /* \"contracts/TPMod04/SimpleDexV2_flattened.sol\":762:769  address */\n      0x00\n        /* \"contracts/TPMod04/SimpleDexV2_flattened.sol\":788:798  msg.sender */\n      caller\n        /* \"contracts/TPMod04/SimpleDexV2_flattened.sol\":781:798  return msg.sender */\n      swap1\n      pop\n        /* \"contracts/TPMod04/SimpleDexV2_flattened.sol\":709:805  function _msgSender() internal view virtual returns (address) {... */\n      swap1\n      jump\t// out\n        /* \"#utility.yul\":7:133   */\n    tag_211:\n        /* \"#utility.yul\":44:51   */\n      0x00\n        /* \"#utility.yul\":84:126   */\n      0xffffffffffffffffffffffffffffffffffffffff\n        /* \"#utility.yul\":77:82   */\n      dup3\n        /* \"#utility.yul\":73:127   */\n      and\n        /* \"#utility.yul\":62:127   */\n      swap1\n      pop\n        /* \"#utility.yul\":7:133   */\n      swap2\n      swap1\n      pop\n      jump\t// out\n        /* \"#utility.yul\":139:235   */\n    tag_212:\n        /* \"#utility.yul\":176:183   */\n      0x00\n        /* \"#utility.yul\":205:229   */\n      tag_252\n        /* \"#utility.yul\":223:228   */\n      dup3\n        /* \"#utility.yul\":205:229   */\n      tag_211\n      jump\t// in\n    tag_252:\n        /* \"#utility.yul\":194:229   */\n      swap1\n      pop\n        /* \"#utility.yul\":139:235   */\n      swap2\n      swap1\n      pop\n      jump\t// out\n        /* \"#utility.yul\":241:359   */\n    tag_213:\n        /* \"#utility.yul\":328:352   */\n      tag_254\n        /* \"#utility.yul\":346:351   */\n      dup2\n        /* \"#utility.yul\":328:352   */\n      tag_212\n      jump\t// in\n    tag_254:\n        /* \"#utility.yul\":323:326   */\n      dup3\n        /* \"#utility.yul\":316:353   */\n      mstore\n        /* \"#utility.yul\":241:359   */\n      pop\n      pop\n      jump\t// out\n        /* \"#utility.yul\":365:587   */\n    tag_19:\n        /* \"#utility.yul\":458:462   */\n      0x00\n        /* \"#utility.yul\":496:498   */\n      0x20\n        /* \"#utility.yul\":485:494   */\n      dup3\n        /* \"#utility.yul\":481:499   */\n      add\n        /* \"#utility.yul\":473:499   */\n      swap1\n      pop\n        /* \"#utility.yul\":509:580   */\n      tag_256\n        /* \"#utility.yul\":577:578   */\n      0x00\n        /* \"#utility.yul\":566:575   */\n      dup4\n        /* \"#utility.yul\":562:579   */\n      add\n        /* \"#utility.yul\":553:559   */\n      dup5\n        /* \"#utility.yul\":509:580   */\n      tag_213\n      jump\t// in\n    tag_256:\n        /* \"#utility.yul\":365:587   */\n      swap3\n      swap2\n      pop\n      pop\n      jump\t// out\n        /* \"#utility.yul\":593:670   */\n    tag_214:\n        /* \"#utility.yul\":630:637   */\n      0x00\n        /* \"#utility.yul\":659:664   */\n      dup2\n        /* \"#utility.yul\":648:664   */\n      swap1\n      pop\n        /* \"#utility.yul\":593:670   */\n      swap2\n      swap1\n      pop\n      jump\t// out\n        /* \"#utility.yul\":676:794   */\n    tag_215:\n        /* \"#utility.yul\":763:787   */\n      tag_259\n        /* \"#utility.yul\":781:786   */\n      dup2\n        /* \"#utility.yul\":763:787   */\n      tag_214\n      jump\t// in\n    tag_259:\n        /* \"#utility.yul\":758:761   */\n      dup3\n        /* \"#utility.yul\":751:788   */\n      mstore\n        /* \"#utility.yul\":676:794   */\n      pop\n      pop\n      jump\t// out\n        /* \"#utility.yul\":800:1022   */\n    tag_24:\n        /* \"#utility.yul\":893:897   */\n      0x00\n        /* \"#utility.yul\":931:933   */\n      0x20\n        /* \"#utility.yul\":920:929   */\n      dup3\n        /* \"#utility.yul\":916:934   */\n      add\n        /* \"#utility.yul\":908:934   */\n      swap1\n      pop\n        /* \"#utility.yul\":944:1015   */\n      tag_261\n        /* \"#utility.yul\":1012:1013   */\n      0x00\n        /* \"#utility.yul\":1001:1010   */\n      dup4\n        /* \"#utility.yul\":997:1014   */\n      add\n        /* \"#utility.yul\":988:994   */\n      dup5\n        /* \"#utility.yul\":944:1015   */\n      tag_215\n      jump\t// in\n    tag_261:\n        /* \"#utility.yul\":800:1022   */\n      swap3\n      swap2\n      pop\n      pop\n      jump\t// out\n        /* \"#utility.yul\":1109:1226   */\n    tag_217:\n        /* \"#utility.yul\":1218:1219   */\n      0x00\n        /* \"#utility.yul\":1215:1216   */\n      dup1\n        /* \"#utility.yul\":1208:1220   */\n      revert\n        /* \"#utility.yul\":1355:1477   */\n    tag_219:\n        /* \"#utility.yul\":1428:1452   */\n      tag_266\n        /* \"#utility.yul\":1446:1451   */\n      dup2\n        /* \"#utility.yul\":1428:1452   */\n      tag_212\n      jump\t// in\n    tag_266:\n        /* \"#utility.yul\":1421:1426   */\n      dup2\n        /* \"#utility.yul\":1418:1453   */\n      eq\n        /* \"#utility.yul\":1408:1471   */\n      tag_267\n      jumpi\n        /* \"#utility.yul\":1467:1468   */\n      0x00\n        /* \"#utility.yul\":1464:1465   */\n      dup1\n        /* \"#utility.yul\":1457:1469   */\n      revert\n        /* \"#utility.yul\":1408:1471   */\n    tag_267:\n        /* \"#utility.yul\":1355:1477   */\n      pop\n      jump\t// out\n        /* \"#utility.yul\":1483:1622   */\n    tag_220:\n        /* \"#utility.yul\":1529:1534   */\n      0x00\n        /* \"#utility.yul\":1567:1573   */\n      dup2\n        /* \"#utility.yul\":1554:1574   */\n      calldataload\n        /* \"#utility.yul\":1545:1574   */\n      swap1\n      pop\n        /* \"#utility.yul\":1583:1616   */\n      tag_269\n        /* \"#utility.yul\":1610:1615   */\n      dup2\n        /* \"#utility.yul\":1583:1616   */\n      tag_219\n      jump\t// in\n    tag_269:\n        /* \"#utility.yul\":1483:1622   */\n      swap3\n      swap2\n      pop\n      pop\n      jump\t// out\n        /* \"#utility.yul\":1628:1957   */\n    tag_28:\n        /* \"#utility.yul\":1687:1693   */\n      0x00\n        /* \"#utility.yul\":1736:1738   */\n      0x20\n        /* \"#utility.yul\":1724:1733   */\n      dup3\n        /* \"#utility.yul\":1715:1722   */\n      dup5\n        /* \"#utility.yul\":1711:1734   */\n      sub\n        /* \"#utility.yul\":1707:1739   */\n      slt\n        /* \"#utility.yul\":1704:1823   */\n      iszero\n      tag_271\n      jumpi\n        /* \"#utility.yul\":1742:1821   */\n      tag_272\n      tag_217\n      jump\t// in\n    tag_272:\n        /* \"#utility.yul\":1704:1823   */\n    tag_271:\n        /* \"#utility.yul\":1862:1863   */\n      0x00\n        /* \"#utility.yul\":1887:1940   */\n      tag_273\n        /* \"#utility.yul\":1932:1939   */\n      dup5\n        /* \"#utility.yul\":1923:1929   */\n      dup3\n        /* \"#utility.yul\":1912:1921   */\n      dup6\n        /* \"#utility.yul\":1908:1930   */\n      add\n        /* \"#utility.yul\":1887:1940   */\n      tag_220\n      jump\t// in\n    tag_273:\n        /* \"#utility.yul\":1877:1940   */\n      swap2\n      pop\n        /* \"#utility.yul\":1833:1950   */\n      pop\n        /* \"#utility.yul\":1628:1957   */\n      swap3\n      swap2\n      pop\n      pop\n      jump\t// out\n        /* \"#utility.yul\":1963:2085   */\n    tag_221:\n        /* \"#utility.yul\":2036:2060   */\n      tag_275\n        /* \"#utility.yul\":2054:2059   */\n      dup2\n        /* \"#utility.yul\":2036:2060   */\n      tag_214\n      jump\t// in\n    tag_275:\n        /* \"#utility.yul\":2029:2034   */\n      dup2\n        /* \"#utility.yul\":2026:2061   */\n      eq\n        /* \"#utility.yul\":2016:2079   */\n      tag_276\n      jumpi\n        /* \"#utility.yul\":2075:2076   */\n      0x00\n        /* \"#utility.yul\":2072:2073   */\n      dup1\n        /* \"#utility.yul\":2065:2077   */\n      revert\n        /* \"#utility.yul\":2016:2079   */\n    tag_276:\n        /* \"#utility.yul\":1963:2085   */\n      pop\n      jump\t// out\n        /* \"#utility.yul\":2091:2230   */\n    tag_222:\n        /* \"#utility.yul\":2137:2142   */\n      0x00\n        /* \"#utility.yul\":2175:2181   */\n      dup2\n        /* \"#utility.yul\":2162:2182   */\n      calldataload\n        /* \"#utility.yul\":2153:2182   */\n      swap1\n      pop\n        /* \"#utility.yul\":2191:2224   */\n      tag_278\n        /* \"#utility.yul\":2218:2223   */\n      dup2\n        /* \"#utility.yul\":2191:2224   */\n      tag_221\n      jump\t// in\n    tag_278:\n        /* \"#utility.yul\":2091:2230   */\n      swap3\n      swap2\n      pop\n      pop\n      jump\t// out\n        /* \"#utility.yul\":2236:2565   */\n    tag_41:\n        /* \"#utility.yul\":2295:2301   */\n      0x00\n        /* \"#utility.yul\":2344:2346   */\n      0x20\n        /* \"#utility.yul\":2332:2341   */\n      dup3\n        /* \"#utility.yul\":2323:2330   */\n      dup5\n        /* \"#utility.yul\":2319:2342   */\n      sub\n        /* \"#utility.yul\":2315:2347   */\n      slt\n        /* \"#utility.yul\":2312:2431   */\n      iszero\n      tag_280\n      jumpi\n        /* \"#utility.yul\":2350:2429   */\n      tag_281\n      tag_217\n      jump\t// in\n    tag_281:\n        /* \"#utility.yul\":2312:2431   */\n    tag_280:\n        /* \"#utility.yul\":2470:2471   */\n      0x00\n        /* \"#utility.yul\":2495:2548   */\n      tag_282\n        /* \"#utility.yul\":2540:2547   */\n      dup5\n        /* \"#utility.yul\":2531:2537   */\n      dup3\n        /* \"#utility.yul\":2520:2529   */\n      dup6\n        /* \"#utility.yul\":2516:2538   */\n      add\n        /* \"#utility.yul\":2495:2548   */\n      tag_222\n      jump\t// in\n    tag_282:\n        /* \"#utility.yul\":2485:2548   */\n      swap2\n      pop\n        /* \"#utility.yul\":2441:2558   */\n      pop\n        /* \"#utility.yul\":2236:2565   */\n      swap3\n      swap2\n      pop\n      pop\n      jump\t// out\n        /* \"#utility.yul\":2571:3045   */\n    tag_49:\n        /* \"#utility.yul\":2639:2645   */\n      0x00\n        /* \"#utility.yul\":2647:2653   */\n      dup1\n        /* \"#utility.yul\":2696:2698   */\n      0x40\n        /* \"#utility.yul\":2684:2693   */\n      dup4\n        /* \"#utility.yul\":2675:2682   */\n      dup6\n        /* \"#utility.yul\":2671:2694   */\n      sub\n        /* \"#utility.yul\":2667:2699   */\n      slt\n        /* \"#utility.yul\":2664:2783   */\n      iszero\n      tag_284\n      jumpi\n        /* \"#utility.yul\":2702:2781   */\n      tag_285\n      tag_217\n      jump\t// in\n    tag_285:\n        /* \"#utility.yul\":2664:2783   */\n    tag_284:\n        /* \"#utility.yul\":2822:2823   */\n      0x00\n        /* \"#utility.yul\":2847:2900   */\n      tag_286\n        /* \"#utility.yul\":2892:2899   */\n      dup6\n        /* \"#utility.yul\":2883:2889   */\n      dup3\n        /* \"#utility.yul\":2872:2881   */\n      dup7\n        /* \"#utility.yul\":2868:2890   */\n      add\n        /* \"#utility.yul\":2847:2900   */\n      tag_222\n      jump\t// in\n    tag_286:\n        /* \"#utility.yul\":2837:2900   */\n      swap3\n      pop\n        /* \"#utility.yul\":2793:2910   */\n      pop\n        /* \"#utility.yul\":2949:2951   */\n      0x20\n        /* \"#utility.yul\":2975:3028   */\n      tag_287\n        /* \"#utility.yul\":3020:3027   */\n      dup6\n        /* \"#utility.yul\":3011:3017   */\n      dup3\n        /* \"#utility.yul\":3000:3009   */\n      dup7\n        /* \"#utility.yul\":2996:3018   */\n      add\n        /* \"#utility.yul\":2975:3028   */\n      tag_222\n      jump\t// in\n    tag_287:\n        /* \"#utility.yul\":2965:3028   */\n      swap2\n      pop\n        /* \"#utility.yul\":2920:3038   */\n      pop\n        /* \"#utility.yul\":2571:3045   */\n      swap3\n      pop\n      swap3\n      swap1\n      pop\n      jump\t// out\n        /* \"#utility.yul\":3051:3220   */\n    tag_223:\n        /* \"#utility.yul\":3135:3146   */\n      0x00\n        /* \"#utility.yul\":3169:3175   */\n      dup3\n        /* \"#utility.yul\":3164:3167   */\n      dup3\n        /* \"#utility.yul\":3157:3176   */\n      mstore\n        /* \"#utility.yul\":3209:3213   */\n      0x20\n        /* \"#utility.yul\":3204:3207   */\n      dup3\n        /* \"#utility.yul\":3200:3214   */\n      add\n        /* \"#utility.yul\":3185:3214   */\n      swap1\n      pop\n        /* \"#utility.yul\":3051:3220   */\n      swap3\n      swap2\n      pop\n      pop\n      jump\t// out\n        /* \"#utility.yul\":3226:3399   */\n    tag_224:\n        /* \"#utility.yul\":3366:3391   */\n      0x4e6f206c697175696469747920666f7220546f6b656e42000000000000000000\n        /* \"#utility.yul\":3362:3363   */\n      0x00\n        /* \"#utility.yul\":3354:3360   */\n      dup3\n        /* \"#utility.yul\":3350:3364   */\n      add\n        /* \"#utility.yul\":3343:3392   */\n      mstore\n        /* \"#utility.yul\":3226:3399   */\n      pop\n      jump\t// out\n        /* \"#utility.yul\":3405:3771   */\n    tag_225:\n        /* \"#utility.yul\":3547:3550   */\n      0x00\n        /* \"#utility.yul\":3568:3635   */\n      tag_291\n        /* \"#utility.yul\":3632:3634   */\n      0x17\n        /* \"#utility.yul\":3627:3630   */\n      dup4\n        /* \"#utility.yul\":3568:3635   */\n      tag_223\n      jump\t// in\n    tag_291:\n        /* \"#utility.yul\":3561:3635   */\n      swap2\n      pop\n        /* \"#utility.yul\":3644:3737   */\n      tag_292\n        /* \"#utility.yul\":3733:3736   */\n      dup3\n        /* \"#utility.yul\":3644:3737   */\n      tag_224\n      jump\t// in\n    tag_292:\n        /* \"#utility.yul\":3762:3764   */\n      0x20\n        /* \"#utility.yul\":3757:3760   */\n      dup3\n        /* \"#utility.yul\":3753:3765   */\n      add\n        /* \"#utility.yul\":3746:3765   */\n      swap1\n      pop\n        /* \"#utility.yul\":3405:3771   */\n      swap2\n      swap1\n      pop\n      jump\t// out\n        /* \"#utility.yul\":3777:4196   */\n    tag_71:\n        /* \"#utility.yul\":3943:3947   */\n      0x00\n        /* \"#utility.yul\":3981:3983   */\n      0x20\n        /* \"#utility.yul\":3970:3979   */\n      dup3\n        /* \"#utility.yul\":3966:3984   */\n      add\n        /* \"#utility.yul\":3958:3984   */\n      swap1\n      pop\n        /* \"#utility.yul\":4030:4039   */\n      dup2\n        /* \"#utility.yul\":4024:4028   */\n      dup2\n        /* \"#utility.yul\":4020:4040   */\n      sub\n        /* \"#utility.yul\":4016:4017   */\n      0x00\n        /* \"#utility.yul\":4005:4014   */\n      dup4\n        /* \"#utility.yul\":4001:4018   */\n      add\n        /* \"#utility.yul\":3994:4041   */\n      mstore\n        /* \"#utility.yul\":4058:4189   */\n      tag_294\n        /* \"#utility.yul\":4184:4188   */\n      dup2\n        /* \"#utility.yul\":4058:4189   */\n      tag_225\n      jump\t// in\n    tag_294:\n        /* \"#utility.yul\":4050:4189   */\n      swap1\n      pop\n        /* \"#utility.yul\":3777:4196   */\n      swap2\n      swap1\n      pop\n      jump\t// out\n        /* \"#utility.yul\":4202:4382   */\n    tag_226:\n        /* \"#utility.yul\":4250:4327   */\n      0x4e487b7100000000000000000000000000000000000000000000000000000000\n        /* \"#utility.yul\":4247:4248   */\n      0x00\n        /* \"#utility.yul\":4240:4328   */\n      mstore\n        /* \"#utility.yul\":4347:4351   */\n      0x11\n        /* \"#utility.yul\":4344:4345   */\n      0x04\n        /* \"#utility.yul\":4337:4352   */\n      mstore\n        /* \"#utility.yul\":4371:4375   */\n      0x24\n        /* \"#utility.yul\":4368:4369   */\n      0x00\n        /* \"#utility.yul\":4361:4376   */\n      revert\n        /* \"#utility.yul\":4388:4798   */\n    tag_73:\n        /* \"#utility.yul\":4428:4435   */\n      0x00\n        /* \"#utility.yul\":4451:4471   */\n      tag_297\n        /* \"#utility.yul\":4469:4470   */\n      dup3\n        /* \"#utility.yul\":4451:4471   */\n      tag_214\n      jump\t// in\n    tag_297:\n        /* \"#utility.yul\":4446:4471   */\n      swap2\n      pop\n        /* \"#utility.yul\":4485:4505   */\n      tag_298\n        /* \"#utility.yul\":4503:4504   */\n      dup4\n        /* \"#utility.yul\":4485:4505   */\n      tag_214\n      jump\t// in\n    tag_298:\n        /* \"#utility.yul\":4480:4505   */\n      swap3\n      pop\n        /* \"#utility.yul\":4540:4541   */\n      dup3\n        /* \"#utility.yul\":4537:4538   */\n      dup3\n        /* \"#utility.yul\":4533:4542   */\n      mul\n        /* \"#utility.yul\":4562:4592   */\n      tag_299\n        /* \"#utility.yul\":4580:4591   */\n      dup2\n        /* \"#utility.yul\":4562:4592   */\n      tag_214\n      jump\t// in\n    tag_299:\n        /* \"#utility.yul\":4551:4592   */\n      swap2\n      pop\n        /* \"#utility.yul\":4741:4742   */\n      dup3\n        /* \"#utility.yul\":4732:4739   */\n      dup3\n        /* \"#utility.yul\":4728:4743   */\n      div\n        /* \"#utility.yul\":4725:4726   */\n      dup5\n        /* \"#utility.yul\":4722:4744   */\n      eq\n        /* \"#utility.yul\":4702:4703   */\n      dup4\n        /* \"#utility.yul\":4695:4704   */\n      iszero\n        /* \"#utility.yul\":4675:4758   */\n      or\n        /* \"#utility.yul\":4652:4791   */\n      tag_300\n      jumpi\n        /* \"#utility.yul\":4771:4789   */\n      tag_301\n      tag_226\n      jump\t// in\n    tag_301:\n        /* \"#utility.yul\":4652:4791   */\n    tag_300:\n        /* \"#utility.yul\":4436:4798   */\n      pop\n        /* \"#utility.yul\":4388:4798   */\n      swap3\n      swap2\n      pop\n      pop\n      jump\t// out\n        /* \"#utility.yul\":4804:4984   */\n    tag_227:\n        /* \"#utility.yul\":4852:4929   */\n      0x4e487b7100000000000000000000000000000000000000000000000000000000\n        /* \"#utility.yul\":4849:4850   */\n      0x00\n        /* \"#utility.yul\":4842:4930   */\n      mstore\n        /* \"#utility.yul\":4949:4953   */\n      0x12\n        /* \"#utility.yul\":4946:4947   */\n      0x04\n        /* \"#utility.yul\":4939:4954   */\n      mstore\n        /* \"#utility.yul\":4973:4977   */\n      0x24\n        /* \"#utility.yul\":4970:4971   */\n      0x00\n        /* \"#utility.yul\":4963:4978   */\n      revert\n        /* \"#utility.yul\":4990:5175   */\n    tag_75:\n        /* \"#utility.yul\":5030:5031   */\n      0x00\n        /* \"#utility.yul\":5047:5067   */\n      tag_304\n        /* \"#utility.yul\":5065:5066   */\n      dup3\n        /* \"#utility.yul\":5047:5067   */\n      tag_214\n      jump\t// in\n    tag_304:\n        /* \"#utility.yul\":5042:5067   */\n      swap2\n      pop\n        /* \"#utility.yul\":5081:5101   */\n      tag_305\n        /* \"#utility.yul\":5099:5100   */\n      dup4\n        /* \"#utility.yul\":5081:5101   */\n      tag_214\n      jump\t// in\n    tag_305:\n        /* \"#utility.yul\":5076:5101   */\n      swap3\n      pop\n        /* \"#utility.yul\":5120:5121   */\n      dup3\n        /* \"#utility.yul\":5110:5145   */\n      tag_306\n      jumpi\n        /* \"#utility.yul\":5125:5143   */\n      tag_307\n      tag_227\n      jump\t// in\n    tag_307:\n        /* \"#utility.yul\":5110:5145   */\n    tag_306:\n        /* \"#utility.yul\":5167:5168   */\n      dup3\n        /* \"#utility.yul\":5164:5165   */\n      dup3\n        /* \"#utility.yul\":5160:5169   */\n      div\n        /* \"#utility.yul\":5155:5169   */\n      swap1\n      pop\n        /* \"#utility.yul\":4990:5175   */\n      swap3\n      swap2\n      pop\n      pop\n      jump\t// out\n        /* \"#utility.yul\":5181:5354   */\n    tag_228:\n        /* \"#utility.yul\":5321:5346   */\n      0x4e6f206c697175696469747920666f7220546f6b656e41000000000000000000\n        /* \"#utility.yul\":5317:5318   */\n      0x00\n        /* \"#utility.yul\":5309:5315   */\n      dup3\n        /* \"#utility.yul\":5305:5319   */\n      add\n        /* \"#utility.yul\":5298:5347   */\n      mstore\n        /* \"#utility.yul\":5181:5354   */\n      pop\n      jump\t// out\n        /* \"#utility.yul\":5360:5726   */\n    tag_229:\n        /* \"#utility.yul\":5502:5505   */\n      0x00\n        /* \"#utility.yul\":5523:5590   */\n      tag_310\n        /* \"#utility.yul\":5587:5589   */\n      0x17\n        /* \"#utility.yul\":5582:5585   */\n      dup4\n        /* \"#utility.yul\":5523:5590   */\n      tag_223\n      jump\t// in\n    tag_310:\n        /* \"#utility.yul\":5516:5590   */\n      swap2\n      pop\n        /* \"#utility.yul\":5599:5692   */\n      tag_311\n        /* \"#utility.yul\":5688:5691   */\n      dup3\n        /* \"#utility.yul\":5599:5692   */\n      tag_228\n      jump\t// in\n    tag_311:\n        /* \"#utility.yul\":5717:5719   */\n      0x20\n        /* \"#utility.yul\":5712:5715   */\n      dup3\n        /* \"#utility.yul\":5708:5720   */\n      add\n        /* \"#utility.yul\":5701:5720   */\n      swap1\n      pop\n        /* \"#utility.yul\":5360:5726   */\n      swap2\n      swap1\n      pop\n      jump\t// out\n        /* \"#utility.yul\":5732:6151   */\n    tag_80:\n        /* \"#utility.yul\":5898:5902   */\n      0x00\n        /* \"#utility.yul\":5936:5938   */\n      0x20\n        /* \"#utility.yul\":5925:5934   */\n      dup3\n        /* \"#utility.yul\":5921:5939   */\n      add\n        /* \"#utility.yul\":5913:5939   */\n      swap1\n      pop\n        /* \"#utility.yul\":5985:5994   */\n      dup2\n        /* \"#utility.yul\":5979:5983   */\n      dup2\n        /* \"#utility.yul\":5975:5995   */\n      sub\n        /* \"#utility.yul\":5971:5972   */\n      0x00\n        /* \"#utility.yul\":5960:5969   */\n      dup4\n        /* \"#utility.yul\":5956:5973   */\n      add\n        /* \"#utility.yul\":5949:5996   */\n      mstore\n        /* \"#utility.yul\":6013:6144   */\n      tag_313\n        /* \"#utility.yul\":6139:6143   */\n      dup2\n        /* \"#utility.yul\":6013:6144   */\n      tag_229\n      jump\t// in\n    tag_313:\n        /* \"#utility.yul\":6005:6144   */\n      swap1\n      pop\n        /* \"#utility.yul\":5732:6151   */\n      swap2\n      swap1\n      pop\n      jump\t// out\n        /* \"#utility.yul\":6157:6326   */\n    tag_230:\n        /* \"#utility.yul\":6297:6318   */\n      0x546f6b656e206e6f7420737570706f7274656400000000000000000000000000\n        /* \"#utility.yul\":6293:6294   */\n      0x00\n        /* \"#utility.yul\":6285:6291   */\n      dup3\n        /* \"#utility.yul\":6281:6295   */\n      add\n        /* \"#utility.yul\":6274:6319   */\n      mstore\n        /* \"#utility.yul\":6157:6326   */\n      pop\n      jump\t// out\n        /* \"#utility.yul\":6332:6698   */\n    tag_231:\n        /* \"#utility.yul\":6474:6477   */\n      0x00\n        /* \"#utility.yul\":6495:6562   */\n      tag_316\n        /* \"#utility.yul\":6559:6561   */\n      0x13\n        /* \"#utility.yul\":6554:6557   */\n      dup4\n        /* \"#utility.yul\":6495:6562   */\n      tag_223\n      jump\t// in\n    tag_316:\n        /* \"#utility.yul\":6488:6562   */\n      swap2\n      pop\n        /* \"#utility.yul\":6571:6664   */\n      tag_317\n        /* \"#utility.yul\":6660:6663   */\n      dup3\n        /* \"#utility.yul\":6571:6664   */\n      tag_230\n      jump\t// in\n    tag_317:\n        /* \"#utility.yul\":6689:6691   */\n      0x20\n        /* \"#utility.yul\":6684:6687   */\n      dup3\n        /* \"#utility.yul\":6680:6692   */\n      add\n        /* \"#utility.yul\":6673:6692   */\n      swap1\n      pop\n        /* \"#utility.yul\":6332:6698   */\n      swap2\n      swap1\n      pop\n      jump\t// out\n        /* \"#utility.yul\":6704:7123   */\n    tag_85:\n        /* \"#utility.yul\":6870:6874   */\n      0x00\n        /* \"#utility.yul\":6908:6910   */\n      0x20\n        /* \"#utility.yul\":6897:6906   */\n      dup3\n        /* \"#utility.yul\":6893:6911   */\n      add\n        /* \"#utility.yul\":6885:6911   */\n      swap1\n      pop\n        /* \"#utility.yul\":6957:6966   */\n      dup2\n        /* \"#utility.yul\":6951:6955   */\n      dup2\n        /* \"#utility.yul\":6947:6967   */\n      sub\n        /* \"#utility.yul\":6943:6944   */\n      0x00\n        /* \"#utility.yul\":6932:6941   */\n      dup4\n        /* \"#utility.yul\":6928:6945   */\n      add\n        /* \"#utility.yul\":6921:6968   */\n      mstore\n        /* \"#utility.yul\":6985:7116   */\n      tag_319\n        /* \"#utility.yul\":7111:7115   */\n      dup2\n        /* \"#utility.yul\":6985:7116   */\n      tag_231\n      jump\t// in\n    tag_319:\n        /* \"#utility.yul\":6977:7116   */\n      swap1\n      pop\n        /* \"#utility.yul\":6704:7123   */\n      swap2\n      swap1\n      pop\n      jump\t// out\n        /* \"#utility.yul\":7129:7311   */\n    tag_232:\n        /* \"#utility.yul\":7269:7303   */\n      0x416d6f756e74206d7573742062652067726561746572207468616e207a65726f\n        /* \"#utility.yul\":7265:7266   */\n      0x00\n        /* \"#utility.yul\":7257:7263   */\n      dup3\n        /* \"#utility.yul\":7253:7267   */\n      add\n        /* \"#utility.yul\":7246:7304   */\n      mstore\n        /* \"#utility.yul\":7129:7311   */\n      pop\n      jump\t// out\n        /* \"#utility.yul\":7317:7683   */\n    tag_233:\n        /* \"#utility.yul\":7459:7462   */\n      0x00\n        /* \"#utility.yul\":7480:7547   */\n      tag_322\n        /* \"#utility.yul\":7544:7546   */\n      0x20\n        /* \"#utility.yul\":7539:7542   */\n      dup4\n        /* \"#utility.yul\":7480:7547   */\n      tag_223\n      jump\t// in\n    tag_322:\n        /* \"#utility.yul\":7473:7547   */\n      swap2\n      pop\n        /* \"#utility.yul\":7556:7649   */\n      tag_323\n        /* \"#utility.yul\":7645:7648   */\n      dup3\n        /* \"#utility.yul\":7556:7649   */\n      tag_232\n      jump\t// in\n    tag_323:\n        /* \"#utility.yul\":7674:7676   */\n      0x20\n        /* \"#utility.yul\":7669:7672   */\n      dup3\n        /* \"#utility.yul\":7665:7677   */\n      add\n        /* \"#utility.yul\":7658:7677   */\n      swap1\n      pop\n        /* \"#utility.yul\":7317:7683   */\n      swap2\n      swap1\n      pop\n      jump\t// out\n        /* \"#utility.yul\":7689:8108   */\n    tag_95:\n        /* \"#utility.yul\":7855:7859   */\n      0x00\n        /* \"#utility.yul\":7893:7895   */\n      0x20\n        /* \"#utility.yul\":7882:7891   */\n      dup3\n        /* \"#utility.yul\":7878:7896   */\n      add\n        /* \"#utility.yul\":7870:7896   */\n      swap1\n      pop\n        /* \"#utility.yul\":7942:7951   */\n      dup2\n        /* \"#utility.yul\":7936:7940   */\n      dup2\n        /* \"#utility.yul\":7932:7952   */\n      sub\n        /* \"#utility.yul\":7928:7929   */\n      0x00\n        /* \"#utility.yul\":7917:7926   */\n      dup4\n        /* \"#utility.yul\":7913:7930   */\n      add\n        /* \"#utility.yul\":7906:7953   */\n      mstore\n        /* \"#utility.yul\":7970:8101   */\n      tag_325\n        /* \"#utility.yul\":8096:8100   */\n      dup2\n        /* \"#utility.yul\":7970:8101   */\n      tag_233\n      jump\t// in\n    tag_325:\n        /* \"#utility.yul\":7962:8101   */\n      swap1\n      pop\n        /* \"#utility.yul\":7689:8108   */\n      swap2\n      swap1\n      pop\n      jump\t// out\n        /* \"#utility.yul\":8114:8305   */\n    tag_97:\n        /* \"#utility.yul\":8154:8157   */\n      0x00\n        /* \"#utility.yul\":8173:8193   */\n      tag_327\n        /* \"#utility.yul\":8191:8192   */\n      dup3\n        /* \"#utility.yul\":8173:8193   */\n      tag_214\n      jump\t// in\n    tag_327:\n        /* \"#utility.yul\":8168:8193   */\n      swap2\n      pop\n        /* \"#utility.yul\":8207:8227   */\n      tag_328\n        /* \"#utility.yul\":8225:8226   */\n      dup4\n        /* \"#utility.yul\":8207:8227   */\n      tag_214\n      jump\t// in\n    tag_328:\n        /* \"#utility.yul\":8202:8227   */\n      swap3\n      pop\n        /* \"#utility.yul\":8250:8251   */\n      dup3\n        /* \"#utility.yul\":8247:8248   */\n      dup3\n        /* \"#utility.yul\":8243:8252   */\n      add\n        /* \"#utility.yul\":8236:8252   */\n      swap1\n      pop\n        /* \"#utility.yul\":8271:8274   */\n      dup1\n        /* \"#utility.yul\":8268:8269   */\n      dup3\n        /* \"#utility.yul\":8265:8275   */\n      gt\n        /* \"#utility.yul\":8262:8298   */\n      iszero\n      tag_329\n      jumpi\n        /* \"#utility.yul\":8278:8296   */\n      tag_330\n      tag_226\n      jump\t// in\n    tag_330:\n        /* \"#utility.yul\":8262:8298   */\n    tag_329:\n        /* \"#utility.yul\":8114:8305   */\n      swap3\n      swap2\n      pop\n      pop\n      jump\t// out\n        /* \"#utility.yul\":8311:8487   */\n    tag_234:\n        /* \"#utility.yul\":8451:8479   */\n      0x496e73756666696369656e74206f757470757420616d6f756e74000000000000\n        /* \"#utility.yul\":8447:8448   */\n      0x00\n        /* \"#utility.yul\":8439:8445   */\n      dup3\n        /* \"#utility.yul\":8435:8449   */\n      add\n        /* \"#utility.yul\":8428:8480   */\n      mstore\n        /* \"#utility.yul\":8311:8487   */\n      pop\n      jump\t// out\n        /* \"#utility.yul\":8493:8859   */\n    tag_235:\n        /* \"#utility.yul\":8635:8638   */\n      0x00\n        /* \"#utility.yul\":8656:8723   */\n      tag_333\n        /* \"#utility.yul\":8720:8722   */\n      0x1a\n        /* \"#utility.yul\":8715:8718   */\n      dup4\n        /* \"#utility.yul\":8656:8723   */\n      tag_223\n      jump\t// in\n    tag_333:\n        /* \"#utility.yul\":8649:8723   */\n      swap2\n      pop\n        /* \"#utility.yul\":8732:8825   */\n      tag_334\n        /* \"#utility.yul\":8821:8824   */\n      dup3\n        /* \"#utility.yul\":8732:8825   */\n      tag_234\n      jump\t// in\n    tag_334:\n        /* \"#utility.yul\":8850:8852   */\n      0x20\n        /* \"#utility.yul\":8845:8848   */\n      dup3\n        /* \"#utility.yul\":8841:8853   */\n      add\n        /* \"#utility.yul\":8834:8853   */\n      swap1\n      pop\n        /* \"#utility.yul\":8493:8859   */\n      swap2\n      swap1\n      pop\n      jump\t// out\n        /* \"#utility.yul\":8865:9284   */\n    tag_102:\n        /* \"#utility.yul\":9031:9035   */\n      0x00\n        /* \"#utility.yul\":9069:9071   */\n      0x20\n        /* \"#utility.yul\":9058:9067   */\n      dup3\n        /* \"#utility.yul\":9054:9072   */\n      add\n        /* \"#utility.yul\":9046:9072   */\n      swap1\n      pop\n        /* \"#utility.yul\":9118:9127   */\n      dup2\n        /* \"#utility.yul\":9112:9116   */\n      dup2\n        /* \"#utility.yul\":9108:9128   */\n      sub\n        /* \"#utility.yul\":9104:9105   */\n      0x00\n        /* \"#utility.yul\":9093:9102   */\n      dup4\n        /* \"#utility.yul\":9089:9106   */\n      add\n        /* \"#utility.yul\":9082:9129   */\n      mstore\n        /* \"#utility.yul\":9146:9277   */\n      tag_336\n        /* \"#utility.yul\":9272:9276   */\n      dup2\n        /* \"#utility.yul\":9146:9277   */\n      tag_235\n      jump\t// in\n    tag_336:\n        /* \"#utility.yul\":9138:9277   */\n      swap1\n      pop\n        /* \"#utility.yul\":8865:9284   */\n      swap2\n      swap1\n      pop\n      jump\t// out\n        /* \"#utility.yul\":9290:9732   */\n    tag_104:\n        /* \"#utility.yul\":9439:9443   */\n      0x00\n        /* \"#utility.yul\":9477:9479   */\n      0x60\n        /* \"#utility.yul\":9466:9475   */\n      dup3\n        /* \"#utility.yul\":9462:9480   */\n      add\n        /* \"#utility.yul\":9454:9480   */\n      swap1\n      pop\n        /* \"#utility.yul\":9490:9561   */\n      tag_338\n        /* \"#utility.yul\":9558:9559   */\n      0x00\n        /* \"#utility.yul\":9547:9556   */\n      dup4\n        /* \"#utility.yul\":9543:9560   */\n      add\n        /* \"#utility.yul\":9534:9540   */\n      dup7\n        /* \"#utility.yul\":9490:9561   */\n      tag_213\n      jump\t// in\n    tag_338:\n        /* \"#utility.yul\":9571:9643   */\n      tag_339\n        /* \"#utility.yul\":9639:9641   */\n      0x20\n        /* \"#utility.yul\":9628:9637   */\n      dup4\n        /* \"#utility.yul\":9624:9642   */\n      add\n        /* \"#utility.yul\":9615:9621   */\n      dup6\n        /* \"#utility.yul\":9571:9643   */\n      tag_213\n      jump\t// in\n    tag_339:\n        /* \"#utility.yul\":9653:9725   */\n      tag_340\n        /* \"#utility.yul\":9721:9723   */\n      0x40\n        /* \"#utility.yul\":9710:9719   */\n      dup4\n        /* \"#utility.yul\":9706:9724   */\n      add\n        /* \"#utility.yul\":9697:9703   */\n      dup5\n        /* \"#utility.yul\":9653:9725   */\n      tag_215\n      jump\t// in\n    tag_340:\n        /* \"#utility.yul\":9290:9732   */\n      swap5\n      swap4\n      pop\n      pop\n      pop\n      pop\n      jump\t// out\n        /* \"#utility.yul\":9738:9828   */\n    tag_236:\n        /* \"#utility.yul\":9772:9779   */\n      0x00\n        /* \"#utility.yul\":9815:9820   */\n      dup2\n        /* \"#utility.yul\":9808:9821   */\n      iszero\n        /* \"#utility.yul\":9801:9822   */\n      iszero\n        /* \"#utility.yul\":9790:9822   */\n      swap1\n      pop\n        /* \"#utility.yul\":9738:9828   */\n      swap2\n      swap1\n      pop\n      jump\t// out\n        /* \"#utility.yul\":9834:9950   */\n    tag_237:\n        /* \"#utility.yul\":9904:9925   */\n      tag_343\n        /* \"#utility.yul\":9919:9924   */\n      dup2\n        /* \"#utility.yul\":9904:9925   */\n      tag_236\n      jump\t// in\n    tag_343:\n        /* \"#utility.yul\":9897:9902   */\n      dup2\n        /* \"#utility.yul\":9894:9926   */\n      eq\n        /* \"#utility.yul\":9884:9944   */\n      tag_344\n      jumpi\n        /* \"#utility.yul\":9940:9941   */\n      0x00\n        /* \"#utility.yul\":9937:9938   */\n      dup1\n        /* \"#utility.yul\":9930:9942   */\n      revert\n        /* \"#utility.yul\":9884:9944   */\n    tag_344:\n        /* \"#utility.yul\":9834:9950   */\n      pop\n      jump\t// out\n        /* \"#utility.yul\":9956:10093   */\n    tag_238:\n        /* \"#utility.yul\":10010:10015   */\n      0x00\n        /* \"#utility.yul\":10041:10047   */\n      dup2\n        /* \"#utility.yul\":10035:10048   */\n      mload\n        /* \"#utility.yul\":10026:10048   */\n      swap1\n      pop\n        /* \"#utility.yul\":10057:10087   */\n      tag_346\n        /* \"#utility.yul\":10081:10086   */\n      dup2\n        /* \"#utility.yul\":10057:10087   */\n      tag_237\n      jump\t// in\n    tag_346:\n        /* \"#utility.yul\":9956:10093   */\n      swap3\n      swap2\n      pop\n      pop\n      jump\t// out\n        /* \"#utility.yul\":10099:10444   */\n    tag_108:\n        /* \"#utility.yul\":10166:10172   */\n      0x00\n        /* \"#utility.yul\":10215:10217   */\n      0x20\n        /* \"#utility.yul\":10203:10212   */\n      dup3\n        /* \"#utility.yul\":10194:10201   */\n      dup5\n        /* \"#utility.yul\":10190:10213   */\n      sub\n        /* \"#utility.yul\":10186:10218   */\n      slt\n        /* \"#utility.yul\":10183:10302   */\n      iszero\n      tag_348\n      jumpi\n        /* \"#utility.yul\":10221:10300   */\n      tag_349\n      tag_217\n      jump\t// in\n    tag_349:\n        /* \"#utility.yul\":10183:10302   */\n    tag_348:\n        /* \"#utility.yul\":10341:10342   */\n      0x00\n        /* \"#utility.yul\":10366:10427   */\n      tag_350\n        /* \"#utility.yul\":10419:10426   */\n      dup5\n        /* \"#utility.yul\":10410:10416   */\n      dup3\n        /* \"#utility.yul\":10399:10408   */\n      dup6\n        /* \"#utility.yul\":10395:10417   */\n      add\n        /* \"#utility.yul\":10366:10427   */\n      tag_238\n      jump\t// in\n    tag_350:\n        /* \"#utility.yul\":10356:10427   */\n      swap2\n      pop\n        /* \"#utility.yul\":10312:10437   */\n      pop\n        /* \"#utility.yul\":10099:10444   */\n      swap3\n      swap2\n      pop\n      pop\n      jump\t// out\n        /* \"#utility.yul\":10450:10625   */\n    tag_239:\n        /* \"#utility.yul\":10590:10617   */\n      0x5472616e73666572206f6620546f6b656e42206661696c656400000000000000\n        /* \"#utility.yul\":10586:10587   */\n      0x00\n        /* \"#utility.yul\":10578:10584   */\n      dup3\n        /* \"#utility.yul\":10574:10588   */\n      add\n        /* \"#utility.yul\":10567:10618   */\n      mstore\n        /* \"#utility.yul\":10450:10625   */\n      pop\n      jump\t// out\n        /* \"#utility.yul\":10631:10997   */\n    tag_240:\n        /* \"#utility.yul\":10773:10776   */\n      0x00\n        /* \"#utility.yul\":10794:10861   */\n      tag_353\n        /* \"#utility.yul\":10858:10860   */\n      0x19\n        /* \"#utility.yul\":10853:10856   */\n      dup4\n        /* \"#utility.yul\":10794:10861   */\n      tag_223\n      jump\t// in\n    tag_353:\n        /* \"#utility.yul\":10787:10861   */\n      swap2\n      pop\n        /* \"#utility.yul\":10870:10963   */\n      tag_354\n        /* \"#utility.yul\":10959:10962   */\n      dup3\n        /* \"#utility.yul\":10870:10963   */\n      tag_239\n      jump\t// in\n    tag_354:\n        /* \"#utility.yul\":10988:10990   */\n      0x20\n        /* \"#utility.yul\":10983:10986   */\n      dup3\n        /* \"#utility.yul\":10979:10991   */\n      add\n        /* \"#utility.yul\":10972:10991   */\n      swap1\n      pop\n        /* \"#utility.yul\":10631:10997   */\n      swap2\n      swap1\n      pop\n      jump\t// out\n        /* \"#utility.yul\":11003:11422   */\n    tag_111:\n        /* \"#utility.yul\":11169:11173   */\n      0x00\n        /* \"#utility.yul\":11207:11209   */\n      0x20\n        /* \"#utility.yul\":11196:11205   */\n      dup3\n        /* \"#utility.yul\":11192:11210   */\n      add\n        /* \"#utility.yul\":11184:11210   */\n      swap1\n      pop\n        /* \"#utility.yul\":11256:11265   */\n      dup2\n        /* \"#utility.yul\":11250:11254   */\n      dup2\n        /* \"#utility.yul\":11246:11266   */\n      sub\n        /* \"#utility.yul\":11242:11243   */\n      0x00\n        /* \"#utility.yul\":11231:11240   */\n      dup4\n        /* \"#utility.yul\":11227:11244   */\n      add\n        /* \"#utility.yul\":11220:11267   */\n      mstore\n        /* \"#utility.yul\":11284:11415   */\n      tag_356\n        /* \"#utility.yul\":11410:11414   */\n      dup2\n        /* \"#utility.yul\":11284:11415   */\n      tag_240\n      jump\t// in\n    tag_356:\n        /* \"#utility.yul\":11276:11415   */\n      swap1\n      pop\n        /* \"#utility.yul\":11003:11422   */\n      swap2\n      swap1\n      pop\n      jump\t// out\n        /* \"#utility.yul\":11428:11760   */\n    tag_113:\n        /* \"#utility.yul\":11549:11553   */\n      0x00\n        /* \"#utility.yul\":11587:11589   */\n      0x40\n        /* \"#utility.yul\":11576:11585   */\n      dup3\n        /* \"#utility.yul\":11572:11590   */\n      add\n        /* \"#utility.yul\":11564:11590   */\n      swap1\n      pop\n        /* \"#utility.yul\":11600:11671   */\n      tag_358\n        /* \"#utility.yul\":11668:11669   */\n      0x00\n        /* \"#utility.yul\":11657:11666   */\n      dup4\n        /* \"#utility.yul\":11653:11670   */\n      add\n        /* \"#utility.yul\":11644:11650   */\n      dup6\n        /* \"#utility.yul\":11600:11671   */\n      tag_213\n      jump\t// in\n    tag_358:\n        /* \"#utility.yul\":11681:11753   */\n      tag_359\n        /* \"#utility.yul\":11749:11751   */\n      0x20\n        /* \"#utility.yul\":11738:11747   */\n      dup4\n        /* \"#utility.yul\":11734:11752   */\n      add\n        /* \"#utility.yul\":11725:11731   */\n      dup5\n        /* \"#utility.yul\":11681:11753   */\n      tag_215\n      jump\t// in\n    tag_359:\n        /* \"#utility.yul\":11428:11760   */\n      swap4\n      swap3\n      pop\n      pop\n      pop\n      jump\t// out\n        /* \"#utility.yul\":11766:11941   */\n    tag_241:\n        /* \"#utility.yul\":11906:11933   */\n      0x5472616e73666572206f6620546f6b656e41206661696c656400000000000000\n        /* \"#utility.yul\":11902:11903   */\n      0x00\n        /* \"#utility.yul\":11894:11900   */\n      dup3\n        /* \"#utility.yul\":11890:11904   */\n      add\n        /* \"#utility.yul\":11883:11934   */\n      mstore\n        /* \"#utility.yul\":11766:11941   */\n      pop\n      jump\t// out\n        /* \"#utility.yul\":11947:12313   */\n    tag_242:\n        /* \"#utility.yul\":12089:12092   */\n      0x00\n        /* \"#utility.yul\":12110:12177   */\n      tag_362\n        /* \"#utility.yul\":12174:12176   */\n      0x19\n        /* \"#utility.yul\":12169:12172   */\n      dup4\n        /* \"#utility.yul\":12110:12177   */\n      tag_223\n      jump\t// in\n    tag_362:\n        /* \"#utility.yul\":12103:12177   */\n      swap2\n      pop\n        /* \"#utility.yul\":12186:12279   */\n      tag_363\n        /* \"#utility.yul\":12275:12278   */\n      dup3\n        /* \"#utility.yul\":12186:12279   */\n      tag_241\n      jump\t// in\n    tag_363:\n        /* \"#utility.yul\":12304:12306   */\n      0x20\n        /* \"#utility.yul\":12299:12302   */\n      dup3\n        /* \"#utility.yul\":12295:12307   */\n      add\n        /* \"#utility.yul\":12288:12307   */\n      swap1\n      pop\n        /* \"#utility.yul\":11947:12313   */\n      swap2\n      swap1\n      pop\n      jump\t// out\n        /* \"#utility.yul\":12319:12738   */\n    tag_119:\n        /* \"#utility.yul\":12485:12489   */\n      0x00\n        /* \"#utility.yul\":12523:12525   */\n      0x20\n        /* \"#utility.yul\":12512:12521   */\n      dup3\n        /* \"#utility.yul\":12508:12526   */\n      add\n        /* \"#utility.yul\":12500:12526   */\n      swap1\n      pop\n        /* \"#utility.yul\":12572:12581   */\n      dup2\n        /* \"#utility.yul\":12566:12570   */\n      dup2\n        /* \"#utility.yul\":12562:12582   */\n      sub\n        /* \"#utility.yul\":12558:12559   */\n      0x00\n        /* \"#utility.yul\":12547:12556   */\n      dup4\n        /* \"#utility.yul\":12543:12560   */\n      add\n        /* \"#utility.yul\":12536:12583   */\n      mstore\n        /* \"#utility.yul\":12600:12731   */\n      tag_365\n        /* \"#utility.yul\":12726:12730   */\n      dup2\n        /* \"#utility.yul\":12600:12731   */\n      tag_242\n      jump\t// in\n    tag_365:\n        /* \"#utility.yul\":12592:12731   */\n      swap1\n      pop\n        /* \"#utility.yul\":12319:12738   */\n      swap2\n      swap1\n      pop\n      jump\t// out\n        /* \"#utility.yul\":12744:12938   */\n    tag_122:\n        /* \"#utility.yul\":12784:12788   */\n      0x00\n        /* \"#utility.yul\":12804:12824   */\n      tag_367\n        /* \"#utility.yul\":12822:12823   */\n      dup3\n        /* \"#utility.yul\":12804:12824   */\n      tag_214\n      jump\t// in\n    tag_367:\n        /* \"#utility.yul\":12799:12824   */\n      swap2\n      pop\n        /* \"#utility.yul\":12838:12858   */\n      tag_368\n        /* \"#utility.yul\":12856:12857   */\n      dup4\n        /* \"#utility.yul\":12838:12858   */\n      tag_214\n      jump\t// in\n    tag_368:\n        /* \"#utility.yul\":12833:12858   */\n      swap3\n      pop\n        /* \"#utility.yul\":12882:12883   */\n      dup3\n        /* \"#utility.yul\":12879:12880   */\n      dup3\n        /* \"#utility.yul\":12875:12884   */\n      sub\n        /* \"#utility.yul\":12867:12884   */\n      swap1\n      pop\n        /* \"#utility.yul\":12906:12907   */\n      dup2\n        /* \"#utility.yul\":12900:12904   */\n      dup2\n        /* \"#utility.yul\":12897:12908   */\n      gt\n        /* \"#utility.yul\":12894:12931   */\n      iszero\n      tag_369\n      jumpi\n        /* \"#utility.yul\":12911:12929   */\n      tag_370\n      tag_226\n      jump\t// in\n    tag_370:\n        /* \"#utility.yul\":12894:12931   */\n    tag_369:\n        /* \"#utility.yul\":12744:12938   */\n      swap3\n      swap2\n      pop\n      pop\n      jump\t// out\n        /* \"#utility.yul\":12944:13386   */\n    tag_124:\n        /* \"#utility.yul\":13093:13097   */\n      0x00\n        /* \"#utility.yul\":13131:13133   */\n      0x60\n        /* \"#utility.yul\":13120:13129   */\n      dup3\n        /* \"#utility.yul\":13116:13134   */\n      add\n        /* \"#utility.yul\":13108:13134   */\n      swap1\n      pop\n        /* \"#utility.yul\":13144:13215   */\n      tag_372\n        /* \"#utility.yul\":13212:13213   */\n      0x00\n        /* \"#utility.yul\":13201:13210   */\n      dup4\n        /* \"#utility.yul\":13197:13214   */\n      add\n        /* \"#utility.yul\":13188:13194   */\n      dup7\n        /* \"#utility.yul\":13144:13215   */\n      tag_213\n      jump\t// in\n    tag_372:\n        /* \"#utility.yul\":13225:13297   */\n      tag_373\n        /* \"#utility.yul\":13293:13295   */\n      0x20\n        /* \"#utility.yul\":13282:13291   */\n      dup4\n        /* \"#utility.yul\":13278:13296   */\n      add\n        /* \"#utility.yul\":13269:13275   */\n      dup6\n        /* \"#utility.yul\":13225:13297   */\n      tag_215\n      jump\t// in\n    tag_373:\n        /* \"#utility.yul\":13307:13379   */\n      tag_374\n        /* \"#utility.yul\":13375:13377   */\n      0x40\n        /* \"#utility.yul\":13364:13373   */\n      dup4\n        /* \"#utility.yul\":13360:13378   */\n      add\n        /* \"#utility.yul\":13351:13357   */\n      dup5\n        /* \"#utility.yul\":13307:13379   */\n      tag_215\n      jump\t// in\n    tag_374:\n        /* \"#utility.yul\":12944:13386   */\n      swap5\n      swap4\n      pop\n      pop\n      pop\n      pop\n      jump\t// out\n        /* \"#utility.yul\":13392:13612   */\n    tag_243:\n        /* \"#utility.yul\":13532:13566   */\n      0x416d6f756e7473206d7573742062652067726561746572207468616e207a6572\n        /* \"#utility.yul\":13528:13529   */\n      0x00\n        /* \"#utility.yul\":13520:13526   */\n      dup3\n        /* \"#utility.yul\":13516:13530   */\n      add\n        /* \"#utility.yul\":13509:13567   */\n      mstore\n        /* \"#utility.yul\":13601:13604   */\n      0x6f00000000000000000000000000000000000000000000000000000000000000\n        /* \"#utility.yul\":13596:13598   */\n      0x20\n        /* \"#utility.yul\":13588:13594   */\n      dup3\n        /* \"#utility.yul\":13584:13599   */\n      add\n        /* \"#utility.yul\":13577:13605   */\n      mstore\n        /* \"#utility.yul\":13392:13612   */\n      pop\n      jump\t// out\n        /* \"#utility.yul\":13618:13984   */\n    tag_244:\n        /* \"#utility.yul\":13760:13763   */\n      0x00\n        /* \"#utility.yul\":13781:13848   */\n      tag_377\n        /* \"#utility.yul\":13845:13847   */\n      0x21\n        /* \"#utility.yul\":13840:13843   */\n      dup4\n        /* \"#utility.yul\":13781:13848   */\n      tag_223\n      jump\t// in\n    tag_377:\n        /* \"#utility.yul\":13774:13848   */\n      swap2\n      pop\n        /* \"#utility.yul\":13857:13950   */\n      tag_378\n        /* \"#utility.yul\":13946:13949   */\n      dup3\n        /* \"#utility.yul\":13857:13950   */\n      tag_243\n      jump\t// in\n    tag_378:\n        /* \"#utility.yul\":13975:13977   */\n      0x40\n        /* \"#utility.yul\":13970:13973   */\n      dup3\n        /* \"#utility.yul\":13966:13978   */\n      add\n        /* \"#utility.yul\":13959:13978   */\n      swap1\n      pop\n        /* \"#utility.yul\":13618:13984   */\n      swap2\n      swap1\n      pop\n      jump\t// out\n        /* \"#utility.yul\":13990:14409   */\n    tag_132:\n        /* \"#utility.yul\":14156:14160   */\n      0x00\n        /* \"#utility.yul\":14194:14196   */\n      0x20\n        /* \"#utility.yul\":14183:14192   */\n      dup3\n        /* \"#utility.yul\":14179:14197   */\n      add\n        /* \"#utility.yul\":14171:14197   */\n      swap1\n      pop\n        /* \"#utility.yul\":14243:14252   */\n      dup2\n        /* \"#utility.yul\":14237:14241   */\n      dup2\n        /* \"#utility.yul\":14233:14253   */\n      sub\n        /* \"#utility.yul\":14229:14230   */\n      0x00\n        /* \"#utility.yul\":14218:14227   */\n      dup4\n        /* \"#utility.yul\":14214:14231   */\n      add\n        /* \"#utility.yul\":14207:14254   */\n      mstore\n        /* \"#utility.yul\":14271:14402   */\n      tag_380\n        /* \"#utility.yul\":14397:14401   */\n      dup2\n        /* \"#utility.yul\":14271:14402   */\n      tag_244\n      jump\t// in\n    tag_380:\n        /* \"#utility.yul\":14263:14402   */\n      swap1\n      pop\n        /* \"#utility.yul\":13990:14409   */\n      swap2\n      swap1\n      pop\n      jump\t// out\n        /* \"#utility.yul\":14415:14747   */\n    tag_148:\n        /* \"#utility.yul\":14536:14540   */\n      0x00\n        /* \"#utility.yul\":14574:14576   */\n      0x40\n        /* \"#utility.yul\":14563:14572   */\n      dup3\n        /* \"#utility.yul\":14559:14577   */\n      add\n        /* \"#utility.yul\":14551:14577   */\n      swap1\n      pop\n        /* \"#utility.yul\":14587:14658   */\n      tag_382\n        /* \"#utility.yul\":14655:14656   */\n      0x00\n        /* \"#utility.yul\":14644:14653   */\n      dup4\n        /* \"#utility.yul\":14640:14657   */\n      add\n        /* \"#utility.yul\":14631:14637   */\n      dup6\n        /* \"#utility.yul\":14587:14658   */\n      tag_215\n      jump\t// in\n    tag_382:\n        /* \"#utility.yul\":14668:14740   */\n      tag_383\n        /* \"#utility.yul\":14736:14738   */\n      0x20\n        /* \"#utility.yul\":14725:14734   */\n      dup4\n        /* \"#utility.yul\":14721:14739   */\n      add\n        /* \"#utility.yul\":14712:14718   */\n      dup5\n        /* \"#utility.yul\":14668:14740   */\n      tag_215\n      jump\t// in\n    tag_383:\n        /* \"#utility.yul\":14415:14747   */\n      swap4\n      swap3\n      pop\n      pop\n      pop\n      jump\t// out\n        /* \"#utility.yul\":14753:14930   */\n    tag_245:\n        /* \"#utility.yul\":14893:14922   */\n      0x496e73756666696369656e7420546f6b656e4120726573657276650000000000\n        /* \"#utility.yul\":14889:14890   */\n      0x00\n        /* \"#utility.yul\":14881:14887   */\n      dup3\n        /* \"#utility.yul\":14877:14891   */\n      add\n        /* \"#utility.yul\":14870:14923   */\n      mstore\n        /* \"#utility.yul\":14753:14930   */\n      pop\n      jump\t// out\n        /* \"#utility.yul\":14936:15302   */\n    tag_246:\n        /* \"#utility.yul\":15078:15081   */\n      0x00\n        /* \"#utility.yul\":15099:15166   */\n      tag_386\n        /* \"#utility.yul\":15163:15165   */\n      0x1b\n        /* \"#utility.yul\":15158:15161   */\n      dup4\n        /* \"#utility.yul\":15099:15166   */\n      tag_223\n      jump\t// in\n    tag_386:\n        /* \"#utility.yul\":15092:15166   */\n      swap2\n      pop\n        /* \"#utility.yul\":15175:15268   */\n      tag_387\n        /* \"#utility.yul\":15264:15267   */\n      dup3\n        /* \"#utility.yul\":15175:15268   */\n      tag_245\n      jump\t// in\n    tag_387:\n        /* \"#utility.yul\":15293:15295   */\n      0x20\n        /* \"#utility.yul\":15288:15291   */\n      dup3\n        /* \"#utility.yul\":15284:15296   */\n      add\n        /* \"#utility.yul\":15277:15296   */\n      swap1\n      pop\n        /* \"#utility.yul\":14936:15302   */\n      swap2\n      swap1\n      pop\n      jump\t// out\n        /* \"#utility.yul\":15308:15727   */\n    tag_154:\n        /* \"#utility.yul\":15474:15478   */\n      0x00\n        /* \"#utility.yul\":15512:15514   */\n      0x20\n        /* \"#utility.yul\":15501:15510   */\n      dup3\n        /* \"#utility.yul\":15497:15515   */\n      add\n        /* \"#utility.yul\":15489:15515   */\n      swap1\n      pop\n        /* \"#utility.yul\":15561:15570   */\n      dup2\n        /* \"#utility.yul\":15555:15559   */\n      dup2\n        /* \"#utility.yul\":15551:15571   */\n      sub\n        /* \"#utility.yul\":15547:15548   */\n      0x00\n        /* \"#utility.yul\":15536:15545   */\n      dup4\n        /* \"#utility.yul\":15532:15549   */\n      add\n        /* \"#utility.yul\":15525:15572   */\n      mstore\n        /* \"#utility.yul\":15589:15720   */\n      tag_389\n        /* \"#utility.yul\":15715:15719   */\n      dup2\n        /* \"#utility.yul\":15589:15720   */\n      tag_246\n      jump\t// in\n    tag_389:\n        /* \"#utility.yul\":15581:15720   */\n      swap1\n      pop\n        /* \"#utility.yul\":15308:15727   */\n      swap2\n      swap1\n      pop\n      jump\t// out\n        /* \"#utility.yul\":15733:15910   */\n    tag_247:\n        /* \"#utility.yul\":15873:15902   */\n      0x496e73756666696369656e7420546f6b656e4220726573657276650000000000\n        /* \"#utility.yul\":15869:15870   */\n      0x00\n        /* \"#utility.yul\":15861:15867   */\n      dup3\n        /* \"#utility.yul\":15857:15871   */\n      add\n        /* \"#utility.yul\":15850:15903   */\n      mstore\n        /* \"#utility.yul\":15733:15910   */\n      pop\n      jump\t// out\n        /* \"#utility.yul\":15916:16282   */\n    tag_248:\n        /* \"#utility.yul\":16058:16061   */\n      0x00\n        /* \"#utility.yul\":16079:16146   */\n      tag_392\n        /* \"#utility.yul\":16143:16145   */\n      0x1b\n        /* \"#utility.yul\":16138:16141   */\n      dup4\n        /* \"#utility.yul\":16079:16146   */\n      tag_223\n      jump\t// in\n    tag_392:\n        /* \"#utility.yul\":16072:16146   */\n      swap2\n      pop\n        /* \"#utility.yul\":16155:16248   */\n      tag_393\n        /* \"#utility.yul\":16244:16247   */\n      dup3\n        /* \"#utility.yul\":16155:16248   */\n      tag_247\n      jump\t// in\n    tag_393:\n        /* \"#utility.yul\":16273:16275   */\n      0x20\n        /* \"#utility.yul\":16268:16271   */\n      dup3\n        /* \"#utility.yul\":16264:16276   */\n      add\n        /* \"#utility.yul\":16257:16276   */\n      swap1\n      pop\n        /* \"#utility.yul\":15916:16282   */\n      swap2\n      swap1\n      pop\n      jump\t// out\n        /* \"#utility.yul\":16288:16707   */\n    tag_157:\n        /* \"#utility.yul\":16454:16458   */\n      0x00\n        /* \"#utility.yul\":16492:16494   */\n      0x20\n        /* \"#utility.yul\":16481:16490   */\n      dup3\n        /* \"#utility.yul\":16477:16495   */\n      add\n        /* \"#utility.yul\":16469:16495   */\n      swap1\n      pop\n        /* \"#utility.yul\":16541:16550   */\n      dup2\n        /* \"#utility.yul\":16535:16539   */\n      dup2\n        /* \"#utility.yul\":16531:16551   */\n      sub\n        /* \"#utility.yul\":16527:16528   */\n      0x00\n        /* \"#utility.yul\":16516:16525   */\n      dup4\n        /* \"#utility.yul\":16512:16529   */\n      add\n        /* \"#utility.yul\":16505:16552   */\n      mstore\n        /* \"#utility.yul\":16569:16700   */\n      tag_395\n        /* \"#utility.yul\":16695:16699   */\n      dup2\n        /* \"#utility.yul\":16569:16700   */\n      tag_248\n      jump\t// in\n    tag_395:\n        /* \"#utility.yul\":16561:16700   */\n      swap1\n      pop\n        /* \"#utility.yul\":16288:16707   */\n      swap2\n      swap1\n      pop\n      jump\t// out\n\n    auxdata: 0xa2646970667358221220e0f0ad8d70e92f582338335786a7f62e14c9b2d421a24ad90ce2147a1da1800464736f6c63430008140033\n}\n",
				"bytecode": {
					"linkReferences": {},
					"object": "608060405234801562000010575f80fd5b5060405162001d6238038062001d6283398181016040528101906200003691906200026b565b825f73ffffffffffffffffffffffffffffffffffffffff168173ffffffffffffffffffffffffffffffffffffffff1603620000aa575f6040517f1e4fbdf7000000000000000000000000000000000000000000000000000000008152600401620000a19190620002d5565b60405180910390fd5b620000bb816200014560201b60201c565b508160015f6101000a81548173ffffffffffffffffffffffffffffffffffffffff021916908373ffffffffffffffffffffffffffffffffffffffff1602179055508060025f6101000a81548173ffffffffffffffffffffffffffffffffffffffff021916908373ffffffffffffffffffffffffffffffffffffffff160217905550505050620002f0565b5f805f9054906101000a900473ffffffffffffffffffffffffffffffffffffffff169050815f806101000a81548173ffffffffffffffffffffffffffffffffffffffff021916908373ffffffffffffffffffffffffffffffffffffffff1602179055508173ffffffffffffffffffffffffffffffffffffffff168173ffffffffffffffffffffffffffffffffffffffff167f8be0079c531659141344cd1fd0a4f28419497f9722a3daafe3b4186f6b6457e060405160405180910390a35050565b5f80fd5b5f73ffffffffffffffffffffffffffffffffffffffff82169050919050565b5f62000235826200020a565b9050919050565b620002478162000229565b811462000252575f80fd5b50565b5f8151905062000265816200023c565b92915050565b5f805f6060848603121562000285576200028462000206565b5b5f620002948682870162000255565b9350506020620002a78682870162000255565b9250506040620002ba8682870162000255565b9150509250925092565b620002cf8162000229565b82525050565b5f602082019050620002ea5f830184620002c4565b92915050565b611a6480620002fe5f395ff3fe6080604052600436106100a6575f3560e01c80638da5cb5b116100635780638da5cb5b146101a25780639cd441da146101cc5780639d7de6b3146101e8578063dc5fa6c514610210578063e4f1f70a1461023a578063f2fde38b14610262576100a6565b80630fc63d10146100aa57806319e36f3b146100d457806341976e09146100fe5780635f64b55b1461013a578063715018a6146101645780638014a7aa1461017a575b5f80fd5b3480156100b5575f80fd5b506100be61028a565b6040516100cb9190611269565b60405180910390f35b3480156100df575f80fd5b506100e86102af565b6040516100f5919061129a565b60405180910390f35b348015610109575f80fd5b50610124600480360381019061011f91906112e1565b6102b5565b604051610131919061129a565b60405180910390f35b348015610145575f80fd5b5061014e61047b565b60405161015b9190611269565b60405180910390f35b34801561016f575f80fd5b506101786104a0565b005b348015610185575f80fd5b506101a0600480360381019061019b9190611336565b6104b3565b005b3480156101ad575f80fd5b506101b66107bf565b6040516101c39190611269565b60405180910390f35b6101e660048036038101906101e19190611361565b6107e6565b005b3480156101f3575f80fd5b5061020e60048036038101906102099190611361565b610a79565b005b34801561021b575f80fd5b50610224610d45565b604051610231919061129a565b60405180910390f35b348015610245575f80fd5b50610260600480360381019061025b9190611336565b610d4b565b005b34801561026d575f80fd5b50610288600480360381019061028391906112e1565b611057565b005b60015f9054906101000a900473ffffffffffffffffffffffffffffffffffffffff1681565b60045481565b5f60015f9054906101000a900473ffffffffffffffffffffffffffffffffffffffff1673ffffffffffffffffffffffffffffffffffffffff168273ffffffffffffffffffffffffffffffffffffffff1603610378575f6004541161034e576040517f08c379a0000000000000000000000000000000000000000000000000000000008152600401610345906113f9565b60405180910390fd5b600454670de0b6b3a76400006003546103679190611444565b61037191906114b2565b9050610476565b60025f9054906101000a900473ffffffffffffffffffffffffffffffffffffffff1673ffffffffffffffffffffffffffffffffffffffff168273ffffffffffffffffffffffffffffffffffffffff160361043a575f60035411610410576040517f08c379a00000000000000000000000000000000000000000000000000000000081526004016104079061152c565b60405180910390fd5b600354670de0b6b3a76400006004546104299190611444565b61043391906114b2565b9050610475565b6040517f08c379a000000000000000000000000000000000000000000000000000000000815260040161046c90611594565b60405180910390fd5b5b919050565b60025f9054906101000a900473ffffffffffffffffffffffffffffffffffffffff1681565b6104a86110db565b6104b15f611162565b565b5f81116104f5576040517f08c379a00000000000000000000000000000000000000000000000000000000081526004016104ec906115fc565b60405180910390fd5b5f81600454610504919061161a565b600354836105129190611444565b61051c91906114b2565b90505f8111610560576040517f08c379a000000000000000000000000000000000000000000000000000000000815260040161055790611697565b60405180910390fd5b60025f9054906101000a900473ffffffffffffffffffffffffffffffffffffffff1673ffffffffffffffffffffffffffffffffffffffff166323b872dd3330856040518463ffffffff1660e01b81526004016105be939291906116b5565b6020604051808303815f875af11580156105da573d5f803e3d5ffd5b505050506040513d601f19601f820116820180604052508101906105fe919061171f565b61063d576040517f08c379a000000000000000000000000000000000000000000000000000000000815260040161063490611794565b60405180910390fd5b60015f9054906101000a900473ffffffffffffffffffffffffffffffffffffffff1673ffffffffffffffffffffffffffffffffffffffff1663a9059cbb33836040518363ffffffff1660e01b81526004016106999291906117b2565b6020604051808303815f875af11580156106b5573d5f803e3d5ffd5b505050506040513d601f19601f820116820180604052508101906106d9919061171f565b610718576040517f08c379a000000000000000000000000000000000000000000000000000000000815260040161070f90611823565b60405180910390fd5b8160045f828254610729919061161a565b925050819055508060035f8282546107419190611841565b925050819055503373ffffffffffffffffffffffffffffffffffffffff167ffa2dda1cc1b86e41239702756b13effbc1a092b5c57e3ad320fbe4f3b13fe23560025f9054906101000a900473ffffffffffffffffffffffffffffffffffffffff1684846040516107b393929190611874565b60405180910390a25050565b5f805f9054906101000a900473ffffffffffffffffffffffffffffffffffffffff16905090565b6107ee6110db565b5f821180156107fc57505f81115b61083b576040517f08c379a000000000000000000000000000000000000000000000000000000000815260040161083290611919565b60405180910390fd5b60015f9054906101000a900473ffffffffffffffffffffffffffffffffffffffff1673ffffffffffffffffffffffffffffffffffffffff166323b872dd3330856040518463ffffffff1660e01b8152600401610899939291906116b5565b6020604051808303815f875af11580156108b5573d5f803e3d5ffd5b505050506040513d601f19601f820116820180604052508101906108d9919061171f565b610918576040517f08c379a000000000000000000000000000000000000000000000000000000000815260040161090f90611823565b60405180910390fd5b60025f9054906101000a900473ffffffffffffffffffffffffffffffffffffffff1673ffffffffffffffffffffffffffffffffffffffff166323b872dd3330846040518463ffffffff1660e01b8152600401610976939291906116b5565b6020604051808303815f875af1158015610992573d5f803e3d5ffd5b505050506040513d601f19601f820116820180604052508101906109b6919061171f565b6109f5576040517f08c379a00000000000000000000000000000000000000000000000000000000081526004016109ec90611794565b60405180910390fd5b8160035f828254610a06919061161a565b925050819055508060045f828254610a1e919061161a565b925050819055503373ffffffffffffffffffffffffffffffffffffffff167fac1d76749e5447b7b16f5ab61447e1bd502f3bb4807af3b28e620d1700a6ee458383604051610a6d929190611937565b60405180910390a25050565b610a816110db565b600354821115610ac6576040517f08c379a0000000000000000000000000000000000000000000000000000000008152600401610abd906119a8565b60405180910390fd5b600454811115610b0b576040517f08c379a0000000000000000000000000000000000000000000000000000000008152600401610b0290611a10565b60405180910390fd5b8160035f828254610b1c9190611841565b925050819055508060045f828254610b349190611841565b9250508190555060015f9054906101000a900473ffffffffffffffffffffffffffffffffffffffff1673ffffffffffffffffffffffffffffffffffffffff1663a9059cbb33846040518363ffffffff1660e01b8152600401610b979291906117b2565b6020604051808303815f875af1158015610bb3573d5f803e3d5ffd5b505050506040513d601f19601f82011682018060405250810190610bd7919061171f565b610c16576040517f08c379a0000000000000000000000000000000000000000000000000000000008152600401610c0d90611823565b60405180910390fd5b60025f9054906101000a900473ffffffffffffffffffffffffffffffffffffffff1673ffffffffffffffffffffffffffffffffffffffff1663a9059cbb33836040518363ffffffff1660e01b8152600401610c729291906117b2565b6020604051808303815f875af1158015610c8e573d5f803e3d5ffd5b505050506040513d601f19601f82011682018060405250810190610cb2919061171f565b610cf1576040517f08c379a0000000000000000000000000000000000000000000000000000000008152600401610ce890611794565b60405180910390fd5b3373ffffffffffffffffffffffffffffffffffffffff167f96cd817c6329656790ef8fba7675405193677d39619571282f5e21f3a98cd0598383604051610d39929190611937565b60405180910390a25050565b60035481565b5f8111610d8d576040517f08c379a0000000000000000000000000000000000000000000000000000000008152600401610d84906115fc565b60405180910390fd5b5f81600354610d9c919061161a565b60045483610daa9190611444565b610db491906114b2565b90505f8111610df8576040517f08c379a0000000000000000000000000000000000000000000000000000000008152600401610def90611697565b60405180910390fd5b60015f9054906101000a900473ffffffffffffffffffffffffffffffffffffffff1673ffffffffffffffffffffffffffffffffffffffff166323b872dd3330856040518463ffffffff1660e01b8152600401610e56939291906116b5565b6020604051808303815f875af1158015610e72573d5f803e3d5ffd5b505050506040513d601f19601f82011682018060405250810190610e96919061171f565b610ed5576040517f08c379a0000000000000000000000000000000000000000000000000000000008152600401610ecc90611823565b60405180910390fd5b60025f9054906101000a900473ffffffffffffffffffffffffffffffffffffffff1673ffffffffffffffffffffffffffffffffffffffff1663a9059cbb33836040518363ffffffff1660e01b8152600401610f319291906117b2565b6020604051808303815f875af1158015610f4d573d5f803e3d5ffd5b505050506040513d601f19601f82011682018060405250810190610f71919061171f565b610fb0576040517f08c379a0000000000000000000000000000000000000000000000000000000008152600401610fa790611794565b60405180910390fd5b8160035f828254610fc1919061161a565b925050819055508060045f828254610fd99190611841565b925050819055503373ffffffffffffffffffffffffffffffffffffffff167ffa2dda1cc1b86e41239702756b13effbc1a092b5c57e3ad320fbe4f3b13fe23560015f9054906101000a900473ffffffffffffffffffffffffffffffffffffffff16848460405161104b93929190611874565b60405180910390a25050565b61105f6110db565b5f73ffffffffffffffffffffffffffffffffffffffff168173ffffffffffffffffffffffffffffffffffffffff16036110cf575f6040517f1e4fbdf70000000000000000000000000000000000000000000000000000000081526004016110c69190611269565b60405180910390fd5b6110d881611162565b50565b6110e3611223565b73ffffffffffffffffffffffffffffffffffffffff166111016107bf565b73ffffffffffffffffffffffffffffffffffffffff161461116057611124611223565b6040517f118cdaa70000000000000000000000000000000000000000000000000000000081526004016111579190611269565b60405180910390fd5b565b5f805f9054906101000a900473ffffffffffffffffffffffffffffffffffffffff169050815f806101000a81548173ffffffffffffffffffffffffffffffffffffffff021916908373ffffffffffffffffffffffffffffffffffffffff1602179055508173ffffffffffffffffffffffffffffffffffffffff168173ffffffffffffffffffffffffffffffffffffffff167f8be0079c531659141344cd1fd0a4f28419497f9722a3daafe3b4186f6b6457e060405160405180910390a35050565b5f33905090565b5f73ffffffffffffffffffffffffffffffffffffffff82169050919050565b5f6112538261122a565b9050919050565b61126381611249565b82525050565b5f60208201905061127c5f83018461125a565b92915050565b5f819050919050565b61129481611282565b82525050565b5f6020820190506112ad5f83018461128b565b92915050565b5f80fd5b6112c081611249565b81146112ca575f80fd5b50565b5f813590506112db816112b7565b92915050565b5f602082840312156112f6576112f56112b3565b5b5f611303848285016112cd565b91505092915050565b61131581611282565b811461131f575f80fd5b50565b5f813590506113308161130c565b92915050565b5f6020828403121561134b5761134a6112b3565b5b5f61135884828501611322565b91505092915050565b5f8060408385031215611377576113766112b3565b5b5f61138485828601611322565b925050602061139585828601611322565b9150509250929050565b5f82825260208201905092915050565b7f4e6f206c697175696469747920666f7220546f6b656e420000000000000000005f82015250565b5f6113e360178361139f565b91506113ee826113af565b602082019050919050565b5f6020820190508181035f830152611410816113d7565b9050919050565b7f4e487b71000000000000000000000000000000000000000000000000000000005f52601160045260245ffd5b5f61144e82611282565b915061145983611282565b925082820261146781611282565b9150828204841483151761147e5761147d611417565b5b5092915050565b7f4e487b71000000000000000000000000000000000000000000000000000000005f52601260045260245ffd5b5f6114bc82611282565b91506114c783611282565b9250826114d7576114d6611485565b5b828204905092915050565b7f4e6f206c697175696469747920666f7220546f6b656e410000000000000000005f82015250565b5f61151660178361139f565b9150611521826114e2565b602082019050919050565b5f6020820190508181035f8301526115438161150a565b9050919050565b7f546f6b656e206e6f7420737570706f72746564000000000000000000000000005f82015250565b5f61157e60138361139f565b91506115898261154a565b602082019050919050565b5f6020820190508181035f8301526115ab81611572565b9050919050565b7f416d6f756e74206d7573742062652067726561746572207468616e207a65726f5f82015250565b5f6115e660208361139f565b91506115f1826115b2565b602082019050919050565b5f6020820190508181035f830152611613816115da565b9050919050565b5f61162482611282565b915061162f83611282565b925082820190508082111561164757611646611417565b5b92915050565b7f496e73756666696369656e74206f757470757420616d6f756e740000000000005f82015250565b5f611681601a8361139f565b915061168c8261164d565b602082019050919050565b5f6020820190508181035f8301526116ae81611675565b9050919050565b5f6060820190506116c85f83018661125a565b6116d5602083018561125a565b6116e2604083018461128b565b949350505050565b5f8115159050919050565b6116fe816116ea565b8114611708575f80fd5b50565b5f81519050611719816116f5565b92915050565b5f60208284031215611734576117336112b3565b5b5f6117418482850161170b565b91505092915050565b7f5472616e73666572206f6620546f6b656e42206661696c6564000000000000005f82015250565b5f61177e60198361139f565b91506117898261174a565b602082019050919050565b5f6020820190508181035f8301526117ab81611772565b9050919050565b5f6040820190506117c55f83018561125a565b6117d2602083018461128b565b9392505050565b7f5472616e73666572206f6620546f6b656e41206661696c6564000000000000005f82015250565b5f61180d60198361139f565b9150611818826117d9565b602082019050919050565b5f6020820190508181035f83015261183a81611801565b9050919050565b5f61184b82611282565b915061185683611282565b925082820390508181111561186e5761186d611417565b5b92915050565b5f6060820190506118875f83018661125a565b611894602083018561128b565b6118a1604083018461128b565b949350505050565b7f416d6f756e7473206d7573742062652067726561746572207468616e207a65725f8201527f6f00000000000000000000000000000000000000000000000000000000000000602082015250565b5f61190360218361139f565b915061190e826118a9565b604082019050919050565b5f6020820190508181035f830152611930816118f7565b9050919050565b5f60408201905061194a5f83018561128b565b611957602083018461128b565b9392505050565b7f496e73756666696369656e7420546f6b656e41207265736572766500000000005f82015250565b5f611992601b8361139f565b915061199d8261195e565b602082019050919050565b5f6020820190508181035f8301526119bf81611986565b9050919050565b7f496e73756666696369656e7420546f6b656e42207265736572766500000000005f82015250565b5f6119fa601b8361139f565b9150611a05826119c6565b602082019050919050565b5f6020820190508181035f830152611a27816119ee565b905091905056fea2646970667358221220e0f0ad8d70e92f582338335786a7f62e14c9b2d421a24ad90ce2147a1da1800464736f6c63430008140033",
					"opcodes": "PUSH1 0x80 PUSH1 0x40 MSTORE CALLVALUE DUP1 ISZERO PUSH3 0x10 JUMPI PUSH0 DUP1 REVERT JUMPDEST POP PUSH1 0x40 MLOAD PUSH3 0x1D62 CODESIZE SUB DUP1 PUSH3 0x1D62 DUP4 CODECOPY DUP2 DUP2 ADD PUSH1 0x40 MSTORE DUP2 ADD SWAP1 PUSH3 0x36 SWAP2 SWAP1 PUSH3 0x26B JUMP JUMPDEST DUP3 PUSH0 PUSH20 0xFFFFFFFFFFFFFFFFFFFFFFFFFFFFFFFFFFFFFFFF AND DUP2 PUSH20 0xFFFFFFFFFFFFFFFFFFFFFFFFFFFFFFFFFFFFFFFF AND SUB PUSH3 0xAA JUMPI PUSH0 PUSH1 0x40 MLOAD PUSH32 0x1E4FBDF700000000000000000000000000000000000000000000000000000000 DUP2 MSTORE PUSH1 0x4 ADD PUSH3 0xA1 SWAP2 SWAP1 PUSH3 0x2D5 JUMP JUMPDEST PUSH1 0x40 MLOAD DUP1 SWAP2 SUB SWAP1 REVERT JUMPDEST PUSH3 0xBB DUP2 PUSH3 0x145 PUSH1 0x20 SHL PUSH1 0x20 SHR JUMP JUMPDEST POP DUP2 PUSH1 0x1 PUSH0 PUSH2 0x100 EXP DUP2 SLOAD DUP2 PUSH20 0xFFFFFFFFFFFFFFFFFFFFFFFFFFFFFFFFFFFFFFFF MUL NOT AND SWAP1 DUP4 PUSH20 0xFFFFFFFFFFFFFFFFFFFFFFFFFFFFFFFFFFFFFFFF AND MUL OR SWAP1 SSTORE POP DUP1 PUSH1 0x2 PUSH0 PUSH2 0x100 EXP DUP2 SLOAD DUP2 PUSH20 0xFFFFFFFFFFFFFFFFFFFFFFFFFFFFFFFFFFFFFFFF MUL NOT AND SWAP1 DUP4 PUSH20 0xFFFFFFFFFFFFFFFFFFFFFFFFFFFFFFFFFFFFFFFF AND MUL OR SWAP1 SSTORE POP POP POP POP PUSH3 0x2F0 JUMP JUMPDEST PUSH0 DUP1 PUSH0 SWAP1 SLOAD SWAP1 PUSH2 0x100 EXP SWAP1 DIV PUSH20 0xFFFFFFFFFFFFFFFFFFFFFFFFFFFFFFFFFFFFFFFF AND SWAP1 POP DUP2 PUSH0 DUP1 PUSH2 0x100 EXP DUP2 SLOAD DUP2 PUSH20 0xFFFFFFFFFFFFFFFFFFFFFFFFFFFFFFFFFFFFFFFF MUL NOT AND SWAP1 DUP4 PUSH20 0xFFFFFFFFFFFFFFFFFFFFFFFFFFFFFFFFFFFFFFFF AND MUL OR SWAP1 SSTORE POP DUP2 PUSH20 0xFFFFFFFFFFFFFFFFFFFFFFFFFFFFFFFFFFFFFFFF AND DUP2 PUSH20 0xFFFFFFFFFFFFFFFFFFFFFFFFFFFFFFFFFFFFFFFF AND PUSH32 0x8BE0079C531659141344CD1FD0A4F28419497F9722A3DAAFE3B4186F6B6457E0 PUSH1 0x40 MLOAD PUSH1 0x40 MLOAD DUP1 SWAP2 SUB SWAP1 LOG3 POP POP JUMP JUMPDEST PUSH0 DUP1 REVERT JUMPDEST PUSH0 PUSH20 0xFFFFFFFFFFFFFFFFFFFFFFFFFFFFFFFFFFFFFFFF DUP3 AND SWAP1 POP SWAP2 SWAP1 POP JUMP JUMPDEST PUSH0 PUSH3 0x235 DUP3 PUSH3 0x20A JUMP JUMPDEST SWAP1 POP SWAP2 SWAP1 POP JUMP JUMPDEST PUSH3 0x247 DUP2 PUSH3 0x229 JUMP JUMPDEST DUP2 EQ PUSH3 0x252 JUMPI PUSH0 DUP1 REVERT JUMPDEST POP JUMP JUMPDEST PUSH0 DUP2 MLOAD SWAP1 POP PUSH3 0x265 DUP2 PUSH3 0x23C JUMP JUMPDEST SWAP3 SWAP2 POP POP JUMP JUMPDEST PUSH0 DUP1 PUSH0 PUSH1 0x60 DUP5 DUP7 SUB SLT ISZERO PUSH3 0x285 JUMPI PUSH3 0x284 PUSH3 0x206 JUMP JUMPDEST JUMPDEST PUSH0 PUSH3 0x294 DUP7 DUP3 DUP8 ADD PUSH3 0x255 JUMP JUMPDEST SWAP4 POP POP PUSH1 0x20 PUSH3 0x2A7 DUP7 DUP3 DUP8 ADD PUSH3 0x255 JUMP JUMPDEST SWAP3 POP POP PUSH1 0x40 PUSH3 0x2BA DUP7 DUP3 DUP8 ADD PUSH3 0x255 JUMP JUMPDEST SWAP2 POP POP SWAP3 POP SWAP3 POP SWAP3 JUMP JUMPDEST PUSH3 0x2CF DUP2 PUSH3 0x229 JUMP JUMPDEST DUP3 MSTORE POP POP JUMP JUMPDEST PUSH0 PUSH1 0x20 DUP3 ADD SWAP1 POP PUSH3 0x2EA PUSH0 DUP4 ADD DUP5 PUSH3 0x2C4 JUMP JUMPDEST SWAP3 SWAP2 POP POP JUMP JUMPDEST PUSH2 0x1A64 DUP1 PUSH3 0x2FE PUSH0 CODECOPY PUSH0 RETURN INVALID PUSH1 0x80 PUSH1 0x40 MSTORE PUSH1 0x4 CALLDATASIZE LT PUSH2 0xA6 JUMPI PUSH0 CALLDATALOAD PUSH1 0xE0 SHR DUP1 PUSH4 0x8DA5CB5B GT PUSH2 0x63 JUMPI DUP1 PUSH4 0x8DA5CB5B EQ PUSH2 0x1A2 JUMPI DUP1 PUSH4 0x9CD441DA EQ PUSH2 0x1CC JUMPI DUP1 PUSH4 0x9D7DE6B3 EQ PUSH2 0x1E8 JUMPI DUP1 PUSH4 0xDC5FA6C5 EQ PUSH2 0x210 JUMPI DUP1 PUSH4 0xE4F1F70A EQ PUSH2 0x23A JUMPI DUP1 PUSH4 0xF2FDE38B EQ PUSH2 0x262 JUMPI PUSH2 0xA6 JUMP JUMPDEST DUP1 PUSH4 0xFC63D10 EQ PUSH2 0xAA JUMPI DUP1 PUSH4 0x19E36F3B EQ PUSH2 0xD4 JUMPI DUP1 PUSH4 0x41976E09 EQ PUSH2 0xFE JUMPI DUP1 PUSH4 0x5F64B55B EQ PUSH2 0x13A JUMPI DUP1 PUSH4 0x715018A6 EQ PUSH2 0x164 JUMPI DUP1 PUSH4 0x8014A7AA EQ PUSH2 0x17A JUMPI JUMPDEST PUSH0 DUP1 REVERT JUMPDEST CALLVALUE DUP1 ISZERO PUSH2 0xB5 JUMPI PUSH0 DUP1 REVERT JUMPDEST POP PUSH2 0xBE PUSH2 0x28A JUMP JUMPDEST PUSH1 0x40 MLOAD PUSH2 0xCB SWAP2 SWAP1 PUSH2 0x1269 JUMP JUMPDEST PUSH1 0x40 MLOAD DUP1 SWAP2 SUB SWAP1 RETURN JUMPDEST CALLVALUE DUP1 ISZERO PUSH2 0xDF JUMPI PUSH0 DUP1 REVERT JUMPDEST POP PUSH2 0xE8 PUSH2 0x2AF JUMP JUMPDEST PUSH1 0x40 MLOAD PUSH2 0xF5 SWAP2 SWAP1 PUSH2 0x129A JUMP JUMPDEST PUSH1 0x40 MLOAD DUP1 SWAP2 SUB SWAP1 RETURN JUMPDEST CALLVALUE DUP1 ISZERO PUSH2 0x109 JUMPI PUSH0 DUP1 REVERT JUMPDEST POP PUSH2 0x124 PUSH1 0x4 DUP1 CALLDATASIZE SUB DUP2 ADD SWAP1 PUSH2 0x11F SWAP2 SWAP1 PUSH2 0x12E1 JUMP JUMPDEST PUSH2 0x2B5 JUMP JUMPDEST PUSH1 0x40 MLOAD PUSH2 0x131 SWAP2 SWAP1 PUSH2 0x129A JUMP JUMPDEST PUSH1 0x40 MLOAD DUP1 SWAP2 SUB SWAP1 RETURN JUMPDEST CALLVALUE DUP1 ISZERO PUSH2 0x145 JUMPI PUSH0 DUP1 REVERT JUMPDEST POP PUSH2 0x14E PUSH2 0x47B JUMP JUMPDEST PUSH1 0x40 MLOAD PUSH2 0x15B SWAP2 SWAP1 PUSH2 0x1269 JUMP JUMPDEST PUSH1 0x40 MLOAD DUP1 SWAP2 SUB SWAP1 RETURN JUMPDEST CALLVALUE DUP1 ISZERO PUSH2 0x16F JUMPI PUSH0 DUP1 REVERT JUMPDEST POP PUSH2 0x178 PUSH2 0x4A0 JUMP JUMPDEST STOP JUMPDEST CALLVALUE DUP1 ISZERO PUSH2 0x185 JUMPI PUSH0 DUP1 REVERT JUMPDEST POP PUSH2 0x1A0 PUSH1 0x4 DUP1 CALLDATASIZE SUB DUP2 ADD SWAP1 PUSH2 0x19B SWAP2 SWAP1 PUSH2 0x1336 JUMP JUMPDEST PUSH2 0x4B3 JUMP JUMPDEST STOP JUMPDEST CALLVALUE DUP1 ISZERO PUSH2 0x1AD JUMPI PUSH0 DUP1 REVERT JUMPDEST POP PUSH2 0x1B6 PUSH2 0x7BF JUMP JUMPDEST PUSH1 0x40 MLOAD PUSH2 0x1C3 SWAP2 SWAP1 PUSH2 0x1269 JUMP JUMPDEST PUSH1 0x40 MLOAD DUP1 SWAP2 SUB SWAP1 RETURN JUMPDEST PUSH2 0x1E6 PUSH1 0x4 DUP1 CALLDATASIZE SUB DUP2 ADD SWAP1 PUSH2 0x1E1 SWAP2 SWAP1 PUSH2 0x1361 JUMP JUMPDEST PUSH2 0x7E6 JUMP JUMPDEST STOP JUMPDEST CALLVALUE DUP1 ISZERO PUSH2 0x1F3 JUMPI PUSH0 DUP1 REVERT JUMPDEST POP PUSH2 0x20E PUSH1 0x4 DUP1 CALLDATASIZE SUB DUP2 ADD SWAP1 PUSH2 0x209 SWAP2 SWAP1 PUSH2 0x1361 JUMP JUMPDEST PUSH2 0xA79 JUMP JUMPDEST STOP JUMPDEST CALLVALUE DUP1 ISZERO PUSH2 0x21B JUMPI PUSH0 DUP1 REVERT JUMPDEST POP PUSH2 0x224 PUSH2 0xD45 JUMP JUMPDEST PUSH1 0x40 MLOAD PUSH2 0x231 SWAP2 SWAP1 PUSH2 0x129A JUMP JUMPDEST PUSH1 0x40 MLOAD DUP1 SWAP2 SUB SWAP1 RETURN JUMPDEST CALLVALUE DUP1 ISZERO PUSH2 0x245 JUMPI PUSH0 DUP1 REVERT JUMPDEST POP PUSH2 0x260 PUSH1 0x4 DUP1 CALLDATASIZE SUB DUP2 ADD SWAP1 PUSH2 0x25B SWAP2 SWAP1 PUSH2 0x1336 JUMP JUMPDEST PUSH2 0xD4B JUMP JUMPDEST STOP JUMPDEST CALLVALUE DUP1 ISZERO PUSH2 0x26D JUMPI PUSH0 DUP1 REVERT JUMPDEST POP PUSH2 0x288 PUSH1 0x4 DUP1 CALLDATASIZE SUB DUP2 ADD SWAP1 PUSH2 0x283 SWAP2 SWAP1 PUSH2 0x12E1 JUMP JUMPDEST PUSH2 0x1057 JUMP JUMPDEST STOP JUMPDEST PUSH1 0x1 PUSH0 SWAP1 SLOAD SWAP1 PUSH2 0x100 EXP SWAP1 DIV PUSH20 0xFFFFFFFFFFFFFFFFFFFFFFFFFFFFFFFFFFFFFFFF AND DUP2 JUMP JUMPDEST PUSH1 0x4 SLOAD DUP2 JUMP JUMPDEST PUSH0 PUSH1 0x1 PUSH0 SWAP1 SLOAD SWAP1 PUSH2 0x100 EXP SWAP1 DIV PUSH20 0xFFFFFFFFFFFFFFFFFFFFFFFFFFFFFFFFFFFFFFFF AND PUSH20 0xFFFFFFFFFFFFFFFFFFFFFFFFFFFFFFFFFFFFFFFF AND DUP3 PUSH20 0xFFFFFFFFFFFFFFFFFFFFFFFFFFFFFFFFFFFFFFFF AND SUB PUSH2 0x378 JUMPI PUSH0 PUSH1 0x4 SLOAD GT PUSH2 0x34E JUMPI PUSH1 0x40 MLOAD PUSH32 0x8C379A000000000000000000000000000000000000000000000000000000000 DUP2 MSTORE PUSH1 0x4 ADD PUSH2 0x345 SWAP1 PUSH2 0x13F9 JUMP JUMPDEST PUSH1 0x40 MLOAD DUP1 SWAP2 SUB SWAP1 REVERT JUMPDEST PUSH1 0x4 SLOAD PUSH8 0xDE0B6B3A7640000 PUSH1 0x3 SLOAD PUSH2 0x367 SWAP2 SWAP1 PUSH2 0x1444 JUMP JUMPDEST PUSH2 0x371 SWAP2 SWAP1 PUSH2 0x14B2 JUMP JUMPDEST SWAP1 POP PUSH2 0x476 JUMP JUMPDEST PUSH1 0x2 PUSH0 SWAP1 SLOAD SWAP1 PUSH2 0x100 EXP SWAP1 DIV PUSH20 0xFFFFFFFFFFFFFFFFFFFFFFFFFFFFFFFFFFFFFFFF AND PUSH20 0xFFFFFFFFFFFFFFFFFFFFFFFFFFFFFFFFFFFFFFFF AND DUP3 PUSH20 0xFFFFFFFFFFFFFFFFFFFFFFFFFFFFFFFFFFFFFFFF AND SUB PUSH2 0x43A JUMPI PUSH0 PUSH1 0x3 SLOAD GT PUSH2 0x410 JUMPI PUSH1 0x40 MLOAD PUSH32 0x8C379A000000000000000000000000000000000000000000000000000000000 DUP2 MSTORE PUSH1 0x4 ADD PUSH2 0x407 SWAP1 PUSH2 0x152C JUMP JUMPDEST PUSH1 0x40 MLOAD DUP1 SWAP2 SUB SWAP1 REVERT JUMPDEST PUSH1 0x3 SLOAD PUSH8 0xDE0B6B3A7640000 PUSH1 0x4 SLOAD PUSH2 0x429 SWAP2 SWAP1 PUSH2 0x1444 JUMP JUMPDEST PUSH2 0x433 SWAP2 SWAP1 PUSH2 0x14B2 JUMP JUMPDEST SWAP1 POP PUSH2 0x475 JUMP JUMPDEST PUSH1 0x40 MLOAD PUSH32 0x8C379A000000000000000000000000000000000000000000000000000000000 DUP2 MSTORE PUSH1 0x4 ADD PUSH2 0x46C SWAP1 PUSH2 0x1594 JUMP JUMPDEST PUSH1 0x40 MLOAD DUP1 SWAP2 SUB SWAP1 REVERT JUMPDEST JUMPDEST SWAP2 SWAP1 POP JUMP JUMPDEST PUSH1 0x2 PUSH0 SWAP1 SLOAD SWAP1 PUSH2 0x100 EXP SWAP1 DIV PUSH20 0xFFFFFFFFFFFFFFFFFFFFFFFFFFFFFFFFFFFFFFFF AND DUP2 JUMP JUMPDEST PUSH2 0x4A8 PUSH2 0x10DB JUMP JUMPDEST PUSH2 0x4B1 PUSH0 PUSH2 0x1162 JUMP JUMPDEST JUMP JUMPDEST PUSH0 DUP2 GT PUSH2 0x4F5 JUMPI PUSH1 0x40 MLOAD PUSH32 0x8C379A000000000000000000000000000000000000000000000000000000000 DUP2 MSTORE PUSH1 0x4 ADD PUSH2 0x4EC SWAP1 PUSH2 0x15FC JUMP JUMPDEST PUSH1 0x40 MLOAD DUP1 SWAP2 SUB SWAP1 REVERT JUMPDEST PUSH0 DUP2 PUSH1 0x4 SLOAD PUSH2 0x504 SWAP2 SWAP1 PUSH2 0x161A JUMP JUMPDEST PUSH1 0x3 SLOAD DUP4 PUSH2 0x512 SWAP2 SWAP1 PUSH2 0x1444 JUMP JUMPDEST PUSH2 0x51C SWAP2 SWAP1 PUSH2 0x14B2 JUMP JUMPDEST SWAP1 POP PUSH0 DUP2 GT PUSH2 0x560 JUMPI PUSH1 0x40 MLOAD PUSH32 0x8C379A000000000000000000000000000000000000000000000000000000000 DUP2 MSTORE PUSH1 0x4 ADD PUSH2 0x557 SWAP1 PUSH2 0x1697 JUMP JUMPDEST PUSH1 0x40 MLOAD DUP1 SWAP2 SUB SWAP1 REVERT JUMPDEST PUSH1 0x2 PUSH0 SWAP1 SLOAD SWAP1 PUSH2 0x100 EXP SWAP1 DIV PUSH20 0xFFFFFFFFFFFFFFFFFFFFFFFFFFFFFFFFFFFFFFFF AND PUSH20 0xFFFFFFFFFFFFFFFFFFFFFFFFFFFFFFFFFFFFFFFF AND PUSH4 0x23B872DD CALLER ADDRESS DUP6 PUSH1 0x40 MLOAD DUP5 PUSH4 0xFFFFFFFF AND PUSH1 0xE0 SHL DUP2 MSTORE PUSH1 0x4 ADD PUSH2 0x5BE SWAP4 SWAP3 SWAP2 SWAP1 PUSH2 0x16B5 JUMP JUMPDEST PUSH1 0x20 PUSH1 0x40 MLOAD DUP1 DUP4 SUB DUP2 PUSH0 DUP8 GAS CALL ISZERO DUP1 ISZERO PUSH2 0x5DA JUMPI RETURNDATASIZE PUSH0 DUP1 RETURNDATACOPY RETURNDATASIZE PUSH0 REVERT JUMPDEST POP POP POP POP PUSH1 0x40 MLOAD RETURNDATASIZE PUSH1 0x1F NOT PUSH1 0x1F DUP3 ADD AND DUP3 ADD DUP1 PUSH1 0x40 MSTORE POP DUP2 ADD SWAP1 PUSH2 0x5FE SWAP2 SWAP1 PUSH2 0x171F JUMP JUMPDEST PUSH2 0x63D JUMPI PUSH1 0x40 MLOAD PUSH32 0x8C379A000000000000000000000000000000000000000000000000000000000 DUP2 MSTORE PUSH1 0x4 ADD PUSH2 0x634 SWAP1 PUSH2 0x1794 JUMP JUMPDEST PUSH1 0x40 MLOAD DUP1 SWAP2 SUB SWAP1 REVERT JUMPDEST PUSH1 0x1 PUSH0 SWAP1 SLOAD SWAP1 PUSH2 0x100 EXP SWAP1 DIV PUSH20 0xFFFFFFFFFFFFFFFFFFFFFFFFFFFFFFFFFFFFFFFF AND PUSH20 0xFFFFFFFFFFFFFFFFFFFFFFFFFFFFFFFFFFFFFFFF AND PUSH4 0xA9059CBB CALLER DUP4 PUSH1 0x40 MLOAD DUP4 PUSH4 0xFFFFFFFF AND PUSH1 0xE0 SHL DUP2 MSTORE PUSH1 0x4 ADD PUSH2 0x699 SWAP3 SWAP2 SWAP1 PUSH2 0x17B2 JUMP JUMPDEST PUSH1 0x20 PUSH1 0x40 MLOAD DUP1 DUP4 SUB DUP2 PUSH0 DUP8 GAS CALL ISZERO DUP1 ISZERO PUSH2 0x6B5 JUMPI RETURNDATASIZE PUSH0 DUP1 RETURNDATACOPY RETURNDATASIZE PUSH0 REVERT JUMPDEST POP POP POP POP PUSH1 0x40 MLOAD RETURNDATASIZE PUSH1 0x1F NOT PUSH1 0x1F DUP3 ADD AND DUP3 ADD DUP1 PUSH1 0x40 MSTORE POP DUP2 ADD SWAP1 PUSH2 0x6D9 SWAP2 SWAP1 PUSH2 0x171F JUMP JUMPDEST PUSH2 0x718 JUMPI PUSH1 0x40 MLOAD PUSH32 0x8C379A000000000000000000000000000000000000000000000000000000000 DUP2 MSTORE PUSH1 0x4 ADD PUSH2 0x70F SWAP1 PUSH2 0x1823 JUMP JUMPDEST PUSH1 0x40 MLOAD DUP1 SWAP2 SUB SWAP1 REVERT JUMPDEST DUP2 PUSH1 0x4 PUSH0 DUP3 DUP3 SLOAD PUSH2 0x729 SWAP2 SWAP1 PUSH2 0x161A JUMP JUMPDEST SWAP3 POP POP DUP2 SWAP1 SSTORE POP DUP1 PUSH1 0x3 PUSH0 DUP3 DUP3 SLOAD PUSH2 0x741 SWAP2 SWAP1 PUSH2 0x1841 JUMP JUMPDEST SWAP3 POP POP DUP2 SWAP1 SSTORE POP CALLER PUSH20 0xFFFFFFFFFFFFFFFFFFFFFFFFFFFFFFFFFFFFFFFF AND PUSH32 0xFA2DDA1CC1B86E41239702756B13EFFBC1A092B5C57E3AD320FBE4F3B13FE235 PUSH1 0x2 PUSH0 SWAP1 SLOAD SWAP1 PUSH2 0x100 EXP SWAP1 DIV PUSH20 0xFFFFFFFFFFFFFFFFFFFFFFFFFFFFFFFFFFFFFFFF AND DUP5 DUP5 PUSH1 0x40 MLOAD PUSH2 0x7B3 SWAP4 SWAP3 SWAP2 SWAP1 PUSH2 0x1874 JUMP JUMPDEST PUSH1 0x40 MLOAD DUP1 SWAP2 SUB SWAP1 LOG2 POP POP JUMP JUMPDEST PUSH0 DUP1 PUSH0 SWAP1 SLOAD SWAP1 PUSH2 0x100 EXP SWAP1 DIV PUSH20 0xFFFFFFFFFFFFFFFFFFFFFFFFFFFFFFFFFFFFFFFF AND SWAP1 POP SWAP1 JUMP JUMPDEST PUSH2 0x7EE PUSH2 0x10DB JUMP JUMPDEST PUSH0 DUP3 GT DUP1 ISZERO PUSH2 0x7FC JUMPI POP PUSH0 DUP2 GT JUMPDEST PUSH2 0x83B JUMPI PUSH1 0x40 MLOAD PUSH32 0x8C379A000000000000000000000000000000000000000000000000000000000 DUP2 MSTORE PUSH1 0x4 ADD PUSH2 0x832 SWAP1 PUSH2 0x1919 JUMP JUMPDEST PUSH1 0x40 MLOAD DUP1 SWAP2 SUB SWAP1 REVERT JUMPDEST PUSH1 0x1 PUSH0 SWAP1 SLOAD SWAP1 PUSH2 0x100 EXP SWAP1 DIV PUSH20 0xFFFFFFFFFFFFFFFFFFFFFFFFFFFFFFFFFFFFFFFF AND PUSH20 0xFFFFFFFFFFFFFFFFFFFFFFFFFFFFFFFFFFFFFFFF AND PUSH4 0x23B872DD CALLER ADDRESS DUP6 PUSH1 0x40 MLOAD DUP5 PUSH4 0xFFFFFFFF AND PUSH1 0xE0 SHL DUP2 MSTORE PUSH1 0x4 ADD PUSH2 0x899 SWAP4 SWAP3 SWAP2 SWAP1 PUSH2 0x16B5 JUMP JUMPDEST PUSH1 0x20 PUSH1 0x40 MLOAD DUP1 DUP4 SUB DUP2 PUSH0 DUP8 GAS CALL ISZERO DUP1 ISZERO PUSH2 0x8B5 JUMPI RETURNDATASIZE PUSH0 DUP1 RETURNDATACOPY RETURNDATASIZE PUSH0 REVERT JUMPDEST POP POP POP POP PUSH1 0x40 MLOAD RETURNDATASIZE PUSH1 0x1F NOT PUSH1 0x1F DUP3 ADD AND DUP3 ADD DUP1 PUSH1 0x40 MSTORE POP DUP2 ADD SWAP1 PUSH2 0x8D9 SWAP2 SWAP1 PUSH2 0x171F JUMP JUMPDEST PUSH2 0x918 JUMPI PUSH1 0x40 MLOAD PUSH32 0x8C379A000000000000000000000000000000000000000000000000000000000 DUP2 MSTORE PUSH1 0x4 ADD PUSH2 0x90F SWAP1 PUSH2 0x1823 JUMP JUMPDEST PUSH1 0x40 MLOAD DUP1 SWAP2 SUB SWAP1 REVERT JUMPDEST PUSH1 0x2 PUSH0 SWAP1 SLOAD SWAP1 PUSH2 0x100 EXP SWAP1 DIV PUSH20 0xFFFFFFFFFFFFFFFFFFFFFFFFFFFFFFFFFFFFFFFF AND PUSH20 0xFFFFFFFFFFFFFFFFFFFFFFFFFFFFFFFFFFFFFFFF AND PUSH4 0x23B872DD CALLER ADDRESS DUP5 PUSH1 0x40 MLOAD DUP5 PUSH4 0xFFFFFFFF AND PUSH1 0xE0 SHL DUP2 MSTORE PUSH1 0x4 ADD PUSH2 0x976 SWAP4 SWAP3 SWAP2 SWAP1 PUSH2 0x16B5 JUMP JUMPDEST PUSH1 0x20 PUSH1 0x40 MLOAD DUP1 DUP4 SUB DUP2 PUSH0 DUP8 GAS CALL ISZERO DUP1 ISZERO PUSH2 0x992 JUMPI RETURNDATASIZE PUSH0 DUP1 RETURNDATACOPY RETURNDATASIZE PUSH0 REVERT JUMPDEST POP POP POP POP PUSH1 0x40 MLOAD RETURNDATASIZE PUSH1 0x1F NOT PUSH1 0x1F DUP3 ADD AND DUP3 ADD DUP1 PUSH1 0x40 MSTORE POP DUP2 ADD SWAP1 PUSH2 0x9B6 SWAP2 SWAP1 PUSH2 0x171F JUMP JUMPDEST PUSH2 0x9F5 JUMPI PUSH1 0x40 MLOAD PUSH32 0x8C379A000000000000000000000000000000000000000000000000000000000 DUP2 MSTORE PUSH1 0x4 ADD PUSH2 0x9EC SWAP1 PUSH2 0x1794 JUMP JUMPDEST PUSH1 0x40 MLOAD DUP1 SWAP2 SUB SWAP1 REVERT JUMPDEST DUP2 PUSH1 0x3 PUSH0 DUP3 DUP3 SLOAD PUSH2 0xA06 SWAP2 SWAP1 PUSH2 0x161A JUMP JUMPDEST SWAP3 POP POP DUP2 SWAP1 SSTORE POP DUP1 PUSH1 0x4 PUSH0 DUP3 DUP3 SLOAD PUSH2 0xA1E SWAP2 SWAP1 PUSH2 0x161A JUMP JUMPDEST SWAP3 POP POP DUP2 SWAP1 SSTORE POP CALLER PUSH20 0xFFFFFFFFFFFFFFFFFFFFFFFFFFFFFFFFFFFFFFFF AND PUSH32 0xAC1D76749E5447B7B16F5AB61447E1BD502F3BB4807AF3B28E620D1700A6EE45 DUP4 DUP4 PUSH1 0x40 MLOAD PUSH2 0xA6D SWAP3 SWAP2 SWAP1 PUSH2 0x1937 JUMP JUMPDEST PUSH1 0x40 MLOAD DUP1 SWAP2 SUB SWAP1 LOG2 POP POP JUMP JUMPDEST PUSH2 0xA81 PUSH2 0x10DB JUMP JUMPDEST PUSH1 0x3 SLOAD DUP3 GT ISZERO PUSH2 0xAC6 JUMPI PUSH1 0x40 MLOAD PUSH32 0x8C379A000000000000000000000000000000000000000000000000000000000 DUP2 MSTORE PUSH1 0x4 ADD PUSH2 0xABD SWAP1 PUSH2 0x19A8 JUMP JUMPDEST PUSH1 0x40 MLOAD DUP1 SWAP2 SUB SWAP1 REVERT JUMPDEST PUSH1 0x4 SLOAD DUP2 GT ISZERO PUSH2 0xB0B JUMPI PUSH1 0x40 MLOAD PUSH32 0x8C379A000000000000000000000000000000000000000000000000000000000 DUP2 MSTORE PUSH1 0x4 ADD PUSH2 0xB02 SWAP1 PUSH2 0x1A10 JUMP JUMPDEST PUSH1 0x40 MLOAD DUP1 SWAP2 SUB SWAP1 REVERT JUMPDEST DUP2 PUSH1 0x3 PUSH0 DUP3 DUP3 SLOAD PUSH2 0xB1C SWAP2 SWAP1 PUSH2 0x1841 JUMP JUMPDEST SWAP3 POP POP DUP2 SWAP1 SSTORE POP DUP1 PUSH1 0x4 PUSH0 DUP3 DUP3 SLOAD PUSH2 0xB34 SWAP2 SWAP1 PUSH2 0x1841 JUMP JUMPDEST SWAP3 POP POP DUP2 SWAP1 SSTORE POP PUSH1 0x1 PUSH0 SWAP1 SLOAD SWAP1 PUSH2 0x100 EXP SWAP1 DIV PUSH20 0xFFFFFFFFFFFFFFFFFFFFFFFFFFFFFFFFFFFFFFFF AND PUSH20 0xFFFFFFFFFFFFFFFFFFFFFFFFFFFFFFFFFFFFFFFF AND PUSH4 0xA9059CBB CALLER DUP5 PUSH1 0x40 MLOAD DUP4 PUSH4 0xFFFFFFFF AND PUSH1 0xE0 SHL DUP2 MSTORE PUSH1 0x4 ADD PUSH2 0xB97 SWAP3 SWAP2 SWAP1 PUSH2 0x17B2 JUMP JUMPDEST PUSH1 0x20 PUSH1 0x40 MLOAD DUP1 DUP4 SUB DUP2 PUSH0 DUP8 GAS CALL ISZERO DUP1 ISZERO PUSH2 0xBB3 JUMPI RETURNDATASIZE PUSH0 DUP1 RETURNDATACOPY RETURNDATASIZE PUSH0 REVERT JUMPDEST POP POP POP POP PUSH1 0x40 MLOAD RETURNDATASIZE PUSH1 0x1F NOT PUSH1 0x1F DUP3 ADD AND DUP3 ADD DUP1 PUSH1 0x40 MSTORE POP DUP2 ADD SWAP1 PUSH2 0xBD7 SWAP2 SWAP1 PUSH2 0x171F JUMP JUMPDEST PUSH2 0xC16 JUMPI PUSH1 0x40 MLOAD PUSH32 0x8C379A000000000000000000000000000000000000000000000000000000000 DUP2 MSTORE PUSH1 0x4 ADD PUSH2 0xC0D SWAP1 PUSH2 0x1823 JUMP JUMPDEST PUSH1 0x40 MLOAD DUP1 SWAP2 SUB SWAP1 REVERT JUMPDEST PUSH1 0x2 PUSH0 SWAP1 SLOAD SWAP1 PUSH2 0x100 EXP SWAP1 DIV PUSH20 0xFFFFFFFFFFFFFFFFFFFFFFFFFFFFFFFFFFFFFFFF AND PUSH20 0xFFFFFFFFFFFFFFFFFFFFFFFFFFFFFFFFFFFFFFFF AND PUSH4 0xA9059CBB CALLER DUP4 PUSH1 0x40 MLOAD DUP4 PUSH4 0xFFFFFFFF AND PUSH1 0xE0 SHL DUP2 MSTORE PUSH1 0x4 ADD PUSH2 0xC72 SWAP3 SWAP2 SWAP1 PUSH2 0x17B2 JUMP JUMPDEST PUSH1 0x20 PUSH1 0x40 MLOAD DUP1 DUP4 SUB DUP2 PUSH0 DUP8 GAS CALL ISZERO DUP1 ISZERO PUSH2 0xC8E JUMPI RETURNDATASIZE PUSH0 DUP1 RETURNDATACOPY RETURNDATASIZE PUSH0 REVERT JUMPDEST POP POP POP POP PUSH1 0x40 MLOAD RETURNDATASIZE PUSH1 0x1F NOT PUSH1 0x1F DUP3 ADD AND DUP3 ADD DUP1 PUSH1 0x40 MSTORE POP DUP2 ADD SWAP1 PUSH2 0xCB2 SWAP2 SWAP1 PUSH2 0x171F JUMP JUMPDEST PUSH2 0xCF1 JUMPI PUSH1 0x40 MLOAD PUSH32 0x8C379A000000000000000000000000000000000000000000000000000000000 DUP2 MSTORE PUSH1 0x4 ADD PUSH2 0xCE8 SWAP1 PUSH2 0x1794 JUMP JUMPDEST PUSH1 0x40 MLOAD DUP1 SWAP2 SUB SWAP1 REVERT JUMPDEST CALLER PUSH20 0xFFFFFFFFFFFFFFFFFFFFFFFFFFFFFFFFFFFFFFFF AND PUSH32 0x96CD817C6329656790EF8FBA7675405193677D39619571282F5E21F3A98CD059 DUP4 DUP4 PUSH1 0x40 MLOAD PUSH2 0xD39 SWAP3 SWAP2 SWAP1 PUSH2 0x1937 JUMP JUMPDEST PUSH1 0x40 MLOAD DUP1 SWAP2 SUB SWAP1 LOG2 POP POP JUMP JUMPDEST PUSH1 0x3 SLOAD DUP2 JUMP JUMPDEST PUSH0 DUP2 GT PUSH2 0xD8D JUMPI PUSH1 0x40 MLOAD PUSH32 0x8C379A000000000000000000000000000000000000000000000000000000000 DUP2 MSTORE PUSH1 0x4 ADD PUSH2 0xD84 SWAP1 PUSH2 0x15FC JUMP JUMPDEST PUSH1 0x40 MLOAD DUP1 SWAP2 SUB SWAP1 REVERT JUMPDEST PUSH0 DUP2 PUSH1 0x3 SLOAD PUSH2 0xD9C SWAP2 SWAP1 PUSH2 0x161A JUMP JUMPDEST PUSH1 0x4 SLOAD DUP4 PUSH2 0xDAA SWAP2 SWAP1 PUSH2 0x1444 JUMP JUMPDEST PUSH2 0xDB4 SWAP2 SWAP1 PUSH2 0x14B2 JUMP JUMPDEST SWAP1 POP PUSH0 DUP2 GT PUSH2 0xDF8 JUMPI PUSH1 0x40 MLOAD PUSH32 0x8C379A000000000000000000000000000000000000000000000000000000000 DUP2 MSTORE PUSH1 0x4 ADD PUSH2 0xDEF SWAP1 PUSH2 0x1697 JUMP JUMPDEST PUSH1 0x40 MLOAD DUP1 SWAP2 SUB SWAP1 REVERT JUMPDEST PUSH1 0x1 PUSH0 SWAP1 SLOAD SWAP1 PUSH2 0x100 EXP SWAP1 DIV PUSH20 0xFFFFFFFFFFFFFFFFFFFFFFFFFFFFFFFFFFFFFFFF AND PUSH20 0xFFFFFFFFFFFFFFFFFFFFFFFFFFFFFFFFFFFFFFFF AND PUSH4 0x23B872DD CALLER ADDRESS DUP6 PUSH1 0x40 MLOAD DUP5 PUSH4 0xFFFFFFFF AND PUSH1 0xE0 SHL DUP2 MSTORE PUSH1 0x4 ADD PUSH2 0xE56 SWAP4 SWAP3 SWAP2 SWAP1 PUSH2 0x16B5 JUMP JUMPDEST PUSH1 0x20 PUSH1 0x40 MLOAD DUP1 DUP4 SUB DUP2 PUSH0 DUP8 GAS CALL ISZERO DUP1 ISZERO PUSH2 0xE72 JUMPI RETURNDATASIZE PUSH0 DUP1 RETURNDATACOPY RETURNDATASIZE PUSH0 REVERT JUMPDEST POP POP POP POP PUSH1 0x40 MLOAD RETURNDATASIZE PUSH1 0x1F NOT PUSH1 0x1F DUP3 ADD AND DUP3 ADD DUP1 PUSH1 0x40 MSTORE POP DUP2 ADD SWAP1 PUSH2 0xE96 SWAP2 SWAP1 PUSH2 0x171F JUMP JUMPDEST PUSH2 0xED5 JUMPI PUSH1 0x40 MLOAD PUSH32 0x8C379A000000000000000000000000000000000000000000000000000000000 DUP2 MSTORE PUSH1 0x4 ADD PUSH2 0xECC SWAP1 PUSH2 0x1823 JUMP JUMPDEST PUSH1 0x40 MLOAD DUP1 SWAP2 SUB SWAP1 REVERT JUMPDEST PUSH1 0x2 PUSH0 SWAP1 SLOAD SWAP1 PUSH2 0x100 EXP SWAP1 DIV PUSH20 0xFFFFFFFFFFFFFFFFFFFFFFFFFFFFFFFFFFFFFFFF AND PUSH20 0xFFFFFFFFFFFFFFFFFFFFFFFFFFFFFFFFFFFFFFFF AND PUSH4 0xA9059CBB CALLER DUP4 PUSH1 0x40 MLOAD DUP4 PUSH4 0xFFFFFFFF AND PUSH1 0xE0 SHL DUP2 MSTORE PUSH1 0x4 ADD PUSH2 0xF31 SWAP3 SWAP2 SWAP1 PUSH2 0x17B2 JUMP JUMPDEST PUSH1 0x20 PUSH1 0x40 MLOAD DUP1 DUP4 SUB DUP2 PUSH0 DUP8 GAS CALL ISZERO DUP1 ISZERO PUSH2 0xF4D JUMPI RETURNDATASIZE PUSH0 DUP1 RETURNDATACOPY RETURNDATASIZE PUSH0 REVERT JUMPDEST POP POP POP POP PUSH1 0x40 MLOAD RETURNDATASIZE PUSH1 0x1F NOT PUSH1 0x1F DUP3 ADD AND DUP3 ADD DUP1 PUSH1 0x40 MSTORE POP DUP2 ADD SWAP1 PUSH2 0xF71 SWAP2 SWAP1 PUSH2 0x171F JUMP JUMPDEST PUSH2 0xFB0 JUMPI PUSH1 0x40 MLOAD PUSH32 0x8C379A000000000000000000000000000000000000000000000000000000000 DUP2 MSTORE PUSH1 0x4 ADD PUSH2 0xFA7 SWAP1 PUSH2 0x1794 JUMP JUMPDEST PUSH1 0x40 MLOAD DUP1 SWAP2 SUB SWAP1 REVERT JUMPDEST DUP2 PUSH1 0x3 PUSH0 DUP3 DUP3 SLOAD PUSH2 0xFC1 SWAP2 SWAP1 PUSH2 0x161A JUMP JUMPDEST SWAP3 POP POP DUP2 SWAP1 SSTORE POP DUP1 PUSH1 0x4 PUSH0 DUP3 DUP3 SLOAD PUSH2 0xFD9 SWAP2 SWAP1 PUSH2 0x1841 JUMP JUMPDEST SWAP3 POP POP DUP2 SWAP1 SSTORE POP CALLER PUSH20 0xFFFFFFFFFFFFFFFFFFFFFFFFFFFFFFFFFFFFFFFF AND PUSH32 0xFA2DDA1CC1B86E41239702756B13EFFBC1A092B5C57E3AD320FBE4F3B13FE235 PUSH1 0x1 PUSH0 SWAP1 SLOAD SWAP1 PUSH2 0x100 EXP SWAP1 DIV PUSH20 0xFFFFFFFFFFFFFFFFFFFFFFFFFFFFFFFFFFFFFFFF AND DUP5 DUP5 PUSH1 0x40 MLOAD PUSH2 0x104B SWAP4 SWAP3 SWAP2 SWAP1 PUSH2 0x1874 JUMP JUMPDEST PUSH1 0x40 MLOAD DUP1 SWAP2 SUB SWAP1 LOG2 POP POP JUMP JUMPDEST PUSH2 0x105F PUSH2 0x10DB JUMP JUMPDEST PUSH0 PUSH20 0xFFFFFFFFFFFFFFFFFFFFFFFFFFFFFFFFFFFFFFFF AND DUP2 PUSH20 0xFFFFFFFFFFFFFFFFFFFFFFFFFFFFFFFFFFFFFFFF AND SUB PUSH2 0x10CF JUMPI PUSH0 PUSH1 0x40 MLOAD PUSH32 0x1E4FBDF700000000000000000000000000000000000000000000000000000000 DUP2 MSTORE PUSH1 0x4 ADD PUSH2 0x10C6 SWAP2 SWAP1 PUSH2 0x1269 JUMP JUMPDEST PUSH1 0x40 MLOAD DUP1 SWAP2 SUB SWAP1 REVERT JUMPDEST PUSH2 0x10D8 DUP2 PUSH2 0x1162 JUMP JUMPDEST POP JUMP JUMPDEST PUSH2 0x10E3 PUSH2 0x1223 JUMP JUMPDEST PUSH20 0xFFFFFFFFFFFFFFFFFFFFFFFFFFFFFFFFFFFFFFFF AND PUSH2 0x1101 PUSH2 0x7BF JUMP JUMPDEST PUSH20 0xFFFFFFFFFFFFFFFFFFFFFFFFFFFFFFFFFFFFFFFF AND EQ PUSH2 0x1160 JUMPI PUSH2 0x1124 PUSH2 0x1223 JUMP JUMPDEST PUSH1 0x40 MLOAD PUSH32 0x118CDAA700000000000000000000000000000000000000000000000000000000 DUP2 MSTORE PUSH1 0x4 ADD PUSH2 0x1157 SWAP2 SWAP1 PUSH2 0x1269 JUMP JUMPDEST PUSH1 0x40 MLOAD DUP1 SWAP2 SUB SWAP1 REVERT JUMPDEST JUMP JUMPDEST PUSH0 DUP1 PUSH0 SWAP1 SLOAD SWAP1 PUSH2 0x100 EXP SWAP1 DIV PUSH20 0xFFFFFFFFFFFFFFFFFFFFFFFFFFFFFFFFFFFFFFFF AND SWAP1 POP DUP2 PUSH0 DUP1 PUSH2 0x100 EXP DUP2 SLOAD DUP2 PUSH20 0xFFFFFFFFFFFFFFFFFFFFFFFFFFFFFFFFFFFFFFFF MUL NOT AND SWAP1 DUP4 PUSH20 0xFFFFFFFFFFFFFFFFFFFFFFFFFFFFFFFFFFFFFFFF AND MUL OR SWAP1 SSTORE POP DUP2 PUSH20 0xFFFFFFFFFFFFFFFFFFFFFFFFFFFFFFFFFFFFFFFF AND DUP2 PUSH20 0xFFFFFFFFFFFFFFFFFFFFFFFFFFFFFFFFFFFFFFFF AND PUSH32 0x8BE0079C531659141344CD1FD0A4F28419497F9722A3DAAFE3B4186F6B6457E0 PUSH1 0x40 MLOAD PUSH1 0x40 MLOAD DUP1 SWAP2 SUB SWAP1 LOG3 POP POP JUMP JUMPDEST PUSH0 CALLER SWAP1 POP SWAP1 JUMP JUMPDEST PUSH0 PUSH20 0xFFFFFFFFFFFFFFFFFFFFFFFFFFFFFFFFFFFFFFFF DUP3 AND SWAP1 POP SWAP2 SWAP1 POP JUMP JUMPDEST PUSH0 PUSH2 0x1253 DUP3 PUSH2 0x122A JUMP JUMPDEST SWAP1 POP SWAP2 SWAP1 POP JUMP JUMPDEST PUSH2 0x1263 DUP2 PUSH2 0x1249 JUMP JUMPDEST DUP3 MSTORE POP POP JUMP JUMPDEST PUSH0 PUSH1 0x20 DUP3 ADD SWAP1 POP PUSH2 0x127C PUSH0 DUP4 ADD DUP5 PUSH2 0x125A JUMP JUMPDEST SWAP3 SWAP2 POP POP JUMP JUMPDEST PUSH0 DUP2 SWAP1 POP SWAP2 SWAP1 POP JUMP JUMPDEST PUSH2 0x1294 DUP2 PUSH2 0x1282 JUMP JUMPDEST DUP3 MSTORE POP POP JUMP JUMPDEST PUSH0 PUSH1 0x20 DUP3 ADD SWAP1 POP PUSH2 0x12AD PUSH0 DUP4 ADD DUP5 PUSH2 0x128B JUMP JUMPDEST SWAP3 SWAP2 POP POP JUMP JUMPDEST PUSH0 DUP1 REVERT JUMPDEST PUSH2 0x12C0 DUP2 PUSH2 0x1249 JUMP JUMPDEST DUP2 EQ PUSH2 0x12CA JUMPI PUSH0 DUP1 REVERT JUMPDEST POP JUMP JUMPDEST PUSH0 DUP2 CALLDATALOAD SWAP1 POP PUSH2 0x12DB DUP2 PUSH2 0x12B7 JUMP JUMPDEST SWAP3 SWAP2 POP POP JUMP JUMPDEST PUSH0 PUSH1 0x20 DUP3 DUP5 SUB SLT ISZERO PUSH2 0x12F6 JUMPI PUSH2 0x12F5 PUSH2 0x12B3 JUMP JUMPDEST JUMPDEST PUSH0 PUSH2 0x1303 DUP5 DUP3 DUP6 ADD PUSH2 0x12CD JUMP JUMPDEST SWAP2 POP POP SWAP3 SWAP2 POP POP JUMP JUMPDEST PUSH2 0x1315 DUP2 PUSH2 0x1282 JUMP JUMPDEST DUP2 EQ PUSH2 0x131F JUMPI PUSH0 DUP1 REVERT JUMPDEST POP JUMP JUMPDEST PUSH0 DUP2 CALLDATALOAD SWAP1 POP PUSH2 0x1330 DUP2 PUSH2 0x130C JUMP JUMPDEST SWAP3 SWAP2 POP POP JUMP JUMPDEST PUSH0 PUSH1 0x20 DUP3 DUP5 SUB SLT ISZERO PUSH2 0x134B JUMPI PUSH2 0x134A PUSH2 0x12B3 JUMP JUMPDEST JUMPDEST PUSH0 PUSH2 0x1358 DUP5 DUP3 DUP6 ADD PUSH2 0x1322 JUMP JUMPDEST SWAP2 POP POP SWAP3 SWAP2 POP POP JUMP JUMPDEST PUSH0 DUP1 PUSH1 0x40 DUP4 DUP6 SUB SLT ISZERO PUSH2 0x1377 JUMPI PUSH2 0x1376 PUSH2 0x12B3 JUMP JUMPDEST JUMPDEST PUSH0 PUSH2 0x1384 DUP6 DUP3 DUP7 ADD PUSH2 0x1322 JUMP JUMPDEST SWAP3 POP POP PUSH1 0x20 PUSH2 0x1395 DUP6 DUP3 DUP7 ADD PUSH2 0x1322 JUMP JUMPDEST SWAP2 POP POP SWAP3 POP SWAP3 SWAP1 POP JUMP JUMPDEST PUSH0 DUP3 DUP3 MSTORE PUSH1 0x20 DUP3 ADD SWAP1 POP SWAP3 SWAP2 POP POP JUMP JUMPDEST PUSH32 0x4E6F206C697175696469747920666F7220546F6B656E42000000000000000000 PUSH0 DUP3 ADD MSTORE POP JUMP JUMPDEST PUSH0 PUSH2 0x13E3 PUSH1 0x17 DUP4 PUSH2 0x139F JUMP JUMPDEST SWAP2 POP PUSH2 0x13EE DUP3 PUSH2 0x13AF JUMP JUMPDEST PUSH1 0x20 DUP3 ADD SWAP1 POP SWAP2 SWAP1 POP JUMP JUMPDEST PUSH0 PUSH1 0x20 DUP3 ADD SWAP1 POP DUP2 DUP2 SUB PUSH0 DUP4 ADD MSTORE PUSH2 0x1410 DUP2 PUSH2 0x13D7 JUMP JUMPDEST SWAP1 POP SWAP2 SWAP1 POP JUMP JUMPDEST PUSH32 0x4E487B7100000000000000000000000000000000000000000000000000000000 PUSH0 MSTORE PUSH1 0x11 PUSH1 0x4 MSTORE PUSH1 0x24 PUSH0 REVERT JUMPDEST PUSH0 PUSH2 0x144E DUP3 PUSH2 0x1282 JUMP JUMPDEST SWAP2 POP PUSH2 0x1459 DUP4 PUSH2 0x1282 JUMP JUMPDEST SWAP3 POP DUP3 DUP3 MUL PUSH2 0x1467 DUP2 PUSH2 0x1282 JUMP JUMPDEST SWAP2 POP DUP3 DUP3 DIV DUP5 EQ DUP4 ISZERO OR PUSH2 0x147E JUMPI PUSH2 0x147D PUSH2 0x1417 JUMP JUMPDEST JUMPDEST POP SWAP3 SWAP2 POP POP JUMP JUMPDEST PUSH32 0x4E487B7100000000000000000000000000000000000000000000000000000000 PUSH0 MSTORE PUSH1 0x12 PUSH1 0x4 MSTORE PUSH1 0x24 PUSH0 REVERT JUMPDEST PUSH0 PUSH2 0x14BC DUP3 PUSH2 0x1282 JUMP JUMPDEST SWAP2 POP PUSH2 0x14C7 DUP4 PUSH2 0x1282 JUMP JUMPDEST SWAP3 POP DUP3 PUSH2 0x14D7 JUMPI PUSH2 0x14D6 PUSH2 0x1485 JUMP JUMPDEST JUMPDEST DUP3 DUP3 DIV SWAP1 POP SWAP3 SWAP2 POP POP JUMP JUMPDEST PUSH32 0x4E6F206C697175696469747920666F7220546F6B656E41000000000000000000 PUSH0 DUP3 ADD MSTORE POP JUMP JUMPDEST PUSH0 PUSH2 0x1516 PUSH1 0x17 DUP4 PUSH2 0x139F JUMP JUMPDEST SWAP2 POP PUSH2 0x1521 DUP3 PUSH2 0x14E2 JUMP JUMPDEST PUSH1 0x20 DUP3 ADD SWAP1 POP SWAP2 SWAP1 POP JUMP JUMPDEST PUSH0 PUSH1 0x20 DUP3 ADD SWAP1 POP DUP2 DUP2 SUB PUSH0 DUP4 ADD MSTORE PUSH2 0x1543 DUP2 PUSH2 0x150A JUMP JUMPDEST SWAP1 POP SWAP2 SWAP1 POP JUMP JUMPDEST PUSH32 0x546F6B656E206E6F7420737570706F7274656400000000000000000000000000 PUSH0 DUP3 ADD MSTORE POP JUMP JUMPDEST PUSH0 PUSH2 0x157E PUSH1 0x13 DUP4 PUSH2 0x139F JUMP JUMPDEST SWAP2 POP PUSH2 0x1589 DUP3 PUSH2 0x154A JUMP JUMPDEST PUSH1 0x20 DUP3 ADD SWAP1 POP SWAP2 SWAP1 POP JUMP JUMPDEST PUSH0 PUSH1 0x20 DUP3 ADD SWAP1 POP DUP2 DUP2 SUB PUSH0 DUP4 ADD MSTORE PUSH2 0x15AB DUP2 PUSH2 0x1572 JUMP JUMPDEST SWAP1 POP SWAP2 SWAP1 POP JUMP JUMPDEST PUSH32 0x416D6F756E74206D7573742062652067726561746572207468616E207A65726F PUSH0 DUP3 ADD MSTORE POP JUMP JUMPDEST PUSH0 PUSH2 0x15E6 PUSH1 0x20 DUP4 PUSH2 0x139F JUMP JUMPDEST SWAP2 POP PUSH2 0x15F1 DUP3 PUSH2 0x15B2 JUMP JUMPDEST PUSH1 0x20 DUP3 ADD SWAP1 POP SWAP2 SWAP1 POP JUMP JUMPDEST PUSH0 PUSH1 0x20 DUP3 ADD SWAP1 POP DUP2 DUP2 SUB PUSH0 DUP4 ADD MSTORE PUSH2 0x1613 DUP2 PUSH2 0x15DA JUMP JUMPDEST SWAP1 POP SWAP2 SWAP1 POP JUMP JUMPDEST PUSH0 PUSH2 0x1624 DUP3 PUSH2 0x1282 JUMP JUMPDEST SWAP2 POP PUSH2 0x162F DUP4 PUSH2 0x1282 JUMP JUMPDEST SWAP3 POP DUP3 DUP3 ADD SWAP1 POP DUP1 DUP3 GT ISZERO PUSH2 0x1647 JUMPI PUSH2 0x1646 PUSH2 0x1417 JUMP JUMPDEST JUMPDEST SWAP3 SWAP2 POP POP JUMP JUMPDEST PUSH32 0x496E73756666696369656E74206F757470757420616D6F756E74000000000000 PUSH0 DUP3 ADD MSTORE POP JUMP JUMPDEST PUSH0 PUSH2 0x1681 PUSH1 0x1A DUP4 PUSH2 0x139F JUMP JUMPDEST SWAP2 POP PUSH2 0x168C DUP3 PUSH2 0x164D JUMP JUMPDEST PUSH1 0x20 DUP3 ADD SWAP1 POP SWAP2 SWAP1 POP JUMP JUMPDEST PUSH0 PUSH1 0x20 DUP3 ADD SWAP1 POP DUP2 DUP2 SUB PUSH0 DUP4 ADD MSTORE PUSH2 0x16AE DUP2 PUSH2 0x1675 JUMP JUMPDEST SWAP1 POP SWAP2 SWAP1 POP JUMP JUMPDEST PUSH0 PUSH1 0x60 DUP3 ADD SWAP1 POP PUSH2 0x16C8 PUSH0 DUP4 ADD DUP7 PUSH2 0x125A JUMP JUMPDEST PUSH2 0x16D5 PUSH1 0x20 DUP4 ADD DUP6 PUSH2 0x125A JUMP JUMPDEST PUSH2 0x16E2 PUSH1 0x40 DUP4 ADD DUP5 PUSH2 0x128B JUMP JUMPDEST SWAP5 SWAP4 POP POP POP POP JUMP JUMPDEST PUSH0 DUP2 ISZERO ISZERO SWAP1 POP SWAP2 SWAP1 POP JUMP JUMPDEST PUSH2 0x16FE DUP2 PUSH2 0x16EA JUMP JUMPDEST DUP2 EQ PUSH2 0x1708 JUMPI PUSH0 DUP1 REVERT JUMPDEST POP JUMP JUMPDEST PUSH0 DUP2 MLOAD SWAP1 POP PUSH2 0x1719 DUP2 PUSH2 0x16F5 JUMP JUMPDEST SWAP3 SWAP2 POP POP JUMP JUMPDEST PUSH0 PUSH1 0x20 DUP3 DUP5 SUB SLT ISZERO PUSH2 0x1734 JUMPI PUSH2 0x1733 PUSH2 0x12B3 JUMP JUMPDEST JUMPDEST PUSH0 PUSH2 0x1741 DUP5 DUP3 DUP6 ADD PUSH2 0x170B JUMP JUMPDEST SWAP2 POP POP SWAP3 SWAP2 POP POP JUMP JUMPDEST PUSH32 0x5472616E73666572206F6620546F6B656E42206661696C656400000000000000 PUSH0 DUP3 ADD MSTORE POP JUMP JUMPDEST PUSH0 PUSH2 0x177E PUSH1 0x19 DUP4 PUSH2 0x139F JUMP JUMPDEST SWAP2 POP PUSH2 0x1789 DUP3 PUSH2 0x174A JUMP JUMPDEST PUSH1 0x20 DUP3 ADD SWAP1 POP SWAP2 SWAP1 POP JUMP JUMPDEST PUSH0 PUSH1 0x20 DUP3 ADD SWAP1 POP DUP2 DUP2 SUB PUSH0 DUP4 ADD MSTORE PUSH2 0x17AB DUP2 PUSH2 0x1772 JUMP JUMPDEST SWAP1 POP SWAP2 SWAP1 POP JUMP JUMPDEST PUSH0 PUSH1 0x40 DUP3 ADD SWAP1 POP PUSH2 0x17C5 PUSH0 DUP4 ADD DUP6 PUSH2 0x125A JUMP JUMPDEST PUSH2 0x17D2 PUSH1 0x20 DUP4 ADD DUP5 PUSH2 0x128B JUMP JUMPDEST SWAP4 SWAP3 POP POP POP JUMP JUMPDEST PUSH32 0x5472616E73666572206F6620546F6B656E41206661696C656400000000000000 PUSH0 DUP3 ADD MSTORE POP JUMP JUMPDEST PUSH0 PUSH2 0x180D PUSH1 0x19 DUP4 PUSH2 0x139F JUMP JUMPDEST SWAP2 POP PUSH2 0x1818 DUP3 PUSH2 0x17D9 JUMP JUMPDEST PUSH1 0x20 DUP3 ADD SWAP1 POP SWAP2 SWAP1 POP JUMP JUMPDEST PUSH0 PUSH1 0x20 DUP3 ADD SWAP1 POP DUP2 DUP2 SUB PUSH0 DUP4 ADD MSTORE PUSH2 0x183A DUP2 PUSH2 0x1801 JUMP JUMPDEST SWAP1 POP SWAP2 SWAP1 POP JUMP JUMPDEST PUSH0 PUSH2 0x184B DUP3 PUSH2 0x1282 JUMP JUMPDEST SWAP2 POP PUSH2 0x1856 DUP4 PUSH2 0x1282 JUMP JUMPDEST SWAP3 POP DUP3 DUP3 SUB SWAP1 POP DUP2 DUP2 GT ISZERO PUSH2 0x186E JUMPI PUSH2 0x186D PUSH2 0x1417 JUMP JUMPDEST JUMPDEST SWAP3 SWAP2 POP POP JUMP JUMPDEST PUSH0 PUSH1 0x60 DUP3 ADD SWAP1 POP PUSH2 0x1887 PUSH0 DUP4 ADD DUP7 PUSH2 0x125A JUMP JUMPDEST PUSH2 0x1894 PUSH1 0x20 DUP4 ADD DUP6 PUSH2 0x128B JUMP JUMPDEST PUSH2 0x18A1 PUSH1 0x40 DUP4 ADD DUP5 PUSH2 0x128B JUMP JUMPDEST SWAP5 SWAP4 POP POP POP POP JUMP JUMPDEST PUSH32 0x416D6F756E7473206D7573742062652067726561746572207468616E207A6572 PUSH0 DUP3 ADD MSTORE PUSH32 0x6F00000000000000000000000000000000000000000000000000000000000000 PUSH1 0x20 DUP3 ADD MSTORE POP JUMP JUMPDEST PUSH0 PUSH2 0x1903 PUSH1 0x21 DUP4 PUSH2 0x139F JUMP JUMPDEST SWAP2 POP PUSH2 0x190E DUP3 PUSH2 0x18A9 JUMP JUMPDEST PUSH1 0x40 DUP3 ADD SWAP1 POP SWAP2 SWAP1 POP JUMP JUMPDEST PUSH0 PUSH1 0x20 DUP3 ADD SWAP1 POP DUP2 DUP2 SUB PUSH0 DUP4 ADD MSTORE PUSH2 0x1930 DUP2 PUSH2 0x18F7 JUMP JUMPDEST SWAP1 POP SWAP2 SWAP1 POP JUMP JUMPDEST PUSH0 PUSH1 0x40 DUP3 ADD SWAP1 POP PUSH2 0x194A PUSH0 DUP4 ADD DUP6 PUSH2 0x128B JUMP JUMPDEST PUSH2 0x1957 PUSH1 0x20 DUP4 ADD DUP5 PUSH2 0x128B JUMP JUMPDEST SWAP4 SWAP3 POP POP POP JUMP JUMPDEST PUSH32 0x496E73756666696369656E7420546F6B656E4120726573657276650000000000 PUSH0 DUP3 ADD MSTORE POP JUMP JUMPDEST PUSH0 PUSH2 0x1992 PUSH1 0x1B DUP4 PUSH2 0x139F JUMP JUMPDEST SWAP2 POP PUSH2 0x199D DUP3 PUSH2 0x195E JUMP JUMPDEST PUSH1 0x20 DUP3 ADD SWAP1 POP SWAP2 SWAP1 POP JUMP JUMPDEST PUSH0 PUSH1 0x20 DUP3 ADD SWAP1 POP DUP2 DUP2 SUB PUSH0 DUP4 ADD MSTORE PUSH2 0x19BF DUP2 PUSH2 0x1986 JUMP JUMPDEST SWAP1 POP SWAP2 SWAP1 POP JUMP JUMPDEST PUSH32 0x496E73756666696369656E7420546F6B656E4220726573657276650000000000 PUSH0 DUP3 ADD MSTORE POP JUMP JUMPDEST PUSH0 PUSH2 0x19FA PUSH1 0x1B DUP4 PUSH2 0x139F JUMP JUMPDEST SWAP2 POP PUSH2 0x1A05 DUP3 PUSH2 0x19C6 JUMP JUMPDEST PUSH1 0x20 DUP3 ADD SWAP1 POP SWAP2 SWAP1 POP JUMP JUMPDEST PUSH0 PUSH1 0x20 DUP3 ADD SWAP1 POP DUP2 DUP2 SUB PUSH0 DUP4 ADD MSTORE PUSH2 0x1A27 DUP2 PUSH2 0x19EE JUMP JUMPDEST SWAP1 POP SWAP2 SWAP1 POP JUMP INVALID LOG2 PUSH5 0x6970667358 0x22 SLT KECCAK256 0xE0 CREATE 0xAD DUP14 PUSH17 0xE92F582338335786A7F62E14C9B2D421A2 0x4A 0xD9 0xC 0xE2 EQ PUSH27 0x1DA1800464736F6C63430008140033000000000000000000000000 "
				},
				"gasEstimates": {
					"creation": {
						"codeDepositCost": "1351200",
						"executionCost": "infinite",
						"totalCost": "infinite"
					},
					"external": {
						"addLiquidity(uint256,uint256)": "infinite",
						"getPrice(address)": "infinite",
						"owner()": "2515",
						"removeLiquidity(uint256,uint256)": "infinite",
						"renounceOwnership()": "infinite",
						"reserveA()": "2491",
						"reserveB()": "2448",
						"swapAforB(uint256)": "infinite",
						"swapBforA(uint256)": "infinite",
						"tokenA()": "2509",
						"tokenB()": "2575",
						"transferOwnership(address)": "infinite"
					}
				},
				"methodIdentifiers": {
					"addLiquidity(uint256,uint256)": "9cd441da",
					"getPrice(address)": "41976e09",
					"owner()": "8da5cb5b",
					"removeLiquidity(uint256,uint256)": "9d7de6b3",
					"renounceOwnership()": "715018a6",
					"reserveA()": "dc5fa6c5",
					"reserveB()": "19e36f3b",
					"swapAforB(uint256)": "e4f1f70a",
					"swapBforA(uint256)": "8014a7aa",
					"tokenA()": "0fc63d10",
					"tokenB()": "5f64b55b",
					"transferOwnership(address)": "f2fde38b"
				}
			},
			"storageLayout": {
				"storage": [
					{
						"astId": 34,
						"contract": "contracts/TPMod04/SimpleDexV2_flattened.sol:SimpleDEX",
						"label": "_owner",
						"offset": 0,
						"slot": "0",
						"type": "t_address"
					},
					{
						"astId": 253,
						"contract": "contracts/TPMod04/SimpleDexV2_flattened.sol:SimpleDEX",
						"label": "tokenA",
						"offset": 0,
						"slot": "1",
						"type": "t_address"
					},
					{
						"astId": 255,
						"contract": "contracts/TPMod04/SimpleDexV2_flattened.sol:SimpleDEX",
						"label": "tokenB",
						"offset": 0,
						"slot": "2",
						"type": "t_address"
					},
					{
						"astId": 257,
						"contract": "contracts/TPMod04/SimpleDexV2_flattened.sol:SimpleDEX",
						"label": "reserveA",
						"offset": 0,
						"slot": "3",
						"type": "t_uint256"
					},
					{
						"astId": 259,
						"contract": "contracts/TPMod04/SimpleDexV2_flattened.sol:SimpleDEX",
						"label": "reserveB",
						"offset": 0,
						"slot": "4",
						"type": "t_uint256"
					}
				],
				"types": {
					"t_address": {
						"encoding": "inplace",
						"label": "address",
						"numberOfBytes": "20"
					},
					"t_uint256": {
						"encoding": "inplace",
						"label": "uint256",
						"numberOfBytes": "32"
					}
				}
			},
			"userdoc": {
				"kind": "user",
				"methods": {},
				"version": 1
			}
		}
	}
}